:100000000C94340D0C94650D0C94650D0C94650DD9
:100010000C94650D0C94650D0C94650D0C94650D98
:100020000C94650D0C94650D0C94650D0C94650D88
:100030000C94650D0C94650D0C94650D0C94650D78
:100040000C94650D0C948F880C94650D0C94650DC3
:100050000C94650D0C94650D0C94650D0C94E8BA28
:100060000C94650D0C944EBE0C9484BE0C94650DDE
:100070000C94650D0C94650D0C94650D0C94650D38
:100080000C94BC880C94650D0C94650D0C94650D56
:100090000C94650D0C94650D0C94650D0C94650D18
:1000A0000C94650D0C94650D0C94E9880C94650D09
:1000B0000C94650D0C94650D0C94650D0C941689CB
:1000C0000C94650D0C94650D0C94650D0C94650DE8
:1000D0000C94650D0C94650D0C94650D0C94650DD8
:1000E0000C94650D111610175F17AD17C817E3179D
:1000F000FE173118A7197A19911864186C1D6C1D18
:10010000C218DD186C1DEF19C219E61AE31BB61BE5
:10011000431C161C9D1A821A4F1A221A501B011BCF
:10012000831B44167716F81847197A17AA166C1D00
:100130004719031DD61CA31C761CDD16361D7463DF
:10014000866777637B638667806388639063BC633D
:100150007865A06586678667C8652C658667EA63EB
:100160001664DF65E1650A6636665F6644646A6444
:10017000B264DA64D765D565D9656C637063696507
:10018000DB658B661E658667DD65A366D5660667DB
:1001900037678F666767308137813E8145814C8143
:1001A0006381538163815A81D381D781DB81DF8170
:1001B000E381E781EB8120923E9265927B927B9274
:1001C0007B9292921A9320921A93B5921A93C392A9
:1001D000C392E092E0926592469346936592C392F1
:1001E0001A937B92EE921A931A931A931A931A9374
:1001F00008931A931A93B3931495FD95CC96D797B9
:10020000D7976999BD9A62A0CA9BBB9D279EF0A112
:10021000C9A2A5A4A5A4FD9598AD98ADFD959CA3F4
:10022000A6A5EB986FA63AA740A967A8F9A940AB85
:100230009AACAEAC629C0CBC0FBCFEBB02BC08BC52
:1002400046BC13BC17BC1DBC21BC25BC2BBC2FBCA1
:1002500033BC46BC39BC3DBC41BC05A84CCDB2D476
:100260004EB93836A9020C50B9918688083CA6AA26
:10027000AA2ABE000000803F50424D20696D616790
:1002800065206D757374206265206174206C6561F2
:10029000737420313020706978656C7320776964DD
:1002A000652E002C206D61782064656E7369747909
:1002B0003A20002C2070656E2077696474683A20BB
:1002C0000050656E776964746820746573742000EB
:1002D0002C20726564756365643A002C206F757418
:1002E0004D61783A002C20696E4D61783A00696E54
:1002F00044656E733A004E6F7420706F7373696259
:100300006C6520746F206578707265737320616E00
:10031000792064657461696C2E0020697320002C5B
:1003200020677269643A20004D53472C492C4D6177
:100330007820776176657320666F722070656E53E2
:10034000697A653A20002C20736F20726F77736989
:100350007A6520696E2073746570733A20002C20D2
:100360006D6D506572537465703A20004D53472C83
:10037000442C726F7773697A6520696E206D6D3ACF
:1003800020002073746570732E003A20004D696E52
:10039000207365676D656E742073697A6520666F7A
:1003A000722070656E53697A65200063616C63200A
:1003B00053450063616C63204E570063616C63209A
:1003C00053570063616C63204E450063616C637535
:1003D0006C61746564204E450063616C63756C618B
:1003E0007465642053570063616C63756C61746558
:1003F000642053450063616C63756C6174656420AF
:100400004E57002E002C20736F75726365423A20A0
:10041000002E20536F75726365413A20002C2074C2
:100420006172676574423A20005461726765744175
:100430003A20002C206F4F7574206E756D626572C6
:10044000206F662077617665733A20002C20696EF4
:100450007075742064656E736974793A20004D611B
:10046000782077617665732077697468207468698D
:10047000732070656E20616E6420677269647369B1
:100480007A653A20002E002E20656E6420706F6918
:100490006E743A2000537461727420706F696E74C8
:1004A0003A2000643A204E4500643A204E570064DA
:1004B0003A20535700643A205345002C206D617850
:1004C0002064656E736974793A20002C2070656E23
:1004D0002077696474683A200050656E77696474A7
:1004E00068207465737420004368616E67696E6785
:1004F000206261636B20746F206C697665206D6F7C
:1005000064652E0046696C652072656D6F76656462
:100510002E0046696C6520616C72656164792065A6
:1005200078697374732E00457865637574696E67B6
:1005300020636F6D6D616E643A0053746F72696E03
:100540006720636F6D6D616E643A006D6D00436886
:10055000616E6765642050656E20776964746820F9
:10056000746F20004E657720616363656C6572610E
:1005700074696F6E3A20004E6577206D6178207344
:10058000706565643A200055703A2000446F776EBC
:100590003A2000504753504545442C0050474C49A1
:1005A00046542C005047535445504D554C544950D7
:1005B0004C4945522C0050475354455053504552D6
:1005C0005245562C0050474D4D5045525245562CE1
:1005D00000504753495A452C0050474E414D452C39
:1005E000002900526563616C63207061676548652E
:1005F0006967687420696E207374657073202800C1
:100600002900526563616C63207061676557696496
:10061000746820696E207374657073202800290047
:10062000292C2073746570735065724D4D2028001D
:10063000526563616C63206D6D50657253746570B3
:100640002028004C6F61646564206D6F746F7220A8
:1006500073746570206D756C7469706C6965723A3D
:10066000004C6F61646564206D616368696E65202C
:100670006E616D653A004C6F616465642075702031
:10068000706F733A004C6F6164656420646F776EBD
:1006900020706F733A004C6F61646564206D6F74F5
:1006A0006F72207374657073207065722072657646
:1006B0003A004C6F61646564206D6D207065722036
:1006C0007265763A004C6F61646564206D616368A1
:1006D000696E65206865696768743A004C6F61648B
:1006E0006564206D616368696E652077696474680C
:1006F0003A00206E6F74207265636F676E69736570
:10070000642E0029206E6F74207061727365642EF0
:10071000004D53472C452C436F6D6D616E6420284E
:10072000002C20636865636B73756D206E6F742099
:100730006D617463686564213A00536572766F2059
:100740000048617264776172653A20007600504F0C
:100750004C41524752415048204F4E21000000006A
:10076000006410B71DC8206E3BAC30D9269041DC28
:1007700076F4516B6B5861B24D3C7105502083B8D3
:10078000ED44930FF0E8A3D6D68CB361CBB0C2642E
:100790009BD4D2D38678E20AA01CF2BDBD7C3C3E3D
:1007A0005E2B3D3F2F5B5D3B2C2A225C001010200E
:1007B0005F000000000000000000000000000000DA
:1007C0000000000000000000000000000000000029
:1007D000000000000007000F800F800F800F800FC7
:1007E0008007000700000000000700070007000066
:1007F0000000000E380E380E380E380630000000AB
:1008000000000000000000000000000000000000E8
:100810000000000C300C300C307FFE7FFE0C300CE2
:10082000300C300C307FFE7FFE0C300C300C300072
:10083000000000024002400FF81FF81A401A401F43
:10084000F00FF8025802581FF81FF0024002400053
:10085000000000000000000E100E300E7000E001DD
:10086000C0038007000E700C7008700000000000CC
:1008700000000000000F001980198019800F000F80
:10088000080F9819F818F018E019F00F98000000F8
:1008900000000000000700070007000E0000000035
:1008A0000000000000000000000000000000000048
:1008B000000000000000F001C0038007000E000EE1
:1008C000000E000E000700038001C000F0000000D1
:1008D00000000000000F00038001C000E000700075
:1008E000700070007000E001C003800F0000000085
:1008F000000000000001801188099007E007E03F38
:10090000FC3FFC07E007E00990118801800000002F
:100910000000000000000000000180018001800F45
:10092000F00FF00180018001800000000000000055
:1009300000000000000000000000000000000000B7
:10094000000000000000000700070007000E000084
:100950000000000000000000000000000000001F78
:10096000F81FF80000000000000000000000000078
:100970000000000000000000000000000000000077
:100980000000000000000007000700070000000052
:10099000000000000000020006000E001C003800ED
:1009A0007000E001C0038007000E001C0000000082
:1009B00000000000000FF01C381C781CF81CF81D0B
:1009C000B81DB81F381F381E381C380FF000000043
:1009D00000000000000180018003801F801F800351
:1009E00080038003800380038003801FF0000000E9
:1009F00000000000000FE01C701C38003800700080
:100A0000E001C0038007000E381C381FF80000000A
:100A100000000000000FE01C701C3800380070035C
:100A2000C003C0007000381C381C700FE0000000CC
:100A3000000000000000E001E003E006E00CE01828
:100A4000E01FF81FF800E000E000E003F8000000FD
:100A500000000000001FF81C001C001C001C001FF0
:100A6000E01FF0007800381C381C700FE000000018
:100A7000000000000003E007000E001C001C001F27
:100A8000F01FF81C381C381C381C380FF000000010
:100A900000000000001FFC1C1C1C1C1C1C001C0077
:100AA00038007000E001C003800380038000000074
:100AB00000000000000FF01C381C381C381F3807DD
:100AC000E007E01CF81C381C381C380FF000000050
:100AD00000000000000FF01C381C381C381C381FA8
:100AE000F80FF800380038007000E007C000000080
:100AF000000000000000000000038003800380006D
:100B0000000000038003800380000000000000005C
:100B1000000000000000000000038003800380004C
:100B20000000000380038003800700000000000035
:100B3000000000007000E001C0038007000E001CF0
:100B4000001C000E000700038001C000E0007000E0
:100B500000000000000000000000003FFC3FFC001F
:100B60000000003FFC3FFC0000000000000000000F
:100B70000000001C000E000700038001C000E00020
:100B800070007000E001C0038007000E001C000030
:100B900000000003C00FF01E781838003800700005
:100BA000E001C001C00000000001C001C001C000A0
:100BB0000000000FF81C1C1C1C1C1C1C1C1CFC1C1A
:100BC000FC1CFC1CFC1C001C001C001FF007F80097
:100BD000000000000003C007E00E701C381C381C29
:100BE000381C381FF81C381C381C381C3800000012
:100BF00000000000001FF00E380E380E380E380FBF
:100C0000F00FF00E380E380E380E381FF0000000CE
:100C1000000000000007F00E381C381C001C001CEF
:100C2000001C001C001C001C380E3807F0000000DF
:100C300000000000001FE00E700E380E380E380E57
:100C4000380E380E380E380E380E701FE0000000D7
:100C500000000000001FF80E180E080E000E300FE6
:100C6000F00FF00E300E000E080E181FF8000000F6
:100C700000000000001FF80E180E080E000E300FC6
:100C8000F00FF00E300E000E000E001F00000000EE
:100C9000000000000007F00E381C381C381C001C37
:100CA000001C001CF81C381C380E3807F800000027
:100CB00000000000001C701C701C701C701C701F59
:100CC000F01FF01C701C701C701C701C7000000069
:100CD00000000000000FE003800380038003800316
:100CE00080038003800380038003800FE000000006
:100CF000000000000001FC00700070007000700037
:100D000070007038703870387038700FE000000074
:100D100000000000001E380E380E700EE00FC00FED
:100D2000800F800FC00EE00E700E381E38000000DD
:100D300000000000001F000E000E000E000E000E4E
:100D4000000E000E000E080E180E381FF8000000EE
:100D500000000000001C1C1E3C1F7C1FFC1FFC1D13
:100D6000DC1C9C1C1C1C1C1C1C1C1C1C1C000000D7
:100D700000000000001C1C1C1C1E1C1F1C1F9C1DB6
:100D8000DC1CFC1C7C1C3C1C1C1C1C1C1C000000D7
:100D9000000000000003E007F00E381C1C1C1C1CA7
:100DA0001C1C1C1C1C1C1C0E3807F003E00000005F
:100DB00000000000001FF00E380E380E380E380FFD
:100DC000F00FF00E000E000E000E001F00000000DD
:100DD000000000000003E00F780E381C1C1C1C1CD7
:100DE0001C1C1C1C7C1CFC0FF80FF8003800FC00BD
:100DF00000000000001FF00E380E380E380E380FBD
:100E0000F00FF00E700E380E380E381E380000004D
:100E100000000000000FF01C381C381C381C000FAC
:100E2000E007F000381C381C381C380FF0000000B8
:100E300000000000001FFC19CC11C401C001C0015A
:100E4000C001C001C001C001C001C007F000000026
:100E500000000000001C701C701C701C701C701CBA
:100E6000701C701C701C701C701C700FE000000067
:100E700000000000001C701C701C701C701C701C9A
:100E8000701C701C701C700EE007C0038000000016
:100E900000000000001C1C1C1C1C1C1C1C1C1C1C1E
:100EA0009C1C9C1C9C0FF80FF8077007700000003A
:100EB00000000000001C701C701C700EE007C003D6
:100EC00080038007C00EE01C701C701C70000000C6
:100ED00000000000001C701C701C701C701C700E48
:100EE000E007C003800380038003800FE000000060
:100EF00000000000001FF81C381838107000E001D6
:100F0000C0038007000E081C181C381FF8000000E2
:100F1000000000000007F0070007000700070007B7
:100F2000000700070007000700070007F0000000A7
:100F30000000000000100018001C000E0007000355
:100F40008001C000E000700038001C0007000000B5
:100F5000000000000007F0007000700070007000DA
:100F6000700070007000700070007007F0000000EA
:100F7000000000018003C007E00E701C3800000074
:100F80000000000000000000000000000000000061
:100F90000000000000000000000000000000000051
:100FA000000000000000000000000000007FFF7F44
:100FB000FF000000001C001C0007000700000000EC
:100FC0000000000000000000000000000000000021
:100FD000000000000000000000000000000FE00022
:100FE0007000700FF01C701C701C700FD800000097
:100FF00000000000001E000E000E000E000FF00E9C
:10100000380E380E380E380E380E381BF00000003F
:10101000000000000000000000000000000FE01CC5
:10102000701C701C001C001C701C700FE000000085
:10103000000000000000F80070007000700FF01C4D
:10104000701C701C701C701C701C700FD80000008D
:10105000000000000000000000000000000FE01C85
:10106000701C701FF01C001C701C700FE000000052
:10107000000000000003E007700770070007001F72
:10108000E01FE007000700070007001FC000000086
:10109000000000000000000000000000000FD81C4D
:1010A000701C701C701C700FF007F000701C700F2B
:1010B000E0000000001E000E000E000E000EF00FFB
:1010C000380F380E380E380E380E381E3800000033
:1010D000000000000001C001C001C000000FC001FD
:1010E000C001C001C001C001C001C00FF800000074
:1010F0000000000000007000700070000003F000AD
:1011000070007000700070007000701C700CF007B0
:10111000E0000000001E000E000E000E000E380E53
:10112000700EE00FC00EE00E700E381E380000008A
:1011300000000000000FC001C001C001C001C001DB
:10114000C001C001C001C001C001C00FF800000013
:10115000000000000000000000000000001FF81C5C
:101160009C1C9C1C9C1C9C1C9C1C9C1C9C00000093
:10117000000000000000000000000000001FE01C54
:10118000701C701C701C701C701C701C70000000A7
:10119000000000000000000000000000000FE01C44
:1011A000701C701C701C701C701C700FE000000024
:1011B000000000000000000000000000001BF00E16
:1011C000380E380E380E380E380FF00E000E001F95
:1011D000000000000000000000000000001FB03808
:1011E000E038E038E038E038E01FE000E000E001FF
:1011F000F00000000000000000000000001EF00FE2
:10120000F80F380E000E000E000E001F0000000048
:10121000000000000000000000000000000FE01CC3
:10122000301C300F8003E0187018700FE0000000D1
:10123000000000000000000100030007001FF0078D
:10124000000700070007000770077003E0000000B8
:10125000000000000000000000000000001C701CE6
:10126000701C701C701C701C701C700FD80000006B
:10127000000000000000000000000000001C701CC6
:10128000701C701C701C700EE007C0038000000012
:10129000000000000000000000000000001C1C1CFA
:1012A0001C1C1C1C9C1C9C0FF80770077000000085
:1012B000000000000000000000000000001CE01C16
:1012C000E00FC0078007800FC01CE01CE00000009A
:1012D000000000000000000000000000000E380EBA
:1012E000380E380E380E3807F003E000E001C01F5A
:1012F000800000000000000000000000001FE01857
:10130000E011C0038007000E201C601FE0000000F9
:10131000000000000001F803800380038007001C28
:10132000001C00070003800380038001F800000018
:1013300000000001C001C001C001C001C001C00126
:10134000C001C001C001C001C001C001C001C00096
:1013500000000000001F8001C001C001C000E000CB
:1013600038003800E001C001C001C01F800000004B
:1013700000000000001F1C3B9C39DC38F800000016
:10138000000000000000000000000000000000005D
:1013900000080C205F0000000000000000000000BA
:1013A00000000020202020202000200000002850E5
:1013B00050000000000000000000002828FC285019
:1013C000FC50500000002078A8A0603028A8F02031
:1013D00000000048A8B05028345448000000002005
:1013E000505078A8A8906C00000040408000000099
:1013F0000000000000000408101010101010080475
:1014000000004020101010101010204000000000BC
:1014100020A87070A8200000000000202020F820E4
:1014200020200000000000000000000000004040FC
:10143000800000000000F800000000000000000034
:1014400000000000000040000000081010102020E4
:10145000404040800000007088888888888870003C
:10146000000000206020202020207000000000707C
:10147000888810204080F80000000070880830083C
:10148000088870000000001030505090781018004C
:10149000000000F88080F0080888700000000070EC
:1014A0009080F08888887000000000F8901020205C
:1014B00020202000000000708888708888887000D4
:1014C00000000070888888780848700000000000DC
:1014D00000200000000020000000000000002000AC
:1014E0000000202000000408102040201008040004
:1014F0000000000000F80000F8000000000040209C
:101500001008040810204000000000708888102097
:1015100020002000000000708898A8A8B8807800FB
:1015200000000020203050507848CC00000000F02F
:10153000484870484848F000000000788880808063
:1015400080887000000000F0484848484848F00093
:10155000000000F8485070504048F800000000F8C3
:10156000485070504040E000000000384880809CA7
:1015700088483000000000CC484878484848CC00F3
:10158000000000F8202020202020F8000000007C2F
:1015900010101010101090E0000000EC4850605047
:1015A0005048EC00000000E0404040404044FC0057
:1015B000000000D8D8D8D8A8A8A8A800000000DC4F
:1015C000486868585848E800000000708888888893
:1015D00088887000000000F0484870404040E000FB
:1015E0000000007088888888E8987018000000F073
:1015F000484870504848EC0000000078888060102F
:101600000888F000000000F8A820202020207000AA
:10161000000000CC4848484848483000000000CC52
:101620004848505030202000000000A8A8A8705062
:1016300050505000000000D8505020205050D8008A
:10164000000000D85050202020207000000000F83A
:10165000901020204048F800000038202020202052
:1016600020202038000040404020201010100800AA
:10167000000070101010101010101070000020509A
:10168000000000000000000000000000000000005A
:1016900000000000FC00200000000000000000002E
:1016A000000000000000304838483C00000000C046
:1016B0004040704848487000000000000000384872
:1016C00040403800000000180808384848483C00EE
:1016D0000000000000003048784038000000001C86
:1016E00020207820202078000000000000003C48E6
:1016F00030407844380000C0404070484848EC0012
:101700000000002000006020202070000000001079
:101710000000301010101010E00000C040405C507D
:101720007048EC00000000E0202020202020F8007D
:10173000000000000000F0A8A8A8A8000000000019
:101740000000F0484848EC0000000000000030486D
:1017500048483000000000000000F0484848704051
:10176000E000000000003848484838081C0000002D
:101770000000D8604040E000000000000000784019
:101780003008780000000000202070202020180081
:10179000000000000000D84848483C00000000005D
:1017A0000000EC4850302000000000000000A8A815
:1017B00070505000000000000000D8502050D800A9
:1017C000000000000000EC4850302020C000000065
:1017D0000000781020207800000018101010201051
:1017E0001010101800101010101010101010101001
:1017F0001000602020201020202020600040A4182D
:1018000000000000000000000000000A0B02090CAC
:101810000D0E080703040100000000000000000096
:1018200000000000000000000000000000000000B8
:101830000000000000121110000000000000000075
:101840000000000000000000000000000000000197
:1018500002102020080810204010204080020102C1
:101860000108040201010204081020408080402089
:1018700010080402018004020180402010080402C4
:101880000108040201010204081020408001020442
:10189000081020408005050505070508080808020E
:1018A0000202020A0A0808040404040101010101F9
:1018B0000101010303030303030303040707070CE8
:1018C0000C0C0C0C0C0C0C0202020206060606069E
:1018D0000606060B0B0B0B0B0B0B0B00002000235B
:1018E00000260029002C002F003200000100000318
:1018F000010601090100002200250028002B002E0E
:10190000003100340002010000050108010B010054
:10191000002100240027002A002D003000330001A0
:10192000010000040107010A014E414E494E49548D
:1019300059494E46CDCCCC3D0AD7233C17B7D138B8
:1019400077CC2B329595E6241FB14F0A0000204139
:101950000000C84200401C4620BCBE4CCA1B0E5AA8
:10196000AEC59D7400407A10F35A00A0724E18095B
:101970000010A5D4E80000E87648170000E40B54F6
:10198000020000CA9A3B000000E1F50500008096C5
:101990009800000040420F000000A08601000000F7
:1019A000102700000000E8030000000064000000B1
:1019B00000000A00000000000100000000002C767A
:1019C000D888DC674F0823DFC1DFAE59E1B1B79695
:1019D000E5E3E453C63AE651997696E8E6C28426F2
:1019E000EB898C9B62ED407C6FFCEFBC9C9F40F2CE
:1019F000BAA56FA5F490055A2AF75C936B6CF9674A
:101A00006DC11BFCE0E40D47FEF520E6B500D0ED0E
:101A1000902E0300943577050080841E0800002076
:101A20004E0A000000C80C333333330F986E128314
:101A30001141EF8D2114893BE65516CFFEE6DB18E8
:101A4000D1844B381BF77C1D901DA4BBE4242032AD
:101A500084725E228100C9F124ECA1E53D272E3974
:101A6000D571E674B6BEA23B11241FBECFEFD1E202
:101A7000DEBFCDBF00E00CBF11E1A0E0B2E0E8E7BF
:101A8000F0EA01E00BBF02C007900D92A63EB1073D
:101A9000D9F728E1A6EEB1E101C01D92A43DB2073D
:101AA000E1F71AE1C6E6DAE100E006C02297010993
:101AB000FE010BBF0E94E2C8CE35D10780E00807C7
:101AC000A9F70E94FABE0C942BD00C9400000E943F
:101AD0008FC391E0811190E0892F08956F927F92DA
:101AE0008F929F92AF92BF92CF92DF92EF92FF922E
:101AF0000F931F93CF93DF9300D000D0CDB7DEB705
:101B00006C01FC0184809580E12CF12C00E010E058
:101B1000712C612CE814F9040CF04CC0B701C6011B
:101B20000E9423C497012F5F3F4F59018C3209F067
:101B30003FC09701472D562DB601CE0101960E9458
:101B4000A3C47A2C6B2C02301105F9F064F4011552
:101B50001105A9F00130110529F5BE016F5F7F4F16
:101B60008DED94E11DC003301105A9F0043011057D
:101B7000C9F4BE016F5F7F4F8BEC94E111C0BE01D1
:101B80006F5F7F4F83EE94E10BC0BE016F5F7F4FAD
:101B900087ED94E105C0BE016F5F7F4F81ED94E159
:101BA0000E94A7C20F5F1F4FCE0101960E9429C25B
:101BB0007501B0CF1093CA140093C91426960FB6BE
:101BC000F894DEBF0FBECDBFDF91CF911F910F9173
:101BD000FF90EF90DF90CF90BF90AF909F908F904D
:101BE0007F906F9008950F931F93CF93DF9300D052
:101BF00000D0CDB7DEB78C0162E774E10E94E0C38C
:101C0000882371F0B801CE0101960E94BCC2CE01BA
:101C1000019664DFCE0101960E9429C281E001C0D5
:101C200080E026960FB6F894DEBF0FBECDBFDF91E1
:101C3000CF911F910F910895EF92FF920F931F93F1
:101C4000CF93DF93CDB7DEB7EDB6FEB6FC0144818E
:101C500055814F5F5F4F2DB73EB7241B350B0FB635
:101C6000F8943EBF0FBE2DBF0DB71EB70F5F1F4FBD
:101C700020E030E0B8010E9424C4C8010E9487CB54
:101C80000FB6F894FEBE0FBEEDBEDF91CF911F914F
:101C90000F91FF90EF900895EF92FF920F931F9393
:101CA000CF93DF93CDB7DEB7EDB6FEB6FC0144812E
:101CB00055814F5F5F4F2DB73EB7241B350B0FB6D5
:101CC000F8943EBF0FBE2DBF0DB71EB70F5F1F4F5D
:101CD00020E030E0B8010E9424C4C8010E946ACB11
:101CE0000FB6F894FEBE0FBEEDBEDF91CF911F91EF
:101CF0000F91FF90EF900895EF92FF920F931F9333
:101D0000CF93DF93CDB7DEB7EDB6FEB6FC014481CD
:101D100055814F5F5F4F2DB73EB7241B350B0FB674
:101D2000F8943EBF0FBE2DBF0DB71EB70F5F1F4FFC
:101D300020E030E0B8010E9424C4C8010E9467CBB3
:101D40000FB6F894FEBE0FBEEDBEDF91CF911F918E
:101D50000F91FF90EF9008956BEB74E180E398E1B1
:101D60000C94A1BF65EB74E180E398E10C94A1BFF2
:101D7000CF93DF93EC0161E273E080E398E10E948E
:101D800077BFBE0180E398E10E9469BF62EF76E011
:101D900080E398E1DF91CF910C9491BF61E083E003
:101DA0000E9447BC61E083E00E9480BC61E086E065
:101DB0000E9447BC61E086E00E9480BC63E08DE544
:101DC00092E10E94808721E040E060E08DE592E1B1
:101DD0000E94958766E089E192E10E94808721E078
:101DE00040E061E089E192E10C949587CF93DF9325
:101DF000C0E0D0E04AE050E0BE0180E398E10E94FC
:101E000060C068E273E080E398E10E9477BFBE01A2
:101E100086E298E10E94B88A4AE050E0682F80E3A9
:101E200098E10E9499C02196C832D10519F7DF9137
:101E3000CF910895FF920F931F93CF93DF93CDB768
:101E4000DEB72C970FB6F894DEBF0FBECDBF6AED9C
:101E500077E0CE0107960E9492C204E010E0B8013C
:101E600086E298E10E94B88AF82EBE01695F7F4F32
:101E7000CE0101960E94BCC26F2DCE0101960E9438
:101E800041C3BC01CE0107960E94A7C2CE010196B4
:101E90000E9429C20F5F1F4F0C30110501F760E04F
:101EA00070E0CE0107960E9400C4FC018081811180
:101EB00006C061E175E1CE0107960E94A7C21092AB
:101EC000FD141092FE141092FF1410920015BE0122
:101ED000695F7F4F87E195E10E94A7C261E676E0E6
:101EE00080E398E10E9444BF67E175E180E398E1F7
:101EF0000E94A1BFCE0107960E9429C22C960FB660
:101F0000F894DEBF0FBECDBFDF91CF911F910F912F
:101F1000FF900895CF93DF9300D000D0CDB7DEB708
:101F20006DED74E1CE0101960E94BCC2CE01019616
:101F3000B3DE9093410280934002CE0101960E944D
:101F400029C267ED74E1CE0101960E94BCC2CE01A8
:101F50000196A2DE9093430280934202CE01019645
:101F60000E9429C226960FB6F894DEBF0FBECDBFE1
:101F7000DF91CF9108953ADF69ED75E080E398E154
:101F80000E9444BF67E175E180E398E10E9469BF68
:101F900062E774E180E398E10E94A1BF61ED75E022
:101FA00080E398E10E9444BF6091670270916802EB
:101FB0004AE050E080E398E10E9460C068E774E185
:101FC00080E398E10E9469BF6091650270916602AA
:101FD0004AE050E080E398E10E9460C062E774E16B
:101FE00080E398E10E94A1BF65EC75E080E398E191
:101FF0000E9444BF40917302509174026091750237
:102000007091760222E030E080E398E10E9495C171
:1020100062E774E180E398E10E94A1BF66EB75E09E
:1020200080E398E10E9444BF60917702709178024A
:102030004AE050E080E398E10E9460C062E774E10A
:1020400080E398E10E94A1BF64EA75E080E398E133
:102050000E9444BF60917102709172024AE050E0A8
:1020600080E398E10E9460C062E774E180E398E158
:102070000E94A1BF6CE975E080E398E10E9444BF33
:102080006091790270917A024AE050E080E398E131
:102090000E9460C068E774E180E398E10E9469BF34
:1020A00060917B0270917C024AE050E080E398E10D
:1020B0000E9460C062E774E180E398E10E94A1BFE2
:1020C00063E975E080E398E10E9444BF40915702C4
:1020D000509158026091590270915A0222E030E00A
:1020E00080E398E10E9495C168E774E180E398E19C
:1020F0000E9469BF40915302509154026091550271
:102100007091560222E030E080E398E10E9495C190
:1021100062E774E180E398E10C94A1BFAB01BC01DC
:1021200040935702509358026093590270935A0299
:102130008DE592E10E9474864091570250915802B9
:102140006091590270915A0289E192E10E9474866D
:1021500067E775E080E398E10E9444BF4091570231
:10216000509158026091590270915A0222E030E079
:1021700080E398E10C9496C1AB01BC0140935302FB
:102180005093540260935502709356028DE592E18C
:102190000E94D8864091530250915402609155029A
:1021A0007091560289E192E10E94D88664E675E05A
:1021B00080E398E10E9444BF409153025091540241
:1021C000609155027091560222E030E080E398E180
:1021D0000C9496C14F925F926F927F928F929F92D2
:1021E000AF92BF92CF92DF92EF92FF920F931F9325
:1021F000CF93DF93CDB7DEB728970FB6F894DEBF45
:102200000FBECDBF6D837E838F83988749015A01AE
:1022100067017801672B682B692B09F498C0C50109
:10222000B4010E9437C72B013C0120E030E0A90136
:10223000C501B4010E94A8C587FF04C077FA709455
:1022400077F87094A7019601C701B6010E9444C5B2
:1022500069837A838B839C839B01AC01C301B201A8
:102260000E94AFC52B013C016D817E818F819885D5
:102270000E944AC69B01AC01C301B2010E94A8C5DD
:1022800040905702509058026090590270905A0244
:1022900020E030E0A90187FF25C0C501B4010E94FC
:1022A000A8C5811107C069817A818B819C810E94B8
:1022B000A4C70DC0A5019401C701B6010E94AFC516
:1022C0009B01AC015F77C501B4010E9444C56B015D
:1022D0007C01A30192010E9433C718169CF12601CC
:1022E000370130C0C501B4010E94A8C581110DC0DD
:1022F00069817A818B819C810E94A4C76B017C01DA
:10230000F7FAF094F7F8F0940FC0A5019401C70113
:10231000B6010E94AFC59B01AC015F77C501B40156
:102320000E9443C56B017C0177FA709477F8709432
:10233000A3019201C701B6010E94A8C587FD02C092
:1023400026013701542D452D362D272D04C050E090
:1023500040E030E020E0652F742F832F922F2896E5
:102360000FB6F894DEBF0FBECDBFDF91CF911F91A6
:102370000F91FF90EF90DF90CF90BF90AF909F9024
:102380008F907F906F905F904F900895CF92DF92E3
:10239000EF92FF920F931F93CF93DF93CDB7DEB7EA
:1023A0002C970FB6F894DEBF0FBECDBFEDB6FEB6CC
:1023B0006DED74E1CE0107960E94BCC267ED74E139
:1023C000CE0101960E94BCC26AED77E0CE0107966D
:1023D0007EDB882309F45AC06BE273E080E398E166
:1023E0000E9477BFBE01695F7F4F80E398E10E9442
:1023F000A1BF81E08093F912BE01695F7F4F83EF37
:1024000092E10E94A7C26DE874E0CE0101960E949D
:102410008FC3882309F440C0CDB6DEB64B855C85FA
:102420004F5F5F4F8DB79EB7841B950B0FB6F89427
:102430009EBF0FBE8DBF0DB71EB70F5F1F4F20E0B1
:1024400030E0B801CE0107960E9424C4B8018CE3A5
:1024500095E10E944971882399F062E175E080E37B
:1024600098E10E9491BFB8018CE395E10E945371FD
:10247000882331F064E075E080E398E10E9491BF29
:102480000FB6F894DEBE0FBECDBE06C068E473E0A2
:1024900080E398E10E94B1BFCE0101960E9429C25B
:1024A000CE0107960E9429C20FB6F894FEBE0FBE59
:1024B000EDBE2C960FB6F894DEBF0FBECDBFDF91F8
:1024C000CF911F910F91FF90EF90DF90CF900895E3
:1024D00068EE74E080E398E10E9491BF1092F912D7
:1024E00008950F931F93CF93DF938091071381116A
:1024F00053C088E093E10E9473B9882309F456C061
:1025000088E093E10E94D3B788E093E10E948AB902
:10251000EC0188E093E10E9435BA8C01CF3F8FEF48
:10252000D80739F30F3F8FEF180719F36AE673E006
:1025300080E398E10E9477BF6091051370910613C4
:102540004AE050E080E398E10E9460C060EB7AE0EE
:1025500080E398E10E9477BF6091031370910413A8
:102560004AE050E080E398E10E9467C0D0930613F0
:10257000C0930513109304130093031381E0809319
:1025800007130E9432BB6093C1147093C2148093EE
:10259000C3149093C4140AC065E773E080E398E124
:1025A000DF91CF911F910F910C94B1BFDF91CF912B
:1025B0001F910F9108954F925F926F927F92AF9209
:1025C000BF92CF92EF92FF920F931F93CF93DF931F
:1025D000EC015B0129013A0125E045E065E083E477
:1025E00093E10E9462AE85010C5E1F4F80910C0248
:1025F0009E01280F311DA501BE0183E493E10E94D5
:102600009CAF2FEF4FEF6FEF83E493E10E9462AE38
:1026100025E045E065E083E493E10E9476AE80E248
:10262000C82EE12CF12C85019E01B301A20183E4A7
:1026300093E10E940DB5DF91CF911F910F91FF9013
:10264000EF90CF90BF90AF907F906F905F904F9042
:1026500008954F925F926F927F928F92AF92BF9246
:10266000CF92EF92FF920F931F93CF93DF93EC01E2
:102670007B0129013A0125E045E065E083E493E12F
:102680000E9462AE87010C5E1F4F80910C029E017A
:10269000280F311DA701BE0183E493E10E949CAF86
:1026A0002FEF4FEF6FEF83E493E10E9462AE25E0DE
:1026B00045E065E083E493E10E9476AE90E2892EE6
:1026C000A12CB12C2EE2C22E8E0122E0B301A20178
:1026D00083E493E10E9406B6DF91CF911F910F91A1
:1026E000FF90EF90CF90BF90AF908F907F906F90C2
:1026F0005F904F900895AF92BF92CF92DF92EF928A
:10270000FF920F931F93CF93DF93CDB7DEB72C9734
:102710000FB6F894DEBF0FBECDBF61E083E493E156
:102720000E94529383E493E10E94C2AD83E493E15B
:102730000E94A7B620910D0234E0239F80199109D1
:10274000112463E070E00E9460C860930C0283E48F
:1027500093E10E94B2B660910C0240910D02942F59
:10276000960F990F891B80930B0250E05093EA114A
:102770004093E9115093EC114093EB1170E09A01F2
:10278000260F371F3093EE112093ED113093F01187
:102790002093EF118901040F151F1093F21100937C
:1027A000F1115093F4114093F311D801A60FB71F04
:1027B000B093F611A093F5113093F8112093F7110F
:1027C0005D01A40EB51EB092FA11A092F9115093BA
:1027D000FC114093FB116501C60ED71ED092FE116D
:1027E000C092FD11EFEFEE2EE1E1FE2EF7013183F5
:1027F0002083509302124093011290E0A901480FE8
:10280000591F5093041240930312309306122093E1
:102810000512260F371F280F391F309308122093F7
:10282000071210930A120093091250930C1240934E
:102830000B12B0930E12A0930D123093101220932E
:102840000F12B0921212A0921112509314124093D0
:102850001312D0921612C0921512309318122093B0
:10286000171225E045E065E083E493E10E9476AE2F
:102870002091E6114091E7116091E81183E493E122
:102880000E9462AEF701408151818A01085C1F4FAE
:1028900020E431E060E070E083E493E10E949CAFCB
:1028A0002091E6114091E7116091E81183E493E1F2
:1028B0000E9476AE2FEF4FEF6FEF83E493E10E941B
:1028C00062AE61E088E093E10E940BB762E088E0CD
:1028D00093E10E94D5BA6DEA77E083E493E10E9428
:1028E0008CB6F70120813181265F3F4F00E010E078
:1028F00041E150E066E873E083E493E10E941EB496
:1029000061E973E183E493E10E948CB6F7012081D1
:102910003181205E3F4F44E150E062E973E083E49F
:1029200093E10E941EB425E045E065E083E493E175
:102930000E9476AEF701E080F180EE0CFF1C8091E2
:102940000D02E80EF11C67EA73E0CE0107960E94C3
:1029500092C262E375E1CE0107960E9418C3BC01E2
:10296000CE0101960E94BCC2970144E150E0BE0135
:102970006F5F7F4F83E493E10E94C7B4CE0101965D
:102980000E9429C2CE0107960E9429C22C960FB63A
:10299000F894DEBF0FBECDBFDF91CF911F910F9195
:1029A000FF90EF90DF90CF90BF90AF9008950F937E
:1029B0001F939091D7122091FF11309100128091B6
:1029C0000D02220F331F281B310900E010E044E103
:1029D00050E0992309F453C06BEC73E083E493E176
:1029E0000E941EB464EF71E080E090E00E9461BB41
:1029F0008091D6128823D1F125E045E065E083E49B
:102A000093E10E9462AE4091FF1150910012440F79
:102A1000551F80910D02481B51098A010F5E1F4FFF
:102A200020E431E060E070E083E493E10E949CAF39
:102A300064EF71E080E090E00E9461BB2FEF4FEF08
:102A40006FEF83E493E10E9462AE2091FF11309119
:102A50000012220F331F80910D02281B310900E064
:102A600010E044E150E069EA73E00BC000E010E0E0
:102A700021E130E04AE050E066EB73E002C068EC30
:102A800073E083E493E10E941EB41F910F910895B7
:102A90000F931F93182F2091E6114091E711609139
:102AA000E81183E493E10E9462AEE12FF0E0DF01E0
:102AB000AA0FBB1FAA0FBB1FA351BE4E12960D91AA
:102AC0001C9113972D913C91EE0FFF1FEE0FFF1FEE
:102AD000E751FE4E428153816081718183E493E12D
:102AE0000E949CAF2091E6114091E7116091E8119E
:102AF00083E493E10E9476AE2FEF4FEF6FEF83E414
:102B000093E11F910F910C9462AECF92DF92EF92FE
:102B1000FF920F931F93CF93DF931F921F92CDB716
:102B2000DEB7182F062F6BED73E080E398E12A8360
:102B300049830E94B1BF8FEF810F2A81498186307E
:102B400008F052C0602F83E493E10E9462AE110F3F
:102B50001250412F50E07A01EE0CFF1CEE0CFF1CCE
:102B6000C70183519E4E7C01FC01028113810150FB
:102B70001109208131816A01CC0CDD1CCC0CDD1CDB
:102B8000C60187519E4E6C01FC01428153816081D8
:102B9000718183E493E10E9458AFF70102811381B0
:102BA000025011092081318121503109F601428101
:102BB00053814F5F5F4F608171816F5F7F4F83E40F
:102BC00093E10E9458AF2091E6114091E711609186
:102BD000E81183E493E10E9476AE25E045E065E0EC
:102BE00083E493E10E9462AE66EE73E080E398E1D5
:102BF0000F900F90DF91CF911F910F91FF90EF9069
:102C0000DF90CF900C94B1BF0F931F9390E0FC0125
:102C10003197ED32F10508F05FC7EE58FF4F0C9485
:102C2000B1C880E035DF80910C02869590E020915C
:102C3000EB113091EC11280F391F2C5031094091C4
:102C4000E9115091EA11480F591F4A50510900E00B
:102C500010E06CE474E083E493E10E941EB4809180
:102C60000C02869590E02091EB113091EC11280F29
:102C7000391F4091E9115091EA11480F591F4E50E8
:102C8000510960EF73E024C780E002DF80910C02FD
:102C9000869590E02091EB113091EC11280F391FAF
:102CA0002C5031094091E9115091EA11480F591FF8
:102CB0004651510900E010E065EF73E083E493E1D1
:102CC0000E941EB480910C02869590E02091EB1139
:102CD0003091EC11280F391F4091E9115091EA1100
:102CE000480F591F465051096CEF73E0F1C680E060
:102CF000CFDE80910C02869590E02091EB1130910F
:102D0000EC11280F391F2C5031094091E9115091D5
:102D1000EA11480F591F4651510900E010E065EFD4
:102D200073E083E493E10E941EB480910C028695C7
:102D300090E02091EB113091EC11280F391F409158
:102D4000E9115091EA11480F591F4A5051096FEF8C
:102D500073E0BEC680E09CDE80910C02869590E018
:102D60002091EB113091EC11280F391F2C503109B3
:102D70004091E9115091EA11480F591F46515109EC
:102D800000E010E063E074E083E493E10E941EB48D
:102D900080910C02869590E02091EB113091EC111E
:102DA000280F391F4091E9115091EA11480F591F1E
:102DB000405151096AE074E08BC680E069DE809181
:102DC0000C02869590E02091EB113091EC11280FC8
:102DD000391F2C5031094091E9115091EA11480FE7
:102DE000591F4651510900E010E060E174E083E4AE
:102DF00093E10E941EB480910C02869590E0209190
:102E0000EB113091EC11280F391F4091E9115091CD
:102E1000EA11480F591F4851510967E174E058C63B
:102E200082E036DE80910C02869590E02091F311CD
:102E30003091F411280F391F225131094091F111BD
:102E40005091F211480F591F4E50510900E010E007
:102E50006FE174E083E493E10E941EB480910C0260
:102E6000869590E02091F3113091F411280F391FCD
:102E7000265031094091F1115091F211480F591F1C
:102E80004E50510964E274E083E493E10E941EB461
:102E900080910C02869590E02091F3113091F4110D
:102EA000280F391F2A5F3F4F4091F1115091F211C5
:102EB000480F591F4650510969E274E009C684E081
:102EC000E7DD80910C02869590E02091FB11309116
:102ED000FC11280F391F265031094091F9115091EA
:102EE000FA11480F591F4E50510900E010E06CE2F2
:102EF00074E0EEC584E0CCDD80910C02869590E014
:102F00002091FB113091FC11280F391F2C503109F1
:102F10004091F9115091FA11480F591F425151092E
:102F200000E010E061E374E083E493E10E941EB4EA
:102F300080910C02869590E02091FB113091FC115C
:102F4000280F391F4091F9115091FA11480F591F5C
:102F50004251510967E374E0BBC586E099DD809179
:102F60000C02869590E02091031230910412280FF4
:102F7000391F265031094091011250910212480F19
:102F8000591F4251510900E010E06DE374E0A0C503
:102F900086E07EDD80910C02869590E02091031200
:102FA00030910412280F391F265031094091011227
:102FB00050910212480F591F4651510900E010E08C
:102FC00063E474E085C584E063DD80910C0286953E
:102FD00090E02091FB113091FC11280F391F2650F1
:102FE00031094091F9115091FA11480F591F42517E
:102FF000510900E010E06AE474E06AC588E048DD49
:1030000080910C02869590E020910B1230910C1269
:10301000280F391F2C5031094091091250910A1282
:10302000480F591F4A50510900E010E060E574E074
:1030300083E493E10E941EB480910C02869590E097
:1030400020910B1230910C12280F391F4091091258
:1030500050910A12480F591F4650510966EB74E00F
:1030600037C588E015DD80910C02869590E02091AF
:103070000B1230910C12280F391F2C50310940913E
:10308000091250910A12480F591F4A50510900E085
:1030900010E060E574E083E493E10E941EB4809147
:1030A0000C02869590E020910B1230910C12280FA3
:1030B000391F4091091250910A12480F591F4E5062
:1030C00051096DEA74E004C582E0E2DC80910C02F3
:1030D000869590E02091F3113091F411280F391F5B
:1030E0002C5031094091F1115091F211480F591FA4
:1030F0004C50510900E010E064E574E083E493E192
:103100000E941EB480910C02869590E02091F311EC
:103110003091F411280F391F4091F1115091F211A3
:103120002CC088E0B5DC80910C02869590E020915F
:103130000B1230910C12280F391F2C50310940917D
:10314000091250910A12480F591F4C50510900E0C2
:1031500010E06EE574E083E493E10E941EB4809178
:103160000C02869590E020910B1230910C12280FE2
:10317000391F4091091250910A12480F591F4C50A3
:10318000510982C086E084DC80910C02869590E033
:103190002091031230910412280F391F2650310953
:1031A0004091011250910212480F591F4E5051097F
:1031B00000E010E063E674E08BC48AE069DC809193
:1031C0000C02869590E02091131230911412280F72
:1031D000391F225131094091111250911212480F9A
:1031E000591F4E50510900E010E06FE174E01AC021
:1031F0008AE04EDC80910C02869590E020911312BB
:1032000030911412280F391F2251310940911112A7
:1032100050911212480F591F4E50510900E010E012
:103220006DE674E083E493E10E941EB480910C0289
:10323000869590E02091131230911412280F391FB7
:10324000265031094091111250911212480F591F06
:103250004E50510968E674E083E493E10E941EB485
:1032600080910C02869590E02091131230911412F7
:10327000280F391F2A5F3F4F4091111250911212AF
:10328000480F591F4E50510969E574E021C48AE086
:10329000FFDB80910C02869590E020911312309113
:1032A0001412280F391F2C503109409111125091DE
:1032B0001212480F591F4E50510900E010E06CE205
:1032C00074E083E493E10E941EB480910C02869521
:1032D00090E02091131230911412280F391F409161
:1032E000111250911212480F591F4A50510962E7AA
:1032F00074E0EEC382E0CCDB80910C02869590E016
:103300002091F3113091F411280F391F2C503109FD
:103310004091F1115091F211480F591F4A50510933
:1033200000E010E066E774E083E493E10E941EB4DD
:1033300080910C02869590E02091F3113091F41168
:10334000280F391F4091F1115091F211D5C188E039
:103350009FDB80910C02869590E020910B123091BA
:103360000C12280F391F2C5031094091091250912D
:103370000A12480F591F4A50510900E010E060E856
:1033800074E0A8C184E084DB80910C02869590E013
:103390002091FB113091FC11280F391F2C5031095D
:1033A0004091F9115091FA11480F591F4A50510993
:1033B00000E010E066E774E083E493E10E941EB44D
:1033C00080910C02869590E02091FB113091FC11C8
:1033D000280F391F4091F9115091FA112CC08AE041
:1033E00057DB80910C02869590E02091131230916A
:1033F0001412280F391F2C5031094091111250918D
:103400001212480F591F4A50510900E010E060E8BD
:1034100074E083E493E10E941EB480910C028695CF
:1034200090E02091131230911412280F391F40910F
:10343000111250911212480F591F4251510964E85C
:1034400074E046C382E024DB80910C02869590E014
:103450002091F3113091F411280F391F2C503109AC
:103460004091F1115091F211480F591F4A505109E2
:1034700000E010E066E774E083E493E10E941EB48C
:1034800080910C02869590E02091F3113091F41117
:10349000280F391F4091F1115091F2112CC088E092
:1034A000F7DA80910C02869590E020910B12309112
:1034B0000C12280F391F2C503109409109125091DC
:1034C0000A12480F591F4A50510900E010E060E805
:1034D00074E083E493E10E941EB480910C0286950F
:1034E00090E020910B1230910C12280F391F40915F
:1034F000091250910A12480F591F405151096AE8A8
:1035000074E0E6C284E0C4DA80910C02869590E013
:103510002091FB113091FC11280F391F22513109E4
:103520004091F9115091FA11480F591F4A50510911
:1035300000E010E066E774E07EC08AE0A9DA8091DE
:103540000C02869590E02091131230911412280FEE
:10355000391F225131094091111250911212480F16
:10356000591F4A50510900E010E060E874E083E41C
:1035700093E10E941EB480910C02869590E0209108
:10358000131230911412280F391F2650310940911F
:10359000111250911212480F591F4A50510960E5FB
:1035A00074E083E493E10E941EB480910C0286953E
:1035B00090E02091131230911412280F391F2A5FC6
:1035C0003F4F409111125091121263C086E060DAB1
:1035D00080910C02869590E02091031230910412A4
:1035E000280F391F265031094091011250910212C3
:1035F000480F591F4251510900E010E064E974E09E
:1036000067C284E045DA80910C02869590E02091B3
:10361000FB113091FC11280F391F225131094091C3
:10362000F9115091FA11480F591F4A50510900E001
:1036300010E069E974E083E493E10E941EB4809194
:103640000C02869590E02091FB113091FC11280F1F
:10365000391F265031094091F9115091FA11480F44
:10366000591F4A50510960E574E083E493E10E94D8
:103670001EB480910C02869590E02091FB11309150
:10368000FC11280F391F2A5F3F4F4091F9115091CB
:10369000FA11480F591F4E5051096FE874E018C2D3
:1036A00088E0F6D980910C02869590E020910B126B
:1036B00030910C12280F391F2C50310940910912FA
:1036C00050910A12480F591F4A50510900E010E06A
:1036D00069E974E083E493E10E941EB480910C02D6
:1036E000869590E020910B1230910C12280F391F13
:1036F0004091091250910A12480F591F4251510925
:103700006AE774E0E5C182E0C3D980910C02869536
:1037100090E02091F3113091F411280F391F2C50B3
:1037200031094091F1115091F211480F591F4A503F
:10373000510900E010E069E974E083E493E10E943C
:103740001EB480910C02869590E02091F311309187
:10375000F411280F391F4091F1115091F211480FC7
:10376000591F4A5051096DE974E0B2C182E090D905
:1037700080910C02869590E02091F3113091F41124
:10378000280F391F2C5031094091F1115091F2113D
:10379000480F591F4A50510900E010E066E774E0F5
:1037A00083E493E10E941EB480910C02869590E020
:1037B0002091F3113091F411280F391F4091F1112C
:1037C0005091F2112CC088E063D980910C0286954B
:1037D00090E020910B1230910C12280F391F2C50C1
:1037E00031094091091250910A12480F591F4A504D
:1037F000510900E010E060E874E083E493E10E9486
:103800001EB480910C02869590E020910B123091AD
:103810000C12280F391F4091091250910A12480FBB
:10382000591F4A50510961EA74E052C184E030D90D
:1038300080910C02869590E02091FB113091FC1153
:10384000280F391F2C5031094091F9115091FA116C
:10385000480F591F4A50510900E010E066E774E034
:1038600083E493E10E941EB480910C02869590E05F
:103870002091FB113091FC11280F391F4091F91153
:103880005091FA112CC08AE003D980910C028695E0
:1038900090E02091131230911412280F391F2C50F0
:1038A00031094091111250911212480F591F4A507C
:1038B000510900E010E060E874E083E493E10E94C5
:1038C0001EB480910C02869590E0209113123091E5
:1038D0001412280F391F4091111250911212480FE3
:1038E000591F4A50510965EA74E0F2C082E0D0D80D
:1038F00080910C02869590E02091F3113091F411A3
:10390000280F391F2C5031094091F1115091F211BB
:10391000480F591F4A50510900E010E066E774E073
:1039200083E493E10E941EB480910C02869590E09E
:103930002091F3113091F411280F391F4091F111AA
:103940005091F2112CC088E0A3D880910C0286958A
:1039500090E020910B1230910C12280F391F2C503F
:1039600031094091091250910A12480F591F4A50CB
:10397000510900E010E060E874E083E493E10E9404
:103980001EB480910C02869590E020910B1230912C
:103990000C12280F391F4091091250910A12480F3A
:1039A000591F4A51510969EA74E092C084E070D805
:1039B00080910C02869590E02091FB113091FC11D2
:1039C000280F391F2C5031094091F9115091FA11EB
:1039D000480F591F4A50510900E010E066E774E0B3
:1039E00083E493E10E941EB480910C02869590E0DE
:1039F0002091FB113091FC11280F391F4091F911D2
:103A00005091FA112CC08AE043D880910C0286951F
:103A100090E02091131230911412280F391F2C506E
:103A200031094091111250911212480F591F4A50FA
:103A3000510900E010E060E874E083E493E10E9443
:103A40001EB480910C02869590E020911312309163
:103A50001412280F391F4091111250911212480F61
:103A6000591F4651510962EB74E032C080E010D812
:103A700080910C02869590E02091EB113091EC1131
:103A8000280F391F2C5031094091E9115091EA114A
:103A9000480F591F4851510900E010E069EB74E0EC
:103AA00083E493E10E941EB480910C02869590E01D
:103AB0002091EB113091EC11280F391F4091E91141
:103AC0005091EA11480F591F4651510961EC74E0B9
:103AD00083E493E10E941EB41F910F910895CF9348
:103AE000DF93EB012A813B81FC01338322834C81EC
:103AF0005D816E817F8144835583668377834885AA
:103B000059856A857B8540875187628773872DE059
:103B1000FE013C96DC011C9601900D922A95E1F77E
:103B2000298D3A8DFC01328F218FDF91CF9108953D
:103B3000EF92FF920F931F93CF93DF93CDB7DEB732
:103B4000E7970FB6F894DEBF0FBECDBF7C018B01A7
:103B500041E068ED72E1CE014C960E945D71CE01AC
:103B60004C960E94A96E882399F1CE014C960E9432
:103B70002E6EBC01C8010E948FC3882359F16EE1EB
:103B800075E080E398E10E94B1BFCE014C960E949F
:103B9000976E41E068ED72E1CE0101960E945D7181
:103BA000BE016F5F7F4FCE014C9699DFCE014C96E0
:103BB0000E94A96E882341F0CE014C960E942E6E81
:103BC000BC01C8010E94C4C2CE014C960E94976EEF
:103BD00021E001C020E0CE014C962FAB0E94976EF1
:103BE0002FA9222309F4B4CFB801C7010E94BCC297
:103BF000C701E7960FB6F894DEBF0FBECDBFDF91C9
:103C0000CF911F910F91FF90EF900895EF92FF9247
:103C10000F931F93CF93DF93CDB7DEB7EC970FB61B
:103C2000F894DEBF0FBECDBF7C018B016AED77E05B
:103C3000CE01C7960E9492C241E068ED72E1CE01CA
:103C40004C960E945D71CE014C960E94A96E88230D
:103C500089F0CE014C960E942E6EBC01C8010E94D4
:103C60008FC3882339F06AE275E080E398E10E940F
:103C7000B1BF48C0CE014C960E942E6EBC01CE0151
:103C8000C7960E94C4C26FE275E080E398E10E948B
:103C900077BFBE01695C7F4F80E398E10E94A1BFBE
:103CA000CE014C960E94976E41E068ED72E1CE0124
:103CB00001960E945D71BE016F5F7F4FCE014C96F1
:103CC0000EDFCE014C960E94A96E8823D9F0CE015A
:103CD0004C960E942E6EBC01C8010E948FC388239F
:103CE00039F0BE01695C7F4FC8010E94A7C20AC0BB
:103CF000CE014C960E942E6EBC01CE01C7960E944A
:103D0000C4C2CECFCE014C960E94976EB801C701B7
:103D10000E94BCC2CE01C7960E9429C2C701EC9680
:103D20000FB6F894DEBF0FBECDBFDF91CF911F91CC
:103D30000F91FF90EF900895CF92DF92EF92FF9254
:103D40000F931F93CF93DF93CDB7DEB7A1970FB635
:103D5000F894DEBF0FBECDBF7C018B016A016BE31F
:103D600075E080E398E10E9477BFB80180E398E1B5
:103D70000E94A1BF66E575E080E398E10E94B1BFB3
:103D800088ED92E10E94C2716AED77E0C8010E945D
:103D90008FC38823D1F041E068ED72E1CE01019636
:103DA0000E945D71CE0101960E94A96E882341F0A8
:103DB000CE0101960E942E6EBC01C8010E94C4C2B1
:103DC000CE0101960E94976E2AC01C141D0464F453
:103DD000B801CE014C960E94BCC2BE01645E7F4F0A
:103DE000CE010196A5DE0DC0CD28C9F0B801CE01E7
:103DF0004C960E94BCC2BE01645E7F4FCE0101960C
:103E000005DFBE016F5F7F4FC8010E94A7C2CE01D0
:103E100001960E9429C2CE014C960E9429C268E6F2
:103E200075E080E398E10E9477BFB80180E398E1F4
:103E30000E94A1BFB801C7010E94BCC2C701A196E0
:103E40000FB6F894DEBF0FBECDBFDF91CF911F91AB
:103E50000F91FF90EF90DF90CF900895CF92DF9277
:103E6000EF92FF920F931F93CF93DF93CDB7DEB7FF
:103E700062970FB6F894DEBF0FBECDBF25E045E0D8
:103E800065E083E493E10E9462AE4091EF115091AE
:103E9000F0118A01085E1F4F465F5F4F6091E91184
:103EA0007091EA1120E431E083E493E10E949CAF39
:103EB0002FEF4FEF6FEF83E493E10E9462AE25E0B6
:103EC00045E065E083E493E10E9476AE6FE775E03C
:103ED000CE010D960E9492C26AED77E083EF92E1E7
:103EE0000E948FC3811108C062E07AE083EF92E103
:103EF0000E948FC3882309F18091D612882319F17B
:103F00006AED77E0CE0107960E9492C241E050E050
:103F1000BE01695F7F4FCE0101960EDFBE016F5F6C
:103F20007F4F83EF92E10E94A7C2CE0101960E94CB
:103F300029C2CE0107960E9429C263EF72E1CE0129
:103F40000D960E94A7C2E090EF11F090F0118AE068
:103F5000E80EF11CC090E911D090EA11BE01635F38
:103F60007F4FCE0101960E94BCC200E010E0970195
:103F7000A601BE016F5F7F4F83E493E10E94C7B447
:103F8000CE0101960E9429C2CE010D960E9429C23F
:103F900062960FB6F894DEBF0FBECDBFDF91CF9112
:103FA0001F910F91FF90EF90DF90CF900895209197
:103FB000E6114091E7116091E81183E493E10E94DA
:103FC00076AE25E045E065E083E493E10E9462AED1
:103FD00080910A02813039F58091A212882311F074
:103FE00081E201C080E20E9404168091D6128823EB
:103FF00019F082E00E94041684E20E940416809167
:104000002715882311F088E001C087E00E9404167C
:1040100080914C02882311F084E001C085E00E9469
:10402000041683E20FC080910A02823079F48DE198
:104030000E9404168EE10E94041680914C0288238F
:1040400019F084E00C94041685E0FCCF80910A02FC
:104050008330B1F486E20E9404168BE00E940416BD
:104060008CE00E9404168091A912882311F082E24C
:1040700001C080E10E9404168FE00E940416EECE7B
:1040800080910A02863071F589E00E9404168AE068
:104090000E94041682E10E94041683E10E94041625
:1040A00084E10E9404166091570270915802809139
:1040B000590290915A020E9417C69B01AC0160E719
:1040C00070E08091091290910A120E94DB126091B7
:1040D00053027091540280915502909156020E94B1
:1040E00017C658C080910A02843079F589E10E9490
:1040F00004168AE10E9404168BE10E9404168CE1EA
:104100000E94041684E10E9404162091100230914E
:104110001102409112025091130260E770E0809109
:10412000091290910A120E94291320914E02309197
:104130004F02409150025091510260E770E080912F
:104140001112909112120C94291380910A02853059
:1041500021F585E10E94041686E10E94041687E19C
:104160000E94041688E10E94041684E10E9404164D
:104170008DE592E10E94C2839B01AC0160E770E093
:104180008091091290910A120E94DB1289E192E15A
:104190000E94C2839B01AC014CC080910A0287300F
:1041A00089F48FE10E94041684E10E9404168DE1D7
:1041B0000E9404168EE10E94041685E20E940416F5
:1041C00087E240CF80910A02883029F48CE20E9475
:1041D000041684E137CF80910A02893091F588E294
:1041E0000E94041689E20E9404168AE20E940416C4
:1041F0008BE20E9404168DE20E94041684E10E9464
:1042000004162091790230917A02442737FD4095B7
:10421000542F60E770E08091091290910A120E9479
:10422000DB1220917B0230917C02442737FD4095C0
:10423000542F60E770E080911112909112120C944B
:10424000DB1208952091E6114091E7116091E81189
:1042500083E493E10E9462AE83E493E10E94C2ADE5
:1042600081E080930A02A3CE2091E6114091E711EC
:104270006091E81183E493E10E9462AE83E493E1EC
:104280000E94C2AD83E080930A0291CE8F929F92EA
:10429000AF92BF92CF92DF92EF92FF920F931F9354
:1042A000CF93DF93CDB7DEB72C970FB6F894DEBF70
:1042B0000FBECDBF6C015B0180910A02813009F015
:1042C00055C025E045E065E083E493E10E9462AEDD
:1042D0004091EF115091F0118A01085E1F4F465F27
:1042E0005F4F6091E9117091EA1120E431E083E4BD
:1042F00093E10E949CAF2FEF4FEF6FEF83E493E1C8
:104300000E9462AE25E045E065E083E493E10E940F
:1043100076AEE090EF11F090F0118AE0E80EF11C1B
:104320008090E9119090EA11B501CE0101960E94AA
:10433000BCC2B601CE0101960E9418C3BC01CE01D9
:1043400007960E94BCC200E010E09701A401BE01E4
:10435000695F7F4F83E493E10E94C7B4CE01079663
:104360000E9429C2CE0101960E9429C22C960FB646
:10437000F894DEBF0FBECDBFDF91CF911F910F919B
:10438000FF90EF90DF90CF90BF90AF909F908F9075
:10439000089590910A02913051F5833009F4CCC010
:1043A00028F4813051F0823079F0C5C08530C1F0F9
:1043B00080F0863009F4C2C0BEC08091A21288236A
:1043C00009F4BEC081E208958091D6128111BAC06D
:1043D000B2C080914C02882309F4B6C084E00895ED
:1043E00080912715882309F4B1C088E00895909141
:1043F0000A029630A9F4843009F4B8C038F4823047
:1044000069F0833009F097C083E10895853009F49D
:104410009FC0863009F08FC082E108958AE0089538
:1044200090910A029430A9F4843009F49FC038F4C2
:10443000823069F0833009F07EC08AE108958530CA
:1044400009F488C0863009F076C089E108958CE1CE
:10445000089590910A029530A9F4843009F486C039
:1044600038F4823069F0833009F065C088E108953E
:10447000853009F471C0863009F05DC087E1089588
:1044800086E1089590910A029930C1F4833091F049
:1044900030F4813069F0823009F460C04CC085305E
:1044A00059F008F463C0863009F045C088E20895E9
:1044B0008DE2089589E208958AE2089590910A02B2
:1044C0009330A9F4843009F44BC020F4823099F57C
:1044D0008CE00895853019F0863019F02CC08BE0FF
:1044E00008958091A9128823E9F182E208959091BC
:1044F0000A029730A9F4833079F028F4813051F022
:10450000823091F118C0853049F080F1863099F4FD
:1045100087E2089585E208958EE108958DE108957A
:1045200090910A02983039F4813019F08430F1F01A
:1045300002C08CE20895089584E2089583E208950C
:1045400080E2089582E0089585E0089587E0089567
:1045500089E008958BE1089585E108958BE208953F
:104560008FE0089580E108958FE1089584E1089532
:104570000F931F93CF93DF938C01EB016DE875E0F0
:1045800080E398E10E9477BF4AE050E0B80180E301
:1045900098E10E9460C066E076E080E398E10E94C6
:1045A00077BF4AE050E0BE0180E398E10E9467C017
:1045B0008091E9119091EA1108171907B4F08091E0
:1045C000ED119091EE11801791077CF08091EB1125
:1045D0009091EC11C817D90744F08091EF11909198
:1045E000F0118C179D070CF090C08091F111909103
:1045F000F21108171907B4F08091F5119091F61196
:10460000801791077CF08091F3119091F411C817F5
:10461000D90744F08091EF119091F0118C179D070C
:104620000CF075C08091F9119091FA1108171907D3
:10463000B4F08091FD119091FE11801791077CF0EC
:104640008091FB119091FC11C817D90744F080911B
:10465000FF11909100128C179D070CF05AC08091A9
:1046600001129091021208171907B4F080910512F7
:1046700090910612801791077CF08091031290911F
:104680000412C817D90744F08091071290910812BC
:104690008C179D070CF03FC08091091290910A126F
:1046A00008171907ACF080910D1290910E12801727
:1046B000910774F080910B1290910C12C817D907D2
:1046C0003CF080910F12909110128C179D072CF5E1
:1046D000809111129091121208171907ACF0809175
:1046E0001512909116128017910774F08091131291
:1046F00090911412C817D9073CF08091171290912D
:1047000018128C179D075CF40BC081E009C082E091
:1047100007C083E005C084E003C085E001C086E0F7
:10472000DF91CF911F910F910895CF92DF92EF9279
:10473000FF920F931F93CF93DF93EC018B016A01DC
:1047400069E070E088E295E10E940E8AEE24D7FCD1
:10475000E094FE2CC017D107CCF4BE0188E295E1AD
:104760000E94548AC701B6010E9461BB21960C17B2
:104770001D079CF788E295E1DF91CF911F910F9182
:10478000FF90EF90DF90CF900C94138ABE0188E2E7
:1047900095E10E94548AC701B6010E9461BB21972E
:1047A000C017D1079CF7E6CF0F931F93CF93DF93EA
:1047B00000D000D0CDB7DEB78091C9149091CA1453
:1047C0002091271502972CF1222329F000917B02DA
:1047D00010917C0204C00091790210917A026DED73
:1047E00074E1CE0101960E94BCC2CE0101960E94E6
:1047F0004C0E90937C0280937B02CE0101960E9426
:1048000029C260917B0270917C0243E050E0C801B4
:104810000CC021110BC060917B0270917C0243E0BF
:1048200050E08091790290917A027FDF81E080935D
:10483000271526960FB6F894DEBF0FBECDBFDF91C9
:10484000CF911F910F9108950F931F93CF93DF93F3
:1048500000D000D0CDB7DEB78091C9149091CA14B2
:104860002091271502972CF1222329F000917B0239
:1048700010917C0204C00091790210917A026DEDD2
:1048800074E1CE0101960E94BCC2CE0101960E9445
:104890004C0E90937A0280937902CE0101960E9489
:1048A00029C26091790270917A0243E050E0C80118
:1048B0000CC0222359F06091790270917A0243E092
:1048C00050E080917B0290917C022FDF109227159F
:1048D00026960FB6F894DEBF0FBECDBFDF91CF9105
:1048E0001F910F9108954F925F926F927F92AF92B6
:1048F000BF92CF92DF92EF92FF920F931F93CF93CD
:10490000DF93CDB7DEB728970FB6F894DEBF0FBEA2
:10491000CDBF6D837E838F83988729013A01E98219
:10492000FA820B831C8369E274E080E398E10E94C1
:1049300044BF2AE030E04D815E816F81788580E35D
:1049400098E10E9419C06DE174E080E398E10E9453
:1049500044BF2AE030E0B301A20180E398E10E9465
:1049600019C061E174E080E398E10E9444BF2AE04D
:1049700030E049815A816B817C8180E398E10E941B
:1049800019C065E074E080E398E10E9444BF2AE02A
:1049900030E0B601A50180E398E10E9419C063E010
:1049A00074E080E398E10E9491BF2D813E814F81A8
:1049B000588589819A81AB81BC81281739074A07BC
:1049C0005B0744F4481659066A067B06C4F465EF93
:1049D00073E053C02D813E814F81588589819A8132
:1049E000AB81BC8182179307A407B507C4F4A41454
:1049F000B504C604D7045CF467EE73E058C0A41491
:104A0000B504C604D70494F569ED73E029C04A14CF
:104A10005B046C047D04BCF56BEC73E014C02D8169
:104A20003E814F81588589819A81AB81BC8128174D
:104A300039074A075B0739F54A145B046C047D04A7
:104A400044F463EC73E080E398E10E9491BF81E05D
:104A50003AC0A414B504C604D70474F56BEB73E034
:104A600080E398E10E9491BF83E02DC04A145B046B
:104A70006C047D0409F563EB73E080E398E10E9428
:104A800091BF84E020C02D813E814F81588589816E
:104A90009A81AB81BC8182179307A407B50764F4A0
:104AA0004A145B046C047D0439F46BEA73E080E320
:104AB00098E10E9491BF06C060E975E080E398E14B
:104AC0000E94B1BF82E028960FB6F894DEBF0FBEF9
:104AD000CDBFDF91CF911F910F91FF90EF90DF90AD
:104AE000CF90BF90AF907F906F905F904F90089560
:104AF0008F929F92AF92BF92CF92DF92EF92FF92EE
:104B0000CF93DF936B017C012091091530910A1539
:104B100040910B1550910C150E9437C74B015C0159
:104B200020E030E040E050E40E9433C787FD06C03B
:104B3000C501B4010E9417C6EB0102C0C1E0D0E07C
:104B40006DE873E080E398E10E9444BF22E030E02A
:104B5000B701A60180E398E10E9495C16AE873E07D
:104B600080E398E10E9444BF4AE050E0BE0180E348
:104B700098E10E9460C062E873E080E398E10E94DF
:104B800044BF80E398E10E947FBFCE01DF91CF91C7
:104B9000FF90EF90DF90CF90BF90AF909F908F905D
:104BA0000895CF93DF9360914E0270914F028091F0
:104BB0005002909151029CDFEC016DE974E180E3B9
:104BC00098E10E9469BF61E974E180E398E10E9485
:104BD00069BF6CEA75E080E398E10E9477BFCC0F73
:104BE000DD1F4AE050E0BE0180E398E10E9460C012
:104BF0006DE67EE080E398E10E9477BF60917102EC
:104C000070917202CE010E9460C84AE050E080E3D9
:104C100098E10E9460C062EC75E080E398E1DF916A
:104C2000CF910C94B1BFCF93DF9300D000D0CDB71C
:104C3000DEB76DED74E1CE0101960E94BCC2CE01DB
:104C400001960E947C0E60934E0270934F028093F7
:104C5000500290935102CE0101960E9429C26DE943
:104C600074E180E398E10E9469BF61E974E180E347
:104C700098E10E9469BF6EE475E080E398E10E94CC
:104C800044BF40914E0250914F026091500270918A
:104C9000510222E030E080E398E10E9495C16BE48C
:104CA00075E080E398E10E9444BF80E398E10E94B0
:104CB0007FBF77DF26960FB6F894DEBF0FBECDBF5D
:104CC000DF91CF9108958F929F92AF92BF92CF9232
:104CD000DF92EF92FF920F931F93CF93DF936B01BD
:104CE0007C01EA01BA01882777FD8095982F0E9400
:104CF0004AC620910D1530910E1540910F15509117
:104D000010150E9437C74B015C016CE673E080E32D
:104D100098E10E9444BF22E030E0B501A40180E3A5
:104D200098E10E9495C16EE573E080E398E10E94EE
:104D300044BF40910D1550910E1560910F15709163
:104D4000101522E030E080E398E10E9495C166E40E
:104D500073E080E398E10E9444BF4AE050E0BE0166
:104D600080E398E10E9467C0A7019601C501B401E4
:104D70000E94AFC54B015C0120E030E040E050E410
:104D80000E9433C787FD09C0C501B4010E9417C640
:104D90008B0162307105ECF502C001E010E068E2C1
:104DA00073E080E398E10E9444BF22E030E0B70165
:104DB000A60180E398E10E9495C16FE173E080E372
:104DC00098E10E9444BF4AE050E0BE0180E398E1D0
:104DD0000E9460C06AE173E080E398E10E9444BFF2
:104DE0004AE050E0B80180E398E10E9467C06DE9B5
:104DF00074E180E398E10E9469BF61E974E180E3B6
:104E000098E10E9469BF66EF72E080E398E10E943A
:104E100091BFC801DF91CF911F910F91FF90EF904B
:104E2000DF90CF90BF90AF909F908F9008954F925A
:104E30005F926F927F928F929F92AF92BF92CF922A
:104E4000DF92EF92FF92CF93DF936C017B01EA0137
:104E5000BA01882777FD8095982F0E944AC64B019A
:104E60005C01B601882777FD8095982F0E944AC67D
:104E70002B013C01B701882777FD8095982F0E9470
:104E80004AC69B01AC01C301B2010E94AFC5A50196
:104E900094010E9437C79B01AC01C501B4010E9477
:104EA00043C54B015C016EEE72E080E398E10E9425
:104EB00044BF4AE050E0B60180E398E10E9460C040
:104EC00065EE72E080E398E10E9444BF4AE050E062
:104ED000B70180E398E10E9460C06BED72E080E36F
:104EE00098E10E9444BF4AE050E0BE0180E398E1AF
:104EF0000E9460C060ED72E080E398E10E9444BFD0
:104F000022E030E0B501A40180E398E10E9496C15F
:104F1000C501B4010E9417C6EB01882777FD809573
:104F2000982F0E944AC69B01AC01C501B4010E94A2
:104F300043C520E030E040E05FE30E9433C718162D
:104F40000CF42196CE01DF91CF91FF90EF90DF908E
:104F5000CF90BF90AF909F908F907F906F905F9019
:104F60004F90089580914402882319F010924402D2
:104F7000089581E08093440208958F929F92AF92AA
:104F8000BF92CF92DF92EF92FF92CF93DF9300D048
:104F900000D0CDB7DEB7C0900915D0900A15E090CB
:104FA0000B15F0900C156DED74E1CE0101960E9489
:104FB000BCC2CE0101960E941C0E0E944AC69B01F3
:104FC000AC01C701B6010E9437C70E9417C66093A3
:104FD0003402709335028093360290933702CE01EB
:104FE00001960E9429C2C0900915D0900A15E09040
:104FF0000B15F0900C1567ED74E1CE0101960E943F
:10500000BCC2CE0101960E941C0E0E944AC69B01A2
:10501000AC01C701B6010E9437C70E9417C6609352
:105020003002709331028093320290933302CE01AA
:1050300001960E9429C2C0900915D0900A15E090EF
:105040000B15F0900C1561ED74E1CE0101960E94F4
:10505000BCC2CE0101960E941C0E0E944AC69B0152
:10506000AC01C701B6010E9437C70E9417C6609302
:105070002C0270932D0280932E0290932F02CE016A
:1050800001960E9429C2C0900915D0900A15E0909F
:105090000B15F0900C156BEC74E1CE0101960E949B
:1050A000BCC2CE0101960E941C0E0E944AC69B0102
:1050B000AC01C701B6010E9437C70E9417C66093B2
:1050C00028027093290280932A0290932B02CE012A
:1050D00001960E9429C28091340290913502A091DC
:1050E0003602B09137028090051590900615A09079
:1050F0000715B090081588169906AA06BB068CF409
:10510000C501B40122E030E040E050E00E9495C8C3
:105110002093340230933502409336025093370285
:1051200011C0181619061A061B0664F081E090E0FB
:10513000A0E0B0E08093340290933502A093360251
:10514000B09337028091300290913102A0913202E7
:10515000B0913302C0900115D0900215E090031574
:10516000F0900415C816D906EA06FB068CF4C701B0
:10517000B60122E030E040E050E00E9495C8209364
:10518000300230933102409332025093330211C007
:10519000181619061A061B0664F081E090E0A0E0DC
:1051A000B0E08093300290933102A0933202B0932A
:1051B0003302409134025091350260913602709171
:1051C000370280912C0290912D02A0912E02B09175
:1051D0002F02840F951FA61FB71F88169906AA06CF
:1051E000BB0664F4841A950AA60AB70A80922C02B8
:1051F00090922D02A0922E02B0922F024091300286
:1052000050913102609132027091330280912802F4
:1052100090912902A0912A02B0912B02840F951F30
:10522000A61FB71FC816D906EA06FB0664F4C41AFF
:10523000D50AE60AF70AC0922802D0922902E09223
:105240002A02F0922B0281E08093FB1264EC75E05D
:1052500080E398E10E94B1BF6DE875E080E398E1DA
:105260000E9477BF4091340250913502609136021E
:10527000709137022AE030E080E398E10E9419C083
:105280006BED75E080E398E10E9477BF40913002BA
:105290005091310260913202709133022AE030E085
:1052A00080E398E10E9419C06FED75E080E398E11A
:1052B0000E9477BF40912C0250912D0260912E02E6
:1052C00070912F022AE030E080E398E10E9419C03B
:1052D00067EE75E080E398E10E9477BF4091280275
:1052E0005091290260912A0270912B022AE030E04D
:1052F00080E398E10E947DC060EF75E080E398E173
:105300000E94B1BF6DE875E080E398E10E9477BF2D
:10531000609134027091350280913602909137028B
:105320000E944AC620910D1530910E1540910F151F
:10533000509110150E9437C7AB01BC0122E030E04C
:1053400080E398E10E9495C164E076E080E398E113
:105350000E9477BF609130027091310280913202D9
:10536000909133020E944AC620910D1530910E157E
:1053700040910F15509110150E9437C7AB01BC0129
:1053800022E030E080E398E10E9495C16BE076E096
:1053900080E398E10E9477BF60912C0270912D020A
:1053A00080912E0290912F020E944AC620910D15E5
:1053B00030910E1540910F15509110150E9437C76E
:1053C000AB01BC0122E030E080E398E10E9495C18E
:1053D00066E176E080E398E10E9477BF6091280261
:1053E0007091290280912A0290912B020E944AC654
:1053F00020910D1530910E1540910F1550911015FB
:105400000E9437C7AB01BC0122E030E080E398E1A5
:105410000E9495C162E276E080E398E10E94B1BF0C
:1054200026960FB6F894DEBF0FBECDBFDF91CF91A9
:10543000FF90EF90DF90CF90BF90AF909F908F90B4
:1054400008950F931F93CF93DF9300D000D0CDB773
:10545000DEB76DED74E1CE0101960E94BCC2CE01B3
:1054600001960E944C0E8C01CE0101960E9429C229
:10547000012B19F4109202130EC08091FB128823A5
:1054800021F081E08093021306C066E276E080E3BB
:1054900098E10E94B1BF26960FB6F894DEBF0FBE0A
:1054A000CDBFDF91CF911F910F9108958F929F9261
:1054B000AF92BF92CF92DF92EF92FF920F931F9322
:1054C000CF93DF93CDB7DEB7E6970FB6F894DEBF84
:1054D0000FBECDBF7C018B01ACE9CA2EA1E1DA2E53
:1054E000BDE09B2E5B018FEFA81AB80A41E0B7011F
:1054F000CE014C960E945D71CE014C960E94A96E21
:10550000882311F0812C19C062E774E080E398E1F0
:105510000E94B1BFE6960FB6F894DEBF0FBECDBFB6
:10552000DF91CF911F910F91FF90EF90DF90CF907F
:10553000BF90AF909F908F900895882D90E0801736
:1055400091073CF469E080E398E10E9478BF83947E
:10555000F4CFCE014C960E942E6EBC0180E398E100
:105560000E9477BFCE014C960E94306E882371F165
:1055700066ED77E080E398E10E94B1BF8E8D9F8D4C
:105580009C838B8388A199A1AAA1BBA18D839E83B3
:10559000AF83B8878CA19DA1AEA1BFA189879A874F
:1055A000AB87BC87DA82C982FE01B896DE011D9600
:1055B000892D01900D928A95E1F78DA99EA99B8F67
:1055C0008A8FB501CE01019671DF12C068ED77E0D8
:1055D00080E398E10E9477BFCE014C960E945A6EFC
:1055E000AB01BC012AE030E080E398E10E94AEC04C
:1055F000CE014C960E94976E79CFCF93DF93CDB7B3
:10560000DEB76B970FB6F894DEBF0FBECDBF61E07B
:1056100085E30E9447BC65E38CE395E10E94B66F89
:10562000811107C06BED77E080E398E10E94B1BF84
:1056300009C067EF77E080E398E10E94B1BF81E0A5
:105640008093D7128091D712882309F455C06EE059
:1056500078E080E398E10E94B1BF21E046ED57E099
:105660006CE375E1CE0101960E94CA70BE016F5FC6
:105670007F4F88ED92E10E946F1D81E08093D612EA
:105680008091DA129091DB129C838B838091DC12E3
:105690009091DD12A091DE12B091DF128D839E8376
:1056A000AF83B8878091E0129091E112A091E2124D
:1056B000B091E31289879A87AB87BC878CE991E127
:1056C0009A8389838DE0E4EEF2E1DE011D9601907C
:1056D0000D928A95E1F78091F1129091F2129B8FD1
:1056E0008A8F60E070E0CE010196E0DE60E278E053
:1056F00080E398E10E94B1BF6B960FB6F894DEBFCD
:105700000FBECDBFDF91CF9108951092A9126AED1F
:1057100077E083EA92E10E94C4C21092D7121092FD
:10572000D6126AED77E083EF92E10E94C4C265CFA2
:10573000CF92DF92EF92FF920F931F93CF93DF935D
:10574000CDB7DEB76B970FB6F894DEBF0FBECDBFF7
:105750006C01EDB6FEB64091F7125091F8124F5F12
:105760005F4F8DB79EB7841B950B0FB6F8949EBF05
:105770000FBE8DBF0DB71EB70F5F1F4F20E030E08B
:10578000B80183EF92E10E9424C423E1A8016CE3F5
:1057900075E1CE0101960E94CA70CE0101960E9469
:1057A000A96E8823E1F066E278E080E398E10E9448
:1057B00077BF63EF72E180E398E10E94A1BFB60179
:1057C000CE0101960E94A1BFCE0101960E94976E64
:1057D00067E378E080E398E10E94B1BF0CC06DE31D
:1057E00078E080E398E10E9477BF63EF72E180E3A5
:1057F00098E10E94A1BF0FB6F894FEBE0FBEEDBEA9
:105800006B960FB6F894DEBF0FBECDBFDF91CF9180
:105810001F910F91FF90EF90DF90CF900895CF925E
:10582000DF92EF92FF920F931F93CF93DF93EC01E0
:105830008B016CE478E080E398E10E9477BF4AE056
:1058400050E0BE0180E398E10E9460C065E578E029
:1058500080E398E10E9477BF4AE050E0B80180E31E
:1058600098E10E9467C06AE578E080E398E10E94D1
:1058700077BF6091AE127091AF124AE050E080E3C2
:1058800098E10E9467C06AE678E080E398E10E94B0
:1058900077BF4091B6125091B7126091B8127091D3
:1058A000B9122AE030E080E398E10E947DC0C09008
:1058B000AE12D090AF12EE24D7FCE094FE2C2091D3
:1058C000B6123091B7124091B8125091B912D80166
:1058D0000E94DCC8C60ED71EE81EF91ECE01AA27FC
:1058E00097FDA095BA2FC80ED91EEA1EFB1E64E7CD
:1058F00078E080E398E10E9477BF2AE030E0B701CA
:10590000A60180E398E10E9419C08091AA129091AB
:10591000AB12A091AC12B091AD128C159D05AE05E5
:10592000BF05D4F0B701A6018AEB92E10E943D6E5B
:105930008AEB92E10E94AF6DC82F6DE778E080E3BB
:1059400098E10E9477BF4AE050E06C2F80E398E135
:105950000E9499C08C2F01C08FEFDF91CF911F91D2
:105960000F91FF90EF90DF90CF9008958F929F92CC
:10597000AF92BF92EF92FF920F931F93CF93DF935B
:10598000CDB7DEB763970FB6F894DEBF0FBECDBFBD
:10599000EDB6FEB640E050E0BA018AEB92E10E941B
:1059A0003D6E6CE07AE0CE010D960E9492C28AEBC9
:1059B00092E10E94AF6D182F60E070E0CE010D966D
:1059C0000E9400C4FC0110838AEB92E10E94AF6D3B
:1059D000182F61E070E0CE010D960E9400C4FC011A
:1059E00010836CE878E0CE010D960E94670D882345
:1059F000A9F06FE878E080E398E10E9477BFBE01EC
:105A0000635F7F4F80E398E10E9469BF6DEA78E0B1
:105A100080E398E10E94B1BF10E05EC168EC78E0DD
:105A200080E398E10E94B1BF8AEB92E10E94AF6DE2
:105A30006AED77E0CE0107960E9492C28AEB92E16E
:105A40000E94AF6D182F8A3009F18032F9F01332BD
:105A500039F48AEB92E10E94AF6D182F8A30C9F7B2
:105A6000BE01695F7F4FCE0101960E94BCC2612FCB
:105A7000CE0101960E9441C3BC01CE0107960E944F
:105A8000A7C2CE0101960E9429C2D8CF6EEE78E05F
:105A900080E398E10E9477BFBE01695F7F4F80E39A
:105AA00098E10E94A1BF4B855C854F5F5F4F8DB72A
:105AB0009EB7841B950B0FB6F8949EBF0FBE8DBF8B
:105AC0000DB71EB70F5F1F4F20E030E0B801CE01C9
:105AD00007960E9424C4C8010E946ACBAA2797FD9A
