:100000000C9410100C94FAC30C942BC40C945CC484
:100010000C948DC40C94BEC40C94EFC40C9420C5F5
:100020000C9451C50C943D100C943D100C943D1053
:100030000C943D100C943D100C943D100C943D100C
:100040000C943D100C9413910C943D100C943D10A5
:100050000C943D100C943D100C943D100C9482C5F2
:100060000C943D100C94D8C70C941CC90C943D10F2
:100070000C943D100C943D100C943D100C943D10CC
:100080000C94E6900C943D100C943D100C943D1093
:100090000C9418C80C945BC90C943D100C943D1042
:1000A0000C943D100C943D100C94B9900C943D10A0
:1000B0000C943D100C943D100C943D100C948C90BD
:1000C0000C943D100C943D100C943D100C9458C8A9
:1000D0000C949AC90C943D100C9498C80C94D9C9EE
:1000E0000C943D10D02BA42CF52C452D602D7B2D90
:1000F000962DCB2D492F1A2F2F2E002E333233322F
:100100005E2E792E3332932F642F903097316831E1
:10011000FC31CC3147302C30F72FC82FFE30AD30BA
:100120003331052C3A2C942EE52E102D6F2C3332C2
:10013000E52E5847914A5B475F47914A64476C47B1
:100140007447A1475F498749914A914AAF4912498B
:10015000914AD047FD47C849D949044A324A5D4AC5
:100160002C4854489C48C448C049BE49C2495047DD
:1001700054475049C4498B4A0849914AC649819716
:10018000A197C897419841984198DE9774988197B4
:10019000749801987498109810982E982E98C89773
:1001A00041984198C89710987498419859987498B4
:1001B00074987498A2A13DA35AA450A58DA68DA6AB
:1001C00068A8D0A9DFAEDDAA37ACA4AC6CB075B11D
:1001D00026B326B35AA426B426B45AA448B281B58D
:1001E00022A74AB619B721B946B86BBA11BA6BBA89
:1001F00078BA78BA6BBA92BA24BA11BA31BA3EBA9E
:100200006BBA47BA4CBA78BA6BBA59BA78BA6BBA01
:1002100078BA4CBA85BA6BBA92BA31BAA4BAB8BA3B
:1002200054BCFABB54BC61BC61BC54BC7BBC0DBCAF
:10023000FABB1ABC27BC54BC30BC35BC61BC54BC36
:1002400042BC61BC54BC61BC35BC6EBC54BC7BBC04
:100250001ABC8DBCA1BC05A84CCDB2D44EB9383661
:10026000A9020C50B9918688083CA6AAAA2ABE0009
:100270000000803F000000006410B71DC8206E3BE6
:10028000AC30D9269041DC76F4516B6B5861B24D9D
:100290003C7105502083B8ED44930FF0E8A3D6D607
:1002A0008CB361CBB0C2649BD4D2D38678E20AA06F
:1002B0001CF2BDBD50424D20696D616765206D75B2
:1002C0007374206265206174206C656173742031E1
:1002D0003020706978656C7320776964652E002C16
:1002E000206D61782064656E736974793A20002C02
:1002F0002070656E2077696474683A200050656EDE
:100300007769647468207465737420004368616E53
:1003100067696E67206261636B20746F206C697619
:1003200065206D6F64652E0046696C652072656D91
:100330006F7665642E0046696C6520616C7265613C
:100340006479206578697374732E004578656375E8
:1003500074696E6720636F6D6D616E643A005374EB
:100360006F72696E6720636F6D6D616E643A006DC8
:100370006D004368616E6765642050656E20776923
:1003800064746820746F20004E6577206163636534
:100390006C65726174696F6E3A20004E6577206DEE
:1003A00061782073706565643A200055703A2000CA
:1003B000446F776E3A2000504753504545442C0017
:1003C00050474C4946542C005047535445504D55C6
:1003D0004C5449504C4945522C00504753544550B9
:1003E000535045525245562C0050474D4D504552A2
:1003F0005245562C00504753495A452C0050474E01
:10040000414D452C002900526563616C6320706189
:10041000676548656967687420696E2073746570E4
:10042000732028002900526563616C632070616746
:1004300065576964746820696E20737465707320F1
:1004400028002900292C2073746570735065724D43
:100450004D202800526563616C63206D6D5065729C
:10046000537465702028004C6F61646564206D6F63
:10047000746F722073746570206D756C7469706C24
:100480006965723A004C6F61646564206D616368F0
:10049000696E65206E616D653A004C6F61646564DC
:1004A00020757020706F733A004C6F616465642032
:1004B000646F776E20706F733A004C6F616465648F
:1004C000206D6F746F722073746570732070657225
:1004D000207265763A004C6F61646564206D6D2012
:1004E000706572207265763A004C6F6164656420B5
:1004F0006D616368696E65206865696768743A0054
:100500004C6F61646564206D616368696E65207716
:10051000696474683A002069736E277420612063EF
:100520006F6D6D616E642049207265636F676E69DF
:1005300073652E00536F7272792C200029206E6F24
:1005400074207061727365642E00436F6D6D616E0F
:1005500064202800436865636B73756D206E6F744B
:10056000206D617463686564213A004920676F7487
:1005700020007600504F4C41524752415048204F86
:100580004E21007C3C3E5E2B3D3F2F5B5D3B2C2A89
:10059000225C00080C205F0000000000000000004A
:1005A000000000000020202020202000200000006B
:1005B000285050000000000000000000002828FC27
:1005C0002850FC50500000002078A8A0603028A8D7
:1005D000F02000000048A8B0502834544800000023
:1005E0000020505078A8A8906C0000004040800087
:1005F000000000000000000004081010101010108F
:1006000008040000402010101010101020400000BE
:10061000000020A87070A82000000000002020200A
:10062000F820202000000000000000000000000072
:100630004040800000000000F800000000000000C2
:100640000000000000000000400000000810101032
:10065000202040404080000000708888888888887A
:10066000700000000020602020202020700000008A
:100670000070888810204080F80000000070880812
:10068000300808887000000000103050509078103A
:100690001800000000F88080F00808887000000052
:1006A00000709080F08888887000000000F890103A
:1006B0002020202020000000007088887088888812
:1006C000700000000070888888780848700000007A
:1006D00000000020000000002000000000000000DA
:1006E00020000000202000000408102040201008F6
:1006F00004000000000000F80000F8000000000006
:100700004020100804081020400000000070888875
:10071000102020002000000000708898A8A8B88051
:10072000780000000020203050507848CC000000B5
:1007300000F0484870484848F00000000078888081
:10074000808080887000000000F048484848484891
:10075000F000000000F8485070504048F8000000D9
:1007600000F8485070504040E000000000384880D9
:10077000809C88483000000000CC484878484848B1
:10078000CC00000000F8202020202020F8000000ED
:10079000007C10101010101090E0000000EC485089
:1007A00060505048EC00000000E0404040404044B1
:1007B000FC00000000D8D8D8D8A8A8A8A80000003D
:1007C00000DC486868585848E800000000708888D5
:1007D000888888887000000000F0484870404040D9
:1007E000E0000000007088888888E8987018000091
:1007F00000F0484870504848EC00000000788880BD
:1008000060100888F000000000F8A82020202020B8
:100810007000000000CC48484848484830000000BC
:1008200000CC4848505030202000000000A8A8A864
:10083000705050505000000000D8505020205050B0
:10084000D800000000D85050202020207000000068
:1008500000F8901020204048F800000038202020A8
:100860002020202020380000404040202010101080
:100870000800000070101010101010101070000010
:1008800020500000000000000000000000000000F8
:10089000000000000000FC0020000000000000003C
:1008A0000000000000000000304838483C00000014
:1008B00000C0404070484848700000000000000040
:1008C00038484040380000000018080838484848B8
:1008D0003C00000000000000304878403800000074
:1008E000001C20207820202078000000000000005C
:1008F0003C4830407844380000C040407048484888
:10090000EC000000002000006020202070000000AB
:1009100000100000301010101010E00000C0404027
:100920005C507048EC00000000E0202020202020D7
:10093000F800000000000000F0A8A8A8A80000002F
:1009400000000000F0484848EC00000000000000F3
:10095000304848483000000000000000F048484897
:100960007040E000000000003848484838081C008B
:1009700000000000D8604040E000000000000000DF
:1009800078403008780000000000202070202020EF
:100990001800000000000000D84848483C00000053
:1009A00000000000EC485030200000000000000073
:1009B000A8A870505000000000000000D85020503F
:1009C000D800000000000000EC4850302020C0009B
:1009D000000000007810202078000000181010108F
:1009E00020101010101800101010101010101010FF
:1009F00010101000602020201020202020600040D7
:100A0000A4180000000000000000001010205F008B
:100A100000000000000000000000000000000000D6
:100A200000000000000000000000000000000000C6
:100A300000000007000F800F800F800F800F8007DD
:100A4000000700000000000700070007000000008A
:100A5000000E380E380E380E380630000000000048
:100A60000000000000000000000000000000000086
:100A7000000C300C300C307FFE7FFE0C300C300C44
:100A8000300C307FFE7FFE0C300C300C300000004C
:100A900000024002400FF81FF81A401A401FF00FE2
:100AA000F8025802581FF81FF002400240000000F0
:100AB00000000000000E100E300E7000E001C003B8
:100AC0008007000E700C700870000000000000002D
:100AD0000000000F001980198019800F000F080F07
:100AE0009819F818F018E019F00F980000000000AD
:100AF0000000000700070007000E000000000000D3
:100B000000000000000000000000000000000000E5
:100B100000000000F001C0038007000E000E000E70
:100B2000000E000700038001C000F000000000007C
:100B30000000000F00038001C000E00070007000A2
:100B400070007000E001C003800F00000000000092
:100B500000000001801188099007E007E03FFC3F9A
:100B6000FC07E007E0099011880180000000000008
:100B7000000000000000000180018001800FF00FE4
:100B8000F0018001800180000000000000000000F2
:100B90000000000000000000000000000000000055
:100BA00000000000000700070007000E0000000022
:100BB000000000000000000000000000001FF81FFF
:100BC000F80000000000000000000000000000002D
:100BD0000000000000000000000000000000000015
:100BE00000000000000700070007000000000000F0
:100BF00000000000020006000E001C00380070001B
:100C0000E001C0038007000E001C0000000000008F
:100C10000000000FF01C381C781CF81CF81DB81DD3
:100C2000B81F381F381E381C380FF00000000000B5
:100C30000000000180018003801F801F800380036B
:100C40008003800380038003801FF0000000000009
:100C50000000000FE01C701C380038007000E0013C
:100C6000C0038007000E381C381FF8000000000089
:100C70000000000FE01C701C380038007003C00337
:100C8000C0007000381C381C700FE000000000002D
:100C900000000000E001E003E006E00CE018E01FC7
:100CA000F81FF800E000E000E003F800000000009A
:100CB0000000001FF81C001C001C001C001FE01F8F
:100CC000F0007800381C381C700FE00000000000B5
:100CD00000000003E007000E001C001C001FF01FB6
:100CE000F81C381C381C381C380FF00000000000BD
:100CF0000000001FFC1C1C1C1C1C1C001C003800DD
:100D00007000E001C0038003800380000000000049
:100D10000000000FF01C381C381C381F3807E00793
:100D2000E01CF81C381C381C380FF00000000000D4
:100D30000000000FF01C381C381C381C381FF80F3E
:100D4000F800380038007000E007C0000000000024
:100D5000000000000000000380038003800000000A
:100D600000038003800380000000000000000000FA
:100D700000000000000000038003800380000000EA
:100D800000038003800380070000000000000000D3
:100D900000007000E001C0038007000E001C001C72
:100DA000000E000700038001C000E000700000009A
:100DB0000000000000000000003FFC3FFC000000BD
:100DC000003FFC3FFC0000000000000000000000AD
:100DD000001C000E000700038001C000E00070004E
:100DE0007000E001C0038007000E001C000000003E
:100DF0000003C00FF01E7818380038007000E001C2
:100E0000C001C00000000001C001C001C00000001E
:100E1000000FF81C1C1C1C1C1C1C1C1CFC1CFC1C9F
:100E2000FC1CFC1C001C001C001FF007F80000004C
:100E300000000003C007E00E701C381C381C381C72
:100E4000381FF81C381C381C381C38000000000003
:100E50000000001FF00E380E380E380E380FF00F5D
:100E6000F00E380E380E380E381FF000000000006B
:100E700000000007F00E381C381C001C001C001C71
:100E8000001C001C001C380E3807F0000000000099
:100E90000000001FE00E700E380E380E380E380EAF
:100EA000380E380E380E380E701FE00000000000BB
:100EB0000000001FF80E180E080E000E300FF00F85
:100EC000F00E300E000E080E181FF8000000000093
:100ED0000000001FF80E180E080E000E300FF00F65
:100EE000F00E300E000E000E001F0000000000008B
:100EF00000000007F00E381C381C381C001C001CB9
:100F0000001CF81C381C380E3807F80000000000E0
:100F10000000001C701C701C701C701C701FF01FE7
:100F2000F01C701C701C701C701C70000000000015
:100F30000000000FE0038003800380038003800330
:100F40008003800380038003800FE0000000000026
:100F500000000001FC007000700070007000700064
:100F60007038703870387038700FE0000000000082
:100F70000000001E380E380E700EE00FC00F800FFC
:100F8000800FC00EE00E700E381E3800000000000A
:100F90000000001F000E000E000E000E000E000EDE
:100FA000000E000E080E180E381FF800000000009A
:100FB0000000001C1C1E3C1F7C1FFC1FFC1DDC1CB9
:100FC0009C1C1C1C1C1C1C1C1C1C1C00000000006D
:100FD0000000001C1C1C1C1E1C1F1C1F9C1DDC1C5C
:100FE000FC1C7C1C3C1C1C1C1C1C1C00000000006D
:100FF00000000003E007F00E381C1C1C1C1C1C1C0D
:101000001C1C1C1C1C0E3807F003E0000000000034
:101010000000001FF00E380E380E380E380FF00F9B
:10102000F00E000E000E000E001F00000000000079
:1010300000000003E00F780E381C1C1C1C1C1C1C3C
:101040001C1C7C1CFC0FF80FF8003800FC00000092
:101050000000001FF00E380E380E380E380FF00F5B
:10106000F00E700E380E380E381E380000000000EA
:101070000000000FF01C381C381C381C000FE00763
:10108000F000381C381C381C380FF000000000003D
:101090000000001FFC19CC11C401C001C001C00137
:1010A000C001C001C001C001C007F0000000000085
:1010B0000000001C701C701C701C701C701C701CCC
:1010C000701C701C701C701C700FE0000000000091
:1010D0000000001C701C701C701C701C701C701CAC
:1010E000701C701C700EE007C00380000000000040
:1010F0000000001C1C1C1C1C1C1C1C1C1C1C9C1C04
:101100009C1C9C0FF80FF80770077000000000008F
:101110000000001C701C701C700EE007C0038003F0
:101120008007C00EE01C701C701C700000000000E6
:101130000000001C701C701C701C701C700EE007FE
:10114000C003800380038003800FE00000000000E4
:101150000000001FF81C381838107000E001C003B0
:101160008007000E081C181C381FF8000000000043
:1011700000000007F007000700070007000700074E
:1011800000070007000700070007F000000000004C
:10119000000000100018001C000E00070003800172
:1011A000C000E000700038001C00070000000000D4
:1011B00000000007F0007000700070007000700008
:1011C00070007000700070007007F00000000000F8
:1011D00000018003C007E00E701C38000000000012
:1011E00000000000000000000000000000000000FF
:1011F00000000000000000000000000000000000EF
:1012000000000000000000000000007FFF7FFF00E2
:101210000000001C001C0007000700000000000088
:1012200000000000000000000000000000000000BE
:1012300000000000000000000000000FE00070004F
:10124000700FF01C701C701C700FD80000000000A4
:101250000000001E000E000E000E000FF00E380EF3
:10126000380E380E380E380E381BF0000000000023
:1012700000000000000000000000000FE01C701CD7
:10128000701C001C001C701C700FE00000000000AF
:1012900000000000F80070007000700FF01C701C5F
:1012A000701C701C701C701C700FD80000000000B7
:1012B00000000000000000000000000FE01C701C97
:1012C000701FF01C001C701C700FE000000000007C
:1012D00000000003E007700770070007001FE01F11
:1012E000E007000700070007001FC0000000000023
:1012F00000000000000000000000000FD81C701C5F
:10130000701C701C700FF007F000701C700FE00074
:101310000000001E000E000E000E000EF00F380F31
:10132000380E380E380E380E381E38000000000017
:1013300000000001C001C001C000000FC001C001D9
:10134000C001C001C001C001C00FF80000000000D2
:10135000000000007000700070000003F0007000DA
:101360007000700070007000701C700CF007E000DE
:101370000000001E000E000E000E000E380E700E53
:10138000E00FC00EE00E700E381E380000000000A6
:101390000000000FC001C001C001C001C001C001B8
:1013A000C001C001C001C001C00FF8000000000072
:1013B00000000000000000000000001FF81C9C1C42
:1013C0009C1C9C1C9C1C9C1C9C1C9C0000000000E9
:1013D00000000000000000000000001FE01C701C66
:1013E000701C701C701C701C701C700000000000D1
:1013F00000000000000000000000000FE01C701C56
:10140000701C701C701C701C700FE000000000004D
:1014100000000000000000000000001BF00E380E6D
:10142000380E380E380E380FF00E000E001F000078
:1014300000000000000000000000001FB038E0388D
:10144000E038E038E038E01FE000E000E001F000C4
:1014500000000000000000000000001EF00FF80F68
:10146000380E000E000E000E001F000000000000ED
:1014700000000000000000000000000FE01C301C15
:10148000300F8003E0187018700FE00000000000BB
:1014900000000000000100030007001FF007000724
:1014A00000070007000770077003E000000000005D
:1014B00000000000000000000000001C701C701CF8
:1014C000701C701C701C701C700FD8000000000095
:1014D00000000000000000000000001C701C701CD8
:1014E000701C701C700EE007C0038000000000003C
:1014F00000000000000000000000001C1C1C1C1C60
:101500001C1C9C1C9C0FF80770077000000000005A
:1015100000000000000000000000001CE01CE00FC4
:10152000C0078007800FC01CE01CE0000000000026
:1015300000000000000000000000000E380E380E11
:10154000380E380E3807F003E000E001C01F8000BD
:1015500000000000000000000000001FE018E01183
:10156000C0038007000E201C601FE0000000000088
:1015700000000001F803800380038007001C001CAA
:1015800000070003800380038001F80000000000D2
:101590000001C001C001C001C001C001C001C00103
:1015A000C001C001C001C001C001C001C0000000F5
:1015B0000000001F8001C001C001C000E000380031
:1015C0003800E001C001C001C01F80000000000021
:1015D0000000001F1C3B9C39DC38F80000000000B4
:1015E00000000000000000000000000000000020DB
:1015F00032300A000000000000000000FFFE000181
:10160000FFFF0003FFFF8001FFFF600CFFFEF01EE5
:101610000001F83F0001F83F0001F83F0001F83FEA
:101620000001F83F0001F83F0001F83F0001F83FDA
:101630000001F83F0001F83F0001F83F0001F83FCA
:101640000001F83F0001F83E000078380000182043
:101650000000080000000020000000380000183ED4
:101660000000783F0001F83F0001F83F0001F83F1B
:101670000001F83F0001F83F0001F83F0001F83F8A
:101680000001F83F0001F83F0001F83F0001F83F7A
:101690000001F83F0001F83F0001F81E0000F00CC7
:1016A000FFFE6001FFFF0003FFFF8001FFFF00005E
:1016B000FFFE00000000000000000000000000002D
:1016C000000000000000000000000000000000001A
:1016D000000060000000F0000001F8000001F800C8
:1016E0000001F8000001F8000001F8000001F80016
:1016F0000001F8000001F8000001F8000001F80006
:101700000001F8000001F8000001F8000001F800F5
:101710000000780000001800000008000000000031
:101720000000000000001800000078000001F80030
:101730000001F8000001F8000001F8000001F800C5
:101740000001F8000001F8000001F8000001F800B5
:101750000001F8000001F8000001F8000001F800A5
:101760000001F8000000F000000060000000000030
:101770000000000000000000000000000000000069
:10178000000000000000000000000000FFFE00015B
:10179000FFFF0003FFFF8001FFFF6000FFFEF0007E
:1017A0000001F8000001F8000001F8000001F80055
:1017B0000001F8000001F8000001F8000001F80045
:1017C0000001F8000001F8000001F8000001F80035
:1017D0000001F8000001F80000007801FFFE180386
:1017E000FFFF880FFFFFE027FFFFC039FFFF003E2C
:1017F0000000003F0000003F0000003F0000003FED
:101800000000003F0000003F0000003F0000003FDC
:101810000000003F0000003F0000003F0000003FCC
:101820000000003F0000003F0000001E0000000C10
:10183000FFFE0001FFFF0003FFFF8001FFFF00002C
:10184000FFFE00000000000000000000000000009B
:1018500000000000FFFE0001FFFF0003FFFF80010A
:10186000FFFF6000FFFEF0000001F8000001F8003B
:101870000001F8000001F8000001F8000001F80084
:101880000001F8000001F8000001F8000001F80074
:101890000001F8000001F8000001F8000001F80064
:1018A00000007801FFFE1803FFFF880FFFFFE0072D
:1018B000FFFFC001FFFF1800000078000001F800E2
:1018C0000001F8000001F8000001F8000001F80034
:1018D0000001F8000001F8000001F8000001F80024
:1018E0000001F8000001F8000001F8000001F80014
:1018F0000001F8000000F000FFFE6001FFFF0003A0
:10190000FFFF8001FFFF0000FFFE0000000000005D
:1019100000000000000000000000000000000000C7
:1019200000000000000000000000600C0000F01E3D
:101930000001F83F0001F83F0001F83F0001F83FC7
:101940000001F83F0001F83F0001F83F0001F83FB7
:101950000001F83F0001F83F0001F83F0001F83FA7
:101960000001F83F0001F83E00007839FFFE18231F
:10197000FFFF880FFFFFE007FFFFC001FFFF180018
:10198000000078000001F8000001F8000001F800F4
:101990000001F8000001F8000001F8000001F80063
:1019A0000001F8000001F8000001F8000001F80053
:1019B0000001F8000001F8000001F8000000F0004C
:1019C00000006000000000000000000000000000B7
:1019D0000000000000000000000000000000000007
:1019E00000000000FFFE0001FFFF0003FFFF800179
:1019F000FFFF000CFFFE001E0000003F0000003F44
:101A00000000003F0000003F0000003F0000003FDA
:101A10000000003F0000003F0000003F0000003FCA
:101A20000000003F0000003F0000003F0000003EBB
:101A300000000039FFFE0023FFFF800FFFFFE007DB
:101A4000FFFFC001FFFF1800000078000001F80050
:101A50000001F8000001F8000001F8000001F800A2
:101A60000001F8000001F8000001F8000001F80092
:101A70000001F8000001F8000001F8000001F80082
:101A80000001F8000000F000FFFE6001FFFF00030E
:101A9000FFFF8001FFFF0000FFFE000000000000CC
:101AA000000000000000000000000000FFFE000138
:101AB000FFFF0003FFFF8001FFFF000CFFFE001E81
:101AC0000000003F0000003F0000003F0000003F1A
:101AD0000000003F0000003F0000003F0000003F0A
:101AE0000000003F0000003F0000003F0000003FFA
:101AF0000000003F0000003E00000039FFFE002310
:101B0000FFFF800FFFFFE027FFFFC039FFFF183EF8
:101B10000000783F0001F83F0001F83F0001F83F66
:101B20000001F83F0001F83F0001F83F0001F83FD5
:101B30000001F83F0001F83F0001F83F0001F83FC5
:101B40000001F83F0001F83F0001F81E0000F00C12
:101B5000FFFE6001FFFF0003FFFF8001FFFF0000A9
:101B6000FFFE000000000000000000000000000078
:101B700000000000FFFE0001FFFF0003FFFF8001E7
:101B8000FFFF6000FFFEF0000001F8000001F80018
:101B90000001F8000001F8000001F8000001F80061
:101BA0000001F8000001F8000001F8000001F80051
:101BB0000001F8000001F8000001F8000001F80041
:101BC000000078000000180000000800000000007D
:101BD0000000000000001800000078000001F8007C
:101BE0000001F8000001F8000001F8000001F80011
:101BF0000001F8000001F8000001F8000001F80001
:101C00000001F8000001F8000001F8000001F800F0
:101C10000001F8000000F00000006000000000007B
:101C200000000000000000000000000000000000B4
:101C3000000000000000000000000000FFFE0001A6
:101C4000FFFF0003FFFF8001FFFF600CFFFEF01E9F
:101C50000001F83F0001F83F0001F83F0001F83FA4
:101C60000001F83F0001F83F0001F83F0001F83F94
:101C70000001F83F0001F83F0001F83F0001F83F84
:101C80000001F83F0001F83E00007839FFFE1823FC
:101C9000FFFF880FFFFFE027FFFFC039FFFF183E5F
:101CA0000000783F0001F83F0001F83F0001F83FD5
:101CB0000001F83F0001F83F0001F83F0001F83F44
:101CC0000001F83F0001F83F0001F83F0001F83F34
:101CD0000001F83F0001F83F0001F81E0000F00C81
:101CE000FFFE6001FFFF0003FFFF8001FFFF000018
:101CF000FFFE0000000000000000000000000000E7
:101D000000000000FFFE0001FFFF0003FFFF800155
:101D1000FFFF600CFFFEF01E0001F83F0001F83FDE
:101D20000001F83F0001F83F0001F83F0001F83FD3
:101D30000001F83F0001F83F0001F83F0001F83FC3
:101D40000001F83F0001F83F0001F83F0001F83EB4
:101D500000007839FFFE1823FFFF880FFFFFE00720
:101D6000FFFFC001FFFF1800000078000001F8002D
:101D70000001F8000001F8000001F8000001F8007F
:101D80000001F8000001F8000001F8000001F8006F
:101D90000001F8000001F8000001F8000001F8005F
:101DA0000001F8000000F000FFFE6001FFFF0003EB
:101DB000FFFF8001FFFF0000FFFE000000000000A9
:101DC00000000000002100240027002A002D003020
:101DD00000330001010000040107010A0100002294
:101DE00000250028002B002E0031003400020100E5
:101DF00000050108010B0100002000230026002936
:101E0000002C002F00320000010000030106010930
:101E10000105050505070508080808020202020A6F
:101E20000A0808040404040101010101010101037D
:101E300003030303030303040707070C0C0C0C0C38
:101E40000C0C0C0202020206060606060606060B2B
:101E50000B0B0B0B0B0B0B010210202008081020A2
:101E60004010204080020102010804020101020426
:101E700008102040808040201008040201800402E5
:101E8000018040201008040201080402010102043C
:101E90000810204080010204081020408000000942
:101EA0000A02080B0C0D07060304010000000000E5
:101EB0000000000000000000000000000000000022
:101EC00000000000000000000011100F00000000E2
:101ED0000000000000000000000000000000000002
:101EE000000000494E46494E4954594E414ECDCC12
:101EF000CC3D0AD7233C17B7D13877CC2B329595F8
:101F0000E6241FB14F0A000020410000C8420040F3
:101F10001C4620BCBE4CCA1B0E5AAEC59D74004068
:101F20007A10F35A00A0724E18090010A5D4E800E8
:101F300000E87648170000E40B54020000CA9A3B00
:101F4000000000E1F5050000809698000000404286
:101F50000F000000A0860100000010270000000014
:101F6000E803000000006400000000000A00000018
:101F700000000100000000002C76D888DC674F08C4
:101F800023DFC1DFAE59E1B1B796E5E3E453C63ACA
:101F9000E651997696E8E6C28426EB898C9B62ED41
:101FA000407C6FFCEFBC9C9F40F2BAA56FA5F490FB
:101FB000055A2AF75C936B6CF9676DC11BFCE0E472
:101FC0000D47FEF520E6B500D0ED902E03009435C8
:101FD00077050080841E080000204E0A000000C81B
:101FE0000C333333330F986E12831141EF8D21146C
:101FF000893BE65516CFFEE6DB18D1844B381BF73C
:102000007C1D901DA4BBE424203284725E228100DA
:10201000C9F124ECA1E53D27761B557349CB711B13
:1020200011241FBECFEFD1E2DEBFCDBF00E00CBF59
:102030001EE0A0E0B2E0E0EFFEEA01E00BBF02C06C
:1020400007900D92AC3BB107D9F71BBE17E1ACEB83
:10205000BEE001C01D92A83BB107E1F710E2CEE15E
:10206000D0E204C02297FE010E9426D7C831D107D2
:10207000C9F70E947FCC0C946CD70C940000EF92AF
:10208000FF920F931F93F22FF02E47FD02C0E4E062
:1020900001C0E4E1242F332727FD309537FF03C02B
:1020A000309521953F4F4F2D512F0F2FEE2E2FD1D1
:1020B0008F2D912F1F910F91FF90EF900895A0E029
:1020C000B0E0E5E6F0E10C943DD7EC01A880B980E2
:1020D000CA80DB80A114B104C104D10441F484E2BC
:1020E000A82E89EDB82E8BE5C82E87E0D82EC60124
:1020F000B5012DE133EF41E050E00E9409D727EA16
:1021000031E440E050E00E9495D67B018C01C6018D
:10211000B5012DE133EF41E050E00E9409D7CA013B
:10212000B9012CEE34EF4FEF5FEF0E9495D66E0DA4
:102130007F1D801F911F97FF04C061507040804039
:102140009048688379838A839B839B01AC015F7786
:10215000B901CA01CDB7DEB7EAE00C9459D7AFCFC9
:102160008AEF9DE0ACCF6093FA0D7093FB0D8093E6
:10217000FC0D9093FD0D08956627772729C2FC0179
:1021800088279927E89421912032E9F3293010F02B
:102190002E30C8F32B3239F02D3231F4689403C05D
:1021A000AED0820F911D219120532A30C8F31EF426
:1021B000909581959F4F08951F93FC01992788273B
:1021C000BC01E89411911032E9F3193010F01E307F
:1021D000C8F31B3249F01D3241F4689405C07AD02F
:1021E000610F711D811D911D119110531A30B8F3AB
:1021F0003EF490958095709561957F4F8F4F9F4FDE
:102200001F910895FB01DC0104C08D91019080199C
:1022100021F441505040C8F7881B990B0895FB01E9
:10222000DC0102C001900D9241505040D8F7089552
:10223000FC018191861721F08823D9F79927089509
:102240003197CF010895FB01DC018D910190801938
:102250000110D9F3990B0895FB01DC0101900D9257
:102260000020E1F70895FB01DC014150504030F0BF
:102270008D910190801919F40020B9F7881B990BF2
:102280000895FB01DC014150504048F001900D924F
:102290000020C9F701C01D9241505040E0F7089559
:1022A000FB0151915523A9F0BF01DC014D91451768
:1022B0004111E1F759F4CD010190002049F04D9111
:1022C00040154111C9F3FB014111EFCF81E090E0CE
:1022D00001970895592F482F372F262F660F771F04
:1022E000881F991F660F771F881F991F620F731F22
:1022F000841F951F660F771F881F991F08957AE026
:10230000979F902D879F802D910D11240895A9E00E
:10231000B0E0EDE8F1E10C9439D76A01122FA02E5C
:10232000BE2C2BE3201718F42CE3922E02C0902E23
:102330009394AE014F5F5F4F27E0092DA6D2BC01F9
:102340008981E82EFF24C70189709070019711F4EC
:10235000ADE209C0B1FE02C0ABE205C0B0FC02C0F4
:10236000A0E001C0A0E2E3FE3BC0AA2311F423E0F9
:1023700001C024E0211710F020E002C0121B212F21
:10238000EB2CB4FE02C0322F0AC0F601322F80E2DD
:1023900002C0819331503323E1F7C20ED11CAA232E
:1023A00019F0F601A1936F01F6013196E2FE05C026
:1023B0009EE4D6019C9381E404C09EE6D6019C93E2
:1023C00081E611968C9391833296DF01832F90E200
:1023D00002C09D9381508823E1F7E30FF11D40C0B7
:1023E000E2FE42C0AA2311F423E001C024E0211739
:1023F00010F020E002C0121B212FEB2CB4FE02C013
:10240000922F0AC0F601922F80E202C08193915070
:102410009923E1F7C20ED11CAA2319F0F601A1936A
:102420006F01F6013196E2FE08C089E4D6018C9373
:102430008EE411968C9386E407C089E6D6018C93CE
:102440008EE611968C9386E681833296DF01892F82
:1024500020E202C02D9381508823E1F7E90FF11D9E
:1024600010822EEF3FEFAFC0161617061CF041E0AA
:1024700050E003C0AB014F5F5F4FAA2019F480E02A
:1024800090E003C08A2D90E0019620E030E0AA237E
:1024900011F021E030E0240F351F280F391F812F64
:1024A00090E02817390714F020E002C0121B212FFA
:1024B0004B2D50E0CA0180719070B4FC0DC0B3FC8C
:1024C0000BC0F601322F40E202C04193315033235A
:1024D000E1F7C20ED11C01C0322FAA2319F0F60178
:1024E000A1936F01892B11F0132F0AC0F601132F4E
:1024F00080E302C0819311501123E1F7C30ED11C78
:10250000092D060FBA8090E1892E912C8E209F20F4
:10251000E4FE04C0F1E3BF1609F40150101614F0F4
:1025200001E003C0093008F008E09B0177FF02C01A
:1025300020E030E0CB010196821B930BFE01319627
:10254000E80FF91F8EE2F82E3B01601A71088A2D00
:1025500090E044275527481B590B8FEF2F3F380732
:1025600019F4D601FD926D01621773072CF0621603
:10257000730614F4808101C080E32150304031960D
:102580002417350724F0D6018D936D01E6CF261769
:10259000370749F4B5E3BB1528F0BB1621F48114C5
:1025A000910409F481E3F6018193D601812F90E231
:1025B00002C09C93815011968823D9F7E10FF11D39
:1025C000108220E030E0C9012996EEE00C9455D746
:1025D000A0E0B0E0EEEEF2E10C943BD7EC015B0141
:1025E0006115710519F0FB0191838083F9908F2D9E
:1025F00090E00E942AD7892BC9F7FDE2FF1621F44B
:10260000F990EE24E39405C02BE2F21609F4F99058
:10261000EE248E0101501040C80163EE7EE143E0DC
:1026200050E00BD2892BF9F48E010E5F1F4FC801C9
:1026300066EE7EE145E050E000D2892B19F48E0170
:10264000095F1F4FA114B10419F0F5011183008334
:10265000E0FC04C070E090E080E813C070E090E01F
:1026600080E86FEF07C1C8016BEE7EE143E050E008
:10267000E4D1892B69F4A114B10429F470E090E04D
:1026800080EC6FE7F7C02296F501D183C083F6CFC7
:102690008824992440E050E060E070E0EF2DE053A2
:1026A000EA30A0F5F2E0EF2A8E2D90E09C01287030
:1026B0003070E2FE06C0232B79F50894811C911C32
:1026C0002BC0232B19F0089481089108DB01CA0163
:1026D00012E0880F991FAA1FBB1F1A95D1F7480F48
:1026E000591F6A1F7B1F440F551F661F771F4E0F10
:1026F000511D611D711D483929E9520729E96207F9
:1027000029E1720748F084E0E82A06C0EE3F31F480
:10271000E3FC39C098E0E92AF990C0CFE53311F025
:10272000E53189F529912D3219F4E0E1EE2A05C051
:102730002B3219F081E090E003C0299182E090E013
:10274000E22FE053EA3018F0C81BD90B1CC020E080
:1027500030E0FCE020383F075CF4C901880F991F86
:10276000880F991F280F391F220F331F2E0F311D7D
:10277000E991E053EA3068F3E4FE03C03095219517
:102780003F4F820E931ECE2CDD24E1FE07C0A11424
:10279000B10421F02197F501D183C083CB01BA01A7
:1027A0000E9495D47B018C01F3E0CF22DD2423E04D
:1027B000C216D10421F417FB109517F91095570193
:1027C0006801C801B70120E030E040E050E00E941D
:1027D000F5D3882309F44AC097FE0DC022E0E22E0B
:1027E0002FE1F22E9094819491089394C0E2D0E06E
:1027F00000E010E012C09AE1E92E9FE1F92EF6CF39
:10280000F7012591359145915491C601B5010E947A
:102810008DD55B016C018C1A9D0A8C169D0684F780
:10282000D595C7950F5F1F4F0630110529F08CEF26
:102830009FEFE80EF91EF1CFC501D6017C018D0195
:102840008C2D880F8D2D881F8F3F51F0C601B5014B
:1028500020E030E040E050E00E94F5D3882331F4DE
:1028600082E290E09093B7178093B6177E2D9F2D4C
:10287000802F612F272F392F482F562FB901CA01DA
:10288000CDB7DEB7ECE00C9457D7283008F027E03E
:102890003327DA01990F311D87FD9160009661059C
:1028A000710539F432602E5F3D9330E32A95E1F7EC
:1028B00008959F3F30F080387105610509F03C5F55
:1028C0003C5F3D93913008F08068911DDF93CF937A
:1028D0001F930F93FF92EF92192F987F9695E92FF0
:1028E00096959695E90FFF27E858F04E99273327DC
:1028F000EE24FF24A701E70105900894079428F42B
:10290000360FE71EF81E491F511D660F771F881FDF
:10291000991F0694A1F70590079428F4E70EF81E76
:10292000491F561FC11D770F881F991F661F0694E8
:10293000A1F70590079428F4F80E491F561FC71FEA
:10294000D11D880F991F661F771F0694A1F7059068
:10295000079420F4490F561FC71FD81F990F661FF1
:10296000771F881F0694A9F784911095177041F07E
:10297000D695C79557954795F794E7941A95C1F75B
:10298000EEE1FFE16894159015913591659195916F
:1029900005907FE27395E118F10A430B560BC90BC2
:1029A000D009C0F7E10CF11E431F561FC91FD01DEF
:1029B0007EF4703311F48A95E6CFE894015030F03C
:1029C000080F0AF40027021708F4202F2395022F7E
:1029D0007A3328F079E37D932A95E9F710C07D9347
:1029E0002A9589F6069497956795379517951794C4
:1029F000E118F10A430B560BC90BD00998F0239547
:102A00007E9173957A3308F070E37C932013B8F7C6
:102A10007E9170617D9330F0839571E37D9370E3D7
:102A20002A95E1F71124EF90FF900F911F91CF911C
:102A3000DF91992787FD90950895FB01DC014150B6
:102A4000504088F08D9181341CF08B350CF4805E01
:102A5000659161341CF06B350CF4605E861B61116E
:102A600071F3990B0895881BFCCF982F80914E0E1F
:102A7000813079F59430E9F0953030F4913059F0A7
:102A8000923009F0BFC00EC09530D9F0963009F0F1
:102A9000B9C083E208958091B70F882309F4B3C0C9
:102AA00081E208958091830F882309F4ABC082E00E
:102AB00008958091100E882311F485E0089584E034
:102AC00008958091C00E882311F487E0089588E06E
:102AD000089580914E0E8630C9F4943009F495C063
:102AE000953030F4923061F0933009F08BC00AC019
:102AF000953021F0963009F085C006C089E0089530
:102B00008AE0089583E1089582E1089580914E0E50
:102B10008430C9F4943009F478C0953030F49230A0
:102B200061F0933009F06EC00AC0953021F0963004
:102B300009F068C006C08BE108958CE108958AE130
:102B4000089589E1089580914E0E8530C9F494303E
:102B500009F45BC0953030F4923061F0933009F0A5
:102B600051C00AC0953021F0963009F04BC006C024
:102B700085E1089586E1089588E1089587E1089543
:102B800080914E0E8330D1F4943051F0953018F48A
:102B90009230C1F507C0953039F0963099F506C0EE
:102BA0008FE008958CE008958BE008958091AF0F39
:102BB000882311F480E1089582E2089580914E0EF9
:102BC0008730D1F4933091F0943028F4913061F053
:102BD0009230C1F407C0953059F09530B0F096307E
:102BE00089F408C08FE1089585E208958EE1089583
:102BF0008DE1089587E2089580914E0E883011F49A
:102C0000943019F0089580E2089584E10895AF9218
:102C1000BF92CF92DF92EF92FF920F931F936E15A8
:102C20007F058007910734F42E153F0540075107B3
:102C300064F42CC0E616F7060807190794F4A216E8
:102C4000B306C406D5063CF423C0A216B306C406D8
:102C5000D506BCF41FC02A153B054C055D05C4F420
:102C60001BC06E157F058007910791F42A153B055F
:102C70004C055D058CF0A216B306C406D50644F4D7
:102C800009C02A153B054C055D0511F484E005C01B
:102C900082E003C083E001C081E01F910F91FF90AB
:102CA000EF90DF90CF90BF90AF900895EF92FF929A
:102CB0000F931F937B018C01662757FD6095762F3C
:102CC000CB01BA010E9497D42091C80E3091C90E51
:102CD0004091CA0E5091CB0E0E948DD5A80197014C
:102CE0000E94FCD37B018C0120E030E040E050E406
:102CF0000E9489D587FF03C061E070E004C0C8016D
:102D0000B7010E9464D4CB011F910F91FF90EF9007
:102D100008956F927F928F929F92AF92BF92CF92BF
:102D2000DF92EF92FF920F931F93CF93DF937C017B
:102D30005B01662757FD6095762FCB01BA010E9493
:102D400097D43B014C010027F7FC0095102FC801D8
:102D5000B7010E9497D47B018C01CC24B7FCC094AE
:102D6000DC2CC601B5010E9497D49B01AC01C801BF
:102D7000B7010E94FCD3A40193010E948DD59B0151
:102D8000AC01C401B3010E9490D37B018C010E946D
:102D900064D4EB01BE01882777FD8095982F0E94AF
:102DA00097D49B01AC01C801B7010E9490D320E0E9
:102DB00030E040E05FE30E9489D518160CF42196BC
:102DC000CE01DF91CF911F910F91FF90EF90DF9097
:102DD000CF90BF90AF909F908F907F906F9008950D
:102DE000CF92DF92EF92FF920F931F93CF93DF93D7
:102DF000EC016B01688179818A819B812091530E5E
:102E00003091540E4091550E5091560E0E948DD522
:102E1000688379838A839B83F601608171818281D3
:102E200093812091570E3091580E4091590E509138
:102E30005A0E0E948DD57B018C01F601608371834F
:102E4000828393832091001230910112C9018E97E1
:102E50008A35910580F4288139814A815B81D801C6
:102E6000C701B05888839983AA83BB8320833183A9
:102E70004283538329C0C901885890408A359105FF
:102E800080F488819981AA81BB81B0588883998315
:102E9000AA83BB83F60180819181A281B381B0585E
:102EA0000FC0225E30402A35310570F48881998147
:102EB000AA81BB81E882F9820A831B83B058F6019C
:102EC00080839183A283B383688179818A819B8186
:102ED0002091021230910312409104125091051278
:102EE0000E9491D3688379838A839B83F6016081F2
:102EF0007181828193812091061230910712409155
:102F00000812509109120E9491D3F60160837183D7
:102F100082839383DF91CF911F910F91FF90EF9068
:102F2000DF90CF9008952F923F924F925F926F92D1
:102F30007F928F929F92AF92BF92CF92DF92EF9249
:102F4000FF920F931F931B012C0139014A016091DD
:102F5000D00E7091D10E8091D20E9091D30E0E941E
:102F600097D47B018C01A80197010E948DD55B014C
:102F70006C01C401B301A40193010E948DD59B0192
:102F8000AC01C601B5010E9490D35B016C01C20186
:102F9000B101A20191010E948DD59B01AC01C60136
:102FA000B5010E9491D35B016C01C801B701A80172
:102FB00097010E9491D39B01AC01C601B5010E940B
:102FC000FCD31F910F91FF90EF90DF90CF90BF90B7
:102FD000AF909F908F907F906F905F904F903F90B9
:102FE0002F9008950F931F93CF93DF93242F2627BD
:102FF000A22FB0E0AF70B070AA0FBB1FAA0FBB1F0B
:10300000C4E7D2E0AC0FBD1FFD01059115912591DC
:103010003491E4E09695879577956795EA95D1F791
:10302000062717272827392742954F70402750E059
:103030004F705070440F551F440F551F4C0F5D1FAC
:10304000FA0185919591A591B49144E03695279523
:10305000179507954A95D1F7082719272A273B275F
:10306000B801C901DF91CF911F910F910895CF92BF
:10307000DF92EF92FF920F931F938130910509F039
:1030800022C26F5F7F4F09F025C381E790E160E0C6
:1030900072E00E94C6D28DEB9EE00E94288E81ECE9
:1030A0009EE067E072E00E94C6D288E790E168E0A7
:1030B00072E00E94C6D26091040E7091050E8827BE
:1030C00077FD8095982F2091FE0D3091FF0D4427BC
:1030D00037FD4095542F0E9495D60E9497D47B01CE
:1030E0008C016091000E7091010E8091020E909102
:1030F000030EA80197010E94FCD36093C80E709341
:10310000C90E8093CA0E9093CB0EC801B7012091CF
:10311000000E3091010E4091020E5091030E0E945C
:10312000FCD37B018C016093CC0E7093CD0E809309
:10313000CE0E9093CF0E60914F0E7091500E882757
:1031400077FD8095982F0E9497D4A80197010E943F
:103150008DD50E9464D46093D00E7093D10E80936D
:10316000D20E9093D30E6091510E7091520E88271B
:1031700077FD8095982F0E9497D4A80197010E940F
:103180008DD50E9464D46093D40E7093D50E809335
:10319000D60E9093D70E8FE790E161E172E00E9426
:1031A000C6D286E890E163E172E00E94C6D28DE863
:1031B00090E167E172E00E94C6D284E990E16FE19C
:1031C00072E00E94C6D28BE990E162E572E00E9453
:1031D000C6D282EA90E162E572E00E94C6D289EA34
:1031E00090E162E572E00E94C6D280EB90E162E578
:1031F00072E00E94C6D287EB90E161E672E00E9425
:10320000C6D28EEB90E16BE672E00E94C6D285ECEE
:1032100090E162E772E00E94C6D28CEC90E16AE72E
:1032200072E00E94C6D283ED90E165E872E00E94F0
:10323000C6D28AED90E167EB70E10E9474D388EE0C
:103240009EE067E072E00E94C6D281EE90E16BE8FA
:1032500072E00E94C6D288EE90E16DE872E00E94B2
:10326000C6D28FEE90E162E972E00E94C6D286EF8C
:1032700090E166E972E00E94C6D28DEF90E16AE9C2
:1032800072E00E94C6D284E091E16EE972E00E9491
:10329000C6D28BE091E162EA72E00E94C6D282E17E
:1032A00091E166EA72E00E94C6D289E191E16AEAA0
:1032B00072E00E94C6D280E291E16EEA72E00E9462
:1032C000C6D287E291E162EB72E00E94C6D28EE242
:1032D00091E166EB72E00E94C6D285E391E16AEB70
:1032E00072E00E94C6D28CE391E16EEB72E00E9424
:1032F000C6D283E491E162EC72E00E94C6D28AE415
:1033000091E166EC72E00E94C6D281E591E16AEC3F
:1033100072E00E94C6D288E591E16EEC72E00E94F4
:10332000C6D28FE591E162ED72E00E94C6D286E6D8
:1033300091E166ED72E00E94C6D28DE691E16AED00
:1033400072E00E94C6D284E791E16EED72E00E94C5
:10335000C6D28BE791E162EE72E00E94C6D282E8AB
:1033600091E166EE72E00E94C6D289E891E16AEED0
:1033700072E00E94C6D280E991E16EEE72E00E9496
:10338000C6D287E991E162EF72E00E94C6D28EE96F
:1033900091E167EF72E00E94C6D285EA91E16BEF9E
:1033A00072E00E94C6D28CEA91E16FEF72E00E9457
:1033B000C6D283EB91E163E073E00E94C6D28AEB50
:1033C00091E167E073E00E94C6D281EC91E16BE08D
:1033D00073E00E94C6D288EC91E16FE073E00E9436
:1033E000C6D28FEC91E163E173E00E94C6D286ED14
:1033F00091E167E173E00E94C6D28DED91E16BE14E
:1034000073E00E94C6D284EE91E16FE173E00E9406
:10341000C6D28BEE91E163E273E00E94C6D282EFE6
:1034200091E167E273E00E94C6D289EF91E16BE21D
:1034300073E00E94C6D288EF9EE06EE046E250E064
:1034400027E230E008E210E079E2E72EF12CCC240C
:10345000DD240E94F6B984E29FE06BE04CE022E1BB
:1034600003E1B2E0EB2E0E945BBE86E59FE067E0E1
:1034700072E00E94C6D280E69FE067E072E00E94A0
:10348000C6D287E69FE00E94A87184E89FE00E9470
:10349000A87180EB9FE067E072E00E94C6D289EBE2
:1034A0009FE061E044E025E004E0A5E0EA2ECC24C2
:1034B000C3940E94F88B8DEF9FE061E047E028E025
:1034C0000E94F88B07C1892B09F004C16F5F7F4F01
:1034D00009F000C180EB9FE00E9486D384E89FE062
:1034E0000E94BB7187E69FE00E94BB7180E69FE06F
:1034F0000E9486D386E59FE00E9486D389EF91E102
:103500000E9486D382EF91E10E9486D38BEE91E1F7
:103510000E9486D384EE91E10E9486D38DED91E1E5
:103520000E9486D386ED91E10E9486D38FEC91E1D3
:103530000E9486D388EC91E10E9486D381EC91E1D0
:103540000E9486D38AEB91E10E9486D383EB91E1BE
:103550000E9486D38CEA91E10E9486D385EA91E1AC
:103560000E9486D38EE991E10E9486D387E991E19A
:103570000E9486D380E991E10E9486D389E891E197
:103580000E9486D382E891E10E9486D38BE791E185
:103590000E9486D384E791E10E9486D38DE691E173
:1035A0000E9486D386E691E10E9486D38FE591E161
:1035B0000E9486D388E591E10E9486D381E591E15E
:1035C0000E9486D38AE491E10E9486D383E491E14C
:1035D0000E9486D38CE391E10E9486D385E391E13A
:1035E0000E9486D38EE291E10E9486D387E291E128
:1035F0000E9486D380E291E10E9486D389E191E125
:103600000E9486D382E191E10E9486D38BE091E112
:103610000E9486D384E091E10E9486D38DEF90E1F1
:103620000E9486D386EF90E10E9486D38FEE90E1D0
:103630000E9486D388EE90E10E9486D381EE90E1CD
:103640000E9486D388EE9EE00E9486D38AED90E1A8
:103650000E9486D383ED90E10E9486D38CEC90E1AA
:103660000E9486D385EC90E10E9486D38EEB90E198
:103670000E9486D387EB90E10E9486D380EB90E195
:103680000E9486D389EA90E10E9486D382EA90E183
:103690000E9486D38BE990E10E9486D384E990E171
:1036A0000E9486D38DE890E10E9486D386E890E15F
:1036B0000E9486D38FE790E10E9486D388E790E14D
:1036C0000E9486D381EC9EE00E9486D381E790E140
:1036D0000E9486D31F910F91FF90EF90DF90CF90C3
:1036E000089580E090E06FEF7FEFC1CC81E090E043
:1036F0006FEF7FEFBCCCCF92DF92EF92FF920F93F0
:103700001F93CF93DF936C01EE24EA94FE2C870184
:10371000C0E0D0E00BC0C601BE010E940CD0482F13
:10372000C801B7015FDC7B018C012196F601848121
:103730009581C817D90778F3A8019701209530958E
:1037400040955095B901CA01DF91CF911F910F911A
:10375000FF90EF90DF90CF9008950F931F9384E038
:1037600090E00E9489C18C010E9410C22DB73EB723
:10377000201B310BC9011F910F910895EEDF9C01B1
:103780008091DC0E9091DD0E28173907D1F030932F
:10379000DD0E2093DC0E8BE297E16DE870E10E9474
:1037A00043CF6091DC0E7091DD0E8BE297E14AE031
:1037B00050E00E941DCE8BE297E168EE70E10C9420
:1037C00075CF08958BE297E16EEB70E10C9475CFA5
:1037D0008BE297E167EB70E10C9475CFAF92BF92EB
:1037E000CF92DF92EF92FF920F931F937B018C0198
:1037F000CA01B9010E948DD55B016C01C801B701F6
:10380000A80197010E948DD59B01AC01C601B501AD
:103810000E9490D30E94FAD51F910F91FF90EF90D4
:10382000DF90CF90BF90AF9008956F927F928F926C
:103830009F92AF92BF92CF92DF92EF92FF920F933F
:103840001F937B018C016FDB5B016C01A801970169
:10385000C5DF3B014C01E090200EF090210E00915D
:10386000220E1091230EC801B7010E9497D49B012C
:10387000AC01C601B5010E94F5D387FD4AC0809115
:10388000280E9091290EA0912A0EB0912B0EE80ED1
:10389000F91E0A1F1B1FC801B7010E9497D49B0184
:1038A000AC01C601B5010E9489D5181694F1E090CB
:1038B000240EF090250E0091260E1091270EC801BF
:1038C000B7010E9497D49B01AC01C401B3010E94CF
:1038D000F5D387FD1EC0DD2480912C0E90912D0E16
:1038E000A0912E0EB0912F0EE80EF91E0A1F1B1F7D
:1038F000C801B7010E9497D49B01AC01C401B30178
:103900000E9489D5181614F4DD24D39481E0D826BA
:1039100001C0DD248D2D1F910F91FF90EF90DF905E
:10392000CF90BF90AF909F908F907F906F900895B1
:10393000AF92BF92CF92DF92EF92FF920F931F93BD
:103940007B018C0159016A016091D00E7091D10EFA
:103950008091D20E9091D30E0E9497D4A801970126
:103960000E9490D39B01AC010E948DD57B018C01FC
:10397000C601B501A60195010E948DD59B01AC0140
:10398000C801B7010E9491D30E94FAD51F910F91EF
:10399000FF90EF90DF90CF90BF90AF900895AF92DF
:1039A000BF92CF92DF92EF92FF920F931F937B0112
:1039B0008C0159016A01A80197010E948DD57B01F4
:1039C0008C01C601B501A60195010E948DD59B0110
:1039D000AC01C801B7010E9491D30E94FAD51F9192
:1039E0000F91FF90EF90DF90CF90BF90AF90089530
:1039F0002F923F924F925F926F927F928F929F92FF
:103A0000AF92BF92CF92DF92EF92FF920F931F93EC
:103A1000DF93CF9300D00F92CDB7DEB769837A835F
:103A20008B839C8359016A01170128016115710577
:103A30008105910559F40F2EF0E0EF2EF0E0FF2EF6
:103A4000F0E00F2FF0E01F2FF02DA4C0CA01B90144
:103A50000E948DD57B018C01C601B50120E030E0CC
:103A600040E050E00E94F5D3882324F417FB109522
:103A700017F91095C201B101A20191010E9491D3E1
:103A80003B014C01C801B701A40193010E94FCD382
:103A90007B018C0169817A818B819C810E9497D402
:103AA0009B01AC01C801B7010E94F5D38823B4F58E
:103AB000C601B50120E030E040E050E00E94F5D3BF
:103AC000882329F4C401B3010E94FAD50DC0C201B4
:103AD000B101A60195010E94FCD39B01AC015F7767
:103AE000C601B5010E9491D37B018C01D090060ED6
:103AF000C090070EB090080EA090090E2D2D3C2D01
:103B00004B2D5A2D0E9489D518160CF043C08D2DCF
:103B10009C2DAB2DBA2D7C018D013CC0C601B50199
:103B200020E030E040E050E00E94F5D3882359F4D3
:103B3000C401B3010E94FAD57B018C0117FB1095DB
:103B400017F910950FC0C201B101A60195010E949D
:103B5000FCD39B01AC015F77C601B5010E9490D3F5
:103B60007B018C018091060E9091070EA091080EAA
:103B7000B091090E5C016D01D7FAD094D7F8D094BA
:103B8000C801B701A60195010E94F5D3882314F45A
:103B900086017501B701C8010F900F900F900F902B
:103BA000CF91DF911F910F91FF90EF90DF90CF9019
:103BB000BF90AF909F908F907F906F905F904F904D
:103BC0003F902F900895EF92FF920F931F93809153
:103BD0000F0E882309F456C08BE297E163ED70E184
:103BE0000E9443CF89EB9FE00E9444870E9497D4B4
:103BF0007B018C016091040E7091050E882777FD82
:103C00008095982F0E9497D49B01AC01C801B70101
:103C10000E94FCD30E9464D4AB01BC018BE297E10B
:103C20002AE030E00E94CDCD8BE297E161EE70E1B9
:103C30000E9443CF8DEF9FE00E9444870E9497D45B
:103C40007B018C016091040E7091050E882777FD31
:103C50008095982F0E9497D49B01AC01C801B701B1
:103C60000E94FCD30E9464D4AB01BC018BE297E1BB
:103C70002AE030E00E94CDCD8BE297E168EE70E162
:103C80000E9475CF1F910F91FF90EF900895EF92D2
:103C9000FF920F931F938091D80E9091D90EA0910F
:103CA000DA0EB091DB0E0097A105B10509F03FC017
:103CB0006091D00E7091D10E8091D20E9091D30E62
:103CC0000E9497D47B018C016091D40E7091D50E27
:103CD0008091D60E9091D70E0E9497D49B01AC0193
:103CE000C801B7015CDE20E030E040E05FE30E9405
:103CF00091D30E9464D46093D80E7093D90E8093B0
:103D0000DA0E9093DB0E8BE297E16FE273E00E9494
:103D10004CCE4091D80E5091D90E6091DA0E709130
:103D2000DB0E8BE297E12AE030E00E940BCE60913F
:103D3000D80E7091D90E8091DA0E9091DB0E1F9102
:103D40000F91FF90EF900895AF92BF92CF92DF92C4
:103D5000EF92FF920F931F937B018C0159016A012F
:103D60000E94CAC59B01AC012093E00E3093E10E86
:103D70004093E20E5093E30E89EB9FE0B801A70158
:103D80000E94DA888DEF9FE0B601A5010E94DA88D3
:103D900015C080910E0E882349F089EB9FE00E94A8
:103DA000EE8D8DEF9FE00E94EE8D08C089EB9FE0C5
:103DB0000E94CB8D8DEF9FE00E94CB8D89EB9FE021
:103DC0000E943487611571058105910549F48DEFD5
:103DD0009FE00E943487611571058105910529F0E6
:103DE0008091100E882351F3D4CFEDDE1F910F91F7
:103DF000FF90EF90DF90CF90BF90AF9008958BE24F
:103E000097E166E473E00C9432CF8BE297E16CE0CB
:103E100073E00E9401CD10925F0F08958F929F92E0
:103E2000AF92BF92CF92DF92EF92FF920F931F93C8
:103E30006C017B018BE297E16DE573E00E944CCE53
:103E40008BE297E1B6014AE050E00E941DCE8BE282
:103E500097E166E673E00E944CCE8BE297E1B701F2
:103E60004AE050E00E942FCE8BE297E16BE673E0D0
:103E70000E944CCE6091A90F7091AA0F8BE297E13E
:103E80004AE050E00E942FCE8BE297E16BE773E0AF
:103E90000E944CCE40919F0F5091A00F6091A10FB6
:103EA0007091A20F8BE297E12AE030E00E940BCEE6
:103EB0004601AA2497FCA094BA2C8091A90F909156
:103EC000AA0FAA2797FDA095BA2F880E991EAA1EA1
:103ED000BB1E0027F7FC0095102F20919F0F3091FB
:103EE000A00F4091A10F5091A20FC801B7010E94ED
:103EF00095D6860E971EA81EB91E8BE297E165E83F
:103F000073E00E944CCE8BE297E1B501A4012AE058
:103F100030E00E94CDCD8091AB0F9091AC0FA0917D
:103F2000AD0FB091AE0F88159905AA05BB0514F425
:103F30001FEF18C084E89FE0B501A4010E945772EA
:103F400084E89FE00E946872182F8BE297E16EE888
:103F500073E00E944CCE8BE297E1612F4AE050E083
:103F60000E94B1CD812F1F910F91FF90EF90DF90B4
:103F7000CF90BF90AF909F908F9008950F931F9315
:103F8000CF93DF93EC018B018BE297E16DE973E056
:103F90000E944CCE8BE297E1BE014AE050E00E94C5
:103FA0001DCE8BE297E160EA73E00E944CCE8BE27B
:103FB00097E1B8014AE050E00E942FCE8091411075
:103FC00090914210C817D907B4F080914510909194
:103FD00046108C179D077CF08091431090914410FF
:103FE0000817190744F080914710909148108017E6
:103FF00091070CF097C08091491090914A10C81712
:10400000D907BCF080914D1090914E108C179D07F0
:1040100084F080914B1090914C10081719074CF0C8
:1040200080914710909148108017910714F082E01A
:104030007AC08091511090915210C817D907BCF0E6
:1040400080915510909156108C179D0784F08091A7
:10405000531090915410081719074CF08091571085
:10406000909158108017910714F083E05CC0809104
:10407000591090915A10C817D907BCF080915D1063
:1040800090915E108C179D0784F080915B10909149
:104090005C10081719074CF080915F109091601028
:1040A0008017910714F084E03EC0809161109091D8
:1040B0006210C817D907BCF0809165109091661006
:1040C0008C179D0784F080916310909164100817FD
:1040D00019074CF080916710909168108017910734
:1040E00014F085E020C08091691090916A10C81783
:1040F000D907BCF080916D1090916E108C179D07C0
:1041000084F080916B1090916C10081719074CF097
:1041100080916F10909170108017910714F086E0D5
:1041200002C001C081E0DF91CF911F910F910895EE
:104130006F927F928F929F92AF92BF92CF92DF92B7
:10414000EF92FF920F931F93DF93CF93CDB7DEB71C
:10415000A3970FB6F894DEBF0FBECDBF6DB67EB687
:1041600084E89FE040E050E060E070E00E94577219
:104170007E010894E11CF11CC70165EA73E00E940E
:10418000C6D284E89FE00E946872182FC70160E0E1
:1041900070E00E941DD0FC01108384E89FE00E9423
:1041A0006872182FC70161E070E00E941DD0FC0109
:1041B0001083C70168EA73E00E9445D1882399F40F
:1041C0008BE297E16BEA73E00E944CCE8BE297E1C1
:1041D000B7010E9443CF8BE297E169EC73E00E9444
:1041E00032CF10E083C18BE297E164EE73E00E946E
:1041F00032CF84E89FE00E9468728E01085F1F4FF3
:10420000C80167E072E00E94C6D284E89FE00E9485
:104210006872E82E8FE0C82ED12CCC0EDD1EF02E59
:10422000012F21C083E2E81641F484E89FE00E9458
:104230006872E82E9AE0E916C1F7C6016F2D702F5B
:104240000E947DD3C6016E2D0E946AD2BC018F2DC3
:10425000902F0E945FD3C6010E948BD384E89FE019
:104260000E946872E82E8AE0E81619F090E2E916DA
:10427000C9F68BE297E16AE074E00E944CCE18E048
:10428000E12EF12CEC0EFD1E8BE297E1B7010E94AE
:1042900075CF4C855D854F5F5F4F8DB79EB7841B93
:1042A000950B0FB6F8949EBF0FBE8DBF0DB71EB70E
:1042B0000F5F1F4F902E812EB02EA12EC701B80187
:1042C00020E030E00E94F6D0C8010E94BF10AA276B
:1042D00097FDA095BA2F80939F0F9093A00FA09366
:1042E000A10FB093A20F0A97A105B10544F48BE288
:1042F00097E164EB72E00E9401CD10E0F3C0C701CA
:1043000067E072E00E94F8D284E89FE00E94687241
:10431000182FB6E1CB2ED12CCC0EDD1EC701FE2C02
:10432000092F1FC0133239F484E89FE00E9468729D
:10433000182F8A30C9F7C6016F2D702F0E947DD3C8
:10434000C601612F0E946AD2BC018F2D902F0E945E
:104350005FD3C6010E948BD384E89FE00E946872FD
:10436000182F1A30F9F68BE297E165E174E00E94AC
:104370004CCEA8E0CA2ED12CCC0EDD1E8BE297E1EC
:10438000B6010E9475CF4C855D854F5F5F4FC601BA
:104390006B2D7A2D20E030E00E94F6D0892D982DEB
:1043A0000E94BF10AA2797FDA095BA2F8093A30F54
:1043B0009093A40FA093A50FB093A60FBC01CD01BD
:1043C0000E9497D47B018C0160919F0F7091A00F88
:1043D0008091A10F9091A20F0E9497D49B01AC01F4
:1043E000C801B7010E94FCD360933D0E70933E0E4E
:1043F00080933F0E9093400E8BE297E161E274E070
:104400000E944CCE40913D0E50913E0E60913F0E69
:104410007091400E8BE297E122E030E00E9421CFC4
:10442000C60167E072E00E94F8D284E89FE00E9433
:104430006872182F0D2DFDE1EF2EF12CEC0EFD1EF4
:1044400016C0C7016C2D702F0E947DD3C701612F4C
:104450000E946AD2BC018C2D902F0E945FD3C701AD
:104460000E948BD384E89FE00E946872182F1A3054
:1044700041F78BE297E163E374E00E944CCE8BE25C
:1044800097E16C2D702F0E9475CF4C855D854F5F35
:104490005F4F8C2D902F6B2D7A2D20E030E00E9405
:1044A000F6D0892D982D0E94BF109093A80F80936D
:1044B000A70F84E89FE00E9412727093AA0F609386
:1044C000A90F8BE297E167E474E00E944CCE609103
:1044D000A90F7091AA0F8BE297E14AE050E00E9489
:1044E0002FCE11E0CE0108960E9486D3CE01019610
:1044F0000E9486D3812F0FB6F8947EBE0FBE6DBE8C
:10450000A3960FB6F894DEBF0FBECDBFCF91DF915B
:104510001F910F91FF90EF90DF90CF90BF90AF90E1
:104520009F908F907F906F900895EF92FF920F93DE
:104530001F93DF93CF93CDB7DEB7FC01EDB6FEB688
:10454000448155814F5F5F4F8DB79EB7841B950B9C
:104550000FB6F8949EBF0FBE8DBF0DB71EB70F5F8D
:104560001F4FCF01B80120E030E00E94F6D0C80113
:104570000E94BF100FB6F894FEBE0FBEEDBECF91E5
:10458000DF911F910F91FF90EF900895EF92FF92AE
:104590000F931F93DF93CF93CDB7DEB727970FB657
:1045A000F894DEBF0FBECDBF8E010F5F1F4FC80155
:1045B0006BE970E10E9474D3C801B7DF7C01C801C8
:1045C0000E9486D3EF2819F41092550F0EC08091E7
:1045D0005D0F882321F081E08093550F06C08BE2A8
:1045E00097E165E574E00E9432CF27960FB6F89404
:1045F000DEBF0FBECDBFCF91DF911F910F91FF9016
:10460000EF9008950F931F93DF93CF93CDB7DEB74D
:104610002E970FB6F894DEBF0FBECDBF8E010F5F91
:104620001F4FC8016BE970E10E9474D3C8017DDFA0
:1046300090935E0E80935D0EC8010E9486D38E011A
:10464000085F1F4FC80162EA70E10E9474D3C8017D
:104650006CDF90935C0E80935B0EC8010E9486D342
:104660002E960FB6F894DEBF0FBECDBFCF91DF916F
:104670001F910F910895EF92FF920F931F93DF9375
:10468000CF93CDB7DEB76B970FB6F894DEBF0FBEF2
:10469000CDBFFC01EDB6FEB6448155814F5F5F4F43
:1046A0008DB79EB7841B950B0FB6F8949EBF0FBEB7
:1046B0008DBF0DB71EB70F5F1F4FCF01B80120E0B0
:1046C00030E00E94F6D0CE0101966AE072E1A801C6
:1046D00021E00E9424768B819C819093870F8093A8
:1046E000860F8D819E81AF81B8858093880F9093CE
:1046F000890FA0938A0FB0938B0F89859A85AB851C
:10470000BC8580938C0F90938D0FA0938E0FB093E8
:104710008F0FA0E9BFE0FE013D968DE001900D9264
:104720008150E1F78A8D9B8D90939E0F80939D0F12
:10473000CE0101960E94BB7184E89FE00E9438720E
:10474000882329F48BE297E169E774E007C0F0DC85
:10475000882341F48BE297E16AE874E00E9432CF4B
:1047600080E00DC084E89FE00E9425726093AB0F4B
:104770007093AC0F8093AD0F9093AE0F81E00FB6A6
:10478000F894FEBE0FBEEDBE6B960FB6F894DEBF7A
:104790000FBECDBFCF91DF911F910F91FF90EF9092
:1047A0000895AF92BF92CF92DF92EF92FF920F9354
:1047B0001F93DF93CF93CDB7DEB76B970FB6F89407
:1047C000DEBF0FBECDBF6C01ADB6BEB64091640F6B
:1047D0005091650F4F5F5F4F8DB79EB7841B950B50
:1047E0000FB6F8949EBF0FBE8DBF0DB71EB70F5FFB
:1047F0001F4F80E69FE0B80120E030E00E94F6D035
:104800007E010894E11CF11CC7016AE072E1A80175
:1048100023E10E942476C7010E9438728823D1F0D8
:104820008BE297E162E974E00E944CCE8BE297E163
:1048300060E67FE00E9475CFC701B6010E9475CF88
:10484000C7010E9445728BE297E163EA74E00E941F
:1048500032CF0CC08BE297E169EA74E00E944CCE43
:104860008BE297E160E67FE00E9475CFCE01019672
:104870000E94BB710FB6F894BEBE0FBEADBE6B9664
:104880000FB6F894DEBF0FBECDBFCF91DF911F9161
:104890000F91FF90EF90DF90CF90BF90AF90089571
:1048A0002F923F924F925F926F927F928F929F9240
:1048B000BF92CF92DF92EF92FF920F931F93DF93FD
:1048C000CF93CDB7DEB7ED970FB6F894DEBF0FBE2E
:1048D000CDBF4C016B01CE01019667E072E00E94F2
:1048E000C6D28E01085F1F4FC80167E67FE041E036
:1048F0000E948B73C8010E943872882389F0C80116
:104900000E94C171BC01C6010E9445D1882341F0BB
:104910008BE297E168EB74E00E9432CFC80179C066
:104920008E01085F1F4FC8010E94C171BC017E014A
:104930000894E11CF11CC7010E94F8D28BE297E1B8
:104940006DEB74E00E944CCE8BE297E1B7010E94C0
:1049500075CFB02E012F33E2632E712C6C0E7D1EAD
:1049600024E1222E312C2C0E3D1E9FE2492E512C8B
:104970004C0E5D1E1F2D8B2D902F0E944572C30182
:1049800067E67FE041E00E948B738DA19EA19B872B
:104990008A878FA198A5A9A5BAA58C879D87AE8780
:1049A000BF878BA59CA5ADA5BEA5888B998BAA8B2F
:1049B000BB8BD101F2018DE001900D928150E1F7A6
:1049C0008CAD9DAD9AA389A3C3010E94BB718B2DB1
:1049D000902F0E9438728823D1F08B2D902F0E9447
:1049E000C171BC01C6010E9445D1882331F0C601C6
:1049F0006E2D712F0E945FD30AC08B2D902F0E94C5
:104A0000C171BC018E2D912F0E94F8D2B4CFCE017E
:104A100008960E944572C401B6010E9474D3CE016B
:104A200008960E94BB71CE0101960E9486D3C401F4
:104A3000ED960FB6F894DEBF0FBECDBFCF91DF91DC
:104A40001F910F91FF90EF90DF90CF90BF909F90BC
:104A50008F907F906F905F904F903F902F90089530
:104A60004F925F926F927F928F929F92AF92BF927E
:104A7000CF92DF92EF92FF921F93DF93CF93CDB748
:104A8000DEB7E6970FB6F894DEBF0FBECDBF5C0170
:104A90006B017E010894E11CF11C6CE1862E912CC7
:104AA0008C0E9D1E5DE0452E512C4C0E5D1E48E285
:104AB000642E712C6C0E7D1EC70167E67FE041E01D
:104AC0000E948B73C7010E943872882309F44BC07F
:104AD000C7010E94C171BC01C6010E9445D1882353
:104AE00011F410E041C08BE297E169EC74E00E94A0
:104AF00032CFC7010E944572C40167E67FE041E002
:104B00000E948B738E8D9F8D9C838B8388A199A12E
:104B1000AAA1BBA18D839E83AF83B8878CA19DA1E1
:104B2000AEA1BFA189879A87AB87BC87D201F30169
:104B30008DE001900D928150E1F78DA99EA99B8F88
:104B40008A8FC4010E94BB71C7010E9438728823FA
:104B500039F0C7010E94C171BC01C6010E94F8D2A0
:104B6000C7010E94457211E0C7010E944572C7014A
:104B70000E94BB71112309F49FCFC501B6010E94A9
:104B800074D3C501E6960FB6F894DEBF0FBECDBF55
:104B9000CF91DF911F91FF90EF90DF90CF90BF906A
:104BA000AF909F908F907F906F905F904F900895FF
:104BB0002F923F924F925F926F927F928F929F922D
:104BC000AF92BF92CF92DF92EF92FF921F93DF934B
:104BD000CF93CDB7DEB7E6970FB6F894DEBF0FBE22
:104BE000CDBF4C016B017E010894E11CF11CF8E281
:104BF0002F2E312C2C0E3D1EEDE04E2E512C4C0E46
:104C00005D1E7CE1672E712C6C0E7D1E5601089492
:104C1000A11CB11CC701B40141E00E948B73C70104
:104C20000E943872882311F010E027C08BE297E1D0
:104C300065ED74E00E9432CFC7010E94BB71E69619
:104C40000FB6F894DEBF0FBECDBFCF91DF911F919D
:104C5000FF90EF90DF90CF90BF90AF909F908F909C
:104C60007F906F905F904F903F902F9008958BE2D0
:104C700097E169E00E94D9CC1F5F812F90E08C15ED
:104C80009D05ACF3C7010E94C171BC018BE297E1A5
:104C90000E944CCEC7010E94C671882381F18BE22D
:104CA00097E169ED74E00E9432CF8B819C819F8FE8
:104CB0008E8F8D819E81AF81B88588A399A3AAA389
:104CC000BBA389859A85AB85BC858CA39DA3AEA328
:104CD000BFA38EE79EE09D8F8C8FD101F2018DE006
:104CE00001900D928150E1F78A8D9B8D9EAB8DAB2B
:104CF000C301B5015DDFC3010E94BB7111C08BE22E
:104D000097E16BED74E00E944CCEC7010E942572C2
:104D1000AB01BC018BE297E12AE030E00E949FCD1D
:104D2000C7010E944572C7010E94BB7173CF0F93E8
:104D30001F93DF93CF93CDB7DEB7E6970FB6F89406
:104D4000DEBF0FBECDBF1092AF0F80EB9FE067E0DC
:104D500072E00E94F8D21092820F1092830F80E6C8
:104D60009FE067E072E00E94F8D285E361E00E9474
:104D7000C3C68AE092E165E30E944477882339F450
:104D80008BE297E16EED74E00E9432CF09C08BE2B6
:104D900097E16AEF74E00E9432CF81E08093820F46
:104DA0008091820F882309F484C08BE297E161E14E
:104DB00075E00E9432CFCE0101966AE072E149EDC2
:104DC00054E021E00E9424768B819C8190936A0FAD
:104DD0008093690F8D819E81AF81B88580936B0F21
:104DE00090936C0FA0936D0FB0936E0F89859A8589
:104DF000AB85BC8580936F0F9093700FA093710F5C
:104E0000B093720FA3E7BFE0FE013D968DE00190E5
:104E10000D928150E1F78A8D9B8D9093810F809345
:104E2000800FCE0101960E94BB7181E08093830FB9
:104E30008091690F90916A0F9F8F8E8F80916B0F79
:104E400090916C0FA0916D0FB0916E0F88A399A3F4
:104E5000AAA3BBA380916F0F9091700FA091710FC7
:104E6000B091720F8CA39DA3AEA3BFA38EE79EE06B
:104E70009D8F8C8FDE019896E3E7FFE08DE0019037
:104E80000D928150E1F78091800F9091810F9EAB40
:104E90008DAB8E01045E1F4FC80160E070E088DEBC
:104EA000C8010E94BB718BE297E163E275E00E944A
:104EB00032CFE6960FB6F894DEBF0FBECDBFCF91CE
:104EC000DF911F910F910895AF92BF92CF92DF9221
:104ED000EF92FF920F931F9389EB9FE00E94EE8D5C
:104EE0008DEF9FE00E94EE8D89EB9FE00E9434875A
:104EF000611571058105910509F048C06091200E8A
:104F00007091210E8091220E9091230E2091280EF7
:104F10003091290E40912A0E50912B0E260F371FEB
:104F2000481F591F0E94EFCF5B016C016091240E56
:104F30007091250E8091260E9091270E20912C0EB7
:104F400030912D0E40912E0E50912F0E260F371FAF
:104F5000481F591F0E94EFCF7B018C01C601B5018C
:104F60000E9497D45B016C01C801B7010E9497D4DD
:104F70009B01AC01C601B5010E94CF1C0E9464D404
:104F8000AB01BC0189EB9FE00E94C9888DEF9FE0D7
:104F90000E943487611571058105910509F048C0AB
:104FA0006091200E7091210E8091220E9091230E1F
:104FB0002091280E3091290E40912A0E50912B0EEF
:104FC000260F371F481F591F0E94EFCF5B016C014E
:104FD0006091240E7091250E8091260E9091270EDF
:104FE00020912C0E30912D0E40912E0E50912F0EAF
:104FF000260F371F481F591F0E94EFCF7B018C01DE
:10500000C601B5010E9497D45B016C01C801B701CC
:105010000E9497D49B01AC01C601B5010E94981C67
:105020000E9464D4AB01BC018DEF9FE00E94C9884F
:105030001F910F91FF90EF90DF90CF90BF90AF90B6
:105040000895EF92FF920F931F93CF93DF93C0E0E9
:10505000D0E08BE297E169E275E00E944CCE8BE2F2
:1050600097E1BE014AE050E00E942FCE89EB9FE01D
:105070000E943487611571058105910509F469C0A5
:105080008DEF9FE00E9434876115710581059105C0
:1050900009F45FC089EB9FE00E94EE8D8DEF9FE0E9
:1050A0000E94EE8DE3CF6EEF7FEF8FEF9FEF23E057
:1050B00030E040E050E00E94EFCF7B018C01A7017F
:1050C000662757FD6095762F89EB9FE00E94DA886E
:1050D0008BE297E162E375E00E944CCE8BE297E1B0
:1050E000B7014AE050E00E942FCE8DEF9FE00E9472
:1050F0003487611571058105910511F56EEF7FEF1C
:105100008FEF9FEF23E030E040E050E00E94EFCFD0
:105110007B018C01A701662757FD6095762F8DEFE7
:105120009FE00E94DA888BE297E168E475E00E94D4
:105130004CCE8BE297E1B7014AE050E00E942FCEBF
:105140000E94E31D219683E0C83ED80709F081CF75
:105150000AC089EB9FE00E943487611571058105C3
:10516000910519F6A0CFDF91CF911F910F91FF907C
:10517000EF900895AF92BF92CF92DF92EF92FF929D
:105180000F931F93CF93DF93EC015B016A018DEBCB
:105190009EE069E070E00E94C58FCA15DB059CF4B3
:1051A00076010027F7FC0095102F8DEB9EE0BE01E5
:1051B0000E94AE8EC801B7010E94FEC52196AC16B2
:1051C000BD069CF712C076010027F7FC0095102F52
:1051D0008DEB9EE0BE010E94AE8EC801B7010E9419
:1051E000FEC52197CA15DB059CF78DEB9EE00E945A
:1051F000428EDF91CF911F910F91FF90EF90DF9042
:10520000CF90BF90AF900895EF92FF920F931F93AE
:10521000DF93CF93CDB7DEB727970FB6F894DEBFF5
:105220000FBECDBF8091DE0E9091DF0E2091C00E9B
:10523000029714F1222329F0E090640EF090650E9D
:1052400004C0E090660EF090670E8E010F5F1F4F56
:10525000C8016BE970E10E9474D3C80166D99093CC
:10526000670E8093660EC8010E9486D36091660E19
:105270007091670EC7010AC0213059F46091660E23
:105280007091670E8091640E9091650E43E050E03E
:1052900071DF1092C00E27960FB6F894DEBF0FBED6
:1052A000CDBFCF91DF911F910F91FF90EF900895A7
:1052B000EF92FF920F931F93DF93CF93CDB7DEB79B
:1052C00027970FB6F894DEBF0FBECDBF8091DE0EDC
:1052D0009091DF0E2091C00E029714F1222329F045
:1052E000E090640EF090650E04C0E090660EF090C1
:1052F000670E8E010F5F1F4FC8016BE970E10E94BE
:1053000074D3C80112D99093650E8093640EC801BE
:105310000E9486D36091640E7091650EC7010AC029
:10532000222359F46091640E7091650E8091660E8F
:105330009091670E43E050E01DDF81E08093C00E46
:1053400027960FB6F894DEBF0FBECDBFCF91DF9189
:105350001F910F91FF90EF900895EF92FF920F939E
:105360001F93CF93DF93182F48EFE42E4EE0F42ED7
:10537000C70162E344EB22E30E944C99C12FD0E0C5
:10538000CE010196A1E4B0E1CC0FDD1FCC0FDD1FF3
:10539000FD01EC0FFD1F60817181CA0FDB1F4A8187
:1053A0005B81880F991F880F991FFD01E80FF91F76
:1053B00020813181A80FB91F12960D911C9113976E
:1053C000C7010E94479AC70162E344EB22E30E94AF
:1053D0006499C7016FEF4FEF2FEF0E944C99DF9157
:1053E000CF911F910F91FF90EF900895AF92BF92D0
:1053F000CF92DF92EF92FF920F931F93DF93CF93A1
:10540000CDB7DEB72E970FB6F894DEBF0FBECDBF77
:105410005C017B0180914E0E813009F054C088EF11
:105420009EE060E040E020E00E944C9940914710EF
:105430005091481060914110709142108A01085EAD
:105440001F4F88EF9EE0465F5F4F20E431E00E94EF
:10545000479A88EF9EE06FEF4FEF2FEF0E944C9935
:1054600088EF9EE060E040E020E00E9464996E01D9
:105470000894C11CD11CC601B7010E947DD3C6018E
:10548000B5010E9493D2BC0158E0E52EF12CEC0E40
:10549000FD1EC7010E9474D34091411050914210EB
:1054A0002091471030914810265F3F4F88EF9EE0D3
:1054B000B70100E010E00E9419A1C7010E9486D345
:1054C000C6010E948BD32E960FB6F894DEBF0FBE96
:1054D000CDBFCF91DF911F910F91FF90EF90DF90A3
:1054E000CF90BF90AF900895AF92BF92CF92DF92CE
:1054F000EF92FF920F931F93DF93CF93CDB7DEB759
:10550000E7970FB6F894DEBF0FBECDBF5C016B010D
:105510008A018BE297E16EE575E00E944CCE8BE24A
:1055200097E1B6010E9475CF8BE297E169E775E0DC
:105530000E9432CF87E69FE00E947873C60167E041
:1055400072E00E9445D18823F9F08E01035E1F4F5F
:10555000C80167E67FE041E00E948B73C8010E94AA
:105560003872882339F0C8010E94C171BC01C6019C
:105570000E94F8D28E01035E1F4FC8010E9445723F
:10558000C8010E94BB712DC0101611067CF47E016B
:105590000894E11CF11CC701B6010E9474D38E016E
:1055A000085F1F4FC801B7015BDA11C0012BC9F0BA
:1055B0006FE0E62EF12CEC0EFD1EC701B6010E9435
:1055C00074D38E010A5E1F4FC801B70169D9C601A5
:1055D000B8010E945FD3C8010E9486D3C7010E9410
:1055E00086D38BE297E16BE875E00E944CCE8BE2AC
:1055F00097E1B6010E9475CFC501B6010E9474D330
:10560000C501E7960FB6F894DEBF0FBECDBFCF91B0
:10561000DF911F910F91FF90EF90DF90CF90BF909F
:10562000AF900895CF92DF92EF92FF920F931F9366
:10563000DF93CF93CDB7DEB76C970FB6F894DEBF8C
:105640000FBECDBF88EF9EE060E040E020E00E940A
:105650004C994091471050914810609141107091C1
:1056600042108A01085E1F4F88EF9EE0465F5F4F41
:1056700020E431E00E94479A88EF9EE06FEF4FEF01
:105680002FEF0E944C9988EF9EE060E040E020E020
:105690000E9464998E010F5F1F4FC80162EA75E096
:1056A0000E94C6D280E69FE067E072E00E9445D18A
:1056B000882349F480E69FE060EB75E00E9445D1C5
:1056C000882309F45AC08091830F882319F1E8E0F8
:1056D000EE2EF12CEC0EFD1EC70167E072E00E9479
:1056E000C6D28E01015F1F4FC801B70141E050E0F3
:1056F000FBDE80E69FE0B8010E945FD3C8010E94F4
:1057000086D3C7010E9486D3CE01019660E67FE072
:105710000E945FD376E1E72EF12CEC0EFD1EC7014F
:105720006E010894C11CD11CB6010E9474D3409133
:105730004110509142102091471030914810265F3F
:105740003F4F88EF9EE0B70100E010E00E9419A1F2
:10575000C7010E9486D3C6010E9486D36C960FB6FD
:10576000F894DEBF0FBECDBFCF91DF911F910F9197
:10577000FF90EF90DF90CF900895C801C7CF0F93AF
:105780001F9390E0FC013197E732F10508F06BC6FA
:10579000EE58FF4FEE0FFF1F0590F491E02D199486
:1057A00080E0DBDD80914C0E869590E040914110C9
:1057B000509142104A505040480F591F20914310B9
:1057C000309144102C503040280F391F88EF9EE054
:1057D0006DEB75E000E010E00E94679F20914C0E99
:1057E000269530E040914110509142104E5050406B
:1057F000420F531F8091431090914410280F391F7E
:1058000088EF9EE061EC75E02CC680E0A6DD80911B
:105810004C0E869590E040914110509142104651B7
:105820005040480F591F20914310309144102C5084
:105830003040280F391F88EF9EE066EC75E000E0ED
:1058400010E00E94679F20914C0E269530E0409119
:1058500041105091421046505040420F531F8091CA
:10586000431090914410280F391F88EF9EE06DEC93
:1058700075E0F7C580E071DD80914C0E869590E073
:10588000409141105091421046515040480F591FCD
:1058900020914310309144102C503040280F391F74
:1058A00088EF9EE066EC75E000E010E00E94679FE4
:1058B00020914C0E269530E04091411050914210BD
:1058C0004A505040420F531F809143109091441012
:1058D000280F391F88EF9EE060ED75E0C2C580E0BB
:1058E0003CDD80914C0E869590E0409141105091A6
:1058F000421046515040480F591F2091431030919B
:1059000044102C503040280F391F88EF9EE064ED82
:1059100075E000E010E00E94679F20914C0E2695F4
:1059200030E040914110509142104E505040420F93
:10593000531F8091431090914410280F391F88EF16
:105940009EE06BED75E08DC582E007DD80914C0E29
:10595000869590E04091491050914A104E50504029
:10596000480F591F20914B1030914C10225130405C
:10597000280F391F88EF9EE061EE75E000E010E02F
:105980000E94679F80914C0E869590E0409149104F
:1059900050914A104E505040480F591F20914B10C3
:1059A00030914C1026503040280F391F88EF9EE070
:1059B00066EE75E00E94679F80914C0E869590E0A0
:1059C0004091491050914A1046505040480F591F7D
:1059D00020914B1030914C102A5F3F4F280F391FF8
:1059E00088EF9EE06BEE75E03CC584E0B6DC80910C
:1059F0004C0E869590E040915110509152104E50AF
:105A00005040480F591F2091531030915410265088
:105A10003040280F391F88EF9EE06EEE75E09AC384
:105A200084E09BDC80914C0E869590E04091511073
:105A30005091521042515040480F591F209153101D
:105A4000309154102C503040280F391F88EF9EE0C1
:105A500063EF75E000E010E00E94679F20914C0E1C
:105A6000269530E0409151105091521042515040D3
:105A7000420F531F8091531090915410280F391FDB
:105A800088EF9EE069EF75E0ECC486E066DC80910B
:105A90004C0E869590E04091591050915A10425109
:105AA0005040480F591F20915B1030915C102650D8
:105AB0003040280F391F88EF9EE06FEF75E04AC332
:105AC00086E04BDC80914C0E869590E04091591019
:105AD00050915A1046515040480F591F20915B1069
