:100000000C94210F0C94C7AA0C94F8AA0C9429AB59
:100010000C945AAB0C948BAB0C94BCAB0C94EDAB26
:100020000C941EAC0C944E0F0C944E0F0C944E0F6F
:100030000C944E0F0C944E0F0C944E0F0C944E0FCC
:100040000C944E0F0C945E720C944E0F0C944E0F49
:100050000C944E0F0C944E0F0C944E0F0C944FAC0E
:100060000C944E0F0C94A5AE0C94CDAF0C944E0F87
:100070000C944E0F0C944E0F0C944E0F0C944E0F8C
:100080000C9431720C944E0F0C944E0F0C944E0F36
:100090000C94DEAE0C940CB00C944E0F0C944E0FDE
:1000A0000C944E0F0C944E0F0C9404720C944E0F43
:1000B0000C944E0F0C944E0F0C944E0F0C94D77161
:1000C0000C944E0F0C944E0F0C944E0F0C9417AFD3
:1000D0000C944BB00C944E0F0C9450AF0C948AB00F
:1000E0000C944E0FAA273A288528CE28E728002905
:1000F00019294929A62A7C2AA3297929492D492D7C
:10010000CF29E829492DE92ABF2ACE2BBE2C942CD1
:10011000182DEE2C8C2B732B432B192B342CE92B05
:10012000642CDA270A28012A4C2A9E287341944419
:1001300076417A4194447F4187418F41BB41684376
:10014000904394449444B8431B439444E94115427A
:10015000CF43E0430A443744614443426A42B142D8
:10016000D842C943C743CB436B416F415943CD4349
:100170008E4405A84CCDB2D44EB93836A9020C50E5
:10018000B9918688083CA6AAAA2ABE000000803F32
:10019000000000006410B71DC8206E3BAC30D926AB
:1001A0009041DC76F4516B6B5861B24D3C71055057
:1001B0002083B8ED44930FF0E8A3D6D68CB361CB7F
:1001C000B0C2649BD4D2D38678E20AA01CF2BDBD33
:1001D00050424D20696D616765206D7573742062B2
:1001E00065206174206C6561737420313020706902
:1001F00078656C7320776964652E002C206D6178BA
:100200002064656E736974793A20002C2070656EE5
:100210002077696474683A200050656E7769647469
:1002200068207465737420004368616E67696E6747
:10023000206261636B20746F206C697665206D6F3E
:1002400064652E0046696C652072656D6F76656425
:100250002E0046696C6520616C7265616479206569
:1002600078697374732E00457865637574696E6779
:1002700020636F6D6D616E643A0053746F72696EC6
:100280006720636F6D6D616E643A006D6D00436849
:10029000616E6765642050656E20776964746820BC
:1002A000746F20004E657720616363656C657261D1
:1002B00074696F6E3A20004E6577206D6178207307
:1002C000706565643A200055703A2000446F776E7F
:1002D0003A2000504753504545442C0050474C4964
:1002E00046542C005047535445504D554C5449509A
:1002F0004C4945522C005047535445505350455299
:100300005245562C0050474D4D5045525245562CA3
:1003100000504753495A452C0050474E414D452CFB
:10032000002900526563616C6320706167654865F0
:100330006967687420696E20737465707320280083
:100340002900526563616C63207061676557696459
:10035000746820696E20737465707320280029000A
:10036000292C2073746570735065724D4D202800E0
:10037000526563616C63206D6D5065725374657076
:100380002028004C6F61646564206D6F746F72206B
:1003900073746570206D756C7469706C6965723A00
:1003A000004C6F61646564206D616368696E6520EF
:1003B0006E616D653A004C6F6164656420757020F4
:1003C000706F733A004C6F6164656420646F776E80
:1003D00020706F733A004C6F61646564206D6F74B8
:1003E0006F72207374657073207065722072657609
:1003F0003A004C6F61646564206D6D2070657220F9
:100400007265763A004C6F61646564206D61636863
:10041000696E65206865696768743A004C6F61644D
:100420006564206D616368696E65207769647468CE
:100430003A002069736E2774206120636F6D6D61CF
:100440006E642049207265636F676E6973652E0064
:10045000536F7272792C200029206E6F74207061A6
:10046000727365642E00436F6D6D616E64202800A9
:10047000436865636B73756D206E6F74206D617476
:1004800063686564213A004920676F742000760034
:10049000504F4C41524752415048204F4E21007C12
:1004A0003C3E5E2B3D3F2F5B5D3B2C2A225C0008CF
:1004B0000C205F00000000000000000000000000B1
:1004C0000020202020202000200000002850500084
:1004D0000000000000000000002828FC2850FC500C
:1004E000500000002078A8A0603028A8F02000006C
:1004F0000048A8B050283454480000000020505054
:1005000078A8A8906C000000404080000000000027
:100510000000000004081010101010100804000063
:10052000402010101010101020400000000020A8E3
:100530007070A8200000000000202020F82020205B
:1005400000000000000000000000000040408000AB
:1005500000000000F80000000000000000000000A3
:100560000000000040000000081010102020404053
:1005700040800000007088888888888870000000AB
:10058000002060202020202070000000007088885B
:1005900010204080F80000000070880830080888AB
:1005A00070000000001030505090781018000000CB
:1005B00000F88080F00808887000000000709080CB
:1005C000F08888887000000000F89010202020201B
:1005D0002000000000708888708888887000000003
:1005E00000708888887808487000000000000020AB
:1005F00000000000200000000000000020000000BB
:1006000020200000040810204020100804000000F2
:10061000000000F80000F800000000004020100872
:10062000040810204000000000708888102020007E
:100630002000000000708898A8A8B880780000000A
:100640000020203050507848CC00000000F048488E
:1006500070484848F00000000078888080808088DA
:100660007000000000F0484848484848F00000008A
:1006700000F8485070504048F800000000F848501A
:1006800070504040E000000000384880809C88485E
:100690003000000000CC484878484848CC000000B2
:1006A00000F8202020202020F8000000007C1010FE
:1006B0001010101090E0000000EC485060505048BE
:1006C000EC00000000E0404040404044FC000000DE
:1006D00000D8D8D8D8A8A8A8A800000000DC48688E
:1006E00068585848E8000000007088888888888822
:1006F0007000000000F0484870404040E0000000FA
:10070000007088888888E8987018000000F04848D1
:1007100070504848EC00000000788880601008881D
:10072000F000000000F8A820202020207000000029
:1007300000CC4848484848483000000000CC4848B1
:10074000505030202000000000A8A8A87050505041
:100750005000000000D8505020205050D800000019
:1007600000D85050202020207000000000F8901089
:1007700020204048F80000003820202020202020A1
:1007800020380000404040202010101008000000D9
:100790007010101010101010107000002050000089
:1007A0000000000000000000000000000000000049
:1007B0000000FC002000000000000000000000001D
:1007C00000000000304838483C00000000C04040B5
:1007D0007048484870000000000000003848404061
:1007E0003800000000180808384848483C0000005D
:1007F000000000003048784038000000001C202035
:100800007820202078000000000000003C483040A4
:100810007844380000C0404070484848EC00000070
:100820000020000060202020700000000010000068
:10083000301010101010E00000C040405C507048B4
:10084000EC00000000E0202020202020F800000024
:1008500000000000F0A8A8A8A80000000000000008
:10086000F0484848EC0000000000000030484848CC
:100870003000000000000000F04848487040E000F0
:10088000000000003848484838081C0000000000FC
:10089000D8604040E00000000000000078403008D0
:1008A00078000000000020207020202018000000A8
:1008B00000000000D84848483C000000000000004C
:1008C000EC4850302000000000000000A8A8705044
:1008D0005000000000000000D8502050D800000058
:1008E00000000000EC4850302020C0000000000054
:1008F0007810202078000000181010102010101020
:1009000010180010101010101010101010101000FF
:10091000602020201020202020600040A41800002B
:10092000000000000000001010205F000000000028
:1009300000000000000000000000000000000000B7
:1009400000000000000000000000000000000007A0
:10095000000F800F800F800F800F800700070000BE
:10096000000000070007000700000000000E380E1E
:10097000380E380E3806300000000000000000007D
:10098000000000000000000000000000000C300C1F
:10099000300C307FFE7FFE0C300C300C300C307F82
:1009A000FE7FFE0C300C300C3000000000024002D4
:1009B000400FF81FF81A401A401FF00FF8025802B3
:1009C000581FF81FF0024002400000000000000025
:1009D000000E100E300E7000E001C0038007000E04
:1009E000700C700870000000000000000000000F94
:1009F000001980198019800F000F080F9819F81836
:100A0000F018E019F00F9800000000000000000747
:100A100000070007000E00000000000000000000BA
:100A200000000000000000000000000000000000C6
:100A3000F001C0038007000E000E000E000E00073C
:100A400000038001C000F000000000000000000F63
:100A500000038001C000E0007000700070007000B2
:100A6000E001C003800F0000000000000000000152
:100A7000801188099007E007E03FFC3FFC07E00792
:100A8000E0099011880180000000000000000000D3
:100A90000000000180018001800FF00FF001800153
:100AA0008001800000000000000000000000000045
:100AB0000000000000000000000000000000000036
:100AC000000700070007000E000000000000000003
:100AD0000000000000000000001FF81FF8000000E8
:100AE0000000000000000000000000000000000006
:100AF00000000000000000000000000000000000F6
:100B000000070007000700000000000000000000D0
:100B1000020006000E001C0038007000E001C00357
:100B20008007000E001C0000000000000000000F05
:100B3000F01C381C781CF81CF81DB81DB81F381F95
:100B4000381E381C380FF0000000000000000001C3
:100B500080018003801F801F800380038003800347
:100B600080038003801FF000000000000000000FE1
:100B7000E01C701C380038007000E001C0038007E2
:100B8000000E381C381FF800000000000000000FA5
:100B9000E01C701C380038007003C003C0007000F7
:100BA000381C381C700FE00000000000000000003E
:100BB000E001E003E006E00CE018E01FF81FF80099
:100BC000E000E000E003F800000000000000001F6B
:100BD000F81C001C001C001C001FE01FF000780027
:100BE000381C381C700FE0000000000000000003FB
:100BF000E007000E001C001C001FF01FF81C381C32
:100C0000381C381C380FF000000000000000001FE6
:100C1000FC1C1C1C1C1C1C001C0038007000E0018B
:100C2000C003800380038000000000000000000F6C
:100C3000F01C381C381C381F3807E007E01CF81C73
:100C4000381C381C380FF000000000000000000FB6
:100C5000F01C381C381C381C381FF80FF8003800FE
:100C600038007000E007C000000000000000000035
:100C70000000000380038003800000000003800365
:100C80008003800000000000000000000000000061
:100C90000000000380038003800000000003800345
:100CA00080038007000000000000000000007000CA
:100CB000E001C0038007000E001C001C000E0007AE
:100CC00000038001C000E000700000000000000090
:100CD00000000000003FFC3FFC000000003FFC3F24
:100CE000FC0000000000000000000000001C000EDE
:100CF000000700038001C000E00070007000E00108
:100D0000C0038007000E001C000000000003C00F9D
:100D1000F01E7818380038007000E001C001C000F3
:100D200000000001C001C001C0000000000FF81C5D
:100D30001C1C1C1C1C1C1C1CFC1CFC1CFC1CFC1C73
:100D4000001C001C001FF007F8000000000000035A
:100D5000C007E00E701C381C381C381C381FF81CEB
:100D6000381C381C381C3800000000000000001F30
:100D7000F00E380E380E380E380FF00FF00E380E19
:100D8000380E380E381FF000000000000000000789
:100D9000F00E381C381C001C001C001C001C001C21
:100DA000001C380E3807F000000000000000001F93
:100DB000E00E700E380E380E380E380E380E380E23
:100DC000380E380E701FE000000000000000001F09
:100DD000F80E180E080E000E300FF00FF00E300E49
:100DE000000E080E181FF800000000000000001F91
:100DF000F80E180E080E000E300FF00FF00E300E29
:100E0000000E000E001F00000000000000000007A0
:100E1000F00E381C381C381C001C001C001CF81C70
:100E2000381C380E3807F800000000000000001CD5
:100E3000701C701C701C701C701FF01FF01C701C4C
:100E4000701C701C701C7000000000000000000F7F
:100E5000E00380038003800380038003800380031A
:100E600080038003800FE00000000000000000010C
:100E7000FC007000700070007000700070387038F6
:100E800070387038700FE000000000000000001E95
:100E9000380E380E700EE00FC00F800F800FC00E9E
:100EA000E00E700E381E3800000000000000001F29
:100EB000000E000E000E000E000E000E000E000EC2
:100EC000080E180E381FF800000000000000001C7B
:100ED0001C1E3C1F7C1FFC1FFC1DDC1C9C1C1C1CC6
:100EE0001C1C1C1C1C1C1C00000000000000001C22
:100EF0001C1C1C1E1C1F1C1F9C1DDC1CFC1C7C1CA9
:100F00003C1C1C1C1C1C1C000000000000000003FA
:100F1000E007F00E381C1C1C1C1C1C1C1C1C1C1C80
:100F20001C0E3807F003E000000000000000001F66
:100F3000F00E380E380E380E380FF00FF00E000E8F
:100F4000000E000E001F0000000000000000000363
:100F5000E00F780E381C1C1C1C1C1C1C1C1C7C1C50
:100F6000FC0FF80FF8003800FC0000000000001F24
:100F7000F00E380E380E380E380FF00FF00E700EDF
:100F8000380E380E381E3800000000000000000F38
:100F9000F01C381C381C381C000FE007F000381C0F
:100FA000381C381C380FF000000000000000001F43
:100FB000FC19CC11C401C001C001C001C001C001B5
:100FC000C001C001C007F000000000000000001CCC
:100FD000701C701C701C701C701C701C701C701CB1
:100FE000701C701C700FE000000000000000001C6E
:100FF000701C701C701C701C701C701C701C701C91
:10100000700EE007C0038000000000000000001C1C
:101010001C1C1C1C1C1C1C1C1C1C9C1C9C1C9C0F9D
:10102000F80FF80770077000000000000000001CB7
:10103000701C701C700EE007C00380038007C00E98
:10104000E01C701C701C7000000000000000001C00
:10105000701C701C701C701C700EE007C0038003B5
:1010600080038003800FE000000000000000001FEC
:10107000F81C381838107000E001C0038007000E1B
:10108000081C181C381FF8000000000000000007B2
:10109000F007000700070007000700070007000728
:1010A000000700070007F00000000000000000102B
:1010B0000018001C000E000700038001C000E000C3
:1010C000700038001C00070000000000000000074E
:1010D000F000700070007000700070007000700010
:1010E000700070007007F000000000000001800335
:1010F000C007E00E701C3800000000000000000077
:1011000000000000000000000000000000000000DF
:1011100000000000000000000000000000000000CF
:10112000000000000000007FFF7FFF000000001CA7
:10113000001C000700070000000000000000000085
:10114000000000000000000000000000000000009F
:10115000000000000000000FE0007000700FF01CA5
:10116000701C701C700FD800000000000000001EF2
:10117000000E000E000E000FF00E380E380E380E66
:10118000380E380E381BF000000000000000000090
:10119000000000000000000FE01C701C701C001C10
:1011A000001C701C700FE000000000000000000038
:1011B000F80070007000700FF01C701C701C701C28
:1011C000701C701C700FD8000000000000000000B0
:1011D000000000000000000FE01C701C701FF01CDD
:1011E000001C701C700FE0000000000000000003F5
:1011F000E007700770070007001FE01FE007000707
:1012000000070007001FC0000000000000000000F1
:10121000000000000000000FD81C701C701C701C27
:10122000700FF007F000701C700FE0000000001E4F
:10123000000E000E000E000EF00F380F380E380EA4
:10124000380E380E381E3800000000000000000183
:10125000C001C001C000000FC001C001C001C00139
:10126000C001C001C00FF800000000000000000035
:101270007000700070000003F000700070007000DB
:1012800070007000701C700CF007E0000000001E81
:10129000000E000E000E000E380E700EE00FC00E95
:1012A000E00E700E381E3800000000000000000F35
:1012B000C001C001C001C001C001C001C001C00126
:1012C000C001C001C00FF8000000000000000000D5
:1012D000000000000000001FF81C9C1C9C1C9C1CB3
:1012E0009C1C9C1C9C1C9C0000000000000000003A
:1012F000000000000000001FE01C701C701C701C2F
:10130000701C701C701C70000000000000000000C9
:10131000000000000000000FE01C701C701C701C1E
:10132000701C701C700FE000000000000000000046
:10133000000000000000001BF00E380E380E380EC2
:10134000380E380FF00E000E001F000000000000E5
:10135000000000000000001FB038E038E038E0383E
:10136000E038E01FE000E000E001F00000000000D5
:10137000000000000000001EF00FF80F380E000EF5
:10138000000E000E001F0000000000000000000022
:10139000000000000000000FE01C301C300F800334
:1013A000E0187018700FE00000000000000000005E
:1013B000000100030007001FF007000700070007F7
:1013C000000770077003E00000000000000000004C
:1013D000000000000000001C701C701C701C701CC1
:1013E000701C701C700FD80000000000000000008E
:1013F000000000000000001C701C701C701C701CA1
:10140000700EE007C0038000000000000000000034
:10141000000000000000001C1C1C1C1C1C1C9C1C50
:101420009C0FF8077007700000000000000000002B
:10143000000000000000001CE01CE00FC007800757
:10144000800FC01CE01CE000000000000000000055
:10145000000000000000000E380E380E380E380E66
:101460003807F003E000E001C01F8000000000002A
:10147000000000000000001FE018E011C00380071A
:10148000000E201C601FE0000000000000000001B2
:10149000F803800380038007001C001C0007000382
:1014A000800380038001F800000000000001C001FB
:1014B000C001C001C001C001C001C001C001C00124
:1014C000C001C001C001C001C00000000000001F39
:1014D0008001C001C001C000E00038003800E00118
:1014E000C001C001C01F8000000000000000001FFC
:1014F0001C3B9C39DC38F8000000000000000000B4
:1015000000000000000000000000002032300A004F
:101510000000000000000000FFFE0001FFFF0003CC
:10152000FFFF8001FFFF600CFFFEF01E0001F83F8F
:101530000001F83F0001F83F0001F83F0001F83FCB
:101540000001F83F0001F83F0001F83F0001F83FBB
:101550000001F83F0001F83F0001F83F0001F83FAB
:101560000001F83E00007838000018200000080054
:1015700000000020000000380000183E0000783F06
:101580000001F83F0001F83F0001F83F0001F83F7B
:101590000001F83F0001F83F0001F83F0001F83F6B
:1015A0000001F83F0001F83F0001F83F0001F83F5B
:1015B0000001F83F0001F81E0000F00CFFFE600182
:1015C000FFFF0003FFFF8001FFFF0000FFFE0000A0
:1015D000000000000000000000000000000000000B
:1015E000000000000000000000000000000060009B
:1015F0000000F0000001F8000001F8000001F80010
:101600000001F8000001F8000001F8000001F800F6
:101610000001F8000001F8000001F8000001F800E6
:101620000001F8000001F8000001F8000000780057
:10163000000018000000080000000000000000008A
:1016400000001800000078000001F8000001F80018
:101650000001F8000001F8000001F8000001F800A6
:101660000001F8000001F8000001F8000001F80096
:101670000001F8000001F8000001F8000001F80086
:101680000000F0000000600000000000000000000A
:10169000000000000000000000000000000000004A
:1016A0000000000000000000FFFE0001FFFF00033B
:1016B000FFFF8001FFFF6000FFFEF0000001F80067
:1016C0000001F8000001F8000001F8000001F80036
:1016D0000001F8000001F8000001F8000001F80026
:1016E0000001F8000001F8000001F8000001F80016
:1016F0000001F80000007801FFFE1803FFFF880FCB
:10170000FFFFE027FFFFC039FFFF003E0000003F62
:101710000000003F0000003F0000003F0000003FCD
:101720000000003F0000003F0000003F0000003FBD
:101730000000003F0000003F0000003F0000003FAD
:101740000000003F0000001E0000000CFFFE000132
:10175000FFFF0003FFFF8001FFFF0000FFFE00000E
:101760000000000000000000000000000000000079
:10177000FFFE0001FFFF0003FFFF8001FFFF60008D
:10178000FFFEF0000001F8000001F8000001F80081
:101790000001F8000001F8000001F8000001F80065
:1017A0000001F8000001F8000001F8000001F80055
:1017B0000001F8000001F8000001F80000007801C5
:1017C000FFFE1803FFFF880FFFFFE007FFFFC001C8
:1017D000FFFF1800000078000001F8000001F80089
:1017E0000001F8000001F8000001F8000001F80015
:1017F0000001F8000001F8000001F8000001F80005
:101800000001F8000001F8000001F8000001F800F4
:101810000000F000FFFE6001FFFF0003FFFF8001FA
:10182000FFFF0000FFFE00000000000000000000BD
:1018300000000000000000000000000000000000A8
:10184000000000000000600C0000F01E0001F83FE6
:101850000001F83F0001F83F0001F83F0001F83FA8
:101860000001F83F0001F83F0001F83F0001F83F98
:101870000001F83F0001F83F0001F83F0001F83F88
:101880000001F83E00007839FFFE1823FFFF880FA3
:10189000FFFFE007FFFFC001FFFF18000000780016
:1018A0000001F8000001F8000001F8000001F80054
:1018B0000001F8000001F8000001F8000001F80044
:1018C0000001F8000001F8000001F8000001F80034
:1018D0000001F8000001F8000000F00000006000C6
:1018E00000000000000000000000000000000000F8
:1018F00000000000000000000000000000000000E8
:10190000FFFE0001FFFF0003FFFF8001FFFF000C4F
:10191000FFFE001E0000003F0000003F0000003FEF
:101920000000003F0000003F0000003F0000003FBB
:101930000000003F0000003F0000003F0000003FAB
:101940000000003F0000003F0000003E00000039A2
:10195000FFFE0023FFFF800FFFFFE007FFFFC00136
:10196000FFFF1800000078000001F8000001F800F7
:101970000001F8000001F8000001F8000001F80083
:101980000001F8000001F8000001F8000001F80073
:101990000001F8000001F8000001F8000001F80063
:1019A0000000F000FFFE6001FFFF0003FFFF800169
:1019B000FFFF0000FFFE000000000000000000002C
:1019C0000000000000000000FFFE0001FFFF000318
:1019D000FFFF8001FFFF000CFFFE001E0000003F24
:1019E0000000003F0000003F0000003F0000003FFB
:1019F0000000003F0000003F0000003F0000003FEB
:101A00000000003F0000003F0000003F0000003FDA
:101A10000000003E00000039FFFE0023FFFF800FA2
:101A2000FFFFE027FFFFC039FFFF183E0000783FAF
:101A30000001F83F0001F83F0001F83F0001F83FC6
:101A40000001F83F0001F83F0001F83F0001F83FB6
:101A50000001F83F0001F83F0001F83F0001F83FA6
:101A60000001F83F0001F81E0000F00CFFFE6001CD
:101A7000FFFF0003FFFF8001FFFF0000FFFE0000EB
:101A80000000000000000000000000000000000056
:101A9000FFFE0001FFFF0003FFFF8001FFFF60006A
:101AA000FFFEF0000001F8000001F8000001F8005E
:101AB0000001F8000001F8000001F8000001F80042
:101AC0000001F8000001F8000001F8000001F80032
:101AD0000001F8000001F8000001F80000007800A3
:101AE00000001800000008000000000000000000D6
:101AF00000001800000078000001F8000001F80064
:101B00000001F8000001F8000001F8000001F800F1
:101B10000001F8000001F8000001F8000001F800E1
:101B20000001F8000001F8000001F8000001F800D1
:101B30000000F00000006000000000000000000055
:101B40000000000000000000000000000000000095
:101B50000000000000000000FFFE0001FFFF000386
:101B6000FFFF8001FFFF600CFFFEF01E0001F83F49
:101B70000001F83F0001F83F0001F83F0001F83F85
:101B80000001F83F0001F83F0001F83F0001F83F75
:101B90000001F83F0001F83F0001F83F0001F83F65
:101BA0000001F83E00007839FFFE1823FFFF880F80
:101BB000FFFFE027FFFFC039FFFF183E0000783F1E
:101BC0000001F83F0001F83F0001F83F0001F83F35
:101BD0000001F83F0001F83F0001F83F0001F83F25
:101BE0000001F83F0001F83F0001F83F0001F83F15
:101BF0000001F83F0001F81E0000F00CFFFE60013C
:101C0000FFFF0003FFFF8001FFFF0000FFFE000059
:101C100000000000000000000000000000000000C4
:101C2000FFFE0001FFFF0003FFFF8001FFFF600CCC
:101C3000FFFEF01E0001F83F0001F83F0001F83FF1
:101C40000001F83F0001F83F0001F83F0001F83FB4
:101C50000001F83F0001F83F0001F83F0001F83FA4
:101C60000001F83F0001F83F0001F83E000078391C
:101C7000FFFE1823FFFF880FFFFFE007FFFFC001F3
:101C8000FFFF1800000078000001F8000001F800D4
:101C90000001F8000001F8000001F8000001F80060
:101CA0000001F8000001F8000001F8000001F80050
:101CB0000001F8000001F8000001F8000001F80040
:101CC0000000F000FFFE6001FFFF0003FFFF800146
:101CD000FFFF0000FFFE0000000000000000000009
:101CE000002100240027002A002D003000330001CD
:101CF000010000040107010A01000022002500285C
:101D0000002B002E00310034000201000005010804
:101D1000010B01000020002300260029002C002FC9
:101D2000003200000100000301060109010505055C
:101D300005070508080808020202020A0A08080442
:101D40000404040101010101010101030303030370
:101D5000030303040707070C0C0C0C0C0C0C0C02FF
:101D600002020206060606060606060B0B0B0B0B06
:101D70000B0B0B01021020200808102040102040FF
:101D8000800201020108040201010204081020403F
:101D9000808040201008040201800402018040205D
:101DA0001008040201080402010102040810204086
:101DB0008001020408102040800000090A02080B7C
:101DC0000C0D0706030401000000000000000000E5
:101DD0000000000000000000000000000000000003
:101DE000000000000011100F0000000000000000C3
:101DF000000000000000000000000000000000499A
:101E00004E46494E4954594E414ECDCCCC3D0AD751
:101E1000233C17B7D13877CC2B329595E6241FB1E8
:101E20004F0A000020410000C84200401C4620BC70
:101E3000BE4CCA1B0E5AAEC59D74F1193474F4B170
:101E4000EC1911241FBECFEFD1E2DEBFCDBF00E001
:101E50000CBF1FE0A0E0B2E0E4E6FBE701E00BBF4F
:101E600002C007900D92A83CB107D9F71BBE18E13C
:101E7000A8ECBFE001C01D92AE3BB107E1F71EE147
:101E8000C0E4DEE104C02297FE010E9460BDCA33B7
:101E9000D107C9F70E9412B30C94A6BD0C940000A0
:101EA000CF93DF93BC018230910510F462E070E0C3
:101EB000A091BA18B091BB18ED01E0E0F0E040E06D
:101EC00050E021C0888199818617970769F48A813B
:101ED0009B81309719F09383828304C09093BB1841
:101EE0008093BA18FE0134C06817790738F4411599
:101EF000510519F08417950708F4AC01FE018A8199
:101F00009B819C01E9012097E9F641155105A9F152
:101F1000CA01861B970B049708F4BA01E0E0F0E0D1
:101F20002AC08D919C91119784179507F9F4641735
:101F3000750781F412968D919C911397309719F043
:101F40009383828304C09093BB188093BA18FD01D9
:101F500032964CC0CA01861B970BFD01E80FF91F92
:101F60006193719302978D939C9340C0FD01828190
:101F700093819C01D9011097A1F68091B818909196
:101F8000B918892B41F480910C0F90910D0F90930B
:101F9000B9188093B81840910E0F50910F0F41154A
:101FA000510541F44DB75EB780910A0F90910B0F28
:101FB000481B590B2091B8183091B918CA01821BDF
:101FC000930B8617970780F0AB014E5F5F4F841726
:101FD000950750F0420F531F5093B9184093B8180B
:101FE000F9016193719302C0E0E0F0E0CF01DF916D
:101FF000CF910895CF93DF93009709F450C0EC017F
:1020000022971B821A82A091BA18B091BB18109720
:1020100009F140E050E0AC17BD0708F1BB83AA838B
:10202000FE0121913191E20FF31FAE17BF0779F442
:102030008D919C911197280F391F2E5F3F4F398347
:10204000288312968D919C9113979B838A834115C7
:10205000510571F4D093BB18C093BA1820C01296E2
:102060008D919C911397AD01009711F0DC01D3CFB6
:10207000FA01D383C28321913191E20FF31FCE176E
:10208000DF0769F488819981280F391F2E5F3F4F40
:10209000FA01318320838A819B8193838283DF913C
:1020A000CF910895A0E0B0E0E8E5F0E10C9477BDB1
:1020B000EC01A880B980CA80DB80A114B104C104FE
:1020C000D10441F484E2A82E89EDB82E8BE5C82E08
:1020D00087E0D82EC601B5012DE133EF41E050E095
:1020E0000E9443BD27EA31E440E050E00E94CFBCAB
:1020F0007B018C01C601B5012DE133EF41E050E0D9
:102100000E9443BDCA01B9012CEE34EF4FEF5FEFDF
:102110000E94CFBC6E0D7F1D801F911F97FF04C0D2
:102120006150704080409048688379838A839B83A4
:102130009B01AC015F77B901CA01CDB7DEB7EAE018
:102140000C9493BDAFCF80E19FE0ACCF6093100FB4
:102150007093110F8093120F9093130F0895A0E0C6
:10216000B0E0E5EBF0E10C9471BD6C01009721F457
:10217000CB0196DE6C01BDC08EEF882E8FEF982EBE
:102180008C0C9D1C8601060F171F0815190508F4F5
:10219000AEC0F401A081B181A617B707B0F0A53099
:1021A000B10508F4A6C0CD0104978617970708F477
:1021B000A0C01297A61BB70BF801A193B193D4014D
:1021C0006D937C93CF0116DF94C07B01EA1AFB0A62
:1021D000EEEFFFEFEE0EFF1E36016A0E7B1EC09182
:1021E000BA18D091BB1844245524AA24BB244AC051
:1021F000C615D705E1F5488159814E155F05B8F13F
:10220000CA0104978E159F05B0F41296A40FB51F4E
:10221000F401B183A0832A813B814114510431F040
:10222000D20113963C932E93129763C03093BB1840
:102230002093BA185EC08A819B81F80193838283C0
:10224000425050404E195F0951834083411451045C
:1022500031F0D20113961C930E93129704C0109381
:10226000BB180093BA18F4017183608342C088815F
:102270009981A816B90608F45C012E018A819B8118
:102280009C01E901209709F0B3CF8091B818909193
:10229000B91886159705E9F4A616B706D0F420916B
:1022A0000E0F30910F0F2115310541F42DB73EB7B8
:1022B00080910A0F90910B0F281B390B02171307FF
:1022C000B0F41093B9180093B818D4016D937C93AF
:1022D00010C0CB01E5DDEC01009749F0F40140812D
:1022E0005181B6015FD0C60185DE6E0102C0CC24EB
:1022F000DD24C601CDB7DEB7E0E10C948DBD6627C5
:102300007727C8C0FC0188279927E89421912032BB
:10231000E9F3293010F02E30C8F32B3239F02D328A
:1023200031F4689403C0AED0820F911D21912053E7
:102330002A30C8F31EF4909581959F4F08951F93FE
:10234000FC0199278827BC01E89411911032E9F328
:10235000193010F01E30C8F31B3249F01D3241F421
:10236000689405C07AD0610F711D811D911D119176
:1023700010531A30B8F33EF490958095709561959E
:102380007F4F8F4F9F4F1F910895FB01DC0104C0C9
:102390008D910190801921F441505040C8F7881B5D
:1023A000990B0895FB01DC0102C001900D92415090
:1023B0005040D8F70895FC018191861721F08823B9
:1023C000D9F7992708953197CF010895FB01DC01D2
:1023D0008D91019080190110D9F3990B0895FB019B
:1023E000DC0101900D920020E1F70895FB01DC0172
:1023F0004150504030F08D910190801919F4002027
:10240000B9F7881B990B0895FB01DC01415050403E
:1024100048F001900D920020C9F701C01D92415073
:102420005040E0F70895FB0151915523A9F0BF01F9
:10243000DC014D9145174111E1F759F4CD010190AF
:10244000002049F04D9140154111C9F3FB014111A4
:10245000EFCF81E090E001970895592F482F372F53
:10246000262F660F771F881F991F660F771F881FFB
:10247000991F620F731F841F951F660F771F881F98
:10248000991F08957AE0979F902D879F802D910D39
:1024900011240895A0E0B0E0E0E5F2E10C9475BDF0
:1024A000EC015B016115710519F0FB0191838083DB
:1024B000F9908F2D90E00E9464BD892BC9F7FDE251
:1024C000FF1621F4F990EE24E39405C02BE2F216F6
:1024D00009F4F990EE248E0101501040C8016FEF0D
:1024E0007DE143E050E033D1892BF9F48E010E5F9A
:1024F0001F4FC80162E07EE145E050E028D1892B02
:1025000019F48E01095F1F4FA114B10419F0F501F0
:1025100011830083E0FC04C070E090E080E813C009
:1025200070E090E080E86FEF07C1C80167E07EE1EE
:1025300043E050E00CD1892B69F4A114B10429F4D3
:1025400070E090E080EC6FE7F7C02296F501D18350
:10255000C083F6CF8824992440E050E060E070E02A
:10256000EF2DE053EA30A0F5F2E0EF2A8E2D90E057
:102570009C0128703070E2FE06C0232B79F5089488
:10258000811C911C2BC0232B19F008948108910801
:10259000DB01CA0112E0880F991FAA1FBB1F1A9501
:1025A000D1F7480F591F6A1F7B1F440F551F661F25
:1025B000771F4E0F511D611D711D483929E95207C2
:1025C00029E9620729E1720748F084E0E82A06C099
:1025D000EE3F31F4E3FC39C098E0E92AF990C0CF2E
:1025E000E53311F0E53189F529912D3219F4E0E157
:1025F000EE2A05C02B3219F081E090E003C029914A
:1026000082E090E0E22FE053EA3018F0C81BD90BCB
:102610001CC020E030E0FCE020383F075CF4C9013A
:10262000880F991F880F991F280F391F220F331FFA
:102630002E0F311DE991E053EA3068F3E4FE03C048
:10264000309521953F4F820E931ECE2CDD24E1FE66
:1026500007C0A114B10421F02197F501D183C083F3
:10266000CB01BA010E94D3BA7B018C01F3E0CF22E7
:10267000DD2423E0C216D10421F417FB109517F9CD
:10268000109557016801C801B70120E030E040E033
:1026900050E00E9433BA882309F44AC097FE0DC067
:1026A0002EE1E22E2EE1F22E9094819491089394E3
:1026B000C0E2D0E000E010E012C096E3E92E9EE117
:1026C000F92EF6CFF7012591359145915491C60128
:1026D000B5010E94CBBB5B016C018C1A9D0A8C1664
:1026E0009D0684F7D595C7950F5F1F4F06301105DE
:1026F00029F08CEF9FEFE80EF91EF1CFC501D6014E
:102700007C018D018C2D880F8D2D881F8F3F51F0FE
:10271000C601B50120E030E040E050E00E9433BA4D
:10272000882331F482E290E09093BD188093BC1826
:102730007E2D9F2D802F612F272F392F482F562F29
:10274000B901CA01CDB7DEB7ECE00C9491BDFB0135
:10275000DC014150504088F08D9181341CF08B3564
:102760000CF4805E659161341CF06B350CF4605E96
:10277000861B611171F3990B0895881BFCCF982F6C
:102780008091630F813049F59430B9F0953030F481
:10279000913059F0923009F0AAC0AAC09530A9F042
:1027A000963009F0A4C083E208958091E410882354
:1027B00011F480E2089581E208958091260F882324
:1027C00011F485E0089584E008958091CC0F88236A
:1027D00011F487E0089588E008958091630F8630B2
:1027E000C9F4943009F486C0953030F4923061F029
:1027F000933009F07CC00AC0953021F0963009F082
:1028000076C006C089E008958AE0089583E10895BE
:1028100082E108958091630F8430C9F4943009F403
:1028200069C0953030F4923061F0933009F05FC0A8
:102830000AC0953021F0963009F059C006C08BE1EE
:1028400008958CE108958AE1089589E108958091C1
:10285000630F8530C1F4943009F44CC0953030F4E6
:10286000923059F0933009F042C009C0953019F008
:102870009630E9F506C085E1089586E1089588E17E
:10288000089587E108958091630F8330D1F49430E7
:1028900051F0953018F4923051F507C0953039F069
:1028A000963029F506C08FE008958CE008958BE0FE
:1028B00008958091E310882311F480E1089582E265
:1028C00008958091630F873091F4933051F09430E4
:1028D00018F4923061F407C0943061F0953039F407
:1028E00004C08EE108958FE108958DE10895089563
:1028F00082E0089584E10895AF92BF92CF92DF9273
:10290000EF92FF920F931F936E157F05800791073B
:1029100034F42E153F054007510764F42CC0E61629
:10292000F7060807190794F4A216B306C406D506DD
:102930003CF423C0A216B306C406D506BCF41FC0DF
:102940002A153B054C055D05C4F41BC06E157F05BB
:102950008007910791F42A153B054C055D058CF025
:10296000A216B306C406D50644F409C02A153B05D1
:102970004C055D0511F484E005C082E003C083E0EE
:1029800001C081E01F910F91FF90EF90DF90CF90F9
:10299000BF90AF900895EF92FF920F931F937B012A
:1029A0008C01662757FD6095762FCB01BA010E94F6
:1029B000D5BA2091D40F3091D50F4091D60F5091B8
:1029C000D70F0E94CBBBA80197010E943ABA7B01A6
:1029D0008C0120E030E040E050E40E94C7BB87FF5C
:1029E00003C061E070E004C0C801B7010E94A2BA50
:1029F000CB011F910F91FF90EF9008956F927F92FE
:102A00008F929F92AF92BF92CF92DF92EF92FF92FE
:102A10000F931F93CF93DF937C015B01662757FDD4
:102A20006095762FCB01BA010E94D5BA3B014C01CB
:102A30000027F7FC0095102FC801B7010E94D5BAF6
:102A40007B018C01CC24B7FCC094DC2CC601B50101
:102A50000E94D5BA9B01AC01C801B7010E943ABAE5
:102A6000A40193010E94CBBB9B01AC01C401B30143
:102A70000E94CEB97B018C010E94A2BAEB01BE017B
:102A8000882777FD8095982F0E94D5BA9B01AC01CD
:102A9000C801B7010E94CEB920E030E040E05FE31A
:102AA0000E94C7BB18160CF42196CE01DF91CF917E
:102AB0001F910F91FF90EF90DF90CF90BF90AF905C
:102AC0009F908F907F906F900895CF92DF92EF92BA
:102AD000FF920F931F93CF93DF93EC016B016881FB
:102AE00079818A819B812091680F3091690F409193
:102AF0006A0F50916B0F0E94CBBB688379838A83E6
:102B00009B83F601608171818281938120916C0F9A
:102B100030916D0F40916E0F50916F0F0E94CBBBA3
:102B20007B018C01F6016083718382839383209102
:102B30000E1330910F13C9018E978A35910580F4D9
:102B4000288139814A815B81D801C701B0588883C7
:102B50009983AA83BB83208331834283538329C013
:102B6000C901885890408A35910580F488819981FF
:102B7000AA81BB81B05888839983AA83BB83F6015D
:102B800080819181A281B381B0580FC0225E304014
:102B90002A35310570F488819981AA81BB81E88248
:102BA000F9820A831B83B058F60180839183A28344
:102BB000B383688179818A819B8120911013309140
:102BC000111340911213509113130E94CFB96883CF
:102BD00079838A839B83F6016081718182819381ED
:102BE000209114133091151340911613509117131F
:102BF0000E94CFB9F6016083718382839383DF9152
:102C0000CF911F910F91FF90EF90DF90CF9008959B
:102C10002F923F924F925F926F927F928F929F92EC
:102C2000AF92BF92CF92DF92EF92FF920F931F93DA
:102C30001B012C0139014A01E090DC0FF090DD0FFF
:102C40000091DE0F1091DF0FC801B701A8019701B5
:102C50000E94CFBC0E94D5BA5B016C01C401B301D4
:102C6000A40193010E94CBBB9B01AC01C601B5013D
:102C70000E94CEB95B016C01C201B101A2019101B8
:102C80000E94CBBB9B01AC01C601B5010E94CFB92C
:102C90005B016C01EE0CFF1C001F111FC801B70186
:102CA0000E94D5BA9B01AC01C601B5010E943ABA97
:102CB0001F910F91FF90EF90DF90CF90BF90AF905A
:102CC0009F908F907F906F905F904F903F902F904C
:102CD00008950F931F93CF93DF93242F2627A22FBE
:102CE000B0E0AF70B070AA0FBB1FAA0FBB1FC0E946
:102CF000D1E0AC0FBD1FFD010591159125913491D7
:102D0000E4E09695879577956795EA95D1F706273C
:102D100017272827392742954F70402750E04F70DA
:102D20005070440F551F440F551F4C0F5D1FFA0183
:102D300085919591A591B49144E036952795179585
:102D400007954A95D1F7082719272A273B27B80165
:102D5000C901DF91CF911F910F910895CF92DF921A
:102D6000EF92FF920F931F938130910509F032C2C9
:102D70006F5F7F4F09F029C386E891E160E072E060
:102D80000E9404B989EC9FE00E94736F8DEC9FE074
:102D900065E072E00E9404B98DE891E166E072E0BE
:102DA0000E9404B960911A0F70911B0F882777FD5C
:102DB0008095982F2091140F3091150F442737FDDF
:102DC0004095542F0E94CFBC0E94D5BA7B018C0144
:102DD0006091160F7091170F8091180F9091190F35
:102DE000A80197010E943ABA6093D40F7093D50F4F
:102DF0008093D60F9093D70FC801B7012091160F7B
:102E00003091170F4091180F5091190F0E943ABA44
:102E10007B018C016093D80F7093D90F8093DA0FE8
:102E20009093DB0F6091640F7091650F882777FD99
:102E30008095982F0E94D5BAA80197010E94CBBB1C
:102E40000E94A2BA6093DC0F7093DD0F8093DE0FB7
:102E50009093DF0F6091660F7091670F882777FD61
:102E60008095982F0E94D5BAA80197010E94CBBBEC
:102E70000E94A2BA6093E00F7093E10F8093E20F7B
:102E80009093E30F84E991E16FE072E00E9404B94E
:102E90008BE991E161E172E00E9404B982EA91E17B
:102EA00065E172E00E9404B989EA91E16DE172E0A6
:102EB0000E9404B980EB91E160E572E00E9404B9E0
:102EC00087EB91E160E572E00E9404B98EEB91E13D
:102ED00060E572E00E9404B985EC91E160E572E082
:102EE0000E9404B98CEC91E16FE572E00E9404B994
:102EF00083ED91E169E672E00E9404B98AED91E107
:102F000060E772E00E9404B981EE91E168E772E047
:102F10000E9404B988EE91E163E872E00E9404B96E
:102F20008FEE91E16CEC71E10E94B2B984EF9FE009
:102F300065E072E00E9404B986EF91E169E872E011
:102F40000E9404B98DEF91E16BE872E00E9404B930
:102F500084E092E160E972E00E9404B98BE092E1C2
:102F600064E972E00E9404B982E192E168E972E0EA
:102F70000E9404B989E192E16CE972E00E9404B90F
:102F800080E292E160EA72E00E9404B987E292E195
:102F900064EA72E00E9404B98EE292E168EA72E0AB
:102FA0000E9404B985E392E16CEA72E00E9404B9E0
:102FB0008CE392E160EB72E00E9404B983E492E159
:102FC00064EB72E00E9404B98AE492E168EB72E07B
:102FD0000E9404B981E592E16CEB72E00E9404B9B1
:102FE00088E592E160EC72E00E9404B98FE592E11D
:102FF00064EC72E00E9404B986E692E168EC72E04B
:103000000E9404B98DE692E16CEC72E00E9404B972
:1030100084E792E160ED72E00E9404B98BE792E1EF
:1030200064ED72E00E9404B982E892E168ED72E01A
:103030000E9404B989E892E16CED72E00E9404B943
:1030400080E992E160EE72E00E9404B987E992E1C2
:1030500064EE72E00E9404B98EE992E168EE72E0DB
:103060000E9404B985EA92E16CEE72E00E9404B914
:103070008CEA92E160EF72E00E9404B983EB92E186
:1030800064EF72E00E9404B98AEB92E168EF72E0AB
:103090000E9404B981EC92E16CEF72E00E9404B9E5
:1030A00088EC92E160E073E00E9404B98FEC92E159
:1030B00064E073E00E9404B986ED92E168E073E099
:1030C0000E9404B98DED92E16CE073E00E9404B9B6
:1030D00084EE92E160E173E00E9404B98BEE92E12C
:1030E00064E173E00E9404B982EF92E168E173E069
:1030F0000E9404B989EF92E16CE173E00E9404B987
:1031000080E093E160E273E00E9404B987E093E11C
:1031100064E273E00E9404B984E090E166E046E274
:1031200050E027E230E008E210E079E2E72EF12CEF
:10313000CC24DD240E9480A58EE290E16BE04CE07F
:1031400022E103E1B2E0EB2E0E941DA780E690E1B0
:1031500065E072E00E9404B98AE690E165E072E001
:103160000E9404B9109276101092771010927A1083
:1031700010927C1082E090E0A0E0B0E080937D109F
:1031800090937E10A0937F10B093801010929410B3
:1031900010929E1010929D1083EB9FE090939C10D4
:1031A00080939B101092A01088EB90E10E949E7279
:1031B00086EE90E161E044E025E004E0A5E0EA2E3F
:1031C0000E94AB6D8AE291E161E047E028E00E9455
:1031D000AB6DFBC0892B09F0F8C06F5F7F4F09F022
:1031E000F4C088EB90E10E94B1728AE690E10E94FF
:1031F000C4B980E690E10E94C4B987E093E10E94DF
:10320000C4B980E093E10E94C4B989EF92E10E94C1
:10321000C4B982EF92E10E94C4B98BEE92E10E94A0
:10322000C4B984EE92E10E94C4B98DED92E10E948E
:10323000C4B986ED92E10E94C4B98FEC92E10E947C
:10324000C4B988EC92E10E94C4B981EC92E10E9479
:10325000C4B98AEB92E10E94C4B983EB92E10E9467
:10326000C4B98CEA92E10E94C4B985EA92E10E9455
:10327000C4B98EE992E10E94C4B987E992E10E9443
:10328000C4B980E992E10E94C4B989E892E10E9440
:10329000C4B982E892E10E94C4B98BE792E10E942E
:1032A000C4B984E792E10E94C4B98DE692E10E941C
:1032B000C4B986E692E10E94C4B98FE592E10E940A
:1032C000C4B988E592E10E94C4B981E592E10E9407
:1032D000C4B98AE492E10E94C4B983E492E10E94F5
:1032E000C4B98CE392E10E94C4B985E392E10E94E3
:1032F000C4B98EE292E10E94C4B987E292E10E94D1
:10330000C4B980E292E10E94C4B989E192E10E94CD
:10331000C4B982E192E10E94C4B98BE092E10E94BB
:10332000C4B984E092E10E94C4B98DEF91E10E949A
:10333000C4B986EF91E10E94C4B984EF9FE00E9476
:10334000C4B98FEE91E10E94C4B988EE91E10E9468
:10335000C4B981EE91E10E94C4B98AED91E10E9465
:10336000C4B983ED91E10E94C4B98CEC91E10E9453
:10337000C4B985EC91E10E94C4B98EEB91E10E9441
:10338000C4B987EB91E10E94C4B980EB91E10E943E
:10339000C4B989EA91E10E94C4B982EA91E10E942C
:1033A000C4B98BE991E10E94C4B984E991E10E941A
:1033B000C4B98DE891E10E94C4B98DEC9FE00E94F0
:1033C000C4B986E891E10E94C4B91F910F91FF90A2
:1033D000EF90DF90CF90089580E090E06FEF7FEF67
:1033E000BDCC81E090E06FEF7FEFB8CCCF92DF9261
:1033F000EF92FF920F931F93CF93DF936C01EE2414
:10340000EA94FE2C8701C0E0D0E00BC0C601BE01EB
:103410000E9464B6482FC801B7015BDC7B018C01B8
:103420002196F60184819581C817D90778F3A80100
:1034300097012095309540955095B901CA01DF91CB
:10344000CF911F910F91FF90EF90DF90CF90089553
:103450000F931F9384E090E00E94500F8C010E9414
:10346000FA0F2DB73EB7201B310BC9011F910F91E9
:103470000895EEDF9C018091E80F9091E90F2817E5
:103480003907D1F03093E90F2093E80F8BE398E1EF
:1034900062EA71E10E949BB56091E80F7091E90FBB
:1034A0008BE398E14AE050E00E94B8B48BE398E1E6
:1034B0006DEF71E10C94CDB508958BE398E163ED68
:1034C00071E10C94CDB58BE398E16CEC71E10C9457
:1034D000CDB5AF92BF92CF92DF92EF92FF920F9352
:1034E0001F937B018C01CA01B9010E94CBBB5B0118
:1034F0006C01C801B701A80197010E94CBBB9B01D9
:10350000AC01C601B5010E94CEB90E9438BC1F9122
:103510000F91FF90EF90DF90CF90BF90AF90089504
:103520006F927F928F929F92AF92BF92CF92DF92D3
:10353000EF92FF920F931F937B018C0169DB5B017C
:103540006C01A8019701C5DF3B014C01E090360FEB
:10355000F090370F0091380F1091390FC801B70163
:103560000E94D5BA9B01AC01C601B5010E9433BAD5
:1035700087FD4AC080913E0F90913F0FA091400F70
:10358000B091410FE80EF91E0A1F1B1FC801B701B9
:103590000E94D5BA9B01AC01C601B5010E94C7BB10
:1035A000181694F1E0903A0FF0903B0F00913C0F09
:1035B00010913D0FC801B7010E94D5BA9B01AC0123
:1035C000C401B3010E9433BA87FD1EC0DD2480917F
:1035D000420F9091430FA091440FB091450FE80E18
:1035E000F91E0A1F1B1FC801B7010E94D5BA9B0113
:1035F000AC01C401B3010E94C7BB181614F4DD244A
:10360000D39481E0D82601C0DD248D2D1F910F9128
:10361000FF90EF90DF90CF90BF90AF909F908F90F2
:103620007F906F900895AF92BF92CF92DF92EF920A
:10363000FF920F931F937B018C0159016A016091E6
:10364000DC0F7091DD0F8091DE0F9091DF0F0E94F3
:10365000D5BAA80197010E94CEB99B01AC010E9486
:10366000CBBB7B018C01C601B501A60195010E946F
:10367000CBBB9B01AC01C801B7010E94CFB90E942E
:1036800038BC1F910F91FF90EF90DF90CF90BF90CB
:10369000AF900895AF92BF92CF92DF92EF92FF92D8
:1036A0000F931F937B018C0159016A01A8019701B7
:1036B0000E94CBBB7B018C01C601B501A60195011F
:1036C0000E94CBBB9B01AC01C801B7010E94CFB9DE
:1036D0000E9438BC1F910F91FF90EF90DF90CF9028
:1036E000BF90AF9008952F923F924F925F926F924A
:1036F0007F928F929F92AF92BF92CF92DF92EF9282
:10370000FF920F931F93DF93CF9300D00F92CDB70B
:10371000DEB769837A838B839C8359016A01170121
:103720002801611571058105910559F40F2EF0E00E
:10373000EF2EF0E0FF2EF0E00F2FF0E01F2FF02D26
:10374000A4C0CA01B9010E94CBBB7B018C01C60198
:10375000B50120E030E040E050E00E9433BA882319
:1037600024F417FB109517F91095C201B101A201BD
:1037700091010E94CFB93B014C01C801B701A401DE
:1037800093010E943ABA7B018C0169817A818B8115
:103790009C810E94D5BA9B01AC01C801B7010E946F
:1037A00033BA8823B4F5C601B50120E030E040E02B
:1037B00050E00E9433BA882329F4C401B3010E9467
:1037C00038BC0DC0C201B101A60195010E943ABAF0
:1037D0009B01AC015F77C601B5010E94CFB97B01A7
:1037E0008C01D0901C0FC0901D0FB0901E0FA090A8
:1037F0001F0F2D2D3C2D4B2D5A2D0E94C7BB181687
:103800000CF043C08D2D9C2DAB2DBA2D7C018D016C
:103810003CC0C601B50120E030E040E050E00E942D
:1038200033BA882359F4C401B3010E9438BC7B0128
:103830008C0117FB109517F910950FC0C201B1014B
:10384000A60195010E943ABA9B01AC015F77C601BF
:10385000B5010E94CEB97B018C0180911C0F909123
:103860001D0FA0911E0FB0911F0F5C016D01D7FAC3
:10387000D094D7F8D094C801B701A60195010E9451
:1038800033BA882314F486017501B701C8010F907B
:103890000F900F900F90CF91DF911F910F91FF909C
:1038A000EF90DF90CF90BF90AF909F908F907F90E0
:1038B0006F905F904F903F902F9008958091250FCB
:1038C0008823F1F18BE398E168EE71E10E949BB5EA
:1038D00086EE90E10E94F66820911A0F30911B0F3E
:1038E000442737FD4095542F0E9443BD8BE398E158
:1038F000BA01A9012AE030E00E9468B48BE398E1A4
:1039000066EF71E10E949BB58AE291E10E94F66840
:1039100020911A0F30911B0F442737FD4095542FEB
:103920000E9443BD8BE398E1BA01A9012AE030E08F
:103930000E9468B48BE398E16DEF71E10C94CDB512
:103940000895EF92FF920F931F938091E40F90914F
:10395000E50FA091E60FB091E70F0097A105B10523
:1039600009F03FC06091DC0F7091DD0F8091DE0F98
:103970009091DF0F0E94D5BA7B018C016091E00F1E
:103980007091E10F8091E20F9091E30F0E94D5BA00
:103990009B01AC01C801B7017DDE20E030E040E0D2
:1039A0005FE30E94CFB90E94A2BA6093E40F7093C4
:1039B000E50F8093E60F9093E70F8BE398E168E2C1
:1039C00073E00E94E7B44091E40F5091E50F6091DD
:1039D000E60F7091E70F8BE398E12AE030E00E9458
:1039E000A6B46091E40F7091E50F8091E60F90917D
:1039F000E70F1F910F91FF90EF9008958BE398E1EF
:103A00006FE373E00C948AB58BE398E168E272E0AF
:103A10000E9494B31092691008958F929F92AF9272
:103A2000BF92CF92DF92EF92FF920F931F936C01A0
:103A30007B018BE398E166E573E00E94E7B48BE3DA
:103A400098E1B6014AE050E00E94B8B48BE398E1F7
:103A50006FE573E00E94E7B48BE398E1B7014AE0B9
:103A600050E00E94CAB48BE398E164E673E00E94E0
:103A7000E7B46091DD107091DE108BE398E14AE0CD
:103A800050E00E94CAB48BE398E164E773E00E94BF
:103A9000E7B44091D3105091D4106091D51070913B
:103AA000D6108BE398E12AE030E00E94A6B44601EC
:103AB000AA2497FCA094BA2C8091DD109091DE107E
:103AC000AA2797FDA095BA2F880E991EAA1EBB1E85
:103AD0000027F7FC0095102F2091D3103091D410BF
:103AE0004091D5105091D610C801B7010E94CFBCAB
:103AF000860E971EA81EB91E8BE398E16EE773E051
:103B00000E94E7B48BE398E1B501A4012AE030E01C
:103B10000E9468B48091DF109091E010A091E110B4
:103B2000B091E21088159905AA05BB0514F41FEFA2
:103B300018C088EB90E1B501A4010E94387388EBAE
:103B400090E10E944873182F8BE398E167E873E0D7
:103B50000E94E7B48BE398E1612F4AE050E00E94B5
:103B60004CB4812F1F910F91FF90EF90DF90CF9079
:103B7000BF90AF909F908F9008950F931F93CF9316
:103B8000DF93EC018B018BE398E166E973E00E941F
:103B9000E7B48BE398E1BE014AE050E00E94B8B47C
:103BA0008BE398E169E973E00E94E7B48BE398E165
:103BB000B8014AE050E00E94CAB480916E1190E0D2
:103BC000C817D9079CF08091701190E08C179D0761
:103BD0006CF080916F1190E0081719073CF080910C
:103BE000711190E0801791070CF083C080917211E1
:103BF00090E0C817D907A4F08091741190E08C1759
:103C00009D0774F08091731190E00817190744F034
:103C10008091711190E08017910714F082E06AC0E2
:103C20008091761190E0C817D907A4F0809178119F
:103C300090E08C179D0774F08091771190E0081741
:103C4000190744F08091791190E08017910714F0E2
:103C500083E050C080917A1190E0C817D907A4F092
:103C600080917C1190E08C179D0774F080917B11FE
:103C700090E00817190744F080917D1190E08017BB
:103C8000910714F084E036C080917E1190E0C8174F
:103C9000D907A4F08091801190E08C179D0774F0F3
:103CA00080917F1190E00817190744F080918111ED
:103CB00090E08017910714F085E01CC0809182117C
:103CC00090E0C817D907A4F08091841190E08C1778
:103CD0009D0774F08091831190E00817190744F054
:103CE0008091851190E08017910714F086E002C062
:103CF00001C081E0DF91CF911F910F9108956F92E4
:103D00007F928F929F92AF92BF92CF92DF92EF926B
:103D1000FF920F931F93DF93CF93CDB7DEB7A39797
:103D20000FB6F894DEBF0FBECDBF6DB67EB688EB82
:103D300090E140E050E060E070E00E9438737E0166
:103D40000894E11CF11CC7016EE973E00E9404B9FC
:103D500088EB90E10E944873182FC70160E070E083
:103D60000E9475B6FC01108388EB90E10E944873B5
:103D7000182FC70161E070E00E9475B6FC01108346
:103D8000C70161EA73E00E949DB7882399F48BE331
:103D900098E164EA73E00E94E7B48BE398E1B7012D
:103DA0000E949BB58BE398E162EC73E00E948AB5B8
:103DB00010E083C18BE398E16DED73E00E948AB55A
:103DC00088EB90E10E9448738E01085F1F4FC80185
:103DD00065E072E00E9404B988EB90E10E944873AC
:103DE000E82E8FE0C82ED12CCC0EDD1EF02E012F38
:103DF00021C083E2E81641F488EB90E10E94487309
:103E0000E82E9AE0E916C1F7C6016F2D702F0E94C7
:103E1000BBB9C6016E2D0E94C2B8BC018F2D902F78
:103E20000E949DB9C6010E94C9B988EB90E10E9429
:103E30004873E82E8AE0E81619F090E2E916C9F610
:103E40008BE398E163E074E00E94E7B418E0E12EB0
:103E5000F12CEC0EFD1E8BE398E1B7010E94CDB56D
:103E60004C855D854F5F5F4F8DB79EB7841B950B6B
:103E70000FB6F8949EBF0FBE8DBF0DB71EB70F5F74
:103E80001F4F902E812EB02EA12EC701B80120E029
:103E900030E00E944EB7C8010E948211AA2797FD08
:103EA000A095BA2F8093D3109093D410A093D510DF
:103EB000B093D6100A97A105B10544F48BE398E1BD
:103EC00060ED71E00E9494B310E0F3C0C70165E0BB
:103ED00072E00E9436B988EB90E10E944873182F77
:103EE000B6E1CB2ED12CCC0EDD1EC701FE2C092F46
:103EF0001FC0133239F488EB90E10E944873182FE9
:103F00008A30C9F7C6016F2D702F0E94BBB9C60158
:103F1000612F0E94C2B8BC018F2D902F0E949DB9C5
:103F2000C6010E94C9B988EB90E10E944873182F1E
:103F30001A30F9F68BE398E16EE074E00E94E7B482
:103F4000A8E0CA2ED12CCC0EDD1E8BE398E1B60181
:103F50000E94CDB54C855D854F5F5F4FC6016B2DCF
:103F60007A2D20E030E00E944EB7892D982D0E94D6
:103F70008211AA2797FDA095BA2F8093D71090930E
:103F8000D810A093D910B093DA10BC01CD010E94D3
:103F9000D5BA7B018C016091D3107091D4108091BF
:103FA000D5109091D6100E94D5BA9B01AC01C801E2
:103FB000B7010E943ABA6093520F7093530F8093E7
:103FC000540F9093550F8BE398E16AE174E00E94DF
:103FD000E7B44091520F5091530F6091540F70917C
:103FE000550F8BE398E122E030E00E9479B5C601DD
:103FF00065E072E00E9436B988EB90E10E94487358
:10400000182F0D2DFDE1EF2EF12CEC0EFD1E16C02C
:10401000C7016C2D702F0E94BBB9C701612F0E9490
:10402000C2B8BC018C2D902F0E949DB9C7010E947F
:10403000C9B988EB90E10E944873182F1A3041F7F4
:104040008BE398E16CE274E00E94E7B48BE398E1C3
:104050006C2D702F0E94CDB54C855D854F5F5F4FF5
:104060008C2D902F6B2D7A2D20E030E00E944EB7E2
:10407000892D982D0E9482119093DC108093DB1083
:1040800088EB90E10E94F3727093DE106093DD1074
:104090008BE398E160E474E00E94E7B46091DD1086
:1040A0007091DE108BE398E14AE050E00E94CAB4C0
:1040B00011E0CE0108960E94C4B9CE0101960E947B
:1040C000C4B9812F0FB6F8947EBE0FBE6DBEA39605
:1040D0000FB6F894DEBF0FBECDBFCF91DF911F9119
:1040E0000F91FF90EF90DF90CF90BF90AF909F9097
:1040F0008F907F906F900895EF92FF920F931F9390
:10410000DF93CF93CDB7DEB7FC01EDB6FEB64481A9
:1041100055814F5F5F4F8DB79EB7841B950B0FB6D0
:10412000F8949EBF0FBE8DBF0DB71EB70F5F1F4F18
:10413000CF01B80120E030E00E944EB7C8010E94D4
:1041400082110FB6F894FEBE0FBEEDBECF91DF9187
:104150001F910F91FF90EF900895EF92FF920F93B0
:104160001F93DF93CF93CDB7DEB727970FB6F894A1
:10417000DEBF0FBECDBF8E010F5F1F4FC80160EBCA
:1041800071E10E94B2B9C801B7DF7C01C8010E9489
:10419000C4B9EF2819F410925F100EC08091671017
:1041A000882321F081E080935F1006C08BE398E1C3
:1041B0006EE474E00E948AB527960FB6F894DEBFCD
:1041C0000FBECDBFCF91DF911F910F91FF90EF9068
:1041D00008950F931F93DF93CF93CDB7DEB72E973C
:1041E0000FB6F894DEBF0FBECDBF8E010F5F1F4F1D
:1041F000C80160EB71E10E94B2B9C8017DDF909304
:10420000730F8093720FC8010E94C4B98E01085FBA
:104210001F4FC80167EB71E10E94B2B9C8016CDFA2
:104220009093710F8093700FC8010E94C4B92E96AD
:104230000FB6F894DEBF0FBECDBFCF91DF911F91B7
:104240000F910895EF92FF920F931F93DF93CF93F7
:10425000CDB7DEB76B970FB6F894DEBF0FBECDBFFC
:10426000FC01EDB6FEB6448155814F5F5F4F8DB7BF
:104270009EB7841B950B0FB6F8949EBF0FBE8DBFE3
:104280000DB71EB70F5F1F4FCF01B80120E030E020
:104290000E944EB7CE01019660EB73E1A80121E0C8
:1042A0000E9441768B819C819093BB108093BA10C1
:1042B0008D819E81AF81B8858093BC109093BD1095
:1042C000A093BE10B093BF1089859A85AB85BC853D
:1042D0008093C0109093C110A093C210B093C310EC
:1042E000A4ECB0E1FE013D968DE001900D9281506D
:1042F000E1F78A8D9B8D9093D2108093D110CE01DF
:1043000001960E94B17288EB90E10E941973882394
:1043100029F48BE398E162E774E007C0F0DC8823BE
:1043200041F48BE398E163E874E00E948AB580E091
:104330000DC088EB90E10E9406736093DF107093CC
:10434000E0108093E1109093E21081E00FB6F894B2
:10435000FEBE0FBEEDBE6B960FB6F894DEBF0FBE6D
:10436000CDBFCF91DF911F910F91FF90EF900895F6
:10437000AF92BF92CF92DF92EF92FF920F931F9373
:10438000DF93CF93CDB7DEB76B970FB6F894DEBF50
:104390000FBECDBF6C01ADB6BEB640916E10509150
:1043A0006F104F5F5F4F8DB79EB7841B950B0FB695
:1043B000F8949EBF0FBE8DBF0DB71EB70F5F1F4F86
:1043C0008AE690E1B80120E030E00E944EB77E011D
:1043D0000894E11CF11CC70160EB73E1A80123E123
:1043E0000E944176C7010E9419738823D1F08BE3A4
:1043F00098E16BE874E00E94E7B48BE398E16AE629
:1044000070E10E94CDB5C701B6010E94CDB5C701CC
:104410000E9426738BE398E16CE974E00E948AB5F0
:104420000CC08BE398E162EA74E00E94E7B48BE38E
:1044300098E16AE670E10E94CDB5CE0101960E9436
:10444000B1720FB6F894BEBE0FBEADBE6B960FB67E
:10445000F894DEBF0FBECDBFCF91DF911F910F91BA
:10446000FF90EF90DF90CF90BF90AF900895EF92C4
:10447000FF920F931F9385E361E00E9490AD80EB64
:1044800093E165E30E946177882329F48BE398E147
:1044900061EB74E06AC08BE398E16DEC74E00E941C
:1044A0008AB58BE398E16FED74E00E948AB581E7ED
:1044B00090E161E045E30E94B7798823B9F48BE38A
:1044C00098E167EF74E00E948AB58BE398E16FE1B1
:1044D00075E00E948AB58BE398E168E375E00E947D
:1044E0008AB58BE398E162E575E03FC08BE398E124
:1044F00066E975E00E948AB58BE398E16FEB75E0A1
:104500000E94E7B480917C10823049F0833061F0E2
:10451000813079F48BE398E16CEC75E00EC08BE3AD
:1045200098E160ED75E009C08BE398E164ED75E01A
:1045300004C08BE398E169ED75E00E948AB58DE7D0
:1045400090E161E770E141E00E94E184882381F419
:104550008DE790E161E770E140E00E94E18488230B
:1045600039F48BE398E161EE75E00E948AB574C07E
:104570008BE398E16BE276E00E94E7B48BE398E18D
:10458000609194104AE050E00E944CB48BE398E1B3
:104590000E9474B32091811030E040E050E06091BF
:1045A0008610709187108091881090918910E9E0B1
:1045B000660F771F881F991FEA95D1F70E94CFBC1D
:1045C0007B018C018BE398E16FE376E00E94E7B416
:1045D0008BE398E1B801A7012AE030E00E942AB4F9
:1045E0008BE398E165E576E00E94E7B42AE0169552
:1045F0000795F794E7942A95D1F78BE398E1B801F2
:10460000A7012AE030E00E942AB48BE398E16CE62F
:1046100076E00E94E7B49AE016950795F794E79440
:104620009A95D1F78BE398E1B801A7012AE030E031
:104630000E942AB48BE398E163E876E00E948AB591
:104640008BE990E16DE770E10E94F67E8BE990E1E5
:1046500067E040E00E94F07F1F910F91FF90EF9084
:104660000895AF92BF92CF92DF92EF92FF920F9395
:104670001F9386EE90E10E943C6F8AE291E10E94D6
:104680003C6F86EE90E10E94E66861157105810538
:10469000910509F048C06091360F7091370F8091F5
:1046A000380F9091390F20913E0F30913F0F40917C
:1046B000400F5091410F260F371F481F591F0E946E
:1046C00047B65B016C0160913A0F70913B0F80918E
:1046D0003C0F90913D0F2091420F3091430F40913C
:1046E000440F5091450F260F371F481F591F0E9436
:1046F00047B67B018C01C601B5010E94D5BA5B01AA
:104700006C01C801B7010E94D5BA9B01AC01C6017A
:10471000B5010E944A1B0E94A2BAAB01BC0186EE01
:1047200090E10E947B6A8AE291E10E94E66861154D
:1047300071058105910509F048C06091360F7091AF
:10474000370F8091380F9091390F20913E0F3091A3
:104750003F0F4091400F5091410F260F371F481FC8
:10476000591F0E9447B65B016C0160913A0F70912E
:104770003B0F80913C0F90913D0F2091420F309163
:10478000430F4091440F5091450F260F371F481F8C
:10479000591F0E9447B67B018C01C601B5010E94DA
:1047A000D5BA5B016C01C801B7010E94D5BA9B0163
:1047B000AC01C601B5010E94131B0E94A2BAAB0155
:1047C000BC018AE291E10E947B6A1F910F91FF90E8
:1047D000EF90DF90CF90BF90AF900895EF92FF924F
:1047E0000F931F93CF93DF93C0E0D0E08BE398E16A
:1047F0006DEB76E00E94E7B48BE398E1BE014AE0FE
:1048000050E00E94CAB486EE90E10E94E66861150D
:1048100071058105910509F469C08AE291E10E9460
:10482000E668611571058105910509F45FC086EEA2
:1048300090E10E943C6F8AE291E10E943C6FE3CFDD
:104840006EEF7FEF8FEF9FEF23E030E040E050E02E
:104850000E9447B67B018C01A701662757FD609532
:10486000762F86EE90E10E948C6A8BE398E166ECED
:1048700076E00E94E7B48BE398E1B7014AE050E0AC
:104880000E94CAB48AE291E10E94E668611571054E
:104890008105910511F56EEF7FEF8FEF9FEF23E01C
:1048A00030E040E050E00E9447B67B018C01A70158
:1048B000662757FD6095762F8AE291E10E948C6A07
:1048C0008BE398E16CED76E00E94E7B48BE398E12E
:1048D000B7014AE050E00E94CAB40E945E1C2196D3
:1048E00083E0C83ED80709F081CF0AC086EE90E188
:1048F0000E94E668611571058105910519F6A0CF42
:10490000DF91CF911F910F91FF90EF900895AF929B
:10491000BF92CF92DF92EF92FF920F931F93CF93AC
:10492000DF93EC015B016A0189EC9FE069E070E0D4
:104930000E941071CA15DB059CF476010027F7FC74
:104940000095102F89EC9FE0BE010E94F96FC8010D
:10495000B7010E94CBAC2196AC16BD069CF712C0E5
:1049600076010027F7FC0095102F89EC9FE0BE012F
:104970000E94F96FC801B7010E94CBAC2197CA15FC
:10498000DB059CF789EC9FE00E948D6FDF91CF9152
:104990001F910F91FF90EF90DF90CF90BF90AF905D
:1049A0000895EF92FF920F931F93DF93CF93CDB7AC
:1049B000DEB727970FB6F894DEBF0FBECDBF80914C
:1049C000EA0F9091EB0F2091CC0F029714F1222364
:1049D00029F0E0901813F090191304C0E090790FBB
:1049E000F0907A0F8E010F5F1F4FC80160EB71E1ED
:1049F0000E94B2B9C80180DB90937A0F8093790F3F
:104A0000C8010E94C4B96091790F70917A0FC701F3
:104A10000AC0213059F46091790F70917A0F80911A
:104A200018139091191343E050E071DF1092CC0FEE
:104A300027960FB6F894DEBF0FBECDBFCF91DF91A2
:104A40001F910F91FF90EF900895EF92FF920F93B7
:104A50001F93DF93CF93CDB7DEB727970FB6F894A8
:104A6000DEBF0FBECDBF8091EA0F9091EB0F20917A
:104A7000CC0F029714F1222329F0E0901813F09044
:104A8000191304C0E090790FF0907A0F8E010F5F38
:104A90001F4FC80160EB71E10E94B2B9C8012CDB65
:104AA0009093191380931813C8010E94C4B96091A0
:104AB000181370911913C7010AC0222359F4609189
:104AC0001813709119138091790F90917A0F43E028
:104AD00050E01DDF81E08093CC0F27960FB6F8944D
:104AE000DEBF0FBECDBFCF91DF911F910F91FF9021
:104AF000EF900895EF92FF920F931F93182F04E009
:104B0000E02E00E1F02EC70162E344EB22E30E94B5
:104B1000CC8C212F30E08EE691E1F901EE0FFF1FE2
:104B2000E80FF91F608141812F5F3F4FF901EE0FC0
:104B3000FF1FE80FF91F20810181C70170E050E0DD
:104B400030E010E00E94878DC70162E344EB22E36E
:104B50000E94D18CC7016FEF4FEF2FEF0E94CC8CDA
:104B60001F910F91FF90EF9008958F929F92AF92B7
:104B7000BF92CF92DF92EF92FF920F931F93DF933A
:104B8000CF93CDB7DEB727970FB6F894DEBF0FBE31
:104B9000CDBF4C0194E0C92E90E1D92EC60160E052
:104BA00040E020E00E94CC8C4091711150E08EE6F4
:104BB000A82E81E1B82EF50160818A01085E1F4FA1
:104BC000C60170E0465F5F4F2CED30E00E94878D9C
:104BD000C6016FEF4FEF2FEF0E94CC8CC60160E053
:104BE00040E020E00E94D18C7E010894E11CF11C81
:104BF000C701B4010E94B2B9F50140812091711141
:104C000030E0265F3F4FC601B70150E000E010E002
:104C10000E947794C7010E94C4B927960FB6F894F2
:104C2000DEBF0FBECDBFCF91DF911F910F91FF90DF
:104C3000EF90DF90CF90BF90AF909F908F900895AE
:104C40002F923F924F925F926F927F928F929F929C
:104C5000AF92BF92CF92DF92EF92FF920F931F938A
:104C6000DF93CF93CDB7DEB7E0970FB6F894DEBFF2
:104C70000FBECDBF4C015B0158AB4FA78BE398E152
:104C800062EF76E00E94E7B48BE398E1B5010E9401
:104C9000CDB58BE398E16DE077E00E948AB5109284
:104CA000A1101092A2101092A3101092A4101092B2
:104CB000A5101092A6101092A7101092A8108E01A5
:104CC0000F5F1F4FC8016FE177E00E9404B9C50173
:104CD00065E072E00E949DB7882341F4C501B801E8
:104CE0000E94F3B7882311F477246CC0772473945F
:104CF00069C08F85882309F47DC0853E09F472C0A0
:104D00008E3209F46FC08A8D83FD6CC0C6016FE1DD
:104D100077E00E9404B9710100E010E0D7018C91A6
:104D20008032C9F0083041F4C60168E070E00E94AA
:104D300075B6FC01608202C0083028F0B8016F5FD0
:104D40007F4FC60102C0C601B8010E9475B6FC01C2
:104D5000D7018C9180830F5F1F4F0894E11CF11CD9
:104D60000B301105D9F6EFA5F8A91E161F069CF405
:104D7000772041F08BE398E1B6010E94CDB5C401E4
:104D8000B60111C0C601B5010E94F3B78823B1F086
:104D90007724739413C0C601B5010E94F3B788232A
:104DA00049F0C401B2010E94B2B9CE0108960E9436
:104DB000C4B924C0C201B6010E949DB9C6010E94B7
:104DC000C4B910C04FE0242E312C2C0E3D1E38E00B
:104DD000C32ED12CCC0EDD1E2EE2622E2E010894A5
:104DE000411C511C8BE990E1B1010E94187E1816FC
:104DF0000CF47FCFC401B5010E94B2B9CE01019677
:104E00000E94C4B9C401E0960FB6F894DEBF0FBE8D
:104E1000CDBFCF91DF911F910F91FF90EF90DF9069
:104E2000CF90BF90AF909F908F907F906F905F904A
:104E30004F903F902F900895EF92FF920F931F9302
:104E4000DF93CF93CDB7DEB727970FB6F894DEBFC9
:104E50000FBECDBF84E090E160E040E020E00E9422
:104E6000CC8C4091711150E060916E118A01085E06
:104E70001F4F84E090E170E0465F5F4F2CED30E023
:104E80000E94878D84E090E16FEF4FEF2FEF0E943B
:104E9000CC8C84E090E160E040E020E00E94D18C86
:104EA0008AE690E165E072E00E949DB7882341F4B4
:104EB0008AE690E16FE177E00E949DB7882389F050
:104EC00040916E112091711130E0265F3F4F84E0D8
:104ED00090E16CE277E050E000E010E00E942C915D
:104EE0001BC07E010894E11CF11CC7016AE670E159
:104EF0000E94B2B940916E112091711130E0265F8D
:104F00003F4F84E090E1B70150E000E010E00E94E4
:104F10007794C7010E94C4B927960FB6F894DEBFF4
:104F20000FBECDBFCF91DF911F910F91FF90EF90FA
:104F300008950F931F9390E0FC013197E432F1053F
:104F400008F0A7C5EE58FF4FEE0FFF1F0590F49134
:104F5000E02D199480E0CEDD8091610F869590E080
:104F600040916E1150E04A505040480F591F209117
:104F70006F1130E02C503040280F391F84E090E151
:104F800061E377E000E010E00E942C912091610F36
:104F9000269530E040916E1150E04E505040420F47
:104FA000531F80916F11280F311D84E090E165E35C
:104FB00077E06DC580E09EDD8091610F869590E081
:104FC00040916E1150E046515040480F591F2091BA
:104FD0006F1130E02C503040280F391F84E090E1F1
:104FE0006AE377E000E010E00E942C912091610FCD
:104FF000269530E040916E1150E046505040420FEF
:10500000531F80916F11280F311D84E090E161E4FE
:1050100077E03DC580E06EDD8091610F869590E080
:1050200040916E1150E046515040480F591F209159
:105030006F1130E02C503040280F391F84E090E190
:105040006AE377E000E010E00E942C912091610F6C
:10505000269530E040916E1150E04A505040420F8A
:10506000531F80916F11280F311D84E090E164E49B
:1050700077E00DC582E03EDD8091610F869590E07E
:105080004091721150E04E505040480F591F2091EE
:10509000731130E022513040280F391F84E090E135
:1050A00068E477E000E010E00E942C918091610FAD
:1050B000869590E04091721150E04E505040480F5C
:1050C000591F2091731130E026503040280F391FAE
:1050D00084E090E16DE477E00E942C918091610F73
:1050E000869590E04091721150E046505040480F34
:1050F000591F2091731130E02A5F3F4F280F391F4D
:1051000084E090E162E577E0C2C484E0F3DC809162
:10511000610F869590E04091761150E04E505040DE
:10512000480F591F2091771130E026503040280F4A
:10513000391F84E090E165E577E048C384E0DADC7C
:105140008091610F869590E04091761150E0425138
:105150005040480F591F2091771130E02C503040BB
:10516000280F391F84E090E16AE577E000E010E065
:105170000E942C912091610F269530E0409176118C
:1051800050E042515040420F531F80917711280F39
:10519000311D84E090E160E677E079C486E0AADC26
:1051A0008091610F869590E040917A1150E04251D4
:1051B0005040480F591F20917B1130E0265030405D
:1051C000280F391F84E090E166E677E0FFC286E0B1
:1051D00091DC8091610F869590E040917A1150E0CA
:1051E00046515040480F591F20917B1130E0265006
:1051F0003040280F391F84E090E16CE677E0E6C28A
:1052000084E078DC8091610F869590E04091761182
:1052100050E042515040480F591F2091771130E023
:1052200026503040280F391F84E090E163E777E093
:10523000CDC288E05FDC8091610F869590E040915F
:105240007E1150E04A505040480F591F20917F1165
:1052500030E02C503040280F391F84E090E169E79E
:1052600077E000E010E00E942C912091610F2695DC
:1052700030E040917E1150E046505040420F531FA5
:1052800080917F11280F311D84E090E16DE777E078
:10529000FEC388E02FDC8091610F869590E04091FD
:1052A0007E1150E04A505040480F591F20917F1105
:1052B00030E02C503040280F391F84E090E169E73E
:1052C00077E000E010E00E942C912091610F26957C
:1052D00030E040917E1150E04E505040420F531F3D
:1052E00080917F11280F311D84E090E160E877E024
:1052F000CEC382E0FFDB8091610F869590E0409104
:10530000721150E04C505040480F591F20917311BA
:1053100030E02C503040280F391F84E090E165E8E0
:1053200077E000E010E00E942C912091610F26951B
:1053300030E04091721150E04C505040420F531FEA
:105340008091731129C088E0D5DB8091610F86952B
:1053500090E040917E1150E04C505040480F591F52
:1053600020917F1130E02C503040280F391F84E00D
:1053700090E16FE877E000E010E00E942C9120912E
:10538000610F269530E040917E1150E04C50504026
:10539000420F531F80917F11280F311D78C086E086
:1053A000A9DB8091610F869590E040917A1150E0E1
:1053B0004E505040480F591F20917B1130E026502D
:1053C0003040280F391F84E090E164E977E0FEC1A6
:1053D0008AE090DB8091610F869590E04091821188
:1053E00050E04E505040480F591F2091831130E03B
:1053F00022513040280F391F84E090E168E477E0C3
:1054000018C08AE077DB8091610F869590E040912B
:10541000821150E04E505040480F591F2091831187
:1054200030E022513040280F391F84E090E16EE9CE
:1054300077E000E010E00E942C918091610F86954A
:1054400090E04091821150E04E505040480F591F5B
:105450002091831130E026503040280F391F84E01E
:1054600090E169E977E00E942C918091610F869527
:1054700090E04091821150E04E505040480F591F2B
:105480002091831130E02A5F3F4F280F391F84E0BD
:1054900090E16AE877E0FBC28AE02CDB8091610F43
:1054A000869590E04091821150E04E505040480F58
:1054B000591F2091831130E02C503040280F391FA4
:1054C00084E090E165E577E000E010E00E942C9137
:1054D0002091610F269530E04091821150E04A50B2
:1054E0005040420F531F80918311280F311D84E0DB
:1054F00090E163EA77E0CBC282E0FCDA8091610F51
:10550000869590E04091721150E04A505040480F0B
:10551000591F2091731130E02C503040280F391F53
:1055200084E090E167EA77E000E010E00E942C91CF
:105530002091610F269530E04091721150E0425168
:105540005040420F531F80917311B7C188E0D2DAE7
:105550008091610F869590E040917E1150E04A5015
:105560005040480F591F20917F1130E02C5030409F
:10557000280F391F84E090E161EB77E08DC184E072
:10558000B9DA8091610F869590E04091761150E0F4
:105590004A505040480F591F2091771130E02C504D
:1055A0003040280F391F84E090E167EA77E000E09F
:1055B00010E00E942C912091610F269530E04091DF
:1055C000761150E042515040420F531F80917711A5
:1055D00029C08AE08FDA8091610F869590E0409132
:1055E000821150E04A505040480F591F20918311BA
:1055F00030E02C503040280F391F84E090E161EBFF
:1056000077E000E010E00E942C912091610F269538
:1056100030E04091821150E042515040420F531F00
:1056200080918311280F311D84E090E165EB77E0D4
:105630002EC282E05FDA8091610F869590E0409102
:10564000721150E04A505040480F591F2091731179
:1056500030E02C503040280F391F84E090E167EA99
:1056600077E000E010E00E942C912091610F2695D8
:1056700030E04091721150E040515040420F531FB2
:105680008091731129C088E035DA8091610F869589
:1056900090E040917E1150E04A505040480F591F11
:1056A00020917F1130E02C503040280F391F84E0CA
:1056B00090E161EB77E000E010E00E942C912091F6
:1056C000610F269530E040917E1150E040515040EE
:1056D000420F531F80917F11280F311D84E090E10C
:1056E0006BEB77E0D4C184E005DA8091610F869599
:1056F00090E04091761150E04A505040480F591FB9
:105700002091771130E022513040280F391F84E07A
:1057100090E167EA77E075C08AE0ECD98091610F8B
:10572000869590E04091821150E04A505040480FD9
:10573000591F2091831130E022513040280F391F2A
:1057400084E090E161EB77E000E010E00E942C91B2
:105750008091610F869590E04091821150E04A500F
:105760005040480F591F2091831130E0265030409F
:10577000280F391F84E090E169E777E00E942C91BF
:105780008091610F869590E04091821150E04E50DB
:105790005040480F591F209183115CC086E0AAD960
:1057A0008091610F869590E040917A1150E04251CE
:1057B0005040480F591F20917B1130E02650304057
:1057C000280F391F84E090E165EC77E000E010E0FD
:1057D0005EC184E08FD98091610F869590E0409101
:1057E000761150E04A505040480F591F20917711D0
:1057F00030E022513040280F391F84E090E16AECFC
:1058000077E000E010E00E942C918091610F869576
:1058100090E04091761150E04A505040480F591F97
:105820002091771130E026503040280F391F84E056
:1058300090E169E777E00E942C918091610F869555
:1058400090E04091761150E04E505040480F591F63
:105850002091771130E02A5F3F4F280F391F84E0F5
:1058600090E160EC77E013C188E044D98091610F4A
:10587000869590E040917E1150E04A505040480F8C
:10588000591F20917F1130E02C503040280F391FD4
:1058900084E090E16AEC77E000E010E00E942C9157
:1058A0002091610F269530E040917E1150E04251E9
:1058B0005040420F531F80917F11280F311D84E00B
:1058C00090E16BEA77E0E3C082E014D98091610F48
:1058D000869590E04091721150E04A505040480F38
:1058E000591F2091731130E02C503040280F391F80
:1058F00084E090E16AEC77E000E010E00E942C91F7
:105900002091610F269530E04091721150E04A508D
:105910005040420F531F80917311280F311D84E0B6
:1059200090E16EEC77E0B3C082E0E4D88091610F43
:10593000869590E04091721150E04A505040480FD7
:10594000591F2091731130E02C503040280F391F1F
:1059500084E090E167EA77E000E010E00E942C919B
:105960002091610F269530E04091721150E04A502D
:105970005040420F531F8091731129C088E0BAD85C
:105980008091610F869590E040917E1150E04A50E1
:105990005040480F591F20917F1130E02C5030406B
:1059A000280F391F84E090E161EB77E000E010E020
:1059B0000E942C912091610F269530E040917E113C
:1059C00050E04A505040420F531F80917F11280FE2
:1059D000311D84E090E162ED77E059C084E08AD81F
:1059E0008091610F869590E04091761150E04A5089
:1059F0005040480F591F2091771130E02C50304013
:105A0000280F391F84E090E167EA77E000E010E0BA
:105A10000E942C912091610F269530E040917611E3
:105A200050E04A505040420F531F8091771129C0D7
:105A30008AE060D88091610F869590E04091821154
:105A400050E04A505040480F591F2091831130E0D8
:105A50002C503040280F391F84E090E161EB77E053
:105A600000E010E00E942C912091610F269530E01B
:105A70004091821150E04A505040420F531F809194
:105A80008311280F311D84E090E166ED77E00E94DC
:105A90002C911F910F9108956F927F928F929F92F8
:105AA000AF92BF92CF92DF92EF92FF920F931F932C
:105AB0006C015B0139014A01F4E0EF2EF0E1FF2EA9
:105AC000C70160E040E020E00E94CC8C8091610F33
:105AD0009601280F311D85010C5E1F4FC701B601CD
