:100000000C94200F0C94C2A90C94F3A90C9424AA6C
:100010000C9455AA0C9486AA0C94B7AA0C94E8AA3E
:100020000C9419AB0C944D0F0C944D0F0C944D0F78
:100030000C944D0F0C944D0F0C944D0F0C944D0FD0
:100040000C944D0F0C9459710C944D0F0C944D0F52
:100050000C944D0F0C944D0F0C944D0F0C944AAB17
:100060000C944D0F0C94A0AD0C94C8AE0C944D0F95
:100070000C944D0F0C944D0F0C944D0F0C944D0F90
:100080000C942C710C944D0F0C944D0F0C944D0F3F
:100090000C94D9AD0C9407AF0C944D0F0C944D0FEC
:1000A0000C944D0F0C944D0F0C94FF700C944D0F4D
:1000B0000C944D0F0C944D0F0C944D0F0C94D2706A
:1000C0000C944D0F0C944D0F0C944D0F0C9412AEDC
:1000D0000C9446AF0C944D0F0C944BAE0C9485AF22
:1000E0000C944D0FA92739288428CD28E628FF280D
:1000F00018294829A52A7B2AA2297829482D482D84
:10010000CE29E729482DE82ABE2ACD2BBD2C932CD9
:10011000172DED2C8B2B722B422B182B332CE82B0D
:10012000632CD9270928002A4B2A9D28744195441D
:1001300077417B419544804188419041BC4169436E
:10014000914395449544B9431C439544EA41164272
:10015000D043E1430B443844624444426B42B242D0
:10016000D942CA43C843CC436C4170415A43CE4341
:100170008F4405A84CCDB2D44EB93836A9020C50E4
:10018000B9918688083CA6AAAA2ABE000000803F32
:10019000000000006410B71DC8206E3BAC30D926AB
:1001A0009041DC76F4516B6B5861B24D3C71055057
:1001B0002083B8ED44930FF0E8A3D6D68CB361CB7F
:1001C000B0C2649BD4D2D38678E20AA01CF2BDBD33
:1001D00050424D20696D616765206D7573742062B2
:1001E00065206174206C6561737420313020706902
:1001F00078656C7320776964652E002C206D6178BA
:100200002064656E736974793A20002C2070656EE5
:100210002077696474683A200050656E7769647469
:1002200068207465737420004368616E67696E6747
:10023000206261636B20746F206C697665206D6F3E
:1002400064652E0046696C652072656D6F76656425
:100250002E0046696C6520616C7265616479206569
:1002600078697374732E00457865637574696E6779
:1002700020636F6D6D616E643A0053746F72696EC6
:100280006720636F6D6D616E643A006D6D00436849
:10029000616E6765642050656E20776964746820BC
:1002A000746F20004E657720616363656C657261D1
:1002B00074696F6E3A20004E6577206D6178207307
:1002C000706565643A200055703A2000446F776E7F
:1002D0003A2000504753504545442C0050474C4964
:1002E00046542C005047535445504D554C5449509A
:1002F0004C4945522C005047535445505350455299
:100300005245562C0050474D4D5045525245562CA3
:1003100000504753495A452C0050474E414D452CFB
:10032000002900526563616C6320706167654865F0
:100330006967687420696E20737465707320280083
:100340002900526563616C63207061676557696459
:10035000746820696E20737465707320280029000A
:10036000292C2073746570735065724D4D202800E0
:10037000526563616C63206D6D5065725374657076
:100380002028004C6F61646564206D6F746F72206B
:1003900073746570206D756C7469706C6965723A00
:1003A000004C6F61646564206D616368696E6520EF
:1003B0006E616D653A004C6F6164656420757020F4
:1003C000706F733A004C6F6164656420646F776E80
:1003D00020706F733A004C6F61646564206D6F74B8
:1003E0006F72207374657073207065722072657609
:1003F0003A004C6F61646564206D6D2070657220F9
:100400007265763A004C6F61646564206D61636863
:10041000696E65206865696768743A004C6F61644D
:100420006564206D616368696E65207769647468CE
:100430003A002069736E2774206120636F6D6D61CF
:100440006E642049207265636F676E6973652E0064
:10045000536F7272792C200029206E6F74207061A6
:10046000727365642E00436F6D6D616E64202800A9
:10047000436865636B73756D206E6F74206D617476
:1004800063686564213A004920676F742000504F0B
:100490004C41524752415048204F4E21007C3C3E37
:1004A0005E2B3D3F2F5B5D3B2C2A225C00080C201D
:1004B0005F000000000000000000000000000020BD
:1004C00020202020200020000000285050000000A4
:1004D000000000000000002828FC2850FC505000BC
:1004E00000002078A8A0603028A8F0200000004874
:1004F000A8B050283454480000000020505078A87C
:10050000A8906C0000004040800000000000000047
:100510000000040810101010101008040000402003
:1005200010101010101020400000000020A8707063
:10053000A8200000000000202020F820202000003B
:1005400000000000000000000000404080000000AB
:100550000000F800000000000000000000000000A3
:100560000000400000000810101020204040408093
:10057000000000708888888888887000000000204B
:10058000602020202020700000000070888810204B
:100590004080F8000000007088083008088870006B
:1005A000000000103050509078101800000000F843
:1005B0008080F00808887000000000709080F0884B
:1005C00088887000000000F8901020202020200073
:1005D00000000070888870888888700000000070B3
:1005E000888888780848700000000000002000001B
:1005F000000020000000000000002000000020207B
:100600000000040810204020100804000000000032
:1006100000F80000F8000000000040201008040866
:10062000102040000000007088881020200020006A
:10063000000000708898A8A8B8807800000000200A
:10064000203050507848CC00000000F048487048F6
:100650004848F00000000078888080808088700022
:10066000000000F0484848484848F000000000F802
:10067000485070504048F800000000F84850705052
:100680004040E000000000384880809C88483000EE
:10069000000000CC484878484848CC00000000F8EA
:1006A000202020202020F8000000007C10101010D6
:1006B000101090E0000000EC485060505048EC00F2
:1006C000000000E0404040404044FC00000000D8F2
:1006D000D8D8D8A8A8A8A800000000DC48686858A6
:1006E0005848E80000000070888888888888700072
:1006F000000000F0484870404040E00000000070FA
:1007000088888888E8987018000000F04848705081
:100710004848EC0000000078888060100888F000ED
:10072000000000F8A820202020207000000000CC4D
:100730004848484848483000000000CC48485050DD
:1007400030202000000000A8A8A870505050500091
:10075000000000D8505020205050D800000000D891
:100760005050202020207000000000F89010202021
:100770004048F80000003820202020202020203889
:1007800000004040402020101010080000007010B1
:100790001010101010101070000020500000000009
:1007A0000000000000000000000000000000000049
:1007B000FC0020000000000000000000000000001D
:1007C0000000304838483C00000000C040407048FD
:1007D00048487000000000000000384840403800E1
:1007E000000000180808384848483C000000000095
:1007F00000003048784038000000001C202078209D
:10080000202078000000000000003C483040784480
:10081000380000C0404070484848EC00000000200C
:100820000000602020207000000000100000301048
:1008300010101010E00000C040405C507048EC0008
:10084000000000E0202020202020F8000000000010
:100850000000F0A8A8A8A800000000000000F048D0
:100860004848EC00000000000000304848483000D4
:10087000000000000000F04848487040E000000020
:1008800000003848484838081C0000000000D860C4
:100890004040E00000000000000078403008780090
:1008A0000000000020207020202018000000000020
:1008B0000000D84848483C00000000000000EC4818
:1008C00050302000000000000000A8A87050500028
:1008D000000000000000D8502050D80000000000A8
:1008E0000000EC4850302020C000000000007810CC
:1008F0002020780000001810101020101010101880
:1009000000101010101010101010101010006020A7
:1009100020201020202020600040A41800000000AB
:1009200000000000001010205F0000000000000028
:1009300000000000000000000000000000000000B7
:100940000000000000000000000000000007000F91
:10095000800F800F800F800F8007000700000000CD
:1009600000070007000700000000000E380E380ED8
:10097000380E3806300000000000000000000000C3
:1009800000000000000000000000000C300C300CE3
:10099000307FFE7FFE0C300C300C300C307FFE7F41
:1009A000FE0C300C300C3000000000024002400F02
:1009B000F81FF81A401A401FF00FF8025802581F8B
:1009C000F81FF00240024000000000000000000E8E
:1009D000100E300E7000E001C0038007000E700C96
:1009E000700870000000000000000000000F0019F7
:1009F00080198019800F000F080F9819F818F01847
:100A0000E019F00F98000000000000000007000748
:100A10000007000E000000000000000000000000C1
:100A20000000000000000000000000000000F001D5
:100A3000C0038007000E000E000E000E000700032A
:100A40008001C000F000000000000000000F000363
:100A50008001C000E0007000700070007000E001D4
:100A6000C003800F000000000000000000018011A2
:100A700088099007E007E03FFC3FFC07E007E0093A
:100A800090118801800000000000000000000000BC
:100A9000000180018001800FF00FF00180018001D2
:100AA00080000000000000000000000000000000C6
:100AB000000000000000000000000000000000072F
:100AC00000070007000E000000000000000000000A
:100AD000000000000000001FF81FF80000000000E8
:100AE0000000000000000000000000000000000006
:100AF00000000000000000000000000000000007EF
:100B000000070007000000000000000000000200D5
:100B100006000E001C0038007000E001C0038007D2
:100B2000000E001C0000000000000000000FF01C80
:100B3000381C781CF81CF81DB81DB81F381F381E4B
:100B4000381C380FF0000000000000000001800198
:100B50008003801F801F8003800380038003800345
:100B60008003801FF000000000000000000FE01C68
:100B7000701C380038007000E001C0038007000ED0
:100B8000381C381FF800000000000000000FE01CB7
:100B9000701C380038007003C003C0007000381C9F
:100BA000381C700FE0000000000000000000E001B1
:100BB000E003E006E00CE018E01FF81FF800E0009A
:100BC000E000E003F800000000000000001FF81C37
:100BD000001C001C001C001FE01FF0007800381CE7
:100BE000381C700FE0000000000000000003E00768
:100BF000000E001C001C001FF01FF81C381C381CC5
:100C0000381C380FF000000000000000001FFC1C22
:100C10001C1C1C1C1C001C0038007000E001C003E0
:100C2000800380038000000000000000000FF01C23
:100C3000381C381C381F3807E007E01CF81C381C2B
:100C4000381C380FF000000000000000000FF01CFE
:100C5000381C381C381C381FF80FF80038003800D2
:100C60007000E007C000000000000000000000006D
:100C700000038003800380000000000380038003E2
:100C800080000000000000000000000000000000E4
:100C900000038003800380000000000380038003C2
:100CA0008007000000000000000000007000E0016C
:100CB000C0038007000E001C001C000E000700038C
:100CC0008001C000E0007000000000000000000093
:100CD0000000003FFC3FFC000000003FFC3FFC0028
:100CE00000000000000000000000001C000E0007D3
:100CF00000038001C000E00070007000E001C0034C
:100D00008007000E001C000000000003C00FF01E52
:100D10007818380038007000E001C001C000000001
:100D20000001C001C001C0000000000FF81C1C1C25
:100D30001C1C1C1C1C1CFC1CFC1CFC1CFC1C001C8F
:100D4000001C001FF007F800000000000003C007AF
:100D5000E00E701C381C381C381C381FF81C381C5E
:100D6000381C381C3800000000000000001FF00E86
:100D7000380E380E380E380FF00FF00E380E380ED1
:100D8000380E381FF0000000000000000007F00ED1
:100D9000381C381C001C001C001C001C001C001C03
:100DA000380E3807F000000000000000001FE00EC1
:100DB000700E380E380E380E380E380E380E380ECB
:100DC000380E701FE000000000000000001FF80E49
:100DD000180E080E000E300FF00FF00E300E000E41
:100DE000080E181FF800000000000000001FF80E99
:100DF000180E080E000E300FF00FF00E300E000E21
:100E0000000E001F00000000000000000007F00EB0
:100E1000381C381C381C001C001C001CF81C381C1A
:100E2000380E3807F800000000000000001C701C9D
:100E3000701C701C701C701FF01FF01C701C701C4C
:100E4000701C701C7000000000000000000FE00328
:100E5000800380038003800380038003800380037A
:100E60008003800FE0000000000000000001FC0093
:100E7000700070007000700070007038703870384A
:100E80007038700FE000000000000000001E380EF7
:100E9000380E700EE00FC00F800F800FC00EE00EF6
:100EA000700E381E3800000000000000001F000E09
:100EB000000E000E000E000E000E000E000E080EBA
:100EC000180E381FF800000000000000001C1C1E57
:100ED0003C1F7C1FFC1FFC1DDC1C9C1C1C1C1C1CC8
:100EE0001C1C1C1C1C00000000000000001C1C1C22
:100EF0001C1E1C1F1C1F9C1DDC1CFC1C7C1C3C1C89
:100F00001C1C1C1C1C000000000000000003E0076B
:100F1000F00E381C1C1C1C1C1C1C1C1C1C1C1C0E3D
:100F20003807F003E000000000000000001FF00E92
:100F3000380E380E380E380FF00FF00E000E000E7F
:100F4000000E001F00000000000000000003E00F82
:100F5000780E381C1C1C1C1C1C1C1C1C7C1CFC0F34
:100F6000F80FF8003800FC0000000000001FF00E31
:100F7000380E380E380E380FF00FF00E700E380E97
:100F8000380E381E3800000000000000000FF01C72
:100F9000381C381C381C000FE007F000381C381CC7
:100FA000381C380FF000000000000000001FFC1982
:100FB000CC11C401C001C001C001C001C001C00109
:100FC000C001C007F000000000000000001C701C01
:100FD000701C701C701C701C701C701C701C701CB1
:100FE000701C700FE000000000000000001C701C6E
:100FF000701C701C701C701C701C701C701C700E9F
:10100000E007C0038000000000000000001C1C1C62
:101010001C1C1C1C1C1C1C1C9C1C9C1C9C0FF80FCE
:10102000F80770077000000000000000001C701C32
:10103000701C700EE007C00380038007C00EE01C28
:10104000701C701C7000000000000000001C701C70
:10105000701C701C701C700EE007C00380038003BE
:101060008003800FE000000000000000001FF81C5B
:10107000381838107000E001C0038007000E081C0B
:10108000181C381FF8000000000000000007F007DF
:101090000007000700070007000700070007000718
:1010A00000070007F000000000000000001000181A
:1010B000001C000E000700038001C000E00070006B
:1010C00038001C0007000000000000000007F000CE
:1010D0007000700070007000700070007000700090
:1010E00070007007F0000000000000018003C007DE
:1010F000E00E701C3800000000000000000000003E
:1011000000000000000000000000000000000000DF
:1011100000000000000000000000000000000000CF
:1011200000000000007FFF7FFF000000001C001C8B
:1011300000070007000000000000000000000000A1
:10114000000000000000000000000000000000009F
:1011500000000000000FE0007000700FF01C701C19
:10116000701C700FD800000000000000001E000E70
:10117000000E000E000FF00E380E380E380E380E2E
:10118000380E381BF00000000000000000000000D6
:1011900000000000000FE01C701C701C001C001CF4
:1011A000701C700FE0000000000000000000F8005C
:1011B00070007000700FF01C701C701C701C701C94
:1011C000701C700FD800000000000000000000003C
:1011D00000000000000FE01C701C701FF01C001CC1
:1011E000701C700FE0000000000000000003E0072A
:1011F000700770070007001FE01FE00700070007E7
:101200000007001FC00000000000000000000000F8
:1012100000000000000FD81C701C701C701C700FA8
:10122000F007F000701C700FE0000000001E000EC0
:10123000000E000E000EF00F380F380E380E380E6C
:10124000380E381E38000000000000000001C00108
:10125000C001C000000FC001C001C001C001C00139
:10126000C001C00FF8000000000000000000700086
:10127000700070000003F0007000700070007000DB
:101280007000701C700CF007E0000000001E000EE3
:10129000000E000E000E380E700EE00FC00EE00EB5
:1012A000700E381E3800000000000000000FC00162
:1012B000C001C001C001C001C001C001C001C00126
:1012C000C001C00FF8000000000000000000000096
:1012D00000000000001FF81C9C1C9C1C9C1C9C1CFB
:1012E0009C1C9C1C9C0000000000000000000000F2
:1012F00000000000001FE01C701C701C701C701CA3
:10130000701C701C70000000000000000000000055
:1013100000000000000FE01C701C701C701C701C92
:10132000701C700FE00000000000000000000000D2
:1013300000000000001BF00E380E380E380E380E7C
:10134000380FF00E000E001F00000000000000002B
:1013500000000000001FB038E038E038E038E03826
:10136000E01FE000E000E001F000000000000000ED
:1013700000000000001EF00FF80F380E000E000EE7
:10138000000E001F00000000000000000000000030
:1013900000000000000FE01C301C300F8003E0183C
:1013A0007018700FE0000000000000000000000155
:1013B00000030007001FF0070007000700070007F1
:1013C00070077003E0000000000000000000000053
:1013D00000000000001C701C701C701C701C701C35
:1013E000701C700FD800000000000000000000001A
:1013F00000000000001C701C701C701C701C700E23
:10140000E007C003800000000000000000000000B2
:1014100000000000001C1C1C1C1C1C1C9C1C9C0FA5
:10142000F8077007700000000000000000000000D6
:1014300000000000001CE01CE00FC0078007800FC8
:10144000C01CE01CE00000000000000000000000E4
:1014500000000000000E380E380E380E380E380727
:10146000F003E000E001C01F800000000000000069
:1014700000000000001FE018E011C0038007000E0C
:10148000201C601FE0000000000000000001F803C5
:10149000800380038007001C001C000700038003FA
:1014A00080038001F800000000000001C001C001BD
:1014B000C001C001C001C001C001C001C001C00124
:1014C000C001C001C001C00000000000001F800179
:1014D000C001C001C000E00038003800E001C001D8
:1014E000C001C01F8000000000000000001F1C3B66
:1014F0009C39DC38F800000000000000000000000B
:101500000000000000000000002032300A0000004F
:10151000000000000000FFFE0001FFFF0003FFFFCE
:101520008001FFFF600CFFFEF01E0001F83F00018C
:10153000F83F0001F83F0001F83F0001F83F0001CB
:10154000F83F0001F83F0001F83F0001F83F0001BB
:10155000F83F0001F83F0001F83F0001F83F0001AB
:10156000F83E000078380000182000000800000055
:101570000020000000380000183E0000783F000105
:10158000F83F0001F83F0001F83F0001F83F00017B
:10159000F83F0001F83F0001F83F0001F83F00016B
:1015A000F83F0001F83F0001F83F0001F83F00015B
:1015B000F83F0001F81E0000F00CFFFE6001FFFF85
:1015C0000003FFFF8001FFFF0000FFFE000000009E
:1015D000000000000000000000000000000000000B
:1015E000000000000000000000000000600000009B
:1015F000F0000001F8000001F8000001F80000010F
:10160000F8000001F8000001F8000001F8000001F6
:10161000F8000001F8000001F8000001F8000001E6
:10162000F8000001F8000001F80000007800000058
:10163000180000000800000000000000000000008A
:101640001800000078000001F8000001F800000117
:10165000F8000001F8000001F8000001F8000001A6
:10166000F8000001F8000001F8000001F800000196
:10167000F8000001F8000001F8000001F800000087
:10168000F00000006000000000000000000000000A
:10169000000000000000000000000000000000004A
:1016A000000000000000FFFE0001FFFF0003FFFF3D
:1016B0008001FFFF6000FFFEF0000001F800000164
:1016C000F8000001F8000001F8000001F800000136
:1016D000F8000001F8000001F8000001F800000126
:1016E000F8000001F8000001F8000001F800000116
:1016F000F80000007801FFFE1803FFFF880FFFFFCE
:10170000E027FFFFC039FFFF003E0000003F000060
:10171000003F0000003F0000003F0000003F0000CD
:10172000003F0000003F0000003F0000003F0000BD
:10173000003F0000003F0000003F0000003F0000AD
:10174000003F0000001E0000000CFFFE0001FFFF34
:101750000003FFFF8001FFFF0000FFFE000000000C
:101760000000000000000000000000000000FFFE7C
:101770000001FFFF0003FFFF8001FFFF6000FFFE8D
:10178000F0000001F8000001F8000001F80000017D
:10179000F8000001F8000001F8000001F800000165
:1017A000F8000001F8000001F8000001F800000155
:1017B000F8000001F8000001F80000007801FFFEC9
:1017C0001803FFFF880FFFFFE007FFFFC001FFFFC7
:1017D0001800000078000001F8000001F800000186
:1017E000F8000001F8000001F8000001F800000115
:1017F000F8000001F8000001F8000001F800000105
:10180000F8000001F8000001F8000001F8000000F5
:10181000F000FFFE6001FFFF0003FFFF8001FFFFFC
:101820000000FFFE000000000000000000000000BB
:1018300000000000000000000000000000000000A8
:1018400000000000600C0000F01E0001F83F0001E5
:10185000F83F0001F83F0001F83F0001F83F0001A8
:10186000F83F0001F83F0001F83F0001F83F000198
:10187000F83F0001F83F0001F83F0001F83F000188
:10188000F83E00007839FFFE1823FFFF880FFFFFA6
:10189000E007FFFFC001FFFF180000007800000113
:1018A000F8000001F8000001F8000001F800000154
:1018B000F8000001F8000001F8000001F800000144
:1018C000F8000001F8000001F8000001F800000134
:1018D000F8000001F8000000F000000060000000C7
:1018E00000000000000000000000000000000000F8
:1018F0000000000000000000000000000000FFFEEB
:101900000001FFFF0003FFFF8001FFFF000CFFFE4F
:10191000001E0000003F0000003F0000003F0000EC
:10192000003F0000003F0000003F0000003F0000BB
:10193000003F0000003F0000003F0000003F0000AB
:10194000003F0000003F0000003E00000039FFFEA5
:101950000023FFFF800FFFFFE007FFFFC001FFFF35
:101960001800000078000001F8000001F8000001F4
:10197000F8000001F8000001F8000001F800000183
:10198000F8000001F8000001F8000001F800000173
:10199000F8000001F8000001F8000001F800000064
:1019A000F000FFFE6001FFFF0003FFFF8001FFFF6B
:1019B0000000FFFE0000000000000000000000002A
:1019C000000000000000FFFE0001FFFF0003FFFF1A
:1019D0008001FFFF000CFFFE001E0000003F000022
:1019E000003F0000003F0000003F0000003F0000FB
:1019F000003F0000003F0000003F0000003F0000EB
:101A0000003F0000003F0000003F0000003F0000DA
:101A1000003E00000039FFFE0023FFFF800FFFFFA4
:101A2000E027FFFFC039FFFF183E0000783F0001AC
:101A3000F83F0001F83F0001F83F0001F83F0001C6
:101A4000F83F0001F83F0001F83F0001F83F0001B6
:101A5000F83F0001F83F0001F83F0001F83F0001A6
:101A6000F83F0001F81E0000F00CFFFE6001FFFFD0
:101A70000003FFFF8001FFFF0000FFFE00000000E9
:101A80000000000000000000000000000000FFFE59
:101A90000001FFFF0003FFFF8001FFFF6000FFFE6A
:101AA000F0000001F8000001F8000001F80000015A
:101AB000F8000001F8000001F8000001F800000142
:101AC000F8000001F8000001F8000001F800000132
:101AD000F8000001F8000001F800000078000000A4
:101AE00018000000080000000000000000000000D6
:101AF0001800000078000001F8000001F800000163
:101B0000F8000001F8000001F8000001F8000001F1
:101B1000F8000001F8000001F8000001F8000001E1
:101B2000F8000001F8000001F8000001F8000000D2
:101B3000F000000060000000000000000000000055
:101B40000000000000000000000000000000000095
:101B5000000000000000FFFE0001FFFF0003FFFF88
:101B60008001FFFF600CFFFEF01E0001F83F000146
:101B7000F83F0001F83F0001F83F0001F83F000185
:101B8000F83F0001F83F0001F83F0001F83F000175
:101B9000F83F0001F83F0001F83F0001F83F000165
:101BA000F83E00007839FFFE1823FFFF880FFFFF83
:101BB000E027FFFFC039FFFF183E0000783F00011B
:101BC000F83F0001F83F0001F83F0001F83F000135
:101BD000F83F0001F83F0001F83F0001F83F000125
:101BE000F83F0001F83F0001F83F0001F83F000115
:101BF000F83F0001F81E0000F00CFFFE6001FFFF3F
:101C00000003FFFF8001FFFF0000FFFE0000000057
:101C10000000000000000000000000000000FFFEC7
:101C20000001FFFF0003FFFF8001FFFF600CFFFECC
:101C3000F01E0001F83F0001F83F0001F83F0001ED
:101C4000F83F0001F83F0001F83F0001F83F0001B4
:101C5000F83F0001F83F0001F83F0001F83F0001A4
:101C6000F83F0001F83F0001F83E00007839FFFE20
:101C70001823FFFF880FFFFFE007FFFFC001FFFFF2
:101C80001800000078000001F8000001F8000001D1
:101C9000F8000001F8000001F8000001F800000160
:101CA000F8000001F8000001F8000001F800000150
:101CB000F8000001F8000001F8000001F800000041
:101CC000F000FFFE6001FFFF0003FFFF8001FFFF48
:101CD0000000FFFE000000000000000000000021E6
:101CE00000240027002A002D0030003300010100ED
:101CF00000040107010A0100002200250028002B32
:101D0000002E003100340002010000050108010B23
:101D100001000020002300260029002C002F0032A3
:101D20000000010000030106010901050505050782
:101D30000508080808020202020A0A080804040446
:101D40000401010101010101010303030303030372
:101D500003040707070C0C0C0C0C0C0C0C02020201
:101D60000206060606060606060B0B0B0B0B0B0BF4
:101D70000B01021020200808102040102040800293
:101D800001020108040201010204081020408080C1
:101D90004020100804020180040201804020100845
:101DA000040201080402010102040810204080011D
:101DB000020408102040800000090A02080B0C0DE4
:101DC00007060304010000000000000000000000FE
:101DD0000000000000000000000000000000000003
:101DE00000000011100F00000000000000000000C3
:101DF00000000000000000000000000000494E4606
:101E0000494E4954594E414ECDCCCC3D0AD7233C86
:101E100017B7D13877CC2B329595E6241FB14F0AEE
:101E2000000020410000C84200401C4620BCBE4CBF
:101E3000CA1B0E5AAEC59D74F0192F73EFB0EB1983
:101E400011241FBECFEFD1E2DEBFCDBF00E00CBF3B
:101E50001FE0A0E0B2E0EAE5F9E701E00BBF02C055
:101E600007900D92AA38B107D9F71BBE18E1AAE86E
:101E7000BFE001C01D92A038B107E1F71EE1CEE33B
:101E8000DEE104C02297FE010E945BBCC833D1078B
:101E9000C9F70E940DB20C94A1BC0C940000CF9322
:101EA000DF93BC018230910510F462E070E0A091F4
:101EB0007C18B0917D18ED01E0E0F0E040E050E0EA
:101EC00021C0888199818617970769F48A819B814F
:101ED000309719F09383828304C090937D18809388
:101EE0007C18FE0134C06817790738F44115510594
:101EF00019F08417950708F4AC01FE018A819B81D3
:101F00009C01E9012097E9F641155105A9F1CA01A3
:101F1000861B970B049708F4BA01E0E0F0E02AC0B2
:101F20008D919C91119784179507F9F464177507A3
:101F300081F412968D919C911397309719F09383A9
:101F4000828304C090937D1880937C18FD013296A3
:101F50004CC0CA01861B970BFD01E80FF91F619366
:101F6000719302978D939C9340C0FD018281938170
:101F70009C01D9011097A1F680917A1890917B1855
:101F8000892B41F48091CE0E9091CF0E90937B18C7
:101F900080937A184091D00E5091D10E4115510581
:101FA00041F44DB75EB78091CC0E9091CD0E481B99
:101FB000590B20917A1830917B18CA01821B930B20
:101FC0008617970780F0AB014E5F5F4F8417950728
:101FD00050F0420F531F50937B1840937A18F90129
:101FE0006193719302C0E0E0F0E0CF01DF91CF9107
:101FF0000895CF93DF93009709F450C0EC01229726
:102000001B821A82A0917C18B0917D18109709F15B
:1020100040E050E0AC17BD0708F1BB83AA83FE0186
:1020200021913191E20FF31FAE17BF0779F48D9123
:102030009C911197280F391F2E5F3F4F39832883BA
:1020400012968D919C9113979B838A83411551051C
:1020500071F4D0937D18C0937C1820C012968D9196
:102060009C911397AD01009711F0DC01D3CFFA01D9
:10207000D383C28321913191E20FF31FCE17DF0783
:1020800069F488819981280F391F2E5F3F4FFA012B
:10209000318320838A819B8193838283DF91CF91D7
:1020A0000895A0E0B0E0E7E5F0E10C9472BCEC012B
:1020B000A880B980CA80DB80A114B104C104D10416
:1020C00041F484E2A82E89EDB82E8BE5C82E87E076
:1020D000D82EC601B5012DE133EF41E050E00E945A
:1020E0003EBC27EA31E440E050E00E94CABB7B01DD
:1020F0008C01C601B5012DE133EF41E050E00E94B3
:102100003EBCCA01B9012CEE34EF4FEF5FEF0E94E5
:10211000CABB6E0D7F1D801F911F97FF04C06150C9
:10212000704080409048688379838A839B839B01B9
:10213000AC015F77B901CA01CDB7DEB7EAE00C9414
:102140008EBCAFCF82ED9EE0ACCF6093D20E709389
:10215000D30E8093D40E9093D50E0895A0E0B0E0F6
:10216000E4EBF0E10C946CBC6C01009721F4CB0122
:1021700096DE6C01BDC08EEF882E8FEF982E8C0CF2
:102180009D1C8601060F171F0815190508F4AEC01F
:10219000F401A081B181A617B707B0F0A530B10551
:1021A00008F4A6C0CD0104978617970708F4A0C0CD
:1021B0001297A61BB70BF801A193B193D4016D93AD
:1021C0007C93CF0116DF94C07B01EA1AFB0AEEEF85
:1021D000FFEFEE0EFF1E36016A0E7B1EC0917C18CB
:1021E000D0917D1844245524AA24BB244AC0C61586
:1021F000D705E1F5488159814E155F05B8F1CA014F
:1022000004978E159F05B0F41296A40FB51FF40124
:10221000B183A0832A813B814114510431F0D20162
:1022200013963C932E93129763C030937D1820939E
:102230007C185EC08A819B81F8019383828342501F
:1022400050404E195F09518340834114510431F0CD
:10225000D20113961C930E93129704C010937D180D
:1022600000937C18F4017183608342C08881998156
:10227000A816B90608F45C012E018A819B819C0195
:10228000E901209709F0B3CF80917A1890917B18DB
:1022900086159705E9F4A616B706D0F42091D00E5E
:1022A0003091D10E2115310541F42DB73EB7809103
:1022B000CC0E9091CD0E281B390B02171307B0F4EA
:1022C00010937B1800937A18D4016D937C9310C0FF
:1022D000CB01E5DDEC01009749F0F401408151812B
:1022E000B6015FD0C60185DE6E0102C0CC24DD24BC
:1022F000C601CDB7DEB7E0E10C9488BC662777272E
:10230000C8C0FC0188279927E89421912032E9F37D
:10231000293010F02E30C8F32B3239F02D3231F441
:10232000689403C0AED0820F911D219120532A30B2
:10233000C8F31EF4909581959F4F08951F93FC015B
:1023400099278827BC01E89411911032E9F31930DC
:1023500010F01E30C8F31B3249F01D3241F468946E
:1023600005C07AD0610F711D811D911D119110530F
:102370001A30B8F33EF490958095709561957F4F33
:102380008F4F9F4F1F910895FB01DC0104C08D9179
:102390000190801921F441505040C8F7881B990BD7
:1023A0000895FB01DC0102C001900D9241505040A4
:1023B000D8F70895FC018191861721F08823D9F779
:1023C000992708953197CF010895FB01DC018D9184
:1023D000019080190110D9F3990B0895FB01DC01DC
:1023E00001900D920020E1F70895FB01DC014150BE
:1023F000504030F08D910190801919F40020B9F708
:10240000881B990B0895FB01DC014150504048F0B6
:1024100001900D920020C9F701C01D92415050401B
:10242000E0F70895FB0151915523A9F0BF01DC01AC
:102430004D9145174111E1F759F4CD01019000206C
:1024400049F04D9140154111C9F3FB014111EFCF06
:1024500081E090E001970895592F482F372F262FBC
:10246000660F771F881F991F660F771F881F991F98
:10247000620F731F841F951F660F771F881F991F98
:1024800008957AE0979F902D879F802D910D1124BC
:102490000895A0E0B0E0EFE4F2E10C9470BCEC0130
:1024A0005B016115710519F0FB0191838083F9903F
:1024B0008F2D90E00E945FBC892BC9F7FDE2FF16CB
:1024C00021F4F990EE24E39405C02BE2F21609F40E
:1024D000F990EE248E0101501040C8016DEF7DE1AE
:1024E00043E050E033D1892BF9F48E010E5F1F4F8A
:1024F000C80160E07EE145E050E028D1892B19F465
:102500008E01095F1F4FA114B10419F0F501118369
:102510000083E0FC04C070E090E080E813C070E04D
:1025200090E080E86FEF07C1C80165E07EE143E01D
:1025300050E00CD1892B69F4A114B10429F470E0A6
:1025400090E080EC6FE7F7C02296F501D183C0835D
:10255000F6CF8824992440E050E060E070E0EF2D51
:10256000E053EA30A0F5F2E0EF2A8E2D90E09C01D6
:1025700028703070E2FE06C0232B79F50894811C88
:10258000911C2BC0232B19F0089481089108DB01C2
:10259000CA0112E0880F991FAA1FBB1F1A95D1F715
:1025A000480F591F6A1F7B1F440F551F661F771F57
:1025B0004E0F511D611D711D483929E9520729E946
:1025C000620729E1720748F084E0E82A06C0EE3F7E
:1025D00031F4E3FC39C098E0E92AF990C0CFE53343
:1025E00011F0E53189F529912D3219F4E0E1EE2A57
:1025F00005C02B3219F081E090E003C0299182E000
:1026000090E0E22FE053EA3018F0C81BD90B1CC051
:1026100020E030E0FCE020383F075CF4C901880F7F
:10262000991F880F991F280F391F220F331F2E0F54
:10263000311DE991E053EA3068F3E4FE03C03095C0
:1026400021953F4F820E931ECE2CDD24E1FE07C064
:10265000A114B10421F02197F501D183C083CB01EE
:10266000BA010E94CEB97B018C01F3E0CF22DD24B8
:1026700023E0C216D10421F417FB109517F9109529
:1026800057016801C801B70120E030E040E050E0A8
:102690000E942EB9882309F44AC097FE0DC02CE190
:1026A000E22E2EE1F22E9094819491089394C0E250
:1026B000D0E000E010E012C094E3E92E9EE1F92E94
:1026C000F6CFF7012591359145915491C601B50199
:1026D0000E94C6BA5B016C018C1A9D0A8C169D067D
:1026E00084F7D595C7950F5F1F4F0630110529F068
:1026F0008CEF9FEFE80EF91EF1CFC501D6017C01EA
:102700008D018C2D880F8D2D881F8F3F51F0C601B4
:10271000B50120E030E040E050E00E942EB988236F
:1027200031F482E290E090937F1880937E187E2DA2
:102730009F2D802F612F272F392F482F562FB9011A
:10274000CA01CDB7DEB7ECE00C948CBCFB01DC0118
:102750004150504088F08D9181341CF08B350CF441
:10276000805E659161341CF06B350CF4605E861BF5
:10277000611171F3990B0895881BFCCF982F8091FC
:10278000250F813049F59430B9F0953030F491300F
:1027900059F0923009F0AAC0AAC09530A9F096303D
:1027A00009F0A4C083E208958091A610882311F453
:1027B00080E2089581E208958091E80E882311F463
:1027C00085E0089584E0089580918E0F882311F4A8
:1027D00087E0089588E008958091250F8630C9F438
:1027E000943009F486C0953030F4923061F0933023
:1027F00009F07CC00AC0953021F0963009F076C00F
:1028000006C089E008958AE0089583E1089582E191
:1028100008958091250F8430C9F4943009F469C07B
:10282000953030F4923061F0933009F05FC00AC007
:10283000953021F0963009F059C006C08BE108951B
:102840008CE108958AE1089589E108958091250F2A
:102850008530C1F4943009F44CC0953030F4923096
:1028600059F0933009F042C009C0953019F0963004
:10287000E9F506C085E1089586E1089588E10895A7
:1028800087E108958091250F8330D1F4943051F081
:10289000953018F4923051F507C0953039F09630E4
:1028A00029F506C08FE008958CE008958BE0089527
:1028B0008091A510882311F480E1089582E20895A3
:1028C0008091250F873091F4933051F0943018F4B3
:1028D000923061F407C0943061F0953039F404C04F
:1028E0008EE108958FE108958DE10895089582E0C5
:1028F000089584E10895AF92BF92CF92DF92EF9254
:10290000FF920F931F936E157F058007910734F494
:102910002E153F054007510764F42CC0E616F70654
:102920000807190794F4A216B306C406D5063CF4AA
:1029300023C0A216B306C406D506BCF41FC02A15D0
:102940003B054C055D05C4F41BC06E157F05800773
:10295000910791F42A153B054C055D058CF0A216F4
:10296000B306C406D50644F409C02A153B054C0538
:102970005D0511F484E005C082E003C083E001C07E
:1029800081E01F910F91FF90EF90DF90CF90BF906B
:10299000AF900895EF92FF920F931F937B018C01EC
:1029A000662757FD6095762FCB01BA010E94D0B9FA
:1029B0002091960F3091970F4091980F5091990F59
:1029C0000E94C6BAA80197010E9435B97B018C010B
:1029D00020E030E040E050E40E94C2BA87FF03C02C
:1029E00061E070E004C0C801B7010E949DB9CB014D
:1029F0001F910F91FF90EF9008956F927F928F92A9
:102A00009F92AF92BF92CF92DF92EF92FF920F937D
:102A10001F93CF93DF937C015B01662757FD609581
:102A2000762FCB01BA010E94D0B93B014C0100279F
:102A3000F7FC0095102FC801B7010E94D0B97B01A7
:102A40008C01CC24B7FCC094DC2CC601B5010E94DB
:102A5000D0B99B01AC01C801B7010E9435B9A401EE
:102A600093010E94C6BA9B01AC01C401B3010E944C
:102A7000C9B87B018C010E949DB9EB01BE0188277A
:102A800077FD8095982F0E94D0B99B01AC01C801B9
:102A9000B7010E94C9B820E030E040E05FE30E9447
:102AA000C2BA18160CF42196CE01DF91CF911F9176
:102AB0000F91FF90EF90DF90CF90BF90AF909F90DD
:102AC0008F907F906F900895CF92DF92EF92FF9258
:102AD0000F931F93CF93DF93EC016B016881798192
:102AE0008A819B8120912A0F30912B0F40912C0FCE
:102AF00050912D0F0E94C6BA688379838A839B8385
:102B0000F601608171818281938120912E0F309135
:102B10002F0F4091300F5091310F0E94C6BA7B01A8
:102B20008C01F60160837183828393832091D0129C
:102B30003091D112C9018E978A35910580F4288190
:102B400039814A815B81D801C701B0588883998354
:102B5000AA83BB83208331834283538329C0C90165
:102B6000885890408A35910580F488819981AA819E
:102B7000BB81B05888839983AA83BB83F601808187
:102B80009181A281B381B0580FC0225E30402A35B6
:102B9000310570F488819981AA81BB81E882F9822C
:102BA0000A831B83B058F60180839183A283B38389
:102BB000688179818A819B812091D2123091D312D0
:102BC0004091D4125091D5120E94CAB8688379837B
:102BD0008A839B83F6016081718182819381209138
:102BE000D6123091D7124091D8125091D9120E942A
:102BF000CAB8F6016083718382839383DF91CF919A
:102C00001F910F91FF90EF90DF90CF9008952F923A
:102C10003F924F925F926F927F928F929F92AF926C
:102C2000BF92CF92DF92EF92FF920F931F931B01FF
:102C30002C0139014A01E0909E0FF0909F0F009106
:102C4000A00F1091A10FC801B701A80197010E9420
:102C5000CABB0E94D0B95B016C01C401B301A401DD
:102C600093010E94C6BA9B01AC01C601B5010E9446
:102C7000C9B85B016C01C201B101A20191010E94BE
:102C8000C6BA9B01AC01C601B5010E94CAB85B017E
:102C90006C01EE0CFF1C001F111FC801B7010E9440
:102CA000D0B99B01AC01C601B5010E9435B91F9195
:102CB0000F91FF90EF90DF90CF90BF90AF909F90DB
:102CC0008F907F906F905F904F903F902F900895DE
:102CD0000F931F93CF93DF93242F2627A22FB0E0CB
:102CE000AF70B070AA0FBB1FAA0FBB1FC0E9D1E025
:102CF000AC0FBD1FFD010591159125913491E4E0C4
:102D00009695879577956795EA95D1F706271727C2
:102D10002827392742954F70402750E04F70507058
:102D2000440F551F440F551F4C0F5D1FFA0185912D
:102D30009591A591B49144E03695279517950795FF
:102D40004A95D1F7082719272A273B27B801C90137
:102D5000DF91CF911F910F910895CF92DF92EF9263
:102D6000FF920F931F938130910509F032C26F5F7C
:102D70007F4F09F029C388E491E160E072E00E948E
:102D8000FFB78BE89FE00E946E6E8FE89FE064E0E3
:102D900072E00E94FFB78FE491E165E072E00E946B
:102DA000FFB76091DC0E7091DD0E882777FD80956E
:102DB000982F2091D60E3091D70E442737FD40959D
:102DC000542F0E94CABB0E94D0B97B018C01609134
:102DD000D80E7091D90E8091DA0E9091DB0EA80179
:102DE00097010E9435B96093960F7093970F809367
:102DF000980F9093990FC801B7012091D80E309188
:102E0000D90E4091DA0E5091DB0E0E9435B97B014C
:102E10008C0160939A0F70939B0F80939C0F9093FB
:102E20009D0F6091260F7091270F882777FD809561
:102E3000982F0E94D0B9A80197010E94C6BA0E949B
:102E40009DB960939E0F70939F0F8093A00F9093F6
:102E5000A10F6091280F7091290F882777FD809529
:102E6000982F0E94D0B9A80197010E94C6BA0E946B
:102E70009DB96093A20F7093A30F8093A40F9093BA
:102E8000A50F86E591E16EE072E00E94FFB78DE547
:102E900091E160E172E00E94FFB784E691E164E1B4
:102EA00072E00E94FFB78BE691E16CE172E00E9454
:102EB000FFB782E791E16FE472E00E94FFB789E714
:102EC00091E16FE472E00E94FFB780E891E16FE466
:102ED00072E00E94FFB787E891E16FE472E00E9420
:102EE000FFB78EE891E16EE572E00E94FFB785E9D9
:102EF00091E168E672E00E94FFB78CE991E16FE62C
:102F000072E00E94FFB783EA91E167E772E00E94F6
:102F1000FFB78AEA91E162E872E00E94FFB781EBB5
:102F200091E16EE871E10E94ADB886EB9FE064E04C
:102F300072E00E94FFB788EB91E168E872E00E94BE
:102F4000FFB78FEB91E16AE872E00E94FFB786EC71
:102F500091E16FE872E00E94FFB78DEC91E163E9C7
:102F600072E00E94FFB784ED91E167E972E00E9490
:102F7000FFB78BED91E16BE972E00E94FFB782EE43
:102F800091E16FE972E00E94FFB789EE91E163EA97
:102F900072E00E94FFB780EF91E167EA72E00E9461
:102FA000FFB787EF91E16BEA72E00E94FFB78EEF07
:102FB00091E16FEA72E00E94FFB785E092E163EB76
:102FC00072E00E94FFB78CE092E167EB72E00E9432
:102FD000FFB783E192E16BEB72E00E94FFB78AE1F9
:102FE00092E16FEB72E00E94FFB781E292E163EC45
:102FF00072E00E94FFB788E292E167EC72E00E9403
:10300000FFB78FE292E16BEC72E00E94FFB786E3BC
:1030100092E16FEC72E00E94FFB78DE392E163ED05
:1030200072E00E94FFB784E492E167ED72E00E94D3
:10303000FFB78BE492E16BED72E00E94FFB782E58F
:1030400092E16FED72E00E94FFB789E592E163EED5
:1030500072E00E94FFB780E692E167EE72E00E94A4
:10306000FFB787E692E16BEE72E00E94FFB78EE653
:1030700092E16FEE72E00E94FFB785E792E163EFA5
:1030800072E00E94FFB78CE792E167EF72E00E9466
:10309000FFB783E892E16BEF72E00E94FFB78AE826
:1030A00092E16FEF72E00E94FFB781E992E163E085
:1030B00073E00E94FFB788E992E167E073E00E9445
:1030C000FFB78FE992E16BE073E00E94FFB786EAF9
:1030D00092E16FE073E00E94FFB78DEA92E163E155
:1030E00073E00E94FFB784EB92E167E173E00E9416
:1030F000FFB78BEB92E16BE173E00E94FFB782ECCC
:1031000092E16FE173E00E94FFB789EC92E163E224
:1031100073E00E94FFB786EC9FE066E046E250E075
:1031200027E230E008E210E079E2E72EF12CCC242F
:10313000DD240E947BA480EF9FE06BE04CE022E165
:1031400003E1B2E0EB2E0E9418A682E290E164E077
:1031500072E00E94FFB78CE290E164E072E00E94AE
:10316000FFB7109238101092391010923C10109244
:103170003E1082E090E0A0E0B0E080933F1090939A
:103180004010A0934110B09342101092561010922C
:10319000601010925F1085E79FE090935E1080931F
:1031A0005D10109262108AE790E10E94997188EA9E
:1031B00090E161E044E025E004E0A5E0EA2E0E9411
:1031C000A66C8CEE90E161E047E028E00E94A66CDE
:1031D000FBC0892B09F0F8C06F5F7F4F09F0F4C086
:1031E0008AE790E10E94AC718CE290E10E94BFB846
:1031F00082E290E10E94BFB889EC92E10E94BFB8E0
:1032000082EC92E10E94BFB88BEB92E10E94BFB8C2
:1032100084EB92E10E94BFB88DEA92E10E94BFB8B0
:1032200086EA92E10E94BFB88FE992E10E94BFB89E
:1032300088E992E10E94BFB881E992E10E94BFB89B
:103240008AE892E10E94BFB883E892E10E94BFB889
:103250008CE792E10E94BFB885E792E10E94BFB877
:103260008EE692E10E94BFB887E692E10E94BFB865
:1032700080E692E10E94BFB889E592E10E94BFB862
:1032800082E592E10E94BFB88BE492E10E94BFB850
:1032900084E492E10E94BFB88DE392E10E94BFB83E
:1032A00086E392E10E94BFB88FE292E10E94BFB82C
:1032B00088E292E10E94BFB881E292E10E94BFB829
:1032C0008AE192E10E94BFB883E192E10E94BFB817
:1032D0008CE092E10E94BFB885E092E10E94BFB805
:1032E0008EEF91E10E94BFB887EF91E10E94BFB8D5
:1032F00080EF91E10E94BFB889EE91E10E94BFB8D2
:1033000082EE91E10E94BFB88BED91E10E94BFB8BF
:1033100084ED91E10E94BFB88DEC91E10E94BFB8AD
:1033200086EC91E10E94BFB88FEB91E10E94BFB89B
:1033300088EB91E10E94BFB886EB9FE00E94BFB886
:1033400081EB91E10E94BFB88AEA91E10E94BFB887
:1033500083EA91E10E94BFB88CE991E10E94BFB875
:1033600085E991E10E94BFB88EE891E10E94BFB863
:1033700087E891E10E94BFB880E891E10E94BFB860
:1033800089E791E10E94BFB882E791E10E94BFB84E
:103390008BE691E10E94BFB884E691E10E94BFB83C
:1033A0008DE591E10E94BFB886E591E10E94BFB82A
:1033B0008FE491E10E94BFB88FE89FE00E94BFB800
:1033C00088E491E10E94BFB81F910F91FF90EF90A8
:1033D000DF90CF90089580E090E06FEF7FEFBDCC5D
:1033E00081E090E06FEF7FEFB8CCCF92DF92EF9269
:1033F000FF920F931F93CF93DF936C01EE24EA9417
:10340000FE2C8701C0E0D0E00BC0C601BE010E94C7
:103410005FB5482FC801B7015BDC7B018C012196A9
:10342000F60184819581C817D90778F3A80197011F
:103430002095309540955095B901CA01DF91CF9103
:103440001F910F91FF90EF90DF90CF9008950F9311
:103450001F9384E090E00E944F0F8C010E94F90FAF
:103460002DB73EB7201B310BC9011F910F91089555
:10347000EEDF9C018091AA0F9091AB0F28173907BE
:10348000D1F03093AB0F2093AA0F8DEF97E164E654
:1034900071E10E9496B46091AA0F7091AB0F8DEF0D
:1034A00097E14AE050E00E94B3B38DEF97E16FEBF4
:1034B00071E10C94C8B408958DEF97E165E971E16D
:1034C0000C94C8B48DEF97E16EE871E10C94C8B428
:1034D000AF92BF92CF92DF92EF92FF920F931F9322
:1034E0007B018C01CA01B9010E94C6BA5B016C0163
:1034F000C801B701A80197010E94C6BA9B01AC019F
:10350000C601B5010E94C9B80E9433BB1F910F913B
:10351000FF90EF90DF90CF90BF90AF9008956F92A3
:103520007F928F929F92AF92BF92CF92DF92EF9253
:10353000FF920F931F937B018C0169DB5B016C0190
:10354000A8019701C5DF3B014C01E090F80EF09017
:10355000F90E0091FA0E1091FB0EC801B7010E94FE
:10356000D0B99B01AC01C601B5010E942EB987FDFF
:103570004AC08091000F9091010FA091020FB0916D
:10358000030FE80EF91E0A1F1B1FC801B7010E9496
:10359000D0B99B01AC01C601B5010E94C2BA181690
:1035A00094F1E090FC0EF090FD0E0091FE0E109153
:1035B000FF0EC801B7010E94D0B99B01AC01C40144
:1035C000B3010E942EB987FD1EC0DD248091040F37
:1035D0009091050FA091060FB091070FE80EF91E0C
:1035E0000A1F1B1FC801B7010E94D0B99B01AC0183
:1035F000C401B3010E94C2BA181614F4DD24D39496
:1036000081E0D82601C0DD248D2D1F910F91FF9000
:10361000EF90DF90CF90BF90AF909F908F907F9072
:103620006F900895AF92BF92CF92DF92EF92FF9288
:103630000F931F937B018C0159016A0160919E0FCA
:1036400070919F0F8091A00F9091A10F0E94D0B90F
:10365000A80197010E94C9B89B01AC010E94C6BA9B
:103660007B018C01C601B501A60195010E94C6BA75
:103670009B01AC01C801B7010E94CAB80E9433BBCC
:103680001F910F91FF90EF90DF90CF90BF90AF9080
:103690000895AF92BF92CF92DF92EF92FF920F9375
:1036A0001F937B018C0159016A01A80197010E94B7
:1036B000C6BA7B018C01C601B501A60195010E9425
:1036C000C6BA9B01AC01C801B7010E94CAB80E94EA
:1036D00033BB1F910F91FF90EF90DF90CF90BF9081
:1036E000AF9008952F923F924F925F926F927F9288
:1036F0008F929F92AF92BF92CF92DF92EF92FF9202
:103700000F931F93DF93CF9300D00F92CDB7DEB707
:1037100069837A838B839C8359016A01170128018D
:10372000611571058105910559F40F2EF0E0EF2E1A
:10373000F0E0FF2EF0E00F2FF0E01F2FF02DA4C0DF
:10374000CA01B9010E94C6BA7B018C01C601B5014C
:1037500020E030E040E050E00E942EB9882324F4BD
:1037600017FB109517F91095C201B101A201910143
:103770000E94CAB83B014C01C801B701A4019301E2
:103780000E9435B97B018C0169817A818B819C8192
:103790000E94D0B99B01AC01C801B7010E942EB9AB
:1037A0008823B4F5C601B50120E030E040E050E0E8
:1037B0000E942EB9882329F4C401B3010E9433BBAF
:1037C0000DC0C201B101A60195010E9435B99B014E
:1037D000AC015F77C601B5010E94CAB87B018C01BC
:1037E000D090DE0EC090DF0EB090E00EA090E10E03
:1037F0002D2D3C2D4B2D5A2D0E94C2BA18160CF0BF
:1038000043C08D2D9C2DAB2DBA2D7C018D013CC06C
:10381000C601B50120E030E040E050E00E942EB942
:10382000882359F4C401B3010E9433BB7B018C018E
:1038300017FB109517F910950FC0C201B101A60131
:1038400095010E9435B99B01AC015F77C601B501B6
:103850000E94C9B87B018C018091DE0E9091DF0E31
:10386000A091E00EB091E10E5C016D01D7FAD09409
:10387000D7F8D094C801B701A60195010E942EB9CE
:10388000882314F486017501B701C8010F900F90C9
:103890000F900F90CF91DF911F910F91FF90EF90BC
:1038A000DF90CF90BF90AF909F908F907F906F9060
:1038B0005F904F903F902F9008958091E70E88235E
:1038C000F1F18DEF97E16AEA71E10E9496B488EA1E
:1038D00090E10E94F9672091DC0E3091DD0E4427C3
:1038E00037FD4095542F0E943EBC8DEF97E1BA0101
:1038F000A9012AE030E00E9463B38DEF97E168EB05
:1039000071E10E9496B48CEE90E10E94F9672091DB
:10391000DC0E3091DD0E442737FD4095542F0E9478
:103920003EBC8DEF97E1BA01A9012AE030E00E9488
:1039300063B38DEF97E16FEB71E10C94C8B4089518
:10394000EF92FF920F931F938091A60F9091A70F74
:10395000A091A80FB091A90F0097A105B10509F09A
:103960003FC060919E0F70919F0F8091A00F90912A
:10397000A10F0E94D0B97B018C016091A20F7091C0
:10398000A30F8091A40F9091A50F0E94D0B99B0125
:10399000AC01C801B7017DDE20E030E040E05FE32C
:1039A0000E94CAB80E949DB96093A60F7093A70F9A
:1039B0008093A80F9093A90F8DEF97E167E273E0D2
:1039C0000E94E2B34091A60F5091A70F6091A80FFB
:1039D0007091A90F8DEF97E12AE030E00E94A1B32A
:1039E0006091A60F7091A70F8091A80F9091A90FD9
:1039F0001F910F91FF90EF9008958DEF97E16EE387
:103A000073E00C9485B48DEF97E168E272E00E9458
:103A10008FB210922B1008958F929F92AF92BF9207
:103A2000CF92DF92EF92FF920F931F936C017B0175
:103A30008DEF97E165E573E00E94E2B38DEF97E1CA
:103A4000B6014AE050E00E94B3B38DEF97E16EE516
:103A500073E00E94E2B38DEF97E1B7014AE050E0D6
:103A60000E94C5B38DEF97E163E673E00E94E2B375
:103A700060919F107091A0108DEF97E14AE050E0A7
:103A80000E94C5B38DEF97E163E773E00E94E2B354
:103A900040919510509196106091971070919810E8
:103AA0008DEF97E12AE030E00E94A1B34601AA24FD
:103AB00097FCA094BA2C80919F109091A010AA27F7
:103AC00097FDA095BA2F880E991EAA1EBB1E00272F
:103AD000F7FC0095102F2091951030919610409191
:103AE000971050919810C801B7010E94CABB860E6A
:103AF000971EA81EB91E8DEF97E16DE773E00E9437
:103B0000E2B38DEF97E1B501A4012AE030E00E9415
:103B100063B38091A1109091A210A091A310B091D5
:103B2000A41088159905AA05BB0514F41FEF18C049
:103B30008AE790E1B501A4010E9433728AE790E11F
:103B40000E944372182F8DEF97E166E873E00E94A0
:103B5000E2B38DEF97E1612F4AE050E00E9447B356
:103B6000812F1F910F91FF90EF90DF90CF90BF902A
:103B7000AF909F908F9008950F931F93CF93DF93F3
:103B8000EC018B018DEF97E165E973E00E94E2B3F0
:103B90008DEF97E1BE014AE050E00E94B3B38DEF94
:103BA00097E168E973E00E94E2B38DEF97E1B80115
:103BB0004AE050E00E94C5B38091301190E0C817F0
:103BC000D9079CF08091321190E08C179D076CF022
:103BD0008091311190E0081719073CF08091331162
:103BE00090E0801791070CF083C08091341190E031
:103BF000C817D907A4F08091361190E08C179D0763
:103C000074F08091351190E00817190744F0809105
:103C1000331190E08017910714F082E06AC0809120
:103C2000381190E0C817D907A4F080913A1190E0BC
:103C30008C179D0774F08091391190E008171907CF
:103C400044F080913B1190E08017910714F083E0DD
:103C500050C080913C1190E0C817D907A4F0809122
:103C60003E1190E08C179D0774F080913D1190E01B
:103C70000817190744F080913F1190E080179107D1
:103C800014F084E036C08091401190E0C817D90745
:103C9000A4F08091421190E08C179D0774F0809100
:103CA000411190E00817190744F08091431190E00A
:103CB0008017910714F085E01CC08091441190E0BA
:103CC000C817D907A4F08091461190E08C179D0782
:103CD00074F08091451190E00817190744F0809125
:103CE000471190E08017910714F086E002C001C0F0
:103CF00081E0DF91CF911F910F9108956F927F9294
:103D00008F929F92AF92BF92CF92DF92EF92FF92EB
:103D10000F931F93DF93CF93CDB7DEB7A3970FB663
:103D2000F894DEBF0FBECDBF6DB67EB68AE790E1D8
:103D300040E050E060E070E00E9433727E01089441
:103D4000E11CF11CC7016DE973E00E94FFB78AE72F
:103D500090E10E944372182FC70160E070E00E945A
:103D600070B5FC0110838AE790E10E944372182F1E
:103D7000C70161E070E00E9470B5FC011083C701CB
:103D800060EA73E00E9498B6882399F48DEF97E17A
:103D900063EA73E00E94E2B38DEF97E1B7010E94FE
:103DA00096B48DEF97E161EC73E00E9485B410E06A
:103DB00083C18DEF97E16CED73E00E9485B48AE7D3
:103DC00090E10E9443728E01085F1F4FC80164E0BA
:103DD00072E00E94FFB78AE790E10E944372E82EEA
:103DE0008FE0C82ED12CCC0EDD1EF02E012F21C06D
:103DF00083E2E81641F48AE790E10E944372E82EDC
:103E00009AE0E916C1F7C6016F2D702F0E94B6B86F
:103E1000C6016E2D0E94BDB7BC018F2D902F0E9450
:103E200098B8C6010E94C4B88AE790E10E94437224
:103E3000E82E8AE0E81619F090E2E916C9F68DEF4F
:103E400097E162E074E00E94E2B318E0E12EF12C09
:103E5000EC0EFD1E8DEF97E1B7010E94C8B44C85B2
:103E60005D854F5F5F4F8DB79EB7841B950B0FB677
:103E7000F8949EBF0FBE8DBF0DB71EB70F5F1F4FCB
:103E8000902E812EB02EA12EC701B80120E030E087
:103E90000E9449B6C8010E948111AA2797FDA095EA
:103EA000BA2F8093951090939610A0939710B0938B
:103EB00098100A97A105B10544F48DEF97E160EDE4
:103EC00071E00E948FB210E0F3C0C70164E072E0BD
:103ED0000E9431B88AE790E10E944372182FB6E140
:103EE000CB2ED12CCC0EDD1EC701FE2C092F1FC0FE
:103EF000133239F48AE790E10E944372182F8A3016
:103F0000C9F7C6016F2D702F0E94B6B8C601612F88
:103F10000E94BDB7BC018F2D902F0E9498B8C6019A
:103F20000E94C4B88AE790E10E944372182F1A30A9
:103F3000F9F68DEF97E16DE074E00E94E2B3A8E03E
:103F4000CA2ED12CCC0EDD1E8DEF97E1B6010E945A
:103F5000C8B44C855D854F5F5F4FC6016B2D7A2DD0
:103F600020E030E00E9449B6892D982D0E948111F1
:103F7000AA2797FDA095BA2F8093991090939A1035
:103F8000A0939B10B0939C10BC01CD010E94D0B9AE
:103F90007B018C0160919510709196108091971023
:103FA000909198100E94D0B99B01AC01C801B70153
:103FB0000E9435B96093140F7093150F8093160FFC
:103FC0009093170F8DEF97E169E174E00E94E2B3DF
:103FD0004091140F5091150F6091160F7091170FAB
:103FE0008DEF97E122E030E00E9474B4C60164E0F6
:103FF00072E00E9431B88AE790E10E944372182F64
:104000000D2DFDE1EF2EF12CEC0EFD1E16C0C701AB
:104010006C2D702F0E94B6B8C701612F0E94BDB7EA
:10402000BC018C2D902F0E9498B8C7010E94C4B883
:104030008AE790E10E944372182F1A3041F78DEF02
:1040400097E16BE274E00E94E2B38DEF97E16C2D93
:10405000702F0E94C8B44C855D854F5F5F4F8C2DDB
:10406000902F6B2D7A2D20E030E00E9449B6892DEB
:10407000982D0E94811190939E1080939D108AE745
:1040800090E10E94EE717093A01060939F108DEFED
:1040900097E16FE374E00E94E2B360919F1070912A
:1040A000A0108DEF97E14AE050E00E94C5B311E007
:1040B000CE0108960E94BFB8CE0101960E94BFB8FB
:1040C000812F0FB6F8947EBE0FBE6DBEA3960FB6BD
:1040D000F894DEBF0FBECDBFCF91DF911F910F913E
:1040E000FF90EF90DF90CF90BF90AF909F908F9018
:1040F0007F906F900895EF92FF920F931F93DF933D
:10410000CF93CDB7DEB7FC01EDB6FEB64481558145
:104110004F5F5F4F8DB79EB7841B950B0FB6F8941A
:104120009EBF0FBE8DBF0DB71EB70F5F1F4FCF01D4
:10413000B80120E030E00E9449B6C8010E94811118
:104140000FB6F894FEBE0FBEEDBECF91DF911F916A
:104150000F91FF90EF900895EF92FF920F931F93AE
:10416000DF93CF93CDB7DEB727970FB6F894DEBFB6
:104170000FBECDBF8E010F5F1F4FC80162E771E117
:104180000E94ADB8C801B7DF7C01C8010E94BFB86A
:10419000EF2819F4109221100EC080912910882365
:1041A00021F081E08093211006C08DEF97E16DE44E
:1041B00074E00E9485B427960FB6F894DEBF0FBE58
:1041C000CDBFCF91DF911F910F91FF90EF90089598
:1041D0000F931F93DF93CF93CDB7DEB72E970FB614
:1041E000F894DEBF0FBECDBF8E010F5F1F4FC80119
:1041F00062E771E10E94ADB8C8017DDF9093350F91
:104200008093340FC8010E94BFB88E01085F1F4F12
:10421000C80169E771E10E94ADB8C8016CDF9093F5
:10422000330F8093320FC8010E94BFB82E960FB68D
:10423000F894DEBF0FBECDBFCF91DF911F910F91DC
:104240000895EF92FF920F931F93DF93CF93CDB713
:10425000DEB76B970FB6F894DEBF0FBECDBFFC0183
:10426000EDB6FEB6448155814F5F5F4F8DB79EB767
:10427000841B950B0FB6F8949EBF0FBE8DBF0DB774
:104280001EB70F5F1F4FCF01B80120E030E00E9442
:1042900049B6CE01019662E773E1A80121E00E94D0
:1042A0003C758B819C8190937D1080937C108D81D7
:1042B0009E81AF81B88580937E1090937F10A093EC
:1042C0008010B093811089859A85AB85BC858093D9
:1042D000821090938310A0938410B0938510A6E869
:1042E000B0E1FE013D968DE001900D928150E1F725
:1042F0008A8D9B8D9093941080939310CE0101969C
:104300000E94AC718AE790E10E941472882329F41C
:104310008DEF97E161E774E007C0F0DC882341F49A
:104320008DEF97E162E874E00E9485B480E00DC0F3
:104330008AE790E10E9401726093A1107093A2102D
:104340008093A3109093A41081E00FB6F894FEBE62
:104350000FBEEDBE6B960FB6F894DEBF0FBECDBF9D
:10436000CF91DF911F910F91FF90EF900895AF9241
:10437000BF92CF92DF92EF92FF920F931F93DF9342
:10438000CF93CDB7DEB76B970FB6F894DEBF0FBEF5
:10439000CDBF6C01ADB6BEB640913010509131101A
:1043A0004F5F5F4F8DB79EB7841B950B0FB6F89488
:1043B0009EBF0FBE8DBF0DB71EB70F5F1F4F8CE2A4
:1043C00090E1B80120E030E00E9449B67E010894F7
:1043D000E11CF11CC70162E773E1A80123E10E941F
:1043E0003C75C7010E9414728823D1F08DEF97E1CC
:1043F0006AE874E00E94E2B38DEF97E16CE270E14D
:104400000E94C8B4C701B6010E94C8B4C7010E9487
:1044100021728DEF97E16BE974E00E9485B40CC0C6
:104420008DEF97E161EA74E00E94E2B38DEF97E1CE
:104430006CE270E10E94C8B4CE0101960E94AC719A
:104440000FB6F894BEBE0FBEADBE6B960FB6F89415
:10445000DEBF0FBECDBFCF91DF911F910F91FF90B7
:10446000EF90DF90CF90BF90AF900895EF92FF92C2
:104470000F931F9385E361E00E948BAC82E793E189
:1044800065E30E945C76882329F48DEF97E160EB69
:1044900074E06AC08DEF97E16CEC74E00E9485B423
:1044A0008DEF97E16EED74E00E9485B483E390E1B7
:1044B00061E045E30E94B2788823B9F48DEF97E17B
:1044C00066EF74E00E9485B48DEF97E16EE175E0D0
:1044D0000E9485B48DEF97E167E375E00E9485B493
:1044E0008DEF97E161E575E03FC08DEF97E165E9FC
:1044F00075E00E9485B48DEF97E16EEB75E00E9448
:10450000E2B380913E10823049F0833061F0813017
:1045100079F48DEF97E16BEC75E00EC08DEF97E1CC
:104520006FEC75E009C08DEF97E163ED75E004C0B5
:104530008DEF97E168ED75E00E9485B48FE390E11F
:1045400063E370E141E00E94DC83882381F48FE320
:1045500090E163E370E140E00E94DC83882339F45A
:104560008DEF97E160EE75E00E9485B474C08DEF29
:1045700097E16AE276E00E94E2B38DEF97E1609105
:1045800056104AE050E00E9447B38DEF97E10E9439
:104590006FB22091431030E040E050E0609148104D
:1045A0007091491080914A1090914B10E9E0660F8C
:1045B000771F881F991FEA95D1F70E94CABB7B011C
:1045C0008C018DEF97E16EE376E00E94E2B38DEF10
:1045D00097E1B801A7012AE030E00E9425B38DEFF2
:1045E00097E164E576E00E94E2B32AE0169507952C
:1045F000F794E7942A95D1F78DEF97E1B801A701D9
:104600002AE030E00E9425B38DEF97E16BE676E07B
:104610000E94E2B39AE016950795F794E7949A956D
:10462000D1F78DEF97E1B801A7012AE030E00E94B1
:1046300025B38DEF97E162E876E00E9485B48DE5C1
:1046400090E16FE370E10E94F17D8DE590E167E01C
:1046500040E00E94EB7E1F910F91FF90EF90089534
:10466000AF92BF92CF92DF92EF92FF920F931F9380
:1046700088EA90E10E94376E8CEE90E10E94376EDE
:1046800088EA90E10E94E96761157105810591054D
:1046900009F048C06091F80E7091F90E8091FA0E01
:1046A0009091FB0E2091000F3091010F4091020F6D
:1046B0005091030F260F371F481F591F0E9442B504
:1046C0005B016C016091FC0E7091FD0E8091FE0EFD
:1046D0009091FF0E2091040F3091050F4091060F2D
:1046E0005091070F260F371F481F591F0E9442B5D0
:1046F0007B018C01C601B5010E94D0B95B016C0140
:10470000C801B7010E94D0B99B01AC01C601B50137
:104710000E94491B0E949DB9AB01BC0188EA90E14F
:104720000E947E698CEE90E10E94E9676115710537
:104730008105910509F048C06091F80E7091F90E5D
:104740008091FA0E9091FB0E2091000F3091010F95
:104750004091020F5091030F260F371F481F591F1A
:104760000E9442B55B016C016091FC0E7091FD0EE0
:104770008091FE0E9091FF0E2091040F3091050F55
:104780004091060F5091070F260F371F481F591FE2
:104790000E9442B57B018C01C601B5010E94D0B9CF
:1047A0005B016C01C801B7010E94D0B99B01AC014B
:1047B000C601B5010E94121B0E949DB9AB01BC014C
:1047C0008CEE90E10E947E691F910F91FF90EF9017
:1047D000DF90CF90BF90AF900895EF92FF920F932C
:1047E0001F93CF93DF93C0E0D0E08DEF97E16CEBA8
:1047F00076E00E94E2B38DEF97E1BE014AE050E01F
:104800000E94C5B388EA90E10E94E96761157105CD
:104810008105910509F469C08CEE90E10E94E96779
:10482000611571058105910509F45FC088EA90E181
:104830000E94376E8CEE90E10E94376EE3CF6EEFF0
:104840007FEF8FEF9FEF23E030E040E050E00E94E9
:1048500042B57B018C01A701662757FD6095762F35
:1048600088EA90E10E948F698DEF97E165EC76E030
:104870000E94E2B38DEF97E1B7014AE050E00E9459
:10488000C5B38CEE90E10E94E96761157105810561
:10489000910511F56EEF7FEF8FEF9FEF23E030E092
:1048A00040E050E00E9442B57B018C01A7016627E1
:1048B00057FD6095762F8CEE90E10E948F698DEF09
:1048C00097E16BED76E00E94E2B38DEF97E1B701DF
:1048D0004AE050E00E94C5B30E945D1C219683E02F
:1048E000C83ED80709F081CF0AC088EA90E10E944B
:1048F000E967611571058105910519F6A0CFDF9172
:10490000CF911F910F91FF90EF900895AF92BF92BA
:10491000CF92DF92EF92FF920F931F93CF93DF938B
:10492000EC015B016A018BE89FE069E070E00E94A6
:104930000B70CA15DB059CF476010027F7FC009587
:10494000102F8BE89FE0BE010E94F46EC801B701F2
:104950000E94C6AB2196AC16BD069CF712C076012C
:104960000027F7FC0095102F8BE89FE0BE010E9406
:10497000F46EC801B7010E94C6AB2197CA15DB05CA
:104980009CF78BE89FE00E94886EDF91CF911F918A
:104990000F91FF90EF90DF90CF90BF90AF90089570
:1049A000EF92FF920F931F93DF93CF93CDB7DEB7B4
:1049B00027970FB6F894DEBF0FBECDBF8091AC0F26
:1049C0009091AD0F20918E0F029714F1222329F0C0
:1049D000E090DA12F090DB1204C0E0903B0FF09010
:1049E0003C0F8E010F5F1F4FC80162E771E10E940B
:1049F000ADB8C80180DB90933C0F80933B0FC8019A
:104A00000E94BFB860913B0F70913C0FC7010AC074
:104A1000213059F460913B0F70913C0F8091DA1274
:104A20009091DB1243E050E071DF10928E0F2796D9
:104A30000FB6F894DEBF0FBECDBFCF91DF911F91AF
:104A40000F91FF90EF900895EF92FF920F931F93B5
:104A5000DF93CF93CDB7DEB727970FB6F894DEBFBD
:104A60000FBECDBF8091AC0F9091AD0F20918E0FF6
:104A7000029714F1222329F0E090DA12F090DB1271
:104A800004C0E0903B0FF0903C0F8E010F5F1F4F72
:104A9000C80162E771E10E94ADB8C8012CDB9093B8
:104AA000DB128093DA12C8010E94BFB86091DA125B
:104AB0007091DB12C7010AC0222359F46091DA1207
:104AC0007091DB1280913B0F90913C0F43E050E0DE
:104AD0001DDF81E080938E0F27960FB6F894DEBF1E
:104AE0000FBECDBFCF91DF911F910F91FF90EF903F
:104AF0000895EF92FF920F931F93182F06ECE02E6C
:104B00000FE0F02EC70162E344EB22E30E94C78B63
:104B1000212F30E080E391E1F901EE0FFF1FE80F54
:104B2000F91F608141812F5F3F4FF901EE0FFF1F99
:104B3000E80FF91F20810181C70170E050E030E0EB
:104B400010E00E94828CC70162E344EB22E30E94E2
:104B5000CC8BC7016FEF4FEF2FEF0E94C78B1F91D8
:104B60000F91FF90EF9008958F929F92AF92BF9216
:104B7000CF92DF92EF92FF920F931F93DF93CF9329
:104B8000CDB7DEB727970FB6F894DEBF0FBECDBF07
:104B90004C0196ECC92E9FE0D92EC60160E040E0A2
:104BA00020E00E94C78B4091331150E080E3A82E93
:104BB00081E1B82EF50160818A01085E1F4FC601B0
:104BC00070E0465F5F4F2CED30E00E94828CC601A2
:104BD0006FEF4FEF2FEF0E94C78BC60160E040E000
:104BE00020E00E94CC8B7E010894E11CF11CC701DF
:104BF000B4010E94ADB8F50140812091331130E03D
:104C0000265F3F4FC601B70150E000E010E00E9470
:104C10007293C7010E94BFB827960FB6F894DEBF03
:104C20000FBECDBFCF91DF911F910F91FF90EF90FD
:104C3000DF90CF90BF90AF909F908F9008952F926C
:104C40003F924F925F926F927F928F929F92AF921C
:104C5000BF92CF92DF92EF92FF920F931F93DF9359
:104C6000CF93CDB7DEB7E0970FB6F894DEBF0FBE97
:104C7000CDBF4C015B0158AB4FA78DEF97E161EFC2
:104C800076E00E94E2B38DEF97E1B5010E94C8B4CF
:104C90008DEF97E16CE077E00E9485B4109263108D
:104CA00010926410109265101092661010926710A6
:104CB000109268101092691010926A108E010F5FA6
:104CC0001F4FC8016EE177E00E94FFB7C50164E0A5
:104CD00072E00E9498B6882341F4C501B8010E9491
:104CE000EEB6882311F477246CC07724739469C0DE
:104CF0008F85882309F47DC0853E09F472C08E3209
:104D000009F46FC08A8D83FD6CC0C6016EE177E047
:104D10000E94FFB7710100E010E0D7018C91803252
:104D2000C9F0083041F4C60168E070E00E9470B537
:104D3000FC01608202C0083028F0B8016F5F7F4F2D
:104D4000C60102C0C601B8010E9470B5FC01D701BE
:104D50008C9180830F5F1F4F0894E11CF11C0B3076
:104D60001105D9F6EFA5F8A91E161F069CF47720A9
:104D700041F08DEF97E1B6010E94C8B4C401B601BD
:104D800011C0C601B5010E94EEB68823B1F07724A8
:104D9000739413C0C601B5010E94EEB6882349F092
:104DA000C401B2010E94ADB8CE0108960E94BFB8FE
:104DB00024C0C201B6010E9498B8C6010E94BFB8C3
:104DC00010C04FE0242E312C2C0E3D1E38E0C32E97
:104DD000D12CCC0EDD1E2EE2622E2E010894411C39
:104DE000511C8DE590E1B1010E94137D18160CF461
:104DF0007FCFC401B5010E94ADB8CE0101960E94DB
:104E0000BFB8C401E0960FB6F894DEBF0FBECDBFA9
:104E1000CF91DF911F910F91FF90EF90DF90CF9096
:104E2000BF90AF909F908F907F906F905F904F90CA
:104E30003F902F900895EF92FF920F931F93DF936F
:104E4000CF93CDB7DEB727970FB6F894DEBF0FBE6E
:104E5000CDBF86EC9FE060E040E020E00E94C78B81
:104E60004091331150E0609130118A01085E1F4F6C
:104E700086EC9FE070E0465F5F4F2CED30E00E94D3
:104E8000828C86EC9FE06FEF4FEF2FEF0E94C78B75
:104E900086EC9FE060E040E020E00E94CC8B8CE25A
:104EA00090E164E072E00E9498B6882341F48CE2BD
:104EB00090E16EE177E00E9498B6882389F04091F6
:104EC00030112091331130E0265F3F4F86EC9FE098
:104ED0006BE277E050E000E010E00E9427901BC0FA
:104EE0007E010894E11CF11CC7016CE270E10E9494
:104EF000ADB8409130112091331130E0265F3F4F23
:104F000086EC9FE0B70150E000E010E00E94729351
:104F1000C7010E94BFB827960FB6F894DEBF0FBE38
:104F2000CDBFCF91DF911F910F91FF90EF9008952A
:104F30000F931F9390E0FC013197E432F10508F0E4
:104F4000A7C5EE58FF4FEE0FFF1F0590F491E02D1F
:104F5000199480E0CEDD8091230F869590E04091FA
:104F6000301150E04A505040480F591F20913111E4
:104F700030E02C503040280F391F86EC9FE060E372
:104F800077E000E010E00E9427902091230F269503
:104F900030E04091301150E04E505040420F531FCE
:104FA00080913111280F311D86EC9FE064E377E09A
:104FB0006DC580E09EDD8091230F869590E0409145
:104FC000301150E046515040480F591F2091311187
:104FD00030E02C503040280F391F86EC9FE069E309
:104FE00077E000E010E00E9427902091230F2695A3
:104FF00030E04091301150E046505040420F531F76
:1050000080913111280F311D86EC9FE060E477E03C
:105010003DC580E06EDD8091230F869590E0409144
:10502000301150E046515040480F591F2091311126
:1050300030E02C503040280F391F86EC9FE069E3A8
:1050400077E000E010E00E9427902091230F269542
:1050500030E04091301150E04A505040420F531F11
:1050600080913111280F311D86EC9FE063E477E0D9
:105070000DC582E03EDD8091230F869590E0409142
:10508000341150E04E505040480F591F20913511B7
:1050900030E022513040280F391F86EC9FE067E452
:1050A00077E000E010E00E9427908091230F869522
:1050B00090E04091341150E04E505040480F591F3D
:1050C0002091351130E026503040280F391F86ECF2
:1050D0009FE06CE477E00E9427908091230F8695F3
:1050E00090E04091341150E046505040480F591F15
:1050F0002091351130E02A5F3F4F280F391F86EC91
:105100009FE061E577E0C2C484E0F3DC8091230F87
:10511000869590E04091381150E04E505040480F35
:10512000591F2091391130E026503040280F391F87
:1051300086EC9FE064E577E048C384E0DADC8091A8
:10514000230F869590E04091381150E04251504035
:10515000480F591F2091391130E02C503040280F52
:10516000391F86EC9FE069E577E000E010E00E94DF
:1051700027902091230F269530E04091381150E080
:1051800042515040420F531F80913911280F311D59
:1051900086EC9FE06FE577E079C486E0AADC809139
:1051A000230F869590E040913C1150E042515040D1
:1051B000480F591F20913D1130E026503040280FF4
:1051C000391F86EC9FE065E677E0FFC286E091DC60
:1051D0008091230F869590E040913C1150E046511C
:1051E0005040480F591F20913D1130E0265030406B
:1051F000280F391F86EC9FE06BE677E0E6C284E07B
:1052000078DC8091230F869590E04091381150E032
:1052100042515040480F591F2091391130E026501B
:105220003040280F391F86EC9FE062E777E0CDC25F
:1052300088E05FDC8091230F869590E040914011DB
:1052400050E04A505040480F591F2091411130E022
:105250002C503040280F391F86EC9FE068E777E03C
:1052600000E010E00E9427902091230F269530E067
:105270004091401150E046505040420F531F8091E2
:105280004111280F311D86EC9FE06CE777E0FEC3EB
:1052900088E02FDC8091230F869590E040914011AB
:1052A00050E04A505040480F591F2091411130E0C2
:1052B0002C503040280F391F86EC9FE068E777E0DC
:1052C00000E010E00E9427902091230F269530E007
:1052D0004091401150E04E505040420F531F80917A
:1052E0004111280F311D86EC9FE06FE777E0CEC3B8
:1052F00082E0FFDB8091230F869590E0409134118E
:1053000050E04C505040480F591F2091351130E06B
:105310002C503040280F391F86EC9FE064E877E07E
:1053200000E010E00E9427902091230F269530E0A6
:105330004091341150E04C505040420F531F809127
:10534000351129C088E0D5DB8091230F869590E048
:105350004091401150E04C505040480F591F20914F
:10536000411130E02C503040280F391F86EC9FE06F
:105370006EE877E000E010E00E9427902091230F74
:10538000269530E04091401150E04C505040420F83
:10539000531F80914111280F311D78C086E0A9DB91
:1053A0008091230F869590E040913C1150E04E5043
:1053B0005040480F591F20913D1130E02650304099
:1053C000280F391F86EC9FE063E977E0FEC18AE091
:1053D00090DB8091230F869590E04091441150E03E
:1053E0004E505040480F591F2091451130E0225136
:1053F0003040280F391F86EC9FE067E477E018C043
:105400008AE077DB8091230F869590E040914411EC
:1054100050E04E505040480F591F2091451130E048
:1054200022513040280F391F86EC9FE06DE977E06C
:1054300000E010E00E9427908091230F869590E075
:105440004091441150E04E505040480F591F209158
:10545000451130E026503040280F391F86EC9FE080
:1054600068E977E00E9427908091230F869590E06D
:105470004091441150E04E505040480F591F209128
:10548000451130E02A5F3F4F280F391F86EC9FE01F
:1054900069E877E0FBC28AE02CDB8091230F8695D8
:1054A00090E04091441150E04E505040480F591F39
:1054B0002091451130E02C503040280F391F86ECE8
:1054C0009FE064E577E000E010E00E9427902091E3
:1054D000230F269530E04091441150E04A5050404F
:1054E000420F531F80914511280F311D86EC9FE01C
:1054F00062EA77E0CBC282E0FCDA8091230F8695E6
:1055000090E04091341150E04A505040480F591FEC
:105510002091351130E02C503040280F391F86EC97
:105520009FE066EA77E000E010E00E94279020917B
:10553000230F269530E04091341150E04251504005
:10554000420F531F80913511B7C188E0D2DA8091A4
:10555000230F869590E04091401150E04A50504012
:10556000480F591F2091411130E02C503040280F36
:10557000391F86EC9FE060EB77E08DC184E0B9DAFB
:105580008091230F869590E04091381150E04A5069
:105590005040480F591F2091391130E02C503040B5
:1055A000280F391F86EC9FE066EA77E000E010E004
:1055B0000E9427902091230F269530E040913811CA
:1055C00050E042515040420F531F8091391129C081
:1055D0008AE08FDA8091230F869590E04091441104
:1055E00050E04A505040480F591F2091451130E07B
:1055F0002C503040280F391F86EC9FE060EB77E09D
:1056000000E010E00E9427902091230F269530E0C3
:105610004091441150E042515040420F531F80913D
:105620004511280F311D86EC9FE064EB77E02EC218
:1056300082E05FDA8091230F869590E040913411EB
:1056400050E04A505040480F591F2091351130E02A
:105650002C503040280F391F86EC9FE066EA77E037
:1056600000E010E00E9427902091230F269530E063
:105670004091341150E040515040420F531F8091EF
:10568000351129C088E035DA8091230F869590E0A6
:105690004091401150E04A505040480F591F20910E
:1056A000411130E02C503040280F391F86EC9FE02C
:1056B00060EB77E000E010E00E9427902091230F3C
:1056C000269530E04091401150E040515040420F4B
:1056D000531F80914111280F311D86EC9FE06AEB2A
:1056E00077E0D4C184E005DA8091230F869590E0BD
:1056F0004091381150E04A505040480F591F2091B6
:10570000391130E022513040280F391F86EC9FE0DC
:1057100066EA77E075C08AE0ECD98091230F869520
:1057200090E04091441150E04A505040480F591FBA
:105730002091451130E022513040280F391F86EC6E
:105740009FE060EB77E000E010E00E9427908091FE
:10575000230F869590E04091441150E04A5050400C
:10576000480F591F2091451130E026503040280F36
:10577000391F86EC9FE068E777E00E9427908091D0
:10578000230F869590E04091441150E04E505040D8
:10579000480F591F209145115CC086E0AAD980911D
:1057A000230F869590E040913C1150E042515040CB
:1057B000480F591F20913D1130E026503040280FEE
:1057C000391F86EC9FE064EC77E000E010E05EC1FA
:1057D00084E08FD98091230F869590E04091381115
:1057E00050E04A505040480F591F2091391130E085
:1057F00022513040280F391F86EC9FE069EC77E09A
:1058000000E010E00E9427908091230F869590E0A1
:105810004091381150E04A505040480F591F209194
:10582000391130E026503040280F391F86EC9FE0B8
:1058300068E777E00E9427908091230F869590E09B
:105840004091381150E04E505040480F591F209160
:10585000391130E02A5F3F4F280F391F86EC9FE057
:105860006FEB77E013C188E044D98091230F8695D0
:1058700090E04091401150E04A505040480F591F6D
:105880002091411130E02C503040280F391F86EC18
:105890009FE069EC77E000E010E00E942790209103
:1058A000230F269530E04091401150E04251504086
:1058B000420F531F80914111280F311D86EC9FE04C
:1058C0006AEA77E0E3C082E014D98091230F8695DD
:1058D00090E04091341150E04A505040480F591F19
:1058E0002091351130E02C503040280F391F86ECC4
:1058F0009FE069EC77E000E010E00E9427902091A3
:10590000230F269530E04091341150E04A5050402A
:10591000420F531F80913511280F311D86EC9FE0F7
:105920006DEC77E0B3C082E0E4D88091230F8695D8
:1059300090E04091341150E04A505040480F591FB8
:105940002091351130E02C503040280F391F86EC63
:105950009FE066EA77E000E010E00E942790209147
:10596000230F269530E04091341150E04A505040CA
:10597000420F531F8091351129C088E0BAD8809119
:10598000230F869590E04091401150E04A505040DE
:10599000480F591F2091411130E02C503040280F02
:1059A000391F86EC9FE060EB77E000E010E00E949A
:1059B00027902091230F269530E04091401150E030
:1059C0004A505040420F531F80914111280F311D02
:1059D00086EC9FE061ED77E059C084E08AD8809141
:1059E000230F869590E04091381150E04A50504086
:1059F000480F591F2091391130E02C503040280FAA
:105A0000391F86EC9FE066EA77E000E010E00E9434
:105A100027902091230F269530E04091381150E0D7
:105A20004A505040420F531F8091391129C08AE0DB
:105A300060D88091230F869590E04091441150E00A
:105A40004A505040480F591F2091451130E02C50CA
:105A50003040280F391F86EC9FE060EB77E000E0D4
:105A600010E00E9427902091230F269530E040916E
:105A7000441150E04A505040420F531F809145114D
:105A8000280F311D86EC9FE065ED77E00E9427909E
:105A90001F910F9108956F927F928F929F92AF9274
:105AA000BF92CF92DF92EF92FF920F931F936C0100
:105AB0005B0139014A01F6ECEF2EFFE0FF2EC70132
:105AC00060E040E020E00E94C78B8091230F9601A8
:105AD000280F311D85010C5E1F4FC701B601A501BE
