:100000000C94340D0C94650D0C94650D0C94650DD9
:100010000C94650D0C94650D0C94650D0C94650D98
:100020000C94650D0C94650D0C94650D0C94650D88
:100030000C94650D0C94650D0C94650D0C94650D78
:100040000C94650D0C94B5880C94650D0C94650D9D
:100050000C94650D0C94650D0C94650D0C9407BB08
:100060000C94650D0C946EBE0C94A4BE0C94650D9E
:100070000C94650D0C94650D0C94650D0C94650D38
:100080000C94E2880C94650D0C94650D0C94650D30
:100090000C94650D0C94650D0C94650D0C94650D18
:1000A0000C94650D0C94650D0C940F890C94650DE2
:1000B0000C94650D0C94650D0C94650D0C943C89A5
:1000C0000C94650D0C94650D0C94650D0C94650DE8
:1000D0000C94650D0C94650D0C94650D0C94650DD8
:1000E0000C94650D0D160C175B17A917C417DF17B5
:1000F000FA172D18A31976198D186018681D681D38
:10010000BE18D918681DEB19BE19E21ADF1BB21B05
:100110003F1C121C991A7E1A4B1A1E1A4C1BFD1AF0
:100120007F1B40167316F41843197617A616681D20
:100130004319FF1CD21C9F1C721CD916321D7E65F0
:1001400090698165856590698A6592659A65C665DD
:100150008267AA6790699069D26736679069F4658B
:100160002066E967EB671468406869684E667466E4
:10017000BC66E466E167DF67E36776657A657367A7
:10018000E567956828679069E767AD68DF6810697B
:1001900041699968716956815D8164816B81728161
:1001A0008981798189818081F981FD81018205823E
:1001B00009820D8211823F925D9284929A929A9264
:1001C0009A92B19239933F923993D4923993E292B1
:1001D000E292FF92FF928492659365938492E292F9
:1001E00039939A920D93399339933993399339937B
:1001F000279339933993D29333951C96EB96F697C0
:10020000F6978899DC9A81A0E99BDA9D469E0FA219
:10021000E8A2C4A4C4A41C96B7ADB7AD1C96BBA3FA
:10022000C5A50A998EA659A75FA986A818AA5FAB8B
:10023000B9ACCDAC819C2CBC2FBC1EBC22BC28BC54
:1002400066BC33BC37BC3DBC41BC45BC4BBC4FBCA1
:1002500053BC66BC59BC5DBC61BC05A84CCDB2D4D6
:100260004EB93836A9020C50B9918688083CA6AA26
:10027000AA2ABE000000803F50424D20696D616790
:1002800065206D757374206265206174206C6561F2
:10029000737420313020706978656C7320776964DD
:1002A000652E002C206D61782064656E7369747909
:1002B0003A20002C2070656E2077696474683A20BB
:1002C0000050656E776964746820746573742000EB
:1002D0002C20726564756365643A002C206F757418
:1002E0004D61783A002C20696E4D61783A00696E54
:1002F00044656E733A004E6F7420706F7373696259
:100300006C6520746F206578707265737320616E00
:10031000792064657461696C2E0020697320002C5B
:1003200020677269643A20004D53472C492C4D6177
:100330007820776176657320666F722070656E53E2
:10034000697A653A20002C20736F20726F77736989
:100350007A6520696E2073746570733A20002C20D2
:100360006D6D506572537465703A20004D53472C83
:10037000442C726F7773697A6520696E206D6D3ACF
:1003800020002073746570732E003A20004D696E52
:10039000207365676D656E742073697A6520666F7A
:1003A000722070656E53697A65200063616C63200A
:1003B00053450063616C63204E570063616C63209A
:1003C00053570063616C63204E450063616C637535
:1003D0006C61746564204E450063616C63756C618B
:1003E0007465642053570063616C63756C61746558
:1003F000642053450063616C63756C6174656420AF
:100400004E57002E002C20736F75726365423A20A0
:10041000002E20536F75726365413A20002C2074C2
:100420006172676574423A20005461726765744175
:100430003A20002C206F4F7574206E756D626572C6
:10044000206F662077617665733A20002C20696EF4
:100450007075742064656E736974793A20004D611B
:10046000782077617665732077697468207468698D
:10047000732070656E20616E6420677269647369B1
:100480007A653A20002E002E20656E6420706F6918
:100490006E743A2000537461727420706F696E74C8
:1004A0003A2000643A204E4500643A204E570064DA
:1004B0003A20535700643A205345002C206D617850
:1004C0002064656E736974793A20002C2070656E23
:1004D0002077696474683A200050656E77696474A7
:1004E00068207465737420004368616E67696E6785
:1004F000206261636B20746F206C697665206D6F7C
:1005000064652E0046696C652072656D6F76656462
:100510002E0046696C6520616C72656164792065A6
:1005200078697374732E00457865637574696E67B6
:1005300020636F6D6D616E643A0053746F72696E03
:100540006720636F6D6D616E643A006D6D00436886
:10055000616E6765642050656E20776964746820F9
:10056000746F20004E657720616363656C6572610E
:1005700074696F6E3A20004E6577206D6178207344
:10058000706565643A200055703A2000446F776EBC
:100590003A2000504753504545442C0050474C49A1
:1005A00046542C005047535445504D554C544950D7
:1005B0004C4945522C0050475354455053504552D6
:1005C0005245562C0050474D4D5045525245562CE1
:1005D00000504753495A452C0050474E414D452C39
:1005E000002900526563616C63207061676548652E
:1005F0006967687420696E207374657073202800C1
:100600002900526563616C63207061676557696496
:10061000746820696E207374657073202800290047
:10062000292C2073746570735065724D4D2028001D
:10063000526563616C63206D6D50657253746570B3
:100640002028004C6F61646564206D6F746F7220A8
:1006500073746570206D756C7469706C6965723A3D
:10066000004C6F61646564206D616368696E65202C
:100670006E616D653A004C6F616465642075702031
:10068000706F733A004C6F6164656420646F776EBD
:1006900020706F733A004C6F61646564206D6F74F5
:1006A0006F72207374657073207065722072657646
:1006B0003A004C6F61646564206D6D207065722036
:1006C0007265763A004C6F61646564206D616368A1
:1006D000696E65206865696768743A004C6F61648B
:1006E0006564206D616368696E652077696474680C
:1006F0003A00206E6F74207265636F676E69736570
:10070000642E0029206E6F74207061727365642EF0
:10071000004D53472C452C436F6D6D616E6420284E
:10072000002C20636865636B73756D206E6F742099
:100730006D617463686564213A00536572766F2059
:100740000048617264776172653A20007600504F0C
:100750004C41524752415048204F4E21000000006A
:10076000006410B71DC8206E3BAC30D9269041DC28
:1007700076F4516B6B5861B24D3C7105502083B8D3
:10078000ED44930FF0E8A3D6D68CB361CBB0C2642E
:100790009BD4D2D38678E20AA01CF2BDBD7C3C3E3D
:1007A0005E2B3D3F2F5B5D3B2C2A225C001010200E
:1007B0005F000000000000000000000000000000DA
:1007C0000000000000000000000000000000000029
:1007D000000000000007000F800F800F800F800FC7
:1007E0008007000700000000000700070007000066
:1007F0000000000E380E380E380E380630000000AB
:1008000000000000000000000000000000000000E8
:100810000000000C300C300C307FFE7FFE0C300CE2
:10082000300C300C307FFE7FFE0C300C300C300072
:10083000000000024002400FF81FF81A401A401F43
:10084000F00FF8025802581FF81FF0024002400053
:10085000000000000000000E100E300E7000E001DD
:10086000C0038007000E700C7008700000000000CC
:1008700000000000000F001980198019800F000F80
:10088000080F9819F818F018E019F00F98000000F8
:1008900000000000000700070007000E0000000035
:1008A0000000000000000000000000000000000048
:1008B000000000000000F001C0038007000E000EE1
:1008C000000E000E000700038001C000F0000000D1
:1008D00000000000000F00038001C000E000700075
:1008E000700070007000E001C003800F0000000085
:1008F000000000000001801188099007E007E03F38
:10090000FC3FFC07E007E00990118801800000002F
:100910000000000000000000000180018001800F45
:10092000F00FF00180018001800000000000000055
:1009300000000000000000000000000000000000B7
:10094000000000000000000700070007000E000084
:100950000000000000000000000000000000001F78
:10096000F81FF80000000000000000000000000078
:100970000000000000000000000000000000000077
:100980000000000000000007000700070000000052
:10099000000000000000020006000E001C003800ED
:1009A0007000E001C0038007000E001C0000000082
:1009B00000000000000FF01C381C781CF81CF81D0B
:1009C000B81DB81F381F381E381C380FF000000043
:1009D00000000000000180018003801F801F800351
:1009E00080038003800380038003801FF0000000E9
:1009F00000000000000FE01C701C38003800700080
:100A0000E001C0038007000E381C381FF80000000A
:100A100000000000000FE01C701C3800380070035C
:100A2000C003C0007000381C381C700FE0000000CC
:100A3000000000000000E001E003E006E00CE01828
:100A4000E01FF81FF800E000E000E003F8000000FD
:100A500000000000001FF81C001C001C001C001FF0
:100A6000E01FF0007800381C381C700FE000000018
:100A7000000000000003E007000E001C001C001F27
:100A8000F01FF81C381C381C381C380FF000000010
:100A900000000000001FFC1C1C1C1C1C1C001C0077
:100AA00038007000E001C003800380038000000074
:100AB00000000000000FF01C381C381C381F3807DD
:100AC000E007E01CF81C381C381C380FF000000050
:100AD00000000000000FF01C381C381C381C381FA8
:100AE000F80FF800380038007000E007C000000080
:100AF000000000000000000000038003800380006D
:100B0000000000038003800380000000000000005C
:100B1000000000000000000000038003800380004C
:100B20000000000380038003800700000000000035
:100B3000000000007000E001C0038007000E001CF0
:100B4000001C000E000700038001C000E0007000E0
:100B500000000000000000000000003FFC3FFC001F
:100B60000000003FFC3FFC0000000000000000000F
:100B70000000001C000E000700038001C000E00020
:100B800070007000E001C0038007000E001C000030
:100B900000000003C00FF01E781838003800700005
:100BA000E001C001C00000000001C001C001C000A0
:100BB0000000000FF81C1C1C1C1C1C1C1C1CFC1C1A
:100BC000FC1CFC1CFC1C001C001C001FF007F80097
:100BD000000000000003C007E00E701C381C381C29
:100BE000381C381FF81C381C381C381C3800000012
:100BF00000000000001FF00E380E380E380E380FBF
:100C0000F00FF00E380E380E380E381FF0000000CE
:100C1000000000000007F00E381C381C001C001CEF
:100C2000001C001C001C001C380E3807F0000000DF
:100C300000000000001FE00E700E380E380E380E57
:100C4000380E380E380E380E380E701FE0000000D7
:100C500000000000001FF80E180E080E000E300FE6
:100C6000F00FF00E300E000E080E181FF8000000F6
:100C700000000000001FF80E180E080E000E300FC6
:100C8000F00FF00E300E000E000E001F00000000EE
:100C9000000000000007F00E381C381C381C001C37
:100CA000001C001CF81C381C380E3807F800000027
:100CB00000000000001C701C701C701C701C701F59
:100CC000F01FF01C701C701C701C701C7000000069
:100CD00000000000000FE003800380038003800316
:100CE00080038003800380038003800FE000000006
:100CF000000000000001FC00700070007000700037
:100D000070007038703870387038700FE000000074
:100D100000000000001E380E380E700EE00FC00FED
:100D2000800F800FC00EE00E700E381E38000000DD
:100D300000000000001F000E000E000E000E000E4E
:100D4000000E000E000E080E180E381FF8000000EE
:100D500000000000001C1C1E3C1F7C1FFC1FFC1D13
:100D6000DC1C9C1C1C1C1C1C1C1C1C1C1C000000D7
:100D700000000000001C1C1C1C1E1C1F1C1F9C1DB6
:100D8000DC1CFC1C7C1C3C1C1C1C1C1C1C000000D7
:100D9000000000000003E007F00E381C1C1C1C1CA7
:100DA0001C1C1C1C1C1C1C0E3807F003E00000005F
:100DB00000000000001FF00E380E380E380E380FFD
:100DC000F00FF00E000E000E000E001F00000000DD
:100DD000000000000003E00F780E381C1C1C1C1CD7
:100DE0001C1C1C1C7C1CFC0FF80FF8003800FC00BD
:100DF00000000000001FF00E380E380E380E380FBD
:100E0000F00FF00E700E380E380E381E380000004D
:100E100000000000000FF01C381C381C381C000FAC
:100E2000E007F000381C381C381C380FF0000000B8
:100E300000000000001FFC19CC11C401C001C0015A
:100E4000C001C001C001C001C001C007F000000026
:100E500000000000001C701C701C701C701C701CBA
:100E6000701C701C701C701C701C700FE000000067
:100E700000000000001C701C701C701C701C701C9A
:100E8000701C701C701C700EE007C0038000000016
:100E900000000000001C1C1C1C1C1C1C1C1C1C1C1E
:100EA0009C1C9C1C9C0FF80FF8077007700000003A
:100EB00000000000001C701C701C700EE007C003D6
:100EC00080038007C00EE01C701C701C70000000C6
:100ED00000000000001C701C701C701C701C700E48
:100EE000E007C003800380038003800FE000000060
:100EF00000000000001FF81C381838107000E001D6
:100F0000C0038007000E081C181C381FF8000000E2
:100F1000000000000007F0070007000700070007B7
:100F2000000700070007000700070007F0000000A7
:100F30000000000000100018001C000E0007000355
:100F40008001C000E000700038001C0007000000B5
:100F5000000000000007F0007000700070007000DA
:100F6000700070007000700070007007F0000000EA
:100F7000000000018003C007E00E701C3800000074
:100F80000000000000000000000000000000000061
:100F90000000000000000000000000000000000051
:100FA000000000000000000000000000007FFF7F44
:100FB000FF000000001C001C0007000700000000EC
:100FC0000000000000000000000000000000000021
:100FD000000000000000000000000000000FE00022
:100FE0007000700FF01C701C701C700FD800000097
:100FF00000000000001E000E000E000E000FF00E9C
:10100000380E380E380E380E380E381BF00000003F
:10101000000000000000000000000000000FE01CC5
:10102000701C701C001C001C701C700FE000000085
:10103000000000000000F80070007000700FF01C4D
:10104000701C701C701C701C701C700FD80000008D
:10105000000000000000000000000000000FE01C85
:10106000701C701FF01C001C701C700FE000000052
:10107000000000000003E007700770070007001F72
:10108000E01FE007000700070007001FC000000086
:10109000000000000000000000000000000FD81C4D
:1010A000701C701C701C700FF007F000701C700F2B
:1010B000E0000000001E000E000E000E000EF00FFB
:1010C000380F380E380E380E380E381E3800000033
:1010D000000000000001C001C001C000000FC001FD
:1010E000C001C001C001C001C001C00FF800000074
:1010F0000000000000007000700070000003F000AD
:1011000070007000700070007000701C700CF007B0
:10111000E0000000001E000E000E000E000E380E53
:10112000700EE00FC00EE00E700E381E380000008A
:1011300000000000000FC001C001C001C001C001DB
:10114000C001C001C001C001C001C00FF800000013
:10115000000000000000000000000000001FF81C5C
:101160009C1C9C1C9C1C9C1C9C1C9C1C9C00000093
:10117000000000000000000000000000001FE01C54
:10118000701C701C701C701C701C701C70000000A7
:10119000000000000000000000000000000FE01C44
:1011A000701C701C701C701C701C700FE000000024
:1011B000000000000000000000000000001BF00E16
:1011C000380E380E380E380E380FF00E000E001F95
:1011D000000000000000000000000000001FB03808
:1011E000E038E038E038E038E01FE000E000E001FF
:1011F000F00000000000000000000000001EF00FE2
:10120000F80F380E000E000E000E001F0000000048
:10121000000000000000000000000000000FE01CC3
:10122000301C300F8003E0187018700FE0000000D1
:10123000000000000000000100030007001FF0078D
:10124000000700070007000770077003E0000000B8
:10125000000000000000000000000000001C701CE6
:10126000701C701C701C701C701C700FD80000006B
:10127000000000000000000000000000001C701CC6
:10128000701C701C701C700EE007C0038000000012
:10129000000000000000000000000000001C1C1CFA
:1012A0001C1C1C1C9C1C9C0FF80770077000000085
:1012B000000000000000000000000000001CE01C16
:1012C000E00FC0078007800FC01CE01CE00000009A
:1012D000000000000000000000000000000E380EBA
:1012E000380E380E380E3807F003E000E001C01F5A
:1012F000800000000000000000000000001FE01857
:10130000E011C0038007000E201C601FE0000000F9
:10131000000000000001F803800380038007001C28
:10132000001C00070003800380038001F800000018
:1013300000000001C001C001C001C001C001C00126
:10134000C001C001C001C001C001C001C001C00096
:1013500000000000001F8001C001C001C000E000CB
:1013600038003800E001C001C001C01F800000004B
:1013700000000000001F1C3B9C39DC38F800000016
:10138000000000000000000000000000000000005D
:1013900000080C205F0000000000000000000000BA
:1013A00000000020202020202000200000002850E5
:1013B00050000000000000000000002828FC285019
:1013C000FC50500000002078A8A0603028A8F02031
:1013D00000000048A8B05028345448000000002005
:1013E000505078A8A8906C00000040408000000099
:1013F0000000000000000408101010101010080475
:1014000000004020101010101010204000000000BC
:1014100020A87070A8200000000000202020F820E4
:1014200020200000000000000000000000004040FC
:10143000800000000000F800000000000000000034
:1014400000000000000040000000081010102020E4
:10145000404040800000007088888888888870003C
:10146000000000206020202020207000000000707C
:10147000888810204080F80000000070880830083C
:10148000088870000000001030505090781018004C
:10149000000000F88080F0080888700000000070EC
:1014A0009080F08888887000000000F8901020205C
:1014B00020202000000000708888708888887000D4
:1014C00000000070888888780848700000000000DC
:1014D00000200000000020000000000000002000AC
:1014E0000000202000000408102040201008040004
:1014F0000000000000F80000F8000000000040209C
:101500001008040810204000000000708888102097
:1015100020002000000000708898A8A8B8807800FB
:1015200000000020203050507848CC00000000F02F
:10153000484870484848F000000000788880808063
:1015400080887000000000F0484848484848F00093
:10155000000000F8485070504048F800000000F8C3
:10156000485070504040E000000000384880809CA7
:1015700088483000000000CC484878484848CC00F3
:10158000000000F8202020202020F8000000007C2F
:1015900010101010101090E0000000EC4850605047
:1015A0005048EC00000000E0404040404044FC0057
:1015B000000000D8D8D8D8A8A8A8A800000000DC4F
:1015C000486868585848E800000000708888888893
:1015D00088887000000000F0484870404040E000FB
:1015E0000000007088888888E8987018000000F073
:1015F000484870504848EC0000000078888060102F
:101600000888F000000000F8A820202020207000AA
:10161000000000CC4848484848483000000000CC52
:101620004848505030202000000000A8A8A8705062
:1016300050505000000000D8505020205050D8008A
:10164000000000D85050202020207000000000F83A
:10165000901020204048F800000038202020202052
:1016600020202038000040404020201010100800AA
:10167000000070101010101010101070000020509A
:10168000000000000000000000000000000000005A
:1016900000000000FC00200000000000000000002E
:1016A000000000000000304838483C00000000C046
:1016B0004040704848487000000000000000384872
:1016C00040403800000000180808384848483C00EE
:1016D0000000000000003048784038000000001C86
:1016E00020207820202078000000000000003C48E6
:1016F00030407844380000C0404070484848EC0012
:101700000000002000006020202070000000001079
:101710000000301010101010E00000C040405C507D
:101720007048EC00000000E0202020202020F8007D
:10173000000000000000F0A8A8A8A8000000000019
:101740000000F0484848EC0000000000000030486D
:1017500048483000000000000000F0484848704051
:10176000E000000000003848484838081C0000002D
:101770000000D8604040E000000000000000784019
:101780003008780000000000202070202020180081
:10179000000000000000D84848483C00000000005D
:1017A0000000EC4850302000000000000000A8A815
:1017B00070505000000000000000D8502050D800A9
:1017C000000000000000EC4850302020C000000065
:1017D0000000781020207800000018101010201051
:1017E0001010101800101010101010101010101001
:1017F0001000602020201020202020600040A4182D
:1018000000000000000000000000000A0B02090CAC
:101810000D0E080703040100000000000000000096
:1018200000000000000000000000000000000000B8
:101830000000000000121110000000000000000075
:101840000000000000000000000000000000000197
:1018500002102020080810204010204080020102C1
:101860000108040201010204081020408080402089
:1018700010080402018004020180402010080402C4
:101880000108040201010204081020408001020442
:10189000081020408005050505070508080808020E
:1018A0000202020A0A0808040404040101010101F9
:1018B0000101010303030303030303040707070CE8
:1018C0000C0C0C0C0C0C0C0202020206060606069E
:1018D0000606060B0B0B0B0B0B0B0B00002000235B
:1018E00000260029002C002F003200000100000318
:1018F000010601090100002200250028002B002E0E
:10190000003100340002010000050108010B010054
:10191000002100240027002A002D003000330001A0
:10192000010000040107010A014E414E494E49548D
:1019300059494E46CDCCCC3D0AD7233C17B7D138B8
:1019400077CC2B329595E6241FB14F0A0000204139
:101950000000C84200401C4620BCBE4CCA1B0E5AA8
:10196000AEC59D7400407A10F35A00A0724E18095B
:101970000010A5D4E80000E87648170000E40B54F6
:10198000020000CA9A3B000000E1F50500008096C5
:101990009800000040420F000000A08601000000F7
:1019A000102700000000E8030000000064000000B1
:1019B00000000A00000000000100000000002C767A
:1019C000D888DC674F0823DFC1DFAE59E1B1B79695
:1019D000E5E3E453C63AE651997696E8E6C28426F2
:1019E000EB898C9B62ED407C6FFCEFBC9C9F40F2CE
:1019F000BAA56FA5F490055A2AF75C936B6CF9674A
:101A00006DC11BFCE0E40D47FEF520E6B500D0ED0E
:101A1000902E0300943577050080841E0800002076
:101A20004E0A000000C80C333333330F986E128314
:101A30001141EF8D2114893BE65516CFFEE6DB18E8
:101A4000D1844B381BF77C1D901DA4BBE4242032AD
:101A500084725E228100C9F124ECA1E53D2736396C
:101A6000FB710C75D6BEAA3B11241FBECFEFD1E28D
:101A7000DEBFCDBF00E00CBF11E1A0E0B2E0EAE9BB
:101A8000F0EA01E00BBF02C007900D92AC3EB10737
:101A9000D9F728E1ACEEB1E101C01D92AA3DB20731
:101AA000E1F71AE1C6E6DAE100E006C02297010993
:101AB000FE010BBF0E94F3C8CE35D10780E00807B6
:101AC000A9F70E941ABF0C943CD00C9400000E940D
:101AD000A0C391E0811190E0892F08956F927F92C9
:101AE0008F929F92AF92BF92CF92DF92EF92FF922E
:101AF0000F931F93CF93DF9300D000D0CDB7DEB705
:101B00006C01FC0184809580E12CF12C00E010E058
:101B1000712C612CE814F9040CF04CC0B701C6011B
:101B20000E9434C497012F5F3F4F59018C3209F056
:101B30003FC09701472D562DB601CE0101960E9458
:101B4000B4C47A2C6B2C02301105F9F064F4011541
:101B50001105A9F00130110529F5BE016F5F7F4F16
:101B600084EE94E11DC003301105A9F00430110585
:101B7000C9F4BE016F5F7F4F82ED94E111C0BE01D9
:101B80006F5F7F4F8AEE94E10BC0BE016F5F7F4FA6
:101B90008EED94E105C0BE016F5F7F4F88ED94E14B
:101BA0000E94B8C20F5F1F4FCE0101960E943AC239
:101BB0007501B0CF1093D1140093D01426960FB6B0
:101BC000F894DEBF0FBECDBFDF91CF911F910F9173
:101BD000FF90EF90DF90CF90BF90AF909F908F904D
:101BE0007F906F9008950F931F93CF93DF9300D052
:101BF00000D0CDB7DEB78C0169E774E10E94F1C374
:101C0000882371F0B801CE0101960E94CDC2CE01A9
:101C1000019664DFCE0101960E943AC281E001C0C4
:101C200080E026960FB6F894DEBF0FBECDBFDF91E1
:101C3000CF911F910F910895EF92FF920F931F93F1
:101C4000CF93DF93CDB7DEB7EDB6FEB6FC0144818E
:101C500055814F5F5F4F2DB73EB7241B350B0FB635
:101C6000F8943EBF0FBE2DBF0DB71EB70F5F1F4FBD
:101C700020E030E0B8010E9435C4C8010E9498CB32
:101C80000FB6F894FEBE0FBEEDBEDF91CF911F914F
:101C90000F91FF90EF900895EF92FF920F931F9393
:101CA000CF93DF93CDB7DEB7EDB6FEB6FC0144812E
:101CB00055814F5F5F4F2DB73EB7241B350B0FB6D5
:101CC000F8943EBF0FBE2DBF0DB71EB70F5F1F4F5D
:101CD00020E030E0B8010E9435C4C8010E947BCBEF
:101CE0000FB6F894FEBE0FBEEDBEDF91CF911F91EF
:101CF0000F91FF90EF900895EF92FF920F931F9333
:101D0000CF93DF93CDB7DEB7EDB6FEB6FC014481CD
:101D100055814F5F5F4F2DB73EB7241B350B0FB674
:101D2000F8943EBF0FBE2DBF0DB71EB70F5F1F4FFC
:101D300020E030E0B8010E9435C4C8010E9478CB91
:101D40000FB6F894FEBE0FBEEDBEDF91CF911F918E
:101D50000F91FF90EF90089562EC74E186E398E1B3
:101D60000C94B2BF6CEB74E186E398E10C94B2BFC3
:101D7000CF93DF93EC0161E273E086E398E10E9488
:101D800097BFBE0186E398E10E9489BF62EF76E0CB
:101D900086E398E1DF91CF910C94A2BF61E083E0EC
:101DA0000E9467BC61E083E00E94A0BC61E086E025
:101DB0000E9467BC61E086E00E94A0BC63E083E60D
:101DC00092E10E94A68721E040E060E083E692E194
:101DD0000E94BB8766E08FE192E10E94A68721E026
:101DE00040E061E08FE192E10C94BB87CF93DF93F9
:101DF000C0E0D0E04AE050E0BE0186E398E10E94F6
:101E000071C068E273E086E398E10E9497BFCE015B
:101E10000E944BCC4AE050E0682F86E398E10E9494
:101E2000AAC02196C832D10529F7DF91CF91089534
:101E3000FF920F931F93CF93DF93CDB7DEB72C970D
:101E40000FB6F894DEBF0FBECDBF6AED77E0CE01CE
:101E500007960E94A3C204E010E0C8010E944BCC88
:101E6000F82EBE01695F7F4FCE0101960E94CDC260
:101E70006F2DCE0101960E9452C3BC01CE01079680
:101E80000E94B8C2CE0101960E943AC20F5F1F4F56
:101E90000C30110511F760E070E0CE0107960E944A
:101EA00011C4FC018081811106C068E175E1CE0199
:101EB00007960E94B8C21092041510920515109250
:101EC000061510920715BE01695F7F4F8EE195E1FF
:101ED0000E94B8C261E676E086E398E10E9464BFA2
:101EE0006EE175E186E398E10E94B2BFCE010796EC
:101EF0000E943AC22C960FB6F894DEBF0FBECDBF3B
:101F0000DF91CF911F910F91FF900895CF93DF93B1
:101F100000D000D0CDB7DEB764EE74E1CE010196FB
:101F20000E94CDC2CE010196B7DE9093410280930C
:101F30004002CE0101960E943AC26EED74E1CE01DC
:101F400001960E94CDC2CE010196A6DE9093430277
:101F500080934202CE0101960E943AC226960FB6A5
:101F6000F894DEBF0FBECDBFDF91CF9108953EDF65
:101F700069ED75E086E398E10E9464BF6EE175E16A
:101F800086E398E10E9489BF69E774E186E398E1FE
:101F90000E94B2BF61ED75E086E398E10E9464BFE4
:101FA00060916702709168024AE050E086E398E130
:101FB0000E9471C06FE774E186E398E10E9489BFD7
:101FC00060916502709166024AE050E086E398E114
:101FD0000E9471C069E774E186E398E10E94B2BF94
:101FE00065EC75E086E398E10E9464BF409173025E
:101FF00050917402609175027091760222E030E097
:1020000086E398E10E94A6C169E774E186E398E15E
:102010000E94B2BF66EB75E086E398E10E9464BF60
:1020200060917702709178024AE050E086E398E18F
:102030000E9471C069E774E186E398E10E94B2BF33
:1020400064EA75E086E398E10E9464BF60917102E2
:10205000709172024AE050E086E398E10E9471C0FC
:1020600069E774E186E398E10E94B2BF6CE975E02C
:1020700086E398E10E9464BF6091790270917A02D0
:102080004AE050E086E398E10E9471C06FE774E196
:1020900086E398E10E9489BF60917B0270917C0287
:1020A0004AE050E086E398E10E9471C069E774E17C
:1020B00086E398E10E94B2BF63E975E086E398E1A8
:1020C0000E9464BF4091570250915802609159029A
:1020D00070915A0222E030E086E398E10E94A6C1A6
:1020E0006FE774E186E398E10E9489BF4091530253
:1020F00050915402609155027091560222E030E0F6
:1021000086E398E10E94A6C169E774E186E398E15D
:102110000C94B2BFAB01BC014093570250935802DC
:102120006093590270935A0283E692E10E949A8664
:1021300040915702509158026091590270915A0291
:102140008FE192E10E949A8667E775E086E398E165
:102150000E9464BF40915702509158026091590209
:1021600070915A0222E030E086E398E10C94A7C116
:10217000AB01BC014093530250935402609355024B
:102180007093560283E692E10E94FE8640915302CC
:102190005091540260915502709156028FE192E184
:1021A0000E94FE8664E675E086E398E10E9464BFC3
:1021B0004091530250915402609155027091560221
:1021C00022E030E086E398E10C94A7C14F925F9241
:1021D0006F927F928F929F92AF92BF92CF92DF9237
:1021E000EF92FF920F931F93CF93DF93CDB7DEB79C
:1021F00028970FB6F894DEBF0FBECDBF6D837E83E8
:102200008F83988749015A0167017801672B682BF2
:10221000692B09F498C0C501B4010E9448C72B017D
:102220003C0120E030E0A901C501B4010E94B9C51C
:1022300087FF04C077FA709477F87094A70196012D
:10224000C701B6010E9455C569837A838B839C833D
:102250009B01AC01C301B2010E94C0C52B013C012E
:102260006D817E818F8198850E945BC69B01AC0148
:10227000C301B2010E94B9C5409057025090580264
:102280006090590270905A0220E030E0A90187FF67
:1022900025C0C501B4010E94B9C5811107C069817B
:1022A0007A818B819C810E94B5C70DC0A5019401E4
:1022B000C701B6010E94C0C59B01AC015F77C50193
:1022C000B4010E9455C56B017C01A30192010E94DB
:1022D00044C718169CF12601370130C0C501B4016E
:1022E0000E94B9C581110DC069817A818B819C8161
:1022F0000E94B5C76B017C01F7FAF094F7F8F094EF
:102300000FC0A5019401C701B6010E94C0C59B0181
:10231000AC015F77C501B4010E9454C56B017C011B
:1023200077FA709477F87094A3019201C701B6010F
:102330000E94B9C587FD02C026013701542D452DE5
:10234000362D272D04C050E040E030E020E0652F1E
:10235000742F832F922F28960FB6F894DEBF0FBEEE
:10236000CDBFDF91CF911F910F91FF90EF90DF9044
:10237000CF90BF90AF909F908F907F906F905F9025
:102380004F900895CF92DF92EF92FF920F931F9399
:10239000CF93DF93CDB7DEB72C970FB6F894DEBF9F
:1023A0000FBECDBFEDB6FEB664EE74E1CE0107966A
:1023B0000E94CDC26EED74E1CE0101960E94CDC2A5
:1023C0006AED77E0CE01079682DB882309F45AC0D4
:1023D0006BE273E086E398E10E9497BFBE01695FFC
:1023E0007F4F86E398E10E94B2BF81E080930013A3
:1023F000BE01695F7F4F8AEF92E10E94B8C26DE82B
:1024000074E0CE0101960E94A0C3882309F440C065
:10241000CDB6DEB64B855C854F5F5F4F8DB79EB7FF
:10242000841B950B0FB6F8949EBF0FBE8DBF0DB7E2
:102430001EB70F5F1F4F20E030E0B801CE010796B6
:102440000E9435C4B80183E495E10E946F7188232E
:1024500099F062E175E086E398E10E94A2BFB801BD
:1024600083E495E10E947971882331F064E075E09E
:1024700086E398E10E94A2BF0FB6F894DEBE0FBEBD
:10248000CDBE06C068E473E086E398E10E94C2BF57
:10249000CE0101960E943AC2CE0107960E943AC22E
:1024A0000FB6F894FEBE0FBEEDBE2C960FB6F89494
:1024B000DEBF0FBECDBFDF91CF911F910F91FF9077
:1024C000EF90DF90CF90089568EE74E086E398E196
:1024D0000E94A2BF1092001308950F931F93CF93F1
:1024E000DF9380910E13811153C08FE093E10E941E
:1024F00092B9882309F456C08FE093E10E94F2B7A5
:102500008FE093E10E94A9B9EC018FE093E10E9472
:1025100054BA8C01CF3F8FEFD80739F30F3F8FEFBD
:10252000180719F36AE673E086E398E10E9497BF03
:1025300060910C1370910D134AE050E086E398E12E
:102540000E9471C062EB7AE086E398E10E9497BF37
:1025500060910A1370910B134AE050E086E398E112
:102560000E9478C0D0930D13C0930C1310930B13DB
:1025700000930A1381E080930E130E9451BB609375
:10258000C8147093C9148093CA149093CB140AC0D2
:1025900065E773E086E398E1DF91CF911F910F919A
:1025A0000C94C2BFDF91CF911F910F9108954F926C
:1025B0005F926F927F92AF92BF92CF92EF92FF9213
:1025C0000F931F93CF93DF93EC015B0129013A0135
:1025D00025E045E065E08AE493E10E9481AE850153
:1025E0000C5E1F4F80910C029E01280F311DA5012A
:1025F000BE018AE493E10E94BBAF2FEF4FEF6FEF74
:102600008AE493E10E9481AE25E045E065E08AE43A
:1026100093E10E9495AE80E2C82EE12CF12C850159
:102620009E01B301A2018AE493E10E942CB5DF91DF
:10263000CF911F910F91FF90EF90CF90BF90AF90EF
:102640007F906F905F904F9008954F925F926F923E
:102650007F928F92AF92BF92CF92EF92FF920F93A1
:102660001F93CF93DF93EC017B0129013A0125E011
:1026700045E065E08AE493E10E9481AE87010C5E4B
:102680001F4F80910C029E01280F311DA701BE0132
:102690008AE493E10E94BBAF2FEF4FEF6FEF8AE424
:1026A00093E10E9481AE25E045E065E08AE493E194
:1026B0000E9495AE90E2892EA12CB12C2EE2C22E62
:1026C0008E0122E0B301A2018AE493E10E9425B6C3
:1026D000DF91CF911F910F91FF90EF90CF90BF901E
:1026E000AF908F907F906F905F904F900895AF92D2
:1026F000BF92CF92DF92EF92FF920F931F93CF93EF
:10270000DF93CDB7DEB72C970FB6F894DEBF0FBEC0
:10271000CDBF61E08AE493E10E9471938AE493E182
:102720000E94E1AD8AE493E10E94C6B620910D02B9
:1027300034E0239F80199109112463E070E00E9426
:1027400071C860930C028AE493E10E94D1B6609153
:102750000C0240910D02942F960F990F891B8093C4
:102760000B0250E05093F0114093EF115093F2118F
:102770004093F11170E09A01260F371F3093F41146
:102780002093F3113093F6112093F5118901040F72
:10279000151F1093F8110093F7115093FA114093FD
:1027A000F911D801A60FB71FB093FC11A093FB112C
:1027B0003093FE112093FD115D01A40EB51EB09261
:1027C0000012A092FF115093021240930112650172
:1027D000C60ED71ED0920412C0920312E5E0EE2E70
:1027E000E2E1FE2EF70131832083509308124093DB
:1027F000071290E0A901480F591F50930A12409305
:10280000091230930C1220930B12260F371F280F3A
:10281000391F30930E1220930D1210931012009353
:102820000F125093121240931112B0931412A093EE
:1028300013123093161220931512B0921812A09210
:10284000171250931A1240931912D0921C12C09270
:102850001B1230931E1220931D1225E045E065E007
:102860008AE493E10E9495AE2091EC114091ED1124
:102870006091EE118AE493E10E9481AEF7014081FC
:1028800051818A01085C1F4F20E431E060E070E074
:102890008AE493E10E94BBAF2091EC114091ED11CD
:1028A0006091EE118AE493E10E9495AE2FEF4FEF15
:1028B0006FEF8AE493E10E9481AE61E08FE093E1E3
:1028C0000E942AB762E08FE093E10E94F4BA6DEAB9
:1028D00077E08AE493E10E94ABB6F7012081318171
:1028E000265F3F4F00E010E041E150E066E873E012
:1028F0008AE493E10E943DB461E973E18AE493E1E3
:102900000E94ABB6F70120813181205E3F4F44E148
:1029100050E062E973E08AE493E10E943DB425E06F
:1029200045E065E08AE493E10E9495AEF701E0801E
:10293000F180EE0CFF1C80910D02E80EF11C67EA9D
:1029400073E0CE0107960E94A3C269E375E1CE0150
:1029500007960E9429C3BC01CE0101960E94CDC2F8
:10296000970144E150E0BE016F5F7F4F8AE493E13D
:102970000E94E6B4CE0101960E943AC2CE010796AB
:102980000E943AC22C960FB6F894DEBF0FBECDBFA0
:10299000DF91CF911F910F91FF90EF90DF90CF903B
:1029A000BF90AF9008950F931F939091DE122091E6
:1029B00005123091061280910D02220F331F281B41
:1029C000310900E010E044E150E0992309F453C0DC
:1029D0006BEC73E08AE493E10E943DB464EF71E034
:1029E00080E090E00E9480BB8091DD128823D1F1CD
:1029F00025E045E065E08AE493E10E9481AE4091E4
:102A0000051250910612440F551F80910D02481B6C
:102A100051098A010F5E1F4F20E431E060E070E051
:102A20008AE493E10E94BBAF64EF71E080E090E044
:102A30000E9480BB2FEF4FEF6FEF8AE493E10E947B
:102A400081AE2091051230910612220F331F809122
:102A50000D02281B310900E010E044E150E069EA72
:102A600073E00BC000E010E021E130E04AE050E00C
:102A700066EB73E002C068EC73E08AE493E10E94C5
:102A80003DB41F910F9108950F931F93182F20911C
:102A9000EC114091ED116091EE118AE493E10E94F6
:102AA00081AEE12FF0E0DF01AA0FBB1FAA0FBB1F11
:102AB000AD50BE4E12960D911C9113972D913C91E5
:102AC000EE0FFF1FEE0FFF1FE151FE4E42815381BB
:102AD000608171818AE493E10E94BBAF2091EC1187
:102AE0004091ED116091EE118AE493E10E9495AE60
:102AF0002FEF4FEF6FEF8AE493E11F910F910C944A
:102B000081AECF92DF92EF92FF920F931F93CF93FC
:102B1000DF931F921F92CDB7DEB7182F062F6BEDF4
:102B200073E086E398E12A8349830E94C2BF8FEF56
:102B3000810F2A814981863008F052C0602F8AE4D3
:102B400093E10E9481AE110F1250412F50E07A01A3
:102B5000EE0CFF1CEE0CFF1CC7018D509E4E7C013D
:102B6000FC010281138101501109208131816A0128
:102B7000CC0CDD1CCC0CDD1CC60181519E4E6C01C1
:102B8000FC0142815381608171818AE493E10E945A
:102B900077AFF70102811381025011092081318141
:102BA00021503109F601428153814F5F5F4F6081AF
:102BB00071816F5F7F4F8AE493E10E9477AF20912C
:102BC000EC114091ED116091EE118AE493E10E94C5
:102BD00095AE25E045E065E08AE493E10E9481AE90
:102BE00066EE73E086E398E10F900F90DF91CF914E
:102BF0001F910F91FF90EF90DF90CF900C94C2BF88
:102C00000F931F9390E0FC013197ED32F10508F02E
:102C10005FC7EE58FF4F0C94C2C880E035DF80914B
:102C20000C02869590E02091F1113091F211280F5D
:102C3000391F2C5031094091EF115091F011480F7C
:102C4000591F4A50510900E010E06CE474E08AE436
:102C500093E10E943DB480910C02869590E0209112
:102C6000F1113091F211280F391F4091EF1150915D
:102C7000F011480F591F4E50510960EF73E024C7FF
:102C800080E002DF80910C02869590E02091F111A6
:102C90003091F211280F391F2C5031094091EF115A
:102CA0005091F011480F591F4651510900E010E0B2
:102CB00065EF73E08AE493E10E943DB480910C02D9
:102CC000869590E02091F1113091F211280F391F73
:102CD0004091EF115091F011480F591F4650510982
:102CE0006CEF73E0F1C680E0CFDE80910C02869538
:102CF00090E02091F1113091F211280F391F2C50E2
:102D000031094091EF115091F011480F591F465170
:102D1000510900E010E065EF73E08AE493E10E945E
:102D20003DB480910C02869590E02091F111309194
:102D3000F211280F391F4091EF115091F011480FF7
:102D4000591F4A5051096FEF73E0BEC680E09CDE08
:102D500080910C02869590E02091F1113091F21152
:102D6000280F391F2C5031094091EF115091F0116B
:102D7000480F591F4651510900E010E063E074E02C
:102D80008AE493E10E943DB480910C02869590E024
:102D90002091F1113091F211280F391F4091EF115C
:102DA0005091F011480F591F405151096AE074E0E9
:102DB0008BC680E069DE80910C02869590E02091C0
:102DC000F1113091F211280F391F2C503109409127
:102DD000EF115091F011480F591F4651510900E071
:102DE00010E060E174E08AE493E10E943DB48091D8
:102DF0000C02869590E02091F1113091F211280F8C
:102E0000391F4091EF115091F011480F591F48514F
:102E1000510967E174E058C682E036DE80910C0209
:102E2000869590E02091F9113091FA11280F391F01
:102E3000225131094091F7115091F811480F591F53
:102E40004E50510900E010E06FE174E08AE493E134
:102E50000E943DB480910C02869590E02091F9117A
:102E60003091FA11280F391F265031094091F7117E
:102E70005091F811480F591F4E50510964E274E007
:102E80008AE493E10E943DB480910C02869590E023
:102E90002091F9113091FA11280F391F2A5F3F4F05
:102EA0004091F7115091F811480F591F46505109A0
:102EB00069E274E009C684E0E7DD80910C02869542
:102EC00090E02091011230910212280F391F2650F4
:102ED00031094091FF1150910012480F591F4E5077
:102EE000510900E010E06CE274E0EEC584E0CCDD56
:102EF00080910C02869590E020910112309102128F
:102F0000280F391F2C5031094091FF1150910012A8
:102F1000480F591F4251510900E010E061E374E08D
:102F20008AE493E10E943DB480910C02869590E082
:102F30002091011230910212280F391F4091FF1188
:102F400050910012480F591F4251510967E374E034
:102F5000BBC586E099DD80910C02869590E02091BA
:102F6000091230910A12280F391F26503109409159
:102F7000071250910812480F591F4251510900E0A1
:102F800010E06DE374E0A0C586E07EDD80910C0268
:102F9000869590E02091091230910A12280F391F6E
:102FA000265031094091071250910812480F591FBD
:102FB0004651510900E010E063E474E085C584E007
:102FC00063DD80910C02869590E020910112309192
:102FD0000212280F391F265031094091FF115091DC
:102FE0000012480F591F4251510900E010E06AE4F5
:102FF00074E06AC588E048DD80910C02869590E017
:103000002091111230911212280F391F2C503109C2
:1030100040910F1250911012480F591F4A505109F8
:1030200000E010E060E574E08AE493E10E943DB4C2
:1030300080910C02869590E020911112309112122D
:10304000280F391F40910F1250911012480F591F2D
:103050004650510966EB74E037C588E015DD809174
:103060000C02869590E02091111230911212280FD7
:10307000391F2C50310940910F1250911012480FF6
:10308000591F4A50510900E010E060E574E08AE4FD
:1030900093E10E943DB480910C02869590E02091CE
:1030A000111230911212280F391F40910F125091B6
:1030B0001012480F591F4E5051096DEA74E004C5B3
:1030C00082E0E2DC80910C02869590E02091F9117B
:1030D0003091FA11280F391F2C5031094091F71106
:1030E0005091F811480F591F4C50510900E010E061
:1030F00064E574E08AE493E10E943DB480910C029F
:10310000869590E02091F9113091FA11280F391F1E
:103110004091F7115091F8112CC088E0B5DC8091F6
:103120000C02869590E02091111230911212280F16
:10313000391F2C50310940910F1250911012480F35
:10314000591F4C50510900E010E06EE574E08AE42C
:1031500093E10E943DB480910C02869590E020910D
:10316000111230911212280F391F40910F125091F5
:103170001012480F591F4C50510982C086E084DC60
:1031800080910C02869590E02091091230910A12EC
:10319000280F391F2650310940910712509108120B
:1031A000480F591F4E50510900E010E063E674E0EB
:1031B0008BC48AE069DC80910C02869590E02091B6
:1031C000191230911A12280F391F225131094091DA
:1031D000171250911812480F591F4E50510900E014
:1031E00010E06FE174E01AC08AE04EDC80910C02BE
:1031F000869590E02091191230911A12280F391FEC
:10320000225131094091171250911812480F591F3D
:103210004E50510900E010E06DE674E08AE493E15D
:103220000E943DB480910C02869590E02091191285
:1032300030911A12280F391F265031094091171268
:1032400050911812480F591F4E50510968E674E00A
:103250008AE493E10E943DB480910C02869590E04F
:103260002091191230911A12280F391F2A5F3F4FEF
:103270004091171250911812480F591F4E50510982
:1032800069E574E021C48AE0FFDB80910C02869539
:1032900090E02091191230911A12280F391F2C50EA
:1032A00031094091171250911812480F591F4E5072
:1032B000510900E010E06CE274E08AE493E10E94BE
:1032C0003DB480910C02869590E0209119123091C6
:1032D0001A12280F391F4091171250911812480FD7
:1032E000591F4A50510962E774E0EEC382E0CCDB1B
:1032F00080910C02869590E02091F9113091FA119D
:10330000280F391F2C5031094091F7115091F811B5
:10331000480F591F4A50510900E010E066E774E079
:103320008AE493E10E943DB480910C02869590E07E
:103330002091F9113091FA11280F391F4091F7119E
:103340005091F811D5C188E09FDB80910C028695E1
:1033500090E02091111230911212280F391F2C5039
:10336000310940910F1250911012480F591F4A50C5
:10337000510900E010E060E874E0A8C184E084DB5B
:1033800080910C02869590E02091011230910212FA
:10339000280F391F2C5031094091FF115091001214
:1033A000480F591F4A50510900E010E066E774E0E9
:1033B0008AE493E10E943DB480910C02869590E0EE
:1033C0002091011230910212280F391F4091FF11F4
:1033D000509100122CC08AE057DB80910C02869538
:1033E00090E02091191230911A12280F391F2C5099
:1033F00031094091171250911812480F591F4A5025
:10340000510900E010E060E874E08AE493E10E9472
:103410003DB480910C02869590E020911912309174
:103420001A12280F391F4091171250911812480F85
:10343000591F4251510964E874E046C382E024DB1D
:1034400080910C02869590E02091F9113091FA114B
:10345000280F391F2C5031094091F7115091F81164
:10346000480F591F4A50510900E010E066E774E028
:103470008AE493E10E943DB480910C02869590E02D
:103480002091F9113091FA11280F391F4091F7114D
:103490005091F8112CC088E0F7DA80910C028695E3
:1034A00090E02091111230911212280F391F2C50E8
:1034B000310940910F1250911012480F591F4A5074
:1034C000510900E010E060E874E08AE493E10E94B2
:1034D0003DB480910C02869590E0209111123091BC
:1034E0001212280F391F40910F1250911012480FDD
:1034F000591F405151096AE874E0E6C284E0C4DA19
:1035000080910C02869590E0209101123091021278
:10351000280F391F225131094091FF11509100129B
:10352000480F591F4A50510900E010E066E774E067
:103530007EC08AE0A9DA80910C02869590E0209105
:10354000191230911A12280F391F22513109409156
:10355000171250911812480F591F4A50510900E094
:1035600010E060E874E08AE493E10E943DB4809149
:103570000C02869590E02091191230911A12280FB2
:10358000391F265031094091171250911812480FD7
:10359000591F4A50510960E574E08AE493E10E94A2
:1035A0003DB480910C02869590E0209119123091E3
:1035B0001A12280F391F2A5F3F4F4091171250915E
:1035C000181263C086E060DA80910C02869590E064
:1035D0002091091230910A12280F391F2650310903
:1035E0004091071250910812480F591F425151093A
:1035F00000E010E064E974E067C284E045DA80919D
:103600000C02869590E02091011230910212280F51
:10361000391F225131094091FF1150910012480F7A
:10362000591F4A50510900E010E069E974E08AE44A
:1036300093E10E943DB480910C02869590E0209128
:10364000011230910212280F391F26503109409182
:10365000FF1150910012480F591F4A50510960E55F
:1036600074E08AE493E10E943DB480910C02869557
:1036700090E02091011230910212280F391F2A5F29
:103680003F4F4091FF1150910012480F591F4E506B
:1036900051096FE874E018C288E0F6D980910C02F5
:1036A000869590E02091111230911212280F391F47
:1036B0002C50310940910F1250911012480F591F90
:1036C0004A50510900E010E069E974E08AE493E1AE
:1036D0000E943DB480910C02869590E020911112D9
:1036E00030911212280F391F40910F125091101271
:1036F000480F591F425151096AE774E0E5C182E061
:10370000C3D980910C02869590E02091F9113091F7
:10371000FA11280F391F2C5031094091F71150919F
:10372000F811480F591F4A50510900E010E069E9AB
:1037300074E08AE493E10E943DB480910C02869586
:1037400090E02091F9113091FA11280F391F409122
:10375000F7115091F811480F591F4A5051096DE95E
:1037600074E0B2C182E090D980910C02869590E01D
:103770002091F9113091FA11280F391F2C5031097D
:103780004091F7115091F811480F591F4A505109B3
:1037900000E010E066E774E08AE493E10E943DB443
:1037A00080910C02869590E02091F9113091FA11E8
:1037B000280F391F4091F7115091F8112CC088E063
:1037C00063D980910C02869590E02091111230917E
:1037D0001212280F391F2C50310940910F125091AD
:1037E0001012480F591F4A50510900E010E060E8DC
:1037F00074E08AE493E10E943DB480910C028695C6
:1038000090E02091111230911212280F391F40912F
:103810000F1250911012480F591F4A50510961EA76
:1038200074E052C184E030D980910C02869590E01A
:103830002091011230910212280F391F2C503109AA
:103840004091FF1150910012480F591F4A505109E1
:1038500000E010E066E774E08AE493E10E943DB482
:1038600080910C02869590E0209101123091021215
:10387000280F391F4091FF11509100122CC08AE08F
:1038800003D980910C02869590E020911912309115
:103890001A12280F391F2C503109409117125091DC
:1038A0001812480F591F4A50510900E010E060E813
:1038B00074E08AE493E10E943DB480910C02869505
:1038C00090E02091191230911A12280F391F40915F
:1038D000171250911812480F591F4A50510965EAA2
:1038E00074E0F2C082E0D0D880910C02869590E01E
:1038F0002091F9113091FA11280F391F2C503109FC
:103900004091F7115091F811480F591F4A50510931
:1039100000E010E066E774E08AE493E10E943DB4C1
:1039200080910C02869590E02091F9113091FA1166
:10393000280F391F4091F7115091F8112CC088E0E1
:10394000A3D880910C02869590E0209111123091BD
:103950001212280F391F2C50310940910F1250912B
:103960001012480F591F4A50510900E010E060E85A
:1039700074E08AE493E10E943DB480910C02869544
:1039800090E02091111230911212280F391F4091AE
:103990000F1250911012480F591F4A51510969EAEC
:1039A00074E092C084E070D880910C02869590E01B
:1039B0002091011230910212280F391F2C50310929
:1039C0004091FF1150910012480F591F4A50510960
:1039D00000E010E066E774E08AE493E10E943DB401
:1039E00080910C02869590E0209101123091021294
:1039F000280F391F4091FF11509100122CC08AE00E
:103A000043D880910C02869590E020911912309154
:103A10001A12280F391F2C5031094091171250915A
:103A20001812480F591F4A50510900E010E060E891
:103A300074E08AE493E10E943DB480910C02869583
:103A400090E02091191230911A12280F391F4091DD
:103A5000171250911812480F591F4651510962EB25
:103A600074E032C080E010D880910C02869590E01E
:103A70002091F1113091F211280F391F2C5031098A
:103A80004091EF115091F011480F591F48515109C1
:103A900000E010E069EB74E08AE493E10E943DB439
:103AA00080910C02869590E02091F1113091F211F5
:103AB000280F391F4091EF115091F011480F591FF5
:103AC0004651510961EC74E08AE493E10E943DB4EF
:103AD0001F910F910895CF93DF93EB012A813B81D2
:103AE000FC01338322834C815D816E817F8144831D
:103AF000558366837783488559856A857B854087AA
:103B00005187628773872DE0FE013C96DC011C968D
:103B100001900D922A95E1F7298D3A8DFC01328FA3
:103B2000218FDF91CF910895EF92FF920F931F9312
:103B3000CF93DF93CDB7DEB7E7970FB6F894DEBF2C
:103B40000FBECDBF7C018B0141E06FED72E1CE0174
:103B50004C960E948371CE014C960E94C76E8823BA
:103B600099F1CE014C960E944C6EBC01C8010E9496
:103B7000A0C3882359F16EE175E086E398E10E94C5
:103B8000C2BFCE014C960E94B56E41E06FED72E16E
:103B9000CE0101960E948371BE016F5F7F4FCE01FF
:103BA0004C9699DFCE014C960E94C76E882341F057
:103BB000CE014C960E944C6EBC01C8010E94D5C239
:103BC000CE014C960E94B56E21E001C020E0CE01EE
:103BD0004C962FAB0E94B56E2FA9222309F4B4CFC7
:103BE000B801C7010E94CDC2C701E7960FB6F8948D
:103BF000DEBF0FBECDBFDF91CF911F910F91FF9020
:103C0000EF900895EF92FF920F931F93CF93DF935E
:103C1000CDB7DEB7EC970FB6F894DEBF0FBECDBFC1
:103C20007C018B016AED77E0CE01C7960E94A3C2AA
:103C300041E06FED72E1CE014C960E948371CE019E
:103C40004C960E94C76E882389F0CE014C960E9444
:103C50004C6EBC01C8010E94A0C3882339F06AE2FF
:103C600075E086E398E10E94C2BF48C0CE014C9641
:103C70000E944C6EBC01CE01C7960E94D5C26FE275
:103C800075E086E398E10E9497BFBE01695C7F4FB3
:103C900086E398E10E94B2BFCE014C960E94B56EB9
:103CA00041E06FED72E1CE0101960E948371BE0189
:103CB0006F5F7F4FCE014C960EDFCE014C960E9477
:103CC000C76E8823D9F0CE014C960E944C6EBC0181
:103CD000C8010E94A0C3882339F0BE01695C7F4FF0
:103CE000C8010E94B8C20AC0CE014C960E944C6E18
:103CF000BC01CE01C7960E94D5C2CECFCE014C9654
:103D00000E94B56EB801C7010E94CDC2CE01C79610
:103D10000E943AC2C701EC960FB6F894DEBF0FBE00
:103D2000CDBFDF91CF911F910F91FF90EF9008953C
:103D3000CF92DF92EF92FF920F931F93CF93DF9377
:103D4000CDB7DEB7A1970FB6F894DEBF0FBECDBFDB
:103D50007C018B016A016BE375E086E398E10E94C8
:103D600097BFB80186E398E10E94B2BF66E575E0AF
:103D700086E398E10E94C2BF8FED92E10E94E87154
:103D80006AED77E0C8010E94A0C38823D1F041E02A
:103D90006FED72E1CE0101960E948371CE01019612
:103DA0000E94C76E882341F0CE0101960E944C6E9E
:103DB000BC01C8010E94D5C2CE0101960E94B56E19
:103DC0002AC01C141D0464F4B801CE014C960E9454
:103DD000CDC2BE01645E7F4FCE010196A5DE0DC04F
:103DE000CD28C9F0B801CE014C960E94CDC2BE01CB
:103DF000645E7F4FCE01019605DFBE016F5F7F4F8E
:103E0000C8010E94B8C2CE0101960E943AC2CE01FA
:103E10004C960E943AC268E675E086E398E10E94FB
:103E200097BFB80186E398E10E94B2BFB801C7010D
:103E30000E94CDC2C701A1960FB6F894DEBF0FBE97
:103E4000CDBFDF91CF911F910F91FF90EF90DF9049
:103E5000CF900895CF92DF92EF92FF920F931F932E
:103E6000CF93DF93CDB7DEB762970FB6F894DEBF7E
:103E70000FBECDBF25E045E065E08AE493E10E94F6
:103E800081AE4091F5115091F6118A01085E1F4FE5
:103E9000465F5F4F6091EF117091F01120E431E0C7
:103EA0008AE493E10E94BBAF2FEF4FEF6FEF8AE4FC
:103EB00093E10E9481AE25E045E065E08AE493E16C
:103EC0000E9495AE6FE775E0CE010D960E94A3C2E9
:103ED0006AED77E08AEF92E10E94A0C3811108C0E9
:103EE00064E07AE08AEF92E10E94A0C3882309F19E
:103EF0008091DD12882319F16AED77E0CE010796F3
:103F00000E94A3C241E050E0BE01695F7F4FCE0135
:103F100001960EDFBE016F5F7F4F8AEF92E10E9434
:103F2000B8C2CE0101960E943AC2CE0107960E9405
:103F30003AC26AEF72E1CE010D960E94B8C2E090DB
:103F4000F511F090F6118AE0E80EF11CC090EF1127
:103F5000D090F011BE01635F7F4FCE0101960E94A9
:103F6000CDC200E010E09701A601BE016F5F7F4F58
:103F70008AE493E10E94E6B4CE0101960E943AC21F
:103F8000CE010D960E943AC262960FB6F894DEBF3B
:103F90000FBECDBFDF91CF911F910F91FF90EF909A
:103FA000DF90CF9008952091EC114091ED11609138
:103FB000EE118AE493E10E9495AE25E045E065E0CC
:103FC0008AE493E10E9481AE80910A02813059F522
:103FD0008091A912882311F081E201C080E20E9441
:103FE00000168091DD12882319F082E00E940016ED
:103FF0008091A712882319F084E20E940016809114
:104000002E15882311F088E001C087E00E94001679
:1040100080914C02882311F084E001C085E00E9469
:10402000001683E20FC080910A02823079F48DE19C
:104030000E9400168EE10E94001680914C02882397
:1040400019F084E00C94001685E0FCCF80910A0200
:104050008330B1F486E20E9400168BE00E940016C5
:104060008CE00E9400168091B012882311F082E249
:1040700001C080E10E9400168FE00E940016EACE87
:1040800080910A02863071F589E00E9400168AE06C
:104090000E94001682E10E94001683E10E94001631
:1040A00084E10E940016609157027091580280913D
:1040B000590290915A020E9428C69B01AC0160E708
:1040C00070E080910F12909110120E94D7126091AF
:1040D00053027091540280915502909156020E94B1
:1040E00028C658C080910A02843079F589E10E947F
:1040F00000168AE10E9400168BE10E9400168CE1F6
:104100000E94001684E10E94001620911002309156
:104110001102409112025091130260E770E0809109
:104120000F12909110120E94251320914E0230918F
:104130004F02409150025091510260E770E080912F
:104140001712909118120C94251380910A02853051
:1041500021F585E10E94001686E10E94001687E1A4
:104160000E94001688E10E94001684E10E94001659
:1041700083E692E10E94E8839B01AC0160E770E076
:1041800080910F12909110120E94D7128FE192E14C
:104190000E94E8839B01AC014CC080910A028730E9
:1041A00089F48FE10E94001684E10E9400168DE1DF
:1041B0000E9400168EE10E94001685E20E94001601
:1041C00087E240CF80910A02883029F48CE20E9475
:1041D000001684E137CF80910A02893091F588E298
:1041E0000E94001689E20E9400168AE20E940016D0
:1041F0008BE20E9400168DE20E94001684E10E946C
:1042000000162091790230917A02442737FD4095BB
:10421000542F60E770E080910F12909110120E946D
:10422000D71220917B0230917C02442737FD4095C4
:10423000542F60E770E080911712909118120C943F
:10424000D71208952091EC114091ED116091EE117B
:104250008AE493E10E9481AE8AE493E10E94E1AD99
:1042600081E080930A029FCE2091EC114091ED11E4
:104270006091EE118AE493E10E9481AE8AE493E1B9
:104280000E94E1AD83E080930A028DCE8F929F92CF
:10429000AF92BF92CF92DF92EF92FF920F931F9354
:1042A000CF93DF93CDB7DEB72C970FB6F894DEBF70
:1042B0000FBECDBF6C015B0180910A02813009F015
:1042C00055C025E045E065E08AE493E10E9481AEB7
:1042D0004091F5115091F6118A01085E1F4F465F1B
:1042E0005F4F6091EF117091F01120E431E08AE4AA
:1042F00093E10E94BBAF2FEF4FEF6FEF8AE493E1A2
:104300000E9481AE25E045E065E08AE493E10E94E9
:1043100095AEE090F511F090F6118AE0E80EF11CF0
:104320008090EF119090F011B501CE0101960E949E
:10433000CDC2B601CE0101960E9429C3BC01CE01B7
:1043400007960E94CDC200E010E09701A401BE01D3
:10435000695F7F4F8AE493E10E94E6B4CE0107963D
:104360000E943AC2CE0101960E943AC22C960FB624
:10437000F894DEBF0FBECDBFDF91CF911F910F919B
:10438000FF90EF90DF90CF90BF90AF909F908F9075
:10439000089590910A02913071F58330C9F028F4A4
:1043A000813051F0823079F0CAC08530E9F0A8F050
:1043B000863009F4C5C0C3C08091A912882309F4CE
:1043C000C1C081E208958091DD128111BDC0B7C0E6
:1043D0008091A7128111BAC0B2C080914C0288238B
:1043E00009F4B6C084E0089580912E15882309F45D
:1043F000B1C088E0089590910A029630A9F4843003
:1044000009F4B8C038F4823069F0833009F097C0FD
:1044100083E10895853009F49FC0863009F08FC08C
:1044200082E108958AE0089590910A029430A9F4F7
:10443000843009F49FC038F4823069F0833009F089
:104440007EC08AE10895853009F488C0863009F07D
:1044500076C089E108958CE1089590910A02953023
:10446000A9F4843009F486C038F4823069F08330CE
:1044700009F065C088E10895853009F471C086307F
:1044800009F05DC087E1089586E1089590910A02E0
:104490009930C1F4833091F030F4813069F082308A
:1044A00009F460C04CC0853059F008F463C0863010
:1044B00009F045C088E208958DE2089589E20895E3
:1044C0008AE2089590910A029330A9F4843009F4A5
:1044D0004BC020F4823099F58CE00895853019F0B6
:1044E000863019F02CC08BE008958091B01288239B
:1044F000E9F182E2089590910A029730A9F483309D
:1045000079F028F4813051F0823091F118C0853073
:1045100049F080F1863099F487E2089585E20895A4
:104520008EE108958DE1089590910A02983039F452
:10453000813019F08430F1F002C08CE208950895C2
:1045400083E2089580E2089582E0089584E2089568
:1045500085E0089587E0089589E008958BE1089546
:1045600085E108958BE208958FE0089580E1089534
:104570008FE1089584E108950F931F93CF93DF9304
:104580008C01EB016DE875E086E398E10E9497BF2E
:104590004AE050E0B80186E398E10E9471C066E00D
:1045A00076E086E398E10E9497BF4AE050E0BE01C2
:1045B00086E398E10E9478C08091EF119091F0110C
:1045C00008171907B4F08091F3119091F411801736
:1045D00091077CF08091F1119091F211C817D907E1
:1045E00044F08091F5119091F6118C179D070CF015
:1045F00090C08091F7119091F81108171907B4F045
:104600008091FB119091FC11801791077CF08091B3
:10461000F9119091FA11C817D90744F08091F5115A
:104620009091F6118C179D070CF075C08091FF11C9
:104630009091001208171907B4F08091031290911D
:104640000412801791077CF0809101129091021260
:10465000C817D90744F080910512909106128C1763
:104660009D070CF05AC0809107129091081208170C
:104670001907B4F080910B1290910C1280179107DA
:104680007CF08091091290910A12C817D90744F062
:1046900080910D1290910E128C179D070CF03FC067
:1046A00080910F129091101208171907ACF08091A9
:1046B0001312909114128017910774F080911112C7
:1046C00090911212C817D9073CF080911512909161
:1046D00016128C179D072CF58091171290911812C5
:1046E00008171907ACF080911B1290911C128017CB
:1046F000910774F08091191290911A12C817D90776
:104700003CF080911D1290911E128C179D075CF455
:104710000BC081E009C082E007C083E005C084E0EF
:1047200003C085E001C086E0DF91CF911F910F911A
:104730000895CF92DF92EF92FF920F931F93CF9342
:10474000DF93EC018B016A0169E070E08FE295E193
:104750000E94348AEE24D7FCE094FE2CC017D107C7
:10476000CCF4BE018FE295E10E947A8AC701B601BE
:104770000E9480BB21960C171D079CF78FE295E1E4
:10478000DF91CF911F910F91FF90EF90DF90CF902D
:104790000C94398ABE018FE295E10E947A8AC701A2
:1047A000B6010E9480BB2197C017D1079CF7E6CFC6
:1047B0000F931F93CF93DF9300D000D0CDB7DEB718
:1047C0008091D0149091D11420912E1502972CF144
:1047D000222329F000917B0210917C0204C00091F9
:1047E000790210917A0264EE74E1CE0101960E9482
:1047F000CDC2CE0101960E944C0E90937C02809314
:104800007B02CE0101960E943AC260917B027091B8
:104810007C0243E050E0C8010CC021110BC0609144
:104820007B0270917C0243E050E08091790290918C
:104830007A027FDF81E080932E1526960FB6F894DA
:10484000DEBF0FBECDBFDF91CF911F910F910895B5
:104850000F931F93CF93DF9300D000D0CDB7DEB777
:104860008091D0149091D11420912E1502972CF1A3
:10487000222329F000917B0210917C0204C0009158
:10488000790210917A0264EE74E1CE0101960E94E1
:10489000CDC2CE0101960E944C0E90937A02809375
:1048A0007902CE0101960E943AC26091790270911C
:1048B0007A0243E050E0C8010CC0222359F0609115
:1048C000790270917A0243E050E080917B029091EE
:1048D0007C022FDF10922E1526960FB6F894DEBFBD
:1048E0000FBECDBFDF91CF911F910F9108954F92D1
:1048F0005F926F927F92AF92BF92CF92DF92EF92D0
:10490000FF920F931F93CF93DF93CDB7DEB7289716
:104910000FB6F894DEBF0FBECDBF6D837E838F834D
:10492000988729013A01E982FA820B831C8369E2A4
:1049300074E086E398E10E9464BF2AE030E04D8194
:104940005E816F81788586E398E10E942AC06DE1DF
:1049500074E086E398E10E9464BF2AE030E0B3018E
:10496000A20186E398E10E942AC061E174E086E337
:1049700098E10E9464BF2AE030E049815A816B814E
:104980007C8186E398E10E942AC065E074E086E3BA
:1049900098E10E9464BF2AE030E0B601A50186E3F9
:1049A00098E10E942AC063E074E086E398E10E94E7
:1049B000A2BF2D813E814F81588589819A81AB812B
:1049C000BC81281739074A075B0744F44816590683
:1049D0006A067B06C4F465EF73E053C02D813E8107
:1049E0004F81588589819A81AB81BC818217930759
:1049F000A407B507C4F4A414B504C604D7045CF432
:104A000067EE73E058C0A414B504C604D70494F547
:104A100069ED73E029C04A145B046C047D04BCF5A5
:104A20006BEC73E014C02D813E814F8158858981E4
:104A30009A81AB81BC81281739074A075B0739F592
:104A40004A145B046C047D0444F463EC73E086E375
:104A500098E10E94A2BF81E03AC0A414B504C60444
:104A6000D70474F56BEB73E086E398E10E94A2BF74
:104A700083E02DC04A145B046C047D0409F563EBEC
:104A800073E086E398E10E94A2BF84E020C02D81FC
:104A90003E814F81588589819A81AB81BC81821783
:104AA0009307A407B50764F44A145B046C047D04FF
:104AB00039F46BEA73E086E398E10E94A2BF06C076
:104AC00060E975E086E398E10E94C2BF82E0289623
:104AD0000FB6F894DEBF0FBECDBFDF91CF911F910F
:104AE0000F91FF90EF90DF90CF90BF90AF907F90AD
:104AF0006F905F904F9008958F929F92AF92BF9268
:104B0000CF92DF92EF92FF92CF93DF936B017C0104
:104B100020911015309111154091121550911315D7
:104B20000E9448C74B015C0120E030E040E050E4C7
:104B30000E9444C787FD06C0C501B4010E9428C673
:104B4000EB0102C0C1E0D0E06DE873E086E398E1DC
:104B50000E9464BF22E030E0B701A60186E398E13D
:104B60000E94A6C16AE873E086E398E10E9464BFF0
:104B70004AE050E0BE0186E398E10E9471C062E81D
:104B800073E086E398E10E9464BF86E398E10E94A7
:104B90009FBFCE01DF91CF91FF90EF90DF90CF903C
:104BA000BF90AF909F908F900895CF93DF936091C7
:104BB0004E0270914F0280915002909151029CDF01
:104BC000EC0164EA74E186E398E10E9489BF68E938
:104BD00074E186E398E10E9489BF6CEA75E086E3A0
:104BE00098E10E9497BFCC0FDD1F4AE050E0BE0164
:104BF00086E398E10E9471C06FE67EE086E398E16B
:104C00000E9497BF6091710270917202CE010E9462
:104C100071C84AE050E086E398E10E9471C062ECFE
:104C200075E086E398E1DF91CF910C94C2BFCF93FA
:104C3000DF9300D000D0CDB7DEB764EE74E1CE01D3
:104C400001960E94CDC2CE0101960E947C0E609317
:104C50004E0270934F028093500290935102CE0106
:104C600001960E943AC264EA74E186E398E10E94E8
:104C700089BF68E974E186E398E10E9489BF6EE428
:104C800075E086E398E10E9464BF40914E02509126
:104C90004F02609150027091510222E030E086E3B1
:104CA00098E10E94A6C16BE475E086E398E10E945A
:104CB00064BF86E398E10E949FBF77DF26960FB618
:104CC000F894DEBF0FBECDBFDF91CF9108958F92D4
:104CD0009F92AF92BF92CF92DF92EF92FF920F938B
:104CE0001F93CF93DF936B017C01EA01BA01882700
:104CF00077FD8095982F0E945BC620911415309106
:104D0000151540911615509117150E9448C74B0173
:104D10005C016CE673E086E398E10E9464BF22E0E8
:104D200030E0B501A40186E398E10E94A6C16EE5DA
:104D300073E086E398E10E9464BF4091141550919E
:104D40001515609116157091171522E030E086E375
:104D500098E10E94A6C166E473E086E398E10E94B0
:104D600064BF4AE050E0BE0186E398E10E9478C04B
:104D7000A7019601C501B4010E94C0C54B015C01A9
:104D800020E030E040E050E40E9444C787FD09C0C5
:104D9000C501B4010E9428C68B0162307105ECF593
:104DA00002C001E010E068E273E086E398E10E944F
:104DB00064BF22E030E0B701A60186E398E10E94DB
:104DC000A6C16FE173E086E398E10E9464BF4AE008
:104DD00050E0BE0186E398E10E9471C06AE173E091
:104DE00086E398E10E9464BF4AE050E0B80186E3A0
:104DF00098E10E9478C064EA74E186E398E10E9439
:104E000089BF68E974E186E398E10E9489BF66EF93
:104E100072E086E398E10E94A2BFC801DF91CF91C2
:104E20001F910F91FF90EF90DF90CF90BF90AF90C8
:104E30009F908F9008954F925F926F927F928F9282
:104E40009F92AF92BF92CF92DF92EF92FF92CF9359
:104E5000DF936C017B01EA01BA01882777FD809519
:104E6000982F0E945BC64B015C01B601882777FD35
:104E70008095982F0E945BC62B013C01B7018827C3
:104E800077FD8095982F0E945BC69B01AC01C30102
:104E9000B2010E94C0C5A50194010E9448C79B01B0
:104EA000AC01C501B4010E9454C54B015C016EEE1A
:104EB00072E086E398E10E9464BF4AE050E0B601E8
:104EC00086E398E10E9471C065EE72E086E398E1A6
:104ED0000E9464BF4AE050E0B70186E398E10E9477
:104EE00071C06BED72E086E398E10E9464BF4AE016
:104EF00050E0BE0186E398E10E9471C060ED72E06F
:104F000086E398E10E9464BF22E030E0B501A4018D
:104F100086E398E10E94A7C1C501B4010E9428C69A
:104F2000EB01882777FD8095982F0E945BC69B0137
:104F3000AC01C501B4010E9454C520E030E040E05E
:104F40005FE30E9444C718160CF42196CE01DF914E
:104F5000CF91FF90EF90DF90CF90BF90AF909F9058
:104F60008F907F906F905F904F9008958091440252
:104F7000882319F010924402089581E0809344023E
:104F800008958F929F92AF92BF92CF92DF92EF924D
:104F9000FF92CF93DF9300D000D0CDB7DEB7C090A3
:104FA0001015D0901115E0901215F090131564EEC5
:104FB00074E1CE0101960E94CDC2CE0101960E94FD
:104FC0001C0E0E945BC69B01AC01C701B6010E948A
:104FD00048C70E9428C660933402709335028093BC
:104FE000360290933702CE0101960E943AC2C090D9
:104FF0001015D0901115E0901215F09013156EED6C
:1050000074E1CE0101960E94CDC2CE0101960E94AC
:105010001C0E0E945BC69B01AC01C701B6010E9439
:1050200048C70E9428C66093300270933102809373
:10503000320290933302CE0101960E943AC2C09090
:105040001015D0901115E0901215F090131568ED21
:1050500074E1CE0101960E94CDC2CE0101960E945C
:105060001C0E0E945BC69B01AC01C701B6010E94E9
:1050700048C70E9428C660932C0270932D0280932B
:105080002E0290932F02CE0101960E943AC2C09048
:105090001015D0901115E0901215F090131562EDD7
:1050A00074E1CE0101960E94CDC2CE0101960E940C
:1050B0001C0E0E945BC69B01AC01C701B6010E9499
:1050C00048C70E9428C660932802709329028093E3
:1050D0002A0290932B02CE0101960E943AC280913F
:1050E000340290913502A0913602B091370280903F
:1050F0000C1590900D15A0900E15B0900F158816F8
:105100009906AA06BB068CF4C501B40122E030E082
:1051100040E050E00E94A6C820933402309335024C
:10512000409336025093370211C0181619061A061A
:105130001B0664F081E090E0A0E0B0E080933402D0
:1051400090933502A0933602B093370280913002DB
:1051500090913102A0913202B0913302C0900815B3
:10516000D0900915E0900A15F0900B15C816D906D5
:10517000EA06FB068CF4C701B60122E030E040E00D
:1051800050E00E94A6C82093300230933102409331
:1051900032025093330211C0181619061A061B0664
:1051A00064F081E090E0A0E0B0E080933002909362
:1051B0003102A0933202B0933302409134025091F5
:1051C0003502609136027091370280912C029091E5
:1051D0002D02A0912E02B0912F02840F951FA61FC1
:1051E000B71F88169906AA06BB0664F4841A950AA6
:1051F000A60AB70A80922C0290922D02A0922E024B
:10520000B0922F02409130025091310260913202EF
:10521000709133028091280290912902A0912A0274
:10522000B0912B02840F951FA61FB71FC816D90671
:10523000EA06FB0664F4C41AD50AE60AF70AC09225
:105240002802D0922902E0922A02F0922B0281E0F9
:105250008093021364EC75E086E398E10E94C2BF7C
:105260006DE875E086E398E10E9497BF40913402B3
:105270005091350260913602709137022AE030E099
:1052800086E398E10E942AC06BED75E086E398E121
:105290000E9497BF409130025091310260913202DA
:1052A000709133022AE030E086E398E10E942AC040
:1052B0006FED75E086E398E10E9497BF40912C0264
:1052C00050912D0260912E0270912F022AE030E061
:1052D00086E398E10E942AC067EE75E086E398E1D4
:1052E0000E9497BF409128025091290260912A02A2
:1052F00070912B022AE030E086E398E10E948EC094
:1053000060EF75E086E398E10E94C2BF6DE875E04A
:1053100086E398E10E9497BF609134027091350254
:1053200080913602909137020E945BC6209114153D
:105330003091151540911615509117150E9448C7C8
:10534000AB01BC0122E030E086E398E10E94A6C1F7
:1053500064E076E086E398E10E9497BF60913002B6
:105360007091310280913202909133020E945BC6AB
:10537000209114153091151540911615509117155F
:105380000E9448C7AB01BC0122E030E086E398E10F
:105390000E94A6C16BE076E086E398E10E9497BF89
:1053A00060912C0270912D0280912E0290912F021B
:1053B0000E945BC620911415309115154091161569
:1053C000509117150E9448C7AB01BC0122E030E0A4
:1053D00086E398E10E94A6C166E176E086E398E163
:1053E0000E9497BF609128027091290280912A0241
:1053F00090912B020E945BC62091141530911515D7
:1054000040911615509117150E9448C7AB01BC0179
:1054100022E030E086E398E10E94A6C162E276E0F5
:1054200086E398E10E94C2BF26960FB6F894DEBFCD
:105430000FBECDBFDF91CF91FF90EF90DF90CF9067
:10544000BF90AF909F908F9008950F931F93CF932D
:10545000DF9300D000D0CDB7DEB764EE74E1CE01AB
:1054600001960E94CDC2CE0101960E944C0E8C0185
:10547000CE0101960E943AC2012B19F41092091331
:105480000EC080910213882321F081E080930913DC
:1054900006C066E276E086E398E10E94C2BF2696E7
:1054A0000FB6F894DEBF0FBECDBFDF91CF911F9135
:1054B0000F9108958F929F92AF92BF92CF92DF92F9
:1054C000EF92FF920F931F93CF93DF93CDB7DEB789
:1054D000E6970FB6F894DEBF0FBECDBF7C018B01FF
:1054E000AEE9CA2EA1E1DA2EBDE09B2E5B018FEF63
:1054F000A81AB80A41E0B701CE014C960E94837108
:10550000CE014C960E94C76E882311F0812C19C0E1
:1055100062E774E086E398E10E94C2BFE6960FB6A8
:10552000F894DEBF0FBECDBFDF91CF911F910F91D9
:10553000FF90EF90DF90CF90BF90AF909F908F90B3
:105540000895882D90E0801791073CF469E086E388
:1055500098E10E9498BF8394F4CFCE014C960E94AC
:105560004C6EBC0186E398E10E9497BFCE014C9639
:105570000E944E6E882371F166ED77E086E398E134
:105580000E94C2BF8E8D9F8D9C838B8388A199A121
:10559000AAA1BBA18D839E83AF83B8878CA19DA157
:1055A000AEA1BFA189879A87AB87BC87DA82C982FF
:1055B000FE01B896DE011D96892D01900D928A9507
:1055C000E1F78DA99EA99B8F8A8FB501CE01019627
:1055D00071DF12C068ED77E086E398E10E9497BF23
:1055E000CE014C960E94786EAB01BC012AE030E0FF
:1055F00086E398E10E94BFC0CE014C960E94B56E32
:1056000079CFCF93DF93CDB7DEB76B970FB6F89412
:10561000DEBF0FBECDBF61E085E30E9467BC65E3DE
:1056200083E495E10E94D46F811107C06BED77E0B0
:1056300086E398E10E94C2BF09C067EF77E086E386
:1056400098E10E94C2BF81E08093DE128091DE1259
:10565000882309F455C06EE078E086E398E10E9463
:10566000C2BF21E046ED57E063E475E1CE0101964B
:105670000E94E870BE016F5F7F4F8FED92E10E9444
:105680006B1D81E08093DD128091E1129091E21216
:105690009C838B838091E3129091E412A091E51298
:1056A000B091E6128D839E83AF83B8878091E71215
:1056B0009091E812A091E912B091EA1289879A8735
:1056C000AB87BC878EE991E19A8389838DE0EBEE0D
:1056D000F2E1DE011D9601900D928A95E1F780912D
:1056E000F8129091F9129B8F8A8F60E070E0CE01E2
:1056F0000196E0DE60E278E086E398E10E94C2BFB6
:105700006B960FB6F894DEBF0FBECDBFDF91CF9181
:1057100008951092B0126AED77E08AEA92E10E9451
:10572000D5C21092DE121092DD126AED77E08AEF98
:1057300092E10E94D5C265CFCF92DF92EF92FF92A5
:105740000F931F93CF93DF93CDB7DEB76B970FB651
:10575000F894DEBF0FBECDBF6C01EDB6FEB6409132
:10576000FE125091FF124F5F5F4F8DB79EB7841BA3
:10577000950B0FB6F8949EBF0FBE8DBF0DB71EB729
:105780000F5F1F4F20E030E0B8018AEF92E10E94E6
:1057900035C423E1A80163E475E1CE0101960E94BE
:1057A000E870CE0101960E94C76E8823E1F066E2A0
:1057B00078E086E398E10E9497BF6AEF72E186E3A2
:1057C00098E10E94B2BFB601CE0101960E94B2BF1D
:1057D000CE0101960E94B56E67E378E086E398E11A
:1057E0000E94C2BF0CC06DE378E086E398E10E949E
:1057F00097BF6AEF72E186E398E10E94B2BF0FB6ED
:10580000F894FEBE0FBEEDBE6B960FB6F894DEBFE9
:105810000FBECDBFDF91CF911F910F91FF90EF9001
:10582000DF90CF900895CF92DF92EF92FF920F9387
:105830001F93CF93DF93EC018B016CE478E086E358
:1058400098E10E9497BF4AE050E0BE0186E398E1EC
:105850000E9471C065E578E086E398E10E9497BFF9
:105860004AE050E0B80186E398E10E9478C06AE51A
:1058700078E086E398E10E9497BF6091B51270913D
:10588000B6124AE050E086E398E10E9478C06AE6EA
:1058900078E086E398E10E9497BF4091BD12509155
:1058A000BE126091BF127091C0122AE030E086E310
:1058B00098E10E948EC0C090B512D090B612EE242E
:1058C000D7FCE094FE2C2091BD123091BE12409185
:1058D000BF125091C012D8010E94EDC8C60ED71E4B
:1058E000E81EF91ECE01AA2797FDA095BA2FC80E73
:1058F000D91EEA1EFB1E64E778E086E398E10E9469
:1059000097BF2AE030E0B701A60186E398E10E9444
:105910002AC08091B1129091B212A091B312B091AD
:10592000B4128C159D05AE05BF05D4F0B701A601D4
:1059300081EC92E10E945B6E81EC92E10E94CD6D60
:10594000C82F6DE778E086E398E10E9497BF4AE0B0
:1059500050E06C2F86E398E10E94AAC08C2F01C012
:105960008FEFDF91CF911F910F91FF90EF90DF901C
:10597000CF9008958F929F92AF92BF92EF92FF9235
:105980000F931F93CF93DF93CDB7DEB763970FB617
:10599000F894DEBF0FBECDBFEDB6FEB640E050E0DE
:1059A000BA0181EC92E10E945B6E6EE07AE0CE017A
:1059B0000D960E94A3C281EC92E10E94CD6D182F3A
:1059C00060E070E0CE010D960E9411C4FC011083CE
:1059D00081EC92E10E94CD6D182F61E070E0CE0164
:1059E0000D960E9411C4FC0110836CE878E0CE0192
:1059F0000D960E94670D8823A9F06FE878E086E392
:105A000098E10E9497BFBE01635F7F4F86E398E1F4
:105A10000E9489BF6DEA78E086E398E10E94C2BFE8
:105A200010E05EC168EC78E086E398E10E94C2BFB6
:105A300081EC92E10E94CD6D6AED77E0CE01079690
:105A40000E94A3C281EC92E10E94CD6D182F8A3092
:105A500009F18032F9F0133239F481EC92E10E94BD
:105A6000CD6D182F8A30C9F7BE01695F7F4FCE0117
:105A700001960E94CDC2612FCE0101960E9452C3B1
:105A8000BC01CE0107960E94B8C2CE0101960E94C9
:105A90003AC2D8CF6EEE78E086E398E10E9497BFD5
:105AA000BE01695F7F4F86E398E10E94B2BF4B85DC
:105AB0005C854F5F5F4F8DB79EB7841B950B0FB60C
:105AC000F8949EBF0FBE8DBF0DB71EB70F5F1F4F5F
:105AD00020E030E0B801CE0107960E9435C4C8012D
