:100000000C94FF0C0C94300D0C94300D0C94300DAE
:100010000C94300D0C94300D0C94300D0C94300D6C
:100020000C94300D0C94300D0C94300D0C94300D5C
:100030000C94300D0C94300D0C94300D0C94300D4C
:100040000C94300D0C94A4830C94300D0C94300D52
:100050000C94300D0C94300D0C94300D0C94F6B5BE
:100060000C94300D0C945DB90C9493B90C94300D34
:100070000C94300D0C94300D0C94300D0C94300D0C
:100080000C94D1830C94300D0C94300D0C94300DE5
:100090000C94300D0C94300D0C94300D0C94300DEC
:1000A0000C94300D0C94300D0C94FE830C94300D98
:1000B0000C94300D0C94300D0C94300D0C942B845A
:1000C0000C94300D0C94300D0C94300D0C94300DBC
:1000D0000C94300D0C94300D0C94300D0C94300DAC
:1000E0000C94300DAB15AA16F916471762177D1739
:1000F0009817CB17411914192B18FE17061D061D4A
:100100005C187718061D89195C19801A7D1B501B15
:10011000DD1BB01B371A1C1AE919BC19EA1A9B1A05
:100120001D1BDE1511169218E11814174416061D32
:10013000E1189D1C701C3D1C101C7716D01C055826
:100140000D5C08580C580D5C115817581D5849582B
:10015000055A2D5A0D5C0D5C555AB9590D5C7758EE
:10016000A358665A685A915ABD5AE65AD158F75858
:100170003F5967595E5A5C5A605AFD570158F65903
:10018000625A125BAB590D5C645A2A5B5C5B8D5BF7
:10019000BE5B165BEE5B4F7C567C5D7C647C6B7C4F
:1001A000827C727C827C797CF27CF67CFA7CFE7CA0
:1001B000027D067D0A7D2E8D4C8D738D898D898DF6
:1001C000898DA08D288E2E8D288EC38D288ED18D61
:1001D000D18DEE8DEE8D738D548E548E738DD18DA9
:1001E000288E898DFC8D288E288E288E288E288E2C
:1001F000168E288E288EC18E22900B91DA91E59270
:10020000E5927794CB95709BD896C9983599FE9CCA
:10021000D79DB39FB39F0B91A6A8A6A80B91AA9EAA
:10022000B4A0F9937DA148A24EA475A307A54EA63C
:10023000A8A7BCA770971BB71EB70DB711B717B704
:1002400055B722B726B72CB730B734B73AB73EB751
:1002500042B755B748B74CB750B705A84CCDB2D444
:100260004EB93836A9020C50B9918688083CA6AA26
:10027000AA2ABE000000803F50424D20696D616790
:1002800065206D757374206265206174206C6561F2
:10029000737420313020706978656C7320776964DD
:1002A000652E002C206D61782064656E7369747909
:1002B0003A20002C2070656E2077696474683A20BB
:1002C0000050656E776964746820746573742000EB
:1002D0002C20726564756365643A002C206F757418
:1002E0004D61783A002C20696E4D61783A00696E54
:1002F00044656E733A004E6F7420706F7373696259
:100300006C6520746F206578707265737320616E00
:10031000792064657461696C2E0020697320002C5B
:1003200020677269643A20004D61782077617665B4
:100330007320666F722070656E53697A653A20008B
:100340002C20736F20726F7773697A6520696E2035
:1003500073746570733A20002C206D6D5065725374
:100360007465703A2000472C442C726F7773697A59
:100370006520696E206D6D3A20002073746570737E
:100380002E003A20004D696E207365676D656E74AE
:100390002073697A6520666F722070656E53697A82
:1003A00065200063616C632053450063616C6320CA
:1003B0004E570063616C632053570063616C632088
:1003C0004E450063616C63756C61746564204E45D5
:1003D0000063616C63756C617465642053570063DE
:1003E000616C63756C617465642053450063616C76
:1003F00063756C61746564204E57002E002C207369
:100400006F75726365423A20002E20536F757263D8
:1004100065413A20002C20746172676574423A206D
:1004200000546172676574413A20002C206F4F754B
:1004300074206E756D626572206F662077617665D7
:10044000733A20002C20696E7075742064656E7399
:100450006974793A20004D61782077617665732060
:100460007769746820746869732070656E20616EA6
:1004700064206772696473697A653A20002E002EE1
:1004800020656E6420706F696E743A200053746149
:10049000727420706F696E743A2000643A204E4581
:1004A00000643A204E5700643A20535700643A20C3
:1004B0005345002C206D61782064656E73697479F2
:1004C0003A20002C2070656E2077696474683A20A9
:1004D0000050656E776964746820746573742000D9
:1004E0004368616E67696E67206261636B20746F39
:1004F000206C697665206D6F64652E0046696C65B9
:100500002072656D6F7665642E0046696C652061AA
:100510006C7265616479206578697374732E004527
:100520007865637574696E6720636F6D6D616E6465
:100530003A0053746F72696E6720636F6D6D616E00
:10054000643A006D6D004368616E676564205065B4
:100550006E20776964746820746F20004E65772080
:10056000616363656C65726174696F6E3A20004EF9
:100570006577206D61782073706565643A20005559
:10058000703A2000446F776E3A2000504753504530
:1005900045442C0050474C4946542C005047535476
:1005A00045504D554C5449504C4945522C005047EC
:1005B00053544550535045525245562C0050474DC8
:1005C0004D5045525245562C00504753495A452CE0
:1005D0000050474E414D452C002900526563616C27
:1005E00063207061676548656967687420696E207B
:1005F00073746570732028002900526563616C6311
:100600002070616765576964746820696E2073742F
:100610006570732028002900292C2073746570737D
:100620005065724D4D202800526563616C63206DEA
:100630006D506572537465702028004C6F6164655D
:1006400064206D6F746F722073746570206D756CAB
:100650007469706C6965723A004C6F6164656420FE
:100660006D616368696E65206E616D653A004C6FFF
:100670006164656420757020706F733A004C6F611F
:1006800064656420646F776E20706F733A004C6FFE
:1006900061646564206D6F746F722073746570732C
:1006A00020706572207265763A004C6F61646564F3
:1006B000206D6D20706572207265763A004C6F6116
:1006C000646564206D616368696E6520686569674B
:1006D00068743A004C6F61646564206D6163686999
:1006E0006E652077696474683A00206E6F742072BA
:1006F00065636F676E697365642E0029206E6F7481
:10070000207061727365642E00436F6D6D20280048
:10071000536572766F200048617264776172653A42
:1007200020007600504F4C41524752415048204FD4
:100730004E21007C3C3E5E2B3D3F2F5B5D3B2C2AD7
:10074000225C001010205F0000000000000000008C
:100750000000000000000000000000000000000099
:10076000000000000000000000000007000F800FE4
:10077000800F800F800F8007000700000000000737
:100780000007000700000000000E380E380E380E7B
:1007900038063000000000000000000000000000EB
:1007A0000000000000000000000C300C300C307F16
:1007B000FE7FFE0C300C300C300C307FFE7FFE0CC8
:1007C000300C300C3000000000024002400FF81FD7
:1007D000F81A401A401FF00FF8025802581FF81F6D
:1007E000F00240024000000000000000000E100E69
:1007F000300E7000E001C0038007000E700C70081E
:1008000070000000000000000000000F00198019B7
:100810008019800F000F080F9819F818F018E019C8
:10082000F00F98000000000000000007000700071C
:10083000000E0000000000000000000000000000AA
:10084000000000000000000000000000F001C003F4
:100850008007000E000E000E000E0007000380014E
:10086000C000F000000000000000000F0003800145
:10087000C000E0007000700070007000E001C00374
:10088000800F0000000000000000000180118809B6
:100890009007E007E03FFC3FFC07E007E00990110C
:1008A000880180000000000000000000000000013E
:1008B00080018001800FF00FF00180018001800035
:1008C0000000000000000000000000000000000028
:1008D000000000000000000000000000000700070A
:1008E0000007000E000000000000000000000000F3
:1008F00000000000001FF81FF800000000000000CA
:1009000000000000000000000000000000000000E7
:1009100000000000000000000000000000070007C9
:1009200000070000000000000000000002000600B8
:100930000E001C0038007000E001C0038007000EAC
:10094000001C0000000000000000000FF01C381C1C
:10095000781CF81CF81DB81DB81F381F381E381C2D
:10096000380FF0000000000000000001800180034B
:10097000801F801F80038003800380038003800327
:10098000801FF000000000000000000FE01C701C41
:10099000380038007000E001C0038007000E381CEA
:1009A000381FF800000000000000000FE01C701C61
:1009B000380038007003C003C0007000381C381CB9
:1009C000700FE0000000000000000000E001E00304
:1009D000E006E00CE018E01FF81FF800E000E0007F
:1009E000E003F800000000000000001FF81C001CDD
:1009F000001C001C001FE01FF0007800381C381C91
:100A0000700FE0000000000000000003E007000E8F
:100A1000001C001C001FF01FF81C381C381C381C60
:100A2000380FF000000000000000001FFC1C1C1C20
:100A30001C1C1C001C0038007000E001C003800377
:100A400080038000000000000000000FF01C381C34
:100A5000381C381F3807E007E01CF81C381C381C0D
:100A6000380FF000000000000000000FF01C381CE0
:100A7000381C381C381FF80FF80038003800700098
:100A8000E007C000000000000000000000000003BC
:100A90008003800380000000000380038003800047
:100AA0000000000000000000000000000000000343
:100AB0008003800380000000000380038003800720
:100AC000000000000000000000007000E001C00312
:100AD0008007000E001C001C000E000700038001B0
:100AE000C000E000700000000000000000000000F6
:100AF000003FFC3FFC000000003FFC3FFC0000000A
:100B00000000000000000000001C000E00070003B1
:100B10008001C000E00070007000E001C0038007A9
:100B2000000E001C000000000003C00FF01E78182B
:100B3000380038007000E001C001C0000000000172
:100B4000C001C001C0000000000FF81C1C1C1C1CD0
:100B50001C1C1C1CFC1CFC1CFC1CFC1C001C001C8D
:100B6000001FF007F800000000000003C007E00EBF
:100B7000701C381C381C381C381FF81C381C381CDA
:100B8000381C3800000000000000001FF00E380E76
:100B9000380E380E380FF00FF00E380E380E380EB3
:100BA000381FF0000000000000000007F00E381CA5
:100BB000381C001C001C001C001C001C001C380EF3
:100BC0003807F000000000000000001FE00E700E6B
:100BD000380E380E380E380E380E380E380E380EE5
:100BE000701FE000000000000000001FF80E180E4B
:100BF000080E000E300FF00FF00E300E000E080E33
:100C0000181FF800000000000000001FF80E180E6A
:100C1000080E000E300FF00FF00E300E000E000E1A
:100C2000001F00000000000000000007F00E381C4C
:100C3000381C381C001C001C001CF81C381C380E0A
:100C40003807F800000000000000001C701C701C39
:100C5000701C701C701FF01FF01C701C701C701C2E
:100C6000701C7000000000000000000FE003800313
:100C7000800380038003800380038003800380035C
:100C8000800FE0000000000000000001FC00700088
:100C900070007000700070007038703870387038F4
:100CA000700FE000000000000000001E380E380E3B
:100CB000700EE00FC00F800F800FC00EE00E700EA0
:100CC000381E3800000000000000001F000E000E5B
:100CD000000E000E000E000E000E000E080E180E84
:100CE000381FF800000000000000001C1C1E3C1F04
:100CF0007C1FFC1FFC1DDC1C9C1C1C1C1C1C1C1CCD
:100D00001C1C1C00000000000000001C1C1C1C1E01
:100D10001C1F1C1F9C1DDC1CFC1C7C1C3C1C1C1C6C
:100D20001C1C1C000000000000000003E007F00E87
:100D3000381C1C1C1C1C1C1C1C1C1C1C1C0E3807DE
:100D4000F003E000000000000000001FF00E380E6D
:100D5000380E380E380FF00FF00E000E000E000E99
:100D6000001F00000000000000000003E00F780EEC
:100D7000381C1C1C1C1C1C1C1C1C7C1CFC0FF80F95
:100D8000F8003800FC0000000000001FF00E380ED4
:100D9000380E380E380FF00FF00E700E380E380E79
:100DA000381E3800000000000000000FF01C381C46
:100DB000381C381C000FE007F000381C381C381CA9
:100DC000380FF000000000000000001FFC19CC11DB
:100DD000C401C001C001C001C001C001C001C00107
:100DE000C007F000000000000000001C701C701C18
:100DF000701C701C701C701C701C701C701C701C93
:100E0000700FE000000000000000001C701C701C4F
:100E1000701C701C701C701C701C701C700EE00725
:100E2000C0038000000000000000001C1C1C1C1CF3
:100E30001C1C1C1C1C1C9C1C9C1C9C0FF80FF807E9
:100E400070077000000000000000001C701C701C87
:100E5000700EE007C00380038007C00EE01C701C0A
:100E6000701C7000000000000000001C701C701C52
:100E7000701C701C700EE007C003800380038003A9
:100E8000800FE000000000000000001FF81C381870
:100E900038107000E001C0038007000E081C181C09
:100EA000381FF8000000000000000007F0070007EE
:100EB00000070007000700070007000700070007FA
:100EC0000007F00000000000000000100018001CE7
:100ED000000E000700038001C000E0007000380031
:100EE0001C0007000000000000000007F000700078
:100EF0007000700070007000700070007000700072
:100F00007007F0000000000000018003C007E00E41
:100F1000701C38000000000000000000000000000D
:100F200000000000000000000000000000000000C1
:100F300000000000000000000000000000000000B1
:100F40000000007FFF7FFF000000001C001C000766
:100F5000000700000000000000000000000000008A
:100F60000000000000000000000000000000000081
:100F70000000000FE0007000700FF01C701C701C6F
:100F8000700FD800000000000000001E000E000ED0
:100F9000000E000FF00E380E380E380E380E380ED8
:100FA000381BF000000000000000000000000000FE
:100FB0000000000FE01C701C701C001C001C701C4A
:100FC000700FE0000000000000000000F80070005A
:100FD0007000700FF01C701C701C701C701C701C5A
:100FE000700FD800000000000000000000000000AA
:100FF0000000000FE01C701C701FF01C001C701C17
:10100000700FE0000000000000000003E007700720
:1010100070070007001FE01FE00700070007000738
:10102000001FC000000000000000000000000000E1
:101030000000000FD81C701C701C701C700FF00793
:10104000F000701C700FE0000000001E000E000E8B
:10105000000E000EF00F380F380E380E380E380E16
:10106000381E38000000000000000001C001C0016F
:10107000C000000FC001C001C001C001C001C0011B
:10108000C00FF800000000000000000070007000B9
:1010900070000003F00070007000700070007000BD
:1010A000701C700CF007E0000000001E000E000E27
:1010B000000E000E380E700EE00FC00EE00E700E27
:1010C000381E3800000000000000000FC001C00101
:1010D000C001C001C001C001C001C001C001C00108
:1010E000C00FF80000000000000000000000000039
:1010F0000000001FF81C9C1C9C1C9C1C9C1C9C1C25
:101100009C1C9C000000000000000000000000008B
:101110000000001FE01C701C701C701C701C701CF8
:10112000701C7000000000000000000000000000C3
:101130000000000FE01C701C701C701C701C701CE8
:10114000700FE00000000000000000000000000040
:101150000000001BF00E380E380E380E380E380F17
:10116000F00E000E001F0000000000000000000054
:101170000000001FB038E038E038E038E038E01F09
:10118000E000E000E001F0000000000000000000CE
:101190000000001EF00FF80F380E000E000E000EBB
:1011A000001F000000000000000000000000000020
:1011B0000000000FE01C301C300F8003E018701896
:1011C000700FE000000000000000000000010003BC
:1011D0000007001FF007000700070007000770075F
:1011E0007003E000000000000000000000000000AC
:1011F0000000001C701C701C701C701C701C701C8B
:10120000700FD80000000000000000000000000087
:101210000000001C701C701C701C701C700EE0071D
:10122000C00380000000000000000000000000007B
:101230000000001C1C1C1C1C1C1C9C1C9C0FF80788
:1012400070077000000000000000000000000000B7
:101250000000001CE01CE00FC0078007800FC01CCE
:10126000E01CE000000000000000000000000000A2
:101270000000000E380E380E380E380E3807F00316
:10128000E000E001C01F800000000000000000003E
:101290000000001FE018E011C0038007000E201CB2
:1012A000601FE0000000000000000001F803800360
:1012B00080038007001C001C0007000380038003DC
:1012C0008001F800000000000001C001C001C00161
:1012D000C001C001C001C001C001C001C001C00106
:1012E000C001C001C00000000000001F8001C0015B
:1012F000C001C000E00038003800E001C001C001BA
:10130000C01F8000000000000000001F1C3B9C3933
:10131000DC38F800000000000000000000000000C1
:1013200000000000000000080C205F00000000002A
:1013300000000000000000000020202020202000ED
:1013400020000000285050000000000000000000B5
:10135000002828FC2850FC50500000002078A8A04D
:10136000603028A8F02000000048A8B0502834546D
:10137000480000000020505078A8A8906C000000A1
:101380004040800000000000000000000408101031
:101390001010101008040000402010101010101041
:1013A00020400000000020A87070A820000000006D
:1013B00000202020F8202020000000000000000075
:1013C000000000004040800000000000F800000025
:1013D00000000000000000000000000040000000CD
:1013E00008101010202040404080000000708888C5
:1013F000888888887000000000206020202020203D
:10140000700000000070888810204080F800000004
:101410000070880830080888700000000010305004
:10142000509078101800000000F88080F0080888BC
:101430007000000000709080F088888870000000C4
:1014400000F89010202020202000000000708888E4
:101450007088888870000000007088888878084844
:1014600070000000000000200000000020000000CC
:1014700000000000200000002020000004081020D0
:101480004020100804000000000000F80000F800F0
:101490000000000040201008040810204000000058
:1014A00000708888102020002000000000708898BC
:1014B000A8A8B8807800000000202030505078485C
:1014C000CC00000000F0484870484848F000000098
:1014D00000788880808080887000000000F0484894
:1014E00048484848F000000000F848507050404814
:1014F000F800000000F8485070504040E000000044
:1015000000384880809C88483000000000CC484863
:1015100078484848CC00000000F8202020202020F7
:10152000F8000000007C10101010101090E0000077
:1015300000EC485060505048EC00000000E0404093
:1015400040404044FC00000000D8D8D8D8A8A8A843
:10155000A800000000DC486868585848E80000000F
:1015600000708888888888887000000000F04848EB
:1015700070404040E0000000007088888888E8984B
:101580007018000000F0484870504848EC00000017
:101590000078888060100888F000000000F8A8201B
:1015A000202020207000000000CC484848484848CF
:1015B0003000000000CC484850503020200000008F
:1015C00000A8A8A8705050505000000000D85050FB
:1015D00020205050D800000000D85050202020205B
:1015E0007000000000F8901020204048F800000033
:1015F000382020202020202020380000404040209B
:1016000020101010080000007010101010101010A2
:1016100010700000205000000000000000000000DA
:1016200000000000000000000000FC00200000009E
:1016300000000000000000000000000030483848B2
:101640003C00000000C04040704848487000000066
:10165000000000003848404038000000001808082A
:10166000384848483C0000000000000030487840FE
:1016700038000000001C2020782020207800000086
:10168000000000003C4830407844380000C0404032
:1016900070484848EC000000002000006020202036
:1016A0007000000000100000301010101010E0005A
:1016B00000C040405C507048EC00000000E020207A
:1016C00020202020F800000000000000F0A8A8A8BA
:1016D000A800000000000000F0484848EC000000AE
:1016E00000000000304848483000000000000000C2
:1016F000F04848487040E000000000003848484882
:1017000038081C0000000000D8604040E0000000E5
:101710000000000078403008780000000000202021
:10172000702020201800000000000000D848484821
:101730003C00000000000000EC4850302000000099
:1017400000000000A8A87050500000000000000039
:10175000D8502050D800000000000000EC48503065
:101760002020C00000000000781020207800000039
:101770001810101020101010101800101010101059
:1017800010101010101010006020202010202020B9
:1017900020600040A41800000000000000000000CD
:1017A000000A0B02090C0D0E0807030401000000DB
:1017B0000000000000000000000000000000000029
:1017C00000000000000000000000001211100000E6
:1017D0000000000000000000000000000000000009
:1017E0000000000000010210202008081020401016
:1017F00020408002010201080402010102040810D5
:1018000020408080402010080402018004020180F2
:10181000402010080402010804020101020408101B
:1018200020408001020408102040800505050507BE
:101830000508080808020202020A0A08080404044B
:101840000401010101010101010303030303030377
:1018500003040707070C0C0C0C0C0C0C0C02020206
:101860000206060606060606060B0B0B0B0B0B0BF9
:101870000B000020002300260029002C002F00323E
:1018800000000100000301060109010000220025FB
:101890000028002B002E003100340002010000055A
:1018A0000108010B0100002100240027002A002D5F
:1018B000003000330001010000040107010A014E5D
:1018C000414E494E495459494E46CDCCCC3D0AD79C
:1018D000233C17B7D13877CC2B329595E6241FB12E
:1018E0004F0A000020410000C84200401C4620BCB6
:1018F000BE4CCA1B0E5AAEC59D7400407A10F35AF6
:1019000000A0724E18090010A5D4E80000E876483F
:10191000170000E40B54020000CA9A3B000000E1EB
:10192000F505000080969800000040420F0000007E
:10193000A08601000000102700000000E80300005E
:1019400000006400000000000A0000000000010028
:10195000000000002C76D888DC674F0823DFC1DF49
:10196000AE59E1B1B796E5E3E453C63AE65199764C
:1019700096E8E6C28426EB898C9B62ED407C6FFC86
:10198000EFBC9C9F40F2BAA56FA5F490055A2AF7C8
:101990005C936B6CF9676DC11BFCE0E40D47FEF5D1
:1019A00020E6B500D0ED902E030094357705008039
:1019B000841E080000204E0A000000C80C33333398
:1019C000330F986E12831141EF8D2114893BE65538
:1019D00016CFFEE6DB18D1844B381BF77C1D901D1B
:1019E000A4BBE424203284725E228100C9F124EC7D
:1019F000A1E53D271C36F46C0570C5B902381124E9
:101A00001FBECFEFD1E2DEBFCDBF00E00CBF12E1C1
:101A1000A0E0B2E0E6EFF5E901E00BBF02C00790FD
:101A20000D92A832B107D9F729E1A8E2B2E101C0CD
:101A30001D92A033B207E1F719E1CCEFD9E100E044
:101A400006C022970109FE010BBF0E9477C3C43F65
:101A5000D10780E00807A9F70E94CABF0C94EACA20
:101A60000C9400000E94E3BE91E0811190E0892F68
:101A70000895CF92DF92EF92FF920F931F93CF932F
:101A8000DF93CDB7DEB7BC01EDB6FEB6FC01019029
:101A90000020E9F73197E81BF90B8DB79EB78E1B35
:101AA0009F0B0FB6F8949EBF0FBE8DBF0DB71EB72C
:101AB0000F5F1F4FC8010E9477C66EEC71E1C8012D
:101AC0000E944AC68C01109243151092351510924F
:101AD000271510921915D12CC12CD11004C0B801B2
:101AE00081E595E13CC06EEC71E180E090E00E9400
:101AF0004AC68C01009741F0BC0189EC91E10E943B
:101B00009BC6892B09F4C39492E0D916A1F09D15C8
:101B100020F081E0D81641F024C093E0D91691F06E
:101B200084E0D816B1F01DC001151105D1F0B8013F
:101B300083E495E114C00115110599F0B80185E31E
:101B400095E10DC00115110561F0B80187E295E13D
:101B500006C00115110529F0B80189E195E10E943F
:101B600077C6D39496E0D912B8CFC09218150FB6A5
:101B7000F894FEBE0FBEEDBEDF91CF911F910F9185
:101B8000FF90EF90DF90CF900895CF93DF93EC011B
:101B900069EC71E10E949BC6FC01148269EC71E161
:101BA0000E946EC6892B21F4CE0163DF81E001C063
:101BB00080E0DF91CF91089566ED74E18CE898E1C3
:101BC0000C9492BACF93DF93EC0165E572E08CE858
:101BD00098E10E9477BABE018CE898E10E9469BA48
:101BE0006AEE76E08CE898E1DF91CF910C9482BAAE
:101BF00061E083E00E9456B761E083E00E948FB706
:101C000061E086E00E9456B761E086E00E948FB7EF
:101C100063E081EA92E10E94B28221E040E060E06C
:101C200081EA92E10E94C78266E08DE592E10E941E
:101C3000B28221E040E061E08DE592E10C94C78240
:101C4000CF93DF93C0E0D0E04AE050E0BE018CE8E3
:101C500098E10E9451BB63E373E08CE898E10E9435
:101C600077BACE010E94F9C64AE050E0682F8CE8AE
:101C700098E10E948ABB2196C832D10529F7DF91ED
:101C8000CF910895FF920F931F93CF93DF93CDB71A
:101C9000DEB72C970FB6F894DEBF0FBECDBF69E25A
:101CA00078E0CE0107960E94A7BD04E010E0C801CD
:101CB0000E94F9C6F82EBE01695F7F4FCE010196E2
:101CC0000E9406BE6F2DCE0101960E9496BEBC01F9
:101CD000CE0107960E94F1BDCE0101960E943FBD44
:101CE0000F5F1F4F0C30110511F760E070E0CE015F
:101CF00007960E9432BFFC018081811106C06FE609
:101D000075E1CE0107960E94F1BD10925B1510920D
:101D10005C1510925D1510925E15BE01695F7F4FD4
:101D200085E795E10E94F1BD69E576E08CE898E1F0
:101D30000E9446BA65E775E18CE898E10E9492BA84
:101D4000CE0107960E943FBD2C960FB6F894DEBFD9
:101D50000FBECDBFDF91CF911F910F91FF900895DE
:101D600083E495E10E94FFC590935D0280935C023D
:101D700085E395E10E94FFC590935F0280935E0228
:101D800008955EDF61ED75E08CE898E10E9446BA47
:101D900065E775E18CE898E10E9469BA69EC71E148
:101DA0008CE898E10E94A2BA69EC75E08CE898E1B1
:101DB0000E9446BA6091790270917A024AE050E03E
:101DC0008CE898E10E9451BB6EEC71E18CE898E1DF
:101DD0000E9477BA60917702709178024AE050E0F1
:101DE0008CE898E10E9451BB69EC71E18CE898E1C4
:101DF0000E94A2BA6DEB75E08CE898E10E9446BAA9
:101E0000409185025091860260918702709188020C
:101E100022E030E08CE898E10E9486BC69EC71E138
:101E20008CE898E10E94A2BA6EEA75E08CE898E12D
:101E30000E9446BA6091890270918A024AE050E09D
:101E40008CE898E10E9451BB69EC71E18CE898E163
:101E50000E94A2BA6CE975E08CE898E10E9446BA4B
:101E600060918302709184024AE050E08CE898E12E
:101E70000E9451BB69EC71E18CE898E10E94A2BA22
:101E800064E975E08CE898E10E9446BA60918B02A3
:101E900070918C024AE050E08CE898E10E9451BBBE
:101EA0006EEC71E18CE898E10E9477BA60918D0246
:101EB00070918E024AE050E08CE898E10E9451BB9C
:101EC00069EC71E18CE898E10E94A2BA6BE875E0D8
:101ED0008CE898E10E9446BA4091730250917402D6
:101EE000609175027091760222E030E08CE898E112
:101EF0000E9486BC6EEC71E18CE898E10E9477BA92
:101F000040916F0250917002609171027091720263
:101F100022E030E08CE898E10E9486BC69EC71E137
:101F20008CE898E10C94A2BAAB01BC014093730217
:101F300050937402609375027093760281EA92E185
:101F40000E94508140917302509174026091750219
:101F5000709176028DE592E10E9450816FE675E006
:101F60008CE898E10E9446BA409173025091740245
:101F7000609175027091760222E030E08CE898E181
:101F80000C9487BCAB01BC0140936F02509370026C
:101F9000609371027093720281EA92E10E94B481AF
:101FA00040916F02509170026091710270917202C3
:101FB0008DE592E10E94B4816CE575E08CE898E1D2
:101FC0000E9446BA40916F02509170026091710276
:101FD0007091720222E030E08CE898E10C9487BCAA
:101FE0004F925F926F927F928F929F92AF92BF9229
:101FF000CF92DF92EF92FF920F931F93CF93DF93D5
:10200000CDB7DEB728970FB6F894DEBF0FBECDBFB1
:102010006D837E838F83988749015A016701780118
:10202000672B682B692B09F498C0C501B4010E9485
:10203000CCC12B013C0120E030E0A901C501B40175
:102040000E943DC087FF04C077FA709477F87094BF
:10205000A7019601C701B6010E94D9BF69837A839F
:102060008B839C839B01AC01C301B2010E9444C0DD
:102070002B013C016D817E818F8198850E94DFC09C
:102080009B01AC01C301B2010E943DC040907302AC
:1020900050907402609075027090760220E030E0FB
:1020A000A90187FF25C0C501B4010E943DC081116F
:1020B00007C069817A818B819C810E9439C20DC0E1
:1020C000A5019401C701B6010E9444C09B01AC0167
:1020D0005F77C501B4010E94D9BF6B017C01A301E8
:1020E00092010E94C8C118169CF12601370130C028
:1020F000C501B4010E943DC081110DC069817A8182
:102100008B819C810E9439C26B017C01F7FAF094AB
:10211000F7F8F0940FC0A5019401C701B6010E9421
:1021200044C09B01AC015F77C501B4010E94D8BFD8
:102130006B017C0177FA709477F87094A301920197
:10214000C701B6010E943DC087FD02C026013701CC
:10215000542D452D362D272D04C050E040E030E0B1
:1021600020E0652F742F832F922F28960FB6F894B6
:10217000DEBF0FBECDBFDF91CF911F910F91FF90BA
:10218000EF90DF90CF90BF90AF909F908F907F9017
:102190006F905F904F900895CF92DF92EF92FF92F1
:1021A0000F931F93CF93DF93CDB7DEB72C970FB666
:1021B000F894DEBF0FBECDBFEDB6FEB663E475E1A9
:1021C000CE0107960E94A7BD65E375E1CE01019699
:1021D0000E94A7BD69E278E0CE01079643DC882320
:1021E00009F45AC066E373E08CE898E10E9477BA7C
:1021F000BE01695F7F4F8CE898E10E9492BA81E04E
:1022000080934513BE01695F7F4F8FE393E10E9486
:10221000F1BD6FEC74E0CE0101960E94E3BE88230D
:1022200009F440C0CDB6DEB64B855C854F5F5F4F8D
:102230008DB79EB7841B950B0FB6F8949EBF0FBE4B
:102240008DBF0DB71EB70F5F1F4F20E030E0B80104
:10225000CE0107960E9444BFB80189E995E10E942A
:10226000686C882399F06AE075E08CE898E10E9438
:1022700082BAB80189E995E10E94726C882331F035
:102280006CEF74E08CE898E10E9482BA0FB6F89483
:10229000DEBE0FBECDBE06C063E573E08CE898E1FC
:1022A0000E94A2BACE0101960E943FBDCE010796C0
:1022B0000E943FBD0FB6F894FEBE0FBEEDBE2C9639
:1022C0000FB6F894DEBF0FBECDBFDF91CF911F9147
:1022D0000F91FF90EF90DF90CF90089560EE74E043
:1022E0008CE898E10E9482BA1092451308950F93EA
:1022F0001F93CF93DF9380915313811153C084E5D3
:1023000093E10E9481B4882309F456C084E593E1E7
:102310000E94E1B284E593E10E9498B4EC0184E567
:1023200093E10E9443B58C01CF3F8FEFD80739F37B
:102330000F3F8FEF180719F365E773E08CE898E11A
:102340000E9477BA60915113709152134AE050E0A5
:102350008CE898E10E9451BB62ED7AE08CE898E14C
:102360000E9477BA60914F13709150134AE050E089
:102370008CE898E10E9458BBD0935213C09351133C
:102380001093501300934F1381E0809353130E94D6
:1023900040B66093DC147093DD148093DE14909348
:1023A000DF140AC060E873E08CE898E1DF91CF9118
:1023B0001F910F910C94A2BADF91CF911F910F91B1
:1023C00008954F925F926F927F92AF92BF92CF9299
:1023D000EF92FF920F931F93CF93DF93EC015B017A
:1023E00029013A0120910D0240910E0260910F02E5
:1023F0008FE893E10E9470A985010C5E1F4F8091C8
:1024000012029E01280F311DA501BE018FE893E144
:102410000E94AAAA20910A0240910B0260910C022C
:102420008FE893E10E9470A920910D0240910E0265
:1024300060910F028FE893E10E9484A980E2C82E88
:10244000E12CF12C85019E01B301A2018FE893E1FB
:102450000E941BB0DF91CF911F910F91FF90EF90E1
:10246000CF90BF90AF907F906F905F904F90089506
:102470004F925F926F927F928F92AF92BF92CF9264
:10248000EF92FF920F931F93CF93DF93EC017B01A9
:1024900029013A0120910D0240910E0260910F0234
:1024A0008FE893E10E9470A987010C5E1F4F809115
:1024B00012029E01280F311DA701BE018FE893E192
:1024C0000E94AAAA20910A0240910B0260910C027C
:1024D0008FE893E10E9470A920910D0240910E02B5
:1024E00060910F028FE893E10E9484A990E2892E07
:1024F000A12CB12C2EE2C22E8E0122E0B301A2014A
:102500008FE893E10E9414B1DF91CF911F910F9159
:10251000FF90EF90CF90BF90AF908F907F906F9093
:102520005F904F900895AF92BF92CF92DF92EF925B
:10253000FF920F931F93CF93DF93CDB7DEB72C9706
:102540000FB6F894DEBF0FBECDBF61E08FE893E118
:102550000E94608E8FE893E10E94D0A88FE893E1FB
:102560000E94B5B12091130234E0239F8019910994
:10257000112463E070E00E94F5C2609312028FE8BC
:1025800093E10E94C0B16091120240911302942F16
:10259000960F990F891B8093110250E050932E12D1
:1025A00040932D125093301240932F1270E09A01F5
:1025B000260F371F3093321220933112309334128A
:1025C000209333128901040F151F109336120093C4
:1025D00035125093381240933712D801A60FB71F07
:1025E000B0933A12A093391230933C1220933B12CD
:1025F0005D01A40EB51EB0923E12A0923D12509302
:10260000401240933F126501C60ED71ED09242126F
:10261000C0924112E3E4EE2EE2E1FE2EF701318397
:102620002083509346124093451290E0A901480F31
:10263000591F509348124093471230934A122093E7
:102640004912260F371F280F391F30934C12209341
:102650004B1210934E1200934D1250935012409310
:102660004F12B0935212A0935112309354122093F0
:102670005312B0925612A092551250935812409392
:102680005712D0925A12C092591230935C12209372
:102690005B1220910D0240910E0260910F028FE8B3
:1026A00093E10E9484A920912A1240912B126091FB
:1026B0002C128FE893E10E9470A9F70140815181AB
:1026C0008A01085C1F4F20E431E060E070E08FE891
:1026D00093E10E94AAAA20912A1240912B126091A4
:1026E0002C128FE893E10E9484A920910A02409164
:1026F0000B0260910C028FE893E10E9470A961E0E7
:1027000084E593E10E9419B262E084E593E10E94BE
:10271000E3B563E477E08FE893E10E949AB1F701B3
:1027200020813181265F3F4F00E010E041E150E021
:1027300061E973E08FE893E10E942CAF67E273E1F7
:102740008FE893E10E949AB1F70120813181205EE8
:102750003F4F44E150E06DE973E08FE893E10E9460
:102760002CAF20910D0240910E0260910F028FE874
:1027700093E10E9484A9F701E080F180EE0CFF1C38
:1027800080911302E80EF11C62EB73E0CE01079614
:102790000E94A7BD6FE875E1CE0107960E946DBE4D
:1027A000BC01CE0101960E9406BE970144E150E0B3
:1027B000BE016F5F7F4F8FE893E10E94D5AFCE01DE
:1027C00001960E943FBDCE0107960E943FBD2C9608
:1027D0000FB6F894DEBF0FBECDBFDF91CF911F9132
:1027E0000F91FF90EF90DF90CF90BF90AF90089542
:1027F000EF92FF920F931F93CF93DF93CDB7DEB786
:102800002C970FB6F894DEBF0FBECDBF9091231367
:10281000209143123091441280911302220F331FF2
:10282000281B310900E010E044E150E0992309F44D
:10283000B0C06DE074E08FE893E10E942CAF64EFCC
:1028400071E080E090E00E946FB6809122138823AF
:1028500009F496C020910D0240910E0260910F0282
:102860008FE893E10E9470A9409143125091441265
:10287000440F551F80911302481B51098A010F5EB6
:102880001F4F20E431E060E070E08FE893E10E94A8
:10289000AAAA64EF71E080E090E00E946FB62091F8
:1028A0000A0240910B0260910C028FE893E10E94B2
:1028B00070A969E278E0CE0107960E94A7BD209139
:1028C000431230914412220F331F80911302281BB0
:1028D000310900E010E044E150E064EB73E08FE880
:1028E00093E10E942CAF809114028823E9F080913B
:1028F000E512882319F063EC73E002C06AED73E01F
:10290000CE0101960E94A7BD66EE72E1CE0101964E
:102910000E946DBEBC01CE0107960E94F1BDCE01A2
:1029200001960E943FBD06C06BEE73E0CE01079694
:102930000E9419BEE0904312F0904412EE0CFF1C6E
:1029400080911302E81AF108BE01695F7F4FCE0142
:1029500001960E9406BE00E010E0970144E150E0BD
:10296000BE016F5F7F4F8FE893E10E94D5AFCE012C
:1029700001960E943FBDCE0107960E943FBD0FC049
:1029800000E010E021E130E04AE050E068EF73E061
:1029900002C06AE074E08FE893E10E942CAF2C96AD
:1029A0000FB6F894DEBF0FBECDBFDF91CF911F9160
:1029B0000F91FF90EF9008950F931F93182F209180
:1029C0002A1240912B1260912C128FE893E10E9401
:1029D00070A9E12FF0E0DF01AA0FBB1FAA0FBB1FF8
:1029E000AF5CBD4E12960D911C9113972D913C91A9
:1029F000EE0FFF1FEE0FFF1FE35DFD4E428153817F
:102A0000608171818FE893E10E94AAAA20912A1225
:102A100040912B1260912C128FE893E10E9484A9BF
:102A200020910A0240910B0260910C028FE893E121
:102A30001F910F910C9470A9CF92DF92EF92FF92A9
:102A40000F931F93CF93DF931F921F92CDB7DEB7E3
:102A5000182F062F6DE174E08CE898E12A834983F2
:102A60000E94A2BA8FEF810F2A814981863008F037
:102A700055C0602F8FE893E10E9470A9110F12508A
:102A8000412F50E07A01EE0CFF1CEE0CFF1CC70139
:102A90008F5C9D4E7C01FC01028113810150110964
:102AA000208131816A01CC0CDD1CCC0CDD1CC601FF
:102AB000835D9D4E6C01FC01428153816081718177
:102AC0008FE893E10E9466AAF70102811381025008
:102AD00011092081318121503109F6014281538150
:102AE0004F5F5F4F608171816F5F7F4F8FE893E130
:102AF0000E9466AA20912A1240912B1260912C12FA
:102B00008FE893E10E9484A920910D0240910E026A
:102B100060910F028FE893E10E9470A968E274E06F
:102B20008CE898E10F900F90DF91CF911F910F915A
:102B3000FF90EF90DF90CF900C94A2BA0F931F9369
:102B400090E0FC013197ED32F10508F05FC7EE58D7
:102B5000FF4F0C9446C380E02FDF809112028695D0
:102B600090E020912F1230913012280F391F2C50F5
:102B7000310940912D1250912E12480F591F4A5081
:102B8000510900E010E06EE874E08FE893E10E94E4
:102B90002CAF80911202869590E020912F123091F7
:102BA0003012280F391F40912D1250912E12480FCC
:102BB000591F4E50510962E374E024C780E0FCDEE7
:102BC00080911202869590E020912F123091301260
:102BD000280F391F2C50310940912D1250912E127F
:102BE000480F591F4651510900E010E067E374E0B7
:102BF0008FE893E10E942CAF80911202869590E0BD
:102C000020912F1230913012280F391F40912D1230
:102C100050912E12480F591F465051096EE374E02F
:102C2000F1C680E0C9DE80911202869590E0209185
:102C30002F1230913012280F391F2C50310940913A
:102C40002D1250912E12480F591F4651510900E084
:102C500010E067E374E08FE893E10E942CAF80916D
:102C60001202869590E020912F1230913012280F99
:102C7000391F40912D1250912E12480F591F4A5062
:102C8000510961E474E0BEC680E096DE80911202D4
:102C9000869590E020912F1230913012280F391F25
:102CA0002C50310940912D1250912E12480F591F6E
:102CB0004651510900E010E065E474E08FE893E1CB
:102CC0000E942CAF80911202869590E020912F12E5
:102CD00030913012280F391F40912D1250912E1231
:102CE000480F591F405151096CE474E08BC680E0D5
:102CF00063DE80911202869590E020912F12309130
:102D00003012280F391F2C50310940912D1250914B
:102D10002E12480F591F4651510900E010E062E59C
:102D200074E08FE893E10E942CAF809112028695A7
:102D300090E020912F1230913012280F391F4091CE
:102D40002D1250912E12480F591F4851510969E513
:102D500074E058C682E030DE80911202869590E0E1
:102D60002091371230913812280F391F2251310922
:102D70004091351250913612480F591F4E5051094B
:102D800000E010E061E674E08FE893E10E942CAF70
:102D900080911202869590E020913712309138127E
:102DA000280F391F265031094091351250913612A3
:102DB000480F591F4E50510966E674E08FE893E1C1
:102DC0000E942CAF80911202869590E020913712DC
:102DD00030913812280F391F2A5F3F4F409135122A
:102DE00050913612480F591F465051096BE674E056
:102DF00009C684E0E1DD80911202869590E0209181
:102E00003F1230914012280F391F2650310940914E
:102E10003D1250913E12480F591F4E50510900E08B
:102E200010E06EE674E0EEC584E0C6DD809112022B
:102E3000869590E020913F1230914012280F391F63
:102E40002C50310940913D1250913E12480F591FAC
:102E50004251510900E010E063E774E08FE893E12C
:102E60000E942CAF80911202869590E020913F1233
:102E700030914012280F391F40913D1250913E125F
:102E8000480F591F4251510969E774E0BBC586E0FC
:102E900093DD80911202869590E020914712309147
:102EA0004812280F391F2650310940914512509180
:102EB0004612480F591F4251510900E010E06FE7D8
:102EC00074E0A0C586E078DD80911202869590E0DE
:102ED0002091471230914812280F391F265031098E
:102EE0004091451250914612480F591F46515109C1
:102EF00000E010E065E874E085C584E05DDD809168
:102F00001202869590E020913F1230914012280FD6
:102F1000391F2650310940913D1250913E12480F01
:102F2000591F4251510900E010E06CE874E06AC595
:102F300088E042DD80911202869590E020914F1248
:102F400030915012280F391F2C50310940914D12E9
:102F500050914E12480F591F4A50510900E010E09D
:102F600062E974E08FE893E10E942CAF8091120235
:102F7000869590E020914F1230915012280F391F02
:102F800040914D1250914E12480F591F4650510911
:102F900068EF74E037C588E00FDD809112028695F6
:102FA00090E020914F1230915012280F391F2C5071
:102FB000310940914D1250914E12480F591F4A50FD
:102FC000510900E010E062E974E08FE893E10E94AB
:102FD0002CAF80911202869590E020914F12309193
:102FE0005012280F391F40914D1250914E12480F28
:102FF000591F4E5051096FEE74E004C582E0DCDCCD
:1030000080911202869590E020913712309138120B
:10301000280F391F2C50310940913512509136122A
:10302000480F591F4C50510900E010E066E974E068
:103030008FE893E10E942CAF80911202869590E078
:103040002091371230913812280F391F40913512D4
:10305000509136122CC088E0AFDC80911202869528
:1030600090E020914F1230915012280F391F2C50B0
:10307000310940914D1250914E12480F591F4C503A
:10308000510900E010E060EA74E08FE893E10E94EB
:103090002CAF80911202869590E020914F123091D2
:1030A0005012280F391F40914D1250914E12480F67
:1030B000591F4C50510982C086E07EDC809112027B
:1030C000869590E02091471230914812280F391FC1
:1030D000265031094091451250914612480F591F10
:1030E0004E50510900E010E065EA74E08BC48AE0BC
:1030F00063DC80911202869590E020915712309106
:103100005812280F391F2251310940915512509100
:103110005612480F591F4E50510900E010E061E669
:1031200074E01AC08AE048DC80911202869590E033
:103130002091571230915812280F391F225131090E
:103140004091551250915612480F591F4E50510937
:1031500000E010E06FEA74E08FE893E10E942CAF8A
:1031600080911202869590E020915712309158126A
:10317000280F391F2650310940915512509156128F
:10318000480F591F4E5051096AEA74E08FE893E1E5
:103190000E942CAF80911202869590E020915712E8
:1031A00030915812280F391F2A5F3F4F4091551216
:1031B00050915612480F591F4E5051096BE974E057
:1031C00021C48AE0F9DB80911202869590E020917B
:1031D000571230915812280F391F2C503109409145
:1031E000551250915612480F591F4E50510900E088
:1031F00010E06EE674E08FE893E10E942CAF8091BE
:103200001202869590E02091571230915812280FA3
:10321000391F4091551250915612480F591F4A506C
:10322000510964EB74E0EEC382E0C6DB80911202C8
:10323000869590E02091371230913812280F391F6F
:103240002C5031094091351250913612480F591FB8
:103250004A50510900E010E068EB74E08FE893E118
:103260000E942CAF80911202869590E02091371237
:1032700030913812280F391F409135125091361273
:10328000D5C188E099DB80911202869590E020916B
:103290004F1230915012280F391F2C503109409194
:1032A0004D1250914E12480F591F4A50510900E0DB
:1032B00010E062EC74E0A8C184E07EDB8091120231
:1032C000869590E020913F1230914012280F391FCF
:1032D0002C50310940913D1250913E12480F591F18
:1032E0004A50510900E010E068EB74E08FE893E188
:1032F0000E942CAF80911202869590E020913F129F
:1033000030914012280F391F40913D1250913E12CA
:103310002CC08AE051DB80911202869590E02091CA
:10332000571230915812280F391F2C5031094091F3
:10333000551250915612480F591F4A50510900E03A
:1033400010E062EC74E08FE893E10E942CAF809172
:103350001202869590E02091571230915812280F52
:10336000391F4091551250915612480F591F425122
:10337000510966EC74E046C382E01EDB80911202C4
:10338000869590E02091371230913812280F391F1E
:103390002C5031094091351250913612480F591F67
:1033A0004A50510900E010E068EB74E08FE893E1C7
:1033B0000E942CAF80911202869590E020913712E6
:1033C00030913812280F391F409135125091361222
:1033D0002CC088E0F1DA80911202869590E020916D
:1033E0004F1230915012280F391F2C503109409143
:1033F0004D1250914E12480F591F4A50510900E08A
:1034000010E062EC74E08FE893E10E942CAF8091B1
:103410001202869590E020914F1230915012280FA1
:10342000391F40914D1250914E12480F591F405173
:1034300051096CEC74E0E6C284E0BEDA80911202BD
:10344000869590E020913F1230914012280F391F4D
:103450002251310940913D1250913E12480F591F9F
:103460004A50510900E010E068EB74E07EC08AE049
:10347000A3DA80911202869590E020915712309144
:103480005812280F391F225131094091551250917D
:103490005612480F591F4A50510900E010E062ECE3
:1034A00074E08FE893E10E942CAF80911202869520
:1034B00090E02091571230915812280F391F265052
:1034C00031094091551250915612480F591F4A50D8
:1034D000510962E974E08FE893E10E942CAF80917A
:1034E0001202869590E02091571230915812280FC1
:1034F000391F2A5F3F4F409155125091561263C0B9
:1035000086E05ADA80911202869590E02091471267
:1035100030914812280F391F265031094091451229
:1035200050914612480F591F4251510900E010E0D6
:1035300066ED74E067C284E03FDA809112028695FE
:1035400090E020913F1230914012280F391F2251F4
:10355000310940913D1250913E12480F591F4A5077
:10356000510900E010E06BED74E08FE893E10E94F8
:103570002CAF80911202869590E020913F123091FD
:103580004012280F391F2650310940913D125091A9
:103590003E12480F591F4A50510962E974E08FE802
:1035A00093E10E942CAF80911202869590E02091C9
:1035B0003F1230914012280F391F2A5F3F4F409130
:1035C0003D1250913E12480F591F4E50510961ED66
:1035D00074E018C288E0F0D980911202869590E0DC
:1035E00020914F1230915012280F391F2C50310961
:1035F00040914D1250914E12480F591F4A50510997
:1036000000E010E06BED74E08FE893E10E942CAFD6
:1036100080911202869590E020914F1230915012C5
:10362000280F391F40914D1250914E12480F591FCB
:10363000425151096CEB74E0E5C182E0BDD9809143
:103640001202869590E02091371230913812280F9F
:10365000391F2C5031094091351250913612480FC4
:10366000591F4A50510900E010E06BED74E08FE8FB
:1036700093E10E942CAF80911202869590E02091F8
:10368000371230913812280F391F4091351250915E
:103690003612480F591F4A5051096FED74E0B2C1FC
:1036A00082E08AD980911202869590E020913712AB
:1036B00030913812280F391F2C50310940913512A2
:1036C00050913612480F591F4A50510900E010E03E
:1036D00068EB74E08FE893E10E942CAF80911202B6
:1036E000869590E02091371230913812280F391FBB
:1036F00040913512509136122CC088E05DD98091EE
:103700001202869590E020914F1230915012280FAE
:10371000391F2C50310940914D1250914E12480FD3
:10372000591F4A50510900E010E062EC74E08FE844
:1037300093E10E942CAF80911202869590E0209137
:103740004F1230915012280F391F40914D12509155
:103750004E12480F591F4A50510963EE74E052C18E
:1037600084E02AD980911202869590E020913F1240
:1037700030914012280F391F2C50310940913D12D1
:1037800050913E12480F591F4A50510900E010E075
:1037900068EB74E08FE893E10E942CAF80911202F5
:1037A000869590E020913F1230914012280F391FEA
:1037B00040913D1250913E122CC08AE0FDD880917C
:1037C0001202869590E02091571230915812280FDE
:1037D000391F2C5031094091551250915612480F03
:1037E000591F4A50510900E010E062EC74E08FE884
:1037F00093E10E942CAF80911202869590E0209177
:10380000571230915812280F391F4091551250917C
:103810005612480F591F4A50510967EE74E0F2C022
:1038200082E0CAD880911202869590E020913712EA
:1038300030913812280F391F2C5031094091351220
:1038400050913612480F591F4A50510900E010E0BC
:1038500068EB74E08FE893E10E942CAF8091120234
:10386000869590E02091371230913812280F391F39
:1038700040913512509136122CC088E09DD880912D
:103880001202869590E020914F1230915012280F2D
:10389000391F2C50310940914D1250914E12480F52
:1038A000591F4A50510900E010E062EC74E08FE8C3
:1038B00093E10E942CAF80911202869590E02091B6
:1038C0004F1230915012280F391F40914D125091D4
:1038D0004E12480F591F4A5151096BEE74E092C0C5
:1038E00084E06AD880911202869590E020913F1280
:1038F00030914012280F391F2C50310940913D1250
:1039000050913E12480F591F4A50510900E010E0F3
:1039100068EB74E08FE893E10E942CAF8091120273
:10392000869590E020913F1230914012280F391F68
:1039300040913D1250913E122CC08AE03DD88091BA
:103940001202869590E02091571230915812280F5C
:10395000391F2C5031094091551250915612480F81
:10396000591F4A50510900E010E062EC74E08FE802
:1039700093E10E942CAF80911202869590E02091F5
:10398000571230915812280F391F409155125091FB
:103990005612480F591F4651510964EF74E032C066
:1039A00080E00AD880911202869590E020912F1233
:1039B00030913012280F391F2C50310940912D12AF
:1039C00050912E12480F591F4851510900E010E044
:1039D0006BEF74E08FE893E10E942CAF80911202AC
:1039E000869590E020912F1230913012280F391FC8
:1039F00040912D1250912E12480F591F46515109D6
:103A000063E075E08FE893E10E942CAF1F910F9166
:103A10000895CF93DF93EB012A813B81FC0133832F
:103A200022834C815D816E817F81448355836683CF
:103A30007783488559856A857B854087518762876A
:103A400073872DE0FE013C96DC011C9601900D92DF
:103A50002A95E1F7298D3A8DFC01328F218FDF9174
:103A6000CF910895EF92FF920F931F93CF93DF931F
:103A7000CDB7DEB7E7970FB6F894DEBF0FBECDBF68
:103A80007C018B0141E064E273E1CE014C960E941F
:103A90007C6CCE014C960E94C069882399F1CE01BE
:103AA0004C960E944569BC01C8010E94E3BE882370
:103AB00059F160E675E08CE898E10E94A2BACE0167
:103AC0004C960E94AE6941E064E273E1CE0101963A
:103AD0000E947C6CBE016F5F7F4FCE014C9699DFD8
:103AE000CE014C960E94C069882341F0CE014C96CD
:103AF0000E944569BC01C8010E9419BECE014C96C6
:103B00000E94AE6921E001C020E0CE014C962FABAF
:103B10000E94AE692FA9222309F4B4CFB801C701CE
:103B20000E941ABDC701E7960FB6F894DEBF0FBE1C
:103B3000CDBFDF91CF911F910F91FF90EF9008952E
:103B4000EF92FF920F931F93CF93DF93CDB7DEB722
:103B5000EC970FB6F894DEBF0FBECDBF7C018B0192
:103B600069E278E0CE01C7960E94A7BD41E064E219
:103B700073E1CE014C960E947C6CCE014C960E9463
:103B8000C069882389F0CE014C960E944569BC012A
:103B9000C8010E94E3BE882339F06CE675E08CE82A
:103BA00098E10E94A2BA48C0CE014C960E94456995
:103BB000BC01CE01C7960E9419BE61E775E08CE892
:103BC00098E10E9477BABE01695C7F4F8CE898E16A
:103BD0000E9492BACE014C960E94AE6941E064E226
:103BE00073E1CE0101960E947C6CBE016F5F7F4F36
:103BF000CE014C960EDFCE014C960E94C069882300
:103C0000D9F0CE014C960E944569BC01C8010E94C2
:103C1000E3BE882339F0BE01695C7F4FC8010E9472
:103C2000F1BD0AC0CE014C960E944569BC01CE018F
:103C3000C7960E9419BECECFCE014C960E94AE69A7
:103C4000B801C7010E941ABDCE01C7960E943FBDB0
:103C5000C701EC960FB6F894DEBF0FBECDBFDF9163
:103C6000CF911F910F91FF90EF900895CF92DF9227
:103C7000EF92FF920F931F93CF93DF93CDB7DEB7F1
:103C8000A1970FB6F894DEBF0FBECDBF7C018B01AC
:103C90006A016DE775E08CE898E10E9477BAB80197
:103CA0008CE898E10E9492BA68E975E08CE898E1A6
:103CB0000E94A2BA84E293E10E94E16C69E278E09A
:103CC000C8010E94E3BE8823D1F041E064E273E1C1
:103CD000CE0101960E947C6CCE0101960E94C069C3
:103CE000882341F0CE0101960E944569BC01C801BC
:103CF0000E9419BECE0101960E94AE692AC01C1412
:103D00001D0464F4B801CE014C960E9406BEBE01AB
:103D1000645E7F4FCE010196A5DE0DC0CD28C9F0AF
:103D2000B801CE014C960E9406BEBE01645E7F4F74
:103D3000CE01019605DFBE016F5F7F4FC8010E9473
:103D40000EBECE0101960E943FBDCE014C960E9450
:103D50003FBD6AEA75E08CE898E10E9477BAB80145
:103D60008CE898E10E9492BAB801C7010E941ABD7E
:103D7000C701A1960FB6F894DEBF0FBECDBFDF918D
:103D8000CF911F910F91FF90EF90DF90CF9008950A
:103D9000CF92DF92EF92FF920F931F93CF93DF9317
:103DA000CDB7DEB762970FB6F894DEBF0FBECDBFBA
:103DB00020910D0240910E0260910F028FE893E175
:103DC0000E9470A940913312509134128A01085E0A
:103DD0001F4F465F5F4F60912D1270912E1220E4AD
:103DE00031E08FE893E10E94AAAA20910A02409153
:103DF0000B0260910C028FE893E10E9470A9209160
:103E00000D0240910E0260910F028FE893E10E9433
:103E100084A961EC75E0CE010D960E94A7BD69E210
:103E200078E08FE393E10E94E3BE811108C06FEC5C
:103E300075E08FE393E10E94E3BE882309F180914E
:103E40002213882319F169E278E0CE0107960E94D7
:103E5000A7BD41E050E0BE01695F7F4FCE010196F2
:103E600005DFBE016F5F7F4F8FE393E10E940EBEBF
:103E7000CE0101960E943FBDCE0107960E943FBD34
:103E80006FE373E1CE010D960E94F1BDE090331215
:103E9000F09034128AE0E80EF11CC0902D12D09000
:103EA0002E12BE01635F7F4FCE0101960E9406BEB7
:103EB00000E010E09701A601BE016F5F7F4F8FE821
:103EC00093E10E94D5AFCE0101960E943FBDCE0185
:103ED0000D960E943FBD62960FB6F894DEBF0FBEEE
:103EE000CDBFDF91CF911F910F91FF90EF90DF90A9
:103EF000CF90089520912A1240912B1260912C129C
:103F00008FE893E10E9484A920910D0240910E0256
:103F100060910F028FE893E10E9470A980911002D6
:103F2000813059F58091EE12882311F081E201C0B1
:103F300080E20E949E1580912213882319F082E06E
:103F40000E949E158091EC12882319F084E20E9451
:103F50009E1580918515882311F088E001C087E0C7
:103F60000E949E1580916802882311F084E001C0B0
:103F700085E00E949E1583E20FC08091100282307E
:103F800079F48DE10E949E158EE10E949E1580912C
:103F90006802882319F084E00C949E1585E0FCCF1C
:103FA000809110028330B1F486E20E949E158BE06E
:103FB0000E949E158CE00E949E158091F512882328
:103FC00011F082E201C080E10E949E158FE00E9404
:103FD0009E15DECE80911002863071F589E00E9438
:103FE0009E158AE00E949E1582E10E949E1583E143
:103FF0000E949E1584E10E949E156091730270914B
:10400000740280917502909176020E94ACC09B016F
:10401000AC0160E770E080914D1290914E120E94C9
:10402000E11160916F027091700280917102909124
:1040300072020E94ACC058C080911002843079F5A1
:1040400089E10E949E158AE10E949E158BE10E94E3
:104050009E158CE10E949E1584E10E949E15209180
:104060001702309118024091190250911A0260E72C
:1040700070E080914D1290914E120E943812209162
:104080006A0230916B0240916C0250916D0260E7C0
:1040900070E080915512909156120C9438128091D4
:1040A0001002853021F585E10E949E1586E10E946F
:1040B0009E1587E10E949E1588E10E949E1584E16D
:1040C0000E949E1581EA92E10E94177F9B01AC013C
:1040D00060E770E080914D1290914E120E94E111C4
:1040E0008DE592E10E94177F9B01AC014CC080914D
:1040F0001002873089F48FE10E949E1584E10E94AE
:104100009E158DE10E949E158EE10E949E1585E20E
:104110000E949E1587E240CF80911002883029F4DA
:104120008CE20E949E1584E137CF80911002893085
:1041300091F588E20E949E1589E20E949E158AE20E
:104140000E949E158BE20E949E158DE20E949E1594
:1041500084E10E949E1520918B0230918C024427AD
:1041600037FD4095542F60E770E080914D1290919B
:104170004E120E94E11120918D0230918E0244274F
:1041800037FD4095542F60E770E080915512909173
:1041900056120C94E111089520912A1240912B128D
:1041A00060912C128FE893E10E9470A98FE893E14F
:1041B0000E94D0A881E0809310029CCE20912A1208
:1041C00040912B1260912C128FE893E10E9470A90C
:1041D0008FE893E10E94D0A883E0809310028ACEFA
:1041E0008F929F92AF92BF92CF92DF92EF92FF9207
:1041F0000F931F93CF93DF93CDB7DEB72C970FB6F6
:10420000F894DEBF0FBECDBF6C015B018091100240
:10421000813009F05EC020910D0240910E02609144
:104220000F028FE893E10E9470A9409133125091E0
:1042300034128A01085E1F4F465F5F4F60912D1256
:1042400070912E1220E431E08FE893E10E94AAAA37
:1042500020910A0240910B0260910C028FE893E1D9
:104260000E9470A920910D0240910E0260910F02F0
:104270008FE893E10E9484A9E0903312F090341209
:104280008AE0E80EF11C80902D1290902E12B5015C
:10429000CE0101960E9406BEB601CE0101960E9493
:1042A0006DBEBC01CE0107960E9406BE00E010E084
:1042B0009701A401BE01695F7F4F8FE893E10E94DF
:1042C000D5AFCE0107960E943FBDCE0101960E9458
:1042D0003FBD2C960FB6F894DEBF0FBECDBFDF9169
:1042E000CF911F910F91FF90EF90DF90CF90BF90F3
:1042F000AF909F908F90089590911002913071F53A
:104300008330C9F028F4813051F0823079F0CAC08E
:104310008530E9F0A8F0863009F4C5C0C3C08091AB
:10432000EE12882309F4C1C081E20895809122131E
:104330008111BDC0B7C08091EC128111BAC0B2C06A
:1043400080916802882309F4B6C084E008958091C2
:104350008515882309F4B1C088E008959091100272
:104360009630A9F4843009F4B8C038F4823069F08A
:10437000833009F097C083E10895853009F49FC028
:10438000863009F08FC082E108958AE00895909107
:1043900010029430A9F4843009F49FC038F48230BC
:1043A00069F0833009F07EC08AE10895853009F410
:1043B00088C0863009F076C089E108958CE10895BF
:1043C000909110029530A9F4843009F486C038F435
:1043D000823069F0833009F065C088E10895853046
:1043E00009F471C0863009F05DC087E1089586E167
:1043F0000895909110029930C1F4833091F030F417
:10440000813069F0823009F460C04CC0853059F0C9
:1044100008F463C0863009F045C088E208958DE253
:10442000089589E208958AE20895909110029330E8
:10443000A9F4843009F44BC020F4823099F58CE063
:104440000895853019F0863019F02CC08BE008955E
:104450008091F5128823E9F182E20895909110028B
:104460009730A9F4833079F028F4813051F082300C
:1044700091F118C0853049F080F1863099F487E2D7
:10448000089585E208958EE108958DE10895909153
:104490001002983039F4813019F08430F1F002C004
:1044A0008CE20895089583E2089580E2089582E001
:1044B000089584E2089585E0089587E0089589E0ED
:1044C00008958BE1089585E108958BE208958FE0CA
:1044D000089580E108958FE1089584E108950F9390
:1044E0001F93CF93DF938C01EB016CED75E08CE8AB
:1044F00098E10E9477BA4AE050E0B8018CE898E170
:104500000E9451BB65E576E08CE898E10E9477BA9D
:104510004AE050E0BE018CE898E10E9458BB8091CF
:104520002D1290912E1208171907B4F080913112B4
:1045300090913212801791077CF080912F12909108
:104540003012C817D90744F0809133129091341279
:104550008C179D070CF090C0809135129091361207
:1045600008171907B4F08091391290913A12801708
:1045700091077CF08091371290913812C817D907B3
:1045800044F080913312909134128C179D070CF0F7
:1045900075C080913D1290913E1208171907B4F032
:1045A0008091411290914212801791077CF0809186
:1045B0003F1290914012C817D90744F080914312DE
:1045C000909144128C179D070CF05AC080914512AF
:1045D0009091461208171907B4F0809149129091F2
:1045E0004A12801791077CF08091471290914812EF
:1045F000C817D90744F080914B1290914C128C1738
:104600009D070CF03FC080914D1290914E120817FB
:104610001907ACF0809151129091521280179107B6
:1046200074F080914F1290915012C817D9073CF046
:1046300080915312909154128C179D072CF5809104
:1046400055129091561208171907ACF08091591223
:1046500090915A128017910774F08091571290919F
:104660005812C817D9073CF080915B1290915C12E8
:104670008C179D075CF40BC081E009C082E007C085
:1046800083E005C084E003C085E001C086E0DF91DF
:10469000CF911F910F910895CF92DF92EF92FF92E9
:1046A0000F931F93CF93DF93EC018B016A0169E0B5
:1046B00070E086E895E10E942385EE24D7FCE09423
:1046C000FE2CC017D107CCF4BE0186E895E10E940C
:1046D0006985C701B6010E946FB621960C171D07A8
:1046E0009CF786E895E1DF91CF911F910F91FF90A4
:1046F000EF90DF90CF900C942885BE0186E895E17D
:104700000E946985C701B6010E946FB62197C01744
:10471000D1079CF7E6CFCF93DF9390911815809146
:1047200085159230C0F0882329F0C0918D02D09178
:104730008E0204C0C0918B02D0918C0283E495E17B
:104740000E94FFC590938E0280938D0243E050E05B
:10475000BC01CE010CC081110BC060918D02709123
:104760008E0243E050E080918B0290918C0294DFA6
:1047700081E080938515DF91CF910895CF93DF93EA
:1047800090911815809185159230C0F0882329F0FA
:10479000C0918D02D0918E0204C0C0918B02D09145
:1047A0008C0283E495E10E94FFC590938C02809374
:1047B0008B0243E050E0BC01CE010CC0882359F0CD
:1047C00060918B0270918C0243E050E080918D02E9
:1047D00090918E0261DF10928515DF91CF9108953F
:1047E0004F925F926F927F92AF92BF92CF92DF9281
:1047F000EF92FF920F931F93CF93DF93CDB7DEB766
:1048000028970FB6F894DEBF0FBECDBF6D837E83B1
:104810008F83988729013A01E982FA820B831C83EE
:1048200061E274E08CE898E10E9446BA2AE030E048
:104830004D815E816F8178858CE898E10E940ABB8A
:1048400065E174E08CE898E10E9446BA2AE030E025
:10485000B301A2018CE898E10E940ABB69E074E010
:104860008CE898E10E9446BA2AE030E049815A81FA
:104870006B817C818CE898E10E940ABB6DEF73E04C
:104880008CE898E10E9446BA2AE030E0B601A50122
:104890008CE898E10E940ABB6BEF73E08CE898E12A
:1048A0000E9482BA2D813E814F81588589819A81EB
:1048B000AB81BC81281739074A075B0744F44816C7
:1048C00059066A067B06C4F46DEE73E053C02D8171
:1048D0003E814F81588589819A81AB81BC81821745
:1048E0009307A407B507C4F4A414B504C604D704F9
:1048F0005CF46FED73E058C0A414B504C604D7048B
:1049000094F561ED73E029C04A145B046C047D04E6
:10491000BCF563EC73E014C02D813E814F81588556
:1049200089819A81AB81BC81281739074A075B07C7
:1049300039F54A145B046C047D0444F46BEB73E0BA
:104940008CE898E10E9482BA81E03AC0A414B504D0
:10495000C604D70474F563EB73E08CE898E10E9419
:1049600082BA83E02DC04A145B046C047D0409F50F
:104970006BEA73E08CE898E10E9482BA84E020C080
:104980002D813E814F81588589819A81AB81BC817F
:1049900082179307A407B50764F44A145B046C04F8
:1049A0007D0439F463EA73E08CE898E10E9482BAEE
:1049B00006C06FED75E08CE898E10E94A2BA82E033
:1049C00028960FB6F894DEBF0FBECDBFDF91CF9112
:1049D0001F910F91FF90EF90DF90CF90BF90AF901D
:1049E0007F906F905F904F9008958F929F92AF92BB
:1049F000BF92CF92DF92EF92FF92CF93DF936B0142
:104A00007C0120916715309168154091691550918E
:104A10006A150E94CCC14B015C0120E030E040E00F
:104A200050E40E94C8C187FD06C0C501B4010E94C0
:104A3000ACC0EB0102C0C1E0D0E065E873E08CE8F7
:104A400098E10E9446BA22E030E0B701A6018CE866
:104A500098E10E9486BC62E873E08CE898E10E94CD
:104A600046BA4AE050E0BE018CE898E10E9451BB92
:104A70006AE773E08CE898E10E9446BA8CE898E116
:104A80000E947FBACE01DF91CF91FF90EF90DF902F
:104A9000CF90BF90AF909F908F900895CF93DF936A
:104AA00060916A0270916B0280916C0290916D022C
:104AB0009CDFEC016EE472E08CE898E10E9477BA2A
:104AC0006BEF75E08CE898E10E9477BACC0FDD1FA0
:104AD0004AE050E0BE018CE898E10E9451BB69E6D3
:104AE0007EE08CE898E10E9477BA60918302709131
:104AF0008402CE010E94F5C24AE050E08CE898E1C1
:104B00000E9451BB61E176E08CE898E1DF91CF91A2
:104B10000C94A2BA83E495E10E94FCC560936A02FA
:104B200070936B0280936C0290936D026EE472E05E
:104B30008CE898E10E9477BA66E475E08CE898E129
:104B40000E9446BA40916A0250916B0260916C02D9
:104B500070916D0222E030E08CE898E10E9486BC02
:104B600063E475E08CE898E10E9446BA8CE898E12D
:104B70000E947FBA93CF8F929F92AF92BF92CF92B3
:104B8000DF92EF92FF920F931F93CF93DF936B010E
:104B90007C01EA01BA01882777FD8095982F0E9451
:104BA000DFC020916B1530916C1540916D155091BF
:104BB0006E150E94CCC14B015C0167E472E08CE889
:104BC00098E10E9477BA66E673E08CE898E10E946B
:104BD00046BA22E030E0B501A4018CE898E10E94D9
:104BE00086BC68E573E08CE898E10E9446BA409183
:104BF0006B1550916C1560916D1570916E1522E0DA
:104C000030E08CE898E10E9486BC60E473E08CE8B8
:104C100098E10E9446BA4AE050E0BE018CE898E173
:104C20000E9458BBA7019601C501B4010E9444C06F
:104C30004B015C0120E030E040E050E40E94C8C13C
:104C400087FD09C0C501B4010E94ACC08B01623070
:104C50007105ECF502C001E010E06EE472E08CE852
:104C600098E10E9477BA68E273E08CE898E10E94CC
:104C700046BA22E030E0B701A6018CE898E10E9434
:104C800086BC6FE173E08CE898E10E9446BA4AE086
:104C900050E0BE018CE898E10E9451BB6AE173E0EC
:104CA0008CE898E10E9446BA4AE050E0B8018CE8EE
:104CB00098E10E9458BB6EE472E08CE898E10E9493
:104CC00077BA66EF72E08CE898E10E9482BAC80178
:104CD000DF91CF911F910F91FF90EF90DF90CF90D8
:104CE000BF90AF909F908F9008954F925F926F9278
:104CF0007F928F929F92AF92BF92CF92DF92EF926C
:104D0000FF92CF93DF936C017B01EA01BA01882700
:104D100077FD8095982F0E94DFC04B015C01B601A2
:104D2000882777FD8095982F0E94DFC02B013C01DA
:104D3000B701882777FD8095982F0E94DFC09B01DF
:104D4000AC01C301B2010E9444C0A50194010E94BC
:104D5000CCC19B01AC01C501B4010E94D8BF4B017D
:104D60005C016EEE72E08CE898E10E9446BA4AE07F
:104D700050E0B6018CE898E10E9451BB65EE72E00C
:104D80008CE898E10E9446BA4AE050E0B7018CE80E
:104D900098E10E9451BB6BED72E08CE898E10E94B3
:104DA00046BA4AE050E0BE018CE898E10E9451BB4F
:104DB00060ED72E08CE898E10E9446BA22E030E0B3
:104DC000B501A4018CE898E10E9487BCC501B4013B
:104DD0000E94ACC0EB01882777FD8095982F0E9438
:104DE000DFC09B01AC01C501B4010E94D8BF20E027
:104DF00030E040E05FE30E94C8C118160CF4219631
:104E0000CE01DF91CF91FF90EF90DF90CF90BF90D8
:104E1000AF909F908F907F906F905F904F9008958C
:104E200080916002882319F010926002089581E059
:104E30008093600208954F925F926F927F928F925B
:104E40009F92AF92BF92CF92DF92EF92FF92CF9359
:104E5000DF93CDB7DEB728970FB6F894DEBF0FBE4D
:104E6000CDBFC0906715D0906815E0906915F0909F
:104E70006A1583E495E10E941CC60E94DFC09B0175
:104E8000AC01C701B6010E94CCC10E94ACC02B018D
:104E90003C0160933B0270933C0280933D029093EF
:104EA0003E0285E395E10E941CC60E94DFC09B0183
:104EB000AC01C701B6010E94CCC10E94ACC04B013D
:104EC0005C016093370270933802809339029093AB
:104ED0003A0287E295E10E941CC60E94DFC09B0156
:104EE000AC01C701B6010E94CCC10E94ACC069836D
:104EF0007A838B839C836093330270933402809314
:104F000035029093360289E195E10E941CC60E9409
:104F1000DFC09B01AC01C701B6010E94CCC10E9459
:104F2000ACC06D837E838F83988760932F027093CC
:104F300030028093310290933202C0906315D0907A
:104F40006415E0906515F0906615C414D504E60468
:104F5000F7048CF4C701B60122E030E040E050E0F5
:104F60000E942AC320933B0230933C0240933D02AF
:104F700050933E0211C0141415041604170464F073
:104F800081E090E0A0E0B0E080933B0290933C028F
:104F9000A0933D02B0933E0240905F155090601583
:104FA0006090611570906215481459046A047B047E
:104FB0008CF4C301B20122E030E040E050E00E94F6
:104FC0002AC320933702309338024093390250931A
:104FD0003A0211C0181419041A041B0464F081E089
:104FE00090E0A0E0B0E08093370290933802A09365
:104FF0003902B0933A0280913B0290913C02A09119
:105000003D02B0913E0249815A816B817C81480FFB
:10501000591F6A1F7B1FC416D506E606F70674F4EF
:10502000A7019601281B390B4A0B5B0B2093330217
:105030003093340240933502509336028091370208
:1050400090913802A0913902B0913A02CD80DE8071
:10505000EF80F884C80ED91EEA1EFB1E4C145D04B6
:105060006E047F0464F4481A590A6A0A7B0A409263
:105070002F0250923002609231027092320281E02F
:105080008093471363E176E08CE898E10E94A2BA2E
:105090006CED75E08CE898E10E9477BA40913B0294
:1050A00050913C0260913D0270913E022AE030E056
:1050B0008CE898E10E940ABB6AE276E08CE898E10D
:1050C0000E9477BA409137025091380260913902BC
:1050D00070913A022AE030E08CE898E10E940ABB25
:1050E0006EE276E08CE898E10E9477BA4091330254
:1050F0005091340260913502709136022AE030E01E
:105100008CE898E10E940ABB66E376E08CE898E1BF
:105110000E9477BA40912F02509130026091310283
:10512000709132022AE030E08CE898E10E946EBB78
:105130006FE376E08CE898E10E94A2BA6CED75E02E
:105140008CE898E10E9477BA60913B0270913C0232
:1051500080913D0290913E020E94DFC020916B152C
:1051600030916C1540916D1550916E150E94CCC117
:10517000AB01BC0122E030E08CE898E10E9486BCE3
:1051800063E576E08CE898E10E9477BA6091370297
:10519000709138028091390290913A020E94DFC0EA
:1051A00020916B1530916C1540916D1550916E15D5
:1051B0000E94CCC1AB01BC0122E030E08CE898E158
:1051C0000E9486BC6AE576E08CE898E10E9477BA96
:1051D00060913302709134028091350290913602D1
:1051E0000E94DFC020916B1530916C1540916D15B8
:1051F00050916E150E94CCC1AB01BC0122E030E0A1
:105200008CE898E10E9486BC65E676E08CE898E13F
:105210000E9477BA60912F02709130028091310222
:10522000909132020E94DFC020916B1530916C1575
:1052300040916D1550916E150E94CCC1AB01BC011F
:1052400022E030E08CE898E10E9486BC61E776E0DD
:105250008CE898E128960FB6F894DEBF0FBECDBF5C
:10526000DF91CF91FF90EF90DF90CF90BF90AF9004
:105270009F908F907F906F905F904F900C94A2BA08
:1052800083E495E10E94FFC5892B19F410924E1317
:10529000089580914713882321F081E080934E1375
:1052A000089565E776E08CE898E10C94A2BA8F92B5
:1052B0009F92AF92BF92CF92DF92EF92FF920F93A5
:1052C0001F93CF93DF93CDB7DEB7E6970FB6F89471
:1052D000DEBF0FBECDBF7C018B01A4EDCA2EA1E1C4
:1052E000DA2EBDE09B2E5B018FEFA81AB80A41E0D1
:1052F000B701CE014C960E947C6CCE014C960E9468
:10530000C069882311F0812C19C064EB74E08CE82B
:1053100098E10E94A2BAE6960FB6F894DEBF0FBEDF
:10532000CDBFDF91CF911F910F91FF90EF90DF9054
:10533000CF90BF90AF909F908F900895882D90E070
:10534000801791073CF469E08CE898E10E9478BAF4
:105350008394F4CFCE014C960E944569BC018CE841
:1053600098E10E9477BACE014C960E944769882343
:1053700071F165E278E08CE898E10E94A2BA8E8D26
:105380009F8D9C838B8388A199A1AAA1BBA18D83AA
:105390009E83AF83B8878CA19DA1AEA1BFA1898751
:1053A0009A87AB87BC87DA82C982FE01B896DE0194
:1053B0001D96892D01900D928A95E1F78DA99EA9E0
:1053C0009B8F8A8FB501CE01019671DF12C067E213
:1053D00078E08CE898E10E9477BACE014C960E9462
:1053E0007169AB01BC012AE030E08CE898E10E94D1
:1053F0009FBBCE014C960E94AE6979CFCF93DF93CD
:10540000CDB7DEB76B970FB6F894DEBF0FBECDBF3A
:1054100061E085E30E9456B765E389E995E10E9462
:10542000CD6A811107C06AE278E08CE898E10E94B9
:10543000A2BA09C066E478E08CE898E10E94A2BABA
:1054400081E08093231380912313882309F455C0AE
:105450006DE578E08CE898E10E94A2BA21E045E28F
:1054600058E069E975E1CE0101960E94E16BBE0149
:105470006F5F7F4F84E293E10E94091D81E080937A
:10548000221380912613909127139C838B83809104
:10549000281390912913A0912A13B0912B138D8377
:1054A0009E83AF83B88780912C1390912D13A09188
:1054B0002E13B0912F1389879A87AB87BC8784ED11
:1054C00091E19A8389838DE0E0E3F3E1DE011D96AB
:1054D00001900D928A95E1F780913D1390913E13D2
:1054E0009B8F8A8F60E070E0CE010196E0DE6FE670
:1054F00078E08CE898E10E94A2BA6B960FB6F89417
:10550000DEBF0FBECDBFDF91CF910895CF92DF9266
:10551000EF92FF920F931F93CF93DF93CDB7DEB738
:105520006B970FB6F894DEBF0FBECDBF6C01EDB622
:10553000FEB640914313509144134F5F5F4F8DB7B8
:105540009EB7841B950B0FB6F8949EBF0FBE8DBF00
:105550000DB71EB70F5F1F4F20E030E0B8018FE39B
:1055600093E10E9444BF23E1A80169E975E1CE01FE
:1055700001960E94E16BCE0101960E94C0698823CA
:10558000E1F065E778E08CE898E10E9477BA6FE394
:1055900073E18CE898E10E9492BAB601CE010196BF
:1055A0000E9492BACE0101960E94AE6966E878E048
:1055B0008CE898E10E94A2BA0CC06CE878E08CE814
:1055C00098E10E9477BA6FE373E18CE898E10E945A
:1055D00092BA0FB6F894FEBE0FBEEDBE6B960FB634
:1055E000F894DEBF0FBECDBFDF91CF911F910F9119
:1055F000FF90EF90DF90CF900895CF92DF92EF92DF
:10560000FF920F931F93CF93DF93EC018B016BE914
:1056100078E08CE898E10E9477BA4AE050E0BE0159
:105620008CE898E10E9451BB64EA78E08CE898E14C
:105630000E9477BA4AE050E0B8018CE898E10E94F5
:1056400058BB69EA78E08CE898E10E9477BA6091EB
:10565000FA127091FB124AE050E08CE898E10E9447
:1056600058BB69EB78E08CE898E10E9477BA4091EA
:1056700002135091031360910413709105132AE0F3
:1056800030E08CE898E10E946EBBC090FA12D09096
:10569000FB12EE24D7FCE094FE2C209102133091F3
:1056A00003134091041350910513D8010E9471C354
:1056B000C60ED71EE81EF91ECE01AA2797FDA0959B
:1056C000BA2FC80ED91EEA1EFB1E63EC78E08CE8E8
:1056D00098E10E9477BA2AE030E0B701A6018CE891
:1056E00098E10E940ABB8091F6129091F712A09166
:1056F000F812B091F9128C159D05AE05BF05D4F0D6
:10570000B701A60186E093E10E94546986E093E127
:105710000E94C668C82F6CEC78E08CE898E10E9483
:1057200077BA4AE050E06C2F8CE898E10E948ABB7F
:105730008C2F01C08FEFDF91CF911F910F91FF90C0
:10574000EF90DF90CF9008958F929F92AF92BF928B
:10575000EF92FF920F931F93CF93DF93CDB7DEB7F6
:1057600063970FB6F894DEBF0FBECDBFEDB6FEB6A1
:1057700040E050E0BA0186E093E10E94546969ED8F
:1057800075E0CE010D960E94A7BD86E093E10E94D0
:10579000C668182F60E070E0CE010D960E9432BFFF
:1057A000FC01108386E093E10E94C668182F61E037
:1057B00070E0CE010D960E9432BFFC0110836BEDAC
:1057C00078E0CE010D960E94320D8823A9F06EED8F
:1057D00078E08CE898E10E9477BABE01635F7F4F62
:1057E0008CE898E10E9469BA6CEF78E08CE898E167
:1057F0000E94A2BA10E05EC167E179E08CE898E10E
:105800000E94A2BA86E093E10E94C66869E278E04D
:10581000CE0107960E94A7BD86E093E10E94C6686C
:10582000182F8A3009F18032F9F0133239F486E00A
:1058300093E10E94C668182F8A30C9F7BE01695FDC
:105840007F4FCE0101960E9406BE612FCE010196C8
:105850000E9496BEBC01CE0107960E94F1BDCE010A
:1058600001960E943FBDD8CF6DE379E08CE898E1C6
:105870000E9477BABE01695F7F4F8CE898E10E9471
:1058800092BA4B855C854F5F5F4F8DB79EB7841B87
:10589000950B0FB6F8949EBF0FBE8DBF0DB71EB708
:1058A0000F5F1F4F20E030E0B801CE0107960E9445
:1058B00044BFC8010E94FFC5AA2797FDA095BA2F33
:1058C0008093021390930313A0930413B0930513D2
:1058D0000A97A105B10544F468E772E08CE898E105
:1058E0000E9482BA10E0E2C069E278E0CE01079639
:1058F0000E9419BE86E093E10E94C668282F8A3074
:1059000009F1233239F486E093E10E94C668282F1A
:105910008A30C9F7BE01695F7F4FCE0101962B8B9C
:105920000E9406BE2B89622FCE0101960E9496BE70
:10593000BC01CE0107960E94F1BDCE0101960E94E6
:105940003FBDD8CF68E479E08CE898E10E9477BA4F
:10595000BE01695F7F4F8CE898E10E9492BA4B8547
:105960005C854F5F5F4F20E030E0B801CE010796C5
:105970000E9444BFC8010E94FFC5BC01882777FD73
:105980008095982F6093FE127093FF1280930013FE
:10599000909301130E94DFC04B015C0160910213E0
:1059A0007091031380910413909105130E94DFC03E
:1059B0009B01AC01C501B4010E9444C060931F0269
:1059C00070932002809321029093220264E579E093
:1059D0008CE898E10E9477BA40911F025091200212
:1059E000609121027091220222E030E08CE898E17F
:1059F0000E9487BC69E278E0CE0107960E9419BE3A
:105A000086E093E10E94C668B82E9AE0B916B1F01C
:105A1000BE01695F7F4FCE0101960E9406BE6B2DCD
:105A2000CE0101960E9496BEBC01CE0107960E944F
:105A3000F1BDCE0101960E943FBDE2CF66E679E05E
:105A40008CE898E10E9477BABE01695F7F4F8CE8CD
:105A500098E10E9492BA4B855C854F5F5F4F20E0D2
:105A600030E0B801CE0107960E9444BFC8010E94F1
:105A7000FFC59093FD128093FC1286E093E10E9493
:105A800061697093FB126093FA126AE779E08CE81F
:105A900098E10E9477BA6091FA127091FB124AE085
:105AA00050E08CE898E10E9458BB11E0CE010796C7
:105AB0000E943FBDCE010D960E943FBD812F0FB6C3
:105AC000F894FEBE0FBEEDBE63960FB6F894DEBF2F
:105AD0000FBECDBFDF91CF911F910F91FF90EF903F
