:100000000C94210F0C94D0A90C9401AA0C9432AA40
:100010000C9463AA0C9494AA0C94C5AA0C94F6AA06
:100020000C9427AB0C944E0F0C944E0F0C944E0F67
:100030000C944E0F0C944E0F0C944E0F0C944E0FCC
:100040000C944E0F0C9467710C944E0F0C944E0F41
:100050000C944E0F0C944E0F0C944E0F0C9458AB06
:100060000C944E0F0C94AEAD0C94D6AE0C944E0F77
:100070000C944E0F0C944E0F0C944E0F0C944E0F8C
:100080000C943A710C944E0F0C944E0F0C944E0F2E
:100090000C94E7AD0C9415AF0C944E0F0C944E0FCE
:1000A0000C944E0F0C944E0F0C940D710C944E0F3B
:1000B0000C944E0F0C944E0F0C944E0F0C94E07059
:1000C0000C944E0F0C944E0F0C944E0F0C9420AECB
:1000D0000C9454AF0C944E0F0C9459AE0C9493AFF7
:1000E0000C944E0FAA273A288528CE28E728002905
:1000F00019294929A62A7C2AA3297929492D492D7C
:10010000CF29E829492DE92ABF2ACE2BBE2C942CD1
:10011000182DEE2C8C2B732B432B192B342CE92B05
:10012000642CDA270A28012A4C2A9E287341944419
:1001300076417A4194447F4187418F41BB41684376
:10014000904394449444B8431B439444E94115427A
:10015000CF43E0430A443744614443426A42B142D8
:10016000D842C943C743CB436B416F415943CD4349
:100170008E4405A84CCDB2D44EB93836A9020C50E5
:10018000B9918688083CA6AAAA2ABE000000803F32
:10019000000000006410B71DC8206E3BAC30D926AB
:1001A0009041DC76F4516B6B5861B24D3C71055057
:1001B0002083B8ED44930FF0E8A3D6D68CB361CB7F
:1001C000B0C2649BD4D2D38678E20AA01CF2BDBD33
:1001D00050424D20696D616765206D7573742062B2
:1001E00065206174206C6561737420313020706902
:1001F00078656C7320776964652E002C206D6178BA
:100200002064656E736974793A20002C2070656EE5
:100210002077696474683A200050656E7769647469
:1002200068207465737420004368616E67696E6747
:10023000206261636B20746F206C697665206D6F3E
:1002400064652E0046696C652072656D6F76656425
:100250002E0046696C6520616C7265616479206569
:1002600078697374732E00457865637574696E6779
:1002700020636F6D6D616E643A0053746F72696EC6
:100280006720636F6D6D616E643A006D6D00436849
:10029000616E6765642050656E20776964746820BC
:1002A000746F20004E657720616363656C657261D1
:1002B00074696F6E3A20004E6577206D6178207307
:1002C000706565643A200055703A2000446F776E7F
:1002D0003A2000504753504545442C0050474C4964
:1002E00046542C005047535445504D554C5449509A
:1002F0004C4945522C005047535445505350455299
:100300005245562C0050474D4D5045525245562CA3
:1003100000504753495A452C0050474E414D452CFB
:10032000002900526563616C6320706167654865F0
:100330006967687420696E20737465707320280083
:100340002900526563616C63207061676557696459
:10035000746820696E20737465707320280029000A
:10036000292C2073746570735065724D4D202800E0
:10037000526563616C63206D6D5065725374657076
:100380002028004C6F61646564206D6F746F72206B
:1003900073746570206D756C7469706C6965723A00
:1003A000004C6F61646564206D616368696E6520EF
:1003B0006E616D653A004C6F6164656420757020F4
:1003C000706F733A004C6F6164656420646F776E80
:1003D00020706F733A004C6F61646564206D6F74B8
:1003E0006F72207374657073207065722072657609
:1003F0003A004C6F61646564206D6D2070657220F9
:100400007265763A004C6F61646564206D61636863
:10041000696E65206865696768743A004C6F61644D
:100420006564206D616368696E65207769647468CE
:100430003A002069736E2774206120636F6D6D61CF
:100440006E642049207265636F676E6973652E0064
:10045000536F7272792C200029206E6F74207061A6
:10046000727365642E00436F6D6D616E64202800A9
:10047000436865636B73756D206E6F74206D617476
:1004800063686564213A004920676F742000760034
:10049000504F4C41524752415048204F4E21007C12
:1004A0003C3E5E2B3D3F2F5B5D3B2C2A225C0008CF
:1004B0000C205F00000000000000000000000000B1
:1004C0000020202020202000200000002850500084
:1004D0000000000000000000002828FC2850FC500C
:1004E000500000002078A8A0603028A8F02000006C
:1004F0000048A8B050283454480000000020505054
:1005000078A8A8906C000000404080000000000027
:100510000000000004081010101010100804000063
:10052000402010101010101020400000000020A8E3
:100530007070A8200000000000202020F82020205B
:1005400000000000000000000000000040408000AB
:1005500000000000F80000000000000000000000A3
:100560000000000040000000081010102020404053
:1005700040800000007088888888888870000000AB
:10058000002060202020202070000000007088885B
:1005900010204080F80000000070880830080888AB
:1005A00070000000001030505090781018000000CB
:1005B00000F88080F00808887000000000709080CB
:1005C000F08888887000000000F89010202020201B
:1005D0002000000000708888708888887000000003
:1005E00000708888887808487000000000000020AB
:1005F00000000000200000000000000020000000BB
:1006000020200000040810204020100804000000F2
:10061000000000F80000F800000000004020100872
:10062000040810204000000000708888102020007E
:100630002000000000708898A8A8B880780000000A
:100640000020203050507848CC00000000F048488E
:1006500070484848F00000000078888080808088DA
:100660007000000000F0484848484848F00000008A
:1006700000F8485070504048F800000000F848501A
:1006800070504040E000000000384880809C88485E
:100690003000000000CC484878484848CC000000B2
:1006A00000F8202020202020F8000000007C1010FE
:1006B0001010101090E0000000EC485060505048BE
:1006C000EC00000000E0404040404044FC000000DE
:1006D00000D8D8D8D8A8A8A8A800000000DC48688E
:1006E00068585848E8000000007088888888888822
:1006F0007000000000F0484870404040E0000000FA
:10070000007088888888E8987018000000F04848D1
:1007100070504848EC00000000788880601008881D
:10072000F000000000F8A820202020207000000029
:1007300000CC4848484848483000000000CC4848B1
:10074000505030202000000000A8A8A87050505041
:100750005000000000D8505020205050D800000019
:1007600000D85050202020207000000000F8901089
:1007700020204048F80000003820202020202020A1
:1007800020380000404040202010101008000000D9
:100790007010101010101010107000002050000089
:1007A0000000000000000000000000000000000049
:1007B0000000FC002000000000000000000000001D
:1007C00000000000304838483C00000000C04040B5
:1007D0007048484870000000000000003848404061
:1007E0003800000000180808384848483C0000005D
:1007F000000000003048784038000000001C202035
:100800007820202078000000000000003C483040A4
:100810007844380000C0404070484848EC00000070
:100820000020000060202020700000000010000068
:10083000301010101010E00000C040405C507048B4
:10084000EC00000000E0202020202020F800000024
:1008500000000000F0A8A8A8A80000000000000008
:10086000F0484848EC0000000000000030484848CC
:100870003000000000000000F04848487040E000F0
:10088000000000003848484838081C0000000000FC
:10089000D8604040E00000000000000078403008D0
:1008A00078000000000020207020202018000000A8
:1008B00000000000D84848483C000000000000004C
:1008C000EC4850302000000000000000A8A8705044
:1008D0005000000000000000D8502050D800000058
:1008E00000000000EC4850302020C0000000000054
:1008F0007810202078000000181010102010101020
:1009000010180010101010101010101010101000FF
:10091000602020201020202020600040A41800002B
:10092000000000000000001010205F000000000028
:1009300000000000000000000000000000000000B7
:1009400000000000000000000000000000000007A0
:10095000000F800F800F800F800F800700070000BE
:10096000000000070007000700000000000E380E1E
:10097000380E380E3806300000000000000000007D
:10098000000000000000000000000000000C300C1F
:10099000300C307FFE7FFE0C300C300C300C307F82
:1009A000FE7FFE0C300C300C3000000000024002D4
:1009B000400FF81FF81A401A401FF00FF8025802B3
:1009C000581FF81FF0024002400000000000000025
:1009D000000E100E300E7000E001C0038007000E04
:1009E000700C700870000000000000000000000F94
:1009F000001980198019800F000F080F9819F81836
:100A0000F018E019F00F9800000000000000000747
:100A100000070007000E00000000000000000000BA
:100A200000000000000000000000000000000000C6
:100A3000F001C0038007000E000E000E000E00073C
:100A400000038001C000F000000000000000000F63
:100A500000038001C000E0007000700070007000B2
:100A6000E001C003800F0000000000000000000152
:100A7000801188099007E007E03FFC3FFC07E00792
:100A8000E0099011880180000000000000000000D3
:100A90000000000180018001800FF00FF001800153
:100AA0008001800000000000000000000000000045
:100AB0000000000000000000000000000000000036
:100AC000000700070007000E000000000000000003
:100AD0000000000000000000001FF81FF8000000E8
:100AE0000000000000000000000000000000000006
:100AF00000000000000000000000000000000000F6
:100B000000070007000700000000000000000000D0
:100B1000020006000E001C0038007000E001C00357
:100B20008007000E001C0000000000000000000F05
:100B3000F01C381C781CF81CF81DB81DB81F381F95
:100B4000381E381C380FF0000000000000000001C3
:100B500080018003801F801F800380038003800347
:100B600080038003801FF000000000000000000FE1
:100B7000E01C701C380038007000E001C0038007E2
:100B8000000E381C381FF800000000000000000FA5
:100B9000E01C701C380038007003C003C0007000F7
:100BA000381C381C700FE00000000000000000003E
:100BB000E001E003E006E00CE018E01FF81FF80099
:100BC000E000E000E003F800000000000000001F6B
:100BD000F81C001C001C001C001FE01FF000780027
:100BE000381C381C700FE0000000000000000003FB
:100BF000E007000E001C001C001FF01FF81C381C32
:100C0000381C381C380FF000000000000000001FE6
:100C1000FC1C1C1C1C1C1C001C0038007000E0018B
:100C2000C003800380038000000000000000000F6C
:100C3000F01C381C381C381F3807E007E01CF81C73
:100C4000381C381C380FF000000000000000000FB6
:100C5000F01C381C381C381C381FF80FF8003800FE
:100C600038007000E007C000000000000000000035
:100C70000000000380038003800000000003800365
:100C80008003800000000000000000000000000061
:100C90000000000380038003800000000003800345
:100CA00080038007000000000000000000007000CA
:100CB000E001C0038007000E001C001C000E0007AE
:100CC00000038001C000E000700000000000000090
:100CD00000000000003FFC3FFC000000003FFC3F24
:100CE000FC0000000000000000000000001C000EDE
:100CF000000700038001C000E00070007000E00108
:100D0000C0038007000E001C000000000003C00F9D
:100D1000F01E7818380038007000E001C001C000F3
:100D200000000001C001C001C0000000000FF81C5D
:100D30001C1C1C1C1C1C1C1CFC1CFC1CFC1CFC1C73
:100D4000001C001C001FF007F8000000000000035A
:100D5000C007E00E701C381C381C381C381FF81CEB
:100D6000381C381C381C3800000000000000001F30
:100D7000F00E380E380E380E380FF00FF00E380E19
:100D8000380E380E381FF000000000000000000789
:100D9000F00E381C381C001C001C001C001C001C21
:100DA000001C380E3807F000000000000000001F93
:100DB000E00E700E380E380E380E380E380E380E23
:100DC000380E380E701FE000000000000000001F09
:100DD000F80E180E080E000E300FF00FF00E300E49
:100DE000000E080E181FF800000000000000001F91
:100DF000F80E180E080E000E300FF00FF00E300E29
:100E0000000E000E001F00000000000000000007A0
:100E1000F00E381C381C381C001C001C001CF81C70
:100E2000381C380E3807F800000000000000001CD5
:100E3000701C701C701C701C701FF01FF01C701C4C
:100E4000701C701C701C7000000000000000000F7F
:100E5000E00380038003800380038003800380031A
:100E600080038003800FE00000000000000000010C
:100E7000FC007000700070007000700070387038F6
:100E800070387038700FE000000000000000001E95
:100E9000380E380E700EE00FC00F800F800FC00E9E
:100EA000E00E700E381E3800000000000000001F29
:100EB000000E000E000E000E000E000E000E000EC2
:100EC000080E180E381FF800000000000000001C7B
:100ED0001C1E3C1F7C1FFC1FFC1DDC1C9C1C1C1CC6
:100EE0001C1C1C1C1C1C1C00000000000000001C22
:100EF0001C1C1C1E1C1F1C1F9C1DDC1CFC1C7C1CA9
:100F00003C1C1C1C1C1C1C000000000000000003FA
:100F1000E007F00E381C1C1C1C1C1C1C1C1C1C1C80
:100F20001C0E3807F003E000000000000000001F66
:100F3000F00E380E380E380E380FF00FF00E000E8F
:100F4000000E000E001F0000000000000000000363
:100F5000E00F780E381C1C1C1C1C1C1C1C1C7C1C50
:100F6000FC0FF80FF8003800FC0000000000001F24
:100F7000F00E380E380E380E380FF00FF00E700EDF
:100F8000380E380E381E3800000000000000000F38
:100F9000F01C381C381C381C000FE007F000381C0F
:100FA000381C381C380FF000000000000000001F43
:100FB000FC19CC11C401C001C001C001C001C001B5
:100FC000C001C001C007F000000000000000001CCC
:100FD000701C701C701C701C701C701C701C701CB1
:100FE000701C701C700FE000000000000000001C6E
:100FF000701C701C701C701C701C701C701C701C91
:10100000700EE007C0038000000000000000001C1C
:101010001C1C1C1C1C1C1C1C1C1C9C1C9C1C9C0F9D
:10102000F80FF80770077000000000000000001CB7
:10103000701C701C700EE007C00380038007C00E98
:10104000E01C701C701C7000000000000000001C00
:10105000701C701C701C701C700EE007C0038003B5
:1010600080038003800FE000000000000000001FEC
:10107000F81C381838107000E001C0038007000E1B
:10108000081C181C381FF8000000000000000007B2
:10109000F007000700070007000700070007000728
:1010A000000700070007F00000000000000000102B
:1010B0000018001C000E000700038001C000E000C3
:1010C000700038001C00070000000000000000074E
:1010D000F000700070007000700070007000700010
:1010E000700070007007F000000000000001800335
:1010F000C007E00E701C3800000000000000000077
:1011000000000000000000000000000000000000DF
:1011100000000000000000000000000000000000CF
:10112000000000000000007FFF7FFF000000001CA7
:10113000001C000700070000000000000000000085
:10114000000000000000000000000000000000009F
:10115000000000000000000FE0007000700FF01CA5
:10116000701C701C700FD800000000000000001EF2
:10117000000E000E000E000FF00E380E380E380E66
:10118000380E380E381BF000000000000000000090
:10119000000000000000000FE01C701C701C001C10
:1011A000001C701C700FE000000000000000000038
:1011B000F80070007000700FF01C701C701C701C28
:1011C000701C701C700FD8000000000000000000B0
:1011D000000000000000000FE01C701C701FF01CDD
:1011E000001C701C700FE0000000000000000003F5
:1011F000E007700770070007001FE01FE007000707
:1012000000070007001FC0000000000000000000F1
:10121000000000000000000FD81C701C701C701C27
:10122000700FF007F000701C700FE0000000001E4F
:10123000000E000E000E000EF00F380F380E380EA4
:10124000380E380E381E3800000000000000000183
:10125000C001C001C000000FC001C001C001C00139
:10126000C001C001C00FF800000000000000000035
:101270007000700070000003F000700070007000DB
:1012800070007000701C700CF007E0000000001E81
:10129000000E000E000E000E380E700EE00FC00E95
:1012A000E00E700E381E3800000000000000000F35
:1012B000C001C001C001C001C001C001C001C00126
:1012C000C001C001C00FF8000000000000000000D5
:1012D000000000000000001FF81C9C1C9C1C9C1CB3
:1012E0009C1C9C1C9C1C9C0000000000000000003A
:1012F000000000000000001FE01C701C701C701C2F
:10130000701C701C701C70000000000000000000C9
:10131000000000000000000FE01C701C701C701C1E
:10132000701C701C700FE000000000000000000046
:10133000000000000000001BF00E380E380E380EC2
:10134000380E380FF00E000E001F000000000000E5
:10135000000000000000001FB038E038E038E0383E
:10136000E038E01FE000E000E001F00000000000D5
:10137000000000000000001EF00FF80F380E000EF5
:10138000000E000E001F0000000000000000000022
:10139000000000000000000FE01C301C300F800334
:1013A000E0187018700FE00000000000000000005E
:1013B000000100030007001FF007000700070007F7
:1013C000000770077003E00000000000000000004C
:1013D000000000000000001C701C701C701C701CC1
:1013E000701C701C700FD80000000000000000008E
:1013F000000000000000001C701C701C701C701CA1
:10140000700EE007C0038000000000000000000034
:10141000000000000000001C1C1C1C1C1C1C9C1C50
:101420009C0FF8077007700000000000000000002B
:10143000000000000000001CE01CE00FC007800757
:10144000800FC01CE01CE000000000000000000055
:10145000000000000000000E380E380E380E380E66
:101460003807F003E000E001C01F8000000000002A
:10147000000000000000001FE018E011C00380071A
:10148000000E201C601FE0000000000000000001B2
:10149000F803800380038007001C001C0007000382
:1014A000800380038001F800000000000001C001FB
:1014B000C001C001C001C001C001C001C001C00124
:1014C000C001C001C001C001C00000000000001F39
:1014D0008001C001C001C000E00038003800E00118
:1014E000C001C001C01F8000000000000000001FFC
:1014F0001C3B9C39DC38F8000000000000000000B4
:1015000000000000000000000000002032300A004F
:101510000000000000000000FFFE0001FFFF0003CC
:10152000FFFF8001FFFF600CFFFEF01E0001F83F8F
:101530000001F83F0001F83F0001F83F0001F83FCB
:101540000001F83F0001F83F0001F83F0001F83FBB
:101550000001F83F0001F83F0001F83F0001F83FAB
:101560000001F83E00007838000018200000080054
:1015700000000020000000380000183E0000783F06
:101580000001F83F0001F83F0001F83F0001F83F7B
:101590000001F83F0001F83F0001F83F0001F83F6B
:1015A0000001F83F0001F83F0001F83F0001F83F5B
:1015B0000001F83F0001F81E0000F00CFFFE600182
:1015C000FFFF0003FFFF8001FFFF0000FFFE0000A0
:1015D000000000000000000000000000000000000B
:1015E000000000000000000000000000000060009B
:1015F0000000F0000001F8000001F8000001F80010
:101600000001F8000001F8000001F8000001F800F6
:101610000001F8000001F8000001F8000001F800E6
:101620000001F8000001F8000001F8000000780057
:10163000000018000000080000000000000000008A
:1016400000001800000078000001F8000001F80018
:101650000001F8000001F8000001F8000001F800A6
:101660000001F8000001F8000001F8000001F80096
:101670000001F8000001F8000001F8000001F80086
:101680000000F0000000600000000000000000000A
:10169000000000000000000000000000000000004A
:1016A0000000000000000000FFFE0001FFFF00033B
:1016B000FFFF8001FFFF6000FFFEF0000001F80067
:1016C0000001F8000001F8000001F8000001F80036
:1016D0000001F8000001F8000001F8000001F80026
:1016E0000001F8000001F8000001F8000001F80016
:1016F0000001F80000007801FFFE1803FFFF880FCB
:10170000FFFFE027FFFFC039FFFF003E0000003F62
:101710000000003F0000003F0000003F0000003FCD
:101720000000003F0000003F0000003F0000003FBD
:101730000000003F0000003F0000003F0000003FAD
:101740000000003F0000001E0000000CFFFE000132
:10175000FFFF0003FFFF8001FFFF0000FFFE00000E
:101760000000000000000000000000000000000079
:10177000FFFE0001FFFF0003FFFF8001FFFF60008D
:10178000FFFEF0000001F8000001F8000001F80081
:101790000001F8000001F8000001F8000001F80065
:1017A0000001F8000001F8000001F8000001F80055
:1017B0000001F8000001F8000001F80000007801C5
:1017C000FFFE1803FFFF880FFFFFE007FFFFC001C8
:1017D000FFFF1800000078000001F8000001F80089
:1017E0000001F8000001F8000001F8000001F80015
:1017F0000001F8000001F8000001F8000001F80005
:101800000001F8000001F8000001F8000001F800F4
:101810000000F000FFFE6001FFFF0003FFFF8001FA
:10182000FFFF0000FFFE00000000000000000000BD
:1018300000000000000000000000000000000000A8
:10184000000000000000600C0000F01E0001F83FE6
:101850000001F83F0001F83F0001F83F0001F83FA8
:101860000001F83F0001F83F0001F83F0001F83F98
:101870000001F83F0001F83F0001F83F0001F83F88
:101880000001F83E00007839FFFE1823FFFF880FA3
:10189000FFFFE007FFFFC001FFFF18000000780016
:1018A0000001F8000001F8000001F8000001F80054
:1018B0000001F8000001F8000001F8000001F80044
:1018C0000001F8000001F8000001F8000001F80034
:1018D0000001F8000001F8000000F00000006000C6
:1018E00000000000000000000000000000000000F8
:1018F00000000000000000000000000000000000E8
:10190000FFFE0001FFFF0003FFFF8001FFFF000C4F
:10191000FFFE001E0000003F0000003F0000003FEF
:101920000000003F0000003F0000003F0000003FBB
:101930000000003F0000003F0000003F0000003FAB
:101940000000003F0000003F0000003E00000039A2
:10195000FFFE0023FFFF800FFFFFE007FFFFC00136
:10196000FFFF1800000078000001F8000001F800F7
:101970000001F8000001F8000001F8000001F80083
:101980000001F8000001F8000001F8000001F80073
:101990000001F8000001F8000001F8000001F80063
:1019A0000000F000FFFE6001FFFF0003FFFF800169
:1019B000FFFF0000FFFE000000000000000000002C
:1019C0000000000000000000FFFE0001FFFF000318
:1019D000FFFF8001FFFF000CFFFE001E0000003F24
:1019E0000000003F0000003F0000003F0000003FFB
:1019F0000000003F0000003F0000003F0000003FEB
:101A00000000003F0000003F0000003F0000003FDA
:101A10000000003E00000039FFFE0023FFFF800FA2
:101A2000FFFFE027FFFFC039FFFF183E0000783FAF
:101A30000001F83F0001F83F0001F83F0001F83FC6
:101A40000001F83F0001F83F0001F83F0001F83FB6
:101A50000001F83F0001F83F0001F83F0001F83FA6
:101A60000001F83F0001F81E0000F00CFFFE6001CD
:101A7000FFFF0003FFFF8001FFFF0000FFFE0000EB
:101A80000000000000000000000000000000000056
:101A9000FFFE0001FFFF0003FFFF8001FFFF60006A
:101AA000FFFEF0000001F8000001F8000001F8005E
:101AB0000001F8000001F8000001F8000001F80042
:101AC0000001F8000001F8000001F8000001F80032
:101AD0000001F8000001F8000001F80000007800A3
:101AE00000001800000008000000000000000000D6
:101AF00000001800000078000001F8000001F80064
:101B00000001F8000001F8000001F8000001F800F1
:101B10000001F8000001F8000001F8000001F800E1
:101B20000001F8000001F8000001F8000001F800D1
:101B30000000F00000006000000000000000000055
:101B40000000000000000000000000000000000095
:101B50000000000000000000FFFE0001FFFF000386
:101B6000FFFF8001FFFF600CFFFEF01E0001F83F49
:101B70000001F83F0001F83F0001F83F0001F83F85
:101B80000001F83F0001F83F0001F83F0001F83F75
:101B90000001F83F0001F83F0001F83F0001F83F65
:101BA0000001F83E00007839FFFE1823FFFF880F80
:101BB000FFFFE027FFFFC039FFFF183E0000783F1E
:101BC0000001F83F0001F83F0001F83F0001F83F35
:101BD0000001F83F0001F83F0001F83F0001F83F25
:101BE0000001F83F0001F83F0001F83F0001F83F15
:101BF0000001F83F0001F81E0000F00CFFFE60013C
:101C0000FFFF0003FFFF8001FFFF0000FFFE000059
:101C100000000000000000000000000000000000C4
:101C2000FFFE0001FFFF0003FFFF8001FFFF600CCC
:101C3000FFFEF01E0001F83F0001F83F0001F83FF1
:101C40000001F83F0001F83F0001F83F0001F83FB4
:101C50000001F83F0001F83F0001F83F0001F83FA4
:101C60000001F83F0001F83F0001F83E000078391C
:101C7000FFFE1823FFFF880FFFFFE007FFFFC001F3
:101C8000FFFF1800000078000001F8000001F800D4
:101C90000001F8000001F8000001F8000001F80060
:101CA0000001F8000001F8000001F8000001F80050
:101CB0000001F8000001F8000001F8000001F80040
:101CC0000000F000FFFE6001FFFF0003FFFF800146
:101CD000FFFF0000FFFE0000000000000000000009
:101CE000002100240027002A002D003000330001CD
:101CF000010000040107010A01000022002500285C
:101D0000002B002E00310034000201000005010804
:101D1000010B01000020002300260029002C002FC9
:101D2000003200000100000301060109010505055C
:101D300005070508080808020202020A0A08080442
:101D40000404040101010101010101030303030370
:101D5000030303040707070C0C0C0C0C0C0C0C02FF
:101D600002020206060606060606060B0B0B0B0B06
:101D70000B0B0B01021020200808102040102040FF
:101D8000800201020108040201010204081020403F
:101D9000808040201008040201800402018040205D
:101DA0001008040201080402010102040810204086
:101DB0008001020408102040800000090A02080B7C
:101DC0000C0D0706030401000000000000000000E5
:101DD0000000000000000000000000000000000003
:101DE000000000000011100F0000000000000000C3
:101DF000000000000000000000000000000000499A
:101E00004E46494E4954594E414ECDCCCC3D0AD751
:101E1000233C17B7D13877CC2B329595E6241FB1E8
:101E20004F0A000020410000C84200401C4620BC70
:101E3000BE4CCA1B0E5AAEC59D74F1193D73FDB060
:101E4000EC1911241FBECFEFD1E2DEBFCDBF00E001
:101E50000CBF1FE0A0E0B2E0E6E7F9E701E00BBF4E
:101E600002C007900D92AA38B107D9F71BBE18E13E
:101E7000AAE8BFE001C01D92A038B107E1F71EE15A
:101E8000C0E4DEE104C02297FE010E9469BCCA33AF
:101E9000D107C9F70E941BB20C94AFBC0C94000090
:101EA000CF93DF93BC018230910510F462E070E0C3
:101EB000A0917C18B0917D18ED01E0E0F0E040E0E9
:101EC00050E021C0888199818617970769F48A813B
:101ED0009B81309719F09383828304C090937D187F
:101EE00080937C18FE0134C06817790738F44115D7
:101EF000510519F08417950708F4AC01FE018A8199
:101F00009B819C01E9012097E9F641155105A9F152
:101F1000CA01861B970B049708F4BA01E0E0F0E0D1
:101F20002AC08D919C91119784179507F9F4641735
:101F3000750781F412968D919C911397309719F043
:101F40009383828304C090937D1880937C18FD0155
:101F500032964CC0CA01861B970BFD01E80FF91F92
:101F60006193719302978D939C9340C0FD01828190
:101F700093819C01D9011097A1F680917A189091D4
:101F80007B18892B41F48091CE0E9091CF0E9093C7
:101F90007B1880937A184091D00E5091D10E411544
:101FA000510541F44DB75EB78091CC0E9091CD0EA6
:101FB000481B590B20917A1830917B18CA01821B5B
:101FC000930B8617970780F0AB014E5F5F4F841726
:101FD000950750F0420F531F50937B1840937A1887
:101FE000F9016193719302C0E0E0F0E0CF01DF916D
:101FF000CF910895CF93DF93009709F450C0EC017F
:1020000022971B821A82A0917C18B0917D1810979C
:1020100009F140E050E0AC17BD0708F1BB83AA838B
:10202000FE0121913191E20FF31FAE17BF0779F442
:102030008D919C911197280F391F2E5F3F4F398347
:10204000288312968D919C9113979B838A834115C7
:10205000510571F4D0937D18C0937C1820C012965E
:102060008D919C911397AD01009711F0DC01D3CFB6
:10207000FA01D383C28321913191E20FF31FCE176E
:10208000DF0769F488819981280F391F2E5F3F4F40
:10209000FA01318320838A819B8193838283DF913C
:1020A000CF910895A0E0B0E0E8E5F0E10C9480BCA9
:1020B000EC01A880B980CA80DB80A114B104C104FE
:1020C000D10441F484E2A82E89EDB82E8BE5C82E08
:1020D00087E0D82EC601B5012DE133EF41E050E095
:1020E0000E944CBC27EA31E440E050E00E94D8BB9B
:1020F0007B018C01C601B5012DE133EF41E050E0D9
:102100000E944CBCCA01B9012CEE34EF4FEF5FEFD7
:102110000E94D8BB6E0D7F1D801F911F97FF04C0CA
:102120006150704080409048688379838A839B83A4
:102130009B01AC015F77B901CA01CDB7DEB7EAE018
:102140000C949CBCAFCF82ED9EE0ACCF6093D20EDE
:102150007093D30E8093D40E9093D50E0895A0E083
:10216000B0E0E5EBF0E10C947ABC6C01009721F44F
:10217000CB0196DE6C01BDC08EEF882E8FEF982EBE
:102180008C0C9D1C8601060F171F0815190508F4F5
:10219000AEC0F401A081B181A617B707B0F0A53099
:1021A000B10508F4A6C0CD0104978617970708F477
:1021B000A0C01297A61BB70BF801A193B193D4014D
:1021C0006D937C93CF0116DF94C07B01EA1AFB0A62
:1021D000EEEFFFEFEE0EFF1E36016A0E7B1EC09182
:1021E0007C18D0917D1844245524AA24BB244AC0CD
:1021F000C615D705E1F5488159814E155F05B8F13F
:10220000CA0104978E159F05B0F41296A40FB51F4E
:10221000F401B183A0832A813B814114510431F040
:10222000D20113963C932E93129763C030937D187E
:1022300020937C185EC08A819B81F80193838283FE
:10224000425050404E195F0951834083411451045C
:1022500031F0D20113961C930E93129704C0109381
:102260007D1800937C18F4017183608342C08881DB
:102270009981A816B90608F45C012E018A819B8118
:102280009C01E901209709F0B3CF80917A189091D1
:102290007B1886159705E9F4A616B706D0F42091A9
:1022A000D00E3091D10E2115310541F42DB73EB736
:1022B0008091CC0E9091CD0E281B390B021713077D
:1022C000B0F410937B1800937A18D4016D937C932B
:1022D00010C0CB01E5DDEC01009749F0F40140812D
:1022E0005181B6015FD0C60185DE6E0102C0CC24EB
:1022F000DD24C601CDB7DEB7E0E10C9496BC6627BD
:102300007727C8C0FC0188279927E89421912032BB
:10231000E9F3293010F02E30C8F32B3239F02D328A
:1023200031F4689403C0AED0820F911D21912053E7
:102330002A30C8F31EF4909581959F4F08951F93FE
:10234000FC0199278827BC01E89411911032E9F328
:10235000193010F01E30C8F31B3249F01D3241F421
:10236000689405C07AD0610F711D811D911D119176
:1023700010531A30B8F33EF490958095709561959E
:102380007F4F8F4F9F4F1F910895FB01DC0104C0C9
:102390008D910190801921F441505040C8F7881B5D
:1023A000990B0895FB01DC0102C001900D92415090
:1023B0005040D8F70895FC018191861721F08823B9
:1023C000D9F7992708953197CF010895FB01DC01D2
:1023D0008D91019080190110D9F3990B0895FB019B
:1023E000DC0101900D920020E1F70895FB01DC0172
:1023F0004150504030F08D910190801919F4002027
:10240000B9F7881B990B0895FB01DC01415050403E
:1024100048F001900D920020C9F701C01D92415073
:102420005040E0F70895FB0151915523A9F0BF01F9
:10243000DC014D9145174111E1F759F4CD010190AF
:10244000002049F04D9140154111C9F3FB014111A4
:10245000EFCF81E090E001970895592F482F372F53
:10246000262F660F771F881F991F660F771F881FFB
:10247000991F620F731F841F951F660F771F881F98
:10248000991F08957AE0979F902D879F802D910D39
:1024900011240895A0E0B0E0E0E5F2E10C947EBCE8
:1024A000EC015B016115710519F0FB0191838083DB
:1024B000F9908F2D90E00E946DBC892BC9F7FDE249
:1024C000FF1621F4F990EE24E39405C02BE2F216F6
:1024D00009F4F990EE248E0101501040C8016FEF0D
:1024E0007DE143E050E033D1892BF9F48E010E5F9A
:1024F0001F4FC80162E07EE145E050E028D1892B02
:1025000019F48E01095F1F4FA114B10419F0F501F0
:1025100011830083E0FC04C070E090E080E813C009
:1025200070E090E080E86FEF07C1C80167E07EE1EE
:1025300043E050E00CD1892B69F4A114B10429F4D3
:1025400070E090E080EC6FE7F7C02296F501D18350
:10255000C083F6CF8824992440E050E060E070E02A
:10256000EF2DE053EA30A0F5F2E0EF2A8E2D90E057
:102570009C0128703070E2FE06C0232B79F5089488
:10258000811C911C2BC0232B19F008948108910801
:10259000DB01CA0112E0880F991FAA1FBB1F1A9501
:1025A000D1F7480F591F6A1F7B1F440F551F661F25
:1025B000771F4E0F511D611D711D483929E95207C2
:1025C00029E9620729E1720748F084E0E82A06C099
:1025D000EE3F31F4E3FC39C098E0E92AF990C0CF2E
:1025E000E53311F0E53189F529912D3219F4E0E157
:1025F000EE2A05C02B3219F081E090E003C029914A
:1026000082E090E0E22FE053EA3018F0C81BD90BCB
:102610001CC020E030E0FCE020383F075CF4C9013A
:10262000880F991F880F991F280F391F220F331FFA
:102630002E0F311DE991E053EA3068F3E4FE03C048
:10264000309521953F4F820E931ECE2CDD24E1FE66
:1026500007C0A114B10421F02197F501D183C083F3
:10266000CB01BA010E94DCB97B018C01F3E0CF22DF
:10267000DD2423E0C216D10421F417FB109517F9CD
:10268000109557016801C801B70120E030E040E033
:1026900050E00E943CB9882309F44AC097FE0DC05F
:1026A0002EE1E22E2EE1F22E9094819491089394E3
:1026B000C0E2D0E000E010E012C096E3E92E9EE117
:1026C000F92EF6CFF7012591359145915491C60128
:1026D000B5010E94D4BA5B016C018C1A9D0A8C165C
:1026E0009D0684F7D595C7950F5F1F4F06301105DE
:1026F00029F08CEF9FEFE80EF91EF1CFC501D6014E
:102700007C018D018C2D880F8D2D881F8F3F51F0FE
:10271000C601B50120E030E040E050E00E943CB945
:10272000882331F482E290E090937F1880937E18A2
:102730007E2D9F2D802F612F272F392F482F562F29
:10274000B901CA01CDB7DEB7ECE00C949ABCFB012D
:10275000DC014150504088F08D9181341CF08B3564
:102760000CF4805E659161341CF06B350CF4605E96
:10277000861B611171F3990B0895881BFCCF982F6C
:102780008091250F813049F59430B9F0953030F4BF
:10279000913059F0923009F0AAC0AAC09530A9F042
:1027A000963009F0A4C083E208958091A610882392
:1027B00011F480E2089581E208958091E80E882363
:1027C00011F485E0089584E0089580918E0F8823A8
:1027D00011F487E0089588E008958091250F8630F0
:1027E000C9F4943009F486C0953030F4923061F029
:1027F000933009F07CC00AC0953021F0963009F082
:1028000076C006C089E008958AE0089583E10895BE
:1028100082E108958091250F8430C9F4943009F441
:1028200069C0953030F4923061F0933009F05FC0A8
:102830000AC0953021F0963009F059C006C08BE1EE
:1028400008958CE108958AE1089589E108958091C1
:10285000250F8530C1F4943009F44CC0953030F424
:10286000923059F0933009F042C009C0953019F008
:102870009630E9F506C085E1089586E1089588E17E
:10288000089587E108958091250F8330D1F4943025
:1028900051F0953018F4923051F507C0953039F069
:1028A000963029F506C08FE008958CE008958BE0FE
:1028B00008958091A510882311F480E1089582E2A3
:1028C00008958091250F873091F4933051F0943022
:1028D00018F4923061F407C0943061F0953039F407
:1028E00004C08EE108958FE108958DE10895089563
:1028F00082E0089584E10895AF92BF92CF92DF9273
:10290000EF92FF920F931F936E157F05800791073B
:1029100034F42E153F054007510764F42CC0E61629
:10292000F7060807190794F4A216B306C406D506DD
:102930003CF423C0A216B306C406D506BCF41FC0DF
:102940002A153B054C055D05C4F41BC06E157F05BB
:102950008007910791F42A153B054C055D058CF025
:10296000A216B306C406D50644F409C02A153B05D1
:102970004C055D0511F484E005C082E003C083E0EE
:1029800001C081E01F910F91FF90EF90DF90CF90F9
:10299000BF90AF900895EF92FF920F931F937B012A
:1029A0008C01662757FD6095762FCB01BA010E94F6
:1029B000DEB92091960F3091970F4091980F50916A
:1029C000990F0E94D4BAA80197010E9443B97B01D4
:1029D0008C0120E030E040E050E40E94D0BA87FF54
:1029E00003C061E070E004C0C801B7010E94ABB948
:1029F000CB011F910F91FF90EF9008956F927F92FE
:102A00008F929F92AF92BF92CF92DF92EF92FF92FE
:102A10000F931F93CF93DF937C015B01662757FDD4
:102A20006095762FCB01BA010E94DEB93B014C01C3
:102A30000027F7FC0095102FC801B7010E94DEB9EE
:102A40007B018C01CC24B7FCC094DC2CC601B50101
:102A50000E94DEB99B01AC01C801B7010E9443B9D5
:102A6000A40193010E94D4BA9B01AC01C401B3013B
:102A70000E94D7B87B018C010E94ABB9EB01BE016B
:102A8000882777FD8095982F0E94DEB99B01AC01C5
:102A9000C801B7010E94D7B820E030E040E05FE312
:102AA0000E94D0BA18160CF42196CE01DF91CF9176
:102AB0001F910F91FF90EF90DF90CF90BF90AF905C
:102AC0009F908F907F906F900895CF92DF92EF92BA
:102AD000FF920F931F93CF93DF93EC016B016881FB
:102AE00079818A819B8120912A0F30912B0F40910F
:102AF0002C0F50912D0F0E94D4BA688379838A835A
:102B00009B83F601608171818281938120912E0FD8
:102B100030912F0F4091300F5091310F0E94D4BA55
:102B20007B018C01F6016083718382839383209102
:102B3000D0123091D112C9018E978A35910580F457
:102B4000288139814A815B81D801C701B0588883C7
:102B50009983AA83BB83208331834283538329C013
:102B6000C901885890408A35910580F488819981FF
:102B7000AA81BB81B05888839983AA83BB83F6015D
:102B800080819181A281B381B0580FC0225E304014
:102B90002A35310570F488819981AA81BB81E88248
:102BA000F9820A831B83B058F60180839183A28344
:102BB000B383688179818A819B812091D21230917F
:102BC000D3124091D4125091D5120E94D8B8688384
:102BD00079838A839B83F6016081718182819381ED
:102BE0002091D6123091D7124091D8125091D9121B
:102BF0000E94D8B8F6016083718382839383DF914A
:102C0000CF911F910F91FF90EF90DF90CF9008959B
:102C10002F923F924F925F926F927F928F929F92EC
:102C2000AF92BF92CF92DF92EF92FF920F931F93DA
:102C30001B012C0139014A01E0909E0FF0909F0F7B
:102C40000091A00F1091A10FC801B701A801970131
:102C50000E94D8BB0E94DEB95B016C01C401B301C4
:102C6000A40193010E94D4BA9B01AC01C601B50135
:102C70000E94D7B85B016C01C201B101A2019101B0
:102C80000E94D4BA9B01AC01C601B5010E94D8B81C
:102C90005B016C01EE0CFF1C001F111FC801B70186
:102CA0000E94DEB99B01AC01C601B5010E9443B987
:102CB0001F910F91FF90EF90DF90CF90BF90AF905A
:102CC0009F908F907F906F905F904F903F902F904C
:102CD00008950F931F93CF93DF93242F2627A22FBE
:102CE000B0E0AF70B070AA0FBB1FAA0FBB1FC0E946
:102CF000D1E0AC0FBD1FFD010591159125913491D7
:102D0000E4E09695879577956795EA95D1F706273C
:102D100017272827392742954F70402750E04F70DA
:102D20005070440F551F440F551F4C0F5D1FFA0183
:102D300085919591A591B49144E036952795179585
:102D400007954A95D1F7082719272A273B27B80165
:102D5000C901DF91CF911F910F910895CF92DF921A
:102D6000EF92FF920F931F938130910509F032C2C9
:102D70006F5F7F4F09F029C388E491E160E072E062
:102D80000E940DB88BE89FE00E947C6E8FE89FE068
:102D900064E072E00E940DB88FE491E165E072E0BA
:102DA0000E940DB86091DC0E7091DD0E882777FDD2
:102DB0008095982F2091D60E3091D70E442737FD5D
:102DC0004095542F0E94D8BB0E94DEB97B018C0134
:102DD0006091D80E7091D90E8091DA0E9091DB0E31
:102DE000A80197010E9443B96093960F7093970FC3
:102DF0008093980F9093990FC801B7012091D80E36
:102E00003091D90E4091DA0E5091DB0E0E9443B9F9
:102E10007B018C0160939A0F70939B0F80939C0FA2
:102E200090939D0F6091260F7091270F882777FD53
:102E30008095982F0E94DEB9A80197010E94D4BA0C
:102E40000E94ABB960939E0F70939F0F8093A00F69
:102E50009093A10F6091280F7091290F882777FD1B
:102E60008095982F0E94DEB9A80197010E94D4BADC
:102E70000E94ABB96093A20F7093A30F8093A40F2D
:102E80009093A50F86E591E16EE072E00E940DB887
:102E90008DE591E160E172E00E940DB884E691E178
:102EA00064E172E00E940DB88BE691E16CE172E0A2
:102EB0000E940DB882E791E16FE472E00E940DB8C4
:102EC00089E791E16FE472E00E940DB880E891E13A
:102ED0006FE472E00E940DB887E891E16FE472E060
:102EE0000E940DB88EE891E16EE572E00E940DB887
:102EF00085E991E168E672E00E940DB88CE991E104
:102F00006FE672E00E940DB883EA91E167E772E034
:102F10000E940DB88AEA91E162E872E00E940DB861
:102F200081EB91E16EE871E10E94BBB886EB9FE016
:102F300064E072E00E940DB888EB91E168E872E00D
:102F40000E940DB88FEB91E16AE872E00E940DB823
:102F500086EC91E16FE872E00E940DB88DEC91E192
:102F600063E972E00E940DB884ED91E167E972E0D7
:102F70000E940DB88BED91E16BE972E00E940DB8F3
:102F800082EE91E16FE972E00E940DB889EE91E165
:102F900063EA72E00E940DB880EF91E167EA72E0A7
:102FA0000E940DB887EF91E16BEA72E00E940DB8C4
:102FB0008EEF91E16FEA72E00E940DB885E092E138
:102FC00063EB72E00E940DB88CE092E167EB72E077
:102FD0000E940DB883E192E16BEB72E00E940DB8A4
:102FE0008AE192E16FEB72E00E940DB881E292E11A
:102FF00063EC72E00E940DB888E292E167EC72E047
:103000000E940DB88FE292E16BEC72E00E940DB865
:1030100086E392E16FEC72E00E940DB88DE392E1DD
:1030200063ED72E00E940DB884E492E167ED72E016
:103030000E940DB88BE492E16BED72E00E940DB836
:1030400082E592E16FED72E00E940DB889E592E1B0
:1030500063EE72E00E940DB880E692E167EE72E0E6
:103060000E940DB887E692E16BEE72E00E940DB807
:103070008EE692E16FEE72E00E940DB885E792E174
:1030800063EF72E00E940DB88CE792E167EF72E0A7
:103090000E940DB883E892E16BEF72E00E940DB8D8
:1030A0008AE892E16FEF72E00E940DB881E992E147
:1030B00063E073E00E940DB888E992E167E073E095
:1030C0000E940DB88FE992E16BE073E00E940DB8A9
:1030D00086EA92E16FE073E00E940DB88DEA92E11A
:1030E00063E173E00E940DB884EB92E167E173E065
:1030F0000E940DB88BEB92E16BE173E00E940DB87A
:1031000082EC92E16FE173E00E940DB889EC92E1EC
:1031100063E273E00E940DB886EC9FE066E046E251
:1031200050E027E230E008E210E079E2E72EF12CEF
:10313000CC24DD240E9489A480EF9FE06BE04CE06A
:1031400022E103E1B2E0EB2E0E9426A682E290E1AA
:1031500064E072E00E940DB88CE290E164E072E0FD
:103160000E940DB8109238101092391010923C1035
:1031700010923E1082E090E0A0E0B0E080933F101B
:1031800090934010A0934110B093421010925610AB
:103190001092601010925F1085E79FE090935E1090
:1031A00080935D10109262108AE790E10E94A771EF
:1031B00088EA90E161E044E025E004E0A5E0EA2E41
:1031C0000E94B46C8CEE90E161E047E028E00E9440
:1031D000B46CFBC0892B09F0F8C06F5F7F4F09F01A
:1031E000F4C08AE790E10E94BA718CE290E10E94FB
:1031F000CDB882E290E10E94CDB889EC92E10E94C4
:10320000CDB882EC92E10E94CDB88BEB92E10E94A6
:10321000CDB884EB92E10E94CDB88DEA92E10E9494
:10322000CDB886EA92E10E94CDB88FE992E10E9482
:10323000CDB888E992E10E94CDB881E992E10E947F
:10324000CDB88AE892E10E94CDB883E892E10E946D
:10325000CDB88CE792E10E94CDB885E792E10E945B
:10326000CDB88EE692E10E94CDB887E692E10E9449
:10327000CDB880E692E10E94CDB889E592E10E9446
:10328000CDB882E592E10E94CDB88BE492E10E9434
:10329000CDB884E492E10E94CDB88DE392E10E9422
:1032A000CDB886E392E10E94CDB88FE292E10E9410
:1032B000CDB888E292E10E94CDB881E292E10E940D
:1032C000CDB88AE192E10E94CDB883E192E10E94FB
:1032D000CDB88CE092E10E94CDB885E092E10E94E9
:1032E000CDB88EEF91E10E94CDB887EF91E10E94B9
:1032F000CDB880EF91E10E94CDB889EE91E10E94B6
:10330000CDB882EE91E10E94CDB88BED91E10E94A3
:10331000CDB884ED91E10E94CDB88DEC91E10E9491
:10332000CDB886EC91E10E94CDB88FEB91E10E947F
:10333000CDB888EB91E10E94CDB886EB9FE00E946A
:10334000CDB881EB91E10E94CDB88AEA91E10E946B
:10335000CDB883EA91E10E94CDB88CE991E10E9459
:10336000CDB885E991E10E94CDB88EE891E10E9447
:10337000CDB887E891E10E94CDB880E891E10E9444
:10338000CDB889E791E10E94CDB882E791E10E9432
:10339000CDB88BE691E10E94CDB884E691E10E9420
:1033A000CDB88DE591E10E94CDB886E591E10E940E
:1033B000CDB88FE491E10E94CDB88FE89FE00E94E4
:1033C000CDB888E491E10E94CDB81F910F91FF9094
:1033D000EF90DF90CF90089580E090E06FEF7FEF67
:1033E000BDCC81E090E06FEF7FEFB8CCCF92DF9261
:1033F000EF92FF920F931F93CF93DF936C01EE2414
:10340000EA94FE2C8701C0E0D0E00BC0C601BE01EB
:103410000E946DB5482FC801B7015BDC7B018C01B0
:103420002196F60184819581C817D90778F3A80100
:1034300097012095309540955095B901CA01DF91CB
:10344000CF911F910F91FF90EF90DF90CF90089553
:103450000F931F9384E090E00E94500F8C010E9414
:10346000FA0F2DB73EB7201B310BC9011F910F91E9
:103470000895EEDF9C018091AA0F9091AB0F281761
:103480003907D1F03093AB0F2093AA0F8DEF97E15E
:1034900064E671E10E94A4B46091AA0F7091AB0F31
:1034A0008DEF97E14AE050E00E94C1B38DEF97E1C4
:1034B0006FEB71E10C94D6B408958DEF97E165E957
:1034C00071E10C94D6B48DEF97E16EE871E10C9444
:1034D000D6B4AF92BF92CF92DF92EF92FF920F934A
:1034E0001F937B018C01CA01B9010E94D4BA5B0110
:1034F0006C01C801B701A80197010E94D4BA9B01D1
:10350000AC01C601B5010E94D7B80E9441BB1F9112
:103510000F91FF90EF90DF90CF90BF90AF90089504
:103520006F927F928F929F92AF92BF92CF92DF92D3
:10353000EF92FF920F931F937B018C0169DB5B017C
:103540006C01A8019701C5DF3B014C01E090F80E2A
:10355000F090F90E0091FA0E1091FB0EC801B70120
:103560000E94DEB99B01AC01C601B5010E943CB9C5
:1035700087FD4AC08091000F9091010FA091020F2A
:10358000B091030FE80EF91E0A1F1B1FC801B701F7
:103590000E94DEB99B01AC01C601B5010E94D0BA00
:1035A000181694F1E090FC0EF090FD0E0091FE0EC6
:1035B0001091FF0EC801B7010E94DEB99B01AC015A
:1035C000C401B3010E943CB987FD1EC0DD24809177
:1035D000040F9091050FA091060FB091070FE80E10
:1035E000F91E0A1F1B1FC801B7010E94DEB99B010B
:1035F000AC01C401B3010E94D0BA181614F4DD2442
:10360000D39481E0D82601C0DD248D2D1F910F9128
:10361000FF90EF90DF90CF90BF90AF909F908F90F2
:103620007F906F900895AF92BF92CF92DF92EF920A
:10363000FF920F931F937B018C0159016A016091E6
:103640009E0F70919F0F8091A00F9091A10F0E94EB
:10365000DEB9A80197010E94D7B89B01AC010E9476
:10366000D4BA7B018C01C601B501A60195010E9467
:10367000D4BA9B01AC01C801B7010E94D8B80E941E
:1036800041BB1F910F91FF90EF90DF90CF90BF90C3
:10369000AF900895AF92BF92CF92DF92EF92FF92D8
:1036A0000F931F937B018C0159016A01A8019701B7
:1036B0000E94D4BA7B018C01C601B501A601950117
:1036C0000E94D4BA9B01AC01C801B7010E94D8B8CE
:1036D0000E9441BB1F910F91FF90EF90DF90CF9020
:1036E000BF90AF9008952F923F924F925F926F924A
:1036F0007F928F929F92AF92BF92CF92DF92EF9282
:10370000FF920F931F93DF93CF9300D00F92CDB70B
:10371000DEB769837A838B839C8359016A01170121
:103720002801611571058105910559F40F2EF0E00E
:10373000EF2EF0E0FF2EF0E00F2FF0E01F2FF02D26
:10374000A4C0CA01B9010E94D4BA7B018C01C60190
:10375000B50120E030E040E050E00E943CB9882311
:1037600024F417FB109517F91095C201B101A201BD
:1037700091010E94D8B83B014C01C801B701A401D6
:1037800093010E9443B97B018C0169817A818B810D
:103790009C810E94DEB99B01AC01C801B7010E9467
:1037A0003CB98823B4F5C601B50120E030E040E023
:1037B00050E00E943CB9882329F4C401B3010E945F
:1037C00041BB0DC0C201B101A60195010E9443B9E0
:1037D0009B01AC015F77C601B5010E94D8B87B019F
:1037E0008C01D090DE0EC090DF0EB090E00EA09065
:1037F000E10E2D2D3C2D4B2D5A2D0E94D0BA1816BE
:103800000CF043C08D2D9C2DAB2DBA2D7C018D016C
:103810003CC0C601B50120E030E040E050E00E942D
:103820003CB9882359F4C401B3010E9441BB7B0118
:103830008C0117FB109517F910950FC0C201B1014B
:10384000A60195010E9443B99B01AC015F77C601B7
:10385000B5010E94D7B87B018C018091DE0E90915A
:10386000DF0EA091E00EB091E10E5C016D01D7FA80
:10387000D094D7F8D094C801B701A60195010E9451
:103880003CB9882314F486017501B701C8010F9073
:103890000F900F900F90CF91DF911F910F91FF909C
:1038A000EF90DF90CF90BF90AF909F908F907F90E0
:1038B0006F905F904F903F902F9008958091E70E0A
:1038C0008823F1F18DEF97E16AEA71E10E94A4B4D7
:1038D00088EA90E10E9407682091DC0E3091DD0EAD
:1038E000442737FD4095542F0E944CBC8DEF97E143
:1038F000BA01A9012AE030E00E9471B38DEF97E18F
:1039000068EB71E10E94A4B48CEE90E10E9407681C
:103910002091DC0E3091DD0E442737FD4095542F69
:103920000E944CBC8DEF97E1BA01A9012AE030E07A
:103930000E9471B38DEF97E16FEB71E10C94D6B4F7
:103940000895EF92FF920F931F938091A60F90918D
:10395000A70FA091A80FB091A90F0097A105B105DD
:1039600009F03FC060919E0F70919F0F8091A00F52
:103970009091A10F0E94DEB97B018C016091A20F92
:103980007091A30F8091A40F9091A50F0E94DEB9B2
:103990009B01AC01C801B7017DDE20E030E040E0D2
:1039A0005FE30E94D8B80E94ABB96093A60F7093F2
:1039B000A70F8093A80F9093A90F8DEF97E167E26F
:1039C00073E00E94F0B34091A60F5091A70F609151
:1039D000A80F7091A90F8DEF97E12AE030E00E94C7
:1039E000AFB36091A60F7091A70F8091A80F90912F
:1039F000A90F1F910F91FF90EF9008958DEF97E120
:103A00006EE373E00C9493B48DEF97E168E272E09B
:103A10000E949DB210922B1008958F929F92AF92A8
:103A2000BF92CF92DF92EF92FF920F931F936C01A0
:103A30007B018DEF97E165E573E00E94F0B38DEFB8
:103A400097E1B6014AE050E00E94C1B38DEF97E1E3
:103A50006EE573E00E94F0B38DEF97E1B7014AE0A5
:103A600050E00E94D3B38DEF97E163E673E00E94CC
:103A7000F0B360919F107091A0108DEF97E14AE034
:103A800050E00E94D3B38DEF97E163E773E00E94AB
:103A9000F0B34091951050919610609197107091ED
:103AA00098108DEF97E12AE030E00E94AFB3460115
:103AB000AA2497FCA094BA2C80919F109091A010FA
:103AC000AA2797FDA095BA2F880E991EAA1EBB1E85
:103AD0000027F7FC0095102F20919510309196103B
:103AE0004091971050919810C801B7010E94D8BB1F
:103AF000860E971EA81EB91E8DEF97E16DE773E045
:103B00000E94F0B38DEF97E1B501A4012AE030E007
:103B10000E9471B38091A1109091A210A091A31066
:103B2000B091A41088159905AA05BB0514F41FEFE0
:103B300018C08AE790E1B501A4010E9441728AE7AA
:103B400090E10E945172182F8DEF97E166E873E0C3
:103B50000E94F0B38DEF97E1612F4AE050E00E94A0
:103B600055B3812F1F910F91FF90EF90DF90CF9071
:103B7000BF90AF909F908F9008950F931F93CF9316
:103B8000DF93EC018B018DEF97E165E973E00E9413
:103B9000F0B38DEF97E1BE014AE050E00E94C1B35F
:103BA0008DEF97E168E973E00E94F0B38DEF97E144
:103BB000B8014AE050E00E94D3B38091301190E008
:103BC000C817D9079CF08091321190E08C179D079F
:103BD0006CF08091311190E0081719073CF080914A
:103BE000331190E0801791070CF083C0809134115D
:103BF00090E0C817D907A4F08091361190E08C1797
:103C00009D0774F08091351190E00817190744F072
:103C10008091331190E08017910714F082E06AC020
:103C20008091381190E0C817D907A4F080913A111B
:103C300090E08C179D0774F08091391190E008177F
:103C4000190744F080913B1190E08017910714F020
:103C500083E050C080913C1190E0C817D907A4F0D0
:103C600080913E1190E08C179D0774F080913D117A
:103C700090E00817190744F080913F1190E08017F9
:103C8000910714F084E036C08091401190E0C8178D
:103C9000D907A4F08091421190E08C179D0774F031
:103CA0008091411190E00817190744F08091431169
:103CB00090E08017910714F085E01CC080914411BA
:103CC00090E0C817D907A4F08091461190E08C17B6
:103CD0009D0774F08091451190E00817190744F092
:103CE0008091471190E08017910714F086E002C0A0
:103CF00001C081E0DF91CF911F910F9108956F92E4
:103D00007F928F929F92AF92BF92CF92DF92EF926B
:103D1000FF920F931F93DF93CF93CDB7DEB7A39797
:103D20000FB6F894DEBF0FBECDBF6DB67EB68AE784
:103D300090E140E050E060E070E00E9441727E015E
:103D40000894E11CF11CC7016DE973E00E940DB8F5
:103D50008AE790E10E945172182FC70160E070E07D
:103D60000E947EB5FC0110838AE790E10E945172A7
:103D7000182FC70161E070E00E947EB5FC0110833E
:103D8000C70160EA73E00E94A6B6882399F48DEF1C
:103D900097E163EA73E00E94F0B38DEF97E1B7011A
:103DA0000E94A4B48DEF97E161EC73E00E9493B49C
:103DB00010E083C18DEF97E16CED73E00E9493B446
:103DC0008AE790E10E9451728E01085F1F4FC8017F
:103DD00064E072E00E940DB88AE790E10E9451729F
:103DE000E82E8FE0C82ED12CCC0EDD1EF02E012F38
:103DF00021C083E2E81641F48AE790E10E94517203
:103E0000E82E9AE0E916C1F7C6016F2D702F0E94C7
:103E1000C4B8C6016E2D0E94CBB7BC018F2D902F68
:103E20000E94A6B8C6010E94D2B88AE790E10E941B
:103E30005172E82E8AE0E81619F090E2E916C9F608
:103E40008DEF97E162E074E00E94F0B318E0E12E9C
:103E5000F12CEC0EFD1E8DEF97E1B7010E94D6B458
:103E60004C855D854F5F5F4F8DB79EB7841B950B6B
:103E70000FB6F8949EBF0FBE8DBF0DB71EB70F5F74
:103E80001F4F902E812EB02EA12EC701B80120E029
:103E900030E00E9457B6C8010E948211AA2797FD00
:103EA000A095BA2F8093951090939610A093971099
:103EB000B09398100A97A105B10544F48DEF97E1EE
:103EC00060ED71E00E949DB210E0F3C0C70164E0B4
:103ED00072E00E943FB88AE790E10E945172182F69
:103EE000B6E1CB2ED12CCC0EDD1EC701FE2C092F46
:103EF0001FC0133239F48AE790E10E945172182FE3
:103F00008A30C9F7C6016F2D702F0E94C4B8C60150
:103F1000612F0E94CBB7BC018F2D902F0E94A6B8B5
:103F2000C6010E94D2B88AE790E10E945172182F10
:103F30001A30F9F68DEF97E16DE074E00E94F0B36E
:103F4000A8E0CA2ED12CCC0EDD1E8DEF97E1B60174
:103F50000E94D6B44C855D854F5F5F4FC6016B2DC7
:103F60007A2D20E030E00E9457B6892D982D0E94CE
:103F70008211AA2797FDA095BA2F8093991090934C
:103F80009A10A0939B10B0939C10BC01CD010E948D
:103F9000DEB97B018C016091951070919610809133
:103FA0009710909198100E94DEB99B01AC01C80156
:103FB000B7010E9443B96093140F7093150F80935B
:103FC000160F9093170F8DEF97E169E174E00E944F
:103FD000F0B34091140F5091150F6091160F70912E
:103FE000170F8DEF97E122E030E00E9482B4C60106
:103FF00064E072E00E943FB88AE790E10E9451724B
:10400000182F0D2DFDE1EF2EF12CEC0EFD1E16C02C
:10401000C7016C2D702F0E94C4B8C701612F0E9488
:10402000CBB7BC018C2D902F0E94A6B8C7010E946F
:10403000D2B88AE790E10E945172182F1A3041F7E6
:104040008DEF97E16BE274E00E94F0B38DEF97E1A2
:104050006C2D702F0E94D6B44C855D854F5F5F4FED
:104060008C2D902F6B2D7A2D20E030E00E9457B6DA
:10407000892D982D0E94821190939E1080939D10FF
:104080008AE790E10E94FC717093A01060939F10EA
:104090008DEF97E16FE374E00E94F0B360919F10A1
:1040A0007091A0108DEF97E14AE050E00E94D3B3E9
:1040B00011E0CE0108960E94CDB8CE0101960E9473
:1040C000CDB8812F0FB6F8947EBE0FBE6DBEA396FD
:1040D0000FB6F894DEBF0FBECDBFCF91DF911F9119
:1040E0000F91FF90EF90DF90CF90BF90AF909F9097
:1040F0008F907F906F900895EF92FF920F931F9390
:10410000DF93CF93CDB7DEB7FC01EDB6FEB64481A9
:1041100055814F5F5F4F8DB79EB7841B950B0FB6D0
:10412000F8949EBF0FBE8DBF0DB71EB70F5F1F4F18
:10413000CF01B80120E030E00E9457B6C8010E94CC
:1041400082110FB6F894FEBE0FBEEDBECF91DF9187
:104150001F910F91FF90EF900895EF92FF920F93B0
:104160001F93DF93CF93CDB7DEB727970FB6F894A1
:10417000DEBF0FBECDBF8E010F5F1F4FC80162E7CC
:1041800071E10E94BBB8C801B7DF7C01C8010E9481
:10419000CDB8EF2819F4109221100EC0809129108B
:1041A000882321F081E08093211006C08DEF97E1F4
:1041B0006DE474E00E9493B427960FB6F894DEBFC6
:1041C0000FBECDBFCF91DF911F910F91FF90EF9068
:1041D00008950F931F93DF93CF93CDB7DEB72E973C
:1041E0000FB6F894DEBF0FBECDBF8E010F5F1F4F1D
:1041F000C80162E771E10E94BBB8C8017DDF9093FE
:10420000350F8093340FC8010E94CDB88E01085F2E
:104210001F4FC80169E771E10E94BBB8C8016CDF9C
:104220009093330F8093320FC8010E94CDB82E9621
:104230000FB6F894DEBF0FBECDBFCF91DF911F91B7
:104240000F910895EF92FF920F931F93DF93CF93F7
:10425000CDB7DEB76B970FB6F894DEBF0FBECDBFFC
:10426000FC01EDB6FEB6448155814F5F5F4F8DB7BF
:104270009EB7841B950B0FB6F8949EBF0FBE8DBFE3
:104280000DB71EB70F5F1F4FCF01B80120E030E020
:104290000E9457B6CE01019662E773E1A80121E0C2
:1042A0000E944A758B819C8190937D1080937C1035
:1042B0008D819E81AF81B88580937E1090937F1011
:1042C000A0938010B093811089859A85AB85BC85B9
:1042D0008093821090938310A0938410B0938510E4
:1042E000A6E8B0E1FE013D968DE001900D9281506F
:1042F000E1F78A8D9B8D9093941080939310CE015B
:1043000001960E94BA718AE790E10E942272882386
:1043100029F48DEF97E161E774E007C0F0DC8823B2
:1043200041F48DEF97E162E874E00E9493B480E07D
:104330000DC08AE790E10E940F726093A110709304
:10434000A2108093A3109093A41081E00FB6F8946C
:10435000FEBE0FBEEDBE6B960FB6F894DEBF0FBE6D
:10436000CDBFCF91DF911F910F91FF90EF900895F6
:10437000AF92BF92CF92DF92EF92FF920F931F9373
:10438000DF93CF93CDB7DEB76B970FB6F894DEBF50
:104390000FBECDBF6C01ADB6BEB64091301050918E
:1043A00031104F5F5F4F8DB79EB7841B950B0FB6D3
:1043B000F8949EBF0FBE8DBF0DB71EB70F5F1F4F86
:1043C0008CE290E1B80120E030E00E9457B67E0117
:1043D0000894E11CF11CC70162E773E1A80123E125
:1043E0000E944A75C7010E9422728823D1F08DEF86
:1043F00097E16AE874E00E94F0B38DEF97E16CE218
:1044000070E10E94D6B4C701B6010E94D6B4C701BC
:104410000E942F728DEF97E16BE974E00E9493B4D4
:104420000CC08DEF97E161EA74E00E94F0B38DEF6C
:1044300097E16CE270E10E94D6B4CE0101960E9431
:10444000BA710FB6F894BEBE0FBEADBE6B960FB676
:10445000F894DEBF0FBECDBFCF91DF911F910F91BA
:10446000FF90EF90DF90CF90BF90AF900895EF92C4
:10447000FF920F931F9385E361E00E9499AC82E75E
:1044800093E165E30E946A76882329F48DEF97E132
:1044900060EB74E06AC08DEF97E16CEC74E00E9411
:1044A00093B48DEF97E16EED74E00E9493B483E3D3
:1044B00090E161E045E30E94C0788823B9F48DEF74
:1044C00097E166EF74E00E9493B48DEF97E16EE19F
:1044D00075E00E9493B48DEF97E167E375E00E9469
:1044E00093B48DEF97E161E575E03FC08DEF97E103
:1044F00065E975E00E9493B48DEF97E16EEB75E08E
:104500000E94F0B380913E10823049F0833061F018
:10451000813079F48DEF97E16BEC75E00EC08DEF93
:1045200097E16FEC75E009C08DEF97E163ED75E001
:1045300004C08DEF97E168ED75E00E9493B48FE3BE
:1045400090E163E370E141E00E94EA83882381F413
:104550008FE390E163E370E140E00E94EA83882307
:1045600039F48DEF97E160EE75E00E9493B474C06A
:104570008DEF97E16AE276E00E94F0B38DEF97E16C
:10458000609156104AE050E00E9455B38DEF97E1DC
:104590000E947DB22091431030E040E050E06091F5
:1045A00048107091491080914A1090914B10E9E0A9
:1045B000660F771F881F991FEA95D1F70E94D8BB15
:1045C0007B018C018DEF97E16EE376E00E94F0B302
:1045D0008DEF97E1B801A7012AE030E00E9433B3E4
:1045E0008DEF97E164E576E00E94F0B32AE016953E
:1045F0000795F794E7942A95D1F78DEF97E1B801E5
:10460000A7012AE030E00E9433B38DEF97E16BE61B
:1046100076E00E94F0B39AE016950795F794E79438
:104620009A95D1F78DEF97E1B801A7012AE030E024
:104630000E9433B38DEF97E162E876E00E9493B475
:104640008DE590E16FE370E10E94FF7D8DE590E1E3
:1046500067E040E00E94F97E1F910F91FF90EF907C
:104660000895AF92BF92CF92DF92EF92FF920F9395
:104670001F9388EA90E10E94456E8CEE90E10E94C3
:10468000456E88EA90E10E94F76761157105810522
:10469000910509F048C06091F80E7091F90E809173
:1046A000FA0E9091FB0E2091000F3091010F409176
:1046B000020F5091030F260F371F481F591F0E94EA
:1046C00050B55B016C016091FC0E7091FD0E809104
:1046D000FE0E9091FF0E2091040F3091050F409136
:1046E000060F5091070F260F371F481F591F0E94B2
:1046F00050B57B018C01C601B5010E94DEB95B019A
:104700006C01C801B7010E94DEB99B01AC01C60172
:10471000B5010E944A1B0E94ABB9AB01BC0188EAFB
:1047200090E10E948C698CEE90E10E94F767611520
:1047300071058105910509F048C06091F80E7091EE
:10474000F90E8091FA0E9091FB0E2091000F30919E
:10475000010F4091020F5091030F260F371F481F82
:10476000591F0E9450B55B016C016091FC0E709165
:10477000FD0E8091FE0E9091FF0E2091040F30915E
:10478000050F4091060F5091070F260F371F481F46
:10479000591F0E9450B57B018C01C601B5010E94D2
:1047A000DEB95B016C01C801B7010E94DEB99B0153
:1047B000AC01C601B5010E94131B0E94ABB9AB014D
:1047C000BC018CEE90E10E948C691F910F91FF90CB
:1047D000EF90DF90CF90BF90AF900895EF92FF924F
:1047E0000F931F93CF93DF93C0E0D0E08DEF97E15D
:1047F0006CEB76E00E94F0B38DEF97E1BE014AE0EA
:1048000050E00E94D3B388EA90E10E94F7676115F7
:1048100071058105910509F469C08CEE90E10E9453
:10482000F767611571058105910509F45FC088EA94
:1048300090E10E94456E8CEE90E10E94456EE3CFC0
:104840006EEF7FEF8FEF9FEF23E030E040E050E02E
:104850000E9450B57B018C01A701662757FD60952A
:10486000762F88EA90E10E949D698DEF97E165ECD3
:1048700076E00E94F0B38DEF97E1B7014AE050E097
:104880000E94D3B38CEE90E10E94F7676115710529
:104890008105910511F56EEF7FEF8FEF9FEF23E01C
:1048A00030E040E050E00E9450B57B018C01A70150
:1048B000662757FD6095762F8CEE90E10E949D69EA
:1048C0008DEF97E16BED76E00E94F0B38DEF97E10D
:1048D000B7014AE050E00E94D3B30E945E1C2196CB
:1048E00083E0C83ED80709F081CF0AC088EA90E18A
:1048F0000E94F767611571058105910519F6A0CF32
:10490000DF91CF911F910F91FF90EF900895AF929B
:10491000BF92CF92DF92EF92FF920F931F93CF93AC
:10492000DF93EC015B016A018BE89FE069E070E0D6
:104930000E941970CA15DB059CF476010027F7FC6C
:104940000095102F8BE89FE0BE010E94026FC80106
:10495000B7010E94D4AB2196AC16BD069CF712C0DD
:1049600076010027F7FC0095102F8BE89FE0BE0131
:104970000E94026FC801B7010E94D4AB2197CA15EB
:10498000DB059CF78BE89FE00E94966EDF91CF914C
:104990001F910F91FF90EF90DF90CF90BF90AF905D
:1049A0000895EF92FF920F931F93DF93CF93CDB7AC
:1049B000DEB727970FB6F894DEBF0FBECDBF80914C
:1049C000AC0F9091AD0F20918E0F029714F122231E
:1049D00029F0E090DA12F090DB1204C0E0903B0F77
:1049E000F0903C0F8E010F5F1F4FC80162E771E12D
:1049F0000E94BBB8C80180DB90933C0F80933B0FB3
:104A0000C8010E94CDB860913B0F70913C0FC70167
:104A10000AC0213059F460913B0F70913C0F809196
:104A2000DA129091DB1243E050E071DF10928E0FAA
:104A300027960FB6F894DEBF0FBECDBFCF91DF91A2
:104A40001F910F91FF90EF900895EF92FF920F93B7
:104A50001F93DF93CF93CDB7DEB727970FB6F894A8
:104A6000DEBF0FBECDBF8091AC0F9091AD0F2091F6
:104A70008E0F029714F1222329F0E090DA12F090C1
:104A8000DB1204C0E0903B0FF0903C0F8E010F5FF3
:104A90001F4FC80162E771E10E94BBB8C8012CDB5F
:104AA0009093DB128093DA12C8010E94CDB8609116
:104AB000DA127091DB12C7010AC0222359F4609107
:104AC000DA127091DB1280913B0F90913C0F43E022
:104AD00050E01DDF81E080938E0F27960FB6F8948B
:104AE000DEBF0FBECDBFCF91DF911F910F91FF9021
:104AF000EF900895EF92FF920F931F93182F06ECFB
:104B0000E02E0FE0F02EC70162E344EB22E30E94A7
:104B1000D58B212F30E080E391E1F901EE0FFF1FEB
:104B2000E80FF91F608141812F5F3F4FF901EE0FC0
:104B3000FF1FE80FF91F20810181C70170E050E0DD
:104B400030E010E00E94908CC70162E344EB22E366
:104B50000E94DA8BC7016FEF4FEF2FEF0E94D58BCA
:104B60001F910F91FF90EF9008958F929F92AF92B7
:104B7000BF92CF92DF92EF92FF920F931F93DF933A
:104B8000CF93CDB7DEB727970FB6F894DEBF0FBE31
:104B9000CDBF4C0196ECC92E9FE0D92EC60160E036
:104BA00040E020E00E94D58B4091331150E080E33B
:104BB000A82E81E1B82EF50160818A01085E1F4FA1
:104BC000C60170E0465F5F4F2CED30E00E94908C94
:104BD000C6016FEF4FEF2FEF0E94D58BC60160E04B
:104BE00040E020E00E94DA8B7E010894E11CF11C79
:104BF000C701B4010E94BBB8F50140812091331177
:104C000030E0265F3F4FC601B70150E000E010E002
:104C10000E948093C7010E94CDB827960FB6F894E2
:104C2000DEBF0FBECDBFCF91DF911F910F91FF90DF
:104C3000EF90DF90CF90BF90AF909F908F900895AE
:104C40002F923F924F925F926F927F928F929F929C
:104C5000AF92BF92CF92DF92EF92FF920F931F938A
:104C6000DF93CF93CDB7DEB7E0970FB6F894DEBFF2
:104C70000FBECDBF4C015B0158AB4FA78DEF97E145
:104C800061EF76E00E94F0B38DEF97E1B5010E94ED
:104C9000D6B48DEF97E16CE077E00E9493B4109268
:104CA00063101092641010926510109266101092AA
:104CB0006710109268101092691010926A108E019D
:104CC0000F5F1F4FC8016EE177E00E940DB8C5016C
:104CD00064E072E00E94A6B6882341F4C501B801E1
:104CE0000E94FCB6882311F477246CC07724739457
:104CF00069C08F85882309F47DC0853E09F472C0A0
:104D00008E3209F46FC08A8D83FD6CC0C6016EE1DE
:104D100077E00E940DB8710100E010E0D7018C919E
:104D20008032C9F0083041F4C60168E070E00E94AA
:104D30007EB5FC01608202C0083028F0B8016F5FC8
:104D40007F4FC60102C0C601B8010E947EB5FC01BA
:104D5000D7018C9180830F5F1F4F0894E11CF11CD9
:104D60000B301105D9F6EFA5F8A91E161F069CF405
:104D7000772041F08DEF97E1B6010E94D6B4C401CF
:104D8000B60111C0C601B5010E94FCB68823B1F07E
:104D90007724739413C0C601B5010E94FCB6882322
:104DA00049F0C401B2010E94BBB8CE0108960E942E
:104DB000CDB824C0C201B6010E94A6B8C6010E94A7
:104DC000CDB810C04FE0242E312C2C0E3D1E38E003
:104DD000C32ED12CCC0EDD1E2EE2622E2E010894A5
:104DE000411C511C8DE590E1B1010E94217D1816F6
:104DF0000CF47FCFC401B5010E94BBB8CE0101966F
:104E00000E94CDB8C401E0960FB6F894DEBF0FBE85
:104E1000CDBFCF91DF911F910F91FF90EF90DF9069
:104E2000CF90BF90AF909F908F907F906F905F904A
:104E30004F903F902F900895EF92FF920F931F9302
:104E4000DF93CF93CDB7DEB727970FB6F894DEBFC9
:104E50000FBECDBF86EC9FE060E040E020E00E9406
:104E6000D58B4091331150E0609130118A01085E7A
:104E70001F4F86EC9FE070E0465F5F4F2CED30E007
:104E80000E94908C86EC9FE06FEF4FEF2FEF0E9417
:104E9000D58B86EC9FE060E040E020E00E94DA8B5A
:104EA0008CE290E164E072E00E94A6B6882341F4AF
:104EB0008CE290E16EE177E00E94A6B6882389F04B
:104EC000409130112091331130E0265F3F4F86EC46
:104ED0009FE06BE277E050E000E010E00E94359048
:104EE0001BC07E010894E11CF11CC7016CE270E15B
:104EF0000E94BBB8409130112091331130E0265F01
:104F00003F4F86EC9FE0B70150E000E010E00E94C8
:104F10008093C7010E94CDB827960FB6F894DEBFE4
:104F20000FBECDBFCF91DF911F910F91FF90EF90FA
:104F300008950F931F9390E0FC013197E432F1053F
:104F400008F0A7C5EE58FF4FEE0FFF1F0590F49134
:104F5000E02D199480E0CEDD8091230F869590E0BE
:104F60004091301150E04A505040480F591F209155
:104F7000311130E02C503040280F391F86EC9FE073
:104F800060E377E000E010E00E9435902091230F6D
:104F9000269530E04091301150E04E505040420F85
:104FA000531F80913111280F311D86EC9FE064E37F
:104FB00077E06DC580E09EDD8091230F869590E0BF
:104FC0004091301150E046515040480F591F2091F8
:104FD000311130E02C503040280F391F86EC9FE013
:104FE00069E377E000E010E00E9435902091230F04
:104FF000269530E04091301150E046505040420F2D
:10500000531F80913111280F311D86EC9FE060E421
:1050100077E03DC580E06EDD8091230F869590E0BE
:105020004091301150E046515040480F591F209197
:10503000311130E02C503040280F391F86EC9FE0B2
:1050400069E377E000E010E00E9435902091230FA3
:10505000269530E04091301150E04A505040420FC8
:10506000531F80913111280F311D86EC9FE063E4BE
:1050700077E00DC582E03EDD8091230F869590E0BC
:105080004091341150E04E505040480F591F20912C
:10509000351130E022513040280F391F86EC9FE057
:1050A00067E477E000E010E00E9435908091230FE4
:1050B000869590E04091341150E04E505040480F9A
:1050C000591F2091351130E026503040280F391FEC
:1050D00086EC9FE06CE477E00E9435908091230F8E
:1050E000869590E04091341150E046505040480F72
:1050F000591F2091351130E02A5F3F4F280F391F8B
:1051000086EC9FE061E577E0C2C484E0F3DC809147
:10511000230F869590E04091381150E04E5050405A
:10512000480F591F2091391130E026503040280F88
:10513000391F86EC9FE064E577E048C384E0DADC61
:105140008091230F869590E04091381150E04251B4
:105150005040480F591F2091391130E02C503040F9
:10516000280F391F86EC9FE069E577E000E010E04A
:105170000E9435902091230F269530E04091381100
:1051800050E042515040420F531F80913911280F77
:10519000311D86EC9FE06FE577E079C486E0AADCFC
:1051A0008091230F869590E040913C1150E0425150
:1051B0005040480F591F20913D1130E0265030409B
:1051C000280F391F86EC9FE065E677E0FFC286E096
:1051D00091DC8091230F869590E040913C1150E046
:1051E00046515040480F591F20913D1130E0265044
:1051F0003040280F391F86EC9FE06BE677E0E6C26F
:1052000084E078DC8091230F869590E040913811FE
:1052100050E042515040480F591F2091391130E061
:1052200026503040280F391F86EC9FE062E777E078
:10523000CDC288E05FDC8091230F869590E040919D
:10524000401150E04A505040480F591F20914111E1
:1052500030E02C503040280F391F86EC9FE068E783
:1052600077E000E010E00E9435902091230F269512
:1052700030E04091401150E046505040420F531FE3
:1052800080914111280F311D86EC9FE06CE777E09B
:10529000FEC388E02FDC8091230F869590E040913B
:1052A000401150E04A505040480F591F2091411181
:1052B00030E02C503040280F391F86EC9FE068E723
:1052C00077E000E010E00E9435902091230F2695B2
:1052D00030E04091401150E04E505040420F531F7B
:1052E00080914111280F311D86EC9FE06FE777E038
:1052F000CEC382E0FFDB8091230F869590E0409142
:10530000341150E04C505040480F591F2091351136
:1053100030E02C503040280F391F86EC9FE064E8C5
:1053200077E000E010E00E9435902091230F269551
:1053300030E04091341150E04C505040420F531F28
:105340008091351129C088E0D5DB8091230F8695A7
:1053500090E04091401150E04C505040480F591F90
:105360002091411130E02C503040280F391F86EC3D
:105370009FE06EE877E000E010E00E943590209119
:10538000230F269530E04091401150E04C505040A2
:10539000420F531F80914111280F311D78C086E0C4
:1053A000A9DB8091230F869590E040913C1150E05D
:1053B0004E505040480F591F20913D1130E026506B
:1053C0003040280F391F86EC9FE063E977E0FEC18B
:1053D0008AE090DB8091230F869590E04091441104
:1053E00050E04E505040480F591F2091451130E079
:1053F00022513040280F391F86EC9FE067E477E0A8
:1054000018C08AE077DB8091230F869590E0409169
:10541000441150E04E505040480F591F2091451103
:1054200030E022513040280F391F86EC9FE06DE9B3
:1054300077E000E010E00E9435908091230F869580
:1054400090E04091441150E04E505040480F591F99
:105450002091451130E026503040280F391F86EC4E
:105460009FE068E977E00E9435908091230F869550
:1054700090E04091441150E04E505040480F591F69
:105480002091451130E02A5F3F4F280F391F86ECED
:105490009FE069E877E0FBC28AE02CDB8091230F74
:1054A000869590E04091441150E04E505040480F96
:1054B000591F2091451130E02C503040280F391FE2
:1054C00086EC9FE064E577E000E010E00E94359014
:1054D0002091230F269530E04091441150E04A502E
:1054E0005040420F531F80914511280F311D86EC0B
:1054F0009FE062EA77E0CBC282E0FCDA8091230F82
:10550000869590E04091341150E04A505040480F49
:10551000591F2091351130E02C503040280F391F91
:1055200086EC9FE066EA77E000E010E00E943590AC
:105530002091230F269530E04091341150E04251E4
:105540005040420F531F80913511B7C188E0D2DA25
:105550008091230F869590E04091401150E04A5091
:105560005040480F591F2091411130E02C503040DD
:10557000280F391F86EC9FE060EB77E08DC184E057
:10558000B9DA8091230F869590E04091381150E070
:105590004A505040480F591F2091391130E02C508B
:1055A0003040280F391F86EC9FE066EA77E000E084
:1055B00010E00E9435902091230F269530E0409115
:1055C000381150E042515040420F531F8091391121
:1055D00029C08AE08FDA8091230F869590E0409170
:1055E000441150E04A505040480F591F2091451136
:1055F00030E02C503040280F391F86EC9FE060EBE4
:1056000077E000E010E00E9435902091230F26956E
:1056100030E04091441150E042515040420F531F3E
:1056200080914511280F311D86EC9FE064EB77E0F7
:105630002EC282E05FDA8091230F869590E0409140
:10564000341150E04A505040480F591F20913511F5
:1056500030E02C503040280F391F86EC9FE066EA7E
:1056600077E000E010E00E9435902091230F26950E
:1056700030E04091341150E040515040420F531FF0
:105680008091351129C088E035DA8091230F869505
:1056900090E04091401150E04A505040480F591F4F
:1056A0002091411130E02C503040280F391F86ECFA
:1056B0009FE060EB77E000E010E00E9435902091E1
:1056C000230F269530E04091401150E0405150406A
:1056D000420F531F80914111280F311D86EC9FE02E
:1056E0006AEB77E0D4C184E005DA8091230F8695D8
:1056F00090E04091381150E04A505040480F591FF7
:105700002091391130E022513040280F391F86ECAA
:105710009FE066EA77E075C08AE0ECD98091230FBC
:10572000869590E04091441150E04A505040480F17
:10573000591F2091451130E022513040280F391F68
:1057400086EC9FE060EB77E000E010E00E9435908F
:105750008091230F869590E04091441150E04A508B
:105760005040480F591F2091451130E026503040DD
:10577000280F391F86EC9FE068E777E00E9435909C
:105780008091230F869590E04091441150E04E5057
:105790005040480F591F209145115CC086E0AAD99E
:1057A0008091230F869590E040913C1150E042514A
:1057B0005040480F591F20913D1130E02650304095
:1057C000280F391F86EC9FE064EC77E000E010E0E2
:1057D0005EC184E08FD98091230F869590E040913F
:1057E000381150E04A505040480F591F209139114C
:1057F00030E022513040280F391F86EC9FE069ECE1
:1058000077E000E010E00E9435908091230F8695AC
:1058100090E04091381150E04A505040480F591FD5
:105820002091391130E026503040280F391F86EC86
:105830009FE068E777E00E9435908091230F86957E
:1058400090E04091381150E04E505040480F591FA1
:105850002091391130E02A5F3F4F280F391F86EC25
:105860009FE06FEB77E013C188E044D98091230F6C
:10587000869590E04091401150E04A505040480FCA
:10588000591F2091411130E02C503040280F391F12
:1058900086EC9FE069EC77E000E010E00E94359034
:1058A0002091230F269530E04091401150E0425165
:1058B0005040420F531F80914111280F311D86EC3B
:1058C0009FE06AEA77E0E3C082E014D98091230F79
:1058D000869590E04091341150E04A505040480F76
:1058E000591F2091351130E02C503040280F391FBE
:1058F00086EC9FE069EC77E000E010E00E943590D4
:105900002091230F269530E04091341150E04A5009
:105910005040420F531F80913511280F311D86ECE6
:105920009FE06DEC77E0B3C082E0E4D88091230F74
:10593000869590E04091341150E04A505040480F15
:10594000591F2091351130E02C503040280F391F5D
:1059500086EC9FE066EA77E000E010E00E94359078
:105960002091230F269530E04091341150E04A50A9
:105970005040420F531F8091351129C088E0BAD89A
:105980008091230F869590E04091401150E04A505D
:105990005040480F591F2091411130E02C503040A9
:1059A000280F391F86EC9FE060EB77E000E010E005
:1059B0000E9435902091230F269530E040914011B0
:1059C00050E04A505040420F531F80914111280F20
:1059D000311D86EC9FE061ED77E059C084E08AD804
:1059E0008091230F869590E04091381150E04A5005
:1059F0005040480F591F2091391130E02C50304051
:105A0000280F391F86EC9FE066EA77E000E010E09F
:105A10000E9435902091230F269530E04091381157
:105A200050E04A505040420F531F8091391129C015
:105A30008AE060D88091230F869590E040914411D0
:105A400050E04A505040480F591F2091451130E016
:105A50002C503040280F391F86EC9FE060EB77E038
:105A600000E010E00E9435902091230F269530E051
:105A70004091441150E04A505040420F531F8091D2
:105A80004511280F311D86EC9FE065ED77E00E94FF
:105A900035901F910F9108956F927F928F929F92F0
:105AA000AF92BF92CF92DF92EF92FF920F931F932C
:105AB0006C015B0139014A01F6ECEF2EFFE0FF2E8D
:105AC000C70160E040E020E00E94D58B8091230F69
:105AD0009601280F311D85010C5E1F4FC701B601CD
