:100000000C94F60F0C9403BB0C9434BB0C9465BB9E
:100010000C9496BB0C94C7BB0C94F8BB0C9429BCF5
:100020000C945ABC0C9423100C9423100C942310A1
:100030000C9423100C9423100C9423100C94231074
:100040000C9423100C9417760C9423100C9423100A
:100050000C9423100C9423100C9423100C948BBC40
:100060000C9423100C94E1BE0C9425C00C94231026
:100070000C9423100C9423100C9423100C94231034
:100080000C94EA750C9423100C9423100C942310F8
:100090000C9421BF0C9464C00C9423100C94231076
:1000A0000C9423100C9423100C94BD750C94231005
:1000B0000C9423100C9423100C9423100C94907522
:1000C0000C9423100C9423100C9423100C9461BFF7
:1000D0000C94A3C00C9423100C94A1BF0C94E2C008
:1000E0000C9423105329F229432A932AAE2AC92AB1
:1000F000E42A192B972C682C7D2B4E2B812F812FD6
:10010000AC2BC72B812FE12CB22CDE2DE52EB62E89
:100110004A2F1A2F952D7A2D452D162D4C2EFB2D5D
:10012000812E8829BD29E22B332C5E2A0E443B47C1
:10013000114415443B471A4422442A4457440B4671
:1001400033463B473B475B46BE453B478644B3444B
:1001500072468346AE46DC460747E2440A455245AE
:100160007A456C466A466E4606440A44FC4570462B
:100170003547E89208932F93AC93AC93AC93459397
:10018000C793E892C7936893C793779377939593B0
:1001900095932F93AC93AC932F937793C793F59C40
:1001A000919EB29FA6A0E3A1E3A129A391A4AAA92D
:1001B0009FA503A770A737AB15ACF2ADF2ADB29F08
:1001C000F7AEF7AEB29FE8AC54B0BEB16FB1BEB1FE
:1001D000CBB1CBB1BEB14EB15BB16FB17CB189B126
:1001E000BEB19AB19FB1CBB1BEB1ACB1CBB1BEB1D2
:1001F000CBB19FB1DDB18DB33EB38DB39AB39AB39A
:100200008DB31DB32AB33EB34BB358B38DB369B3AB
:100210006EB39AB38DB37BB39AB38DB39AB36EB307
:10022000ACB305A84CCDB2D44EB93836A9020C50A7
:10023000B9918688083CA6AAAA2ABE000000803F81
:10024000000000006410B71DC8206E3BAC30D926FA
:100250009041DC76F4516B6B5861B24D3C710550A6
:100260002083B8ED44930FF0E8A3D6D68CB361CBCE
:10027000B0C2649BD4D2D38678E20AA01CF2BDBD82
:1002800050424D20696D616765206D757374206201
:1002900065206174206C6561737420313020706951
:1002A00078656C7320776964652E002C206D617809
:1002B0002064656E736974793A20002C2070656E35
:1002C0002077696474683A200050656E77696474B9
:1002D00068207465737420004368616E67696E6797
:1002E000206261636B20746F206C697665206D6F8E
:1002F00064652E0046696C652072656D6F76656475
:100300002E0046696C6520616C72656164792065B8
:1003100078697374732E00457865637574696E67C8
:1003200020636F6D6D616E643A0053746F72696E15
:100330006720636F6D6D616E643A006D6D00436898
:10034000616E6765642050656E207769647468200B
:10035000746F20004E657720616363656C65726120
:1003600074696F6E3A20004E6577206D6178207356
:10037000706565643A200055703A2000446F776ECE
:100380003A2000504753504545442C0050474C49B3
:1003900046542C005047535445504D554C544950E9
:1003A0004C4945522C0050475354455053504552E8
:1003B0005245562C0050474D4D5045525245562CF3
:1003C00000504753495A452C0050474E414D452C4B
:1003D000002900526563616C632070616765486540
:1003E0006967687420696E207374657073202800D3
:1003F0002900526563616C632070616765576964A9
:10040000746820696E207374657073202800290059
:10041000292C2073746570735065724D4D2028002F
:10042000526563616C63206D6D50657253746570C5
:100430002028004C6F61646564206D6F746F7220BA
:1004400073746570206D756C7469706C6965723A4F
:10045000004C6F61646564206D616368696E65203E
:100460006E616D653A004C6F616465642075702043
:10047000706F733A004C6F6164656420646F776ECF
:1004800020706F733A004C6F61646564206D6F7407
:100490006F72207374657073207065722072657658
:1004A0003A004C6F61646564206D6D207065722048
:1004B0007265763A004C6F61646564206D616368B3
:1004C000696E65206865696768743A004C6F61649D
:1004D0006564206D616368696E652077696474681E
:1004E0003A002069736E2774206120636F6D6D611F
:1004F0006E642049207265636F676E6973652E00B4
:10050000536F7272792C200029206E6F74207061F5
:10051000727365642E00436F6D6D616E64202800F8
:10052000436865636B73756D206E6F74206D6174C5
:1005300063686564213A004920676F742000760083
:10054000504F4C41524752415048204F4E21007C61
:100550003C3E5E2B3D3F2F5B5D3B2C2A225C00081E
:100560000C205F0000000000000000000000000000
:1005700000202020202020002000000028505000D3
:100580000000000000000000002828FC2850FC505B
:10059000500000002078A8A0603028A8F0200000BB
:1005A0000048A8B0502834544800000000205050A3
:1005B00078A8A8906C000000404080000000000077
:1005C00000000000040810101010101008040000B3
:1005D000402010101010101020400000000020A833
:1005E0007070A8200000000000202020F8202020AB
:1005F00000000000000000000000000040408000FB
:1006000000000000F80000000000000000000000F2
:1006100000000000400000000810101020204040A2
:1006200040800000007088888888888870000000FA
:1006300000206020202020207000000000708888AA
:1006400010204080F80000000070880830080888FA
:10065000700000000010305050907810180000001A
:1006600000F88080F008088870000000007090801A
:10067000F08888887000000000F89010202020206A
:100680002000000000708888708888887000000052
:1006900000708888887808487000000000000020FA
:1006A000000000002000000000000000200000000A
:1006B0002020000004081020402010080400000042
:1006C000000000F80000F8000000000040201008C2
:1006D00004081020400000000070888810202000CE
:1006E0002000000000708898A8A8B880780000005A
:1006F0000020203050507848CC00000000F04848DE
:1007000070484848F0000000007888808080808829
:100710007000000000F0484848484848F0000000D9
:1007200000F8485070504048F800000000F8485069
:1007300070504040E000000000384880809C8848AD
:100740003000000000CC484878484848CC00000001
:1007500000F8202020202020F8000000007C10104D
:100760001010101090E0000000EC4850605050480D
:10077000EC00000000E0404040404044FC0000002D
:1007800000D8D8D8D8A8A8A8A800000000DC4868DD
:1007900068585848E8000000007088888888888871
:1007A0007000000000F0484870404040E000000049
:1007B000007088888888E8987018000000F0484821
:1007C00070504848EC00000000788880601008886D
:1007D000F000000000F8A820202020207000000079
:1007E00000CC4848484848483000000000CC484801
:1007F000505030202000000000A8A8A87050505091
:100800005000000000D8505020205050D800000068
:1008100000D85050202020207000000000F89010D8
:1008200020204048F80000003820202020202020F0
:100830002038000040404020201010100800000028
:1008400070101010101010101070000020500000D8
:100850000000000000000000000000000000000098
:100860000000FC002000000000000000000000006C
:1008700000000000304838483C00000000C0404004
:1008800070484848700000000000000038484040B0
:100890003800000000180808384848483C000000AC
:1008A000000000003048784038000000001C202084
:1008B0007820202078000000000000003C483040F4
:1008C0007844380000C0404070484848EC000000C0
:1008D00000200000602020207000000000100000B8
:1008E000301010101010E00000C040405C50704804
:1008F000EC00000000E0202020202020F800000074
:1009000000000000F0A8A8A8A80000000000000057
:10091000F0484848EC00000000000000304848481B
:100920003000000000000000F04848487040E0003F
:10093000000000003848484838081C00000000004B
:10094000D8604040E000000000000000784030081F
:1009500078000000000020207020202018000000F7
:1009600000000000D84848483C000000000000009B
:10097000EC4850302000000000000000A8A8705093
:100980005000000000000000D8502050D8000000A7
:1009900000000000EC4850302020C00000000000A3
:1009A000781020207800000018101010201010106F
:1009B000101800101010101010101010101010004F
:1009C000602020201020202020600040A41800007B
:1009D000000000000000001010205F000000000078
:1009E0000000000000000000000000000000000007
:1009F00000000000000000000000000000000007F0
:100A0000000F800F800F800F800F8007000700000D
:100A1000000000070007000700000000000E380E6D
:100A2000380E380E380630000000000000000000CC
:100A3000000000000000000000000000000C300C6E
:100A4000300C307FFE7FFE0C300C300C300C307FD1
:100A5000FE7FFE0C300C300C300000000002400223
:100A6000400FF81FF81A401A401FF00FF802580202
:100A7000581FF81FF0024002400000000000000074
:100A8000000E100E300E7000E001C0038007000E53
:100A9000700C700870000000000000000000000FE3
:100AA000001980198019800F000F080F9819F81885
:100AB000F018E019F00F9800000000000000000797
:100AC00000070007000E000000000000000000000A
:100AD0000000000000000000000000000000000016
:100AE000F001C0038007000E000E000E000E00078C
:100AF00000038001C000F000000000000000000FB3
:100B000000038001C000E000700070007000700001
:100B1000E001C003800F00000000000000000001A1
:100B2000801188099007E007E03FFC3FFC07E007E1
:100B3000E009901188018000000000000000000022
:100B40000000000180018001800FF00FF0018001A2
:100B50008001800000000000000000000000000094
:100B60000000000000000000000000000000000085
:100B7000000700070007000E000000000000000052
:100B80000000000000000000001FF81FF800000037
:100B90000000000000000000000000000000000055
:100BA0000000000000000000000000000000000045
:100BB0000007000700070000000000000000000020
:100BC000020006000E001C0038007000E001C003A7
:100BD0008007000E001C0000000000000000000F55
:100BE000F01C381C781CF81CF81DB81DB81F381FE5
:100BF000381E381C380FF000000000000000000113
:100C000080018003801F801F800380038003800396
:100C100080038003801FF000000000000000000F30
:100C2000E01C701C380038007000E001C003800731
:100C3000000E381C381FF800000000000000000FF4
:100C4000E01C701C380038007003C003C000700046
:100C5000381C381C700FE00000000000000000008D
:100C6000E001E003E006E00CE018E01FF81FF800E8
:100C7000E000E000E003F800000000000000001FBA
:100C8000F81C001C001C001C001FE01FF000780076
:100C9000381C381C700FE00000000000000000034A
:100CA000E007000E001C001C001FF01FF81C381C81
:100CB000381C381C380FF000000000000000001F36
:100CC000FC1C1C1C1C1C1C001C0038007000E001DB
:100CD000C003800380038000000000000000000FBC
:100CE000F01C381C381C381F3807E007E01CF81CC3
:100CF000381C381C380FF000000000000000000F06
:100D0000F01C381C381C381C381FF80FF80038004D
:100D100038007000E007C000000000000000000084
:100D200000000003800380038000000000038003B4
:100D300080038000000000000000000000000000B0
:100D40000000000380038003800000000003800394
:100D50008003800700000000000000000000700019
:100D6000E001C0038007000E001C001C000E0007FD
:100D700000038001C000E0007000000000000000DF
:100D800000000000003FFC3FFC000000003FFC3F73
:100D9000FC0000000000000000000000001C000E2D
:100DA000000700038001C000E00070007000E00157
:100DB000C0038007000E001C000000000003C00FED
:100DC000F01E7818380038007000E001C001C00043
:100DD00000000001C001C001C0000000000FF81CAD
:100DE0001C1C1C1C1C1C1C1CFC1CFC1CFC1CFC1CC3
:100DF000001C001C001FF007F800000000000003AA
:100E0000C007E00E701C381C381C381C381FF81C3A
:100E1000381C381C381C3800000000000000001F7F
:100E2000F00E380E380E380E380FF00FF00E380E68
:100E3000380E380E381FF0000000000000000007D8
:100E4000F00E381C381C001C001C001C001C001C70
:100E5000001C380E3807F000000000000000001FE2
:100E6000E00E700E380E380E380E380E380E380E72
:100E7000380E380E701FE000000000000000001F58
:100E8000F80E180E080E000E300FF00FF00E300E98
:100E9000000E080E181FF800000000000000001FE0
:100EA000F80E180E080E000E300FF00FF00E300E78
:100EB000000E000E001F00000000000000000007F0
:100EC000F00E381C381C381C001C001C001CF81CC0
:100ED000381C380E3807F800000000000000001C25
:100EE000701C701C701C701C701FF01FF01C701C9C
:100EF000701C701C701C7000000000000000000FCF
:100F0000E003800380038003800380038003800369
:100F100080038003800FE00000000000000000015B
:100F2000FC00700070007000700070007038703845
:100F300070387038700FE000000000000000001EE4
:100F4000380E380E700EE00FC00F800F800FC00EED
:100F5000E00E700E381E3800000000000000001F78
:100F6000000E000E000E000E000E000E000E000E11
:100F7000080E180E381FF800000000000000001CCA
:100F80001C1E3C1F7C1FFC1FFC1DDC1C9C1C1C1C15
:100F90001C1C1C1C1C1C1C00000000000000001C71
:100FA0001C1C1C1E1C1F1C1F9C1DDC1CFC1C7C1CF8
:100FB0003C1C1C1C1C1C1C0000000000000000034A
:100FC000E007F00E381C1C1C1C1C1C1C1C1C1C1CD0
:100FD0001C0E3807F003E000000000000000001FB6
:100FE000F00E380E380E380E380FF00FF00E000EDF
:100FF000000E000E001F00000000000000000003B3
:10100000E00F780E381C1C1C1C1C1C1C1C1C7C1C9F
:10101000FC0FF80FF8003800FC0000000000001F73
:10102000F00E380E380E380E380FF00FF00E700E2E
:10103000380E380E381E3800000000000000000F87
:10104000F01C381C381C381C000FE007F000381C5E
:10105000381C381C380FF000000000000000001F92
:10106000FC19CC11C401C001C001C001C001C00104
:10107000C001C001C007F000000000000000001C1B
:10108000701C701C701C701C701C701C701C701C00
:10109000701C701C700FE000000000000000001CBD
:1010A000701C701C701C701C701C701C701C701CE0
:1010B000700EE007C0038000000000000000001C6C
:1010C0001C1C1C1C1C1C1C1C1C1C9C1C9C1C9C0FED
:1010D000F80FF80770077000000000000000001C07
:1010E000701C701C700EE007C00380038007C00EE8
:1010F000E01C701C701C7000000000000000001C50
:10110000701C701C701C701C700EE007C003800304
:1011100080038003800FE000000000000000001F3B
:10112000F81C381838107000E001C0038007000E6A
:10113000081C181C381FF800000000000000000701
:10114000F007000700070007000700070007000777
:10115000000700070007F00000000000000000107A
:101160000018001C000E000700038001C000E00012
:10117000700038001C00070000000000000000079D
:10118000F00070007000700070007000700070005F
:10119000700070007007F000000000000001800384
:1011A000C007E00E701C38000000000000000000C6
:1011B000000000000000000000000000000000002F
:1011C000000000000000000000000000000000001F
:1011D000000000000000007FFF7FFF000000001CF7
:1011E000001C0007000700000000000000000000D5
:1011F00000000000000000000000000000000000EF
:10120000000000000000000FE0007000700FF01CF4
:10121000701C701C700FD800000000000000001E41
:10122000000E000E000E000FF00E380E380E380EB5
:10123000380E380E381BF0000000000000000000DF
:10124000000000000000000FE01C701C701C001C5F
:10125000001C701C700FE000000000000000000087
:10126000F80070007000700FF01C701C701C701C77
:10127000701C701C700FD8000000000000000000FF
:10128000000000000000000FE01C701C701FF01C2C
:10129000001C701C700FE000000000000000000344
:1012A000E007700770070007001FE01FE007000756
:1012B00000070007001FC000000000000000000041
:1012C000000000000000000FD81C701C701C701C77
:1012D000700FF007F000701C700FE0000000001E9F
:1012E000000E000E000E000EF00F380F380E380EF4
:1012F000380E380E381E38000000000000000001D3
:10130000C001C001C000000FC001C001C001C00188
:10131000C001C001C00FF800000000000000000084
:101320007000700070000003F0007000700070002A
:1013300070007000701C700CF007E0000000001ED0
:10134000000E000E000E000E380E700EE00FC00EE4
:10135000E00E700E381E3800000000000000000F84
:10136000C001C001C001C001C001C001C001C00175
:10137000C001C001C00FF800000000000000000024
:10138000000000000000001FF81C9C1C9C1C9C1C02
:101390009C1C9C1C9C1C9C00000000000000000089
:1013A000000000000000001FE01C701C701C701C7E
:1013B000701C701C701C7000000000000000000019
:1013C000000000000000000FE01C701C701C701C6E
:1013D000701C701C700FE000000000000000000096
:1013E000000000000000001BF00E380E380E380E12
:1013F000380E380FF00E000E001F00000000000035
:10140000000000000000001FB038E038E038E0388D
:10141000E038E01FE000E000E001F0000000000024
:10142000000000000000001EF00FF80F380E000E44
:10143000000E000E001F0000000000000000000071
:10144000000000000000000FE01C301C300F800383
:10145000E0187018700FE0000000000000000000AD
:10146000000100030007001FF00700070007000746
:10147000000770077003E00000000000000000009B
:10148000000000000000001C701C701C701C701C10
:10149000701C701C700FD8000000000000000000DD
:1014A000000000000000001C701C701C701C701CF0
:1014B000700EE007C0038000000000000000000084
:1014C000000000000000001C1C1C1C1C1C1C9C1CA0
:1014D0009C0FF8077007700000000000000000007B
:1014E000000000000000001CE01CE00FC0078007A7
:1014F000800FC01CE01CE0000000000000000000A5
:10150000000000000000000E380E380E380E380EB5
:101510003807F003E000E001C01F80000000000079
:10152000000000000000001FE018E011C003800769
:10153000000E201C601FE000000000000000000101
:10154000F803800380038007001C001C00070003D1
:10155000800380038001F800000000000001C0014A
:10156000C001C001C001C001C001C001C001C00173
:10157000C001C001C001C001C00000000000001F88
:101580008001C001C001C000E00038003800E00167
:10159000C001C001C01F8000000000000000001F4B
:1015A0001C3B9C39DC38F800000000000000000003
:1015B00000000000000000000000002032300A009F
:1015C0000000000000000000FFFE0001FFFF00031C
:1015D000FFFF8001FFFF600CFFFEF01E0001F83FDF
:1015E0000001F83F0001F83F0001F83F0001F83F1B
:1015F0000001F83F0001F83F0001F83F0001F83F0B
:101600000001F83F0001F83F0001F83F0001F83FFA
:101610000001F83E000078380000182000000800A3
:1016200000000020000000380000183E0000783F55
:101630000001F83F0001F83F0001F83F0001F83FCA
:101640000001F83F0001F83F0001F83F0001F83FBA
:101650000001F83F0001F83F0001F83F0001F83FAA
:101660000001F83F0001F81E0000F00CFFFE6001D1
:10167000FFFF0003FFFF8001FFFF0000FFFE0000EF
:10168000000000000000000000000000000000005A
:1016900000000000000000000000000000006000EA
:1016A0000000F0000001F8000001F8000001F8005F
:1016B0000001F8000001F8000001F8000001F80046
:1016C0000001F8000001F8000001F8000001F80036
:1016D0000001F8000001F8000001F80000007800A7
:1016E00000001800000008000000000000000000DA
:1016F00000001800000078000001F8000001F80068
:101700000001F8000001F8000001F8000001F800F5
:101710000001F8000001F8000001F8000001F800E5
:101720000001F8000001F8000001F8000001F800D5
:101730000000F00000006000000000000000000059
:101740000000000000000000000000000000000099
:101750000000000000000000FFFE0001FFFF00038A
:10176000FFFF8001FFFF6000FFFEF0000001F800B6
:101770000001F8000001F8000001F8000001F80085
:101780000001F8000001F8000001F8000001F80075
:101790000001F8000001F8000001F8000001F80065
:1017A0000001F80000007801FFFE1803FFFF880F1A
:1017B000FFFFE027FFFFC039FFFF003E0000003FB2
:1017C0000000003F0000003F0000003F0000003F1D
:1017D0000000003F0000003F0000003F0000003F0D
:1017E0000000003F0000003F0000003F0000003FFD
:1017F0000000003F0000001E0000000CFFFE000182
:10180000FFFF0003FFFF8001FFFF0000FFFE00005D
:1018100000000000000000000000000000000000C8
:10182000FFFE0001FFFF0003FFFF8001FFFF6000DC
:10183000FFFEF0000001F8000001F8000001F800D0
:101840000001F8000001F8000001F8000001F800B4
:101850000001F8000001F8000001F8000001F800A4
:101860000001F8000001F8000001F8000000780114
:10187000FFFE1803FFFF880FFFFFE007FFFFC00117
:10188000FFFF1800000078000001F8000001F800D8
:101890000001F8000001F8000001F8000001F80064
:1018A0000001F8000001F8000001F8000001F80054
:1018B0000001F8000001F8000001F8000001F80044
:1018C0000000F000FFFE6001FFFF0003FFFF80014A
:1018D000FFFF0000FFFE000000000000000000000D
:1018E00000000000000000000000000000000000F8
:1018F000000000000000600C0000F01E0001F83F36
:101900000001F83F0001F83F0001F83F0001F83FF7
:101910000001F83F0001F83F0001F83F0001F83FE7
:101920000001F83F0001F83F0001F83F0001F83FD7
:101930000001F83E00007839FFFE1823FFFF880FF2
:10194000FFFFE007FFFFC001FFFF18000000780065
:101950000001F8000001F8000001F8000001F800A3
:101960000001F8000001F8000001F8000001F80093
:101970000001F8000001F8000001F8000001F80083
:101980000001F8000001F8000000F0000000600015
:101990000000000000000000000000000000000047
:1019A0000000000000000000000000000000000037
:1019B000FFFE0001FFFF0003FFFF8001FFFF000C9F
:1019C000FFFE001E0000003F0000003F0000003F3F
:1019D0000000003F0000003F0000003F0000003F0B
:1019E0000000003F0000003F0000003F0000003FFB
:1019F0000000003F0000003F0000003E00000039F2
:101A0000FFFE0023FFFF800FFFFFE007FFFFC00185
:101A1000FFFF1800000078000001F8000001F80046
:101A20000001F8000001F8000001F8000001F800D2
:101A30000001F8000001F8000001F8000001F800C2
:101A40000001F8000001F8000001F8000001F800B2
:101A50000000F000FFFE6001FFFF0003FFFF8001B8
:101A6000FFFF0000FFFE000000000000000000007B
:101A70000000000000000000FFFE0001FFFF000367
:101A8000FFFF8001FFFF000CFFFE001E0000003F73
:101A90000000003F0000003F0000003F0000003F4A
:101AA0000000003F0000003F0000003F0000003F3A
:101AB0000000003F0000003F0000003F0000003F2A
:101AC0000000003E00000039FFFE0023FFFF800FF2
:101AD000FFFFE027FFFFC039FFFF183E0000783FFF
:101AE0000001F83F0001F83F0001F83F0001F83F16
:101AF0000001F83F0001F83F0001F83F0001F83F06
:101B00000001F83F0001F83F0001F83F0001F83FF5
:101B10000001F83F0001F81E0000F00CFFFE60011C
:101B2000FFFF0003FFFF8001FFFF0000FFFE00003A
:101B300000000000000000000000000000000000A5
:101B4000FFFE0001FFFF0003FFFF8001FFFF6000B9
:101B5000FFFEF0000001F8000001F8000001F800AD
:101B60000001F8000001F8000001F8000001F80091
:101B70000001F8000001F8000001F8000001F80081
:101B80000001F8000001F8000001F80000007800F2
:101B90000000180000000800000000000000000025
:101BA00000001800000078000001F8000001F800B3
:101BB0000001F8000001F8000001F8000001F80041
:101BC0000001F8000001F8000001F8000001F80031
:101BD0000001F8000001F8000001F8000001F80021
:101BE0000000F000000060000000000000000000A5
:101BF00000000000000000000000000000000000E5
:101C00000000000000000000FFFE0001FFFF0003D5
:101C1000FFFF8001FFFF600CFFFEF01E0001F83F98
:101C20000001F83F0001F83F0001F83F0001F83FD4
:101C30000001F83F0001F83F0001F83F0001F83FC4
:101C40000001F83F0001F83F0001F83F0001F83FB4
:101C50000001F83E00007839FFFE1823FFFF880FCF
:101C6000FFFFE027FFFFC039FFFF183E0000783F6D
:101C70000001F83F0001F83F0001F83F0001F83F84
:101C80000001F83F0001F83F0001F83F0001F83F74
:101C90000001F83F0001F83F0001F83F0001F83F64
:101CA0000001F83F0001F81E0000F00CFFFE60018B
:101CB000FFFF0003FFFF8001FFFF0000FFFE0000A9
:101CC0000000000000000000000000000000000014
:101CD000FFFE0001FFFF0003FFFF8001FFFF600C1C
:101CE000FFFEF01E0001F83F0001F83F0001F83F41
:101CF0000001F83F0001F83F0001F83F0001F83F04
:101D00000001F83F0001F83F0001F83F0001F83FF3
:101D10000001F83F0001F83F0001F83E000078396B
:101D2000FFFE1823FFFF880FFFFFE007FFFFC00142
:101D3000FFFF1800000078000001F8000001F80023
:101D40000001F8000001F8000001F8000001F800AF
:101D50000001F8000001F8000001F8000001F8009F
:101D60000001F8000001F8000001F8000001F8008F
:101D70000000F000FFFE6001FFFF0003FFFF800195
:101D8000FFFF0000FFFE0000000000000000000058
:101D9000002100240027002A002D0030003300011C
:101DA000010000040107010A0100002200250028AB
:101DB000002B002E00310034000201000005010854
:101DC000010B01000020002300260029002C002F19
:101DD00000320000010000030106010901050505AC
:101DE00005070508080808020202020A0A08080492
:101DF00004040401010101010101010303030303C0
:101E0000030303040707070C0C0C0C0C0C0C0C024E
:101E100002020206060606060606060B0B0B0B0B55
:101E20000B0B0B010210202008081020401020404E
:101E3000800201020108040201010204081020408E
:101E400080804020100804020180040201804020AC
:101E500010080402010804020101020408102040D5
:101E60008001020408102040800000090A02080BCB
:101E70000C0D070603040100000000000000000034
:101E80000000000000000000000000000000000052
:101E9000000000000011100F000000000000000012
:101EA00000000000000000000000000000000049E9
:101EB0004E46494E4954594E414ECDCCCC3D0AD7A1
:101EC000233C17B7D13877CC2B329595E6241FB138
:101ED0004F0A000020410000C84200401C4620BCC0
:101EE000BE4CCA1B0E5AAEC59D7400407A10F35A00
:101EF00000A0724E18090010A5D4E80000E876484A
:101F0000170000E40B54020000CA9A3B000000E1F5
:101F1000F505000080969800000040420F00000088
:101F2000A08601000000102700000000E803000068
:101F300000006400000000000A0000000000010032
:101F4000000000002C76D888DC674F0823DFC1DF53
:101F5000AE59E1B1B796E5E3E453C63AE651997656
:101F600096E8E6C28426EB898C9B62ED407C6FFC90
:101F7000EFBC9C9F40F2BAA56FA5F490055A2AF7D2
:101F80005C936B6CF9676DC11BFCE0E40D47FEF5DB
:101F900020E6B500D0ED902E030094357705008043
:101FA000841E080000204E0A000000C80C333333A2
:101FB000330F986E12831141EF8D2114893BE65542
:101FC00016CFFEE6DB18D1844B381BF77C1D901D25
:101FD000A4BBE424203284725E228100C9F124EC87
:101FE000A1E53D274B1BED7752C2461B11241FBEB6
:101FF000CFEFD1E2DEBFCDBF00E00CBF10E1A0E02B
:10200000B2E0EEEEFCE901E00BBF02C007900D92DA
:10201000AA36B107D9F71BBE19E1AAE6B0E101C0A3
:102020001D92A238B107E1F71FE1CAEEDFE104C05B
:102030002297FE010E9425CEC43ED107C9F70E9417
:1020400088C30C946BCE0C940000EF92FF920F9318
:102050001F93F22FF02E47FD02C0E4E001C0E4E13F
:10206000242F332727FD309537FF03C03095219566
:102070003F4F4F2D512F0F2FEE2E2FD18F2D912F00
:102080001F910F91FF90EF900895A0E0B0E0EBE476
:10209000F0E10C943CCEEC01A880B980CA80DB80D2
:1020A000A114B104C104D10441F484E2A82E89ED45
:1020B000B82E8BE5C82E87E0D82EC601B5012DE1DC
:1020C00033EF41E050E00E9408CE27EA31E440E0DF
:1020D00050E00E9494CD7B018C01C601B5012DE139
:1020E00033EF41E050E00E9408CECA01B9012CEE66
:1020F00034EF4FEF5FEF0E9494CD6E0D7F1D801F78
:10210000911F97FF04C061507040804090486883E1
:1021100079838A839B839B01AC015F77B901CA01F4
:10212000CDB7DEB7EAE00C9458CEAFCF8DEA9FE092
:10213000ACCF6093AD0F7093AE0F8093AF0F9093C1
:10214000B00F08956627772729C2FC0188279927B1
:10215000E89421912032E9F3293010F02E30C8F3B1
:102160002B3239F02D3231F4689403C0AED0820F97
:10217000911D219120532A30C8F31EF4909581952A
:102180009F4F08951F93FC0199278827BC01E8946D
:1021900011911032E9F3193010F01E30C8F31B32E0
:1021A00049F01D3241F4689405C07AD0610F711D69
:1021B000811D911D119110531A30B8F33EF4909582
:1021C0008095709561957F4F8F4F9F4F1F91089518
:1021D000FB01DC0104C08D910190801921F4415074
:1021E0005040C8F7881B990B0895FB01DC0102C021
:1021F00001900D9241505040D8F70895FC01819113
:10220000861721F08823D9F7992708953197CF01B0
:102210000895FB01DC018D91019080190110D9F323
:10222000990B0895FB01DC0101900D920020E1F76C
:102230000895FB01DC014150504030F08D91019038
:10224000801919F40020B9F7881B990B0895FB0138
:10225000DC014150504048F001900D920020C9F738
:1022600001C01D9241505040E0F70895FB0151918B
:102270005523A9F0BF01DC014D9145174111E1F74C
:1022800059F4CD010190002049F04D9140154111C4
:10229000C9F3FB014111EFCF81E090E00197089570
:1022A000592F482F372F262F660F771F881F991F0A
:1022B000660F771F881F991F620F731F841F951F5A
:1022C000660F771F881F991F08957AE0979F902DBA
:1022D000879F802D910D11240895A9E0B0E0E3E7D8
:1022E000F1E10C9438CE6A01122FA02EBE2C2BE304
:1022F000201718F42CE3922E02C0902E9394AE0176
:102300004F5F5F4F27E0092DA6D2BC018981E82EDF
:10231000FF24C70189709070019711F4ADE209C0E4
:10232000B1FE02C0ABE205C0B0FC02C0A0E001C03B
:10233000A0E2E3FE3BC0AA2311F423E001C024E0A5
:10234000211710F020E002C0121B212FEB2CB4FE4D
:1023500002C0322F0AC0F601322F80E202C0819300
:1023600031503323E1F7C20ED11CAA2319F0F60134
:10237000A1936F01F6013196E2FE05C09EE4D601FD
:102380009C9381E404C09EE6D6019C9381E611965D
:102390008C9391833296DF01832F90E202C09D934C
:1023A00081508823E1F7E30FF11D40C0E2FE42C0F7
:1023B000AA2311F423E001C024E0211710F020E04B
:1023C00002C0121B212FEB2CB4FE02C0922F0AC0B8
:1023D000F601922F80E202C0819391509923E1F798
:1023E000C20ED11CAA2319F0F601A1936F01F601C8
:1023F0003196E2FE08C089E4D6018C938EE41196F2
:102400008C9386E407C089E6D6018C938EE61196FC
:102410008C9386E681833296DF01892F20E202C009
:102420002D9381508823E1F7E90FF11D10822EEFE3
:102430003FEFAFC0161617061CF041E050E003C096
:10244000AB014F5F5F4FAA2019F480E090E003C01A
:102450008A2D90E0019620E030E0AA2311F021E0DF
:1024600030E0240F351F280F391F812F90E02817E7
:10247000390714F020E002C0121B212F4B2D50E031
:10248000CA0180719070B4FC0DC0B3FC0BC0F601A2
:10249000322F40E202C0419331503323E1F7C20EA4
:1024A000D11C01C0322FAA2319F0F601A1936F01AC
:1024B000892B11F0132F0AC0F601132F80E302C0FD
:1024C000819311501123E1F7C30ED11C092D060F82
:1024D000BA8090E1892E912C8E209F20E4FE04C0CA
:1024E000F1E3BF1609F40150101614F001E003C027
:1024F000093008F008E09B0177FF02C020E030E0DF
:10250000CB010196821B930BFE013196E80FF91F58
:102510008EE2F82E3B01601A71088A2D90E0442764
:102520005527481B590B8FEF2F3F380719F4D60159
:10253000FD926D01621773072CF06216730614F496
:10254000808101C080E32150304031962417350747
:1025500024F0D6018D936D01E6CF2617370749F495
:10256000B5E3BB1528F0BB1621F48114910409F4DE
:1025700081E3F6018193D601812F90E202C09C9302
:10258000815011968823D9F7E10FF11D108220E0C8
:1025900030E0C9012996EEE00C9454CEA0E0B0E002
:1025A000E4EDF2E10C943ACEEC015B0161157105AA
:1025B00019F0FB0191838083F9908F2D90E00E94A8
:1025C00029CE892BC9F7FDE2FF1621F4F990EE24FC
:1025D000E39405C02BE2F21609F4F990EE248E0183
:1025E00001501040C8016FEA7EE143E050E00BD299
:1025F000892BF9F48E010E5F1F4FC80162EB7EE15B
:1026000045E050E000D2892B19F48E01095F1F4F7D
:10261000A114B10419F0F50111830083E0FC04C09A
:1026200070E090E080E813C070E090E080E86FEF29
:1026300007C1C80167EB7EE143E050E0E4D1892B9C
:1026400069F4A114B10429F470E090E080EC6FE724
:10265000F7C02296F501D183C083F6CF8824992450
:1026600040E050E060E070E0EF2DE053EA30A0F58C
:10267000F2E0EF2A8E2D90E09C0128703070E2FE8F
:1026800006C0232B79F50894811C911C2BC0232BA9
:1026900019F0089481089108DB01CA0112E0880F43
:1026A000991FAA1FBB1F1A95D1F7480F591F6A1F00
:1026B0007B1F440F551F661F771F4E0F511D611D55
:1026C000711D483929E9520729E9620729E1720792
:1026D00048F084E0E82A06C0EE3F31F4E3FC39C05C
:1026E00098E0E92AF990C0CFE53311F0E53189F59A
:1026F00029912D3219F4E0E1EE2A05C02B3219F0B0
:1027000081E090E003C0299182E090E0E22FE05365
:10271000EA3018F0C81BD90B1CC020E030E0FCE008
:1027200020383F075CF4C901880F991F880F991F53
:10273000280F391F220F331F2E0F311DE991E0534F
:10274000EA3068F3E4FE03C0309521953F4F820ED6
:10275000931ECE2CDD24E1FE07C0A114B10421F0AC
:102760002197F501D183C083CB01BA010E9494CB9C
:102770007B018C01F3E0CF22DD2423E0C216D104DB
:1027800021F417FB109517F9109557016801C8013E
:10279000B70120E030E040E050E00E94F4CA882316
:1027A00009F44AC097FE0DC02EECE22E2EE1F22E67
:1027B0009094819491089394C0E2D0E000E010E0FE
:1027C00012C096EEE92E9EE1F92EF6CFF701259183
:1027D000359145915491C601B5010E948CCC5B01A5
:1027E0006C018C1A9D0A8C169D0684F7D595C795A9
:1027F0000F5F1F4F0630110529F08CEF9FEFE80E99
:10280000F91EF1CFC501D6017C018D018C2D880FF9
:102810008D2D881F8F3F51F0C601B50120E030E0BB
:1028200040E050E00E94F4CA882331F482E290E054
:1028300090938119809380197E2D9F2D802F612F79
:10284000272F392F482F562FB901CA01CDB7DEB730
:10285000ECE00C9456CE283008F027E03327DA015C
:10286000990F311D87FD916000966105710539F45E
:1028700032602E5F3D9330E32A95E1F708959F3F44
:1028800030F080387105610509F03C5F3C5F3D9395
:10289000913008F08068911DDF93CF931F930F93C1
:1028A000FF92EF92192F987F9695E92F969596951E
:1028B000E90FFF27EC5BF04E99273327EE24FF2426
:1028C000A701E70105900894079428F4360FE71E46
:1028D000F81E491F511D660F771F881F991F069408
:1028E000A1F70590079428F4E70EF81E491F561F1C
:1028F000C11D770F881F991F661F0694A1F70590C9
:10290000079428F4F80E491F561FC71FD11D880FC2
:10291000991F661F771F0694A1F70590079420F46E
:10292000490F561FC71FD81F990F661F771F881F93
:102930000694A9F784911095177041F0D695C79524
:1029400057954795F794E7941A95C1F7EAEEFEE19B
:1029500068941590159135916591959105907FE258
:102960007395E118F10A430B560BC90BD009C0F758
:10297000E10CF11E431F561FC91FD01D7EF470339A
:1029800011F48A95E6CFE894015030F0080F0AF46C
:102990000027021708F4202F2395022F7A3328F0FE
:1029A00079E37D932A95E9F710C07D932A9589F6FE
:1029B000069497956795379517951794E118F10A3E
:1029C000430B560BC90BD00998F023957E91739554
:1029D0007A3308F070E37C932013B8F77E9170612E
:1029E0007D9330F0839571E37D9370E32A95E1F751
:1029F0001124EF90FF900F911F91CF91DF919927B4
:102A000087FD90950895FB01DC014150504088F00E
:102A10008D9181341CF08B350CF4805E65916134AE
:102A20001CF06B350CF4605E861B611171F3990B21
:102A30000895881BFCCF982F80910010813049F5B4
:102A40009430B9F0953030F4913059F0923009F06B
:102A5000AAC0AAC09530A9F0963009F0A4C083E2BC
:102A6000089580918811882311F480E2089581E20D
:102A700008958091C30F882311F485E0089584E0C0
:102A8000089580916E10882311F487E0089588E0FE
:102A90000895809100108630C9F4943009F486C0FE
:102AA000953030F4923061F0933009F07CC00AC068
:102AB000953021F0963009F076C006C089E008957F
:102AC0008AE0089583E1089582E1089580910010DD
:102AD0008430C9F4943009F469C0953030F49230F0
:102AE00061F0933009F05FC00AC0953021F0963054
:102AF00009F059C006C08BE108958CE108958AE180
:102B0000089589E10895809100108530C1F49430D2
:102B100009F44CC0953030F4923059F0933009F0FC
:102B200042C009C0953019F09630E9F506C085E13C
:102B3000089586E1089588E1089587E108958091D8
:102B400000108330D1F4943051F0953018F4923065
:102B500051F507C0953039F0963029F506C08FE061
:102B600008958CE008958BE0089580918711882363
:102B700011F480E1089582E2089580910010873079
:102B800091F4933051F0943018F4923061F407C00E
:102B9000943061F0953039F404C08EE108958FE1EE
:102BA00008958DE10895089582E0089584E10895DF
:102BB000AF92BF92CF92DF92EF92FF920F931F934B
:102BC0006E157F058007910734F42E153F054007E9
:102BD000510764F42CC0E616F7060807190794F4A9
:102BE000A216B306C406D5063CF423C0A216B3064B
:102BF000C406D506BCF41FC02A153B054C055D056F
:102C0000C4F41BC06E157F058007910791F42A1547
:102C10003B054C055D058CF0A216B306C406D5062F
:102C200044F409C02A153B054C055D0511F484E008
:102C300005C082E003C083E001C081E01F910F91D5
:102C4000FF90EF90DF90CF90BF90AF900895EF92FC
:102C5000FF920F931F937B018C01662757FD6095B0
:102C6000762FCB01BA010E9496CB2091761030913D
:102C7000771040917810509179100E948CCCA80167
:102C800097010E94FBCA7B018C0120E030E040E00C
:102C900050E40E9488CC87FF03C061E070E004C06C
:102CA000C801B7010E9463CBCB011F910F91FF9028
:102CB000EF9008956F927F928F929F92AF92BF9202
:102CC000CF92DF92EF92FF920F931F93CF93DF93F8
:102CD0007C015B01662757FD6095762FCB01BA0119
:102CE0000E9496CB3B014C010027F7FC0095102F6A
:102CF000C801B7010E9496CB7B018C01CC24B7FCA4
:102D0000C094DC2CC601B5010E9496CB9B01AC019E
:102D1000C801B7010E94FBCAA40193010E948CCC98
:102D20009B01AC01C401B3010E948FCA7B018C01DD
:102D30000E9463CBEB01BE01882777FD8095982F19
:102D40000E9496CB9B01AC01C801B7010E948FCABB
:102D500020E030E040E05FE30E9488CC18160CF4DD
:102D60002196CE01DF91CF911F910F91FF90EF90AF
:102D7000DF90CF90BF90AF909F908F907F906F909B
:102D80000895CF92DF92EF92FF920F931F93CF930C
:102D9000DF93EC016B01688179818A819B812091AD
:102DA00005103091061040910710509108100E94B4
:102DB0008CCC688379838A839B83F60160817181DF
:102DC000828193812091091030910A1040910B105B
:102DD00050910C100E948CCC7B018C01F601608319
:102DE0007183828393832091CA133091CB13C901DD
:102DF0008E978A35910580F4288139814A815B81DB
:102E0000D801C701B05888839983AA83BB832083E4
:102E100031834283538329C0C901885890408A3541
:102E2000910580F488819981AA81BB81B0588883FB
:102E30009983AA83BB83F60180819181A281B381AA
:102E4000B0580FC0225E30402A35310570F48881B9
:102E50009981AA81BB81E882F9820A831B83B058D9
:102E6000F60180839183A283B383688179818A810B
:102E70009B812091CC133091CD134091CE13509172
:102E8000CF130E9490CA688379838A839B83F6015B
:102E900060817181828193812091D0133091D1130F
:102EA0004091D2135091D3130E9490CAF6016083CF
:102EB000718382839383DF91CF911F910F91FF9054
:102EC000EF90DF90CF9008952F923F924F925F92B4
:102ED0006F927F928F929F92AF92BF92CF92DF922A
:102EE000EF92FF920F931F931B012C0139014A01AE
:102EF00060917E1070917F10809180109091811070
:102F00000E9496CB7B018C01A80197010E948CCC7A
:102F10005B016C01C401B301A40193010E948CCC3C
:102F20009B01AC01C601B5010E948FCA5B016C0117
:102F3000C201B101A20191010E948CCC9B01AC01A4
:102F4000C601B5010E9490CA5B016C01C801B701BE
:102F5000A80197010E9490CA9B01AC01C601B5016E
:102F60000E94FBCA1F910F91FF90EF90DF90CF90CE
:102F7000BF90AF909F908F907F906F905F904F9099
:102F80003F902F9008950F931F93CF93DF93242F9B
:102F90002627A22FB0E0AF70B070AA0FBB1FAA0FF8
:102FA000BB1FC0E4D2E0AC0FBD1FFD010591159120
:102FB00025913491E4E09695879577956795EA9504
:102FC000D1F7062717272827392742954F70402722
:102FD00050E04F705070440F551F440F551F4C0F59
:102FE0005D1FFA0185919591A591B49144E03695C4
:102FF0002795179507954A95D1F7082719272A2766
:103000003B27B801C901DF91CF911F910F9108951E
:10301000CF92DF92EF92FF920F931F938130910531
:1030200009F032C26F5F7F4F09F029C382E492E159
:1030300060E072E00E94C5C98BE690E10E942C73AB
:103040008FE690E167E072E00E94C5C989E492E1F1
:1030500068E072E00E94C5C96091B70F7091B80F27
:10306000882777FD8095982F2091B10F3091B20F6E
:10307000442737FD4095542F0E9494CD0E9496CB53
:103080007B018C016091B30F7091B40F8091B50FEB
:103090009091B60FA80197010E94FBCA6093761029
:1030A000709377108093781090937910C801B701CE
:1030B0002091B30F3091B40F4091B50F5091B60FDE
:1030C0000E94FBCA7B018C0160937A1070937B1085
:1030D00080937C1090937D1060910110709102108C
:1030E000882777FD8095982F0E9496CBA80197019D
:1030F0000E948CCC0E9463CB60937E1070937F10F3
:10310000809380109093811060910310709104104F
:10311000882777FD8095982F0E9496CBA80197016C
:103120000E948CCC0E9463CB6093821070938310BA
:10313000809384109093851080E592E161E172E0C4
:103140000E94C5C987E592E163E172E00E94C5C9AA
:103150008EE592E167E172E00E94C5C985E692E1E1
:103160006FE172E00E94C5C98CE692E162E572E00F
:103170000E94C5C983E792E162E572E00E94C5C979
:103180008AE792E162E572E00E94C5C981E892E1B6
:1031900062E572E00E94C5C988E892E161E672E0EA
:1031A0000E94C5C98FE892E16BE672E00E94C5C932
:1031B00086E992E162E772E00E94C5C98DE992E179
:1031C0006AE772E00E94C5C984EA92E165E872E0AC
:1031D0000E94C5C98BEA92E168E872E10E9473CA55
:1031E00086E990E167E072E00E94C5C982EB92E156
:1031F0006BE872E00E94C5C989EB92E16DE872E06C
:103200000E94C5C980EC92E162E972E00E94C5C9E2
:1032100087EC92E166E972E00E94C5C98EEC92E10A
:103220006AE972E00E94C5C985ED92E16EE972E03B
:103230000E94C5C98CED92E162EA72E00E94C5C9A4
:1032400083EE92E166EA72E00E94C5C98AEE92E1DD
:103250006AEA72E00E94C5C981EF92E16EEA72E00B
:103260000E94C5C988EF92E162EB72E00E94C5C975
:103270008FEF92E166EB72E00E94C5C986E093E1B0
:103280006AEB72E00E94C5C98DE093E16EEB72E0DB
:103290000E94C5C984E193E162EC72E00E94C5C955
:1032A0008BE193E166EC72E00E94C5C982E293E192
:1032B0006AEC72E00E94C5C989E293E16EEC72E0AB
:1032C0000E94C5C980E393E162ED72E00E94C5C926
:1032D00087E393E166ED72E00E94C5C98EE393E156
:1032E0006AED72E00E94C5C985E493E16EED72E07B
:1032F0000E94C5C98CE493E162EE72E00E94C5C9E8
:1033000083E593E166EE72E00E94C5C98AE593E128
:103310006AEE72E00E94C5C981E693E16EEE72E04A
:103320000E94C5C988E693E162EF72E00E94C5C9B8
:103330008FE693E166EF72E00E94C5C986E793E1EC
:103340006AEF72E00E94C5C98DE793E16EEF72E00B
:103350000E94C5C984E893E162E073E00E94C5C998
:103360008BE893E166E073E00E94C5C982E993E1CE
:103370006AE073E00E94C5C989E993E16EE073E0F9
:103380000E94C5C980EA93E162E173E00E94C5C969
:1033900087EA93E166E173E00E94C5C98EEA93E192
:1033A0006AE173E00E94C5C985EB93E16EE173E0C9
:1033B0000E94C5C98CEB93E162E273E00E94C5C92B
:1033C00083EC93E166E273E00E94C5C986EA90E16E
:1033D0006EE046E250E027E230E008E210E079E2F9
:1033E000E72EF12CCC24DD240E9433B182ED90E154
:1033F0006BE04CE022E103E1B2E0EB2E0E9464B509
:1034000084E091E167E072E00E94C5C98EE091E13D
:1034100067E072E00E94C5C910921A1110921B1148
:1034200010921E111092201182E090E0A0E0B0E016
:103430008093211190932211A0932311B093241112
:1034400010923811109242111092411186E590E1CC
:103450009093401180933F11109244118CE591E1BB
:103460000E9457768AE891E161E044E025E004E0BB
:10347000A5E0EA2E0E9464718EEC91E161E047E0E4
:1034800028E00E946471FBC0892B09F0F8C06F5FCF
:103490007F4F09F0F4C08CE591E10E946A768EE0DE
:1034A00091E10E9485CA84E091E10E9485CA83EC83
:1034B00093E10E9485CA8CEB93E10E9485CA85EB5B
:1034C00093E10E9485CA8EEA93E10E9485CA87EA49
:1034D00093E10E9485CA80EA93E10E9485CA89E946
:1034E00093E10E9485CA82E993E10E9485CA8BE834
:1034F00093E10E9485CA84E893E10E9485CA8DE722
:1035000093E10E9485CA86E793E10E9485CA8FE60F
:1035100093E10E9485CA88E693E10E9485CA81E60C
:1035200093E10E9485CA8AE593E10E9485CA83E5FA
:1035300093E10E9485CA8CE493E10E9485CA85E4E8
:1035400093E10E9485CA8EE393E10E9485CA87E3D6
:1035500093E10E9485CA80E393E10E9485CA89E2D3
:1035600093E10E9485CA82E293E10E9485CA8BE1C1
:1035700093E10E9485CA84E193E10E9485CA8DE0AF
:1035800093E10E9485CA86E093E10E9485CA8FEF8D
:1035900092E10E9485CA88EF92E10E9485CA81EF7C
:1035A00092E10E9485CA8AEE92E10E9485CA83EE6A
:1035B00092E10E9485CA8CED92E10E9485CA85ED58
:1035C00092E10E9485CA8EEC92E10E9485CA87EC46
:1035D00092E10E9485CA80EC92E10E9485CA89EB43
:1035E00092E10E9485CA82EB92E10E9485CA86E937
:1035F00090E10E9485CA8BEA92E10E9485CA84EA22
:1036000092E10E9485CA8DE992E10E9485CA86E90D
:1036100092E10E9485CA8FE892E10E9485CA88E8FB
:1036200092E10E9485CA81E892E10E9485CA8AE7F8
:1036300092E10E9485CA83E792E10E9485CA8CE6E6
:1036400092E10E9485CA85E692E10E9485CA8EE5D4
:1036500092E10E9485CA87E592E10E9485CA80E5D1
:1036600092E10E9485CA89E492E10E9485CA8FE6B0
:1036700090E10E9485CA82E492E10E9485CA1F916E
:103680000F91FF90EF90DF90CF90089580E090E051
:103690006FEF7FEFBDCC81E090E06FEF7FEFB8CCB4
:1036A000CF92DF92EF92FF920F931F93CF93DF930E
:1036B0006C01EE24EA94FE2C8701C0E0D0E00BC040
:1036C000C601BE010E9425C7482FC801B7015BDCB7
:1036D0007B018C012196F60184819581C817D90759
:1036E00078F3A80197012095309540955095B90140
:1036F000CA01DF91CF911F910F91FF90EF90DF9062
:10370000CF9008950F931F9384E090E00E9492B8A9
:103710008C010E9419B92DB73EB7201B310BC9018E
:103720001F910F910895EEDF9C0180918A10909176
:103730008B1028173907D1F030938B1020938A1003
:1037400085EF98E16EE572E10E945CC660918A1097
:1037500070918B1085EF98E14AE050E00E9436C5E9
:1037600085EF98E169EB72E10C948EC6089585EFC0
:1037700098E16FE872E10C948EC685EF98E168E8F5
:1037800072E10C948EC6AF92BF92CF92DF92EF920D
:10379000FF920F931F937B018C01CA01B9010E9414
:1037A0008CCC5B016C01C801B701A80197010E9494
:1037B0008CCC9B01AC01C601B5010E948FCA0E944E
:1037C000F9CC1F910F91FF90EF90DF90CF90BF90B9
:1037D000AF9008956F927F928F929F92AF92BF9217
:1037E000CF92DF92EF92FF920F931F937B018C0198
:1037F0006BDB5B016C01A8019701C5DF3B014C014C
:10380000E090D30FF090D40F0091D50F1091D60F08
:10381000C801B7010E9496CB9B01AC01C601B5015E
:103820000E94F4CA87FD4AC08091DB0F9091DC0FA3
:10383000A091DD0FB091DE0FE80EF91E0A1F1B1FCD
:10384000C801B7010E9496CB9B01AC01C601B5012E
:103850000E9488CC181694F1E090D70FF090D80F02
:103860000091D90F1091DA0FC801B7010E9496CBD1
:103870009B01AC01C401B3010E94F4CA87FD1EC0C4
:10388000DD248091DF0F9091E00FA091E10FB091C6
:10389000E20FE80EF91E0A1F1B1FC801B7010E94A4
:1038A00096CB9B01AC01C401B3010E9488CC1816D1
:1038B00014F4DD24D39481E0D82601C0DD248D2DBD
:1038C0001F910F91FF90EF90DF90CF90BF90AF903E
:1038D0009F908F907F906F900895AF92BF92CF92FC
:1038E000DF92EF92FF920F931F937B018C0159019E
:1038F0006A0160917E1070917F108091801090918C
:1039000081100E9496CBA80197010E948FCA9B014B
:10391000AC010E948CCC7B018C01C601B501A601D3
:1039200095010E948CCC9B01AC01C801B7010E949B
:1039300090CA0E94F9CC1F910F91FF90EF90DF90F9
:10394000CF90BF90AF900895AF92BF92CF92DF9289
:10395000EF92FF920F931F937B018C0159016A0133
:10396000A80197010E948CCC7B018C01C601B50196
:10397000A60195010E948CCC9B01AC01C801B70146
:103980000E9490CA0E94F9CC1F910F91FF90EF9076
:10399000DF90CF90BF90AF9008952F923F924F92BB
:1039A0005F926F927F928F929F92AF92BF92CF92CF
:1039B000DF92EF92FF920F931F93DF93CF9300D08C
:1039C0000F92CDB7DEB769837A838B839C835901CD
:1039D0006A0117012801611571058105910559F4E6
:1039E0000F2EF0E0EF2EF0E0FF2EF0E00F2FF0E0D2
:1039F0001F2FF02DA4C0CA01B9010E948CCC7B01FD
:103A00008C01C601B50120E030E040E050E00E94AA
:103A1000F4CA882324F417FB109517F91095C201F6
:103A2000B101A20191010E9490CA3B014C01C80161
:103A3000B701A40193010E94FBCA7B018C0169813B
:103A40007A818B819C810E9496CB9B01AC01C8013D
:103A5000B7010E94F4CA8823B4F5C601B50120E07D
:103A600030E040E050E00E94F4CA882329F4C40109
:103A7000B3010E94F9CC0DC0C201B101A6019501AC
:103A80000E94FBCA9B01AC015F77C601B5010E9491
:103A900090CA7B018C01D090B90FC090BA0FB09042
:103AA000BB0FA090BC0F2D2D3C2D4B2D5A2D0E94ED
:103AB00088CC18160CF043C08D2D9C2DAB2DBA2D43
:103AC0007C018D013CC0C601B50120E030E040E042
:103AD00050E00E94F4CA882359F4C401B3010E9443
:103AE000F9CC7B018C0117FB109517F910950FC0CD
:103AF000C201B101A60195010E94FBCA9B01AC0164
:103B00005F77C601B5010E948FCA7B018C0180914D
:103B1000B90F9091BA0FA091BB0FB091BC0F5C018F
:103B20006D01D7FAD094D7F8D094C801B701A60197
:103B300095010E94F4CA882314F486017501B70127
:103B4000C8010F900F900F900F90CF91DF911F91B0
:103B50000F91FF90EF90DF90CF90BF90AF909F902C
:103B60008F907F906F905F904F903F902F9008952F
:103B7000EF92FF920F931F938091C20F882309F455
:103B800056C085EF98E164EA72E10E945CC68AE85B
:103B900091E10E94AF6C0E9496CB7B018C016091F9
:103BA000B70F7091B80F882777FD8095982F0E94E6
:103BB00096CB9B01AC01C801B7010E94FBCA0E94D1
:103BC00063CBAB01BC0185EF98E12AE030E00E94B5
:103BD000E6C485EF98E162EB72E10E945CC68EEC70
:103BE00091E10E94AF6C0E9496CB7B018C016091A9
:103BF000B70F7091B80F882777FD8095982F0E9496
:103C000096CB9B01AC01C801B7010E94FBCA0E9480
:103C100063CBAB01BC0185EF98E12AE030E00E9464
:103C2000E6C485EF98E169EB72E10E948EC61F91B0
:103C30000F91FF90EF900895EF92FF920F931F93D3
:103C40008091861090918710A0918810B091891072
:103C50000097A105B10509F03FC060917E107091F9
:103C60007F1080918010909181100E9496CB7B01F3
:103C70008C016091821070918310809184109091DA
:103C800085100E9496CB9B01AC01C801B7015CDE98
:103C900020E030E040E05FE30E9490CA0E9463CBE6
:103CA000609386107093871080938810909389108A
:103CB00085EF98E16AE273E00E9465C54091861045
:103CC00050918710609188107091891085EF98E16C
:103CD0002AE030E00E9424C5609186107091871020
:103CE00080918810909189101F910F91FF90EF9013
:103CF000089585EF98E161E473E00C944BC685EF7D
:103D000098E168ED72E00E940AC410920D110895C6
:103D10008F929F92AF92BF92CF92DF92EF92FF92DB
:103D20000F931F936C017B0185EF98E168E573E0C9
:103D30000E9465C585EF98E1B6014AE050E00E9417
:103D400036C585EF98E161E673E00E9465C585EFB1
:103D500098E1B7014AE050E00E9448C585EF98E13C
:103D600066E673E00E9465C56091811170918211D1
:103D700085EF98E14AE050E00E9448C585EF98E160
:103D800066E773E00E9465C5409177115091781104
:103D90006091791170917A1185EF98E12AE030E015
:103DA0000E9424C54601AA2497FCA094BA2C8091B5
:103DB000811190918211AA2797FDA095BA2F880EA4
:103DC000991EAA1EBB1E0027F7FC0095102F2091FC
:103DD0007711309178114091791150917A11C80181
:103DE000B7010E9494CD860E971EA81EB91E85EFBE
:103DF00098E160E873E00E9465C585EF98E1B50140
:103E0000A4012AE030E00E94E6C4809183119091E1
:103E10008411A0918511B091861188159905AA0584
:103E2000BB0514F41FEF18C08CE591E1B501A401A6
:103E30000E94F1768CE591E10E940177182F85EFC1
:103E400098E169E873E00E9465C585EF98E1612F0C
:103E50004AE050E00E94CAC4812F1F910F91FF9049
:103E6000EF90DF90CF90BF90AF909F908F9008958C
:103E70000F931F93CF93DF93EC018B0185EF98E1B4
:103E800068E973E00E9465C585EF98E1BE014AE0EC
:103E900050E00E9436C585EF98E16BE973E00E941F
:103EA00065C585EF98E1B8014AE050E00E9448C539
:103EB0008091121290911312C817D907B4F0809113
:103EC0001612909117128C179D077CF08091141296
:103ED000909115120817190744F0809118129091CB
:103EE0001912801791070CF097C080911A129091C7
:103EF0001B12C817D907BCF080911E1290911F1297
:103F00008C179D0784F080911C1290911D12081748
:103F100019074CF08091181290911912801791078F
:103F200014F082E07AC08091221290912312C81777
:103F3000D907BCF080912612909127128C179D070B
:103F400084F08091241290912512081719074CF0E3
:103F500080912812909129128017910714F083E024
:103F60005CC080912A1290912B12C817D907BCF01F
:103F700080912E1290912F128C179D0784F08091C2
:103F80002C1290912D12081719074CF080913012C5
:103F9000909131128017910714F084E03EC0809117
:103FA000321290913312C817D907BCF080913612A3
:103FB000909137128C179D0784F080913412909164
:103FC0003512081719074CF0809138129091391268
:103FD0008017910714F085E020C080913A129091EB
:103FE0003B12C817D907BCF080913E1290913F1246
:103FF0008C179D0784F080913C1290913D12081718
:1040000019074CF08091401290914112801791074E
:1040100014F086E002C001C081E0DF91CF911F91D2
:104020000F9108956F927F928F929F92AF92BF925D
:10403000CF92DF92EF92FF920F931F93DF93CF9374
:10404000CDB7DEB7A3970FB6F894DEBF0FBECDBFD6
:104050006DB67EB68CE591E140E050E060E070E046
:104060000E94F1767E010894E11CF11CC70160EA10
:1040700073E00E94C5C98CE591E10E940177182F79
:10408000C70160E070E00E9436C7FC0110838CE538
:1040900091E10E940177182FC70161E070E00E9452
:1040A00036C7FC011083C70163EA73E00E945EC853
:1040B000882399F485EF98E166EA73E00E9465C56C
:1040C00085EF98E1B7010E945CC685EF98E164EC4A
:1040D00073E00E944BC610E083C185EF98E16FED5D
:1040E00073E00E944BC68CE591E10E9401778E013E
:1040F000085F1F4FC80167E072E00E94C5C98CE5E8
:1041000091E10E940177E82E8FE0C82ED12CCC0ED1
:10411000DD1EF02E012F21C083E2E81641F48CE56C
:1041200091E10E940177E82E9AE0E916C1F7C601F5
:104130006F2D702F0E947CCAC6016E2D0E9483C90C
:10414000BC018F2D902F0E945ECAC6010E948ACAB0
:104150008CE591E10E940177E82E8AE0E81619F0DB
:1041600090E2E916C9F685EF98E165E074E00E94F7
:1041700065C518E0E12EF12CEC0EFD1E85EF98E1EF
:10418000B7010E948EC64C855D854F5F5F4F8DB72E
:104190009EB7841B950B0FB6F8949EBF0FBE8DBFC4
:1041A0000DB71EB70F5F1F4F902E812EB02EA12E80
:1041B000C701B80120E030E00E940FC8C8010E948A
:1041C000A510AA2797FDA095BA2F809377119093F9
:1041D0007811A0937911B0937A110A97A105B105CE
:1041E00044F485EF98E160E872E00E940AC410E0B0
:1041F000F3C0C70167E072E00E94F7C98CE591E166
:104200000E940177182FB6E1CB2ED12CCC0EDD1EEB
:10421000C701FE2C092F1FC0133239F48CE591E140
:104220000E940177182F8A30C9F7C6016F2D702FB1
:104230000E947CCAC601612F0E9483C9BC018F2DD8
:10424000902F0E945ECAC6010E948ACA8CE591E145
:104250000E940177182F1A30F9F685EF98E160E196
:1042600074E00E9465C5A8E0CA2ED12CCC0EDD1EDC
:1042700085EF98E1B6010E948EC64C855D854F5F43
:104280005F4FC6016B2D7A2D20E030E00E940FC8F1
:10429000892D982D0E94A510AA2797FDA095BA2FC9
:1042A00080937B1190937C11A0937D11B0937E112C
:1042B000BC01CD010E9496CB7B018C0160917711EE
:1042C000709178118091791190917A110E9496CB1A
:1042D0009B01AC01C801B7010E94FBCA6093EF0FBC
:1042E0007093F00F8093F10F9093F20F85EF98E1A8
:1042F0006CE174E00E9465C54091EF0F5091F00FA2
:104300006091F10F7091F20F85EF98E122E030E0BB
:104310000E943AC6C60167E072E00E94F7C98CE5C8
:1043200091E10E940177182F0D2DFDE1EF2EF12C68
:10433000EC0EFD1E16C0C7016C2D702F0E947CCAAA
:10434000C701612F0E9483C9BC018C2D902F0E9450
:104350005ECAC7010E948ACA8CE591E10E9401777A
:10436000182F1A3041F785EF98E16EE274E00E9451
:1043700065C585EF98E16C2D702F0E948EC64C8527
:104380005D854F5F5F4F8C2D902F6B2D7A2D20E038
:1043900030E00E940FC8892D982D0E94A51090939F
:1043A000801180937F118CE591E10E94AC7670932F
:1043B00082116093811185EF98E162E474E00E94BC
:1043C00065C5609181117091821185EF98E14AE095
:1043D00050E00E9448C511E0CE0108960E9485CAAF
:1043E000CE0101960E9485CA812F0FB6F8947EBE39
:1043F0000FBE6DBEA3960FB6F894DEBF0FBECDBF45
:10440000CF91DF911F910F91FF90EF90DF90CF90B0
:10441000BF90AF909F908F907F906F900895EF9294
:10442000FF920F931F93DF93CF93CDB7DEB7FC01BD
:10443000EDB6FEB6448155814F5F5F4F8DB79EB795
:10444000841B950B0FB6F8949EBF0FBE8DBF0DB7A2
:104450001EB70F5F1F4FCF01B80120E030E00E9470
:104460000FC8C8010E94A5100FB6F894FEBE0FBE7B
:10447000EDBECF91DF911F910F91FF90EF900895C6
:10448000EF92FF920F931F93DF93CF93CDB7DEB7D9
:1044900027970FB6F894DEBF0FBECDBF8E010F5F1A
:1044A0001F4FC8016CE672E10E9473CAC801B7DFF2
:1044B0007C01C8010E9485CAEF2819F410920311EB
:1044C0000EC080910B11882321F081E080930311AD
:1044D00006C085EF98E160E574E00E944BC6279620
:1044E0000FB6F894DEBF0FBECDBFCF91DF911F9105
:1044F0000F91FF90EF9008950F931F93DF93CF9349
:10450000CDB7DEB72E970FB6F894DEBF0FBECDBF86
:104510008E010F5F1F4FC8016CE672E10E9473CAE3
:10452000C8017DDF9093101080930F10C8010E9486
:1045300085CA8E01085F1F4FC80163E772E10E94C0
:1045400073CAC8016CDF90930E1080930D10C801E0
:104550000E9485CA2E960FB6F894DEBF0FBECDBF5F
:10456000CF91DF911F910F910895EF92FF920F93DA
:104570001F93DF93CF93CDB7DEB76B970FB6F89449
:10458000DEBF0FBECDBFFC01EDB6FEB64481558146
:104590004F5F5F4F8DB79EB7841B950B0FB6F89496
:1045A0009EBF0FBE8DBF0DB71EB70F5F1F4FCF0150
:1045B000B80120E030E00E940FC8CE0101966AE603
:1045C00074E1A80121E00E94FA798B819C8190938B
:1045D0005F1180935E118D819E81AF81B88580933C
:1045E000601190936111A0936211B093631189855A
:1045F0009A85AB85BC858093641190936511A093D7
:104600006611B0936711A8E6B1E1FE013D968DE019
:1046100001900D928150E1F78A8D9B8D90937611D8
:1046200080937511CE0101960E946A768CE591E126
:104630000E94D276882329F485EF98E164E774E03C
:1046400007C0F0DC882341F485EF98E165E874E069
:104650000E944BC680E00DC08CE591E10E94BF76C0
:1046600060938311709384118093851190938611C8
:1046700081E00FB6F894FEBE0FBEEDBE6B960FB68E
:10468000F894DEBF0FBECDBFCF91DF911F910F9188
:10469000FF90EF900895AF92BF92CF92DF92EF928A
:1046A000FF920F931F93DF93CF93CDB7DEB76B9736
:1046B0000FB6F894DEBF0FBECDBF6C01ADB6BEB66F
:1046C00040911211509113114F5F5F4F8DB79EB7FC
:1046D000841B950B0FB6F8949EBF0FBE8DBF0DB710
:1046E0001EB70F5F1F4F8EE091E1B80120E030E070
:1046F0000E940FC87E010894E11CF11CC7016AE604
:1047000074E1A80123E10E94FA79C7010E94D276E0
:104710008823D1F085EF98E16DE874E00E9465C5CB
:1047200085EF98E16EE071E10E948EC6C701B60187
:104730000E948EC6C7010E94DF7685EF98E16EE980
:1047400074E00E944BC60CC085EF98E164EA74E007
:104750000E9465C585EF98E16EE071E10E948EC60A
:10476000CE0101960E946A760FB6F894BEBE0FBEC7
:10477000ADBE6B960FB6F894DEBF0FBECDBFCF9126
:10478000DF911F910F91FF90EF90DF90CF90BF903E
:10479000AF900895EF92FF920F931F9385E361E02E
:1047A0000E94CCBD8AE694E165E30E941A7B8823CF
:1047B00029F485EF98E163EB74E06AC085EF98E136
:1047C0006FEC74E00E944BC685EF98E161EE74E0F7
:1047D0000E944BC685E191E161E045E30E94707D56
:1047E0008823B9F485EF98E169EF74E00E944BC625
:1047F00085EF98E161E275E00E944BC685EF98E194
:104800006AE375E00E944BC685EF98E164E575E0C8
:104810003FC085EF98E168E975E00E944BC685EFDF
:1048200098E161EC75E00E9465C5809120118230AD
:1048300049F0833061F0813079F485EF98E16EECD6
:1048400075E00EC085EF98E162ED75E009C085EF77
:1048500098E166ED75E004C085EF98E16BED75E0D9
:104860000E944BC681E291E165E171E141E00E9465
:104870009A88882381F481E291E165E171E140E069
:104880000E949A88882339F485EF98E163EE75E0F9
:104890000E944BC674C085EF98E16DE276E00E94FD
:1048A00065C585EF98E1609138114AE050E00E94BB
:1048B000CAC485EF98E10E94EAC32091251130E037
:1048C00040E050E060912A1170912B1180912C11E1
:1048D00090912D11E9E0660F771F881F991FEA95C7
:1048E000D1F70E9494CD7B018C0185EF98E161E4C2
:1048F00076E00E9465C585EF98E1B801A7012AE03E
:1049000030E00E94A8C485EF98E167E576E00E9458
:1049100065C52AE016950795F794E7942A95D1F78F
:1049200085EF98E1B801A7012AE030E00E94A8C411
:1049300085EF98E16EE676E00E9465C59AE01695EF
:104940000795F794E7949A95D1F785EF98E1B80128
:10495000A7012AE030E00E94A8C485EF98E165E84D
:1049600076E00E944BC68FE391E161E271E10E9423
:10497000AF828FE391E167E040E00E94A9831F913D
:104980000F91FF90EF900895AF92BF92CF92DF9278
:10499000EF92FF920F931F938AE891E10E94F572C4
:1049A0008EEC91E10E94F5728AE891E10E949F6C81
:1049B000611571058105910509F048C06091D30F1B
:1049C0007091D40F8091D50F9091D60F2091DB0F6D
:1049D0003091DC0F4091DD0F5091DE0F260F371F15
:1049E000481F591F0E9408C75B016C016091D70FD7
:1049F0007091D80F8091D90F9091DA0F2091DF0F2D
:104A00003091E00F4091E10F5091E20F260F371FD8
:104A1000481F591F0E9408C77B018C01C601B501C0
:104A20000E9496CB5B016C01C801B7010E9496CB36
:104A30009B01AC01C601B5010E94A41C0E9463CB7E
:104A4000AB01BC018AE891E10E94346E8EEC91E1E9
:104A50000E949F6C611571058105910509F048C0A0
:104A60006091D30F7091D40F8091D50F9091D60F94
:104A70002091DB0F3091DC0F4091DD0F5091DE0F64
:104A8000260F371F481F591F0E9408C75B016C0182
:104A90006091D70F7091D80F8091D90F9091DA0F54
:104AA0002091DF0F3091E00F4091E10F5091E20F24
:104AB000260F371F481F591F0E9408C77B018C0112
:104AC000C601B5010E9496CB5B016C01C801B7011C
:104AD0000E9496CB9B01AC01C601B5010E946D1CE2
:104AE0000E9463CBAB01BC018EEC91E10E94346E5D
:104AF0001F910F91FF90EF90DF90CF90BF90AF90FC
:104B00000895EF92FF920F931F93CF93DF93C0E02E
:104B1000D0E085EF98E16FEB76E00E9465C585EF08
:104B200098E1BE014AE050E00E9448C58AE891E160
:104B30000E949F6C611571058105910509F469C09A
:104B40008EEC91E10E949F6C6115710581059105C4
:104B500009F45FC08AE891E10E94F5728EEC91E160
:104B60000E94F572E3CF6EEF7FEF8FEF9FEF23E0B0
:104B700030E040E050E00E9408C77B018C01A701B3
:104B8000662757FD6095762F8AE891E10E94456E71
:104B900085EF98E168EC76E00E9465C585EF98E1C5
:104BA000B7014AE050E00E9448C58EEC91E10E94B6
:104BB0009F6C611571058105910511F56EEF7FEF11
:104BC0008FEF9FEF23E030E040E050E00E9408C705
:104BD0007B018C01A701662757FD6095762F8EEC2F
:104BE00091E10E94456E85EF98E16EED76E00E94BE
:104BF00065C585EF98E1B7014AE050E00E9448C5DD
:104C00000E94B81D219683E0C83ED80709F081CFE5
:104C10000AC08AE891E10E949F6C611571058105C7
:104C2000910519F6A0CFDF91CF911F910F91FF90C1
:104C3000EF900895AF92BF92CF92DF92EF92FF92E2
:104C40000F931F93CF93DF93EC015B016A018BE617
:104C500090E169E070E00E94C974CA15DB059CF41C
:104C600076010027F7FC0095102F8BE690E1BE013E
:104C70000E94B273C801B7010E9407BD2196AC160D
:104C8000BD069CF712C076010027F7FC0095102F97
:104C90008BE690E1BE010E94B273C801B7010E9489
:104CA00007BD2197CA15DB059CF78BE690E10E94B2
:104CB0004673DF91CF911F910F91FF90EF90DF909E
:104CC000CF90BF90AF900895EF92FF920F931F93F4
:104CD000DF93CF93CDB7DEB727970FB6F894DEBF3B
:104CE0000FBECDBF80918C1090918D1020916E10D1
:104CF000029714F1222329F0E0901610F09017107B
:104D000004C0E0901810F09019108E010F5F1F4F33
:104D1000C8016CE672E10E9473CAC80180DB9093FF
:104D2000191080931810C8010E9485CA609118104C
:104D300070911910C7010AC0213059F46091181000
:104D400070911910809116109091171043E050E067
:104D500071DF10926E1027960FB6F894DEBF0FBE6B
:104D6000CDBFCF91DF911F910F91FF90EF900895EC
:104D7000EF92FF920F931F93DF93CF93CDB7DEB7E0
:104D800027970FB6F894DEBF0FBECDBF80918C1071
:104D900090918D1020916E10029714F1222329F02A
:104DA000E0901610F090171004C0E0901810F090EA
:104DB00019108E010F5F1F4FC8016CE672E10E944F
:104DC00073CAC8012CDB9093171080931610C8018A
:104DD0000E9485CA6091161070911710C7010AC011
:104DE000222359F4609116107091171080911810B9
:104DF0009091191043E050E01DDF81E080936E1028
:104E000027960FB6F894DEBF0FBECDBFCF91DF91CE
:104E10001F910F91FF90EF900895EF92FF920F93E3
:104E20001F93CF93DF93182F36EAE32E30E1F32E52
:104E3000C70162E344EB22E30E949F94C12FD0E0BC
:104E4000CE010196A2E1B2E1CC0FDD1FCC0FDD1F38
:104E5000FD01EC0FFD1F60817181CA0FDB1F4A81CC
:104E60005B81880F991F880F991FFD01E80FF91FBB
:104E700020813181A80FB91F12960D911C911397B3
:104E8000C7010E949A95C70162E344EB22E30E94A6
:104E9000B794C7016FEF4FEF2FEF0E949F94DF9100
:104EA000CF911F910F91FF90EF9008958F929F9255
:104EB000AF92BF92CF92DF92EF92FF920F931F9328
:104EC000DF93CF93CDB7DEB727970FB6F894DEBF49
:104ED0000FBECDBF4C0176EAC72E70E1D72EC601BA
:104EE00060E040E020E00E949F94409118125091B1
:104EF000191262E1A62E62E1B62EF5016081718180
:104F00008A01085E1F4FC601465F5F4F20E431E013
:104F10000E949A95C6016FEF4FEF2FEF0E949F946A
:104F2000C60160E040E020E00E94B7947E01089452
:104F3000E11CF11CC701B4010E9473CAF501408154
:104F400051812091181230911912265F3F4FC601EE
:104F5000B70100E010E00E946C9CC7010E9485CA66
:104F600027960FB6F894DEBF0FBECDBFCF91DF916D
:104F70001F910F91FF90EF90DF90CF90BF90AF9077
:104F80009F908F9008952F923F924F925F926F92D1
:104F90007F928F929F92AF92BF92CF92DF92EF92C9
:104FA000FF920F931F93DF93CF93CDB7DEB7E097B8
:104FB0000FB6F894DEBF0FBECDBF4C015B0158ABFE
:104FC0004FA785EF98E164EF76E00E9465C585EF15
:104FD00098E1B5010E948EC685EF98E16FE077E019
:104FE0000E944BC610924511109246111092471123
:104FF000109248111092491110924A1110924B11BF
:1050000010924C118E010F5F1F4FC80161E277E0D3
:105010000E94C5C9C50167E072E00E945EC888238E
:1050200041F4C501B8010E94B4C8882311F4772463
:105030006CC07724739469C08F85882309F47DC080
:10504000853E09F472C08E3209F46FC08A8D83FDEB
:105050006CC0C60161E277E00E94C5C9710100E041
:1050600010E0D7018C918032C9F0083041F4C601BC
:1050700068E070E00E9436C7FC01608202C0083020
:1050800028F0B8016F5F7F4FC60102C0C601B801AA
:105090000E9436C7FC01D7018C9180830F5F1F4FA0
:1050A0000894E11CF11C0B301105D9F6EFA5F8A905
:1050B0001E161F069CF4772041F085EF98E1B6019B
:1050C0000E948EC6C401B60111C0C601B5010E947E
:1050D000B4C88823B1F07724739413C0C601B50116
:1050E0000E94B4C8882349F0C401B2010E9473CA67
:1050F000CE0108960E9485CA24C0C201B6010E9452
:105100005ECAC6010E9485CA10C0AFE02A2E312CAB
:105110002C0E3D1EF8E0CF2ED12CCC0EDD1EEEE283
:105120006E2E2E010894411C511C8FE391E1B101B8
:105130000E94D18118160CF47FCFC401B5010E94E2
:1051400073CACE0101960E9485CAC401E0960FB6CB
:10515000F894DEBF0FBECDBFCF91DF911F910F91AD
:10516000FF90EF90DF90CF90BF90AF909F908F9087
:105170007F906F905F904F903F902F900895EF92A7
:10518000FF920F931F93DF93CF93CDB7DEB727978F
:105190000FB6F894DEBF0FBECDBF86EA90E160E0A7
:1051A00040E020E00E949F94409118125091191203
:1051B00060911212709113128A01085E1F4F86EAE5
:1051C00090E1465F5F4F20E431E00E949A9586EAC5
:1051D00090E16FEF4FEF2FEF0E949F9486EA90E1EE
:1051E00060E040E020E00E94B7948EE091E167E04B
:1051F00072E00E945EC8882341F48EE091E161E292
:1052000077E00E945EC8882399F040911212509175
:1052100013122091181230911912265F3F4F86EA1F
:1052200090E16EE277E000E010E00E94BA9A1DC0C3
:105230007E010894E11CF11CC7016EE071E10E943F
:1052400073CA40911212509113122091181230918A
:105250001912265F3F4F86EA90E1B70100E010E0A7
:105260000E946C9CC7010E9485CA27960FB6F894CD
:10527000DEBF0FBECDBFCF91DF911F910F91FF9089
:10528000EF9008950F931F9390E0FC013197E43263
:10529000F10508F036C6EE58FF4FEE0FFF1F0590E0
:1052A000F491E02D199480E0B8DD8091FE0F869591
:1052B00090E040911212509113124A505040480F02
:1052C000591F20911412309115122C503040280F84
:1052D000391F86EA90E163E377E000E010E00E9486
:1052E000BA9A2091FE0F269530E04091121250910B
:1052F00013124E505040420F531F80911412909140
:105300001512280F391F86EA90E167E377E0F7C5A9
:1053100080E083DD8091FE0F869590E0409112122F
:105320005091131246515040480F591F20911412AA
:10533000309115122C503040280F391F86EA90E129
:105340006CE377E000E010E00E94BA9A2091FE0F33
:10535000269530E040911212509113124650504061
:10536000420F531F8091141290911512280F391F6C
:1053700086EA90E163E477E0C2C580E04EDD80918B
:10538000FE0F869590E040911212509113124651F3
:105390005040480F591F20911412309115122C5073
:1053A0003040280F391F86EA90E16CE377E000E097
:1053B00010E00E94BA9A2091FE0F269530E04091AD
:1053C0001212509113124A505040420F531F8091B5
:1053D000141290911512280F391F86EA90E166E4A5
:1053E00077E08DC582E019DD8091FE0F869590E013
:1053F00040911A1250911B124E505040480F591FA5
:1054000020911C1230911D1222513040280F391F5B
:1054100086EA90E16AE477E000E010E00E94BA9A40
:105420008091FE0F869590E040911A1250911B12C8
:105430004E505040480F591F20911C1230911D12A0
:1054400026503040280F391F86EA90E16FE477E05C
:105450000E94BA9A8091FE0F869590E040911A12B0
:1054600050911B1246505040480F591F20911C125A
:1054700030911D122A5F3F4F280F391F86EA90E1B5
:1054800064E577E03CC584E0C8DC8091FE0F86953A
:1054900090E040912212509123124E505040480FFC
:1054A000591F209124123091251226503040280F88
:1054B000391F86EA90E167E577E09AC384E0ADDCC6
:1054C0008091FE0F869590E0409122125091231218
:1054D00042515040480F591F2091241230912512FB
:1054E0002C503040280F391F86EA90E16CE577E0B8
:1054F00000E010E00E94BA9A2091FE0F269530E05D
:10550000409122125091231242515040420F531F9A
:105510008091241290912512280F391F86EA90E17C
:1055200062E677E0ECC486E078DC8091FE0F869539
:1055300090E040912A1250912B1242515040480F56
:10554000591F20912C1230912D1226503040280FD7
:10555000391F86EA90E168E677E04AC386E05DDCC1
:105560008091FE0F869590E040912A1250912B1267
:1055700046515040480F591F20912C1230912D1246
:1055800026503040280F391F86EA90E16EE677E01A
:105590002FC384E042DC8091FE0F869590E040911D
:1055A00022125091231242515040480F591F20910E
:1055B00024123091251226503040280F391F86EAD8
:1055C00090E165E777E014C388E027DC8091FE0F67
:1055D000869590E040913212509133124A505040DB
:1055E000480F591F20913412309135122C50304001
:1055F000280F391F86EA90E16BE777E000E010E0C2
:105600000E94BA9A2091FE0F269530E04091321206
:105610005091331246505040420F531F8091341224
:1056200090913512280F391F86EA90E16FE777E0F5
:1056300066C488E0F2DB8091FE0F869590E0409191
:105640003212509133124A505040480F591F209146
:105650003412309135122C503040280F391F86EA11
:1056600090E16BE777E000E010E00E94BA9A2091A9
:10567000FE0F269530E040913212509133124E5079
:105680005040420F531F8091341290913512280FD1
:10569000391F86EA90E162E877E031C482E0BDDB41
:1056A0008091FE0F869590E040911A1250911B1246
:1056B0004C505040480F591F20911C1230911D1220
:1056C0002C503040280F391F86EA90E167E877E0D8
:1056D00000E010E00E94BA9A2091FE0F269530E07B
:1056E00040911A1250911B124C505040420F531FC0
:1056F00080911C1290911D12AFC088E08EDB8091CA
:10570000FE0F869590E040913212509133124C502A
:105710005040480F591F20913412309135122C50AF
:105720003040280F391F86EA90E161E977E000E018
:1057300010E00E94BA9A2091FE0F269530E0409129
:105740003212509133124C505040420F531F8091EF
:1057500034129091351280C086E05FDB8091FE0F9D
:10576000869590E040912A1250912B124E50504055
:10577000480F591F20912C1230912D122650304085
:10578000280F391F86EA90E166E977E031C28AE0A6
:1057900044DB8091FE0F869590E040913A12509143
:1057A0003B124E505040480F591F20913C123091EF
:1057B0003D1222513040280F391F86EA90E16AE4F9
:1057C00077E01AC08AE029DB8091FE0F869590E091
:1057D00040913A1250913B124E505040480F591F81
:1057E00020913C1230913D1222513040280F391F38
:1057F00086EA90E160EA77E000E010E00E94BA9A61
:105800008091FE0F869590E040913A1250913B12A4
:105810004E505040480F591F20913C1230913D127C
:1058200026503040280F391F86EA90E16BE977E077
:105830000E94BA9A8091FE0F869590E040913A12AC
:1058400050913B124E505040480F591F20913C122E
:1058500030913D122A5F3F4F280F391F86EA90E1B1
:105860006CE877E04CC38AE0D8DA8091FE0F869529
:1058700090E040913A1250913B124E505040480FE8
:10588000591F20913C1230913D122C503040280F6E
:10589000391F86EA90E167E577E000E010E00E94BA
:1058A000BA9A2091FE0F269530E040913A1250911D
:1058B0003B124A505040420F531F80913C1290912E
:1058C0003D12280F391F86EA90E165EA77E017C399
:1058D00082E0A3DA8091FE0F869590E040911A1243
:1058E00050911B124A505040480F591F20911C12D2
:1058F00030911D122C503040280F391F86EA90E15C
:1059000069EA77E000E010E00E94BA9A2091FE0F69
:10591000269530E040911A1250911B12425150408E
:10592000420F531F80911C1290911D12E3C188E019
:1059300074DA8091FE0F869590E04091321250917A
:1059400033124A505040480F591F20913412309161
:1059500035122C503040280F391F86EA90E163EB56
:1059600077E0B4C184E059DA8091FE0F869590E02B
:1059700040912212509123124A505040480F591F13
:1059800020912412309125122C503040280F391FBD
:1059900086EA90E169EA77E000E010E00E94BA9AB6
:1059A0002091FE0F269530E0409122125091231253
:1059B00042515040420F531F809124129091251262
:1059C0002EC08AE02ADA8091FE0F869590E0409101
:1059D0003A1250913B124A505040480F591F2091A3
:1059E0003C1230913D122C503040280F391F86EA6E
:1059F00090E163EB77E000E010E00E94BA9A20911A
:105A0000FE0F269530E040913A1250913B124251E0
:105A10005040420F531F80913C1290913D12280F2D
:105A2000391F86EA90E167EB77E069C282E0F5D939
:105A30008091FE0F869590E040911A1250911B12B2
:105A40004A505040480F591F20911C1230911D128E
:105A50002C503040280F391F86EA90E169EA77E040
:105A600000E010E00E94BA9A2091FE0F269530E0E7
:105A700040911A1250911B1240515040420F531F37
:105A800080911C1290911D122EC088E0C6D9809181
:105A9000FE0F869590E040913212509133124A5099
:105AA0005040480F591F20913412309135122C501C
:105AB0003040280F391F86EA90E163EB77E000E081
:105AC00010E00E94BA9A2091FE0F269530E0409196
:105AD00032125091331240515040420F531F809167
