:100000000C94210F0C94A9AB0C94DAAB0C940BACB0
:100010000C943CAC0C946DAC0C949EAC0C94CFAC9A
:100020000C9400AD0C944E0F0C944E0F0C944E0F8C
:100030000C944E0F0C944E0F0C944E0F0C944E0FCC
:100040000C944E0F0C9445710C944E0F0C944E0F63
:100050000C944E0F0C944E0F0C944E0F0C9431AD2B
:100060000C944E0F0C9487AF0C94CBB00C944E0FA5
:100070000C944E0F0C944E0F0C944E0F0C944E0F8C
:100080000C9418710C944E0F0C944E0F0C944E0F50
:100090000C94C7AF0C940AB10C944E0F0C944E0FF5
:1000A0000C944E0F0C944E0F0C94EB700C944E0F5E
:1000B0000C944E0F0C944E0F0C944E0F0C94BE707B
:1000C0000C944E0F0C944E0F0C944E0F0C9407B0E2
:1000D0000C9449B10C944E0F0C9447B00C9488B119
:1000E0000C944E0F5A26EA2635277E279727B027ED
:1000F000C927F92756292C2953282928F92BF92B08
:100100007F289828F92B99296F297E2A6E2B442B5A
:10011000C82B9E2B3C2A232AF329C929E42A992A91
:10012000142B8A26BA26B128FC284E2725404643A0
:1001300028402C4046433140394041406D401A42EE
:100140004242464346436A42CD4146439B40C740F4
:1001500081429242BC42E9421343F5401C41634153
:100160008A417B4279427D421D4021400B427F42C1
:10017000404305A84CCDB2D44EB93836A9020C5034
:10018000B9918688083CA6AAAA2ABE000000803F32
:10019000000000006410B71DC8206E3BAC30D926AB
:1001A0009041DC76F4516B6B5861B24D3C71055057
:1001B0002083B8ED44930FF0E8A3D6D68CB361CB7F
:1001C000B0C2649BD4D2D38678E20AA01CF2BDBD33
:1001D00050424D20696D616765206D7573742062B2
:1001E00065206174206C6561737420313020706902
:1001F00078656C7320776964652E002C206D6178BA
:100200002064656E736974793A20002C2070656EE5
:100210002077696474683A200050656E7769647469
:1002200068207465737420004368616E67696E6747
:10023000206261636B20746F206C697665206D6F3E
:1002400064652E0046696C652072656D6F76656425
:100250002E0046696C6520616C7265616479206569
:1002600078697374732E00457865637574696E6779
:1002700020636F6D6D616E643A0053746F72696EC6
:100280006720636F6D6D616E643A006D6D00436849
:10029000616E6765642050656E20776964746820BC
:1002A000746F20004E657720616363656C657261D1
:1002B00074696F6E3A20004E6577206D6178207307
:1002C000706565643A200055703A2000446F776E7F
:1002D0003A2000504753504545442C0050474C4964
:1002E00046542C005047535445504D554C5449509A
:1002F0004C4945522C005047535445505350455299
:100300005245562C0050474D4D5045525245562CA3
:1003100000504753495A452C0050474E414D452CFB
:10032000002900526563616C6320706167654865F0
:100330006967687420696E20737465707320280083
:100340002900526563616C63207061676557696459
:10035000746820696E20737465707320280029000A
:10036000292C2073746570735065724D4D202800E0
:10037000526563616C63206D6D5065725374657076
:100380002028004C6F61646564206D6F746F72206B
:1003900073746570206D756C7469706C6965723A00
:1003A000004C6F61646564206D616368696E6520EF
:1003B0006E616D653A004C6F6164656420757020F4
:1003C000706F733A004C6F6164656420646F776E80
:1003D00020706F733A004C6F61646564206D6F74B8
:1003E0006F72207374657073207065722072657609
:1003F0003A004C6F61646564206D6D2070657220F9
:100400007265763A004C6F61646564206D61636863
:10041000696E65206865696768743A004C6F61644D
:100420006564206D616368696E65207769647468CE
:100430003A002069736E2774206120636F6D6D61CF
:100440006E642049207265636F676E6973652E0064
:10045000536F7272792C200029206E6F74207061A6
:10046000727365642E00436F6D6D616E64202800A9
:10047000436865636B73756D206E6F74206D617476
:1004800063686564213A004920676F742000760034
:10049000504F4C41524752415048204F4E21007C12
:1004A0003C3E5E2B3D3F2F5B5D3B2C2A225C0008CF
:1004B0000C205F00000000000000000000000000B1
:1004C0000020202020202000200000002850500084
:1004D0000000000000000000002828FC2850FC500C
:1004E000500000002078A8A0603028A8F02000006C
:1004F0000048A8B050283454480000000020505054
:1005000078A8A8906C000000404080000000000027
:100510000000000004081010101010100804000063
:10052000402010101010101020400000000020A8E3
:100530007070A8200000000000202020F82020205B
:1005400000000000000000000000000040408000AB
:1005500000000000F80000000000000000000000A3
:100560000000000040000000081010102020404053
:1005700040800000007088888888888870000000AB
:10058000002060202020202070000000007088885B
:1005900010204080F80000000070880830080888AB
:1005A00070000000001030505090781018000000CB
:1005B00000F88080F00808887000000000709080CB
:1005C000F08888887000000000F89010202020201B
:1005D0002000000000708888708888887000000003
:1005E00000708888887808487000000000000020AB
:1005F00000000000200000000000000020000000BB
:1006000020200000040810204020100804000000F2
:10061000000000F80000F800000000004020100872
:10062000040810204000000000708888102020007E
:100630002000000000708898A8A8B880780000000A
:100640000020203050507848CC00000000F048488E
:1006500070484848F00000000078888080808088DA
:100660007000000000F0484848484848F00000008A
:1006700000F8485070504048F800000000F848501A
:1006800070504040E000000000384880809C88485E
:100690003000000000CC484878484848CC000000B2
:1006A00000F8202020202020F8000000007C1010FE
:1006B0001010101090E0000000EC485060505048BE
:1006C000EC00000000E0404040404044FC000000DE
:1006D00000D8D8D8D8A8A8A8A800000000DC48688E
:1006E00068585848E8000000007088888888888822
:1006F0007000000000F0484870404040E0000000FA
:10070000007088888888E8987018000000F04848D1
:1007100070504848EC00000000788880601008881D
:10072000F000000000F8A820202020207000000029
:1007300000CC4848484848483000000000CC4848B1
:10074000505030202000000000A8A8A87050505041
:100750005000000000D8505020205050D800000019
:1007600000D85050202020207000000000F8901089
:1007700020204048F80000003820202020202020A1
:1007800020380000404040202010101008000000D9
:100790007010101010101010107000002050000089
:1007A0000000000000000000000000000000000049
:1007B0000000FC002000000000000000000000001D
:1007C00000000000304838483C00000000C04040B5
:1007D0007048484870000000000000003848404061
:1007E0003800000000180808384848483C0000005D
:1007F000000000003048784038000000001C202035
:100800007820202078000000000000003C483040A4
:100810007844380000C0404070484848EC00000070
:100820000020000060202020700000000010000068
:10083000301010101010E00000C040405C507048B4
:10084000EC00000000E0202020202020F800000024
:1008500000000000F0A8A8A8A80000000000000008
:10086000F0484848EC0000000000000030484848CC
:100870003000000000000000F04848487040E000F0
:10088000000000003848484838081C0000000000FC
:10089000D8604040E00000000000000078403008D0
:1008A00078000000000020207020202018000000A8
:1008B00000000000D84848483C000000000000004C
:1008C000EC4850302000000000000000A8A8705044
:1008D0005000000000000000D8502050D800000058
:1008E00000000000EC4850302020C0000000000054
:1008F0007810202078000000181010102010101020
:1009000010180010101010101010101010101000FF
:10091000602020201020202020600040A41800002B
:10092000000000000000001010205F000000000028
:1009300000000000000000000000000000000000B7
:1009400000000000000000000000000000000007A0
:10095000000F800F800F800F800F800700070000BE
:10096000000000070007000700000000000E380E1E
:10097000380E380E3806300000000000000000007D
:10098000000000000000000000000000000C300C1F
:10099000300C307FFE7FFE0C300C300C300C307F82
:1009A000FE7FFE0C300C300C3000000000024002D4
:1009B000400FF81FF81A401A401FF00FF8025802B3
:1009C000581FF81FF0024002400000000000000025
:1009D000000E100E300E7000E001C0038007000E04
:1009E000700C700870000000000000000000000F94
:1009F000001980198019800F000F080F9819F81836
:100A0000F018E019F00F9800000000000000000747
:100A100000070007000E00000000000000000000BA
:100A200000000000000000000000000000000000C6
:100A3000F001C0038007000E000E000E000E00073C
:100A400000038001C000F000000000000000000F63
:100A500000038001C000E0007000700070007000B2
:100A6000E001C003800F0000000000000000000152
:100A7000801188099007E007E03FFC3FFC07E00792
:100A8000E0099011880180000000000000000000D3
:100A90000000000180018001800FF00FF001800153
:100AA0008001800000000000000000000000000045
:100AB0000000000000000000000000000000000036
:100AC000000700070007000E000000000000000003
:100AD0000000000000000000001FF81FF8000000E8
:100AE0000000000000000000000000000000000006
:100AF00000000000000000000000000000000000F6
:100B000000070007000700000000000000000000D0
:100B1000020006000E001C0038007000E001C00357
:100B20008007000E001C0000000000000000000F05
:100B3000F01C381C781CF81CF81DB81DB81F381F95
:100B4000381E381C380FF0000000000000000001C3
:100B500080018003801F801F800380038003800347
:100B600080038003801FF000000000000000000FE1
:100B7000E01C701C380038007000E001C0038007E2
:100B8000000E381C381FF800000000000000000FA5
:100B9000E01C701C380038007003C003C0007000F7
:100BA000381C381C700FE00000000000000000003E
:100BB000E001E003E006E00CE018E01FF81FF80099
:100BC000E000E000E003F800000000000000001F6B
:100BD000F81C001C001C001C001FE01FF000780027
:100BE000381C381C700FE0000000000000000003FB
:100BF000E007000E001C001C001FF01FF81C381C32
:100C0000381C381C380FF000000000000000001FE6
:100C1000FC1C1C1C1C1C1C001C0038007000E0018B
:100C2000C003800380038000000000000000000F6C
:100C3000F01C381C381C381F3807E007E01CF81C73
:100C4000381C381C380FF000000000000000000FB6
:100C5000F01C381C381C381C381FF80FF8003800FE
:100C600038007000E007C000000000000000000035
:100C70000000000380038003800000000003800365
:100C80008003800000000000000000000000000061
:100C90000000000380038003800000000003800345
:100CA00080038007000000000000000000007000CA
:100CB000E001C0038007000E001C001C000E0007AE
:100CC00000038001C000E000700000000000000090
:100CD00000000000003FFC3FFC000000003FFC3F24
:100CE000FC0000000000000000000000001C000EDE
:100CF000000700038001C000E00070007000E00108
:100D0000C0038007000E001C000000000003C00F9D
:100D1000F01E7818380038007000E001C001C000F3
:100D200000000001C001C001C0000000000FF81C5D
:100D30001C1C1C1C1C1C1C1CFC1CFC1CFC1CFC1C73
:100D4000001C001C001FF007F8000000000000035A
:100D5000C007E00E701C381C381C381C381FF81CEB
:100D6000381C381C381C3800000000000000001F30
:100D7000F00E380E380E380E380FF00FF00E380E19
:100D8000380E380E381FF000000000000000000789
:100D9000F00E381C381C001C001C001C001C001C21
:100DA000001C380E3807F000000000000000001F93
:100DB000E00E700E380E380E380E380E380E380E23
:100DC000380E380E701FE000000000000000001F09
:100DD000F80E180E080E000E300FF00FF00E300E49
:100DE000000E080E181FF800000000000000001F91
:100DF000F80E180E080E000E300FF00FF00E300E29
:100E0000000E000E001F00000000000000000007A0
:100E1000F00E381C381C381C001C001C001CF81C70
:100E2000381C380E3807F800000000000000001CD5
:100E3000701C701C701C701C701FF01FF01C701C4C
:100E4000701C701C701C7000000000000000000F7F
:100E5000E00380038003800380038003800380031A
:100E600080038003800FE00000000000000000010C
:100E7000FC007000700070007000700070387038F6
:100E800070387038700FE000000000000000001E95
:100E9000380E380E700EE00FC00F800F800FC00E9E
:100EA000E00E700E381E3800000000000000001F29
:100EB000000E000E000E000E000E000E000E000EC2
:100EC000080E180E381FF800000000000000001C7B
:100ED0001C1E3C1F7C1FFC1FFC1DDC1C9C1C1C1CC6
:100EE0001C1C1C1C1C1C1C00000000000000001C22
:100EF0001C1C1C1E1C1F1C1F9C1DDC1CFC1C7C1CA9
:100F00003C1C1C1C1C1C1C000000000000000003FA
:100F1000E007F00E381C1C1C1C1C1C1C1C1C1C1C80
:100F20001C0E3807F003E000000000000000001F66
:100F3000F00E380E380E380E380FF00FF00E000E8F
:100F4000000E000E001F0000000000000000000363
:100F5000E00F780E381C1C1C1C1C1C1C1C1C7C1C50
:100F6000FC0FF80FF8003800FC0000000000001F24
:100F7000F00E380E380E380E380FF00FF00E700EDF
:100F8000380E380E381E3800000000000000000F38
:100F9000F01C381C381C381C000FE007F000381C0F
:100FA000381C381C380FF000000000000000001F43
:100FB000FC19CC11C401C001C001C001C001C001B5
:100FC000C001C001C007F000000000000000001CCC
:100FD000701C701C701C701C701C701C701C701CB1
:100FE000701C701C700FE000000000000000001C6E
:100FF000701C701C701C701C701C701C701C701C91
:10100000700EE007C0038000000000000000001C1C
:101010001C1C1C1C1C1C1C1C1C1C9C1C9C1C9C0F9D
:10102000F80FF80770077000000000000000001CB7
:10103000701C701C700EE007C00380038007C00E98
:10104000E01C701C701C7000000000000000001C00
:10105000701C701C701C701C700EE007C0038003B5
:1010600080038003800FE000000000000000001FEC
:10107000F81C381838107000E001C0038007000E1B
:10108000081C181C381FF8000000000000000007B2
:10109000F007000700070007000700070007000728
:1010A000000700070007F00000000000000000102B
:1010B0000018001C000E000700038001C000E000C3
:1010C000700038001C00070000000000000000074E
:1010D000F000700070007000700070007000700010
:1010E000700070007007F000000000000001800335
:1010F000C007E00E701C3800000000000000000077
:1011000000000000000000000000000000000000DF
:1011100000000000000000000000000000000000CF
:10112000000000000000007FFF7FFF000000001CA7
:10113000001C000700070000000000000000000085
:10114000000000000000000000000000000000009F
:10115000000000000000000FE0007000700FF01CA5
:10116000701C701C700FD800000000000000001EF2
:10117000000E000E000E000FF00E380E380E380E66
:10118000380E380E381BF000000000000000000090
:10119000000000000000000FE01C701C701C001C10
:1011A000001C701C700FE000000000000000000038
:1011B000F80070007000700FF01C701C701C701C28
:1011C000701C701C700FD8000000000000000000B0
:1011D000000000000000000FE01C701C701FF01CDD
:1011E000001C701C700FE0000000000000000003F5
:1011F000E007700770070007001FE01FE007000707
:1012000000070007001FC0000000000000000000F1
:10121000000000000000000FD81C701C701C701C27
:10122000700FF007F000701C700FE0000000001E4F
:10123000000E000E000E000EF00F380F380E380EA4
:10124000380E380E381E3800000000000000000183
:10125000C001C001C000000FC001C001C001C00139
:10126000C001C001C00FF800000000000000000035
:101270007000700070000003F000700070007000DB
:1012800070007000701C700CF007E0000000001E81
:10129000000E000E000E000E380E700EE00FC00E95
:1012A000E00E700E381E3800000000000000000F35
:1012B000C001C001C001C001C001C001C001C00126
:1012C000C001C001C00FF8000000000000000000D5
:1012D000000000000000001FF81C9C1C9C1C9C1CB3
:1012E0009C1C9C1C9C1C9C0000000000000000003A
:1012F000000000000000001FE01C701C701C701C2F
:10130000701C701C701C70000000000000000000C9
:10131000000000000000000FE01C701C701C701C1E
:10132000701C701C700FE000000000000000000046
:10133000000000000000001BF00E380E380E380EC2
:10134000380E380FF00E000E001F000000000000E5
:10135000000000000000001FB038E038E038E0383E
:10136000E038E01FE000E000E001F00000000000D5
:10137000000000000000001EF00FF80F380E000EF5
:10138000000E000E001F0000000000000000000022
:10139000000000000000000FE01C301C300F800334
:1013A000E0187018700FE00000000000000000005E
:1013B000000100030007001FF007000700070007F7
:1013C000000770077003E00000000000000000004C
:1013D000000000000000001C701C701C701C701CC1
:1013E000701C701C700FD80000000000000000008E
:1013F000000000000000001C701C701C701C701CA1
:10140000700EE007C0038000000000000000000034
:10141000000000000000001C1C1C1C1C1C1C9C1C50
:101420009C0FF8077007700000000000000000002B
:10143000000000000000001CE01CE00FC007800757
:10144000800FC01CE01CE000000000000000000055
:10145000000000000000000E380E380E380E380E66
:101460003807F003E000E001C01F8000000000002A
:10147000000000000000001FE018E011C00380071A
:10148000000E201C601FE0000000000000000001B2
:10149000F803800380038007001C001C0007000382
:1014A000800380038001F800000000000001C001FB
:1014B000C001C001C001C001C001C001C001C00124
:1014C000C001C001C001C001C00000000000001F39
:1014D0008001C001C001C000E00038003800E00118
:1014E000C001C001C01F8000000000000000001FFC
:1014F0001C3B9C39DC38F8000000000000000000B4
:1015000000000000000000000000002032300A004F
:101510000000000000000000FFFE0001FFFF0003CC
:10152000FFFF8001FFFF600CFFFEF01E0001F83F8F
:101530000001F83F0001F83F0001F83F0001F83FCB
:101540000001F83F0001F83F0001F83F0001F83FBB
:101550000001F83F0001F83F0001F83F0001F83FAB
:101560000001F83E00007838000018200000080054
:1015700000000020000000380000183E0000783F06
:101580000001F83F0001F83F0001F83F0001F83F7B
:101590000001F83F0001F83F0001F83F0001F83F6B
:1015A0000001F83F0001F83F0001F83F0001F83F5B
:1015B0000001F83F0001F81E0000F00CFFFE600182
:1015C000FFFF0003FFFF8001FFFF0000FFFE0000A0
:1015D000000000000000000000000000000000000B
:1015E000000000000000000000000000000060009B
:1015F0000000F0000001F8000001F8000001F80010
:101600000001F8000001F8000001F8000001F800F6
:101610000001F8000001F8000001F8000001F800E6
:101620000001F8000001F8000001F8000000780057
:10163000000018000000080000000000000000008A
:1016400000001800000078000001F8000001F80018
:101650000001F8000001F8000001F8000001F800A6
:101660000001F8000001F8000001F8000001F80096
:101670000001F8000001F8000001F8000001F80086
:101680000000F0000000600000000000000000000A
:10169000000000000000000000000000000000004A
:1016A0000000000000000000FFFE0001FFFF00033B
:1016B000FFFF8001FFFF6000FFFEF0000001F80067
:1016C0000001F8000001F8000001F8000001F80036
:1016D0000001F8000001F8000001F8000001F80026
:1016E0000001F8000001F8000001F8000001F80016
:1016F0000001F80000007801FFFE1803FFFF880FCB
:10170000FFFFE027FFFFC039FFFF003E0000003F62
:101710000000003F0000003F0000003F0000003FCD
:101720000000003F0000003F0000003F0000003FBD
:101730000000003F0000003F0000003F0000003FAD
:101740000000003F0000001E0000000CFFFE000132
:10175000FFFF0003FFFF8001FFFF0000FFFE00000E
:101760000000000000000000000000000000000079
:10177000FFFE0001FFFF0003FFFF8001FFFF60008D
:10178000FFFEF0000001F8000001F8000001F80081
:101790000001F8000001F8000001F8000001F80065
:1017A0000001F8000001F8000001F8000001F80055
:1017B0000001F8000001F8000001F80000007801C5
:1017C000FFFE1803FFFF880FFFFFE007FFFFC001C8
:1017D000FFFF1800000078000001F8000001F80089
:1017E0000001F8000001F8000001F8000001F80015
:1017F0000001F8000001F8000001F8000001F80005
:101800000001F8000001F8000001F8000001F800F4
:101810000000F000FFFE6001FFFF0003FFFF8001FA
:10182000FFFF0000FFFE00000000000000000000BD
:1018300000000000000000000000000000000000A8
:10184000000000000000600C0000F01E0001F83FE6
:101850000001F83F0001F83F0001F83F0001F83FA8
:101860000001F83F0001F83F0001F83F0001F83F98
:101870000001F83F0001F83F0001F83F0001F83F88
:101880000001F83E00007839FFFE1823FFFF880FA3
:10189000FFFFE007FFFFC001FFFF18000000780016
:1018A0000001F8000001F8000001F8000001F80054
:1018B0000001F8000001F8000001F8000001F80044
:1018C0000001F8000001F8000001F8000001F80034
:1018D0000001F8000001F8000000F00000006000C6
:1018E00000000000000000000000000000000000F8
:1018F00000000000000000000000000000000000E8
:10190000FFFE0001FFFF0003FFFF8001FFFF000C4F
:10191000FFFE001E0000003F0000003F0000003FEF
:101920000000003F0000003F0000003F0000003FBB
:101930000000003F0000003F0000003F0000003FAB
:101940000000003F0000003F0000003E00000039A2
:10195000FFFE0023FFFF800FFFFFE007FFFFC00136
:10196000FFFF1800000078000001F8000001F800F7
:101970000001F8000001F8000001F8000001F80083
:101980000001F8000001F8000001F8000001F80073
:101990000001F8000001F8000001F8000001F80063
:1019A0000000F000FFFE6001FFFF0003FFFF800169
:1019B000FFFF0000FFFE000000000000000000002C
:1019C0000000000000000000FFFE0001FFFF000318
:1019D000FFFF8001FFFF000CFFFE001E0000003F24
:1019E0000000003F0000003F0000003F0000003FFB
:1019F0000000003F0000003F0000003F0000003FEB
:101A00000000003F0000003F0000003F0000003FDA
:101A10000000003E00000039FFFE0023FFFF800FA2
:101A2000FFFFE027FFFFC039FFFF183E0000783FAF
:101A30000001F83F0001F83F0001F83F0001F83FC6
:101A40000001F83F0001F83F0001F83F0001F83FB6
:101A50000001F83F0001F83F0001F83F0001F83FA6
:101A60000001F83F0001F81E0000F00CFFFE6001CD
:101A7000FFFF0003FFFF8001FFFF0000FFFE0000EB
:101A80000000000000000000000000000000000056
:101A9000FFFE0001FFFF0003FFFF8001FFFF60006A
:101AA000FFFEF0000001F8000001F8000001F8005E
:101AB0000001F8000001F8000001F8000001F80042
:101AC0000001F8000001F8000001F8000001F80032
:101AD0000001F8000001F8000001F80000007800A3
:101AE00000001800000008000000000000000000D6
:101AF00000001800000078000001F8000001F80064
:101B00000001F8000001F8000001F8000001F800F1
:101B10000001F8000001F8000001F8000001F800E1
:101B20000001F8000001F8000001F8000001F800D1
:101B30000000F00000006000000000000000000055
:101B40000000000000000000000000000000000095
:101B50000000000000000000FFFE0001FFFF000386
:101B6000FFFF8001FFFF600CFFFEF01E0001F83F49
:101B70000001F83F0001F83F0001F83F0001F83F85
:101B80000001F83F0001F83F0001F83F0001F83F75
:101B90000001F83F0001F83F0001F83F0001F83F65
:101BA0000001F83E00007839FFFE1823FFFF880F80
:101BB000FFFFE027FFFFC039FFFF183E0000783F1E
:101BC0000001F83F0001F83F0001F83F0001F83F35
:101BD0000001F83F0001F83F0001F83F0001F83F25
:101BE0000001F83F0001F83F0001F83F0001F83F15
:101BF0000001F83F0001F81E0000F00CFFFE60013C
:101C0000FFFF0003FFFF8001FFFF0000FFFE000059
:101C100000000000000000000000000000000000C4
:101C2000FFFE0001FFFF0003FFFF8001FFFF600CCC
:101C3000FFFEF01E0001F83F0001F83F0001F83FF1
:101C40000001F83F0001F83F0001F83F0001F83FB4
:101C50000001F83F0001F83F0001F83F0001F83FA4
:101C60000001F83F0001F83F0001F83E000078391C
:101C7000FFFE1823FFFF880FFFFFE007FFFFC001F3
:101C8000FFFF1800000078000001F8000001F800D4
:101C90000001F8000001F8000001F8000001F80060
:101CA0000001F8000001F8000001F8000001F80050
:101CB0000001F8000001F8000001F8000001F80040
:101CC0000000F000FFFE6001FFFF0003FFFF800146
:101CD000FFFF0000FFFE0000000000000000000009
:101CE000002100240027002A002D003000330001CD
:101CF000010000040107010A01000022002500285C
:101D0000002B002E00310034000201000005010804
:101D1000010B01000020002300260029002C002FC9
:101D2000003200000100000301060109010505055C
:101D300005070508080808020202020A0A08080442
:101D40000404040101010101010101030303030370
:101D5000030303040707070C0C0C0C0C0C0C0C02FF
:101D600002020206060606060606060B0B0B0B0B06
:101D70000B0B0B01021020200808102040102040FF
:101D8000800201020108040201010204081020403F
:101D9000808040201008040201800402018040205D
:101DA0001008040201080402010102040810204086
:101DB0008001020408102040800000090A02080B7C
:101DC0000C0D0706030401000000000000000000E5
:101DD0000000000000000000000000000000000003
:101DE000000000000011100F0000000000000000C3
:101DF000000000000000000000000000000000499A
:101E00004E46494E4954594E414ECDCCCC3D0AD751
:101E1000233C17B7D13877CC2B329595E6241FB1E8
:101E20004F0A000020410000C84200401C4620BC70
:101E3000BE4CCA1B0E5AAEC59D741D181B73F8B25A
:101E4000181811241FBECFEFD1E2DEBFCDBF00E0D6
:101E50000CBF10E1A0E0B2E0EAE3FEE701E00BBF57
:101E600002C007900D92A232B107D9F71BBE19E14B
:101E7000A2E2B0E101C01D92A032B107E1F71EE17C
:101E8000C0E4DEE104C02297FE010E94CBBECA334B
:101E9000D107C9F70E942EB40C9411BF0C94000016
:101EA000A0E0B0E0E6E5FFE00C94E2BEEC01A88023
:101EB000B980CA80DB80A114B104C104D10441F40B
:101EC00084E2A82E89EDB82E8BE5C82E87E0D82EA7
:101ED000C601B5012DE133EF41E050E00E94AEBEF6
:101EE00027EA31E440E050E00E943ABE7B018C01D9
:101EF000C601B5012DE133EF41E050E00E94AEBED6
:101F0000CA01B9012CEE34EF4FEF5FEF0E943ABEE9
:101F10006E0D7F1D801F911F97FF04C061507040A0
:101F200080409048688379838A839B839B01AC01BE
:101F30005F77B901CA01CDB7DEB7EAE00C94FEBE07
:101F4000AFCF85E69FE0ACCF6093650F7093660FCF
:101F50008093670F9093680F089566277727C8C00E
:101F6000FC0188279927E89421912032E9F3293050
:101F700010F02E30C8F32B3239F02D3231F4689442
:101F800003C0AED0820F911D219120532A30C8F397
:101F90001EF4909581959F4F08951F93FC019927FA
:101FA0008827BC01E89411911032E9F3193010F040
:101FB0001E30C8F31B3249F01D3241F4689405C04D
:101FC0007AD0610F711D811D911D119110531A302E
:101FD000B8F33EF490958095709561957F4F8F4F43
:101FE0009F4F1F910895FB01DC0104C08D9101906A
:101FF000801921F441505040C8F7881B990B08956F
:10200000FB01DC0102C001900D9241505040D8F715
:102010000895FC018191861721F08823D9F799272B
:1020200008953197CF010895FB01DC018D91019056
:1020300080190110D9F3990B0895FB01DC0101907F
:102040000D920020E1F70895FB01DC014150504062
:1020500030F08D910190801919F40020B9F7881B98
:10206000990B0895FB01DC014150504048F001906C
:102070000D920020C9F701C01D9241505040E0F779
:102080000895FB0151915523A9F0BF01DC014D9149
:1020900045174111E1F759F4CD010190002049F0B5
:1020A0004D9140154111C9F3FB014111EFCF81E082
:1020B00090E001970895592F482F372F262F660F4C
:1020C000771F881F991F660F771F881F991F620F40
:1020D000731F841F951F660F771F881F991F089510
:1020E0007AE0979F902D879F802D910D1124089560
:1020F000A0E0B0E0EEE7F0E10C94E0BEEC015B01A3
:102100006115710519F0FB0191838083F9908F2D82
:1021100090E00E94CFBE892BC9F7FDE2FF1621F4A3
:10212000F990EE24E39405C02BE2F21609F4F9903D
:10213000EE248E0101501040C8016FEF7DE143E0B5
:1021400050E033D1892BF9F48E010E5F1F4FC80187
:1021500062E07EE145E050E028D1892B19F48E0140
:10216000095F1F4FA114B10419F0F5011183008319
:10217000E0FC04C070E090E080E813C070E090E004
:1021800080E86FEF07C1C80167E07EE143E050E0FF
:102190000CD1892B69F4A114B10429F470E090E00A
:1021A00080EC6FE7F7C02296F501D183C083F6CFAC
:1021B0008824992440E050E060E070E0EF2DE05387
:1021C000EA30A0F5F2E0EF2A8E2D90E09C01287015
:1021D0003070E2FE06C0232B79F50894811C911C17
:1021E0002BC0232B19F0089481089108DB01CA0148
:1021F00012E0880F991FAA1FBB1F1A95D1F7480F2D
:10220000591F6A1F7B1F440F551F661F771F4E0FF4
:10221000511D611D711D483929E9520729E96207DD
:1022200029E1720748F084E0E82A06C0EE3F31F465
:10223000E3FC39C098E0E92AF990C0CFE53311F00A
:10224000E53189F529912D3219F4E0E1EE2A05C036
:102250002B3219F081E090E003C0299182E090E0F8
:10226000E22FE053EA3018F0C81BD90B1CC020E065
:1022700030E0FCE020383F075CF4C901880F991F6B
:10228000880F991F280F391F220F331F2E0F311D62
:10229000E991E053EA3068F3E4FE03C030952195FC
:1022A0003F4F820E931ECE2CDD24E1FE07C0A11409
:1022B000B10421F02197F501D183C083CB01BA018C
:1022C0000E943ABC7B018C01F3E0CF22DD2423E0A5
:1022D000C216D10421F417FB109517F91095570178
:1022E0006801C801B70120E030E040E050E00E9402
:1022F0009ABB882309F44AC097FE0DC02EE1E22E56
:102300002EE1F22E9094819491089394C0E2D0E053
:1023100000E010E012C096E3E92E9EE1F92EF6CF20
:10232000F7012591359145915491C601B5010E945F
:1023300032BD5B016C018C1A9D0A8C169D0684F7D8
:10234000D595C7950F5F1F4F0630110529F08CEF0B
:102350009FEFE80EF91EF1CFC501D6017C018D017A
:102360008C2D880F8D2D881F8F3F51F0C601B50130
:1023700020E030E040E050E00E949ABB882331F436
:1023800082E290E090931F1980931E197E2D9F2D5D
:10239000802F612F272F392F482F562FB901CA01BF
:1023A000CDB7DEB7ECE00C94FCBEFB01DC01415084
:1023B000504088F08D9181341CF08B350CF4805E98
:1023C000659161341CF06B350CF4605E861B611105
:1023D00071F3990B0895881BFCCF982F8091B80F4B
:1023E000813049F59430B9F0953030F4913059F09E
:1023F000923009F0AAC0AAC09530A9F0963009F031
:10240000A4C083E2089580913E11882311F480E2F4
:10241000089581E2089580917B0F882311F485E06F
:10242000089584E0089580912610882311F487E0B0
:10243000089588E008958091B80F8630C9F49430EB
:1024400009F486C0953030F4923061F0933009F091
:102450007CC00AC0953021F0963009F076C006C0E5
:1024600089E008958AE0089583E1089582E108955E
:102470008091B80F8430C9F4943009F469C0953064
:1024800030F4923061F0933009F05FC00AC09530AB
:1024900021F0963009F059C006C08BE108958CE117
:1024A00008958AE1089589E108958091B80F8530F3
:1024B000C1F4943009F44CC0953030F4923059F0A6
:1024C000933009F042C009C0953019F09630E9F513
:1024D00006C085E1089586E1089588E1089587E1C1
:1024E00008958091B80F8330D1F4943051F0953035
:1024F00018F4923051F507C0953039F0963029F52F
:1025000006C08FE008958CE008958BE008958091D7
:102510003D11882311F480E1089582E208958091AD
:10252000B80F873091F4933051F0943018F4923012
:1025300061F407C0943061F0953039F404C08EE145
:1025400008958FE108958DE10895089582E008953A
:1025500084E10895AF92BF92CF92DF92EF92FF9203
:102560000F931F936E157F058007910734F42E1586
:102570003F054007510764F42CC0E616F70608072C
:10258000190794F4A216B306C406D5063CF423C07A
:10259000A216B306C406D506BCF41FC02A153B0517
:1025A0004C055D05C4F41BC06E157F0580079107BF
:1025B00091F42A153B054C055D058CF0A216B30677
:1025C000C406D50644F409C02A153B054C055D0533
:1025D00011F484E005C082E003C083E001C081E023
:1025E0001F910F91FF90EF90DF90CF90BF90AF9031
:1025F0000895EF92FF920F931F937B018C01662742
:1026000057FD6095762FCB01BA010E943CBC20910A
:102610002E1030912F1040913010509131100E94A7
:1026200032BDA80197010E94A1BB7B018C0120E073
:1026300030E040E050E40E942EBD87FF03C061E01F
:1026400070E004C0C801B7010E9409BCCB011F9112
:102650000F91FF90EF9008956F927F928F929F92CB
:10266000AF92BF92CF92DF92EF92FF920F931F93A0
:10267000CF93DF937C015B01662757FD6095762F32
:10268000CB01BA010E943CBC3B014C010027F7FC86
:102690000095102FC801B7010E943CBC7B018C0142
:1026A000CC24B7FCC094DC2CC601B5010E943CBC14
:1026B0009B01AC01C801B7010E94A1BBA401930119
:1026C0000E9432BD9B01AC01C401B3010E9435BB25
:1026D0007B018C010E9409BCEB01BE01882777FDBC
:1026E0008095982F0E943CBC9B01AC01C801B701AA
:1026F0000E9435BB20E030E040E05FE30E942EBD49
:1027000018160CF42196CE01DF91CF911F910F91F5
:10271000FF90EF90DF90CF90BF90AF909F908F9001
:102720007F906F900895CF92DF92EF92FF920F9378
:102730001F93CF93DF93EC016B01688179818A81CC
:102740009B812091BD0F3091BE0F4091BF0F5091E2
:10275000C00F0E9432BD688379838A839B83F60110
:1027600060817181828193812091C10F3091C20F6C
:102770004091C30F5091C40F0E9432BD7B018C0168
:10278000F601608371838283938320916813309173
:102790006913C9018E978A35910580F428813981A2
:1027A0004A815B81D801C701B05888839983AA8385
:1027B000BB83208331834283538329C0C901885856
:1027C00090408A35910580F488819981AA81BB81E6
:1027D000B05888839983AA83BB83F6018081918155
:1027E000A281B381B0580FC0225E30402A35310536
:1027F00070F488819981AA81BB81E882F9820A8379
:102800001B83B058F60180839183A283B3836881D0
:1028100079818A819B8120916A1330916B13409159
:102820006C1350916D130E9436BB688379838A8341
:102830009B83F601608171818281938120916E1367
:1028400030916F1340917013509171130E9436BBF9
:10285000F6016083718382839383DF91CF911F910F
:102860000F91FF90EF90DF90CF9008952F923F92BD
:102870004F925F926F927F928F929F92AF92BF9290
:10288000CF92DF92EF92FF920F931F933B014C0187
:1028900059016A016091361070913710809138109B
:1028A000909139100E943CBC7B018C01A8019701DA
:1028B0000E9432BD1B012C01C601B501A601950184
:1028C0000E9432BD5B016C01C401B301A4019301FC
:1028D0000E9432BD9B01AC01C601B5010E9436BB0E
:1028E0009B01AC01C201B1010E9435BB5B016C01CF
:1028F000C801B701A80197010E9436BB9B01AC013A
:10290000C601B5010E94A1BB1F910F91FF90EF90EE
:10291000DF90CF90BF90AF909F908F907F906F90FF
:102920005F904F903F902F9008950F931F93CF93F8
:10293000DF93242F2627A22FB0E0AF70B070AA0F2C
:10294000BB1FAA0FBB1FC0E9D1E0AC0FBD1FFD012B
:102950000591159125913491E4E0969587957795A9
:102960006795EA95D1F70627172728273927429533
:102970004F70402750E04F705070440F551F440F68
:10298000551F4C0F5D1FFA0185919591A591B4914A
:1029900044E036952795179507954A95D1F708276E
:1029A00019272A273B27B801C901DF91CF911F9131
:1029B0000F910895CF92DF92EF92FF920F931F93A2
:1029C0008130910509F032C26F5F7F4F09F029C352
:1029D00080EE91E160E072E00E946BBA83E290E1E8
:1029E0000E945A6E87E290E165E072E00E946BBA45
:1029F00087EE91E166E072E00E946BBA60916F0F22
:102A00007091700F882777FD8095982F2091690F1E
:102A100030916A0F442737FD4095542F0E943ABEEB
:102A20000E943CBC7B018C0160916B0F70916C0F1C
:102A300080916D0F90916E0FA80197010E94A1BB2C
:102A400060932E1070932F1080933010909331105C
:102A5000C801B70120916B0F30916C0F40916D0F41
:102A600050916E0F0E94A1BB7B018C0160933210CC
:102A70007093331080933410909335106091B90F98
:102A80007091BA0F882777FD8095982F0E943CBCE3
:102A9000A80197010E9432BD0E9409BC60933610C4
:102AA0007093371080933810909339106091BB0F5A
:102AB0007091BC0F882777FD8095982F0E943CBCB1
:102AC000A80197010E9432BD0E9409BC60933A1090
:102AD00070933B1080933C1090933D108EEE91E1EB
:102AE0006FE072E00E946BBA85EF91E161E172E004
:102AF0000E946BBA8CEF91E165E172E00E946BBAC3
:102B000083E092E16DE172E00E946BBA8AE092E1AB
:102B100060E572E00E946BBA81E192E160E572E0EB
:102B20000E946BBA88E192E160E572E00E946BBAA4
:102B30008FE192E160E572E00E946BBA86E292E179
:102B40006FE572E00E946BBA8DE292E169E672E095
:102B50000E946BBA84E392E160E772E00E946BBA74
:102B60008BE392E168E772E00E946BBA82E492E143
:102B700063E872E00E946BBA89E492E166E272E176
:102B80000E9419BB8EE490E165E072E00E946BBA8E
:102B900080E592E169E872E00E946BBA87E592E114
:102BA0006BE872E00E946BBA8EE592E160E972E038
:102BB0000E946BBA85E692E164E972E00E946BBA0A
:102BC0008CE692E168E972E00E946BBA83E792E1D9
:102BD0006CE972E00E946BBA8AE792E160EA72E007
:102BE0000E946BBA81E892E164EA72E00E946BBADB
:102BF00088E892E168EA72E00E946BBA8FE892E19D
:102C00006CEA72E00E946BBA86E992E160EB72E0D6
:102C10000E946BBA8DE992E164EB72E00E946BBA9C
:102C200084EA92E168EB72E00E946BBA8BEA92E16F
:102C30006CEB72E00E946BBA82EB92E160EC72E0A6
:102C40000E946BBA89EB92E164EC72E00E946BBA6D
:102C500080EC92E168EC72E00E946BBA87EC92E142
:102C60006CEC72E00E946BBA8EEC92E160ED72E067
:102C70000E946BBA85ED92E164ED72E00E946BBA3E
:102C80008CED92E168ED72E00E946BBA83EE92E106
:102C90006CED72E00E946BBA8AEE92E160EE72E037
:102CA0000E946BBA81EF92E164EE72E00E946BBA0F
:102CB00088EF92E168EE72E00E946BBA8FEF92E1CA
:102CC0006CEE72E00E946BBA86E093E160EF72E016
:102CD0000E946BBA8DE093E164EF72E00E946BBAE0
:102CE00084E193E168EF72E00E946BBA8BE193E1BB
:102CF0006CEF72E00E946BBA82E293E160E073E0F5
:102D00000E946BBA89E293E164E073E00E946BBABF
:102D100080E393E168E073E00E946BBA87E393E19C
:102D20006CE073E00E946BBA8EE393E160E173E0C4
:102D30000E946BBA85E493E164E173E00E946BBA90
:102D40008CE493E168E173E00E946BBA83E593E160
:102D50006CE173E00E946BBA8AE593E160E273E094
:102D60000E946BBA81E693E164E273E00E946BBA61
:102D70008EE590E166E046E250E027E230E008E2CE
:102D800010E079E2E72EF12CCC24DD240E9468A427
:102D900088E890E16BE04CE022E103E1B2E0EB2E49
:102DA0000E940AA68AEB90E165E072E00E946BBA8D
:102DB00084EC90E165E072E00E946BBA1092D01052
:102DC0001092D1101092D4101092D61082E090E0A0
:102DD000A0E0B0E08093D7109093D810A093D910C2
:102DE000B093DA101092EE101092F8101092F710C3
:102DF0008EE090E19093F6108093F5101092FA1007
:102E000082E191E10E94857180E491E161E044E01A
:102E100025E004E0A5E0EA2E0E94926C84E891E1AE
:102E200061E047E028E00E94926CFBC0892B09F02A
:102E3000F8C06F5F7F4F09F0F4C082E191E10E941A
:102E4000987184EC90E10E942BBB8AEB90E10E9488
:102E50002BBB81E693E10E942BBB8AE593E10E94A4
:102E60002BBB83E593E10E942BBB8CE493E10E9492
:102E70002BBB85E493E10E942BBB8EE393E10E9480
:102E80002BBB87E393E10E942BBB80E393E10E947D
:102E90002BBB89E293E10E942BBB82E293E10E946B
:102EA0002BBB8BE193E10E942BBB84E193E10E9459
:102EB0002BBB8DE093E10E942BBB86E093E10E9447
:102EC0002BBB8FEF92E10E942BBB88EF92E10E9417
:102ED0002BBB81EF92E10E942BBB8AEE92E10E9414
:102EE0002BBB83EE92E10E942BBB8CED92E10E9402
:102EF0002BBB85ED92E10E942BBB8EEC92E10E94F0
:102F00002BBB87EC92E10E942BBB80EC92E10E94EC
:102F10002BBB89EB92E10E942BBB82EB92E10E94DA
:102F20002BBB8BEA92E10E942BBB84EA92E10E94C8
:102F30002BBB8DE992E10E942BBB86E992E10E94B6
:102F40002BBB8FE892E10E942BBB88E892E10E94A4
:102F50002BBB81E892E10E942BBB8AE792E10E94A1
:102F60002BBB83E792E10E942BBB8CE692E10E948F
:102F70002BBB85E692E10E942BBB8EE592E10E947D
:102F80002BBB87E592E10E942BBB80E592E10E947A
:102F90002BBB8EE490E10E942BBB89E492E10E945E
:102FA0002BBB82E492E10E942BBB8BE392E10E9457
:102FB0002BBB84E392E10E942BBB8DE292E10E9445
:102FC0002BBB86E292E10E942BBB8FE192E10E9433
:102FD0002BBB88E192E10E942BBB81E192E10E9430
:102FE0002BBB8AE092E10E942BBB83E092E10E941E
:102FF0002BBB8CEF91E10E942BBB85EF91E10E94EE
:103000002BBB8EEE91E10E942BBB87EE91E10E94DB
:103010002BBB87E290E10E942BBB80EE91E10E94E6
:103020002BBB1F910F91FF90EF90DF90CF900895F1
:1030300080E090E06FEF7FEFBDCC81E090E06FEF3C
:103040007FEFB8CCCF92DF92EF92FF920F931F9356
:10305000CF93DF936C01EE24EA94FE2C8701C0E04D
:10306000D0E00BC0C601BE010E94CBB7482FC801FB
:10307000B7015BDC7B018C012196F601848195818F
:10308000C817D90778F3A801970120953095409586
:103090005095B901CA01DF91CF911F910F91FF9017
:1030A000EF90DF90CF9008950F931F9384E090E00E
:1030B0000E9438A98C010E94BFA92DB73EB7201BE2
:1030C000310BC9011F910F910895EEDF9C01809192
:1030D00042109091431028173907D1F030934310D4
:1030E0002093421083E998E16CEF71E10E9402B7EE
:1030F000609142107091431083E998E14AE050E0FA
:103100000E94DCB583E998E167E572E10C9434B77D
:10311000089583E998E16DE272E10C9434B783E994
:1031200098E166E272E10C9434B7AF92BF92CF920D
:10313000DF92EF92FF920F931F937B018C01CA01E4
:10314000B9010E9432BD5B016C01C801B701A80141
:1031500097010E9432BD9B01AC01C601B5010E94DE
:1031600035BB0E949FBD1F910F91FF90EF90DF90A4
:10317000CF90BF90AF9008956F927F928F929F9261
:10318000AF92BF92CF92DF92EF92FF920F931F9375
:103190007B018C016BDB5B016C01A8019701C5DF32
:1031A0003B014C01E0908B0FF0908C0F00918D0F44
:1031B00010918E0FC801B7010E943CBC9B01AC016D
:1031C000C601B5010E949ABB87FD4AC08091930F4A
:1031D0009091940FA091950FB091960FE80EF91E63
:1031E0000A1F1B1FC801B7010E943CBC9B01AC0118
:1031F000C601B5010E942EBD181694F1E0908F0F04
:10320000F090900F0091910F1091920FC801B701AB
:103210000E943CBC9B01AC01C401B3010E949ABB5B
:1032200087FD1EC0DD248091970F9091980FA0918B
:10323000990FB0919A0FE80EF91E0A1F1B1FC801C3
:10324000B7010E943CBC9B01AC01C401B3010E94C8
:103250002EBD181614F4DD24D39481E0D82601C0C5
:10326000DD248D2D1F910F91FF90EF90DF90CF9077
:10327000BF90AF909F908F907F906F900895AF9286
:10328000BF92CF92DF92EF92FF920F931F937B0139
:103290008C0159016A01609136107091371080914C
:1032A0003810909139100E943CBCA80197010E94EF
:1032B00035BB9B01AC010E9432BD7B018C01C60174
:1032C000B501A60195010E9432BD9B01AC01C80168
:1032D000B7010E9436BB0E949FBD1F910F91FF90C6
:1032E000EF90DF90CF90BF90AF900895AF92BF92D4
:1032F000CF92DF92EF92FF920F931F937B018C018D
:1033000059016A01A80197010E9432BD7B018C011D
:10331000C601B501A60195010E9432BD9B01AC0119
:10332000C801B7010E9436BB0E949FBD1F910F913B
:10333000FF90EF90DF90CF90BF90AF9008952F92C5
:103340003F924F925F926F927F928F929F92AF9235
:10335000BF92CF92DF92EF92FF920F931F93DF9372
:10336000CF9300D00F92CDB7DEB769837A838B837A
:103370009C8359016A0117012801611571058105B6
:10338000910559F40F2EF0E0EF2EF0E0FF2EF0E063
:103390000F2FF0E01F2FF02DA4C0CA01B9010E9429
:1033A00032BD7B018C01C601B50120E030E040E078
:1033B00050E00E949ABB882324F417FB109517F95C
:1033C0001095C201B101A20191010E9436BB3B01DF
:1033D0004C01C801B701A40193010E94A1BB7B016C
:1033E0008C0169817A818B819C810E943CBC9B010C
:1033F000AC01C801B7010E949ABB8823B4F5C6018D
:10340000B50120E030E040E050E00E949ABB882304
:1034100029F4C401B3010E949FBD0DC0C201B101D6
:10342000A60195010E94A1BB9B01AC015F77C6017B
:10343000B5010E9436BB7B018C01D090710FC0900A
:10344000720FB090730FA090740F2D2D3C2D4B2D4B
:103450005A2D0E942EBD18160CF043C08D2D9C2DA8
:10346000AB2DBA2D7C018D013CC0C601B50120E019
:1034700030E040E050E00E949ABB882359F4C40138
:10348000B3010E949FBD7B018C0117FB109517F9BA
:1034900010950FC0C201B101A60195010E94A1BB08
:1034A0009B01AC015F77C601B5010E9435BB7B0172
:1034B0008C018091710F9091720FA091730FB09158
:1034C000740F5C016D01D7FAD094D7F8D094C8017D
:1034D000B701A60195010E949ABB882314F48601C6
:1034E0007501B701C8010F900F900F900F90CF9109
:1034F000DF911F910F91FF90EF90DF90CF90BF90E1
:10350000AF909F908F907F906F905F904F903F9083
:103510002F900895EF92FF920F931F9380917A0F4F
:10352000882309F456C083E998E162E472E10E94BD
:1035300002B780E491E10E94DD670E943CBC7B0100
:103540008C0160916F0F7091700F882777FD8095C7
:10355000982F0E943CBC9B01AC01C801B7010E949E
:10356000A1BB0E9409BCAB01BC0183E998E12AE040
:1035700030E00E948CB583E998E160E572E10E9439
:1035800002B784E891E10E94DD670E943CBC7B01A8
:103590008C0160916F0F7091700F882777FD809577
:1035A000982F0E943CBC9B01AC01C801B7010E944E
:1035B000A1BB0E9409BCAB01BC0183E998E12AE0F0
:1035C00030E00E948CB583E998E167E572E10E94E2
:1035D00034B71F910F91FF90EF900895EF92FF92F3
:1035E0000F931F9380913E1090913F10A091401037
:1035F000B09141100097A105B10509F03FC060915D
:1036000036107091371080913810909139100E94C7
:103610003CBC7B018C0160913A1070913B10809111
:103620003C1090913D100E943CBC9B01AC01C80134
:10363000B7015CDE20E030E040E05FE30E9436BB93
:103640000E9409BC60933E1070933F10809340101D
:103650009093411083E998E168E273E00E940BB611
:1036600040913E1050913F10609140107091411078
:1036700083E998E12AE030E00E94CAB560913E10EB
:1036800070913F1080914010909141101F910F91C7
:10369000FF90EF900895CF92DF92EF92FF920F93F9
:1036A0001F937B018C01F3E9CF2EF8E1DF2EC601D9
:1036B0006FE373E00E940BB6C601B801A70122E0D8
:1036C00030E00E94E0B6C60165E573E00E940BB6EB
:1036D00060916F0F7091700FC6014AE050E00E9438
:1036E000DCB5C60167E673E00E940BB660916F0F10
:1036F0007091700F882777FD8095982F0E943CBCB1
:10370000AB01BC01C60122E030E00E94E0B660914E
:103710006F0F7091700F882777FD8095982F0E940A
:103720003CBC9B01AC01C801B7010E9432BD7B01CA
:103730008C01C6016EE673E00E940BB6C601A701BC
:10374000B80122E030E00E94E0B6B701C8011F9145
:103750000F91FF90EF90DF90CF90089583E998E16B
:1037600064E773E00C94F1B683E998E168E272E0F3
:103770000E94B0B41092C31008958F929F92AF929E
:10378000BF92CF92DF92EF92FF920F931F936C0143
:103790007B0183E998E16BE873E00E940BB683E953
:1037A00098E1B6014AE050E00E94DCB583E998E177
:1037B00064E973E00E940BB683E998E1B7014AE03F
:1037C00050E00E94EEB583E998E169E973E00E9458
:1037D0000BB6609137117091381183E998E14AE096
:1037E00050E00E94EEB583E998E169EA73E00E9437
:1037F0000BB640912D1150912E1160912F117091A7
:10380000301183E998E12AE030E00E94CAB5460110
:10381000AA2497FCA094BA2C80913711909138116A
:10382000AA2797FDA095BA2F880E991EAA1EBB1E27
:103830000027F7FC0095102F20912D1130912E11AB
:1038400040912F1150913011C801B7010E943ABE2A
:10385000860E971EA81EB91E83E998E163EB73E0FC
:103860000E940BB683E998E1B501A4012AE030E09B
:103870000E948CB58091391190913A11A0913B1121
:10388000B0913C1188159905AA05BB0514F41FEFEA
:1038900018C082E191E1B501A4010E941F7282E18A
:1038A00091E10E942F72182F83E998E16CEB73E08D
:1038B0000E940BB683E998E1612F4AE050E00E9434
:1038C00070B5812F1F910F91FF90EF90DF90CF90F7
:1038D000BF90AF909F908F9008950F931F93CF93B9
:1038E000DF93EC018B0183E998E16BEC73E00E94BC
:1038F0000BB683E998E1BE014AE050E00E94DCB5D6
:1039000083E998E16EEC73E00E940BB683E998E1DD
:10391000B8014AE050E00E94EEB58091C81190E0F5
:10392000C817D9079CF08091CA1190E08C179D07A9
:103930006CF08091C91190E0081719073CF0809154
:10394000CB1190E0801791070CF083C08091CC11CF
:1039500090E0C817D907A4F08091CE1190E08C17A1
:103960009D0774F08091CD1190E00817190744F07D
:103970008091CB1190E08017910714F082E06AC02B
:103980008091D01190E0C817D907A4F08091D2118E
:1039900090E08C179D0774F08091D11190E008178A
:1039A000190744F08091D31190E08017910714F02B
:1039B00083E050C08091D41190E0C817D907A4F0DB
:1039C0008091D61190E08C179D0774F08091D511ED
:1039D00090E00817190744F08091D71190E0801704
:1039E000910714F084E036C08091D81190E0C81798
:1039F000D907A4F08091DA1190E08C179D0774F03C
:103A00008091D91190E00817190744F08091DB11DB
:103A100090E08017910714F085E01CC08091DC11C4
:103A200090E0C817D907A4F08091DE1190E08C17C0
:103A30009D0774F08091DD1190E00817190744F09C
:103A40008091DF1190E08017910714F086E002C0AA
:103A500001C081E0DF91CF911F910F9108956F9286
:103A60007F928F929F92AF92BF92CF92DF92EF920E
:103A7000FF920F931F93DF93CF93CDB7DEB7A3973A
:103A80000FB6F894DEBF0FBECDBF6DB67EB682E135
:103A900091E140E050E060E070E00E941F727E0122
:103AA0000894E11CF11CC70163ED73E00E946BBA3E
:103AB00082E191E10E942F72182FC70160E070E04F
:103AC0000E94DCB7FC01108382E191E10E942F7219
:103AD000182FC70161E070E00E94DCB7FC01108381
:103AE000C70166ED73E00E9404B9882399F483E965
:103AF00098E169ED73E00E940BB683E998E1B701A4
:103B00000E9402B783E998E167EF73E00E94F1B683
:103B100010E083C183E998E162E174E00E94F1B6AC
:103B200082E191E10E942F728E01085F1F4FC80150
:103B300065E072E00E946BBA82E191E10E942F720F
:103B4000E82E9FE0C92ED12CCC0EDD1EF02E012FC9
:103B500021C083E2E81641F482E191E10E942F72D4
:103B6000E82E9AE0E916C1F7C6016F2D702F0E946A
:103B700022BBC6016E2D0E9429BABC018F2D902F49
:103B80000E9404BBC6010E9430BB82E191E10E9409
:103B90002F72E82E8AE0E81619F090E2E916C9F6CD
:103BA00083E998E168E374E00E940BB688E0E82EB0
:103BB000F12CEC0EFD1E83E998E1B7010E9434B7A9
:103BC0004C855D854F5F5F4F8DB79EB7841B950B0E
:103BD0000FB6F8949EBF0FBE8DBF0DB71EB70F5F17
:103BE0001F4F902E812EB02EA12EC701B80120E0CC
:103BF00030E00E94B5B8C8010E94B00FAA2797FD17
:103C0000A095BA2F80932D1190932E11A0932F1170
:103C1000B09330110A97A105B10544F483E998E106
:103C200060ED71E00E94B0B410E0F3C0C70165E040
:103C300072E00E949DBA82E191E10E942F72182FDA
:103C400006E1C02ED12CCC0EDD1EC701FE2C092FA3
:103C50001FC0133239F482E191E10E942F72182FB4
:103C60008A30C9F7C6016F2D702F0E9422BBC60192
:103C7000612F0E9429BABC018F2D902F0E9404BB96
:103C8000C6010E9430BB82E191E10E942F72182F81
:103C90001A30F9F683E998E163E474E00E940BB608
:103CA000B8E0CB2ED12CCC0EDD1E83E998E1B60115
:103CB0000E9434B74C855D854F5F5F4FC6016B2D09
:103CC0007A2D20E030E00E94B5B8892D982D0E9411
:103CD000B00FAA2797FDA095BA2F8093311190932A
:103CE0003211A0933311B0933411BC01CD010E9465
:103CF0003CBC7B018C0160912D1170912E11809143
:103D00002F11909130110E943CBC9B01AC01C80165
:103D1000B7010E94A1BB6093A70F7093A80F809377
:103D2000A90F9093AA0F83E998E16FE474E00E94D1
:103D30000BB64091A70F5091A80F6091A90F7091F9
:103D4000AA0F83E998E122E030E00E94E0B6C601C4
:103D500065E072E00E949DBA82E191E10E942F72BB
:103D6000182F0D2DADE1EA2EF12CEC0EFD1E16C024
:103D7000C7016C2D702F0E9422BBC701612F0E94CA
:103D800029BABC018C2D902F0E9404BBC7010E9450
:103D900030BB82E191E10E942F72182F1A3041F757
:103DA00083E998E161E674E00E940BB683E998E14B
:103DB0006C2D702F0E9434B74C855D854F5F5F4F2F
:103DC0008C2D902F6B2D7A2D20E030E00E94B5B81D
:103DD000892D982D0E94B00F909336118093351144
:103DE00082E191E10E94DA7170933811609337118A
:103DF00083E998E165E774E00E940BB660913711A2
:103E00007091381183E998E14AE050E00E94EEB5E4
:103E100011E0CE0108960E942BBBCE0101960E94B4
:103E20002BBB812F0FB6F8947EBE0FBE6DBEA3963E
:103E30000FB6F894DEBF0FBECDBFCF91DF911F91BB
:103E40000F91FF90EF90DF90CF90BF90AF909F9039
:103E50008F907F906F900895EF92FF920F931F9332
:103E6000DF93CF93CDB7DEB7FC01EDB6FEB644814C
:103E700055814F5F5F4F8DB79EB7841B950B0FB673
:103E8000F8949EBF0FBE8DBF0DB71EB70F5F1F4FBB
:103E9000CF01B80120E030E00E94B5B8C8010E940F
:103EA000B00F0FB6F894FEBE0FBEEDBECF91DF91FE
:103EB0001F910F91FF90EF900895EF92FF920F9353
:103EC0001F93DF93CF93CDB7DEB727970FB6F89444
:103ED000DEBF0FBECDBF8E010F5F1F4FC8016AE06E
:103EE00072E10E9419BBC801B7DF7C01C8010E94C2
:103EF0002BBBEF2819F41092B9100EC08091C1109D
:103F0000882321F081E08093B91006C083E998E10D
:103F100063E874E00E94F1B627960FB6F894DEBF0E
:103F20000FBECDBFCF91DF911F910F91FF90EF900A
:103F300008950F931F93DF93CF93CDB7DEB72E97DE
:103F40000FB6F894DEBF0FBECDBF8E010F5F1F4FBF
:103F5000C8016AE072E10E9419BBC8017DDF90933D
:103F6000C80F8093C70FC8010E942BBB8E01085F4A
:103F70001F4FC80161E172E10E9419BBC8016CDFEB
:103F80009093C60F8093C50FC8010E942BBB2E963D
:103F90000FB6F894DEBF0FBECDBFCF91DF911F915A
:103FA0000F910895EF92FF920F931F93DF93CF939A
:103FB000CDB7DEB76B970FB6F894DEBF0FBECDBF9F
:103FC000FC01EDB6FEB6448155814F5F5F4F8DB762
:103FD0009EB7841B950B0FB6F8949EBF0FBE8DBF86
:103FE0000DB71EB70F5F1F4FCF01B80120E030E0C3
:103FF0000E94B5B8CE01019668E074E1A80121E005
:104000000E9428758B819C819093151180931411C7
:104010008D819E81AF81B885809316119093171181
:10402000A0931811B093191189859A85AB85BC8529
:1040300080931A1190931B11A0931C11B0931D1122
:10404000AEE1B1E1FE013D968DE001900D9281500F
:10405000E1F78A8D9B8D90932C1180932B11CE01CB
:1040600001960E94987182E191E10E94007288237A
:1040700029F483E998E167EA74E007C0F0DC88235B
:1040800041F483E998E168EB74E00E94F1B680E0C6
:104090000DC082E191E10E94ED716093391170933E
:1040A0003A1180933B1190933C1181E00FB6F89444
:1040B000FEBE0FBEEDBE6B960FB6F894DEBF0FBE10
:1040C000CDBFCF91DF911F910F91FF90EF90089599
:1040D000AF92BF92CF92DF92EF92FF920F931F9316
:1040E000DF93CF93CDB7DEB76B970FB6F894DEBFF3
:1040F0000FBECDBF6C01ADB6BEB64091C810509199
:10410000C9104F5F5F4F8DB79EB7841B950B0FB6DD
:10411000F8949EBF0FBE8DBF0DB71EB70F5F1F4F28
:1041200084EC90E1B80120E030E00E94B5B87E0157
:104130000894E11CF11CC70168E074E1A80123E1C7
:104140000E942875C7010E9400728823D1F083E97C
:1041500098E160EC74E00E940BB683E998E164ECAE
:1041600070E10E9434B7C701B6010E9434B7C7019D
:104170000E940D7283E998E161ED74E00E94F1B64E
:104180000CC083E998E167ED74E00E940BB683E907
:1041900098E164EC70E10E9434B7CE0101960E9470
:1041A00098710FB6F894BEBE0FBEADBE6B960FB63B
:1041B000F894DEBF0FBECDBFCF91DF911F910F915D
:1041C000FF90EF90DF90CF90BF90AF900895EF9267
:1041D000FF920F931F9385E361E00E9472AE88E027
:1041E00094E165E30E944876882329F483E998E105
:1041F00066EE74E06AC083E998E162E075E00E94CF
:10420000F1B683E998E164E175E00E94F1B68BECC8
:1042100090E161E045E30E949E788823B9F483E948
:1042200098E16CE275E00E94F1B683E998E164E5FB
:1042300075E00E94F1B683E998E16DE675E00E94B1
:10424000F1B683E998E167E875E03FC083E998E15A
:104250006BEC75E00E94F1B683E998E164EF75E0DC
:104260000E940BB68091D610823049F0833061F005
:10427000813079F483E998E161E076E00EC083E96A
:1042800098E165E076E009C083E998E169E076E0CD
:1042900004C083E998E16EE076E00E94F1B687ED14
:1042A00090E16BEC70E141E00E94C883882381F4C7
:1042B00087ED90E16BEC70E140E00E94C8838823B9
:1042C00039F483E998E166E176E00E94F1B674C0C2
:1042D00083E998E160E676E00E940BB683E998E115
:1042E0006091EE104AE050E00E9470B583E998E1D9
:1042F0000E9490B42091DB1030E040E050E06091EB
:10430000E0107091E1108091E2109091E310E9E0EB
:10431000660F771F881F991FEA95D1F70E943ABE52
:104320007B018C0183E998E164E776E00E940BB69B
:1043300083E998E1B801A7012AE030E00E944EB578
:1043400083E998E16AE876E00E940BB63AE01695B8
:104350000795F794E7943A95D1F783E998E1B80186
:10436000A7012AE030E00E944EB583E998E161EAB6
:1043700076E00E940BB62AE016950795F794E7942D
:104380002A95D1F783E998E1B801A7012AE030E046
:104390000E944EB583E998E168EB76E00E94F1B6A1
:1043A00085EF90E167ED70E10E94DD7D85EF90E1A2
:1043B00067E040E00E94D77E1F910F91FF90EF9041
:1043C0000895AF92BF92CF92DF92EF92FF920F9338
:1043D0001F9380E491E10E94236E84E891E10E94A2
:1043E000236E80E491E10E94CD676115710581051E
:1043F000910509F048C060918B0F70918C0F8091EE
:104400008D0F90918E0F2091930F3091940F4091CA
:10441000950F5091960F260F371F481F591F0E9466
:10442000AEB75B016C0160918F0F7091900F80911E
:10443000910F9091920F2091970F3091980F40918A
:10444000990F50919A0F260F371F481F591F0E942E
:10445000AEB77B018C01C601B5010E943CBC5B017B
:104460006C01C801B7010E943CBC9B01AC01C601B4
:10447000B5010E9476190E9409BCAB01BC0180E421
:1044800091E10E94626984E891E10E94CD67611523
:1044900071058105910509F048C060918B0F7091FD
:1044A0008C0F80918D0F90918E0F2091930F3091F2
:1044B000940F4091950F5091960F260F371F481F6C
:1044C000591F0E94AEB75B016C0160918F0F709114
:1044D000900F8091910F9091920F2091970F3091B2
:1044E000980F4091990F50919A0F260F371F481F30
:1044F000591F0E94AEB77B018C01C601B5010E9415
:104500003CBC5B016C01C801B7010E943CBC9B0133
:10451000AC01C601B5010E943F190E9409BCAB0164
:10452000BC0184E891E10E9462691F910F91FF90A4
:10453000EF90DF90CF90BF90AF900895EF92FF92F1
:104540000F931F93CF93DF93C0E0D0E083E998E10E
:1045500062EF76E00E940BB683E998E1BE014AE083
:1045600050E00E94EEB580E491E10E94CD676115B4
:1045700071058105910509F469C084E891E10E9403
:10458000CD67611571058105910509F45FC080E46F
:1045900091E10E94236E84E891E10E94236EE3CFB3
:1045A0006EEF7FEF8FEF9FEF23E030E040E050E0D1
:1045B0000E94AEB77B018C01A701662757FD60956D
:1045C000762F80E491E10E94736983E998E16BEFB3
:1045D00076E00E940BB683E998E1B7014AE050E02B
:1045E0000E94EEB584E891E10E94CD6761157105E6
:1045F0008105910511F56EEF7FEF8FEF9FEF23E0BF
:1046000030E040E050E00E94AEB77B018C01A70192
:10461000662757FD6095762F84E891E10E947369C3
:1046200083E998E161E177E00E940BB683E998E1C4
:10463000B7014AE050E00E94EEB50E948A1A219626
:1046400083E0C83ED80709F081CF0AC080E491E139
:104650000E94CD67611571058105910519F6A0CFFE
:10466000DF91CF911F910F91FF90EF900895AF923E
:10467000BF92CF92DF92EF92FF920F931F93CF934F
:10468000DF93EC015B016A0183E290E169E070E095
:104690000E94F76FCA15DB059CF476010027F7FC32
:1046A0000095102F83E290E1BE010E94E06EC801E8
:1046B000B7010E94ADAD2196AC16BD069CF712C0A5
:1046C00076010027F7FC0095102F83E290E1BE01F0
:1046D0000E94E06EC801B7010E94ADAD2197CA15D6
:1046E000DB059CF783E290E10E94746EDF91CF912D
:1046F0001F910F91FF90EF90DF90CF90BF90AF9000
:104700000895EF92FF920F931F93DF93CF93CDB74E
:10471000DEB727970FB6F894DEBF0FBECDBF8091EE
:1047200044109091451020912610029714F12223F5
:1047300029F0E090CE0FF090CF0F04C0E090D00FA2
:10474000F090D10F8E010F5F1F4FC8016AE072E138
:104750000E9419BBC80180DB9093D10F8093D00FCA
:10476000C8010E942BBB6091D00F7091D10FC7017F
:104770000AC0213059F46091D00F7091D10F80910F
:10478000CE0F9091CF0F43E050E071DF10922610D2
:1047900027960FB6F894DEBF0FBECDBFCF91DF9145
:1047A0001F910F91FF90EF900895EF92FF920F935A
:1047B0001F93DF93CF93CDB7DEB727970FB6F8944B
:1047C000DEBF0FBECDBF8091441090914510209167
:1047D0002610029714F1222329F0E090CE0FF090DA
:1047E000CF0F04C0E090D00FF090D10F8E010F5F7B
:1047F0001F4FC8016AE072E10E9419BBC8012CDB9F
:104800009093CF0F8093CE0FC8010E942BBB609175
:10481000CE0F7091CF0FC7010AC0222359F46091C7
:10482000CE0F7091CF0F8091D00F9091D10F43E0B8
:1048300050E01DDF81E08093261027960FB6F89494
:10484000DEBF0FBECDBFCF91DF911F910F91FF90C3
:10485000EF900895EF92FF920F931F93182F0EE59C
:10486000E02E00E1F02EC70162E344EB22E30E9458
:10487000B38B212F30E088EC91E1F901EE0FFF1F9F
:10488000E80FF91F608141812F5F3F4FF901EE0F63
:10489000FF1FE80FF91F20810181C70170E050E080
:1048A00030E010E00E946E8CC70162E344EB22E32B
:1048B0000E94B88BC7016FEF4FEF2FEF0E94B38BB1
:1048C0001F910F91FF90EF9008958F929F92AF925A
:1048D000BF92CF92DF92EF92FF920F931F93DF93DD
:1048E000CF93CDB7DEB727970FB6F894DEBF0FBED4
:1048F000CDBF4C019EE5C92E90E1D92EC60160E0E6
:1049000040E020E00E94B38B4091CB1150E088EC56
:10491000A82E81E1B82EF50160818A01085E1F4F43
:10492000C60170E0465F5F4F2CED30E00E946E8C58
:10493000C6016FEF4FEF2FEF0E94B38BC60160E00F
:1049400040E020E00E94B88B7E010894E11CF11C3D
:10495000C701B4010E9419BBF50140812091CB1120
:1049600030E0265F3F4FC601B70150E000E010E0A5
:104970000E945E93C7010E942BBB27960FB6F89446
:10498000DEBF0FBECDBFCF91DF911F910F91FF9082
:10499000EF90DF90CF90BF90AF909F908F90089551
:1049A0002F923F924F925F926F927F928F929F923F
:1049B000AF92BF92CF92DF92EF92FF920F931F932D
:1049C000DF93CF93CDB7DEB7E0970FB6F894DEBF95
:1049D0000FBECDBF4C015B0158AB4FA783E998E1F7
:1049E00067E277E00E940BB683E998E1B5010E9487
:1049F00034B783E998E162E477E00E94F1B610925F
:104A0000FB101092FC101092FD101092FE101092EC
:104A1000FF101092001110920111109202118E01DC
:104A20000F5F1F4FC80164E577E00E946BBAC501B4
:104A300065E072E00E9404B9882341F4C501B80121
:104A40000E945AB9882311F477246CC07724739498
:104A500069C08F85882309F47DC0853E09F472C042
:104A60008E3209F46FC08A8D83FD6CC0C60164E587
:104A700077E00E946BBA710100E010E0D7018C91E1
:104A80008032C9F0083041F4C60168E070E00E944D
:104A9000DCB7FC01608202C0083028F0B8016F5F0B
:104AA0007F4FC60102C0C601B8010E94DCB7FC01FD
:104AB000D7018C9180830F5F1F4F0894E11CF11C7C
:104AC0000B301105D9F6EFA5F8A91E161F069CF4A8
:104AD000772041F083E998E1B6010E9434B7C40120
:104AE000B60111C0C601B5010E945AB98823B1F0C0
:104AF0007724739413C0C601B5010E945AB9882364
:104B000049F0C401B2010E9419BBCE0108960E946F
:104B10002BBB24C0C201B6010E9404BBC6010E9487
:104B20002BBB10C04FE0242E312C2C0E3D1E38E044
:104B3000C32ED12CCC0EDD1E2EE2622E2E01089447
:104B4000411C511C85EF90E1B1010E94FF7C1816B9
:104B50000CF47FCFC401B5010E9419BBCE010196B0
:104B60000E942BBBC401E0960FB6F894DEBF0FBEC7
:104B7000CDBFCF91DF911F910F91FF90EF90DF900C
:104B8000CF90BF90AF909F908F907F906F905F90ED
:104B90004F903F902F900895EF92FF920F931F93A5
:104BA000DF93CF93CDB7DEB727970FB6F894DEBF6C
:104BB0000FBECDBF8EE590E160E040E020E00E94B6
:104BC000B38B4091CB1150E06091C8118A01085E0F
:104BD0001F4F8EE590E170E0465F5F4F2CED30E0B7
:104BE0000E946E8C8EE590E16FEF4FEF2FEF0E94E9
:104BF000B38B8EE590E160E040E020E00E94B88B4E
:104C000084EC90E165E072E00E9404B9882341F4ED
:104C100084EC90E164E577E00E9404B9882389F090
:104C20004091C8112091CB1130E0265F3F4F8EE5B7
:104C300090E161E677E050E000E010E00E94139020
:104C40001BC07E010894E11CF11CC70164EC70E1FB
:104C50000E9419BB4091C8112091CB1130E0265F12
:104C60003F4F8EE590E1B70150E000E010E00E9478
:104C70005E93C7010E942BBB27960FB6F894DEBF48
:104C80000FBECDBFCF91DF911F910F91FF90EF909D
:104C900008950F931F9390E0FC013197E432F105E2
:104CA00008F0A7C5EE58FF4FEE0FFF1F0590F491D7
:104CB000E02D199480E0CEDD8091B60F869590E0CE
:104CC0004091C81150E04A505040480F591F209160
:104CD000C91130E02C503040280F391F8EE590E18B
:104CE00066E677E000E010E00E9413902091B60F96
:104CF000269530E04091C81150E04E505040420F90
:104D0000531F8091C911280F311D8EE590E16AE68D
:104D100077E06DC580E09EDD8091B60F869590E0CE
:104D20004091C81150E046515040480F591F209102
:104D3000C91130E02C503040280F391F8EE590E12A
:104D40006FE677E000E010E00E9413902091B60F2C
:104D5000269530E04091C81150E046505040420F37
:104D6000531F8091C911280F311D8EE590E166E730
:104D700077E03DC580E06EDD8091B60F869590E0CE
:104D80004091C81150E046515040480F591F2091A2
:104D9000C91130E02C503040280F391F8EE590E1CA
:104DA0006FE677E000E010E00E9413902091B60FCC
:104DB000269530E04091C81150E04A505040420FD3
:104DC000531F8091C911280F311D8EE590E169E7CD
:104DD00077E00DC582E03EDD8091B60F869590E0CC
:104DE0004091CC1150E04E505040480F591F209137
:104DF000CD1130E022513040280F391F8EE590E16F
:104E00006DE777E000E010E00E9413908091B60F0C
:104E1000869590E04091CC1150E04E505040480FA4
:104E2000591F2091CD1130E026503040280F391FF6
:104E30008EE590E162E877E00E9413908091B60FD2
:104E4000869590E04091CC1150E046505040480F7C
:104E5000591F2091CD1130E02A5F3F4F280F391F95
:104E60008EE590E167E877E0C2C484E0F3DC8091EE
:104E7000B60F869590E04091D01150E04E505040D2
:104E8000480F591F2091D11130E026503040280F93
:104E9000391F8EE590E16AE877E048C384E0DADC08
:104EA0008091B60F869590E04091D01150E042512C
:104EB0005040480F591F2091D11130E02C50304004
:104EC000280F391F8EE590E16FE877E000E010E0F1
:104ED0000E9413902091B60F269530E04091D0119A
:104EE00050E042515040420F531F8091D111280F82
:104EF000311D8EE590E165E977E079C486E0AADCB2
:104F00008091B60F869590E04091D41150E04251C7
:104F10005040480F591F2091D51130E026503040A5
:104F2000280F391F8EE590E16BE977E0FFC286E03C
:104F300091DC8091B60F869590E04091D41150E0BD
:104F400046515040480F591F2091D51130E026504E
:104F50003040280F391F8EE590E161EA77E0E6C224
:104F600084E078DC8091B60F869590E04091D01176
:104F700050E042515040480F591F2091D11130E06C
:104F800026503040280F391F8EE590E168EA77E01F
:104F9000CDC288E05FDC8091B60F869590E04091AD
:104FA000D81150E04A505040480F591F2091D91154
:104FB00030E02C503040280F391F8EE590E16EEA2A
:104FC00077E000E010E00E9413902091B60F269544
:104FD00030E04091D81150E046505040420F531FEE
:104FE0008091D911280F311D8EE590E162EB77E0B9
:104FF000FEC388E02FDC8091B60F869590E040914B
:10500000D81150E04A505040480F591F2091D911F3
:1050100030E02C503040280F391F8EE590E16EEAC9
:1050200077E000E010E00E9413902091B60F2695E3
:1050300030E04091D81150E04E505040420F531F85
:105040008091D911280F311D8EE590E165EB77E055
:10505000CEC382E0FFDB8091B60F869590E0409151
:10506000CC1150E04C505040480F591F2091CD11A9
:1050700030E02C503040280F391F8EE590E16AEB6C
:1050800077E000E010E00E9413902091B60F269583
:1050900030E04091CC1150E04C505040420F531F33
:1050A0008091CD1129C088E0D5DB8091B60F86951F
:1050B00090E04091D81150E04C505040480F591F9B
:1050C0002091D91130E02C503040280F391F8EE547
:1050D00090E164EC77E000E010E00E9413902091F2
:1050E000B60F269530E04091D81150E04C5050401A
:1050F000420F531F8091D911280F311D78C086E0CF
:10510000A9DB8091B60F869590E04091D41150E0D4
:105110004E505040480F591F2091D51130E0265075
:105120003040280F391F8EE590E169EC77E0FEC131
:105130008AE090DB8091B60F869590E04091DC117B
:1051400050E04E505040480F591F2091DD1130E083
:1051500022513040280F391F8EE590E16DE777E04E
:1051600018C08AE077DB8091B60F869590E0409179
:10517000DC1150E04E505040480F591F2091DD1176
:1051800030E022513040280F391F8EE590E163ED69
:1051900077E000E010E00E9413908091B60F8695B2
:1051A00090E04091DC1150E04E505040480F591FA4
:1051B0002091DD1130E026503040280F391F8EE558
:1051C00090E16EEC77E00E9413908091B60F869587
:1051D00090E04091DC1150E04E505040480F591F74
:1051E0002091DD1130E02A5F3F4F280F391F8EE5F7
:1051F00090E16FEB77E0FBC28AE02CDB8091B60F89
:10520000869590E04091DC1150E04E505040480FA0
:10521000591F2091DD1130E02C503040280F391FEC
:105220008EE590E16AE877E000E010E00E941390DC
:105230002091B60F269530E04091DC1150E04A50A5
:105240005040420F531F8091DD11280F311D8EE514
:1052500090E168ED77E0CBC282E0FCDA8091B60F96
:10526000869590E04091CC1150E04A505040480F54
:10527000591F2091CD1130E02C503040280F391F9C
:105280008EE590E16CED77E000E010E00E94139075
:105290002091B60F269530E04091CC1150E042515C
:1052A0005040420F531F8091CD11B7C188E0D2DA30
:1052B0008091B60F869590E04091D81150E04A5009
:1052C0005040480F591F2091D91130E02C503040E8
:1052D000280F391F8EE590E166EE77E08DC184E0FE
:1052E000B9DA8091B60F869590E04091D01150E0E8
:1052F0004A505040480F591F2091D11130E02C5096
:105300003040280F391F8EE590E16CED77E000E02A
:1053100010E00E9413902091B60F269530E0409146
:10532000D01150E042515040420F531F8091D11193
:1053300029C08AE08FDA8091B60F869590E040917F
:10534000DC1150E04A505040480F591F2091DD11A8
:1053500030E02C503040280F391F8EE590E166EE8A
:1053600077E000E010E00E9413902091B60F2695A0
:1053700030E04091DC1150E042515040420F531F49
:105380008091DD11280F311D8EE590E16AEE77E006
:105390002EC282E05FDA8091B60F869590E0409150
:1053A000CC1150E04A505040480F591F2091CD1168
:1053B00030E02C503040280F391F8EE590E16CED25
:1053C00077E000E010E00E9413902091B60F269540
:1053D00030E04091CC1150E040515040420F531FFB
:1053E0008091CD1129C088E035DA8091B60F86957D
:1053F00090E04091D81150E04A505040480F591F5A
:105400002091D91130E02C503040280F391F8EE503
:1054100090E166EE77E000E010E00E9413902091AA
:10542000B60F269530E04091D81150E040515040E1
:10543000420F531F8091D911280F311D8EE590E145
:1054400060EF77E0D4C184E005DA8091B60F8695ED
:1054500090E04091D01150E04A505040480F591F01
:105460002091D11130E022513040280F391F8EE5B4
:1054700090E16CED77E075C08AE0ECD98091B60FD1
:10548000869590E04091DC1150E04A505040480F22
:10549000591F2091DD1130E022513040280F391F73
:1054A0008EE590E166EE77E000E010E00E94139058
:1054B0008091B60F869590E04091DC1150E04A5003
:1054C0005040480F591F2091DD1130E026503040E8
:1054D000280F391F8EE590E16EEA77E00E94139065
:1054E0008091B60F869590E04091DC1150E04E50CF
:1054F0005040480F591F2091DD115CC086E0AAD9A9
:105500008091B60F869590E04091D41150E04251C1
:105510005040480F591F2091D51130E0265030409F
:10552000280F391F8EE590E16AEF77E000E010E088
:105530005EC184E08FD98091B60F869590E040914E
:10554000D01150E04A505040480F591F2091D111BE
:1055500030E022513040280F391F8EE590E16FEF87
:1055600077E000E010E00E9413908091B60F8695DE
:1055700090E04091D01150E04A505040480F591FE0
:105580002091D11130E026503040280F391F8EE590
:1055900090E16EEA77E00E9413908091B60F8695B5
:1055A00090E04091D01150E04E505040480F591FAC
:1055B0002091D11130E02A5F3F4F280F391F8EE52F
:1055C00090E165EF77E013C188E044D98091B60F90
:1055D000869590E04091D81150E04A505040480FD5
:1055E000591F2091D91130E02C503040280F391F1D
:1055F0008EE590E16FEF77E000E010E00E941390FD
:105600002091B60F269530E04091D81150E04251DC
:105610005040420F531F8091D911280F311D8EE544
:1056200090E160EE77E0E3C082E014D98091B60F9C
:10563000869590E04091CC1150E04A505040480F80
:10564000591F2091CD1130E02C503040280F391FC8
:105650008EE590E16FEF77E000E010E00E9413909C
:105660002091B60F269530E04091CC1150E04A5081
:105670005040420F531F8091CD11280F311D8EE5F0
:1056800090E163E078E0B3C082E0E4D88091B60FA7
:10569000869590E04091CC1150E04A505040480F20
:1056A000591F2091CD1130E02C503040280F391F68
:1056B0008EE590E16CED77E000E010E00E94139041
:1056C0002091B60F269530E04091CC1150E04A5021
:1056D0005040420F531F8091CD1129C088E0BAD8A5
:1056E0008091B60F869590E04091D81150E04A50D5
:1056F0005040480F591F2091D91130E02C503040B4
:10570000280F391F8EE590E166EE77E000E010E0AB
:105710000E9413902091B60F269530E04091D81149
:1057200050E04A505040420F531F8091D911280F2A
:10573000311D8EE590E167E078E059C084E08AD8B9
:105740008091B60F869590E04091D01150E04A507C
:105750005040480F591F2091D11130E02C5030405B
:10576000280F391F8EE590E16CED77E000E010E046
:105770000E9413902091B60F269530E04091D011F1
:1057800050E04A505040420F531F8091D11129C020
:105790008AE060D88091B60F869590E04091DC1148
:1057A00050E04A505040480F591F2091DD1130E021
:1057B0002C503040280F391F8EE590E166EE77E0DF
:1057C00000E010E00E9413902091B60F269530E083
:1057D0004091DC1150E04A505040420F531F8091DD
:1057E000DD11280F311D8EE590E16BE078E00E941D
:1057F00013901F910F9108956F927F928F929F92B5
:10580000AF92BF92CF92DF92EF92FF920F931F93CE
:105810006C015B0139014A01FEE5EF2EF0E1FF2E3C
:10582000C70160E040E020E00E94B38B8091B60F9A
:105830009601280F311D85010C5E1F4FC701B6016F
:10584000A5010E946E8CC7016FEF4FEF2FEF0E94F2
:10585000B38BC70160E040E020E00E94B88BC70135
:10586000B401A30196018501EE24FF24E0E2CE2ECF
:105870000E9479921F910F91FF90EF90DF90CF904F
:10588000BF90AF909F908F907F906F9008956F9290
:105890007F928F929F92AF92BF92CF92DF92EF92C0
:1058A000FF920F931F936C015B0139014A011EE5C2
:1058B000E12E10E1F12EC70160E040E020E00E94FF
:1058C000B38B8091B60F9601280F311D85010C5EB8
:1058D0001F4FC701B601A5010E946E8CC7016FEF73
:1058E0004FEF2FEF0E94B38BC70160E040E020E054
:1058F0000E94B88BC701B401A30122E086017501A3
:10590000BEE2CB2EAA24BB24A0E28A2E0E94E09005
:105910001F910F91FF90EF90DF90CF90BF90AF90CD
:105920009F908F907F906F9008951F938EE590E1E8
:1059300062E344EB22E30E94B88B8EE590E160E0E5
:1059400040E020E00E94B38B8091B80F8130E1F4F9
:1059500080913E11882311F081E201C080E299D943
:1059600082E097D980912610882311F088E001C049
:1059700087E08FD980917B0F882311F084E001C0EC
:1059800085E087D983E2B1C08091B80F823061F49D
:105990008DE17FD98EE17DD980917B0F882311F035
:1059A00084E0A3C085E0A1C08091B80F833081F46A
:1059B0008BE06FD98CE06DD980913D11882311F077
:1059C00082E201C080E165D98FE063D9E5D88EC05D
:1059D0008091B80F863051F589E05BD98AE059D9BA
:1059E00082E157D983E155D984E153D96091710F90
:1059F0007091720F8091730F9091740F0E9409BC87
:105A00009B01AC0180E590E060E570E0F5DE60911F
:105A1000750F7091760F8091770F9091780F0E949B
:105A200009BC9B01AC0186E990E050C08091B80FA1
:105A3000843039F589E12DD98AE12BD98BE129D937
:105A40008CE127D984E125D92091AF0F3091B00F97
:105A50004091B10F5091B20F8091D81190E060E564
:105A600070E015DF2091C90F3091CA0F4091CB0F24
:105A70005091CC0F8091DC1190E060E570E007DF81
:105A800035C08091B80F853029F585E102D986E1CE
:105A900000D987E1FED888E1FCD884E1FAD81091DA
:105AA000D81180E491E10E94DD679B01AC01812F58
:105AB00090E060E570E0A0DE1091DC1184E891E1F7
:105AC0000E94DD679B01AC01812F90E060E570E0F2
:105AD00093DE0CC08091B80F873041F48FE1D9D8A4
