:100000000C940A100C9489C30C94BAC30C94EBC3DF
:100010000C941CC40C944DC40C947EC40C94AFC4BA
:100020000C94E0C40C9437100C9437100C943710D7
:100030000C9437100C9437100C9437100C94371024
:100040000C9437100C94A2900C9437100C94371029
:100050000C9437100C9437100C9437100C9411C575
:100060000C9437100C9467C70C94ABC80C943710E1
:100070000C9437100C9437100C9437100C943710E4
:100080000C9475900C9437100C9437100C94371016
:100090000C94A7C70C94EAC80C9437100C94371032
:1000A0000C9437100C9437100C9448900C94371023
:1000B0000C9437100C9437100C9437100C941B9040
:1000C0000C9437100C9437100C9437100C94E7C72D
:1000D0000C9429C90C9437100C9427C80C9468C947
:1000E0000C943710D12B702CC12C112D2C2D472D99
:1000F000622D972D152FE62EFB2DCC2DFD31FD31D8
:100100002A2E452EFD315F2F302F5C306331343184
:10011000C73198311330F82FC32F942FCA3079305C
:10012000FF30062C3B2C602EB12EDC2C0B47384ABE
:100130000E471247384A17471F4727475447084971
:100140003049384A384A5849BB48384A8347B0474B
:100150006F498049AB49D949044ADF4707484F48AE
:100160007748694967496B4903470747F9486D492B
:10017000324A109730975797D097D097D0976D976E
:10018000039810970398909703989F979F97BD9710
:10019000BD975797D097D09757979F970398D09729
:1001A000E89703980398039831A1CCA2E9A3DFA4B0
:1001B0001CA61CA6F7A75FA96EAE6CAAC6AB33AC93
:1001C000FBAF04B1B5B2B5B2E9A3B5B3B5B3E9A31A
:1001D000D7B110B5B1A6D9B5A8B6B0B8D5B7FAB9E8
:1001E000A0B9FAB907BA07BAFAB921BAB3B9A0B92E
:1001F000C0B9CDB9FAB9D6B9DBB907BAFAB9E8B915
:1002000007BAFAB907BADBB914BAFAB921BAC0B950
:1002100033BA47BAE3BB89BBE3BBF0BBF0BBE3BB7C
:100220000ABC9CBB89BBA9BBB6BBE3BBBFBBC4BB01
:10023000F0BBE3BBD1BBF0BBE3BBF0BBC4BBFDBBBE
:10024000E3BB0ABCA9BB1CBC30BC05A84CCDB2D4D6
:100250004EB93836A9020C50B9918688083CA6AA36
:10026000AA2ABE000000803F000000006410B71DF5
:10027000C8206E3BAC30D9269041DC76F4516B6BD4
:100280005861B24D3C7105502083B8ED44930FF096
:10029000E8A3D6D68CB361CBB0C2649BD4D2D3864C
:1002A00078E20AA01CF2BDBD50424D20696D616725
:1002B00065206D757374206265206174206C6561C2
:1002C000737420313020706978656C7320776964AD
:1002D000652E002C206D61782064656E73697479D9
:1002E0003A20002C2070656E2077696474683A208B
:1002F0000050656E776964746820746573742000BB
:100300004368616E67696E67206261636B20746F1A
:10031000206C697665206D6F64652E0046696C659A
:100320002072656D6F7665642E0046696C6520618C
:100330006C7265616479206578697374732E004509
:100340007865637574696E6720636F6D6D616E6447
:100350003A0053746F72696E6720636F6D6D616EE2
:10036000643A006D6D004368616E67656420506596
:100370006E20776964746820746F20004E65772062
:10038000616363656C65726174696F6E3A20004EDB
:100390006577206D61782073706565643A2000553B
:1003A000703A2000446F776E3A2000504753504512
:1003B00045442C0050474C4946542C005047535458
:1003C00045504D554C5449504C4945522C005047CE
:1003D00053544550535045525245562C0050474DAA
:1003E0004D5045525245562C00504753495A452CC2
:1003F0000050474E414D452C002900526563616C09
:1004000063207061676548656967687420696E205C
:1004100073746570732028002900526563616C63F2
:100420002070616765576964746820696E20737411
:100430006570732028002900292C2073746570735F
:100440005065724D4D202800526563616C63206DCC
:100450006D506572537465702028004C6F6164653F
:1004600064206D6F746F722073746570206D756C8D
:100470007469706C6965723A004C6F6164656420E0
:100480006D616368696E65206E616D653A004C6FE1
:100490006164656420757020706F733A004C6F6101
:1004A00064656420646F776E20706F733A004C6FE0
:1004B00061646564206D6F746F722073746570730E
:1004C00020706572207265763A004C6F61646564D5
:1004D000206D6D20706572207265763A004C6F61F8
:1004E000646564206D616368696E6520686569672D
:1004F00068743A004C6F61646564206D616368697B
:100500006E652077696474683A002069736E277499
:10051000206120636F6D6D616E6420492072656398
:100520006F676E6973652E00536F7272792C2000AD
:1005300029206E6F74207061727365642E00436FA2
:100540006D6D616E64202800436865636B73756D23
:10055000206E6F74206D617463686564213A004990
:1005600020676F7420007600504F4C415247524133
:100570005048204F4E21007C3C3E5E2B3D3F2F5B80
:100580005D3B2C2A225C00080C205F00000000006C
:10059000000000000000000000202020202020009B
:1005A0002000000028505000000000000000000063
:1005B000002828FC2850FC50500000002078A8A0FB
:1005C000603028A8F02000000048A8B0502834541B
:1005D000480000000020505078A8A8906C0000004F
:1005E00040408000000000000000000004081010DF
:1005F00010101010080400004020101010101010EF
:1006000020400000000020A87070A820000000001A
:1006100000202020F8202020000000000000000022
:10062000000000004040800000000000F8000000D2
:10063000000000000000000000000000400000007A
:100640000810101020204040408000000070888872
:1006500088888888700000000020602020202020EA
:10066000700000000070888810204080F8000000B2
:1006700000708808300808887000000000103050B2
:10068000509078101800000000F88080F00808886A
:100690007000000000709080F08888887000000072
:1006A00000F8901020202020200000000070888892
:1006B00070888888700000000070888888780848F2
:1006C000700000000000002000000000200000007A
:1006D000000000002000000020200000040810207E
:1006E0004020100804000000000000F80000F8009E
:1006F0000000000040201008040810204000000006
:100700000070888810202000200000000070889869
:10071000A8A8B88078000000002020305050784809
:10072000CC00000000F0484870484848F000000045
:1007300000788880808080887000000000F0484841
:1007400048484848F000000000F8485070504048C1
:10075000F800000000F8485070504040E0000000F1
:1007600000384880809C88483000000000CC484811
:1007700078484848CC00000000F8202020202020A5
:10078000F8000000007C10101010101090E0000025
:1007900000EC485060505048EC00000000E0404041
:1007A00040404044FC00000000D8D8D8D8A8A8A8F1
:1007B000A800000000DC486868585848E8000000BD
:1007C00000708888888888887000000000F0484899
:1007D00070404040E0000000007088888888E898F9
:1007E0007018000000F0484870504848EC000000C5
:1007F0000078888060100888F000000000F8A820C9
:10080000202020207000000000CC4848484848487C
:100810003000000000CC484850503020200000003C
:1008200000A8A8A8705050505000000000D85050A8
:1008300020205050D800000000D850502020202008
:100840007000000000F8901020204048F8000000E0
:100850003820202020202020203800004040402048
:100860002010101008000000701010101010101050
:100870001070000020500000000000000000000088
:1008800000000000000000000000FC00200000004C
:100890000000000000000000000000003048384860
:1008A0003C00000000C04040704848487000000014
:1008B00000000000384840403800000000180808D8
:1008C000384848483C0000000000000030487840AC
:1008D00038000000001C2020782020207800000034
:1008E000000000003C4830407844380000C04040E0
:1008F00070484848EC0000000020000060202020E4
:100900007000000000100000301010101010E00007
:1009100000C040405C507048EC00000000E0202027
:1009200020202020F800000000000000F0A8A8A867
:10093000A800000000000000F0484848EC0000005B
:10094000000000003048484830000000000000006F
:10095000F04848487040E00000000000384848482F
:1009600038081C0000000000D8604040E000000093
:1009700000000000784030087800000000002020CF
:10098000702020201800000000000000D8484848CF
:100990003C00000000000000EC4850302000000047
:1009A00000000000A8A870505000000000000000E7
:1009B000D8502050D800000000000000EC48503013
:1009C0002020C000000000007810202078000000E7
:1009D0001810101020101010101800101010101007
:1009E0001010101010101000602020201020202067
:1009F00020600040A418000000000000000000106B
:100A000010205F0000000000000000000000000057
:100A100000000000000000000000000000000000D6
:100A20000000000000000007000F800F800F800F03
:100A3000800F800700070000000000070007000784
:100A400000000000000E380E380E380E3806300058
:100A50000000000000000000000000000000000096
:100A600000000000000C300C300C307FFE7FFE0CCC
:100A7000300C300C300C307FFE7FFE0C300C300C14
:100A80003000000000024002400FF81FF81A401A20
:100A9000401FF00FF8025802581FF81FF0024002E2
:100AA0004000000000000000000E100E300E70002C
:100AB000E001C0038007000E700C70087000000099
:100AC000000000000000000F001980198019800F3D
:100AD000000F080F9819F818F018E019F00F980097
:100AE000000000000000000700070007000E0000E3
:100AF00000000000000000000000000000000000F6
:100B00000000000000000000F001C0038007000E9C
:100B1000000E000E000E000700038001C000F00070
:100B2000000000000000000F00038001C000E00092
:100B30007000700070007000E001C003800F0000C2
:100B40000000000000000001801188099007E00704
:100B5000E03FFC3FFC07E007E009901188018000BE
:100B60000000000000000000000000018001800182
:100B7000800FF00FF0018001800180000000000074
:100B80000000000000000000000000000000000065
:100B90000000000000000000000700070007000E32
:100BA0000000000000000000000000000000000045
:100BB000001FF81FF8000000000000000000000007
:100BC0000000000000000000000000000000000025
:100BD0000000000000000000000700070007000000
:100BE0000000000000000000020006000E001C00D3
:100BF00038007000E001C0038007000E001C0000F8
:100C0000000000000000000FF01C381C781CF81CCD
:100C1000F81DB81DB81F381F381E381C380FF000DB
:100C2000000000000000000180018003801F801F81
:100C3000800380038003800380038003801FF00013
:100C4000000000000000000FE01C701C380038009D
:100C50007000E001C0038007000E381C381FF80048
:100C6000000000000000000FE01C701C380038007D
:100C70007003C003C0007000381C381C700FE00007
:100C80000000000000000000E001E003E006E00CCE
:100C9000E018E01FF81FF800E000E000E003F800B3
:100CA000000000000000001FF81C001C001C001CBD
:100CB000001FE01FF0007800381C381C700FE000A7
:100CC0000000000000000003E007000E001C001CF4
:100CD000001FF01FF81C381C381C381C380FF0009F
:100CE000000000000000001FFC1C1C1C1C1C1C0041
:100CF0001C0038007000E001C00380038003800006
:100D0000000000000000000FF01C381C381C381FC9
:100D10003807E007E01CF81C381C381C380FF000BE
:100D2000000000000000000FF01C381C381C381CAC
:100D3000381FF80FF800380038007000E007C000D6
:100D4000000000000000000000000003800380039A
:100D5000800000000003800380038000000000008A
:100D6000000000000000000000000003800380037A
:100D70008000000000038003800380070000000063
:100D80000000000000007000E001C0038007000EBA
:100D9000001C001C000E000700038001C000E000E2
:100DA000700000000000000000000000003FFC3F59
:100DB000FC000000003FFC3FFC00000000000000C1
:100DC00000000000001C000E000700038001C000AE
:100DD000E00070007000E001C0038007000E001CFE
:100DE000000000000003C00FF01E78183800380023
:100DF0007000E001C001C00000000001C001C0019E
:100E0000C0000000000FF81C1C1C1C1C1C1C1C1C1F
:100E1000FC1CFC1CFC1CFC1C001C001C001FF00724
:100E2000F800000000000003C007E00E701C381C32
:100E3000381C381C381FF81C381C381C381C38006B
:100E4000000000000000001FF00E380E380E380EB3
:100E5000380FF00FF00E380E380E380E381FF00035
:100E60000000000000000007F00E381C381C001CB9
:100E7000001C001C001C001C001C380E3807F00071
:100E8000000000000000001FE00E700E380E380E4B
:100E9000380E380E380E380E380E380E701FE0003F
:100EA000000000000000001FF80E180E080E000ED3
:100EB000300FF00FF00E300E000E080E181FF80065
:100EC000000000000000001FF80E180E080E000EB3
:100ED000300FF00FF00E300E000E000E001F00005D
:100EE0000000000000000007F00E381C381C381C01
:100EF000001C001C001CF81C381C380E3807F800B9
:100F0000000000000000001C701C701C701C701C95
:100F1000701FF01FF01C701C701C701C701C700087
:100F2000000000000000000FE00380038003800346
:100F3000800380038003800380038003800FE00030
:100F40000000000000000001FC0070007000700054
:100F5000700070007038703870387038700FE000B2
:100F6000000000000000001E380E380E700EE00F6A
:100F7000C00F800F800FC00EE00E700E381E3800BC
:100F8000000000000000001F000E000E000E000E0A
:100F9000000E000E000E000E080E180E381FF8008E
:100FA000000000000000001C1C1E3C1F7C1FFC1FDA
:100FB000FC1DDC1C9C1C1C1C1C1C1C1C1C1C1C006C
:100FC000000000000000001C1C1C1C1E1C1F1C1F1D
:100FD0009C1DDC1CFC1C7C1C3C1C1C1C1C1C1C00CC
:100FE0000000000000000003E007F00E381C1C1C8D
:100FF0001C1C1C1C1C1C1C1C1C0E3807F003E000D5
:10100000000000000000001FF00E380E380E380EF1
:10101000380FF00FF00E000E000E000E001F000043
:101020000000000000000003E00F780E381C1C1CBC
:101030001C1C1C1C1C1C7C1CFC0FF80FF80038002E
:10104000FC0000000000001FF00E380E380E380EB5
:10105000380FF00FF00E700E380E380E381E3800B4
:10106000000000000000000FF01C381C381C381C69
:10107000000FE007F000381C381C381C380FF00057
:10108000000000000000001FFC19CC11C401C001C9
:10109000C001C001C001C001C001C001C007F00013
:1010A000000000000000001C701C701C701C701CF4
:1010B000701C701C701C701C701C701C700FE00089
:1010C000000000000000001C701C701C701C701CD4
:1010D000701C701C701C701C700EE007C003800038
:1010E000000000000000001C1C1C1C1C1C1C1C1C04
:1010F0001C1C9C1C9C1C9C0FF80FF80770077000B0
:10110000000000000000001C701C701C700EE00746
:10111000C00380038007C00EE01C701C701C7000B0
:10112000000000000000001C701C701C701C701C73
:10113000700EE007C003800380038003800FE0008F
:10114000000000000000001FF81C38183810700064
:10115000E001C0038007000E081C181C381FF800AF
:101160000000000000000007F0070007000700076C
:101170000007000700070007000700070007F0004E
:1011800000000000000000100018001C000E000706
:1011900000038001C000E000700038001C00070060
:1011A0000000000000000007F000700070007000F8
:1011B0007000700070007000700070007007F00028
:1011C0000000000000018003C007E00E701C380022
:1011D000000000000000000000000000000000000F
:1011E00000000000000000000000000000000000FF
:1011F0000000000000000000000000000000007F70
:10120000FF7FFF000000001C001C0007000700001B
:1012100000000000000000000000000000000000CE
:101220000000000000000000000000000000000FAF
:10123000E0007000700FF01C701C701C700FD80064
:10124000000000000000001E000E000E000E000F47
:10125000F00E380E380E380E380E380E381BF000EF
:101260000000000000000000000000000000000F6F
:10127000E01C701C701C001C001C701C700FE00037
:101280000000000000000000F80070007000700F07
:10129000F01C701C701C701C701C701C700FD8002F
:1012A0000000000000000000000000000000000F2F
:1012B000E01C701C701FF01C001C701C700FE00004
:1012C0000000000000000003E0077007700700073F
:1012D000001FE01FE007000700070007001FC00015
:1012E0000000000000000000000000000000000FEF
:1012F000D81C701C701C701C700FF007F000701C64
:10130000700FE0000000001E000E000E000E000E28
:10131000F00F380F380E380E380E380E381E3800E1
:101320000000000000000001C001C001C000000F6B
:10133000C001C001C001C001C001C001C00FF80060
:10134000000000000000000070007000700000034A
:10135000F00070007000700070007000701C700C65
:10136000F007E0000000001E000E000E000E000E50
:10137000380E700EE00FC00EE00E700E381E3800F2
:10138000000000000000000FC001C001C001C0014A
:10139000C001C001C001C001C001C001C00FF80000
:1013A0000000000000000000000000000000001F1E
:1013B000F81C9C1C9C1C9C1C9C1C9C1C9C1C9C002D
:1013C0000000000000000000000000000000001FFE
:1013D000E01C701C701C701C701C701C701C700059
:1013E0000000000000000000000000000000000FEE
:1013F000E01C701C701C701C701C701C700FE000D6
:101400000000000000000000000000000000001BC1
:10141000F00E380E380E380E380E380FF00E000E63
:10142000001F000000000000000000000000001F7E
:10143000B038E038E038E038E038E01FE000E000A5
:10144000E001F00000000000000000000000001EAD
:10145000F00FF80F380E000E000E000E001F0000F7
:101460000000000000000000000000000000000F6D
:10147000E01C301C300F8003E0187018700FE00083
:101480000000000000000000000100030007001F32
:10149000F007000700070007000770077003E0006F
:1014A0000000000000000000000000000000001C20
:1014B000701C701C701C701C701C701C700FD8008D
:1014C0000000000000000000000000000000001C00
:1014D000701C701C701C701C700EE007C003800034
:1014E0000000000000000000000000000000001CE0
:1014F0001C1C1C1C1C1C9C1C9C0FF80770077000FB
:101500000000000000000000000000000000001CBF
:10151000E01CE00FC0078007800FC01CE01CE0004B
:101520000000000000000000000000000000000EAD
:10153000380E380E380E380E3807F003E000E001A0
:10154000C01F800000000000000000000000001F1D
:10155000E018E011C0038007000E201C601FE000AF
:101560000000000000000001F803800380038007F2
:10157000001C001C00070003800380038001F800AA
:10158000000000000001C001C001C001C001C00195
:10159000C001C001C001C001C001C001C001C00143
:1015A000C00000000000001F8001C001C001C00099
:1015B000E00038003800E001C001C001C01F800019
:1015C000000000000000001F1C3B9C39DC38F800C4
:1015D000000000000000000000000000000000000B
:1015E0000000002032300A0000000000000000006F
:1015F000FFFE0001FFFF0003FFFF8001FFFF600C03
:10160000FFFEF01E0001F83F0001F83F0001F83F27
:101610000001F83F0001F83F0001F83F0001F83FEA
:101620000001F83F0001F83F0001F83F0001F83FDA
:101630000001F83F0001F83F0001F83E0000783853
:101640000000182000000800000000200000003802
:101650000000183E0000783F0001F83F0001F83F0D
:101660000001F83F0001F83F0001F83F0001F83F9A
:101670000001F83F0001F83F0001F83F0001F83F8A
:101680000001F83F0001F83F0001F83F0001F81E9B
:101690000000F00CFFFE6001FFFF0003FFFF800170
:1016A000FFFF0000FFFE000000000000000000003F
:1016B000000000000000000000000000000000002A
:1016C00000000000000060000000F0000001F800D1
:1016D0000001F8000001F8000001F8000001F80026
:1016E0000001F8000001F8000001F8000001F80016
:1016F0000001F8000001F8000001F8000001F80006
:101700000001F80000007800000018000000080048
:101710000000000000000000000018000000780039
:101720000001F8000001F8000001F8000001F800D5
:101730000001F8000001F8000001F8000001F800C5
:101740000001F8000001F8000001F8000001F800B5
:101750000001F8000001F8000000F0000000600047
:101760000000000000000000000000000000000079
:101770000000000000000000000000000000000069
:10178000FFFE0001FFFF0003FFFF8001FFFF60007D
:10179000FFFEF0000001F8000001F8000001F80071
:1017A0000001F8000001F8000001F8000001F80055
:1017B0000001F8000001F8000001F8000001F80045
:1017C0000001F8000001F8000001F80000007801B5
:1017D000FFFE1803FFFF880FFFFFE027FFFFC03960
:1017E000FFFF003E0000003F0000003F0000003F00
:1017F0000000003F0000003F0000003F0000003FED
:101800000000003F0000003F0000003F0000003FDC
:101810000000003F0000003F0000003F0000001EED
:101820000000000CFFFE0001FFFF0003FFFF80012E
:10183000FFFF0000FFFE00000000000000000000AD
:101840000000000000000000FFFE0001FFFF000399
:10185000FFFF8001FFFF6000FFFEF0000001F800C5
:101860000001F8000001F8000001F8000001F80094
:101870000001F8000001F8000001F8000001F80084
:101880000001F8000001F8000001F8000001F80074
:101890000001F80000007801FFFE1803FFFF880F29
:1018A000FFFFE007FFFFC001FFFF18000000780006
:1018B0000001F8000001F8000001F8000001F80044
:1018C0000001F8000001F8000001F8000001F80034
:1018D0000001F8000001F8000001F8000001F80024
:1018E0000001F8000001F8000000F000FFFE6001B8
:1018F000FFFF0003FFFF8001FFFF0000FFFE00006D
:1019000000000000000000000000000000000000D7
:101910000000000000000000000000000000600C5B
:101920000000F01E0001F83F0001F83F0001F83F01
:101930000001F83F0001F83F0001F83F0001F83FC7
:101940000001F83F0001F83F0001F83F0001F83FB7
:101950000001F83F0001F83F0001F83E000078392F
:10196000FFFE1823FFFF880FFFFFE007FFFFC00106
:10197000FFFF1800000078000001F8000001F800E7
:101980000001F8000001F8000001F8000001F80073
:101990000001F8000001F8000001F8000001F80063
:1019A0000001F8000001F8000001F8000001F80053
:1019B0000000F000000060000000000000000000D7
:1019C0000000000000000000000000000000000017
:1019D0000000000000000000FFFE0001FFFF000308
:1019E000FFFF8001FFFF000CFFFE001E0000003F14
:1019F0000000003F0000003F0000003F0000003FEB
:101A00000000003F0000003F0000003F0000003FDA
:101A10000000003F0000003F0000003F0000003FCA
:101A20000000003E00000039FFFE0023FFFF800F92
:101A3000FFFFE007FFFFC001FFFF18000000780074
:101A40000001F8000001F8000001F8000001F800B2
:101A50000001F8000001F8000001F8000001F800A2
:101A60000001F8000001F8000001F8000001F80092
:101A70000001F8000001F8000000F000FFFE600126
:101A8000FFFF0003FFFF8001FFFF0000FFFE0000DB
:101A90000000000000000000000000000000000046
:101AA000FFFE0001FFFF0003FFFF8001FFFF000CAE
:101AB000FFFE001E0000003F0000003F0000003F4E
:101AC0000000003F0000003F0000003F0000003F1A
:101AD0000000003F0000003F0000003F0000003F0A
:101AE0000000003F0000003F0000003E0000003901
:101AF000FFFE0023FFFF800FFFFFE027FFFFC0393D
:101B0000FFFF183E0000783F0001F83F0001F83F5A
:101B10000001F83F0001F83F0001F83F0001F83FE5
:101B20000001F83F0001F83F0001F83F0001F83FD5
:101B30000001F83F0001F83F0001F83F0001F81EE6
:101B40000000F00CFFFE6001FFFF0003FFFF8001BB
:101B5000FFFF0000FFFE000000000000000000008A
:101B60000000000000000000FFFE0001FFFF000376
:101B7000FFFF8001FFFF6000FFFEF0000001F800A2
:101B80000001F8000001F8000001F8000001F80071
:101B90000001F8000001F8000001F8000001F80061
:101BA0000001F8000001F8000001F8000001F80051
:101BB0000001F80000007800000018000000080094
:101BC0000000000000000000000018000000780085
:101BD0000001F8000001F8000001F8000001F80021
:101BE0000001F8000001F8000001F8000001F80011
:101BF0000001F8000001F8000001F8000001F80001
:101C00000001F8000001F8000000F0000000600092
:101C100000000000000000000000000000000000C4
:101C200000000000000000000000000000000000B4
:101C3000FFFE0001FFFF0003FFFF8001FFFF600CBC
:101C4000FFFEF01E0001F83F0001F83F0001F83FE1
:101C50000001F83F0001F83F0001F83F0001F83FA4
:101C60000001F83F0001F83F0001F83F0001F83F94
:101C70000001F83F0001F83F0001F83E000078390C
:101C8000FFFE1823FFFF880FFFFFE027FFFFC0398B
:101C9000FFFF183E0000783F0001F83F0001F83FC9
:101CA0000001F83F0001F83F0001F83F0001F83F54
:101CB0000001F83F0001F83F0001F83F0001F83F44
:101CC0000001F83F0001F83F0001F83F0001F81E55
:101CD0000000F00CFFFE6001FFFF0003FFFF80012A
:101CE000FFFF0000FFFE00000000000000000000F9
:101CF0000000000000000000FFFE0001FFFF0003E5
:101D0000FFFF8001FFFF600CFFFEF01E0001F83FA7
:101D10000001F83F0001F83F0001F83F0001F83FE3
:101D20000001F83F0001F83F0001F83F0001F83FD3
:101D30000001F83F0001F83F0001F83F0001F83FC3
:101D40000001F83E00007839FFFE1823FFFF880FDE
:101D5000FFFFE007FFFFC001FFFF18000000780051
:101D60000001F8000001F8000001F8000001F8008F
:101D70000001F8000001F8000001F8000001F8007F
:101D80000001F8000001F8000001F8000001F8006F
:101D90000001F8000001F8000000F000FFFE600103
:101DA000FFFF0003FFFF8001FFFF0000FFFE0000B8
:101DB0000000000000000000002100240027002A8D
:101DC000002D003000330001010000040107010A6A
:101DD0000100002200250028002B002E00310034D5
:101DE0000002010000050108010B01000020002392
:101DF00000260029002C002F003200000100000303
:101E0000010601090105050505070508080808027E
:101E10000202020A0A080804040404010101010183
:101E20000101010303030303030303040707070C72
:101E30000C0C0C0C0C0C0C02020202060606060628
:101E40000606060B0B0B0B0B0B0B0B0102102020D5
:101E500008081020401020408002010201080402FE
:101E60000101020408102040808040201008040274
:101E700001800402018040201008040201080402CD
:101E800001010204081020408001020408102040D3
:101E9000800000090A02080B0C0D0706030401006C
:101EA0000000000000000000000000000000000032
:101EB0000000000000000000000000000011100FF2
:101EC0000000000000000000000000000000000012
:101ED00000000000000000494E46494E4954594E4A
:101EE000414ECDCCCC3D0AD7233C17B7D13877CC67
:101EF0002B329595E6241FB14F0A000020410000C7
:101F0000C84200401C4620BCBE4CCA1B0E5AAEC57F
:101F10009D7400407A10F35A00A0724E1809001008
:101F2000A5D4E80000E87648170000E40B5402004E
:101F300000CA9A3B000000E1F50500008096980079
:101F4000000040420F000000A086010000001027A2
:101F500000000000E8030000000064000000000032
:101F60000A00000000000100000000002C76D88864
:101F7000DC674F0823DFC1DFAE59E1B1B796E5E377
:101F8000E453C63AE651997696E8E6C28426EB8990
:101F90008C9B62ED407C6FFCEFBC9C9F40F2BAA52D
:101FA0006FA5F490055A2AF75C936B6CF9676DC1C5
:101FB0001BFCE0E40D47FEF520E6B500D0ED902EC9
:101FC0000300943577050080841E080000204E0A27
:101FD000000000C80C333333330F986E1283114165
:101FE000EF8D2114893BE65516CFFEE6DB18D18430
:101FF0004B381BF77C1D901DA4BBE4242032847257
:102000005E228100C9F124ECA1E53D275B1BF7723C
:10201000D8CA561B11241FBECFEFD1E2DEBFCDBF01
:1020200000E00CBF10E1A0E0B2E0EEE0FEEA01E06B
:102030000BBF02C007900D92A034B107D9F71BBEA9
:1020400019E1A0E4B0E101C01D92AC33B107E1F7A2
:1020500010E2C2E1D0E204C02297FE010E94B5D690
:10206000CC30D107C9F70E940ECC0C94FBD60C944F
:102070000000EF92FF920F931F93F22FF02E47FD77
:1020800002C0E4E001C0E4E1242F332727FD3095AE
:1020900037FF03C0309521953F4F4F2D512F0F2F04
:1020A000EE2E2FD18F2D912F1F910F91FF90EF903A
:1020B0000895A0E0B0E0EFE5F0E10C94CCD6EC019F
:1020C000A880B980CA80DB80A114B104C104D10406
:1020D00041F484E2A82E89EDB82E8BE5C82E87E066
:1020E000D82EC601B5012DE133EF41E050E00E944A
:1020F00098D627EA31E440E050E00E9424D67B01E4
:102100008C01C601B5012DE133EF41E050E00E94A2
:1021100098D6CA01B9012CEE34EF4FEF5FEF0E9461
:1021200024D66E0D7F1D801F911F97FF04C0615044
:10213000704080409048688379838A839B839B01A9
:10214000AC015F77B901CA01CDB7DEB7EAE00C9404
:10215000E8D6AFCF8EE79FE0ACCF60937E0F709351
:102160007F0F8093800F9093810F089566277727C4
:1021700029C2FC0188279927E89421912032E9F3AC
:10218000293010F02E30C8F32B3239F02D3231F4D3
:10219000689403C0AED0820F911D219120532A3044
:1021A000C8F31EF4909581959F4F08951F93FC01ED
:1021B00099278827BC01E89411911032E9F319306E
:1021C00010F01E30C8F31B3249F01D3241F4689400
:1021D00005C07AD0610F711D811D911D11911053A1
:1021E0001A30B8F33EF490958095709561957F4FC5
:1021F0008F4F9F4F1F910895FB01DC0104C08D910B
:102200000190801921F441505040C8F7881B990B68
:102210000895FB01DC0102C001900D924150504035
:10222000D8F70895FC018191861721F08823D9F70A
:10223000992708953197CF010895FB01DC018D9115
:10224000019080190110D9F3990B0895FB01DC016D
:1022500001900D920020E1F70895FB01DC0141504F
:10226000504030F08D910190801919F40020B9F799
:10227000881B990B0895FB01DC014150504048F048
:1022800001900D920020C9F701C01D9241505040AD
:10229000E0F70895FB0151915523A9F0BF01DC013E
:1022A0004D9145174111E1F759F4CD0101900020FE
:1022B00049F04D9140154111C9F3FB014111EFCF98
:1022C00081E090E001970895592F482F372F262F4E
:1022D000660F771F881F991F660F771F881F991F2A
:1022E000620F731F841F951F660F771F881F991F2A
:1022F00008957AE0979F902D879F802D910D11244E
:102300000895A9E0B0E0E7E8F1E10C94C8D66A01CD
:10231000122FA02EBE2C2BE3201718F42CE3922EA4
:1023200002C0902E9394AE014F5F5F4F27E0092DBE
:10233000A6D2BC018981E82EFF24C7018970907064
:10234000019711F4ADE209C0B1FE02C0ABE205C0D5
:10235000B0FC02C0A0E001C0A0E2E3FE3BC0AA23A3
:1023600011F423E001C024E0211710F020E002C0A6
:10237000121B212FEB2CB4FE02C0322F0AC0F60133
:10238000322F80E202C0819331503323E1F7C20E35
:10239000D11CAA2319F0F601A1936F01F601319621
:1023A000E2FE05C09EE4D6019C9381E404C09EE653
:1023B000D6019C9381E611968C9391833296DF012E
:1023C000832F90E202C09D9381508823E1F7E30FB1
:1023D000F11D40C0E2FE42C0AA2311F423E001C077
:1023E00024E0211710F020E002C0121B212FEB2C5B
:1023F000B4FE02C0922F0AC0F601922F80E202C002
:10240000819391509923E1F7C20ED11CAA2319F0B0
:10241000F601A1936F01F6013196E2FE08C089E44E
:10242000D6018C938EE411968C9386E407C089E6DE
:10243000D6018C938EE611968C9386E68183329634
:10244000DF01892F20E202C02D9381508823E1F71C
:10245000E90FF11D10822EEF3FEFAFC016161706E1
:102460001CF041E050E003C0AB014F5F5F4FAA207A
:1024700019F480E090E003C08A2D90E0019620E0FE
:1024800030E0AA2311F021E030E0240F351F280F9F
:10249000391F812F90E02817390714F020E002C07F
:1024A000121B212F4B2D50E0CA0180719070B4FC9B
:1024B0000DC0B3FC0BC0F601322F40E202C04193C5
:1024C00031503323E1F7C20ED11C01C0322FAA23B1
:1024D00019F0F601A1936F01892B11F0132F0AC097
:1024E000F601132F80E302C0819311501123E1F70D
:1024F000C30ED11C092D060FBA8090E1892E912CB4
:102500008E209F20E4FE04C0F1E3BF1609F40150C1
:10251000101614F001E003C0093008F008E09B0138
:1025200077FF02C020E030E0CB010196821B930BC5
:10253000FE013196E80FF91F8EE2F82E3B01601A7A
:1025400071088A2D90E044275527481B590B8FEFBF
:102550002F3F380719F4D601FD926D0162177307FA
:102560002CF06216730614F4808101C080E32150C0
:10257000304031962417350724F0D6018D936D0134
:10258000E6CF2617370749F4B5E3BB1528F0BB168D
:1025900021F48114910409F481E3F6018193D601B9
:1025A000812F90E202C09C93815011968823D9F725
:1025B000E10FF11D108220E030E0C9012996EEE024
:1025C0000C94E4D6A0E0B0E0E8EEF2E10C94CAD6B8
:1025D000EC015B016115710519F0FB0191838083AA
:1025E000F9908F2D90E00E94B9D6892BC9F7FDE2B2
:1025F000FF1621F4F990EE24E39405C02BE2F216C5
:1026000009F4F990EE248E0101501040C80167EDE5
:102610007EE143E050E00BD2892BF9F48E010E5F8E
:102620001F4FC8016AED7EE145E050E000D2892BE2
:1026300019F48E01095F1F4FA114B10419F0F501BF
:1026400011830083E0FC04C070E090E080E813C0D8
:1026500070E090E080E86FEF07C1C8016FED7EE1A8
:1026600043E050E0E4D1892B69F4A114B10429F4CA
:1026700070E090E080EC6FE7F7C02296F501D1831F
:10268000C083F6CF8824992440E050E060E070E0F9
:10269000EF2DE053EA30A0F5F2E0EF2A8E2D90E026
:1026A0009C0128703070E2FE06C0232B79F5089457
:1026B000811C911C2BC0232B19F0089481089108D0
:1026C000DB01CA0112E0880F991FAA1FBB1F1A95D0
:1026D000D1F7480F591F6A1F7B1F440F551F661FF4
:1026E000771F4E0F511D611D711D483929E9520791
:1026F00029E9620729E1720748F084E0E82A06C068
:10270000EE3F31F4E3FC39C098E0E92AF990C0CFFC
:10271000E53311F0E53189F529912D3219F4E0E125
:10272000EE2A05C02B3219F081E090E003C0299118
:1027300082E090E0E22FE053EA3018F0C81BD90B9A
:102740001CC020E030E0FCE020383F075CF4C90109
:10275000880F991F880F991F280F391F220F331FC9
:102760002E0F311DE991E053EA3068F3E4FE03C017
:10277000309521953F4F820E931ECE2CDD24E1FE35
:1027800007C0A114B10421F02197F501D183C083C2
:10279000CB01BA010E9424D47B018C01F3E0CF224B
:1027A000DD2423E0C216D10421F417FB109517F99C
:1027B000109557016801C801B70120E030E040E002
:1027C00050E00E9484D3882309F44AC097FE0DC0CC
:1027D00026EFE22E2EE1F22E9094819491089394AC
:1027E000C0E2D0E000E010E012C09EE0E92E9FE1E0
:1027F000F92EF6CFF7012591359145915491C601F7
:10280000B5010E941CD55B016C018C1A9D0A8C16C7
:102810009D0684F7D595C7950F5F1F4F06301105AC
:1028200029F08CEF9FEFE80EF91EF1CFC501D6011C
:102830007C018D018C2D880F8D2D881F8F3F51F0CD
:10284000C601B50120E030E040E050E00E9484D3B2
:10285000882331F482E290E090933B1980933A19F7
:102860007E2D9F2D802F612F272F392F482F562FF8
:10287000B901CA01CDB7DEB7ECE00C94E6D628303A
:1028800008F027E03327DA01990F311D87FD9160A9
:1028900000966105710539F432602E5F3D9330E397
:1028A0002A95E1F708959F3F30F080387105610562
:1028B00009F03C5F3C5F3D93913008F08068911DCA
:1028C000DF93CF931F930F93FF92EF92192F987F6F
:1028D0009695E92F96959695E90FFF27E459F04EC6
:1028E00099273327EE24FF24A701E70105900894D8
:1028F000079428F4360FE71EF81E491F511D660F76
:10290000771F881F991F0694A1F70590079428F454
:10291000E70EF81E491F561FC11D770F881F991F0C
:10292000661F0694A1F70590079428F4F80E491F36
:10293000561FC71FD11D880F991F661F771F06944A
:10294000A1F70590079420F4490F561FC71FD81F01
:10295000990F661F771F881F0694A9F78491109519
:10296000177041F0D695C79557954795F794E7941A
:102970001A95C1F7E2E1FFE1689415901591359140
:102980006591959105907FE27395E118F10A430BEB
:10299000560BC90BD009C0F7E10CF11E431F561F9F
:1029A000C91FD01D7EF4703311F48A95E6CFE894E8
:1029B000015030F0080F0AF40027021708F4202F06
:1029C0002395022F7A3328F079E37D932A95E9F74E
:1029D00010C07D932A9589F606949795679537954B
:1029E00017951794E118F10A430B560BC90BD00940
:1029F00098F023957E9173957A3308F070E37C9379
:102A00002013B8F77E9170617D9330F0839571E368
:102A10007D9370E32A95E1F71124EF90FF900F91D9
:102A20001F91CF91DF91992787FD90950895FB0124
:102A3000DC014150504088F08D9181341CF08B3581
:102A40000CF4805E659161341CF06B350CF4605EB3
:102A5000861B611171F3990B0895881BFCCF982F89
:102A60008091D10F813049F59430B9F0953030F430
:102A7000913059F0923009F0AAC0AAC09530A9F05F
:102A8000963009F0A4C083E2089580913B11882319
:102A900011F480E2089581E208958091940F8823D3
:102AA00011F485E0089584E008958091441088230E
:102AB00011F487E0089588E008958091D10F863061
:102AC000C9F4943009F486C0953030F4923061F046
:102AD000933009F07CC00AC0953021F0963009F09F
:102AE00076C006C089E008958AE0089583E10895DC
:102AF00082E108958091D10F8430C9F4943009F4B3
:102B000069C0953030F4923061F0933009F05FC0C5
:102B10000AC0953021F0963009F059C006C08BE10B
:102B200008958CE108958AE1089589E108958091DE
:102B3000D10F8530C1F4943009F44CC0953030F495
:102B4000923059F0933009F042C009C0953019F025
:102B50009630E9F506C085E1089586E1089588E19B
:102B6000089587E108958091D10F8330D1F4943096
:102B700051F0953018F4923051F507C0953039F086
:102B8000963029F506C08FE008958CE008958BE01B
:102B9000089580913311882311F480E1089582E231
:102BA00008958091D10F873091F4933051F0943093
:102BB00018F4923061F407C0943061F0953039F424
:102BC00004C08EE108958FE108958DE10895089580
:102BD00082E0089584E10895AF92BF92CF92DF9290
:102BE000EF92FF920F931F936E157F058007910759
:102BF00034F42E153F054007510764F42CC0E61647
:102C0000F7060807190794F4A216B306C406D506FA
:102C10003CF423C0A216B306C406D506BCF41FC0FC
:102C20002A153B054C055D05C4F41BC06E157F05D8
:102C30008007910791F42A153B054C055D058CF042
:102C4000A216B306C406D50644F409C02A153B05EE
:102C50004C055D0511F484E005C082E003C083E00B
:102C600001C081E01F910F91FF90EF90DF90CF9016
:102C7000BF90AF900895EF92FF920F931F937B0147
:102C80008C01662757FD6095762FCB01BA010E9413
:102C900026D420914C1030914D1040914E105091FF
:102CA0004F100E941CD5A80197010E948BD37B0175
:102CB0008C0120E030E040E050E40E9418D587FF0E
:102CC00003C061E070E004C0C801B7010E94F3D303
:102CD000CB011F910F91FF90EF9008956F927F921B
:102CE0008F929F92AF92BF92CF92DF92EF92FF921C
:102CF0000F931F93CF93DF937C015B01662757FDF2
:102D00006095762FCB01BA010E9426D43B014C017D
:102D10000027F7FC0095102FC801B7010E9426D4A8
:102D20007B018C01CC24B7FCC094DC2CC601B5011E
:102D30000E9426D49B01AC01C801B7010E948BD32D
:102D4000A40193010E941CD59B01AC01C401B301F5
:102D50000E941FD37B018C010E94F3D3EB01BE01C3
:102D6000882777FD8095982F0E9426D49B01AC017F
:102D7000C801B7010E941FD320E030E040E05FE3CC
:102D80000E9418D518160CF42196CE01DF91CF9130
:102D90001F910F91FF90EF90DF90CF90BF90AF9079
:102DA0009F908F907F906F900895CF92DF92EF92D7
:102DB000FF920F931F93CF93DF93EC016B01688118
:102DC00079818A819B812091D60F3091D70F4091D4
:102DD000D80F5091D90F0E941CD5688379838A83BC
:102DE0009B83F60160817181828193812091DA0F4A
:102DF0003091DB0F4091DC0F5091DD0F0E941CD50C
:102E00007B018C01F601608371838283938320911F
:102E1000841330918513C9018E978A35910580F40A
:102E2000288139814A815B81D801C701B0588883E4
:102E30009983AA83BB83208331834283538329C030
:102E4000C901885890408A35910580F4888199811C
:102E5000AA81BB81B05888839983AA83BB83F6017A
:102E600080819181A281B381B0580FC0225E304031
:102E70002A35310570F488819981AA81BB81E88265
:102E8000F9820A831B83B058F60180839183A28361
:102E9000B383688179818A819B81209186133091E7
:102EA000871340918813509189130E9420D368831F
:102EB00079838A839B83F60160817181828193810A
:102EC00020918A1330918B1340918C1350918D1364
:102ED0000E9420D3F6016083718382839383DF9104
:102EE000CF911F910F91FF90EF90DF90CF900895B9
:102EF0002F923F924F925F926F927F928F929F920A
:102F0000AF92BF92CF92DF92EF92FF920F931F93F7
:102F10001B012C0139014A01609154107091551028
:102F200080915610909157100E9426D47B018C01FD
:102F3000A80197010E941CD55B016C01C401B3017B
:102F4000A40193010E941CD59B01AC01C601B501EF
:102F50000E941FD35B016C01C201B101A20191016A
:102F60000E941CD59B01AC01C601B5010E9420D373
:102F70005B016C01C801B701A80197010E9420D331
:102F80009B01AC01C601B5010E948BD31F910F912B
:102F9000FF90EF90DF90CF90BF90AF909F908F9079
:102FA0007F906F905F904F903F902F9008950F9378
:102FB0001F93CF93DF93242F2627A22FB0E0AF706B
:102FC000B070AA0FBB1FAA0FBB1FC8E6D2E0AC0FA0
:102FD000BD1FFD010591159125913491E4E0969571
:102FE000879577956795EA95D1F7062717272827BC
:102FF000392742954F70402750E04F705070440F72
:10300000551F440F551F4C0F5D1FFA018591959177
:10301000A591B49144E036952795179507954A9563
:10302000D1F7082719272A273B27B801C901DF91C3
:10303000CF911F910F910895CF92DF92EF92FF925F
:103040000F931F938130910509F022C26F5F7F4F6C
:1030500009F025C385EF91E160E072E00E9455D24E
:1030600081E490E10E94B78D85E490E167E072E031
:103070000E9455D28CEF91E168E072E00E9455D237
:103080006091880F7091890F882777FD8095982F20
:103090002091820F3091830F442737FD4095542FA4
:1030A0000E9424D60E9426D47B018C016091840F5B
:1030B0007091850F8091860F9091870FA8019701DD
:1030C0000E948BD360934C1070934D1080934E10E0
:1030D00090934F10C801B7012091840F3091850F54
:1030E0004091860F5091870F0E948BD37B018C01FA
:1030F000609350107093511080935210909353101E
:103100006091D20F7091D30F882777FD8095982F0B
:103110000E9426D4A80197010E941CD50E94F3D3D7
:1031200060935410709355108093561090935710DD
:103130006091D40F7091D50F882777FD8095982FD7
:103140000E9426D4A80197010E941CD50E94F3D3A7
:10315000609358107093591080935A1090935B109D
:1031600083E092E161E172E00E9455D28AE092E14F
:1031700063E172E00E9455D281E192E167E172E081
:103180000E9455D288E192E16FE172E00E9455D22F
:103190008FE192E162E572E00E9455D286E292E10F
:1031A00062E572E00E9455D28DE292E162E572E042
:1031B0000E9455D284E392E162E572E00E9455D20A
:1031C0008BE392E161E672E00E9455D282E492E1E3
:1031D0006BE672E00E9455D289E492E162E772E008
:1031E0000E9455D280E592E16AE772E00E9455D2D2
:1031F00087E592E165E872E00E9455D28EE592E1A2
:103200006BE372E10E9403D38CE690E167E072E029
:103210000E9455D285E692E16BE872E00E9455D299
:103220008CE692E16DE872E00E9455D283E792E16C
:1032300062E972E00E9455D28AE792E166E972E0A3
:103240000E9455D281E892E16AE972E00E9455D26B
:1032500088E892E16EE972E00E9455D28FE892E12F
:1032600062EA72E00E9455D286E992E166EA72E073
:103270000E9455D28DE992E16AEA72E00E9455D22D
:1032800084EA92E16EEA72E00E9455D28BEA92E102
:1032900062EB72E00E9455D282EB92E166EB72E043
:1032A0000E9455D289EB92E16AEB72E00E9455D2FE
:1032B00080EC92E16EEB72E00E9455D287EC92E1D5
:1032C00062EC72E00E9455D28EEC92E166EC72E004
:1032D0000E9455D285ED92E16AEC72E00E9455D2CF
:1032E0008CED92E16EEC72E00E9455D283EE92E199
:1032F00062ED72E00E9455D28AEE92E166ED72E0D4
:103300000E9455D281EF92E16AED72E00E9455D29F
:1033100088EF92E16EED72E00E9455D28FEF92E15C
:1033200062EE72E00E9455D286E093E166EE72E0B2
:103330000E9455D28DE093E16AEE72E00E9455D270
:1033400084E193E16EEE72E00E9455D28BE193E14D
:1033500062EF72E00E9455D282E293E167EF72E081
:103360000E9455D289E293E16BEF72E00E9455D240
:1033700080E393E16FEF72E00E9455D287E393E11F
:1033800063E073E00E9455D28EE393E167E073E05F
:103390000E9455D285E493E16BE073E00E9455D220
:1033A0008CE493E16FE073E00E9455D283E593E1F2
:1033B00063E173E00E9455D28AE593E167E173E02F
:1033C0000E9455D281E693E16BE173E00E9455D2F1
:1033D00088E693E16FE173E00E9455D28FE693E1B6
:1033E00063E273E00E9455D286E793E167E273E0FF
:1033F0000E9455D28DE793E16BE273E00E9455D2B3
:103400008CE790E16EE046E250E027E230E008E22F
:1034100010E079E2E72EF12CCC24DD240E9485B95E
:1034200088EA90E16BE04CE022E103E1B2E0EB2EB0
:103430000E94EABD8AED90E167E072E00E9455D2F9
:1034400084EE90E167E072E00E9455D28BEE90E14D
:103450000E944B7188E091E10E944B7184E391E1FD
:1034600067E072E00E9455D28DE391E161E044E0B3
:1034700025E004E0A5E0EA2ECC24C3940E94878BCB
:1034800081E891E161E047E028E00E94878B07C175
:10349000892B09F004C16F5F7F4F09F000C184E3FD
:1034A00091E10E9415D388E091E10E945E718BEE5C
:1034B00090E10E945E7184EE90E10E9415D38AED46
:1034C00090E10E9415D38DE793E10E9415D386E722
:1034D00093E10E9415D38FE693E10E9415D388E60D
:1034E00093E10E9415D381E693E10E9415D38AE50A
:1034F00093E10E9415D383E593E10E9415D38CE4F8
:1035000093E10E9415D385E493E10E9415D38EE3E5
:1035100093E10E9415D387E393E10E9415D380E3E2
:1035200093E10E9415D389E293E10E9415D382E2D0
:1035300093E10E9415D38BE193E10E9415D384E1BE
:1035400093E10E9415D38DE093E10E9415D386E0AC
:1035500093E10E9415D38FEF92E10E9415D388EF7B
:1035600092E10E9415D381EF92E10E9415D38AEE79
:1035700092E10E9415D383EE92E10E9415D38CED67
:1035800092E10E9415D385ED92E10E9415D38EEC55
:1035900092E10E9415D387EC92E10E9415D380EC52
:1035A00092E10E9415D389EB92E10E9415D382EB40
:1035B00092E10E9415D38BEA92E10E9415D384EA2E
:1035C00092E10E9415D38DE992E10E9415D386E91C
:1035D00092E10E9415D38FE892E10E9415D388E80A
:1035E00092E10E9415D381E892E10E9415D38AE707
:1035F00092E10E9415D383E792E10E9415D38CE6F5
:1036000092E10E9415D385E692E10E9415D38CE6E3
:1036100090E10E9415D38EE592E10E9415D387E5D3
:1036200092E10E9415D380E592E10E9415D389E4CE
:1036300092E10E9415D382E492E10E9415D38BE3BC
:1036400092E10E9415D384E392E10E9415D38DE2AA
:1036500092E10E9415D386E292E10E9415D38FE198
:1036600092E10E9415D388E192E10E9415D381E195
:1036700092E10E9415D38AE092E10E9415D383E083
:1036800092E10E9415D38CEF91E10E9415D385E45D
:1036900090E10E9415D385EF91E10E9415D31F910F
:1036A0000F91FF90EF90DF90CF90089580E090E031
:1036B0006FEF7FEFC1CC81E090E06FEF7FEFBCCC8C
:1036C000CF92DF92EF92FF920F931F93CF93DF93EE
:1036D0006C01EE24EA94FE2C8701C0E0D0E00BC020
:1036E000C601BE010E949BCF482FC801B7015FDC15
:1036F0007B018C012196F60184819581C817D90739
:1037000078F3A80197012095309540955095B9011F
:10371000CA01DF91CF911F910F91FF90EF90DF9041
:10372000CF9008950F931F9384E090E00E9418C1FA
:103730008C010E949FC12DB73EB7201B310BC901E0
:103740001F910F910895EEDF9C0180916010909180
:10375000611028173907D1F0309361102093601061
:103760008FEA98E161E172E10E94D2CE609160102F
:10377000709161108FEA98E14AE050E00E94ACCD70
:103780008FEA98E16CE672E10C9404CF08958FEA19
:1037900098E162E472E10C9404CF8FEA98E16BE364
:1037A00072E10C9404CFAF92BF92CF92DF92EF926E
:1037B000FF920F931F937B018C01CA01B9010E94F4
:1037C0001CD55B016C01C801B701A80197010E94DB
:1037D0001CD59B01AC01C601B5010E941FD30E94FC
:1037E00089D51F910F91FF90EF90DF90CF90BF9000
:1037F000AF9008956F927F928F929F92AF92BF92F7
:10380000CF92DF92EF92FF920F931F937B018C0177
:103810006FDB5B016C01A8019701C5DF3B014C0127
:10382000E090A40FF090A50F0091A60F1091A70FA4
:10383000C801B7010E9426D49B01AC01C601B501A5
:103840000E9484D387FD4AC08091AC0F9091AD0F48
:10385000A091AE0FB091AF0FE80EF91E0A1F1B1F0B
:10386000C801B7010E9426D49B01AC01C601B50175
:103870000E9418D5181694F1E090A80FF090A90FA7
:103880000091AA0F1091AB0FC801B7010E9426D476
:103890009B01AC01C401B3010E9484D387FD1EC00B
:1038A000DD248091B00F9091B10FA091B20FB09133
:1038B000B30FE80EF91E0A1F1B1FC801B7010E94B3
:1038C00026D49B01AC01C401B3010E9418D518167F
:1038D00014F4DD24D39481E0D82601C0DD248D2D9D
:1038E0001F910F91FF90EF90DF90CF90BF90AF901E
:1038F0009F908F907F906F900895AF92BF92CF92DC
:10390000DF92EF92FF920F931F937B018C0159017D
:103910006A016091541070915510809156109091E9
:1039200057100E9426D4A80197010E941FD39B0123
:10393000AC010E941CD57B018C01C601B501A6011A
:1039400095010E941CD59B01AC01C801B7010E94E2
:1039500020D30E9489D51F910F91FF90EF90DF90A7
:10396000CF90BF90AF900895AF92BF92CF92DF9269
:10397000EF92FF920F931F937B018C0159016A0113
:10398000A80197010E941CD57B018C01C601B501DD
:10399000A60195010E941CD59B01AC01C801B7018D
:1039A0000E9420D30E9489D51F910F91FF90EF9024
:1039B000DF90CF90BF90AF9008952F923F924F929B
:1039C0005F926F927F928F929F92AF92BF92CF92AF
:1039D000DF92EF92FF920F931F93DF93CF9300D06C
:1039E0000F92CDB7DEB769837A838B839C835901AD
:1039F0006A0117012801611571058105910559F4C6
:103A00000F2EF0E0EF2EF0E0FF2EF0E00F2FF0E0B1
:103A10001F2FF02DA4C0CA01B9010E941CD57B0143
:103A20008C01C601B50120E030E040E050E00E948A
:103A300084D3882324F417FB109517F91095C2013D
:103A4000B101A20191010E9420D33B014C01C801A8
:103A5000B701A40193010E948BD37B018C01698182
:103A60007A818B819C810E9426D49B01AC01C80184
:103A7000B7010E9484D38823B4F5C601B50120E0C4
:103A800030E040E050E00E9484D3882329F4C40150
:103A9000B3010E9489D50DC0C201B101A6019501F3
:103AA0000E948BD39B01AC015F77C601B5010E94D8
:103AB00020D37B018C01D0908A0FC0908B0FB090E7
:103AC0008C0FA0908D0F2D2D3C2D4B2D5A2D0E942B
:103AD00018D518160CF043C08D2D9C2DAB2DBA2D8A
:103AE0007C018D013CC0C601B50120E030E040E022
:103AF00050E00E9484D3882359F4C401B3010E948A
:103B000089D57B018C0117FB109517F910950FC013
:103B1000C201B101A60195010E948BD39B01AC01AA
:103B20005F77C601B5010E941FD37B018C01809194
:103B30008A0F90918B0FA0918C0FB0918D0F5C012B
:103B40006D01D7FAD094D7F8D094C801B701A60177
:103B500095010E9484D3882314F486017501B7016E
:103B6000C8010F900F900F900F90CF91DF911F9190
:103B70000F91FF90EF90DF90CF90BF90AF909F900C
:103B80008F907F906F905F904F903F902F9008950F
:103B9000EF92FF920F931F938091930F882309F464
:103BA00056C08FEA98E167E572E10E94D2CE8DE3BC
:103BB00091E10E94D3860E9426D47B018C01609102
:103BC000880F7091890F882777FD8095982F0E9424
:103BD00026D49B01AC01C801B7010E948BD30E947F
:103BE000F3D3AB01BC018FEA98E12AE030E00E94F8
:103BF0005CCD8FEA98E165E672E10E94D2CE81E861
:103C000091E10E94D3860E9426D47B018C016091B1
:103C1000880F7091890F882777FD8095982F0E94D3
:103C200026D49B01AC01C801B7010E948BD30E942E
:103C3000F3D3AB01BC018FEA98E12AE030E00E94A7
:103C40005CCD8FEA98E16CE672E10E9404CF1F918F
:103C50000F91FF90EF900895EF92FF920F931F93B3
:103C600080915C1090915D10A0915E10B0915F10FA
:103C70000097A105B10509F03FC060915410709103
:103C8000551080915610909157100E9426D47B01B8
:103C90008C01609158107091591080915A10909138
:103CA0005B100E9426D49B01AC01C801B7015CDE09
:103CB00020E030E040E05FE30E9420D30E94F3D395
:103CC00060935C1070935D1080935E1090935F1012
:103CD0008FEA98E16FE273E00E94DBCD40915C10C7
:103CE00050915D1060915E1070915F108FEA98E1C5
:103CF0002AE030E00E949ACD60915C1070915D10D6
:103D000080915E1090915F101F910F91FF90EF9046
:103D10000895AF92BF92CF92DF92EF92FF920F93EE
:103D20001F937B018C0159016A010E9459C59B01B7
:103D3000AC0120936410309365104093661050934B
:103D400067108DE391E1B801A7010E94698881E8BD
:103D500091E1B601A5010E94698815C08091920F7A
:103D6000882349F08DE391E10E947D8D81E891E106
:103D70000E947D8D08C08DE391E10E945A8D81E8FB
:103D800091E10E945A8D8DE391E10E94C3866115F5
:103D900071058105910549F481E891E10E94C3868E
:103DA000611571058105910529F08091940F882393
:103DB00051F3D4CFEDDE1F910F91FF90EF90DF9084
:103DC000CF90BF90AF9008958FEA98E166E473E0DA
:103DD0000C94C1CE8FEA98E160E073E00E9490CC31
:103DE0001092E31008958F929F92AF92BF92CF925C
:103DF000DF92EF92FF920F931F936C017B018FEA8A
:103E000098E16DE573E00E94DBCD8FEA98E1B601A1
:103E10004AE050E00E94ACCD8FEA98E166E673E09C
:103E20000E94DBCD8FEA98E1B7014AE050E00E94A2
:103E3000BECD8FEA98E16BE673E00E94DBCD609126
:103E40002D1170912E118FEA98E14AE050E00E9406
:103E5000BECD8FEA98E16BE773E00E94DBCD409125
:103E600023115091241160912511709126118FEA30
:103E700098E12AE030E00E949ACD4601AA2497FCFE
:103E8000A094BA2C80912D1190912E11AA2797FD04
:103E9000A095BA2F880E991EAA1EBB1E0027F7FCFC
:103EA0000095102F2091231130912411409125115C
:103EB00050912611C801B7010E9424D6860E971E84
:103EC000A81EB91E8FEA98E165E873E00E94DBCD79
:103ED0008FEA98E1B501A4012AE030E00E945CCDB0
:103EE00080912F1190913011A0913111B091321128
:103EF00088159905AA05BB0514F41FEF18C088E0C2
:103F000091E1B501A4010E94FA7188E091E10E945B
:103F10000B72182F8FEA98E16EE873E00E94DBCDF8
:103F20008FEA98E1612F4AE050E00E9440CD812F56
:103F30001F910F91FF90EF90DF90CF90BF90AF90C7
:103F40009F908F9008950F931F93CF93DF93EC0171
:103F50008B018FEA98E16DE973E00E94DBCD8FEA77
:103F600098E1BE014AE050E00E94ACCD8FEA98E1B2
:103F700060EA73E00E94DBCD8FEA98E1B8014AE085
:103F800050E00E94BECD8091C5119091C611C81716
:103F9000D907B4F08091C9119091CA118C179D076F
:103FA0007CF08091C7119091C8110817190744F04F
:103FB0008091CB119091CC11801791070CF097C094
:103FC0008091CD119091CE11C817D907BCF0809186
:103FD000D1119091D2118C179D0784F08091CF114F
:103FE0009091D011081719074CF08091CB11909146
:103FF000CC118017910714F082E07AC08091D5111E
:104000009091D611C817D907BCF08091D911909121
:10401000DA118C179D0784F08091D7119091D811F7
:10402000081719074CF08091DB119091DC11801773
:10403000910714F083E05CC08091DD119091DE1156
:10404000C817D907BCF08091E1119091E2118C174B
:104050009D0784F08091DF119091E01108171907F6
:104060004CF08091E3119091E4118017910714F0C6
:1040700084E03EC08091E5119091E611C817D90700
:10408000BCF08091E9119091EA118C179D0784F0A2
:104090008091E7119091E811081719074CF0809171
:1040A000EB119091EC118017910714F085E020C07E
:1040B0008091ED119091EE11C817D907BCF0809155
:1040C000F1119091F2118C179D0784F08091EF11FE
:1040D0009091F011081719074CF08091F31190910D
:1040E000F4118017910714F086E002C001C081E04E
:1040F000DF91CF911F910F9108956F927F928F92D0
:104100009F92AF92BF92CF92DF92EF92FF920F9366
:104110001F93DF93CF93CDB7DEB7A3970FB6F89475
:10412000DEBF0FBECDBF6DB67EB688E091E140E048
:1041300050E060E070E00E94FA717E010894E11C9A
:10414000F11CC70165EA73E00E9455D288E091E155
:104150000E940B72182FC70160E070E00E94ACCF84
:10416000FC01108388E091E10E940B72182FC701B7
:1041700061E070E00E94ACCFFC011083C70168EAE7
:1041800073E00E94D4D0882399F48FEA98E16BEA17
:1041900073E00E94DBCD8FEA98E1B7010E94D2CE96
:1041A0008FEA98E169EC73E00E94C1CE10E083C110
:1041B0008FEA98E164EE73E00E94C1CE88E091E15D
:1041C0000E940B728E01085F1F4FC80167E072E00A
:1041D0000E9455D288E091E10E940B72E82E8FE098
:1041E000C82ED12CCC0EDD1EF02E012F21C083E273
:1041F000E81641F488E091E10E940B72E82E9AE003
:10420000E916C1F7C6016F2D702F0E940CD3C601AD
:104210006E2D0E94F9D1BC018F2D902F0E94EED2FD
:10422000C6010E941AD388E091E10E940B72E82E29
:104230008AE0E81619F090E2E916C9F68FEA98E1EB
:104240006AE074E00E94DBCD18E0E12EF12CEC0E68
:10425000FD1E8FEA98E1B7010E9404CF4C855D8571
:104260004F5F5F4F8DB79EB7841B950B0FB6F894C9
:104270009EBF0FBE8DBF0DB71EB70F5F1F4F902E95
:10428000812EB02EA12EC701B80120E030E00E949F
:1042900085D0C8010E94B910AA2797FDA095BA2F12
:1042A0008093231190932411A0932511B09326118C
:1042B0000A97A105B10544F48FEA98E168EA72E033
:1042C0000E9490CC10E0F3C0C70167E072E00E944A
:1042D00087D288E091E10E940B72182FB6E1CB2EB5
:1042E000D12CCC0EDD1EC701FE2C092F1FC01332AE
:1042F00039F488E091E10E940B72182F8A30C9F7D7
:10430000C6016F2D702F0E940CD3C601612F0E9431
:10431000F9D1BC018F2D902F0E94EED2C6010E94D0
:104320001AD388E091E10E940B72182F1A30F9F627
:104330008FEA98E165E174E00E94DBCDA8E0CA2E27
:10434000D12CCC0EDD1E8FEA98E1B6010E9404CF7D
:104350004C855D854F5F5F4FC6016B2D7A2D20E048
:1043600030E00E9485D0892D982D0E94B910AA278F
:1043700097FDA095BA2F8093271190932811A093B1
:104380002911B0932A11BC01CD010E9426D47B01D2
:104390008C016091231170912411809125119091CD
:1043A00026110E9426D49B01AC01C801B7010E94CE
:1043B0008BD36093C00F7093C10F8093C20F909303
:1043C000C30F8FEA98E161E274E00E94DBCD409177
:1043D000C00F5091C10F6091C20F7091C30F8FEA4F
:1043E00098E122E030E00E94B0CEC60167E072E0C2
:1043F0000E9487D288E091E10E940B72182F0D2D48
:10440000FDE1EF2EF12CEC0EFD1E16C0C7016C2D48
:10441000702F0E940CD3C701612F0E94F9D1BC01FB
:104420008C2D902F0E94EED2C7010E941AD388E0F3
:1044300091E10E940B72182F1A3041F78FEA98E130
:1044400063E374E00E94DBCD8FEA98E16C2D702F5E
:104450000E9404CF4C855D854F5F5F4F8C2D902F60
:104460006B2D7A2D20E030E00E9485D0892D982D8B
:104470000E94B91090932C1180932B1188E091E148
:104480000E94B57170932E1160932D118FEA98E1FF
:1044900067E474E00E94DBCD60912D1170912E11C4
:1044A0008FEA98E14AE050E00E94BECD11E0CE01D3
:1044B00008960E9415D3CE0101960E9415D3812F34
:1044C0000FB6F8947EBE0FBE6DBEA3960FB6F894DD
:1044D000DEBF0FBECDBFCF91DF911F910F91FF9037
:1044E000EF90DF90CF90BF90AF909F908F907F9094
:1044F0006F900895EF92FF920F931F93DF93CF93E6
:10450000CDB7DEB7FC01EDB6FEB6448155814F5FF5
:104510005F4F8DB79EB7841B950B0FB6F8949EBF67
:104520000FBE8DBF0DB71EB70F5F1F4FCF01B80174
:1045300020E030E00E9485D0C8010E94B9100FB67B
:10454000F894FEBE0FBEEDBECF91DF911F910F918B
:10455000FF90EF900895EF92FF920F931F93DF93D8
:10456000CF93CDB7DEB727970FB6F894DEBF0FBE57
:10457000CDBF8E010F5F1F4FC8016FE172E10E9436
:1045800003D3C801B7DF7C01C8010E9415D3EF280F
:1045900019F41092D9100EC08091E110882321F0F7
:1045A00081E08093D91006C08FEA98E165E574E058
:1045B0000E94C1CE27960FB6F894DEBF0FBECDBFC6
:1045C000CF91DF911F910F91FF90EF9008950F937E
:1045D0001F93DF93CF93CDB7DEB72E970FB6F89426
:1045E000DEBF0FBECDBF8E010F5F1F4FC8016FE151
:1045F00072E10E9403D3C8017DDF9093E10F8093A5
:10460000E00FC8010E9415D38E01085F1F4FC8013B
:1046100066E272E10E9403D3C8016CDF9093DF0F62
:104620008093DE0FC8010E9415D32E960FB6F89422
:10463000DEBF0FBECDBFCF91DF911F910F910895C7
:10464000EF92FF920F931F93DF93CF93CDB7DEB717
:104650006B970FB6F894DEBF0FBECDBFFC01EDB671
:10466000FEB6448155814F5F5F4F8DB79EB7841B67
:10467000950B0FB6F8949EBF0FBE8DBF0DB71EB73A
:104680000F5F1F4FCF01B80120E030E00E9485D0BE
:10469000CE0101966EE873E1A80121E00E94B37596
:1046A0008B819C8190930B1180930A118D819E8147
:1046B000AF81B88580930C1190930D11A0930E11CA
:1046C000B0930F1189859A85AB85BC8580931011B5
:1046D00090931111A0931211B0931311A4E1B1E1C1
:1046E000FE013D968DE001900D928150E1F78A8D9B
:1046F0009B8D9093221180932111CE0101960E94EF
:104700005E7188E091E10E94DB71882329F48FEAD1
:1047100098E169E774E007C0F0DC882341F48FEA90
:1047200098E16AE874E00E94C1CE80E00DC088E0A4
:1047300091E10E94C87160932F11709330118093A2
:1047400031119093321181E00FB6F894FEBE0FBE86
:10475000EDBE6B960FB6F894DEBF0FBECDBFCF9106
:10476000DF911F910F91FF90EF900895AF92BF924C
:10477000CF92DF92EF92FF920F931F93DF93CF932D
:10478000CDB7DEB76B970FB6F894DEBF0FBECDBFC7
:104790006C01ADB6BEB64091E8105091E9104F5F84
:1047A0005F4F8DB79EB7841B950B0FB6F8949EBFD5
:1047B0000FBE8DBF0DB71EB70F5F1F4F84EE90E188
:1047C000B80120E030E00E9485D07E010894E11C11
:1047D000F11CC7016EE873E1A80123E10E94B375E3
:1047E000C7010E94DB718823D1F08FEA98E162E96A
:1047F00074E00E94DBCD8FEA98E164EE70E10E94E4
:1048000004CFC701B6010E9404CFC7010E94E8711E
:104810008FEA98E163EA74E00E94C1CE0CC08FEA8F
:1048200098E169EA74E00E94DBCD8FEA98E164EEDA
:1048300070E10E9404CFCE0101960E945E710FB616
:10484000F894BEBE0FBEADBE6B960FB6F894DEBF39
:104850000FBECDBFCF91DF911F910F91FF90EF90D1
:10486000DF90CF90BF90AF9008952F923F924F92DC
:104870005F926F927F928F929F92BF92CF92DF92C0
:10488000EF92FF920F931F93DF93CF93CDB7DEB7D5
:10489000ED970FB6F894DEBF0FBECDBF4C016B0194
:1048A000CE01019667E072E00E9455D28E01085F4A
:1048B0001F4FC8016BEE70E141E00E941A73C801FE
:1048C0000E94DB718823B1F08FEA98E168EB74E015
:1048D0000E94C1CEC8010E946471BC01C6010E9441
:1048E000D4D0882339F08FEA98E16DEB74E00E9410
:1048F000C1CE84C048E0E42EF12CEC0EFD1EC701B1
:104900000E946471BC018E010F5F1F4FC8010E949D
:1049100087D28FEA98E162EC74E00E94DBCD8FEAE7
:1049200098E1B8010E9404CF33E2632E712C6C0E23
:104930007D1E24E1222E312C2C0E3D1E9FE2492E9D
:10494000512C4C0E5D1EBE2CEF2CC3016BEE70E1A2
:1049500041E00E941A738DA19EA19B878A878FA137
:1049600098A5A9A5BAA58C879D87AE87BF878BA57B
:104970009CA5ADA5BEA5888B998BAA8BBB8BD101BD
:10498000F2018DE001900D928150E1F78CAD9DAD6B
:104990009AA389A3C3010E945E718B2D9E2D0E9454
:1049A000DB71882339F18FEA98E16EEC74E00E94A4
:1049B000DBCD8B2D9E2D0E946471BC018FEA98E1A6
:1049C0000E94C1CE8B2D9E2D0E946471BC01C60138
:1049D0000E94D4D0882329F0C601B8010E94EED2EB
:1049E00009C08B2D9E2D0E946471BC01C8010E94DC
:1049F00087D2ABCFCE0108960E94E871C401B60100
:104A00000E9403D3CE0108960E945E71CE010196EA
:104A10000E9415D3C401ED960FB6F894DEBF0FBE09
:104A2000CDBFCF91DF911F910F91FF90EF90DF905D
:104A3000CF90BF909F908F907F906F905F904F909E
:104A40003F902F900895CF92DF92EF92FF920F93B5
:104A50001F93DF93CF93CDB7DEB7E6970FB6F894E9
:104A6000DEBF0FBECDBF6C017B018E010F5F1F4FFC
:104A7000C8016BEE70E141E00E941A73C8010E9408
:104A8000DB71882309F44CC0C8010E946471BC0129
:104A9000C7010E94D4D08823E1F1CE014C966BEE81
:104AA00070E141E00E941A738E8D9F8D9C838B83F1
:104AB00088A199A1AAA1BBA18D839E83AF83B8874A
:104AC0008CA19DA1AEA1BFA189879A87AB87BC8726
:104AD000DE011D96FE01B8968DE001900D92815089
:104AE000E1F78DA99EA99B8F8A8FCE014C960E94DB
:104AF0005E718E010F5F1F4FC8010E94DB7188231A
:104B000079F0C8010E946471BC01C7010E9487D27C
:104B100007C0C8010E94E871C8010E945E71A8CF59
:104B2000CE0101960E945E71C601B7010E9403D3B7
:104B3000C601E6960FB6F894DEBF0FBECDBFCF918B
:104B4000DF911F910F91FF90EF90DF90CF9008952C
:104B5000AF92BF92CF92DF92EF92FF920F931F938B
:104B6000DF93CF93CDB7DEB7C955D0400FB6F894D9
:104B7000DEBF0FBECDBF5C016B018A018FEA98E1F9
:104B80006AED74E00E94DBCD8FEA98E1B6010E94E5
:104B900004CF8FEA98E165EF74E00E94C1CECE01A8
:104BA00084966EE873E147E055E021E00E94B3751A
:104BB0008EA19FA19093EE108093ED1088A599A5EA
:104BC000AAA5BBA58093EF109093F010A093F110CD
:104BD000B093F2108CA59DA5AEA5BFA58093F31050
:104BE0009093F410A093F510B093F610A7EFB0E1F6
:104BF000FE01F0968DE001900D928150E1F78DADB0
:104C00009EAD9093051180930411CE0184960E946D
:104C10005E71CE01019669E075E00E9455D2C60131
:104C200067E072E00E94D4D08823F9F08E01015C25
:104C30001F4FC8016BEE70E141E00E941A73C8017A
:104C40000E94DB71882339F0C8010E946471BC01A5
:104C5000C6010E9487D28E01015C1F4FC8010E94CD
:104C6000E871C8010E945E712EC01016110684F40E
:104C700068E0E62EF12CEC0EFD1EC701B6010E9485
:104C800003D38E01015F1F4FC801B701DCDE11C0E5
:104C9000012BC9F056E1E52EF12CEC0EFD1EC701EB
:104CA000B6010E9403D38E01035E1F4FC801B701F6
:104CB000DCDDC601B8010E94EED2C8010E9415D306
:104CC000C7010E9415D38FEA98E166E175E00E9462
:104CD000DBCD8FEA98E1B6010E9404CFC501B60191
:104CE0000E9403D3CE0101960E9415D3C501C75A75
:104CF000DF4F0FB6F894DEBF0FBECDBFCF91DF916F
:104D00001F910F91FF90EF90DF90CF90BF90AF90E9
:104D100008952F923F924F925F926F927F928F925F
:104D20009F92AF92BF92CF92DF92EF92FF921F932A
:104D3000DF93CF93CDB7DEB7E6970FB6F894DEBF1B
:104D40000FBECDBF4C016B017E010894E11CF11C2C
:104D5000F8E22F2E312C2C0E3D1EEDE04E2E512C64
:104D60004C0E5D1E7CE1672E712C6C0E7D1E560173
:104D70000894A11CB11CC701B40141E00E941A7340
:104D8000C7010E94DB71882311F010E027C08FEA71
:104D900098E16DE275E00E94C1CEC7010E945E718C
:104DA000E6960FB6F894DEBF0FBECDBFCF91DF9170
:104DB0001F91FF90EF90DF90CF90BF90AF909F90AA
:104DC0008F907F906F905F904F903F902F900895BD
:104DD0008FEA98E169E00E9468CC1F5F812F90E024
:104DE0008C159D05ACF3C7010E946471BC018FEA6C
:104DF00098E10E94DBCDC7010E946971882381F18F
:104E00008FEA98E167E075E00E94C1CE8B819C81BA
:104E10009F8F8E8F8D819E81AF81B88588A399A346
:104E2000AAA3BBA389859A85AB85BC858CA39DA3CA
:104E3000AEA3BFA381E090E19D8F8C8FD101F201E1
:104E40008DE001900D928150E1F78A8D9B8D9EAB94
:104E50008DABC301B5015DDFC3010E945E7111C05E
:104E60008FEA98E161E375E00E94DBCDC7010E9403
:104E7000C871AB01BC018FEA98E12AE030E00E94E2
:104E80002ECDC7010E94E871C7010E945E7173CFE9
:104E90000F931F93DF93CF93CDB7DEB7E6970FB68F
:104EA000F894DEBF0FBECDBF85E361E00E9452C61D
:104EB0008EE893E165E30E94D376882339F48FEA84
:104EC00098E160EC76E00E94C1CE09C08FEA98E1DB
:104ED0006CED76E00E94C1CE81E080930611809156
:104EE0000611882309F484C08FEA98E163EF76E025
:104EF0000E94C1CECE0101966EE873E147E055E015
:104F000021E00E94B3758B819C819093EE10809379
:104F1000ED108D819E81AF81B8858093EF109093C5
:104F2000F010A093F110B093F21089859A85AB85AB
:104F3000BC858093F3109093F410A093F510B09378
:104F4000F610A7EFB0E1FE013D968DE001900D92C5
:104F50008150E1F78A8D9B8D909305118093041108
:104F6000CE0101960E945E7181E0809307118091CD
:104F7000ED109091EE109F8F8E8F8091EF10909199
:104F8000F010A091F110B091F21088A399A3AAA3F8
:104F9000BBA38091F3109091F410A091F510B09103
:104FA000F6108CA39DA3AEA3BFA381E090E19D8FDB
:104FB0008C8FDE019896E7EFF0E18DE001900D9285
:104FC0008150E1F780910411909105119EAB8DAB5A
:104FD0008E01045E1F4FC80160E070E09ADEC801D8
:104FE0000E945E718FEA98E165E077E00E94C1CE91
:104FF000E6960FB6F894DEBF0FBECDBFCF91DF911E
:105000001F910F910895AF92BF92CF92DF92EF92CE
:10501000FF920F931F938DE391E10E947D8D81E8B4
:1050200091E10E947D8D8DE391E10E94C38661151F
:1050300071058105910509F048C06091A40F709138
:10504000A50F8091A60F9091A70F2091AC0F3091E2
:10505000AD0F4091AE0F5091AF0F260F371F481F75
:10506000591F0E947ECF5B016C016091A80F709167
:10507000A90F8091AA0F9091AB0F2091B00F3091A2
:10508000B10F4091B20F5091B30F260F371F481F39
:10509000591F0E947ECF7B018C01C601B5010E9481
:1050A00026D45B016C01C801B7010E9426D49B0184
:1050B000AC01C601B5010E94B41C0E94F3D3AB0140
:1050C000BC018DE391E10E94588881E891E10E9442
:1050D000C386611571058105910509F048C060918D
:1050E000A40F7091A50F8091A60F9091A70F20910A
:1050F000AC0F3091AD0F4091AE0F5091AF0F260F16
:10510000371F481F591F0E947ECF5B016C016091C1
:10511000A80F7091A90F8091AA0F9091AB0F2091C9
:10512000B00F3091B10F4091B20F5091B30F260FD5
:10513000371F481F591F0E947ECF7B018C01C6017B
:10514000B5010E9426D45B016C01C801B7010E9421
:1051500026D49B01AC01C601B5010E947D1C0E94B2
:10516000F3D3AB01BC0181E891E10E9458881F9103
:105170000F91FF90EF90DF90CF90BF90AF90089588
:10518000EF92FF920F931F93CF93DF93C0E0D0E095
:105190008FEA98E16BE077E00E94DBCD8FEA98E13F
:1051A000BE014AE050E00E94BECD8DE391E10E9435
:1051B000C386611571058105910509F469C081E80F
:1051C00091E10E94C386611571058105910509F47D
:1051D0005FC08DE391E10E947D8D81E891E10E94A5
:1051E0007D8DE3CF6EEF7FEF8FEF9FEF23E030E019
:1051F00040E050E00E947ECF7B018C01A701662732
:1052000057FD6095762F8DE391E10E9469888FEAC2
:1052100098E164E177E00E94DBCD8FEA98E1B70185
:105220004AE050E00E94BECD81E891E10E94C38631
:10523000611571058105910511F56EEF7FEF8FEF17
:105240009FEF23E030E040E050E00E947ECF7B0102
:105250008C01A701662757FD6095762F81E891E1C3
:105260000E9469888FEA98E16AE277E00E94DBCDCC
:105270008FEA98E1B7014AE050E00E94BECD0E945B
:10528000C81D219683E0C83ED80709F081CF0AC027
:105290008DE391E10E94C386611571058105910539
:1052A00019F6A0CFDF91CF911F910F91FF90EF9052
:1052B0000895AF92BF92CF92DF92EF92FF920F9339
:1052C0001F93CF93DF93EC015B016A0181E490E1CE
:1052D00069E070E00E94548FCA15DB059CF47601EA
:1052E0000027F7FC0095102F81E490E1BE010E9499
:1052F0003D8EC801B7010E948DC52196AC16BD0632
:105300009CF712C076010027F7FC0095102F81E46E
:1053100090E1BE010E943D8EC801B7010E948DC57B
:105320002197CA15DB059CF781E490E10E94D18D9D
:10533000DF91CF911F910F91FF90EF90DF90CF9071
:10534000BF90AF900895EF92FF920F931F93DF935A
:10535000CF93CDB7DEB727970FB6F894DEBF0FBE59
:10536000CDBF8091621090916310209144100297FC
:1053700014F1222329F0E090E70FF090E80F04C029
:10538000E090E90FF090EA0F8E010F5F1F4FC80108
:105390006FE172E10E9403D3C801ACD89093EA0F89
:1053A0008093E90FC8010E9415D36091E90F7091B5
:1053B000EA0FC7010AC0213059F46091E90F7091DA
:1053C000EA0F8091E70F9091E80F43E050E071DF22
:1053D0001092441027960FB6F894DEBF0FBECDBFD3
:1053E000CF91DF911F910F91FF90EF900895EF9271
:1053F000FF920F931F93DF93CF93CDB7DEB727971D
:105400000FB6F894DEBF0FBECDBF809162109091B1
:10541000631020914410029714F1222329F0E090A8
:10542000E70FF090E80F04C0E090E90FF090EA0F6A
:105430008E010F5F1F4FC8016FE172E10E9403D31D
:10544000C80158D89093E80F8093E70FC8010E94D5
:1054500015D36091E70F7091E80FC7010AC02223AE
:1054600059F46091E70F7091E80F8091E90F9091E6
:10547000EA0F43E050E01DDF81E08093441027965F
:105480000FB6F894DEBF0FBECDBFCF91DF911F9155
:105490000F91FF90EF900895EF92FF920F931F935B
:1054A000CF93DF93182F8CE7E82E80E1F82EC70109
:1054B00062E344EB22E30E94DB98C12FD0E0CE01EF
:1054C0000196A5ECB1E1CC0FDD1FCC0FDD1FFD0176
:1054D000EC0FFD1F60817181CA0FDB1F4A815B8168
:1054E000880F991F880F991FFD01E80FF91F208170
:1054F0003181A80FB91F12960D911C911397C70106
:105500000E94D699C70162E344EB22E30E94F3981C
:10551000C7016FEF4FEF2FEF0E94DB98DF91CF9124
:105520001F910F91FF90EF900895AF92BF92CF928D
:10553000DF92EF92FF920F931F93DF93CF93CDB73C
:10554000DEB72E970FB6F894DEBF0FBECDBF5C015D
:105550007B018091D10F813009F054C08CE790E13C
:1055600060E040E020E00E94DB984091CB11509138
:10557000CC116091C5117091C6118A01085E1F4F50
:105580008CE790E1465F5F4F20E431E00E94D699BE
:105590008CE790E16FEF4FEF2FEF0E94DB988CE7E5
:1055A00090E160E040E020E00E94F3986E010894F2
:1055B000C11CD11CC601B7010E940CD3C601B501A4
:1055C0000E9422D2BC0198E0E92EF12CEC0EFD1EC7
:1055D000C7010E9403D34091C5115091C61120917B
:1055E000CB113091CC11265F3F4F8CE790E1B70192
:1055F00000E010E00E94A8A0C7010E9415D3C601D8
:105600000E941AD32E960FB6F894DEBF0FBECDBF00
:10561000CF91DF911F910F91FF90EF90DF90CF908E
:10562000BF90AF900895CF92DF92EF92FF920F93C9
:105630001F93DF93CF93CDB7DEB76C970FB6F89477
:10564000DEBF0FBECDBF8CE790E160E040E020E020
:105650000E94DB984091CB115091CC116091C51103
:105660007091C6118A01085E1F4F8CE790E1465F7A
:105670005F4F20E431E00E94D6998CE790E16FEF14
:105680004FEF2FEF0E94DB988CE790E160E040E065
:1056900020E00E94F3988E010F5F1F4FC80160E465
:1056A00077E00E9455D284EE90E167E072E00E94BC
:1056B000D4D0882349F484EE90E169E075E00E943B
:1056C000D4D0882309F45AC080910711882319F196
:1056D00038E0E32EF12CEC0EFD1EC70167E072E00E
:1056E0000E9455D28E01015F1F4FC801B70141E0F2
:1056F00050E02EDA84EE90E1B8010E94EED2C801AB
:105700000E9415D3C7010E9415D3CE01019664EE05
:1057100070E10E94EED226E1E22EF12CEC0EFD1E8D
:10572000C7016E010894C11CD11CB6010E9403D3AD
:105730004091C5115091C6112091CB113091CC11DF
:10574000265F3F4F8CE790E1B70100E010E00E9438
:10575000A8A0C7010E9415D3C6010E9415D36C965C
:105760000FB6F894DEBF0FBECDBFCF91DF911F9172
:105770000F91FF90EF90DF90CF900895C801C7CFB1
:105780000F931F9390E0FC013197E432F10508F08C
:1057900034C6EE58FF4FEE0FFF1F0590F491E02D39
:1057A000199480E079DE8091CF0F869590E040914A
:1057B000C5115091C6114A505040480F591F2091B1
:1057C000C7113091C8112C503040280F391F8CE779
:1057D00090E16EE477E000E010E00E94F69E2091F8
:1057E000CF0F269530E04091C5115091C6114E5013
:1057F0005040420F531F8091C7119091C811280F3C
:10580000391F8CE790E162E577E0F5C580E044DE82
:105810008091CF0F869590E04091C5115091C611AF
:1058200046515040480F591F2091C7113091C8115F
:105830002C503040280F391F8CE790E167E577E066
:1058400000E010E00E94F69E2091CF0F269530E0F8
:105850004091C5115091C61146505040420F531F00
:105860008091C7119091C811280F391F8CE790E1E2
:105870006EE577E0C0C580E00FDE8091CF0F8695A2
:1058800090E04091C5115091C61146515040480FCB
:10589000591F2091C7113091C8112C503040280F4A
:1058A000391F8CE790E167E577E000E010E00E94A7
:1058B000F69E2091CF0F269530E04091C511509172
:1058C000C6114A505040420F531F8091C71190910A
:1058D000C811280F391F8CE790E161E677E08BC58E
:1058E00082E0DADD8091CF0F869590E04091CD1176
:1058F0005091CE114E505040480F591F2091CF115A
:105900003091D01122513040280F391F8CE790E19F
:1059100065E677E000E010E00E94F69E8091CF0FF0
:10592000869590E04091CD115091CE114E5050404F
:10593000480F591F2091CF113091D011265030407F
:10594000280F391F8CE790E16AE677E00E94F69E07
:105950008091CF0F869590E04091CD115091CE115E
:1059600046505040480F591F2091CF113091D0110F
:105970002A5F3F4F280F391F8CE790E16FE677E0F1
:105980003AC584E089DD8091CF0F869590E0409103
:10599000D5115091D6114E505040480F591F2091AB
:1059A000D7113091D81126503040280F391F8CE77D
:1059B00090E162E777E09AC384E06EDD8091CF0FDB
:1059C000869590E04091D5115091D61142515040AA
:1059D000480F591F2091D7113091D8112C503040C9
:1059E000280F391F8CE790E167E777E000E010E0CF
:1059F0000E94F69E2091CF0F269530E04091D51160
:105A00005091D61142515040420F531F8091D711EF
:105A10009091D811280F391F8CE790E16DE777E05E
:105A2000EAC486E039DD8091CF0F869590E0409101
:105A3000DD115091DE1142515040480F591F209105
:105A4000DF113091E01126503040280F391F8CE7CC
:105A500090E163E877E04AC386E01EDD8091CF0FD6
:105A6000869590E04091DD115091DE1146515040F5
:105A7000480F591F2091DF113091E011265030401E
:105A8000280F391F8CE790E169E877E02FC384E0A5
:105A900003DD8091CF0F869590E04091D511509114
:105AA000D61142515040480F591F2091D7113091C3
:105AB000D81126503040280F391F8CE790E160E95B
:105AC00077E014C388E0E8DC8091CF0F869590E002
:105AD0004091E5115091E6114A505040480F591F2E
