:100000000C94DC100C94A1C70C94D2C70C9403C8B8
:100010000C9434C80C9465C80C9496C80C94C7C84A
:100020000C94F8C80C9409110C9409110C94091142
:100030000C9409110C9409110C9409110C940911D8
:100040000C9409110C941A940C9409110C94091134
:100050000C9409110C9409110C9409110C9429C9E0
:100060000C9409110C947FCB0C94C3CC0C94091103
:100070000C9409110C9409110C9409110C94091198
:100080000C94ED930C9409110C9409110C94091122
:100090000C94BFCB0C9402CD0C9409110C94091153
:1000A0000C9409110C9409110C94C0930C9409112F
:1000B0000C9409110C9409110C9409110C9493934C
:1000C0000C9409110C9409110C9409110C94FFCB98
:1000D0000C9441CD0C9409110C943FCC0C9480CD20
:1000E0000C940911032ED72E282F782F932FAE2F83
:1000F000C92FFE2F7C314D31623033306634663487
:100100009130AC306634C6319731C332CA339B3339
:100110002F34FF337A325F322A32FB313133E0320F
:100120006633382E6D2EC7301831432FA22E663419
:1001300018317149AA4C74497849AA4C7D498549BE
:100140008D49BA49784BA04BAA4CAA4CC84B2B4BB3
:10015000AA4CE949164AE14BF24B1D4C4B4C764CEC
:10016000454A6D4AB54ADD4AD94BD74BDB4B694905
:100170006D49694BDD4BA44C214BAA4CDF4B889A4F
:10018000A89ACF9A489B489B489BE59A7B9B889A64
:100190007B9B089B7B9B179B179B359B359BCF9A23
:1001A000489B489BCF9A179B7B9B489B609B7B9B64
:1001B0007B9B7B9B7B9B7B9BA9A444A661A757A8A9
:1001C00094A994A96FABD7ACE6B1E4AD3EAFABAFA9
:1001D00073B37CB42DB62DB661A72DB72DB761A72B
:1001E0004FB588B829AA51B920BA26BC4DBBDFBC8F
:1001F00028BE05A84CCDB2D44EB93836A9020C5051
:10020000B9918688083CA6AAAA2ABE000000803FB1
:10021000000000006410B71DC8206E3BAC30D9262A
:100220009041DC76F4516B6B5861B24D3C710550D6
:100230002083B8ED44930FF0E8A3D6D68CB361CBFE
:10024000B0C2649BD4D2D38678E20AA01CF2BDBDB2
:1002500050424D20696D616765206D757374206231
:1002600065206174206C6561737420313020706981
:1002700078656C7320776964652E002C206D617839
:100280002064656E736974793A20002C2070656E65
:100290002077696474683A200050656E77696474E9
:1002A00068207465737420002C2072656475636522
:1002B000643A002C206F75744D61783A002C2069E7
:1002C0006E4D61783A00696E44656E733A004D6117
:1002D000782064656E736974793A20002C20726FFF
:1002E0007753697A653A2000466F722070656E53C5
:1002F000697A653A20002C20736F20726F777369DA
:100300007A6520696E2073746570733A20002C2022
:100310006D6D506572537465703A2000726F77731B
:10032000697A6520696E206D6D3A200020737465CE
:1003300070732E003A20004D696E207365676D65FD
:100340006E742073697A6520666F722070656E53D3
:10035000697A65200063616C632053450063616CBA
:1003600063204E570063616C632053570063616CD8
:1003700063204E450063616C63756C617465642035
:100380004E450063616C63756C61746564205357FE
:100390000063616C63756C61746564205345006330
:1003A000616C63756C61746564204E57002E002C7F
:1003B00020736F75726365423A20002E20536F756B
:1003C000726365413A20002C207461726765744243
:1003D0003A2000546172676574413A20002C206F06
:1003E0004F7574206E756D626572206F662077613F
:1003F0007665733A20002C20696E707574206465F0
:100400006E736974793A20004D6178207761766562
:1004100073207769746820746869732070656E2032
:10042000616E64206772696473697A653A20002E90
:10043000002E20656E6420706F696E743A20005340
:100440007461727420706F696E743A2000643A208F
:100450004E4500643A204E5700643A2053570064DA
:100460003A205345002C206D61782064656E7369D5
:1004700074793A20002C2070656E20776964746866
:100480003A200050656E77696474682074657374EF
:1004900020004368616E67696E67206261636B204C
:1004A000746F206C697665206D6F64652E004669F7
:1004B0006C652072656D6F7665642E0046696C65AB
:1004C00020616C7265616479206578697374732E3C
:1004D00000457865637574696E6720636F6D6D6143
:1004E0006E643A0053746F72696E6720636F6D6D4E
:1004F000616E643A006D6D004368616E67656420EB
:1005000050656E20776964746820746F20004E65B2
:100510007720616363656C65726174696F6E3A2000
:10052000004E6577206D61782073706565643A20B0
:100530000055703A2000446F776E3A2000504753C0
:10054000504545442C0050474C4946542C005047D8
:10055000535445504D554C5449504C4945522C002C
:10056000504753544550535045525245562C005015
:10057000474D4D5045525245562C00504753495A0D
:10058000452C0050474E414D452C002900526563D3
:10059000616C63207061676548656967687420698C
:1005A0006E207374657073202800290052656361A2
:1005B0006C632070616765576964746820696E2098
:1005C00073746570732028002900292C20737465CA
:1005D00070735065724D4D202800526563616C63E5
:1005E000206D6D506572537465702028004C6F61EA
:1005F000646564206D6F746F722073746570206D14
:10060000756C7469706C6965723A004C6F616465F1
:1006100064206D616368696E65206E616D653A0086
:100620004C6F6164656420757020706F733A004C84
:100630006F6164656420646F776E20706F733A0039
:100640004C6F61646564206D6F746F7220737465A4
:10065000707320706572207265763A004C6F616429
:100660006564206D6D20706572207265763A004C6D
:100670006F61646564206D616368696E652068659B
:10068000696768743A004C6F61646564206D6163EA
:1006900068696E652077696474683A002069736ED2
:1006A0002774206120636F6D6D616E642049207234
:1006B00065636F676E6973652E00536F7272792C74
:1006C000200029206E6F74207061727365642E00A3
:1006D000436F6D6D616E64202800436865636B73C2
:1006E000756D206E6F74206D617463686564213A66
:1006F000004920676F742000536572766F200048B0
:10070000617264776172653A20007600504F4C4107
:10071000524752415048204F4E21007C3C3E5E2BB8
:100720003D3F2F5B5D3B2C2A225C00080C205F00C4
:100730000000000000000000000000000020202059
:100740002020200020000000285050000000000061
:1007500000000000002828FC2850FC505000000039
:100760002078A8A0603028A8F02000000048A8B099
:1007700050283454480000000020505078A8A89019
:100780006C000000404080000000000000000000FD
:100790000408101010101010080400004020101061
:1007A0001010101020400000000020A87070A82039
:1007B0000000000000202020F82020200000000081
:1007C0000000000000000000404080000000000029
:1007D000F800000000000000000000000000000021
:1007E0004000000008101010202040404080000011
:1007F0000070888888888888700000000020602049
:100800002020202070000000007088881020408088
:10081000F8000000007088083008088870000000A8
:1008200000103050509078101800000000F88080C0
:10083000F00808887000000000709080F0888888B8
:100840007000000000F89010202020202000000000
:100850000070888870888888700000000070888820
:1008600088780848700000000000002000000000A8
:1008700020000000000000002000000020200000F8
:10088000040810204020100804000000000000F8B8
:100890000000F800000000004020100804081020AC
:1008A0004000000000708888102020002000000018
:1008B00000708898A8A8B880780000000020203038
:1008C00050507848CC00000000F048487048484834
:1008D000F000000000788880808080887000000030
:1008E00000F0484848484848F000000000F84850E8
:1008F00070504048F800000000F8485070504040E8
:10090000E000000000384880809C884830000000EB
:1009100000CC484878484848CC00000000F8202027
:1009200020202020F8000000007C10101010101073
:1009300090E0000000EC485060505048EC0000008F
:1009400000E0404040404044FC00000000D8D8D8BF
:10095000D8A8A8A8A800000000DC48686858584833
:10096000E80000000070888888888888700000008F
:1009700000F0484870404040E00000000070888867
:100980008888E8987018000000F04848705048487F
:10099000EC0000000078888060100888F0000000FB
:1009A00000F8A820202020207000000000CC48483B
:1009B000484848483000000000CC4848505030209B
:1009C0002000000000A8A8A870505050500000005F
:1009D00000D8505020205050D800000000D850506F
:1009E000202020207000000000F8901020204048B7
:1009F000F80000003820202020202020203800008F
:100A0000404040202010101008000000701010100E
:100A100010101010107000002050000000000000A6
:100A20000000000000000000000000000000FC00CA
:100A30002000000000000000000000000000000096
:100A4000304838483C00000000C0404070484848EA
:100A500070000000000000003848404038000000EE
:100A600000180808384848483C0000000000000012
:100A70003048784038000000001C202078202020DA
:100A800078000000000000003C4830407844380006
:100A900000C0404070484848EC00000000200000C2
:100AA00060202020700000000010000030101010A6
:100AB0001010E00000C040405C507048EC000000A6
:100AC00000E0202020202020F8000000000000008E
:100AD000F0A8A8A8A800000000000000F0484848BE
:100AE000EC000000000000003048484830000000E2
:100AF00000000000F04848487040E000000000009E
:100B00003848484838081C0000000000D8604040C1
:100B1000E00000000000000078403008780000008D
:100B2000000020207020202018000000000000009D
:100B3000D84848483C00000000000000EC48503015
:100B40002000000000000000A8A870505000000025
:100B500000000000D8502050D80000000000000025
:100B6000EC4850302020C000000000007810202009
:100B7000780000001810101020101010101800102D
:100B800010101010101010101010100060202020F5
:100B90001020202020600040A41800000000000069
:100BA0000000001010205F000000000000000000A6
:100BB0000000000000000000000000000000000035
:100BC000000000000000000000000007000F800F80
:100BD000800F800F800F80070007000000000007D3
:100BE0000007000700000000000E380E380E380E17
:100BF0003806300000000000000000000000000087
:100C00000000000000000000000C300C300C307FB1
:100C1000FE7FFE0C300C300C300C307FFE7FFE0C63
:100C2000300C300C3000000000024002400FF81F72
:100C3000F81A401A401FF00FF8025802581FF81F08
:100C4000F00240024000000000000000000E100E04
:100C5000300E7000E001C0038007000E700C7008B9
:100C600070000000000000000000000F0019801953
:100C70008019800F000F080F9819F818F018E01964
:100C8000F00F9800000000000000000700070007B8
:100C9000000E000000000000000000000000000046
:100CA000000000000000000000000000F001C00390
:100CB0008007000E000E000E000E000700038001EA
:100CC000C000F000000000000000000F00038001E1
:100CD000C000E0007000700070007000E001C00310
:100CE000800F000000000000000000018011880952
:100CF0009007E007E03FFC3FFC07E007E0099011A8
:100D000088018000000000000000000000000001D9
:100D100080018001800FF00FF001800180018000D0
:100D200000000000000000000000000000000000C3
:100D300000000000000000000000000000070007A5
:100D40000007000E0000000000000000000000008E
:100D500000000000001FF81FF80000000000000065
:100D60000000000000000000000000000000000083
:100D70000000000000000000000000000007000765
:100D80000007000000000000000000000200060054
:100D90000E001C0038007000E001C0038007000E48
:100DA000001C0000000000000000000FF01C381CB8
:100DB000781CF81CF81DB81DB81F381F381E381CC9
:100DC000380FF000000000000000000180018003E7
:100DD000801F801F800380038003800380038003C3
:100DE000801FF000000000000000000FE01C701CDD
:100DF000380038007000E001C0038007000E381C86
:100E0000381FF800000000000000000FE01C701CFC
:100E1000380038007003C003C0007000381C381C54
:100E2000700FE0000000000000000000E001E0039F
:100E3000E006E00CE018E01FF81FF800E000E0001A
:100E4000E003F800000000000000001FF81C001C78
:100E5000001C001C001FE01FF0007800381C381C2C
:100E6000700FE0000000000000000003E007000E2B
:100E7000001C001C001FF01FF81C381C381C381CFC
:100E8000380FF000000000000000001FFC1C1C1CBC
:100E90001C1C1C001C0038007000E001C003800313
:100EA00080038000000000000000000FF01C381CD0
:100EB000381C381F3807E007E01CF81C381C381CA9
:100EC000380FF000000000000000000FF01C381C7C
:100ED000381C381C381FF80FF80038003800700034
:100EE000E007C00000000000000000000000000358
:100EF00080038003800000000003800380038000E3
:100F000000000000000000000000000000000003DE
:100F100080038003800000000003800380038007BB
:100F2000000000000000000000007000E001C003AD
:100F30008007000E001C001C000E0007000380014B
:100F4000C000E00070000000000000000000000091
:100F5000003FFC3FFC000000003FFC3FFC000000A5
:100F60000000000000000000001C000E000700034D
:100F70008001C000E00070007000E001C003800745
:100F8000000E001C000000000003C00FF01E7818C7
:100F9000380038007000E001C001C000000000010E
:100FA000C001C001C0000000000FF81C1C1C1C1C6C
:100FB0001C1C1C1CFC1CFC1CFC1CFC1C001C001C29
:100FC000001FF007F800000000000003C007E00E5B
:100FD000701C381C381C381C381FF81C381C381C76
:100FE000381C3800000000000000001FF00E380E12
:100FF000380E380E380FF00FF00E380E380E380E4F
:10100000381FF0000000000000000007F00E381C40
:10101000381C001C001C001C001C001C001C380E8E
:101020003807F000000000000000001FE00E700E06
:10103000380E380E380E380E380E380E380E380E80
:10104000701FE000000000000000001FF80E180EE6
:10105000080E000E300FF00FF00E300E000E080ECE
:10106000181FF800000000000000001FF80E180E06
:10107000080E000E300FF00FF00E300E000E000EB6
:10108000001F00000000000000000007F00E381CE8
:10109000381C381C001C001C001CF81C381C380EA6
:1010A0003807F800000000000000001C701C701CD5
:1010B000701C701C701FF01FF01C701C701C701CCA
:1010C000701C7000000000000000000FE0038003AF
:1010D00080038003800380038003800380038003F8
:1010E000800FE0000000000000000001FC00700024
:1010F0007000700070007000703870387038703890
:10110000700FE000000000000000001E380E380ED6
:10111000700EE00FC00F800F800FC00EE00E700E3B
:10112000381E3800000000000000001F000E000EF6
:10113000000E000E000E000E000E000E080E180E1F
:10114000381FF800000000000000001C1C1E3C1F9F
:101150007C1FFC1FFC1DDC1C9C1C1C1C1C1C1C1C68
:101160001C1C1C00000000000000001C1C1C1C1E9D
:101170001C1F1C1F9C1DDC1CFC1C7C1C3C1C1C1C08
:101180001C1C1C000000000000000003E007F00E23
:10119000381C1C1C1C1C1C1C1C1C1C1C1C0E38077A
:1011A000F003E000000000000000001FF00E380E09
:1011B000380E380E380FF00FF00E000E000E000E35
:1011C000001F00000000000000000003E00F780E88
:1011D000381C1C1C1C1C1C1C1C1C7C1CFC0FF80F31
:1011E000F8003800FC0000000000001FF00E380E70
:1011F000380E380E380FF00FF00E700E380E380E15
:10120000381E3800000000000000000FF01C381CE1
:10121000381C381C000FE007F000381C381C381C44
:10122000380FF000000000000000001FFC19CC1176
:10123000C401C001C001C001C001C001C001C001A2
:10124000C007F000000000000000001C701C701CB3
:10125000701C701C701C701C701C701C701C701C2E
:10126000700FE000000000000000001C701C701CEB
:10127000701C701C701C701C701C701C700EE007C1
:10128000C0038000000000000000001C1C1C1C1C8F
:101290001C1C1C1C1C1C9C1C9C1C9C0FF80FF80785
:1012A00070077000000000000000001C701C701C23
:1012B000700EE007C00380038007C00EE01C701CA6
:1012C000701C7000000000000000001C701C701CEE
:1012D000701C701C700EE007C00380038003800345
:1012E000800FE000000000000000001FF81C38180C
:1012F00038107000E001C0038007000E081C181CA5
:10130000381FF8000000000000000007F007000789
:101310000007000700070007000700070007000795
:101320000007F00000000000000000100018001C82
:10133000000E000700038001C000E00070003800CC
:101340001C0007000000000000000007F000700013
:10135000700070007000700070007000700070000D
:101360007007F0000000000000018003C007E00EDD
:10137000701C3800000000000000000000000000A9
:10138000000000000000000000000000000000005D
:10139000000000000000000000000000000000004D
:1013A0000000007FFF7FFF000000001C001C000702
:1013B0000007000000000000000000000000000026
:1013C000000000000000000000000000000000001D
:1013D0000000000FE0007000700FF01C701C701C0B
:1013E000700FD800000000000000001E000E000E6C
:1013F000000E000FF00E380E380E380E380E380E74
:10140000381BF00000000000000000000000000099
:101410000000000FE01C701C701C001C001C701CE5
:10142000700FE0000000000000000000F8007000F5
:101430007000700FF01C701C701C701C701C701CF5
:10144000700FD80000000000000000000000000045
:101450000000000FE01C701C701FF01C001C701CB2
:10146000700FE0000000000000000003E0077007BC
:1014700070070007001FE01FE007000700070007D4
:10148000001FC0000000000000000000000000007D
:101490000000000FD81C701C701C701C700FF0072F
:1014A000F000701C700FE0000000001E000E000E27
:1014B000000E000EF00F380F380E380E380E380EB2
:1014C000381E38000000000000000001C001C0010B
:1014D000C000000FC001C001C001C001C001C001B7
:1014E000C00FF80000000000000000007000700055
:1014F00070000003F0007000700070007000700059
:10150000701C700CF007E0000000001E000E000EC2
:10151000000E000E380E700EE00FC00EE00E700EC2
:10152000381E3800000000000000000FC001C0019C
:10153000C001C001C001C001C001C001C001C001A3
:10154000C00FF800000000000000000000000000D4
:101550000000001FF81C9C1C9C1C9C1C9C1C9C1CC0
:101560009C1C9C0000000000000000000000000027
:101570000000001FE01C701C701C701C701C701C94
:10158000701C70000000000000000000000000005F
:101590000000000FE01C701C701C701C701C701C84
:1015A000700FE000000000000000000000000000DC
:1015B0000000001BF00E380E380E380E380E380FB3
:1015C000F00E000E001F00000000000000000000F0
:1015D0000000001FB038E038E038E038E038E01FA5
:1015E000E000E000E001F00000000000000000006A
:1015F0000000001EF00FF80F380E000E000E000E57
:10160000001F0000000000000000000000000000BB
:101610000000000FE01C301C300F8003E018701831
:10162000700FE00000000000000000000001000357
:101630000007001FF00700070007000700077007FA
:101640007003E00000000000000000000000000047
:101650000000001C701C701C701C701C701C701C26
:10166000700FD80000000000000000000000000023
:101670000000001C701C701C701C701C700EE007B9
:10168000C003800000000000000000000000000017
:101690000000001C1C1C1C1C1C1C9C1C9C0FF80724
:1016A0007007700000000000000000000000000053
:1016B0000000001CE01CE00FC0078007800FC01C6A
:1016C000E01CE0000000000000000000000000003E
:1016D0000000000E380E380E380E380E3807F003B2
:1016E000E000E001C01F80000000000000000000DA
:1016F0000000001FE018E011C0038007000E201C4E
:10170000601FE0000000000000000001F8038003FB
:1017100080038007001C001C000700038003800377
:101720008001F800000000000001C001C001C001FC
:10173000C001C001C001C001C001C001C001C001A1
:10174000C001C001C00000000000001F8001C001F6
:10175000C001C000E00038003800E001C001C00155
:10176000C01F8000000000000000001F1C3B9C39CF
:10177000DC38F8000000000000000000000000005D
:10178000000000000000002032300A0000000000CD
:1017900000000000FFFE0001FFFF0003FFFF8001CB
:1017A000FFFF600CFFFEF01E0001F83F0001F83F54
:1017B0000001F83F0001F83F0001F83F0001F83F49
:1017C0000001F83F0001F83F0001F83F0001F83F39
:1017D0000001F83F0001F83F0001F83F0001F83E2A
:1017E00000007838000018200000080000000020E9
:1017F000000000380000183E0000783F0001F83F6C
:101800000001F83F0001F83F0001F83F0001F83FF8
:101810000001F83F0001F83F0001F83F0001F83FE8
:101820000001F83F0001F83F0001F83F0001F83FD8
:101830000001F81E0000F00CFFFE6001FFFF000336
:10184000FFFF8001FFFF0000FFFE0000000000001E
:101850000000000000000000000000000000000088
:101860000000000000000000000060000000F00028
:101870000001F8000001F8000001F8000001F80084
:101880000001F8000001F8000001F8000001F80074
:101890000001F8000001F8000001F8000001F80064
:1018A0000001F8000001F8000000780000001800B6
:1018B0000000080000000000000000000000180008
:1018C000000078000001F8000001F8000001F800B5
:1018D0000001F8000001F8000001F8000001F80024
:1018E0000001F8000001F8000001F8000001F80014
:1018F0000001F8000001F8000001F8000000F0000D
:101900000000600000000000000000000000000077
:1019100000000000000000000000000000000000C7
:1019200000000000FFFE0001FFFF0003FFFF800139
:10193000FFFF6000FFFEF0000001F8000001F8006A
:101940000001F8000001F8000001F8000001F800B3
:101950000001F8000001F8000001F8000001F800A3
:101960000001F8000001F8000001F8000001F80093
:1019700000007801FFFE1803FFFF880FFFFFE0273C
:10198000FFFFC039FFFF003E0000003F0000003FA6
:101990000000003F0000003F0000003F0000003F4B
:1019A0000000003F0000003F0000003F0000003F3B
:1019B0000000003F0000003F0000003F0000003F2B
:1019C0000000001E0000000CFFFE0001FFFF0003EE
:1019D000FFFF8001FFFF0000FFFE0000000000008D
:1019E000000000000000000000000000FFFE0001F9
:1019F000FFFF0003FFFF8001FFFF6000FFFEF0001C
:101A00000001F8000001F8000001F8000001F800F2
:101A10000001F8000001F8000001F8000001F800E2
:101A20000001F8000001F8000001F8000001F800D2
:101A30000001F8000001F80000007801FFFE180323
:101A4000FFFF880FFFFFE007FFFFC001FFFF180047
:101A5000000078000001F8000001F8000001F80023
:101A60000001F8000001F8000001F8000001F80092
:101A70000001F8000001F8000001F8000001F80082
:101A80000001F8000001F8000001F8000000F0007B
:101A9000FFFE6001FFFF0003FFFF8001FFFF00006A
:101AA000FFFE000000000000000000000000000039
:101AB0000000000000000000000000000000000026
:101AC0000000600C0000F01E0001F83F0001F83F2C
:101AD0000001F83F0001F83F0001F83F0001F83F26
:101AE0000001F83F0001F83F0001F83F0001F83F16
:101AF0000001F83F0001F83F0001F83F0001F83E07
:101B000000007839FFFE1823FFFF880FFFFFE00772
:101B1000FFFFC001FFFF1800000078000001F8007F
:101B20000001F8000001F8000001F8000001F800D1
:101B30000001F8000001F8000001F8000001F800C1
:101B40000001F8000001F8000001F8000001F800B1
:101B50000001F8000000F00000006000000000003C
:101B60000000000000000000000000000000000075
:101B7000000000000000000000000000FFFE000167
:101B8000FFFF0003FFFF8001FFFF000CFFFE001EB0
:101B90000000003F0000003F0000003F0000003F49
:101BA0000000003F0000003F0000003F0000003F39
:101BB0000000003F0000003F0000003F0000003F29
:101BC0000000003F0000003E00000039FFFE00233F
:101BD000FFFF800FFFFFE007FFFFC001FFFF1800BE
:101BE000000078000001F8000001F8000001F80092
:101BF0000001F8000001F8000001F8000001F80001
:101C00000001F8000001F8000001F8000001F800F0
:101C10000001F8000001F8000001F8000000F000E9
:101C2000FFFE6001FFFF0003FFFF8001FFFF0000D8
:101C3000FFFE0000000000000000000000000000A7
:101C400000000000FFFE0001FFFF0003FFFF800116
:101C5000FFFF000CFFFE001E0000003F0000003FE1
:101C60000000003F0000003F0000003F0000003F78
:101C70000000003F0000003F0000003F0000003F68
:101C80000000003F0000003F0000003F0000003E59
:101C900000000039FFFE0023FFFF800FFFFFE02759
:101CA000FFFFC039FFFF183E0000783F0001F83FFA
:101CB0000001F83F0001F83F0001F83F0001F83F44
:101CC0000001F83F0001F83F0001F83F0001F83F34
:101CD0000001F83F0001F83F0001F83F0001F83F24
:101CE0000001F81E0000F00CFFFE6001FFFF000382
:101CF000FFFF8001FFFF0000FFFE0000000000006A
:101D0000000000000000000000000000FFFE0001D5
:101D1000FFFF0003FFFF8001FFFF6000FFFEF000F8
:101D20000001F8000001F8000001F8000001F800CF
:101D30000001F8000001F8000001F8000001F800BF
:101D40000001F8000001F8000001F8000001F800AF
:101D50000001F8000001F800000078000000180001
:101D60000000080000000000000000000000180053
:101D7000000078000001F8000001F8000001F80000
:101D80000001F8000001F8000001F8000001F8006F
:101D90000001F8000001F8000001F8000001F8005F
:101DA0000001F8000001F8000001F8000000F00058
:101DB00000006000000000000000000000000000C3
:101DC0000000000000000000000000000000000013
:101DD00000000000FFFE0001FFFF0003FFFF800185
:101DE000FFFF600CFFFEF01E0001F83F0001F83F0E
:101DF0000001F83F0001F83F0001F83F0001F83F03
:101E00000001F83F0001F83F0001F83F0001F83FF2
:101E10000001F83F0001F83F0001F83F0001F83EE3
:101E200000007839FFFE1823FFFF880FFFFFE0272F
:101E3000FFFFC039FFFF183E0000783F0001F83F68
:101E40000001F83F0001F83F0001F83F0001F83FB2
:101E50000001F83F0001F83F0001F83F0001F83FA2
:101E60000001F83F0001F83F0001F83F0001F83F92
:101E70000001F81E0000F00CFFFE6001FFFF0003F0
:101E8000FFFF8001FFFF0000FFFE000000000000D8
:101E9000000000000000000000000000FFFE000144
:101EA000FFFF0003FFFF8001FFFF600CFFFEF01E3D
:101EB0000001F83F0001F83F0001F83F0001F83F42
:101EC0000001F83F0001F83F0001F83F0001F83F32
:101ED0000001F83F0001F83F0001F83F0001F83F22
:101EE0000001F83F0001F83E00007839FFFE18239A
:101EF000FFFF880FFFFFE007FFFFC001FFFF180093
:101F0000000078000001F8000001F8000001F8006E
:101F10000001F8000001F8000001F8000001F800DD
:101F20000001F8000001F8000001F8000001F800CD
:101F30000001F8000001F8000001F8000000F000C6
:101F4000FFFE6001FFFF0003FFFF8001FFFF0000B5
:101F5000FFFE00000000000000000000002100243F
:101F60000027002A002D003000330001010000048A
:101F70000107010A0100002200250028002B002E85
:101F8000003100340002010000050108010B0100CE
:101F90000020002300260029002C002F0032000022
:101FA00001000003010601090105050505070508F3
:101FB000080808020202020A0A08080404040401CC
:101FC00001010101010101030303030303030304EE
:101FD0000707070C0C0C0C0C0C0C0C02020202067E
:101FE000060606060606060B0B0B0B0B0B0B0B016E
:101FF000021020200808102040102040800201021A
:1020000001080402010102040810204080804020E1
:10201000100804020180040201804020100804021C
:10202000010804020101020408102040800102049A
:1020300008102040800000090A02080B0C0D07065A
:102040000304010000000000000000000000000088
:102050000000000000000000000000000000000080
:102060000011100F00000000000000000000000040
:102070000000000000000000000000494E46494EEC
:102080004954594E414ECDCCCC3D0AD7233C17B7CD
:10209000D13877CC2B329595E6241FB14F0A00003A
:1020A00020410000C84200401C4620BCBE4CCA1B58
:1020B0000E5AAEC59D7400407A10F35A00A0724EBD
:1020C00018090010A5D4E80000E87648170000E4DD
:1020D0000B54020000CA9A3B000000E1F505000025
:1020E00080969800000040420F000000A08601008A
:1020F0000000102700000000E8030000000064005A
:10210000000000000A0000000000010000000000C4
:102110002C76D888DC674F0823DFC1DFAE59E1B1E8
:10212000B796E5E3E453C63AE651997696E8E6C2F7
:102130008426EB898C9B62ED407C6FFCEFBC9C9FFE
:1021400040F2BAA56FA5F490055A2AF75C936B6C20
:10215000F9676DC11BFCE0E40D47FEF520E6B50014
:10216000D0ED902E0300943577050080841E080082
:1021700000204E0A000000C80C333333330F986E32
:1021800012831141EF8D2114893BE65516CFFEE6EF
:10219000DB18D1844B381BF77C1D901DA4BBE424B5
:1021A000203284725E228100C9F124ECA1E53D2732
:1021B0006B1BB876F0CE661B11241FBECFEFD1E2A9
:1021C000DEBFCDBF00E00CBF1FE0A0E0B2E0E6E064
:1021D000F8EB01E00BBF02C007900D92AC3DB107D8
:1021E000D9F71BBE18E1ACEDBFE001C01D92A73FBF
:1021F000B107E1F711E2C6EBD1E204C02297FE017C
:102200000E94B1DBC03BD107C9F70E9426D00C94D5
:10221000F7DB0C940000EF92FF920F931F93F22FC5
:10222000F02E47FD02C0E4E001C0E4E1242F332793
:1022300027FD309537FF03C0309521953F4F4F2D37
:10224000512F0F2FEE2E2FD18F2D912F1F910F91E8
:10225000FF90EF900895A0E0B0E0E1E3F1E10C948D
:10226000C8DBEC01A880B980CA80DB80A114B1046E
:10227000C104D10441F484E2A82E89EDB82E8BE587
:10228000C82E87E0D82EC601B5012DE133EF41E01D
:1022900050E00E9494DB27EA31E440E050E00E94E5
:1022A00020DB7B018C01C601B5012DE133EF41E05C
:1022B00050E00E9494DBCA01B9012CEE34EF4FEFDD
:1022C0005FEF0E9420DB6E0D7F1D801F911F97FF27
:1022D00004C06150704080409048688379838A834D
:1022E0009B839B01AC015F77B901CA01CDB7DEB713
:1022F000EAE00C94E4DBAFCF8AE89EE0ACCF6093D9
:102300008A0E70938B0E80938C0E90938D0E089591
:102310006627772729C2FC0188279927E89421910D
:102320002032E9F3293010F02E30C8F32B3239F087
:102330002D3231F4689403C0AED0820F911D2191EB
:1023400020532A30C8F31EF4909581959F4F08952D
:102350001F93FC0199278827BC01E8941191103242
:10236000E9F3193010F01E30C8F31B3249F01D326A
:1023700041F4689405C07AD0610F711D811D911DD3
:10238000119110531A30B8F33EF4909580957095E2
:1023900061957F4F8F4F9F4F1F910895FB01DC0187
:1023A00004C08D910190801921F441505040C8F72C
:1023B000881B990B0895FB01DC0102C001900D926E
:1023C00041505040D8F70895FC018191861721F0C3
:1023D0008823D9F7992708953197CF010895FB01F4
:1023E000DC018D91019080190110D9F3990B0895AA
:1023F000FB01DC0101900D920020E1F70895FB0143
:10240000DC014150504030F08D910190801919F459
:102410000020B9F7881B990B0895FB01DC0141509E
:10242000504048F001900D920020C9F701C01D9264
:1024300041505040E0F70895FB0151915523A9F018
:10244000BF01DC014D9145174111E1F759F4CD0170
:102450000190002049F04D9140154111C9F3FB0155
:102460004111EFCF81E090E001970895592F482F57
:10247000372F262F660F771F881F991F660F771F2C
:10248000881F991F620F731F841F951F660F771F88
:10249000881F991F08957AE0979F902D879F802D20
:1024A000910D11240895A9E0B0E0E9E5F2E10C9462
:1024B000C4DB6A01122FA02EBE2C2BE3201718F4C8
:1024C0002CE3922E02C0902E9394AE014F5F5F4F8B
:1024D00027E0092DA6D2BC018981E82EFF24C7017F
:1024E00089709070019711F4ADE209C0B1FE02C08D
:1024F000ABE205C0B0FC02C0A0E001C0A0E2E3FE78
:102500003BC0AA2311F423E001C024E0211710F0FE
:1025100020E002C0121B212FEB2CB4FE02C0322F90
:102520000AC0F601322F80E202C08193315033237A
:10253000E1F7C20ED11CAA2319F0F601A1936F0195
:10254000F6013196E2FE05C09EE4D6019C9381E43B
:1025500004C09EE6D6019C9381E611968C939183EC
:102560003296DF01832F90E202C09D938150882331
:10257000E1F7E30FF11D40C0E2FE42C0AA2311F4CF
:1025800023E001C024E0211710F020E002C0121B5C
:10259000212FEB2CB4FE02C0922F0AC0F601922F1D
:1025A00080E202C0819391509923E1F7C20ED11CC1
:1025B000AA2319F0F601A1936F01F6013196E2FE0C
:1025C00008C089E4D6018C938EE411968C9386E43E
:1025D00007C089E6D6018C938EE611968C9386E629
:1025E00081833296DF01892F20E202C02D93815032
:1025F0008823E1F7E90FF11D10822EEF3FEFAFC006
:10260000161617061CF041E050E003C0AB014F5F07
:102610005F4FAA2019F480E090E003C08A2D90E07B
:10262000019620E030E0AA2311F021E030E0240FF1
:10263000351F280F391F812F90E02817390714F014
:1026400020E002C0121B212F4B2D50E0CA018071E7
:102650009070B4FC0DC0B3FC0BC0F601322F40E209
:1026600002C0419331503323E1F7C20ED11C01C0A7
:10267000322FAA2319F0F601A1936F01892B11F0D3
:10268000132F0AC0F601132F80E302C0819311506B
:102690001123E1F7C30ED11C092D060FBA8090E17A
:1026A000892E912C8E209F20E4FE04C0F1E3BF16FA
:1026B00009F40150101614F001E003C0093008F0CD
:1026C00008E09B0177FF02C020E030E0CB010196DB
:1026D000821B930BFE013196E80FF91F8EE2F82E54
:1026E0003B01601A71088A2D90E044275527481B4A
:1026F000590B8FEF2F3F380719F4D601FD926D016A
:10270000621773072CF06216730614F4808101C0FF
:1027100080E32150304031962417350724F0D6014C
:102720008D936D01E6CF2617370749F4B5E3BB1546
:1027300028F0BB1621F48114910409F481E3F60119
:102740008193D601812F90E202C09C938150119613
:102750008823D9F7E10FF11D108220E030E0C90194
:102760002996EEE00C94E0DBA0E0B0E0EAEBF3E1C8
:102770000C94C6DBEC015B016115710519F0FB01DE
:1027800091838083F9908F2D90E00E94B5DB892B97
:10279000C9F7FDE2FF1621F4F990EE24E39405C099
:1027A0002BE2F21609F4F990EE248E01015010404C
:1027B000C8016BE770E243E050E00BD2892BF9F4DB
:1027C0008E010E5F1F4FC8016EE770E245E050E0DA
:1027D00000D2892B19F48E01095F1F4FA114B10497
:1027E00019F0F50111830083E0FC04C070E090E073
:1027F00080E813C070E090E080E86FEF07C1C80187
:1028000063E870E243E050E0E4D1892B69F4A1145D
:10281000B10429F470E090E080EC6FE7F7C02296F5
:10282000F501D183C083F6CF8824992440E050E09D
:1028300060E070E0EF2DE053EA30A0F5F2E0EF2A1F
:102840008E2D90E09C0128703070E2FE06C0232B94
:1028500079F50894811C911C2BC0232B19F0089446
:1028600081089108DB01CA0112E0880F991FAA1F95
:10287000BB1F1A95D1F7480F591F6A1F7B1F440FC2
:10288000551F661F771F4E0F511D611D711D483961
:1028900029E9520729E9620729E1720748F084E033
:1028A000E82A06C0EE3F31F4E3FC39C098E0E92A9B
:1028B000F990C0CFE53311F0E53189F529912D323A
:1028C00019F4E0E1EE2A05C02B3219F081E090E026
:1028D00003C0299182E090E0E22FE053EA3018F043
:1028E000C81BD90B1CC020E030E0FCE020383F07BB
:1028F0005CF4C901880F991F880F991F280F391F91
:10290000220F331F2E0F311DE991E053EA3068F397
:10291000E4FE03C0309521953F4F820E931ECE2CCE
:10292000DD24E1FE07C0A114B10421F02197F501D7
:10293000D183C083CB01BA010E9420D97B018C01D5
:10294000F3E0CF22DD2423E0C216D10421F417FBEB
:10295000109517F9109557016801C801B70120E0DB
:1029600030E040E050E00E9480D8882309F44AC05B
:1029700097FE0DC02AE9E22E20E2F22E9094819477
:1029800091089394C0E2D0E000E010E012C092EB16
:10299000E92E90E2F92EF6CFF70125913591459178
:1029A0005491C601B5010E9418DA5B016C018C1AC2
:1029B0009D0A8C169D0684F7D595C7950F5F1F4F0E
:1029C0000630110529F08CEF9FEFE80EF91EF1CFCC
:1029D000C501D6017C018D018C2D880F8D2D881F9E
:1029E0008F3F51F0C601B50120E030E040E050E0FB
:1029F0000E9480D8882331F482E290E09093F61808
:102A00008093F5187E2D9F2D802F612F272F392F32
:102A1000482F562FB901CA01CDB7DEB7ECE00C94B0
:102A2000E2DB283008F027E03327DA01990F311D67
:102A300087FD916000966105710539F432602E5F63
:102A40003D9330E32A95E1F708959F3F30F08038B9
:102A50007105610509F03C5F3C5F3D93913008F0E2
:102A60008068911DDF93CF931F930F93FF92EF9296
:102A7000192F987F9695E92F96959695E90FFF2740
:102A8000E05FFE4D99273327EE24FF24A701E701DD
:102A900005900894079428F4360FE71EF81E491F86
:102AA000511D660F771F881F991F0694A1F7059087
:102AB000079428F4E70EF81E491F561FC11D770F13
:102AC000881F991F661F0694A1F70590079428F4A4
:102AD000F80E491F561FC71FD11D880F991F661F6B
:102AE000771F0694A1F70590079420F4490F561F0D
:102AF000C71FD81F990F661F771F881F0694A9F755
:102B000084911095177041F0D695C79557954795C4
:102B1000F794E7941A95C1F7E6EBF0E26894159004
:102B2000159135916591959105907FE27395E11826
:102B3000F10A430B560BC90BD009C0F7E10CF11E8B
:102B4000431F561FC91FD01D7EF4703311F48A95A0
:102B5000E6CFE894015030F0080F0AF4002702177E
:102B600008F4202F2395022F7A3328F079E37D9300
:102B70002A95E9F710C07D932A9589F606949795D2
:102B80006795379517951794E118F10A430B560B83
:102B9000C90BD00998F023957E9173957A3308F08C
:102BA00070E37C932013B8F77E9170617D9330F0D1
:102BB000839571E37D9370E32A95E1F71124EF90FB
:102BC000FF900F911F91CF91DF91992787FD9095ED
:102BD0000895FB01DC014150504088F08D91813413
:102BE0001CF08B350CF4805E659161341CF06B3504
:102BF0000CF4605E861B611171F3990B0895881BBC
:102C0000FCCF982F8091DE0E813079F59430E9F079
:102C1000953030F4913059F0923009F0BFC00EC0B9
:102C20009530D9F0963009F0B9C083E208958091CB
:102C3000E610882309F4B3C081E208958091B210B0
:102C4000882309F4ABC082E008958091A00E882308
:102C500011F485E0089584E008958091E00F8823C1
:102C600011F487E0089588E008958091DE0E8630A3
:102C7000C9F4943009F495C0953030F4923061F085
:102C8000933009F08BC00AC0953021F0963009F0DE
:102C900085C006C089E008958AE0089583E108951B
:102CA00082E108958091DE0E8430C9F4943009F4F5
:102CB00078C0953030F4923061F0933009F06EC0F6
:102CC0000AC0953021F0963009F068C006C08BE14B
:102CD00008958CE108958AE1089589E1089580912D
:102CE000DE0E8530C9F4943009F45BC0953030F4C1
:102CF000923061F0933009F051C00AC0953021F054
:102D0000963009F04BC006C085E1089586E108952C
:102D100088E1089587E108958091DE0E8330D1F433
:102D2000943051F0953018F49230C1F507C09530C9
:102D300039F0963099F506C08FE008958CE008953B
:102D40008BE008958091DE10882311F480E10895CE
:102D500082E208958091DE0E8730D1F4933091F0B5
:102D6000943028F4913061F09230C1F407C095306E
:102D700059F09530B0F0963089F408C08FE108958D
:102D800085E208958EE108958DE1089587E2089522
:102D90008091DE0E883011F4943019F0089580E2AD
:102DA000089584E10895CF92DF92EF92FF920F93FE
:102DB0001F93CF93DF93EC016B01688179818A8146
:102DC0009B812091E30E3091E40E4091E50E5091ED
:102DD000E60E0E9418DA688379838A839B83F60162
:102DE00060817181828193812091E70E3091E80E9C
:102DF0004091E90E5091EA0E0E9418DA7B018C0195
:102E0000F601608371838283938320913D13309117
:102E10003E13C9018E978A35910580F42881398146
:102E20004A815B81D801C701B05888839983AA83FE
:102E3000BB83208331834283538329C0C9018858CF
:102E400090408A35910580F488819981AA81BB815F
:102E5000B05888839983AA83BB83F60180819181CE
:102E6000A281B381B0580FC0225E30402A353105AF
:102E700070F488819981AA81BB81E882F9820A83F2
:102E80001B83B058F60180839183A283B38368814A
:102E900079818A819B8120913F1330914013409129
:102EA0004113509142130E941CD8688379838A830E
:102EB0009B83F6016081718182819381209143130C
:102EC0003091441340914513509146130E941CD8F1
:102ED000F6016083718382839383DF91CF911F9189
:102EE0000F91FF90EF90DF90CF9008952F923F9237
:102EF0004F925F926F927F928F929F92AF92BF920A
:102F0000CF92DF92EF92FF920F931F931B012C0140
:102F100039014A016091F00F7091F10F8091F20F29
:102F20009091F30F0E9422D97B018C01A801970197
:102F30000E9418DA5B016C01C401B301A401930182
:102F40000E9418DA9B01AC01C601B5010E941BD892
:102F50005B016C01C201B101A20191010E9418DA6A
:102F60009B01AC01C601B5010E941CD85B016C013C
:102F7000C801B701A80197010E941CD89B01AC01B0
:102F8000C601B5010E9487D81F910F91FF90EF9065
:102F9000DF90CF90BF90AF909F908F907F906F9079
:102FA0005F904F903F902F9008950F931F93CF9372
:102FB000DF93242F2627A22FB0E0AF70B070AA0FA6
:102FC000BB1FAA0FBB1FC0E1D2E0AC0FBD1FFD01AC
:102FD0000591159125913491E4E096958795779523
:102FE0006795EA95D1F706271727282739274295AD
:102FF0004F70402750E04F705070440F551F440FE2
:10300000551F4C0F5D1FFA0185919591A591B491C3
:1030100044E036952795179507954A95D1F70827E7
:1030200019272A273B27B801C901DF91CF911F91AA
:103030000F910895CF92DF92EF92FF920F931F931B
:103040008130910509F02CC26F5F7F4F09F037C3C3
:1030500080EA91E160E072E00E9470D687EA91E137
:1030600064E072E00E9470D68DED9FE00E942C918A
:1030700081EE9FE060E172E00E9470D68EEA91E1FD
:1030800061E172E00E9470D66091940E7091950E8D
:10309000882777FD8095982F20918E0E30918F0E86
:1030A000442737FD4095542F0E9420DB0E9422D9EF
:1030B0007B018C016091900E7091910E8091920E27
:1030C0009091930EA80197010E9487D86093E80F12
:1030D0007093E90F8093EA0F9093EB0FC801B7014B
:1030E0002091900E3091910E4091920E5091930E3E
:1030F0000E9487D87B018C016093EC0F7093ED0FD9
:103100008093EE0F9093EF0F6091DF0E7091E00EC1
:10311000882777FD8095982F0E9422D9A8019701D2
:103120000E9418DA0E94EFD86093F00F7093F10FAD
:103130008093F20F9093F30F6091E10E7091E20E85
:10314000882777FD8095982F0E9422D9A8019701A2
:103150000E9418DA0E94EFD86093F40F7093F50F75
:103160008093F60F9093F70F85EB91E16AE172E09F
:103170000E9470D68CEB91E16CE172E00E9470D6F7
:1031800083EC91E160E272E00E9470D68AEC91E1FA
:1031900068E272E00E9470D681ED91E16BE572E029
:1031A0000E9470D688ED91E16BE572E00E9470D6C6
:1031B0008FED91E16BE572E00E9470D686EE91E1B1
:1031C0006BE572E00E9470D68DEE91E16AE672E0E6
:1031D0000E9470D684EF91E164E772E00E9470D69D
:1031E0008BEF91E16BE772E00E9470D682E092E192
:1031F00063E872E00E9470D689E092E16EE872E0C6
:103200000E9470D680E192E16DEE71E10E941ED7BE
:1032100088E090E160E172E00E9470D687E192E17F
:1032200064E972E00E9470D68EE192E166E972E094
:103230000E9470D685E292E16BE972E00E9470D63E
:103240008CE292E16FE972E00E9470D683E392E132
:1032500063EA72E00E9470D68AE392E167EA72E064
:103260000E9470D681E492E16BEA72E00E9470D60F
:1032700088E492E16FEA72E00E9470D68FE492E1F6
:1032800063EB72E00E9470D686E592E167EB72E034
:103290000E9470D68DE592E16BEB72E00E9470D6D1
:1032A00084E692E16FEB72E00E9470D68BE692E1C9
:1032B00063EC72E00E9470D682E792E167EC72E004
:1032C0000E9470D689E792E16BEC72E00E9470D6A2
:1032D00080E892E16FEC72E00E9470D687E892E19C
:1032E00063ED72E00E9470D68EE892E167ED72E0C5
:1032F0000E9470D685E992E16BED72E00E9470D673
:103300008CE992E16FED72E00E9470D683EA92E15F
:1033100063EE72E00E9470D68AEA92E167EE72E094
:103320000E9470D681EB92E16BEE72E00E9470D643
:1033300088EB92E16FEE72E00E9470D68FEB92E123
:1033400063EF72E00E9470D686EC92E167EF72E064
:103350000E9470D68DEC92E16BEF72E00E9470D605
:1033600084ED92E16FEF72E00E9470D68BED92E1F6
:1033700064E073E00E9470D682EE92E168E073E050
:103380000E9470D689EE92E16CE073E00E9470D6E4
:1033900080EF92E160E173E00E9470D687EF92E1E6
:1033A00064E173E00E9470D68EEF92E168E173E011
:1033B0000E9470D685E093E16CE173E00E9470D6C4
:1033C0008CE093E160E273E00E9470D683E193E1C8
:1033D00064E273E00E9470D68AE193E168E273E0F0
:1033E0000E9470D681E293E16CE273E00E9470D695
:1033F00088E293E160E373E00E9470D68FE293E18C
:1034000064E373E00E9470D686E393E168E373E0BF
:103410000E9470D688E190E16EE046E250E027E23B
:1034200030E008E210E079E2E72EF12CCC24DD2434
:103430000E949BBF84E490E16BE04CE022E103E159
:10344000B2E0EB2E0E9423C285E890E160E172E0D9
:103450000E9470D68FE890E160E172E00E9470D621
:1034600086E990E10E940B7583EB90E10E940B7559
:103470008FED90E160E172E00E9470D688EE90E1FD
:1034800061E044E025E004E0A5E0EA2E0E94648FBC
:103490008CE291E161E047E028E00E94648F0FC177
:1034A000892B09F00CC16F5F7F4F09F008C18FEDC8
:1034B00090E10E9430D783EB90E10E941E7586E96F
:1034C00090E10E941E758FE890E10E9430D785E858
:1034D00090E10E9430D786E393E10E9430D78FE2DB
:1034E00093E10E9430D788E293E10E9430D781E2D5
:1034F00093E10E9430D78AE193E10E9430D783E1C3
:1035000093E10E9430D78CE093E10E9430D785E0B0
:1035100093E10E9430D78EEF92E10E9430D787EF7F
:1035200092E10E9430D780EF92E10E9430D789EE7D
:1035300092E10E9430D782EE92E10E9430D78BED6B
:1035400092E10E9430D784ED92E10E9430D78DEC59
:1035500092E10E9430D786EC92E10E9430D78FEB47
:1035600092E10E9430D788EB92E10E9430D781EB44
:1035700092E10E9430D78AEA92E10E9430D783EA32
:1035800092E10E9430D78CE992E10E9430D785E920
:1035900092E10E9430D78EE892E10E9430D787E80E
:1035A00092E10E9430D780E892E10E9430D789E70B
:1035B00092E10E9430D782E792E10E9430D78BE6F9
:1035C00092E10E9430D784E692E10E9430D78DE5E7
:1035D00092E10E9430D786E592E10E9430D78FE4D5
:1035E00092E10E9430D788E492E10E9430D781E4D2
:1035F00092E10E9430D78AE392E10E9430D783E3C0
:1036000092E10E9430D78CE292E10E9430D785E2AD
:1036100092E10E9430D78EE192E10E9430D787E19B
:1036200092E10E9430D788E090E10E9430D780E19B
:1036300092E10E9430D789E092E10E9430D782E087
:1036400092E10E9430D78BEF91E10E9430D784EF56
:1036500091E10E9430D78DEE91E10E9430D786EE45
:1036600091E10E9430D78FED91E10E9430D788ED33
:1036700091E10E9430D781ED91E10E9430D78AEC30
:1036800091E10E9430D783EC91E10E9430D78CEB1E
:1036900091E10E9430D785EB91E10E9430D78EEA0C
:1036A00091E10E9430D781EE9FE00E9430D787EAF7
:1036B00091E10E9430D780EA91E10E9430D71F91BA
:1036C0000F91FF90EF90DF90CF90089580E090E011
:1036D0006FEF7FEFAFCC81E090E06FEF7FEFAACC90
:1036E000CF92DF92EF92FF920F931F93CF93DF93CE
:1036F0006C01EE24EA94FE2C8701C0E0D0E00BC000
:10370000C601BE010E94B7D3482FC801B7014DDCE6
:103710007B018C012196F60184819581C817D90718
:1037200078F3A80197012095309540955095B901FF
:10373000CA01DF91CF911F910F91FF90EF90DF9021
:10374000CF9008950F931F9384E090E00E94F0C5FE
:103750008C010E948DC62DB73EB7201B310BC901CD
:103760001F910F910895EEDF9C018091FC0F9091C5
:10377000FD0F28173907D1F03093FD0F2093FC0F70
:1037800088E698E163EC71E10E94ECD26091FC0F55
:103790007091FD0F88E698E14AE050E00E94C4D1A4
:1037A00088E698E16EE172E10C941ED3089588E6F4
:1037B00098E164EF71E10C941ED388E698E16DEE18
:1037C00071E10C941ED3AF92BF92CF92DF92EF9231
:1037D000FF920F931F937B018C01CA01B9010E94D4
:1037E00018DA5B016C01C801B701A80197010E94BA
:1037F00018DA9B01AC01C601B5010E941BD80E94DA
:1038000085DA1F910F91FF90EF90DF90CF90BF90DE
:10381000AF9008956F927F928F929F92AF92BF92D6
:10382000CF92DF92EF92FF920F931F937B018C0157
:103830005DDB5B016C01A8019701C5DF3B014C0119
:10384000E090B00EF090B10E0091B20E1091B30E58
:10385000C801B7010E9422D99B01AC01C601B50184
:103860000E9480D887FD4AC08091B80E9091B90E11
:10387000A091BA0EB091BB0EE80EF91E0A1F1B1FD5
:10388000C801B7010E9422D99B01AC01C601B50154
:103890000E9414DA181694F1E090B40EF090B50E70
:1038A0000091B60E1091B70EC801B7010E9422D93F
:1038B0009B01AC01C401B3010E9480D887FD1EC0EA
:1038C000DD248091BC0E9091BD0EA091BE0EB091F2
:1038D000BF0EE80EF91E0A1F1B1FC801B7010E9488
:1038E00022D99B01AC01C401B3010E9414DA18165D
:1038F00014F4DD24D39481E0D82601C0DD248D2D7D
:103900001F910F91FF90EF90DF90CF90BF90AF90FD
:103910009F908F907F906F900895AF92BF92CF92BB
:10392000DF92EF92FF920F931F937B018C0159015D
:103930006A016091F00F7091F10F8091F20F9091F8
:10394000F30F0E9422D9A80197010E941BD89B0166
:10395000AC010E9418DA7B018C01C601B501A601F9
:1039600095010E9418DA9B01AC01C801B7010E94C1
:103970001CD80E9485DA1F910F91FF90EF90DF9085
:10398000CF90BF90AF900895AF92BF92CF92DF9249
:10399000EF92FF920F931F937B018C0159016A01F3
:1039A000A80197010E9418DA7B018C01C601B501BC
:1039B000A60195010E9418DA9B01AC01C801B7016C
:1039C0000E941CD80E9485DA1F910F91FF90EF9002
:1039D000DF90CF90BF90AF9008952F923F924F927B
:1039E0005F926F927F928F929F92AF92BF92CF928F
:1039F000DF92EF92FF920F931F93DF93CF9300D04C
:103A00000F92CDB7DEB769837A838B839C8359018C
:103A10006A0117012801611571058105910559F4A5
:103A20000F2EF0E0EF2EF0E0FF2EF0E00F2FF0E091
:103A30001F2FF02DA4C0CA01B9010E9418DA7B0122
:103A40008C01C601B50120E030E040E050E00E946A
:103A500080D8882324F417FB109517F91095C2011C
:103A6000B101A20191010E941CD83B014C01C80187
:103A7000B701A40193010E9487D87B018C01698161
:103A80007A818B819C810E9422D99B01AC01C80163
:103A9000B7010E9480D88823B4F5C601B50120E0A3
:103AA00030E040E050E00E9480D8882329F4C4012F
:103AB000B3010E9485DA0DC0C201B101A6019501D2
:103AC0000E9487D89B01AC015F77C601B5010E94B7
:103AD0001CD87B018C01D090960EC090970EB090B0
:103AE000980EA090990E2D2D3C2D4B2D5A2D0E94F5
:103AF00014DA18160CF043C08D2D9C2DAB2DBA2D69
:103B00007C018D013CC0C601B50120E030E040E001
:103B100050E00E9480D8882359F4C401B3010E9468
:103B200085DA7B018C0117FB109517F910950FC0F2
:103B3000C201B101A60195010E9487D89B01AC0189
:103B40005F77C601B5010E941BD87B018C01809173
:103B5000960E9091970EA091980EB091990E5C01DF
:103B60006D01D7FAD094D7F8D094C801B701A60157
:103B700095010E9480D8882314F486017501B7014D
:103B8000C8010F900F900F900F90CF91DF911F9170
:103B90000F91FF90EF90DF90CF90BF90AF909F90EC
:103BA0008F907F906F905F904F903F902F900895EF
:103BB000EF92FF920F931F9380919F0E882309F439
:103BC00056C088E698E169E072E10E94ECD288EE86
:103BD00090E10E94AF8A0E9422D97B018C01609102
:103BE000940E7091950E882777FD8095982F0E94EE
:103BF00022D99B01AC01C801B7010E9487D80E945D
:103C0000EFD8AB01BC0188E698E12AE030E00E94E1
:103C100074D188E698E167E172E10E94ECD28CE20F
:103C200091E10E94AF8A0E9422D97B018C016091B0
:103C3000940E7091950E882777FD8095982F0E949D
:103C400022D99B01AC01C801B7010E9487D80E940C
:103C5000EFD8AB01BC0188E698E12AE030E00E9491
:103C600074D188E698E16EE172E10E941ED31F9143
:103C70000F91FF90EF900895EF92FF920F931F9393
:103C80008091F80F9091F90FA091FA0FB091FB0F6E
:103C90000097A105B10509F03FC06091F00F709148
:103CA000F10F8091F20F9091F30F0E9422D97B01C6
:103CB0008C016091F40F7091F50F8091F60F909147
:103CC000F70F0E9422D99B01AC01C801B7015CDE4D
:103CD00020E030E040E05FE30E941CD80E94EFD873
:103CE0006093F80F7093F90F8093FA0F9093FB0F86
:103CF00088E698E16CE373E00E94F3D14091F80FFD
:103D00005091F90F6091FA0F7091FB0F88E698E1DE
:103D10002AE030E00E94B2D16091F80F7091F90F63
:103D20008091FA0F9091FB0F1F910F91FF90EF90F0
:103D30000895AF92BF92CF92DF92EF92FF920F93CE
:103D40001F937B018C0159016A010E9471C99B017B
:103D5000AC01209300103093011040930210509357
:103D6000031088EE90E1B801A7010E94458C8CE217
:103D700091E1B601A5010E94458C15C080919E0E6F
:103D8000882349F088EE90E10E94F5908CE291E161
:103D90000E94F59008C088EE90E10E94D2908CE2DB
:103DA00091E10E94D29088EE90E10E949F8A611575
:103DB00071058105910549F48CE291E10E949F8A89
:103DC000611571058105910529F08091A00E882368
:103DD00051F3D4CFEDDE1F910F91FF90EF90DF9064
:103DE000CF90BF90AF90089588E698E163E573E0C7
:103DF0000C94DBD288E698E162E974E00E94A8D0D6
:103E000010928E1008958F929F92AF92BF92CF9290
:103E1000DF92EF92FF920F931F936C017B0188E674
:103E200098E16AE673E00E94F3D188E698E1B60172
:103E30004AE050E00E94C4D188E698E163E773E06D
:103E40000E94F3D188E698E1B7014AE050E00E9471
:103E5000D6D188E698E168E773E00E94F3D16091DB
:103E6000D8107091D91088E698E14AE050E00E949D
:103E7000D6D188E698E168E873E00E94F3D14091DA
:103E8000CE105091CF106091D0107091D11088E673
:103E900098E12AE030E00E94B2D14601AA2497FCC2
:103EA000A094BA2C8091D8109091D910AA2797FD90
:103EB000A095BA2F880E991EAA1EBB1E0027F7FCDC
:103EC0000095102F2091CE103091CF104091D0103E
:103ED0005091D110C801B7010E9420DB860E971EB9
:103EE000A81EB91E88E698E162E973E00E94F3D14A
:103EF00088E698E1B501A4012AE030E00E9474D17F
:103F00008091DA109091DB10A091DC10B091DD105F
:103F100088159905AA05BB0514F41FEF18C083EB9B
:103F200090E1B501A4010E94BA7583EB90E10E9473
:103F3000CB75182F88E698E16BE973E00E94F3D106
:103F400088E698E1612F4AE050E00E9458D1812F25
:103F50001F910F91FF90EF90DF90CF90BF90AF90A7
:103F60009F908F9008950F931F93CF93DF93EC0151
:103F70008B0188E698E16AEA73E00E94F3D188E653
:103F800098E1BE014AE050E00E94C4D188E698E181
:103F90006DEA73E00E94F3D188E698E1B8014AE047
:103FA00050E00E94D6D18091701190917111C81784
:103FB000D907B4F080917411909175118C179D07F9
:103FC0007CF080917211909173110817190744F0D9
:103FD0008091761190917711801791070CF097C01E
:103FE0008091781190917911C817D907BCF0809110
:103FF0007C1190917D118C179D0784F080917A112E
:1040000090917B11081719074CF0809176119091CF
:1040100077118017910714F082E07AC080918011A7
:1040200090918111C817D907BCF0809184119091AB
:1040300085118C179D0784F08091821190918311D6
:10404000081719074CF080918611909187118017FD
:10405000910714F083E05CC08091881190918911E0
:10406000C817D907BCF080918C1190918D118C17D5
:104070009D0784F080918A1190918B110817190780
:104080004CF080918E1190918F118017910714F050
:1040900084E03EC08091901190919111C817D9078A
:1040A000BCF080919411909195118C179D0784F02C
:1040B0008091921190919311081719074CF08091FB
:1040C0009611909197118017910714F085E020C008
:1040D0008091981190919911C817D907BCF08091DF
:1040E0009C1190919D118C179D0784F080919A11DD
:1040F00090919B11081719074CF080919E11909197
:104100009F118017910714F086E002C001C081E082
:10411000DF91CF911F910F9108956F927F928F92AF
:104120009F92AF92BF92CF92DF92EF92FF920F9346
:104130001F93DF93CF93CDB7DEB7A3970FB6F89455
:10414000DEBF0FBECDBF6DB67EB683EB90E140E023
:1041500050E060E070E00E94BA757E010894E11CB6
:10416000F11CC70162EB73E00E9470D683EB90E113
:104170000E94CB75182FC70160E070E00E94C8D381
:10418000FC01108383EB90E10E94CB75182FC701CF
:1041900061E070E00E94C8D3FC011083C70165EBA9
:1041A00073E00E94F0D4882399F488E698E168EBE4
:1041B00073E00E94F3D188E698E1B7010E94ECD247
:1041C00088E698E166ED73E00E94DBD210E083C1DF
:1041D00088E698E161EF73E00E94DBD283EB90E127
:1041E0000E94CB758E01085F1F4FC80160E172E02D
:1041F0000E9470D683EB90E10E94CB75E82E8FE091
:10420000C82ED12CCC0EDD1EF02E012F21C083E252
:10421000E81641F483EB90E10E94CB75E82E9AE01A
:10422000E916C1F7C6016F2D702F0E9427D7C6016E
:104230006E2D0E9414D6BC018F2D902F0E9409D79D
:10424000C6010E9435D783EB90E10E94CB75E82E22
:104250008AE0E81619F090E2E916C9F688E698E1D6
:1042600067E174E00E94F3D118E0E12EF12CEC0E2E
:10427000FD1E88E698E1B7010E941ED34C855D853E
:104280004F5F5F4F8DB79EB7841B950B0FB6F894A9
:104290009EBF0FBE8DBF0DB71EB70F5F1F4F902E75
:1042A000812EB02EA12EC701B80120E030E00E947F
:1042B000A1D4C8010E948B11AA2797FDA095BA2FFF
:1042C0008093CE109093CF10A093D010B093D110C4
:1042D0000A97A105B10544F488E698E160E572E02B
:1042E0000E94A8D010E0F3C0C70160E172E00E9414
:1042F000A2D683EB90E10E94CB75182FB6E1CB2EAE
:10430000D12CCC0EDD1EC701FE2C092F1FC013328D
:1043100039F483EB90E10E94CB75182F8A30C9F7EE
:10432000C6016F2D702F0E9427D7C601612F0E94F2
:1043300014D6BC018F2D902F0E9409D7C6010E9470
:1043400035D783EB90E10E94CB75182F1A30F9F620
:1043500088E698E162E274E00E94F3D1A8E0CA2EF8
:10436000D12CCC0EDD1E88E698E1B6010E941ED34A
:104370004C855D854F5F5F4FC6016B2D7A2D20E028
:1043800030E00E94A1D4892D982D0E948B11AA277C
:1043900097FDA095BA2F8093D2109093D310A0933D
:1043A000D410B093D510BC01CD010E9422D97B015D
:1043B0008C016091CE107091CF108091D0109091AF
:1043C000D1100E9422D99B01AC01C801B7010E9403
:1043D00087D86093CD0E7093CE0E8093CF0E9093BE
:1043E000D00E88E698E16EE274E00E94F3D140912D
:1043F000CD0E5091CE0E6091CF0E7091D00E88E60A
:1044000098E122E030E00E94CAD2C60160E172E089
:104410000E94A2D683EB90E10E94CB75182F0D2D40
:10442000FDE1EF2EF12CEC0EFD1E16C0C7016C2D28
:10443000702F0E9427D7C701612F0E9414D6BC019C
:104440008C2D902F0E9409D7C7010E9435D783EB8E
:1044500090E10E94CB75182F1A3041F788E698E159
:1044600060E474E00E94F3D188E698E16C2D702F2F
:104470000E941ED34C855D854F5F5F4F8C2D902F22
:104480006B2D7A2D20E030E00E94A1D4892D982D4B
:104490000E948B119093D7108093D61083EB90E1FC
:1044A0000E9475757093D9106093D81088E698E1D2
:1044B00064E574E00E94F3D16091D8107091D91036
:1044C00088E698E14AE050E00E94D6D111E0CE01A2
:1044D00008960E9430D7CE0101960E9430D7812FD6
:1044E0000FB6F8947EBE0FBE6DBEA3960FB6F894BD
:1044F000DEBF0FBECDBFCF91DF911F910F91FF9017
:10450000EF90DF90CF90BF90AF909F908F907F9073
:104510006F900895EF92FF920F931F93DF93CF93C5
:10452000CDB7DEB7FC01EDB6FEB6448155814F5FD5
:104530005F4F8DB79EB7841B950B0FB6F8949EBF47
:104540000FBE8DBF0DB71EB70F5F1F4FCF01B80154
:1045500020E030E00E94A1D4C8010E948B110FB668
:10456000F894FEBE0FBEEDBECF91DF911F910F916B
:10457000FF90EF900895EF92FF920F931F93DF93B8
:10458000CF93CDB7DEB727970FB6F894DEBF0FBE37
:10459000CDBF8E010F5F1F4FC80161ED71E10E9419
:1045A0001ED7C801B7DF7C01C8010E9430D7EF28B1
:1045B00019F4109284100EC080918C10882321F081
:1045C00081E08093841006C088E698E162E674E09A
:1045D0000E94DBD227960FB6F894DEBF0FBECDBF88
:1045E000CF91DF911F910F91FF90EF9008950F935E
:1045F0001F93DF93CF93CDB7DEB72E970FB6F89406
:10460000DEBF0FBECDBF8E010F5F1F4FC80161ED32
:1046100071E10E941ED7C8017DDF9093EE0E80935A
:10462000ED0EC8010E9430D78E01085F1F4FC801F0
:1046300068ED71E10E941ED7C8016CDF9093EC0E0B
:104640008093EB0EC8010E9430D72E960FB6F894D7
:10465000DEBF0FBECDBFCF91DF911F910F910895A7
:10466000EF92FF920F931F93DF93CF93CDB7DEB7F7
:104670006B970FB6F894DEBF0FBECDBFFC01EDB651
:10468000FEB6448155814F5F5F4F8DB79EB7841B47
:10469000950B0FB6F8949EBF0FBE8DBF0DB71EB71A
:1046A0000F5F1F4FCF01B80120E030E00E94A1D47E
:1046B000CE01019667E473E1A80121E00E948779A9
:1046C0008B819C819093B6108093B5108D819E81D3
:1046D000AF81B8858093B7109093B810A093B910AC
:1046E000B093BA1089859A85AB85BC858093BB1041
:1046F0009093BC10A093BD10B093BE10AFEBB0E18F
:10470000FE013D968DE001900D928150E1F78A8D7A
:104710009B8D9093CD108093CC10CE0101960E947A
:104720001E7583EB90E10E949B75882329F488E62F
:1047300098E166E874E007C0F0DC882341F488E67D
:1047400098E167E974E00E94DBD280E00DC083EB62
:1047500090E10E9488756093DA107093DB1080936B
:10476000DC109093DD1081E00FB6F894FEBE0FBE12
:10477000EDBE6B960FB6F894DEBF0FBECDBFCF91E6
:10478000DF911F910F91FF90EF900895AF92BF922C
:10479000CF92DF92EF92FF920F931F93DF93CF930D
:1047A000CDB7DEB76B970FB6F894DEBF0FBECDBFA7
:1047B0006C01ADB6BEB640919310509194104F5F0E
:1047C0005F4F8DB79EB7841B950B0FB6F8949EBFB5
:1047D0000FBE8DBF0DB71EB70F5F1F4F8FE890E163
:1047E000B80120E030E00E94A1D47E010894E11CD1
:1047F000F11CC70167E473E1A80123E10E948779F6
:10480000C7010E949B758823D1F088E698E16FE983
:1048100074E00E94F3D188E698E16FE870E10E94AD
:104820001ED3C701B6010E941ED3C7010E94A875FE
:1048300088E698E160EB74E00E94DBD20CC088E669
:1048400098E166EB74E00E94F3D188E698E16FE8A6
:1048500070E10E941ED3CE0101960E941E750FB614
:10486000F894BEBE0FBEADBE6B960FB6F894DEBF19
:104870000FBECDBFCF91DF911F910F91FF90EF90B1
:10488000DF90CF90BF90AF9008952F923F924F92BC
:104890005F926F927F928F929F92BF92CF92DF92A0
:1048A000EF92FF920F931F93DF93CF93CDB7DEB7B5
:1048B000ED970FB6F894DEBF0FBECDBF4C016B0174
:1048C000CE01019660E172E00E9470D68E01085F11
:1048D0001F4FC80166E970E141E00E94EE76C80111
:1048E0000E949B75882389F0C8010E942475BC0131
:1048F000C6010E94F0D4882341F088E698E165EC77
:1049000074E00E94DBD2C80179C08E01085F1F4F9E
:10491000C8010E942475BC017E010894E11CF11CB1
:10492000C7010E94A2D688E698E16AEC74E00E9472
:10493000F3D188E698E1B7010E941ED3B02E012F73
:1049400033E2632E712C6C0E7D1E24E1222E312C5D
:104950002C0E3D1E9FE2492E512C4C0E5D1E1F2D2C
:104960008B2D902F0E94A875C30166E970E141E08C
:104970000E94EE768DA19EA19B878A878FA198A524
:10498000A9A5BAA58C879D87AE87BF878BA59CA557
:10499000ADA5BEA5888B998BAA8BBB8BD101F201EB
:1049A0008DE001900D928150E1F78CAD9DAD9AA301
:1049B00089A3C3010E941E758B2D902F0E949B75A9
:1049C0008823D1F08B2D902F0E942475BC01C60145
:1049D0000E94F0D4882331F0C6016E2D712F0E9401
:1049E00009D70AC08B2D902F0E942475BC018E2DF3
:1049F000912F0E94A2D6B4CFCE0108960E94A8752E
:104A0000C401B6010E941ED7CE0108960E941E75F1
:104A1000CE0101960E9430D7C401ED960FB6F894EE
:104A2000DEBF0FBECDBFCF91DF911F910F91FF90E1
:104A3000EF90DF90CF90BF909F908F907F906F907E
:104A40005F904F903F902F9008954F925F926F929A
:104A50007F928F929F92AF92BF92CF92DF92EF920E
:104A6000FF921F93DF93CF93CDB7DEB7E6970FB6D4
:104A7000F894DEBF0FBECDBF5C016B017E010894D0
:104A8000E11CF11C6CE1862E912C8C0E9D1E5DE0CC
:104A9000452E512C4C0E5D1E48E2642E712C6C0E7E
:104AA0007D1EC70166E970E141E00E94EE76C70114
:104AB0000E949B75882309F44BC0C7010E9424758E
:104AC000BC01C6010E94F0D4882311F410E041C05B
:104AD00088E698E166ED74E00E94DBD2C7010E948F
:104AE000A875C40166E970E141E00E94EE768E8D02
:104AF0009F8D9C838B8388A199A1AAA1BBA18D8343
:104B00009E83AF83B8878CA19DA1AEA1BFA18987E9
:104B10009A87AB87BC87D201F3018DE001900D929B
:104B20008150E1F78DA99EA99B8F8A8FC4010E94B5
:104B30001E75C7010E949B75882339F0C7010E942A
:104B40002475BC01C6010E94A2D6C7010E94A875A7
:104B500011E0C7010E94A875C7010E941E751123AC
:104B600009F49FCFC501B6010E941ED7C501E69684
:104B70000FB6F894DEBF0FBECDBFCF91DF911F916E
:104B8000FF90EF90DF90CF90BF90AF909F908F906D
:104B90007F906F905F904F9008952F923F924F9229
:104BA0005F926F927F928F929F92AF92BF92CF92BD
:104BB000DF92EF92FF921F93DF93CF93CDB7DEB7D3
:104BC000E6970FB6F894DEBF0FBECDBF4C016B0168
:104BD0007E010894E11CF11CF8E22F2E312C2C0EE2
:104BE0003D1EEDE04E2E512C4C0E5D1E7CE1672EDD
:104BF000712C6C0E7D1E56010894A11CB11CC701BE
:104C0000B40141E00E94EE76C7010E949B758823A3
:104C100011F010E027C088E698E162EE74E00E948F
:104C2000DBD2C7010E941E75E6960FB6F894DEBF70
:104C30000FBECDBFCF91DF911F91FF90EF90DF901E
:104C4000CF90BF90AF909F908F907F906F905F902C
:104C50004F903F902F90089588E698E169E00E9478
:104C600080D01F5F812F90E08C159D05ACF3C701AC
:104C70000E942475BC0188E698E10E94F3D1C70127
:104C80000E942975882381F188E698E166EE74E038
:104C90000E94DBD28B819C819F8F8E8F8D819E8124
:104CA000AF81B88588A399A3AAA3BBA389859A8558
:104CB000AB85BC858CA39DA3AEA3BFA380E19FE081
:104CC0009D8F8C8FD101F2018DE001900D9281506A
:104CD000E1F78A8D9B8D9EAB8DABC301B5015DDF86
:104CE000C3010E941E7511C088E698E168EE74E069
:104CF0000E94F3D1C7010E948875AB01BC0188E610
:104D000098E12AE030E00E9446D1C7010E94A875D0
:104D1000C7010E941E7573CF0F931F93DF93CF932C
:104D2000CDB7DEB7E6970FB6F894DEBF0FBECDBFA6
:104D30001092DE108FED90E160E172E00E94A2D649
:104D40001092B1101092B2108FE890E160E172E021
:104D50000E94A2D685E361E00E946ACA87E493E1DB
:104D600065E30E94A77A882339F488E698E16BEE20
:104D700074E00E94DBD209C088E698E167E075E044
:104D80000E94DBD281E08093B1108091B110882322
:104D900009F484C088E698E16EE175E00E94DBD2F8
:104DA000CE01019667E473E146EE54E021E00E94F3
:104DB00087798B819C8190939910809398108D8135
:104DC0009E81AF81B88580939A1090939B10A09399
:104DD0009C10B0939D1089859A85AB85BC85809386
:104DE0009E1090939F10A093A010B093A110A2EAE0
:104DF000B0E1FE013D968DE001900D928150E1F70A
:104E00008A8D9B8D9093B0108093AF10CE01019648
:104E10000E941E7581E08093B2108091981090914D
:104E200099109F8F8E8F80919A1090919B10A091D6
:104E30009C10B0919D1088A399A3AAA3BBA38091B5
:104E40009E1090919F10A091A010B091A1108CA3E2
:104E50009DA3AEA3BFA380E19FE09D8F8C8FDE0159
:104E60009896E2EAF0E18DE001900D928150E1F731
:104E70008091AF109091B0109EAB8DAB8E01045E0F
:104E80001F4FC80160E070E088DEC8010E941E75F7
:104E900088E698E160E375E00E94DBD2E6960FB603
:104EA000F894DEBF0FBECDBFCF91DF911F910F9160
:104EB0000895AF92BF92CF92DF92EF92FF920F933D
:104EC0001F9388EE90E10E94F5908CE291E10E94A0
:104ED000F59088EE90E10E949F8A61157105810529
:104EE000910509F048C06091B00E7091B10E8091AB
:104EF000B20E9091B30E2091B80E3091B90E409140
:104F0000BA0E5091BB0E260F371F481F591F0E9423
:104F10009AD35B016C016091B40E7091B50E8091D3
:104F2000B60E9091B70E2091BC0E3091BD0E4091FF
:104F3000BE0E5091BF0E260F371F481F591F0E94EB
:104F40009AD37B018C01C601B5010E9422D95B0175
:104F50006C01C801B7010E9422D99B01AC01C601B6
:104F6000B5010E94C41C0E94EFD8AB01BC0188EEC1
:104F700090E10E94348C8CE291E10E949F8A61153D
:104F800071058105910509F048C06091B00E7091DE
:104F9000B10E8091B20E9091B30E2091B80E309167
:104FA000B90E4091BA0E5091BB0E260F371F481F05
:104FB000591F0E949AD35B016C016091B40E7091ED
:104FC000B50E8091B60E9091B70E2091BC0E309127
:104FD000BD0E4091BE0E5091BF0E260F371F481FC9
:104FE000591F0E949AD37B018C01C601B5010E9412
:104FF00022D95B016C01C801B7010E9422D99B0133
:10500000AC01C601B5010E948D1C0E94EFD8AB0116
:10501000BC018CE291E10E94348C1F910F91FF90B2
:10502000EF90DF90CF90BF90AF900895EF92FF92F6
:105030000F931F93CF93DF93C0E0D0E088E698E111
:1050400066E375E00E94F3D188E698E1BE014AE08C
:1050500050E00E94D6D188EE90E10E949F8A6115AF
:1050600071058105910509F469C08CE291E10E9406
:105070009F8A611571058105910509F45FC088EE6D
:1050800090E10E94F5908CE291E10E94F590E3CFCF
:105090006EEF7FEF8FEF9FEF23E030E040E050E0D6
:1050A0000E949AD37B018C01A701662757FD60956A
:1050B000762F88EE90E10E94458C88E698E16FE3B8
:1050C00075E00E94F3D188E698E1B7014AE050E02C
:1050D0000E94D6D18CE291E10E949F8A61157105F0
:1050E0008105910511F56EEF7FEF8FEF9FEF23E0C4
:1050F00030E040E050E00E949AD37B018C01A70190
:10510000662757FD6095762F8CE291E10E94458CD1
:1051100088E698E165E575E00E94F3D188E698E1BC
:10512000B7014AE050E00E94D6D10E94D81D2196D6
:1051300083E0C83ED80709F081CF0AC088EE90E12D
:105140000E949F8A611571058105910519F6A0CF0E
:10515000DF91CF911F910F91FF90EF9008954F92A3
:105160005F926F927F928F929F92AF92BF92CF92F7
:10517000DF92EF92FF920F931F93CF93DF934C0137
:105180003B012A01BA01882777FD8095982F0E945C
:1051900022D95B016C01B401882777FD8095982F97
:1051A0000E9422D97B018C01B301882777FD80956D
:1051B000982F0E9422D99B01AC01C801B7010E941F
:1051C00087D8A60195010E9418DA9B01AC01C6019F
:1051D000B5010E941BD87B018C0188E698E166EC42
:1051E00072E00E945DD088E698E1B4014AE050E0A8
:1051F0000E94C4D188E698E16DEB72E00E945DD018
:1052000088E698E1B3014AE050E00E94C4D188E604
:1052100098E163EB72E00E945DD088E698E1B2010C
:105220004AE050E00E94C4D188E698E168EA72E062
:105230000E945DD088E698E1B801A70122E030E045
:105240000E94CAD2C801B7010E94EFD8EB01BE018B
:10525000882777FD8095982F0E9422D99B01AC0169
:10526000C801B7010E941BD820E030E040E05FE3B6
:105270000E9414DA18160CF42196CE01DF91CF911A
:105280001F910F91FF90EF90DF90CF90BF90AF9064
:105290009F908F907F906F905F904F9008958F9226
:1052A0009F92AF92BF92CF92DF92EF92FF920F93B5
:1052B0001F93CF93DF934B015C016A01BA018827EA
:1052C00077FD8095982F0E9422D92091E80F309188
:1052D000E90F4091EA0F5091EB0F0E9418DA7B0121
:1052E0008C0188E698E16CE173E00E945DD088E66D
:1052F00098E1B801A70122E030E00E94C8D288E618
:1053000098E16EE073E00E945DD04091E80F50910B
:10531000E90F6091EA0F7091EB0F88E698E122E0C7
:1053200030E00E94C8D288E698E166EF72E00E9401
:105330005DD088E698E1B6014AE050E00E94D6D1FF
:10534000C801B701A50194010E9487D87B018C0197
:1053500020E030E040E050E40E9414DA87FF03C010
:10536000C1E0D0E005C0C801B7010E94EFD8EB0151
:1053700088E698E16BE675E00E94F3D188E698E153
:10538000B801A70122E030E00E94CAD288E698E185
:1053900068EE72E00E945DD088E698E1B501A40154
:1053A00022E030E00E94C8D288E698E16CED72E01D
:1053B0000E945DD088E698E1B6014AE050E00E9484
:1053C000D6D188E698E16EEC72E00E945DD088E666
:1053D00098E1BE014AE050E00E94D6D1CE01DF91B3
:1053E000CF911F910F91FF90EF90DF90CF90BF90E2
:1053F000AF909F908F9008952F923F924F925F921F
:105400006F927F928F929F92AF92BF92CF92DF92D4
:10541000EF92FF920F931F931B012C0139014A0158
:1054200088E698E163ED73E00E945DD088E698E13C
:10543000B201A1012AE030E00E9474D188E698E12F
:1054400067EC73E00E945DD088E698E1B401A301A7
:105450002AE030E00E9474D188E698E16BEB73E0BB
:105460000E945DD088E698E1B801A7012AE030E00B
:105470000E9474D188E698E16FEA73E00E945DD0E3
:1054800088E698E1B601A5012AE030E00E9474D1D7
:1054900088E698E16DEA73E00E94A8D02E143F04DC
:1054A0004006510654F46E147F0480069106A4F45D
:1054B00088E698E16FE973E04BC0E214F304040559
:1054C0001505F4F4A614B704C804D9047CF488E6DE
:1054D00098E161E973E049C0A614B704C804D9048F
:1054E00074F588E698E163E873E025C06A147B04EC
:1054F0008C049D048CF588E698E165E773E00EC0A6
:105500002E143F044006510699F56A147B048C045E
:105510009D0444F488E698E16DE673E00E94A8D00B
:1055200081E02DC0A614B704C804D9040CF588E6A0
:1055300098E165E673E00E94A8D083E020C06A1479
:105540007B048C049D04A1F488E698E16DE573E08A
:105550000E94A8D084E013C06A147B048C049D04CC
:1055600039F488E698E165E573E00E94A8D006C0AA
:1055700088E698E162E875E00E94DBD282E01F9144
:105580000F91FF90EF90DF90CF90BF90AF909F90E2
:105590008F907F906F905F904F903F902F900895E5
:1055A000EF92FF920F931F937C0108E618E1C80168
:1055B0006AEB76E00E945DD0C801B7010E94ECD290
:1055C000C8016CE976E00E94A8D01F910F91FF906E
:1055D000EF900895AF92BF92CF92DF92EF92FF9239
:1055E0000F931F93CF93DF93EC015B016A018DED65
:1055F0009FE069E070E00E94CC92CA15DB059CF444
:1056000076010027F7FC0095102F8DED9FE0BE017D
:105610000E94B591C801B7010E94A5C92196AC1698
:10562000BD069CF712C076010027F7FC0095102FED
:105630008DED9FE0BE010E94B591C801B7010E94A7
:10564000A5C92197CA15DB059CF78DED9FE00E9447
:105650004691DF91CF911F910F91FF90EF90DF90D6
:10566000CF90BF90AF900895EF92FF920F931F934A
:10567000DF93CF93CDB7DEB727970FB6F894DEBF91
:105680000FBECDBF8091FE0F9091FF0F2091E00FD4
:1056900002971CF1222329F0E090F40EF090F50E11
:1056A00004C0E090F60EF090F70E8E010F5F1F4FD2
:1056B000C80161ED71E10E941ED7C8010E948A22D3
:1056C0009093F70E8093F60EC8010E9430D7609138
:1056D000F60E7091F70EC7010AC0213059F460919F
:1056E000F60E7091F70E8091F40E9091F50E43E056
:1056F00050E070DF1092E00F27960FB6F894DEBFEF
:105700000FBECDBFCF91DF911F910F91FF90EF9012
:105710000895EF92FF920F931F93DF93CF93CDB72E
:10572000DEB727970FB6F894DEBF0FBECDBF8091CE
:10573000FE0F9091FF0F2091E00F02971CF12223A2
:1057400029F0E090F40EF090F50E04C0E090F60E13
:10575000F090F70E8E010F5F1F4FC80161ED71E1F0
:105760000E941ED7C8010E948A229093F50E809352
:10577000F40EC8010E9430D76091F40E7091F50EBE
:10578000C7010AC0222359F46091F40E7091F50EFE
:105790008091F60E9091F70E43E050E01BDF81E020
:1057A0008093E00F27960FB6F894DEBF0FBECDBFF3
:1057B000CF91DF911F910F91FF90EF900895EF929D
:1057C000FF920F931F93CF93DF93182F48E1E42E9E
:1057D00040E1F42EC70162E344EB22E30E94539CB4
:1057E000C12FD0E0CE010196A0E7B1E1CC0FDD1FC3
:1057F000CC0FDD1FFD01EC0FFD1F60817181CA0F11
:10580000DB1F4A815B81880F991F880F991FFD015B
:10581000E80FF91F20813181A80FB91F12960D9151
:105820001C911397C7010E944E9DC70162E344EB90
:1058300022E30E946B9CC7016FEF4FEF2FEF0E9496
:10584000539CDF91CF911F910F91FF90EF9008959E
:10585000AF92BF92CF92DF92EF92FF920F931F937E
:10586000DF93CF93CDB7DEB72E970FB6F894DEBF98
:105870000FBECDBF5C017B018091DE0E813009F04F
:1058800054C088E190E160E040E020E00E94539C39
:105890004091761150917711609170117091711152
:1058A0008A01085E1F4F88E190E1465F5F4F20E468
:1058B00031E00E944E9D88E190E16FEF4FEF2FEFB6
:1058C0000E94539C88E190E160E040E020E00E946B
:1058D0006B9C6E010894C11CD11CC601B7010E94CB
:1058E00027D7C601B5010E943DD6BC0158E0E52E80
:1058F000F12CEC0EFD1EC7010E941ED740917011C5
:10590000509171112091761130917711265F3F4FA0
:1059100088E190E1B70100E010E00E9420A4C701F7
:105920000E9430D7C6010E9435D72E960FB6F89444
:10593000DEBF0FBECDBFCF91DF911F910F91FF90C2
:10594000EF90DF90CF90BF90AF900895AF92BF924D
:10595000CF92DF92EF92FF920F931F93DF93CF933B
:10596000CDB7DEB7E7970FB6F894DEBF0FBECDBF59
:105970005C016B018A0188E698E16EE975E00E949E
:10598000F3D188E698E1B6010E941ED388E698E13B
:1059900069EB75E00E94DBD286E990E10E94DB763C
:1059A000C60160E172E00E94F0D48823F9F08E0114
:1059B000035E1F4FC80166E970E141E00E94EE7688
:1059C000C8010E949B75882339F0C8010E94247584
:1059D000BC01C6010E94A2D68E01035E1F4FC80102
:1059E0000E94A875C8010E941E752EC010161106CF
:1059F0007CF47E010894E11CF11CC701B6010E94F1
:105A00001ED78E01085F1F4FC801B7011ED812C0F4
:105A1000012BD1F06FE0E62EF12CEC0EFD1EC7013C
:105A2000B6010E941ED78E010A5E1F4FC801B70142
:105A30000E944524C601B8010E9409D7C8010E94EE
:105A400030D7C7010E9430D788E698E16BEC75E04B
:105A50000E94F3D188E698E1B6010E941ED3C501E9
:105A6000B6010E941ED7C501E7960FB6F894DEBFB7
:105A70000FBECDBFCF91DF911F910F91FF90EF909F
:105A8000DF90CF90BF90AF900895CF92DF92EF92CA
:105A9000FF920F931F93DF93CF93CDB7DEB76C9731
:105AA0000FB6F894DEBF0FBECDBF88E190E160E095
:105AB00040E020E00E94539C409176115091771174
:105AC00060917011709171118A01085E1F4F88E119
:105AD00090E1465F5F4F20E431E00E944E9D88E1F7
