:100000000C94210F0C94DFAA0C9410AB0C9441AB10
:100010000C9472AB0C94A3AB0C94D4AB0C9405ACC5
:100020000C9436AC0C944E0F0C944E0F0C944E0F57
:100030000C944E0F0C944E0F0C944E0F0C944E0FCC
:100040000C944E0F0C9476720C944E0F0C944E0F31
:100050000C944E0F0C944E0F0C944E0F0C9467ACF6
:100060000C944E0F0C94BDAE0C94E5AF0C944E0F57
:100070000C944E0F0C944E0F0C944E0F0C944E0F8C
:100080000C9449720C944E0F0C944E0F0C944E0F1E
:100090000C94F6AE0C9424B00C944E0F0C944E0FAE
:1000A0000C944E0F0C944E0F0C941C720C944E0F2B
:1000B0000C944E0F0C944E0F0C944E0F0C94EF7149
:1000C0000C944E0F0C944E0F0C944E0F0C942FAFBB
:1000D0000C9463B00C944E0F0C9468AF0C94A2B0C7
:1000E0000C944E0FAA273A288528CE28E728002905
:1000F00019294929A62A7C2AA3297929492D492D7C
:10010000CF29E829492DE92ABF2ACE2BBE2C942CD1
:10011000182DEE2C8C2B732B432B192B342CE92B05
:10012000642CDA270A28012A4C2A9E287341944419
:1001300076417A4194447F4187418F41BB41684376
:10014000904394449444B8431B439444E94115427A
:10015000CF43E0430A443744614443426A42B142D8
:10016000D842C943C743CB436B416F415943CD4349
:100170008E4405A84CCDB2D44EB93836A9020C50E5
:10018000B9918688083CA6AAAA2ABE000000803F32
:10019000000000006410B71DC8206E3BAC30D926AB
:1001A0009041DC76F4516B6B5861B24D3C71055057
:1001B0002083B8ED44930FF0E8A3D6D68CB361CB7F
:1001C000B0C2649BD4D2D38678E20AA01CF2BDBD33
:1001D00050424D20696D616765206D7573742062B2
:1001E00065206174206C6561737420313020706902
:1001F00078656C7320776964652E002C206D6178BA
:100200002064656E736974793A20002C2070656EE5
:100210002077696474683A200050656E7769647469
:1002200068207465737420004368616E67696E6747
:10023000206261636B20746F206C697665206D6F3E
:1002400064652E0046696C652072656D6F76656425
:100250002E0046696C6520616C7265616479206569
:1002600078697374732E00457865637574696E6779
:1002700020636F6D6D616E643A0053746F72696EC6
:100280006720636F6D6D616E643A006D6D00436849
:10029000616E6765642050656E20776964746820BC
:1002A000746F20004E657720616363656C657261D1
:1002B00074696F6E3A20004E6577206D6178207307
:1002C000706565643A200055703A2000446F776E7F
:1002D0003A2000504753504545442C0050474C4964
:1002E00046542C005047535445504D554C5449509A
:1002F0004C4945522C005047535445505350455299
:100300005245562C0050474D4D5045525245562CA3
:1003100000504753495A452C0050474E414D452CFB
:10032000002900526563616C6320706167654865F0
:100330006967687420696E20737465707320280083
:100340002900526563616C63207061676557696459
:10035000746820696E20737465707320280029000A
:10036000292C2073746570735065724D4D202800E0
:10037000526563616C63206D6D5065725374657076
:100380002028004C6F61646564206D6F746F72206B
:1003900073746570206D756C7469706C6965723A00
:1003A000004C6F61646564206D616368696E6520EF
:1003B0006E616D653A004C6F6164656420757020F4
:1003C000706F733A004C6F6164656420646F776E80
:1003D00020706F733A004C6F61646564206D6F74B8
:1003E0006F72207374657073207065722072657609
:1003F0003A004C6F61646564206D6D2070657220F9
:100400007265763A004C6F61646564206D61636863
:10041000696E65206865696768743A004C6F61644D
:100420006564206D616368696E65207769647468CE
:100430003A002069736E2774206120636F6D6D61CF
:100440006E642049207265636F676E6973652E0064
:10045000536F7272792C200029206E6F74207061A6
:10046000727365642E00436F6D6D616E64202800A9
:10047000436865636B73756D206E6F74206D617476
:1004800063686564213A004920676F742000760034
:10049000504F4C41524752415048204F4E21007C12
:1004A0003C3E5E2B3D3F2F5B5D3B2C2A225C0008CF
:1004B0000C205F00000000000000000000000000B1
:1004C0000020202020202000200000002850500084
:1004D0000000000000000000002828FC2850FC500C
:1004E000500000002078A8A0603028A8F02000006C
:1004F0000048A8B050283454480000000020505054
:1005000078A8A8906C000000404080000000000027
:100510000000000004081010101010100804000063
:10052000402010101010101020400000000020A8E3
:100530007070A8200000000000202020F82020205B
:1005400000000000000000000000000040408000AB
:1005500000000000F80000000000000000000000A3
:100560000000000040000000081010102020404053
:1005700040800000007088888888888870000000AB
:10058000002060202020202070000000007088885B
:1005900010204080F80000000070880830080888AB
:1005A00070000000001030505090781018000000CB
:1005B00000F88080F00808887000000000709080CB
:1005C000F08888887000000000F89010202020201B
:1005D0002000000000708888708888887000000003
:1005E00000708888887808487000000000000020AB
:1005F00000000000200000000000000020000000BB
:1006000020200000040810204020100804000000F2
:10061000000000F80000F800000000004020100872
:10062000040810204000000000708888102020007E
:100630002000000000708898A8A8B880780000000A
:100640000020203050507848CC00000000F048488E
:1006500070484848F00000000078888080808088DA
:100660007000000000F0484848484848F00000008A
:1006700000F8485070504048F800000000F848501A
:1006800070504040E000000000384880809C88485E
:100690003000000000CC484878484848CC000000B2
:1006A00000F8202020202020F8000000007C1010FE
:1006B0001010101090E0000000EC485060505048BE
:1006C000EC00000000E0404040404044FC000000DE
:1006D00000D8D8D8D8A8A8A8A800000000DC48688E
:1006E00068585848E8000000007088888888888822
:1006F0007000000000F0484870404040E0000000FA
:10070000007088888888E8987018000000F04848D1
:1007100070504848EC00000000788880601008881D
:10072000F000000000F8A820202020207000000029
:1007300000CC4848484848483000000000CC4848B1
:10074000505030202000000000A8A8A87050505041
:100750005000000000D8505020205050D800000019
:1007600000D85050202020207000000000F8901089
:1007700020204048F80000003820202020202020A1
:1007800020380000404040202010101008000000D9
:100790007010101010101010107000002050000089
:1007A0000000000000000000000000000000000049
:1007B0000000FC002000000000000000000000001D
:1007C00000000000304838483C00000000C04040B5
:1007D0007048484870000000000000003848404061
:1007E0003800000000180808384848483C0000005D
:1007F000000000003048784038000000001C202035
:100800007820202078000000000000003C483040A4
:100810007844380000C0404070484848EC00000070
:100820000020000060202020700000000010000068
:10083000301010101010E00000C040405C507048B4
:10084000EC00000000E0202020202020F800000024
:1008500000000000F0A8A8A8A80000000000000008
:10086000F0484848EC0000000000000030484848CC
:100870003000000000000000F04848487040E000F0
:10088000000000003848484838081C0000000000FC
:10089000D8604040E00000000000000078403008D0
:1008A00078000000000020207020202018000000A8
:1008B00000000000D84848483C000000000000004C
:1008C000EC4850302000000000000000A8A8705044
:1008D0005000000000000000D8502050D800000058
:1008E00000000000EC4850302020C0000000000054
:1008F0007810202078000000181010102010101020
:1009000010180010101010101010101010101000FF
:10091000602020201020202020600040A41800002B
:10092000000000000000001010205F000000000028
:1009300000000000000000000000000000000000B7
:1009400000000000000000000000000000000007A0
:10095000000F800F800F800F800F800700070000BE
:10096000000000070007000700000000000E380E1E
:10097000380E380E3806300000000000000000007D
:10098000000000000000000000000000000C300C1F
:10099000300C307FFE7FFE0C300C300C300C307F82
:1009A000FE7FFE0C300C300C3000000000024002D4
:1009B000400FF81FF81A401A401FF00FF8025802B3
:1009C000581FF81FF0024002400000000000000025
:1009D000000E100E300E7000E001C0038007000E04
:1009E000700C700870000000000000000000000F94
:1009F000001980198019800F000F080F9819F81836
:100A0000F018E019F00F9800000000000000000747
:100A100000070007000E00000000000000000000BA
:100A200000000000000000000000000000000000C6
:100A3000F001C0038007000E000E000E000E00073C
:100A400000038001C000F000000000000000000F63
:100A500000038001C000E0007000700070007000B2
:100A6000E001C003800F0000000000000000000152
:100A7000801188099007E007E03FFC3FFC07E00792
:100A8000E0099011880180000000000000000000D3
:100A90000000000180018001800FF00FF001800153
:100AA0008001800000000000000000000000000045
:100AB0000000000000000000000000000000000036
:100AC000000700070007000E000000000000000003
:100AD0000000000000000000001FF81FF8000000E8
:100AE0000000000000000000000000000000000006
:100AF00000000000000000000000000000000000F6
:100B000000070007000700000000000000000000D0
:100B1000020006000E001C0038007000E001C00357
:100B20008007000E001C0000000000000000000F05
:100B3000F01C381C781CF81CF81DB81DB81F381F95
:100B4000381E381C380FF0000000000000000001C3
:100B500080018003801F801F800380038003800347
:100B600080038003801FF000000000000000000FE1
:100B7000E01C701C380038007000E001C0038007E2
:100B8000000E381C381FF800000000000000000FA5
:100B9000E01C701C380038007003C003C0007000F7
:100BA000381C381C700FE00000000000000000003E
:100BB000E001E003E006E00CE018E01FF81FF80099
:100BC000E000E000E003F800000000000000001F6B
:100BD000F81C001C001C001C001FE01FF000780027
:100BE000381C381C700FE0000000000000000003FB
:100BF000E007000E001C001C001FF01FF81C381C32
:100C0000381C381C380FF000000000000000001FE6
:100C1000FC1C1C1C1C1C1C001C0038007000E0018B
:100C2000C003800380038000000000000000000F6C
:100C3000F01C381C381C381F3807E007E01CF81C73
:100C4000381C381C380FF000000000000000000FB6
:100C5000F01C381C381C381C381FF80FF8003800FE
:100C600038007000E007C000000000000000000035
:100C70000000000380038003800000000003800365
:100C80008003800000000000000000000000000061
:100C90000000000380038003800000000003800345
:100CA00080038007000000000000000000007000CA
:100CB000E001C0038007000E001C001C000E0007AE
:100CC00000038001C000E000700000000000000090
:100CD00000000000003FFC3FFC000000003FFC3F24
:100CE000FC0000000000000000000000001C000EDE
:100CF000000700038001C000E00070007000E00108
:100D0000C0038007000E001C000000000003C00F9D
:100D1000F01E7818380038007000E001C001C000F3
:100D200000000001C001C001C0000000000FF81C5D
:100D30001C1C1C1C1C1C1C1CFC1CFC1CFC1CFC1C73
:100D4000001C001C001FF007F8000000000000035A
:100D5000C007E00E701C381C381C381C381FF81CEB
:100D6000381C381C381C3800000000000000001F30
:100D7000F00E380E380E380E380FF00FF00E380E19
:100D8000380E380E381FF000000000000000000789
:100D9000F00E381C381C001C001C001C001C001C21
:100DA000001C380E3807F000000000000000001F93
:100DB000E00E700E380E380E380E380E380E380E23
:100DC000380E380E701FE000000000000000001F09
:100DD000F80E180E080E000E300FF00FF00E300E49
:100DE000000E080E181FF800000000000000001F91
:100DF000F80E180E080E000E300FF00FF00E300E29
:100E0000000E000E001F00000000000000000007A0
:100E1000F00E381C381C381C001C001C001CF81C70
:100E2000381C380E3807F800000000000000001CD5
:100E3000701C701C701C701C701FF01FF01C701C4C
:100E4000701C701C701C7000000000000000000F7F
:100E5000E00380038003800380038003800380031A
:100E600080038003800FE00000000000000000010C
:100E7000FC007000700070007000700070387038F6
:100E800070387038700FE000000000000000001E95
:100E9000380E380E700EE00FC00F800F800FC00E9E
:100EA000E00E700E381E3800000000000000001F29
:100EB000000E000E000E000E000E000E000E000EC2
:100EC000080E180E381FF800000000000000001C7B
:100ED0001C1E3C1F7C1FFC1FFC1DDC1C9C1C1C1CC6
:100EE0001C1C1C1C1C1C1C00000000000000001C22
:100EF0001C1C1C1E1C1F1C1F9C1DDC1CFC1C7C1CA9
:100F00003C1C1C1C1C1C1C000000000000000003FA
:100F1000E007F00E381C1C1C1C1C1C1C1C1C1C1C80
:100F20001C0E3807F003E000000000000000001F66
:100F3000F00E380E380E380E380FF00FF00E000E8F
:100F4000000E000E001F0000000000000000000363
:100F5000E00F780E381C1C1C1C1C1C1C1C1C7C1C50
:100F6000FC0FF80FF8003800FC0000000000001F24
:100F7000F00E380E380E380E380FF00FF00E700EDF
:100F8000380E380E381E3800000000000000000F38
:100F9000F01C381C381C381C000FE007F000381C0F
:100FA000381C381C380FF000000000000000001F43
:100FB000FC19CC11C401C001C001C001C001C001B5
:100FC000C001C001C007F000000000000000001CCC
:100FD000701C701C701C701C701C701C701C701CB1
:100FE000701C701C700FE000000000000000001C6E
:100FF000701C701C701C701C701C701C701C701C91
:10100000700EE007C0038000000000000000001C1C
:101010001C1C1C1C1C1C1C1C1C1C9C1C9C1C9C0F9D
:10102000F80FF80770077000000000000000001CB7
:10103000701C701C700EE007C00380038007C00E98
:10104000E01C701C701C7000000000000000001C00
:10105000701C701C701C701C700EE007C0038003B5
:1010600080038003800FE000000000000000001FEC
:10107000F81C381838107000E001C0038007000E1B
:10108000081C181C381FF8000000000000000007B2
:10109000F007000700070007000700070007000728
:1010A000000700070007F00000000000000000102B
:1010B0000018001C000E000700038001C000E000C3
:1010C000700038001C00070000000000000000074E
:1010D000F000700070007000700070007000700010
:1010E000700070007007F000000000000001800335
:1010F000C007E00E701C3800000000000000000077
:1011000000000000000000000000000000000000DF
:1011100000000000000000000000000000000000CF
:10112000000000000000007FFF7FFF000000001CA7
:10113000001C000700070000000000000000000085
:10114000000000000000000000000000000000009F
:10115000000000000000000FE0007000700FF01CA5
:10116000701C701C700FD800000000000000001EF2
:10117000000E000E000E000FF00E380E380E380E66
:10118000380E380E381BF000000000000000000090
:10119000000000000000000FE01C701C701C001C10
:1011A000001C701C700FE000000000000000000038
:1011B000F80070007000700FF01C701C701C701C28
:1011C000701C701C700FD8000000000000000000B0
:1011D000000000000000000FE01C701C701FF01CDD
:1011E000001C701C700FE0000000000000000003F5
:1011F000E007700770070007001FE01FE007000707
:1012000000070007001FC0000000000000000000F1
:10121000000000000000000FD81C701C701C701C27
:10122000700FF007F000701C700FE0000000001E4F
:10123000000E000E000E000EF00F380F380E380EA4
:10124000380E380E381E3800000000000000000183
:10125000C001C001C000000FC001C001C001C00139
:10126000C001C001C00FF800000000000000000035
:101270007000700070000003F000700070007000DB
:1012800070007000701C700CF007E0000000001E81
:10129000000E000E000E000E380E700EE00FC00E95
:1012A000E00E700E381E3800000000000000000F35
:1012B000C001C001C001C001C001C001C001C00126
:1012C000C001C001C00FF8000000000000000000D5
:1012D000000000000000001FF81C9C1C9C1C9C1CB3
:1012E0009C1C9C1C9C1C9C0000000000000000003A
:1012F000000000000000001FE01C701C701C701C2F
:10130000701C701C701C70000000000000000000C9
:10131000000000000000000FE01C701C701C701C1E
:10132000701C701C700FE000000000000000000046
:10133000000000000000001BF00E380E380E380EC2
:10134000380E380FF00E000E001F000000000000E5
:10135000000000000000001FB038E038E038E0383E
:10136000E038E01FE000E000E001F00000000000D5
:10137000000000000000001EF00FF80F380E000EF5
:10138000000E000E001F0000000000000000000022
:10139000000000000000000FE01C301C300F800334
:1013A000E0187018700FE00000000000000000005E
:1013B000000100030007001FF007000700070007F7
:1013C000000770077003E00000000000000000004C
:1013D000000000000000001C701C701C701C701CC1
:1013E000701C701C700FD80000000000000000008E
:1013F000000000000000001C701C701C701C701CA1
:10140000700EE007C0038000000000000000000034
:10141000000000000000001C1C1C1C1C1C1C9C1C50
:101420009C0FF8077007700000000000000000002B
:10143000000000000000001CE01CE00FC007800757
:10144000800FC01CE01CE000000000000000000055
:10145000000000000000000E380E380E380E380E66
:101460003807F003E000E001C01F8000000000002A
:10147000000000000000001FE018E011C00380071A
:10148000000E201C601FE0000000000000000001B2
:10149000F803800380038007001C001C0007000382
:1014A000800380038001F800000000000001C001FB
:1014B000C001C001C001C001C001C001C001C00124
:1014C000C001C001C001C001C00000000000001F39
:1014D0008001C001C001C000E00038003800E00118
:1014E000C001C001C01F8000000000000000001FFC
:1014F0001C3B9C39DC38F8000000000000000000B4
:1015000000000000000000000000002032300A004F
:101510000000000000000000FFFE0001FFFF0003CC
:10152000FFFF8001FFFF600CFFFEF01E0001F83F8F
:101530000001F83F0001F83F0001F83F0001F83FCB
:101540000001F83F0001F83F0001F83F0001F83FBB
:101550000001F83F0001F83F0001F83F0001F83FAB
:101560000001F83E00007838000018200000080054
:1015700000000020000000380000183E0000783F06
:101580000001F83F0001F83F0001F83F0001F83F7B
:101590000001F83F0001F83F0001F83F0001F83F6B
:1015A0000001F83F0001F83F0001F83F0001F83F5B
:1015B0000001F83F0001F81E0000F00CFFFE600182
:1015C000FFFF0003FFFF8001FFFF0000FFFE0000A0
:1015D000000000000000000000000000000000000B
:1015E000000000000000000000000000000060009B
:1015F0000000F0000001F8000001F8000001F80010
:101600000001F8000001F8000001F8000001F800F6
:101610000001F8000001F8000001F8000001F800E6
:101620000001F8000001F8000001F8000000780057
:10163000000018000000080000000000000000008A
:1016400000001800000078000001F8000001F80018
:101650000001F8000001F8000001F8000001F800A6
:101660000001F8000001F8000001F8000001F80096
:101670000001F8000001F8000001F8000001F80086
:101680000000F0000000600000000000000000000A
:10169000000000000000000000000000000000004A
:1016A0000000000000000000FFFE0001FFFF00033B
:1016B000FFFF8001FFFF6000FFFEF0000001F80067
:1016C0000001F8000001F8000001F8000001F80036
:1016D0000001F8000001F8000001F8000001F80026
:1016E0000001F8000001F8000001F8000001F80016
:1016F0000001F80000007801FFFE1803FFFF880FCB
:10170000FFFFE027FFFFC039FFFF003E0000003F62
:101710000000003F0000003F0000003F0000003FCD
:101720000000003F0000003F0000003F0000003FBD
:101730000000003F0000003F0000003F0000003FAD
:101740000000003F0000001E0000000CFFFE000132
:10175000FFFF0003FFFF8001FFFF0000FFFE00000E
:101760000000000000000000000000000000000079
:10177000FFFE0001FFFF0003FFFF8001FFFF60008D
:10178000FFFEF0000001F8000001F8000001F80081
:101790000001F8000001F8000001F8000001F80065
:1017A0000001F8000001F8000001F8000001F80055
:1017B0000001F8000001F8000001F80000007801C5
:1017C000FFFE1803FFFF880FFFFFE007FFFFC001C8
:1017D000FFFF1800000078000001F8000001F80089
:1017E0000001F8000001F8000001F8000001F80015
:1017F0000001F8000001F8000001F8000001F80005
:101800000001F8000001F8000001F8000001F800F4
:101810000000F000FFFE6001FFFF0003FFFF8001FA
:10182000FFFF0000FFFE00000000000000000000BD
:1018300000000000000000000000000000000000A8
:10184000000000000000600C0000F01E0001F83FE6
:101850000001F83F0001F83F0001F83F0001F83FA8
:101860000001F83F0001F83F0001F83F0001F83F98
:101870000001F83F0001F83F0001F83F0001F83F88
:101880000001F83E00007839FFFE1823FFFF880FA3
:10189000FFFFE007FFFFC001FFFF18000000780016
:1018A0000001F8000001F8000001F8000001F80054
:1018B0000001F8000001F8000001F8000001F80044
:1018C0000001F8000001F8000001F8000001F80034
:1018D0000001F8000001F8000000F00000006000C6
:1018E00000000000000000000000000000000000F8
:1018F00000000000000000000000000000000000E8
:10190000FFFE0001FFFF0003FFFF8001FFFF000C4F
:10191000FFFE001E0000003F0000003F0000003FEF
:101920000000003F0000003F0000003F0000003FBB
:101930000000003F0000003F0000003F0000003FAB
:101940000000003F0000003F0000003E00000039A2
:10195000FFFE0023FFFF800FFFFFE007FFFFC00136
:10196000FFFF1800000078000001F8000001F800F7
:101970000001F8000001F8000001F8000001F80083
:101980000001F8000001F8000001F8000001F80073
:101990000001F8000001F8000001F8000001F80063
:1019A0000000F000FFFE6001FFFF0003FFFF800169
:1019B000FFFF0000FFFE000000000000000000002C
:1019C0000000000000000000FFFE0001FFFF000318
:1019D000FFFF8001FFFF000CFFFE001E0000003F24
:1019E0000000003F0000003F0000003F0000003FFB
:1019F0000000003F0000003F0000003F0000003FEB
:101A00000000003F0000003F0000003F0000003FDA
:101A10000000003E00000039FFFE0023FFFF800FA2
:101A2000FFFFE027FFFFC039FFFF183E0000783FAF
:101A30000001F83F0001F83F0001F83F0001F83FC6
:101A40000001F83F0001F83F0001F83F0001F83FB6
:101A50000001F83F0001F83F0001F83F0001F83FA6
:101A60000001F83F0001F81E0000F00CFFFE6001CD
:101A7000FFFF0003FFFF8001FFFF0000FFFE0000EB
:101A80000000000000000000000000000000000056
:101A9000FFFE0001FFFF0003FFFF8001FFFF60006A
:101AA000FFFEF0000001F8000001F8000001F8005E
:101AB0000001F8000001F8000001F8000001F80042
:101AC0000001F8000001F8000001F8000001F80032
:101AD0000001F8000001F8000001F80000007800A3
:101AE00000001800000008000000000000000000D6
:101AF00000001800000078000001F8000001F80064
:101B00000001F8000001F8000001F8000001F800F1
:101B10000001F8000001F8000001F8000001F800E1
:101B20000001F8000001F8000001F8000001F800D1
:101B30000000F00000006000000000000000000055
:101B40000000000000000000000000000000000095
:101B50000000000000000000FFFE0001FFFF000386
:101B6000FFFF8001FFFF600CFFFEF01E0001F83F49
:101B70000001F83F0001F83F0001F83F0001F83F85
:101B80000001F83F0001F83F0001F83F0001F83F75
:101B90000001F83F0001F83F0001F83F0001F83F65
:101BA0000001F83E00007839FFFE1823FFFF880F80
:101BB000FFFFE027FFFFC039FFFF183E0000783F1E
:101BC0000001F83F0001F83F0001F83F0001F83F35
:101BD0000001F83F0001F83F0001F83F0001F83F25
:101BE0000001F83F0001F83F0001F83F0001F83F15
:101BF0000001F83F0001F81E0000F00CFFFE60013C
:101C0000FFFF0003FFFF8001FFFF0000FFFE000059
:101C100000000000000000000000000000000000C4
:101C2000FFFE0001FFFF0003FFFF8001FFFF600CCC
:101C3000FFFEF01E0001F83F0001F83F0001F83FF1
:101C40000001F83F0001F83F0001F83F0001F83FB4
:101C50000001F83F0001F83F0001F83F0001F83FA4
:101C60000001F83F0001F83F0001F83E000078391C
:101C7000FFFE1823FFFF880FFFFFE007FFFFC001F3
:101C8000FFFF1800000078000001F8000001F800D4
:101C90000001F8000001F8000001F8000001F80060
:101CA0000001F8000001F8000001F8000001F80050
:101CB0000001F8000001F8000001F8000001F80040
:101CC0000000F000FFFE6001FFFF0003FFFF800146
:101CD000FFFF0000FFFE0000000000000000000009
:101CE000002100240027002A002D003000330001CD
:101CF000010000040107010A01000022002500285C
:101D0000002B002E00310034000201000005010804
:101D1000010B01000020002300260029002C002FC9
:101D2000003200000100000301060109010505055C
:101D300005070508080808020202020A0A08080442
:101D40000404040101010101010101030303030370
:101D5000030303040707070C0C0C0C0C0C0C0C02FF
:101D600002020206060606060606060B0B0B0B0B06
:101D70000B0B0B01021020200808102040102040FF
:101D8000800201020108040201010204081020403F
:101D9000808040201008040201800402018040205D
:101DA0001008040201080402010102040810204086
:101DB0008001020408102040800000090A02080B7C
:101DC0000C0D0706030401000000000000000000E5
:101DD0000000000000000000000000000000000003
:101DE000000000000011100F0000000000000000C3
:101DF000000000000000000000000000000000499A
:101E00004E46494E4954594E414ECDCCCC3D0AD751
:101E1000233C17B7D13877CC2B329595E6241FB1E8
:101E20004F0A000020410000C84200401C4620BC70
:101E3000BE4CCA1B0E5AAEC59D74F1194C740CB23F
:101E4000EC1911241FBECFEFD1E2DEBFCDBF00E001
:101E50000CBF1FE0A0E0B2E0E4E9FBE701E00BBF4C
:101E600002C007900D92A63CB107D9F71BBE18E13E
:101E7000A6ECBFE001C01D92AC3BB107E1F71EE14B
:101E8000C0E4DEE104C02297FE010E9478BDCA339F
:101E9000D107C9F70E942AB30C94BEBD0C94000070
:101EA000CF93DF93BC018230910510F462E070E0C3
:101EB000A091B818B091B918ED01E0E0F0E040E071
:101EC00050E021C0888199818617970769F48A813B
:101ED0009B81309719F09383828304C09093B91843
:101EE0008093B818FE0134C06817790738F441159B
:101EF000510519F08417950708F4AC01FE018A8199
:101F00009B819C01E9012097E9F641155105A9F152
:101F1000CA01861B970B049708F4BA01E0E0F0E0D1
:101F20002AC08D919C91119784179507F9F4641735
:101F3000750781F412968D919C911397309719F043
:101F40009383828304C09093B9188093B818FD01DD
:101F500032964CC0CA01861B970BFD01E80FF91F92
:101F60006193719302978D939C9340C0FD01828190
:101F700093819C01D9011097A1F68091B618909198
:101F8000B718892B41F480910B0F90910C0F90930F
:101F9000B7188093B61840910D0F50910E0F411550
:101FA000510541F44DB75EB78091090F90910A0F2A
:101FB000481B590B2091B6183091B718CA01821BE3
:101FC000930B8617970780F0AB014E5F5F4F841726
:101FD000950750F0420F531F5093B7184093B6180F
:101FE000F9016193719302C0E0E0F0E0CF01DF916D
:101FF000CF910895CF93DF93009709F450C0EC017F
:1020000022971B821A82A091B818B091B918109724
:1020100009F140E050E0AC17BD0708F1BB83AA838B
:10202000FE0121913191E20FF31FAE17BF0779F442
:102030008D919C911197280F391F2E5F3F4F398347
:10204000288312968D919C9113979B838A834115C7
:10205000510571F4D093B918C093B81820C01296E6
:102060008D919C911397AD01009711F0DC01D3CFB6
:10207000FA01D383C28321913191E20FF31FCE176E
:10208000DF0769F488819981280F391F2E5F3F4F40
:10209000FA01318320838A819B8193838283DF913C
:1020A000CF910895A0E0B0E0E8E5F0E10C948FBD99
:1020B000EC01A880B980CA80DB80A114B104C104FE
:1020C000D10441F484E2A82E89EDB82E8BE5C82E08
:1020D00087E0D82EC601B5012DE133EF41E050E095
:1020E0000E945BBD27EA31E440E050E00E94E7BC7B
:1020F0007B018C01C601B5012DE133EF41E050E0D9
:102100000E945BBDCA01B9012CEE34EF4FEF5FEFC7
:102110000E94E7BC6E0D7F1D801F911F97FF04C0BA
:102120006150704080409048688379838A839B83A4
:102130009B01AC015F77B901CA01CDB7DEB7EAE018
:102140000C94ABBDAFCF8FE09FE0ACCF60930F0F8F
:102150007093100F8093110F9093120F0895A0E0C9
:10216000B0E0E5EBF0E10C9489BD6C01009721F43F
:10217000CB0196DE6C01BDC08EEF882E8FEF982EBE
:102180008C0C9D1C8601060F171F0815190508F4F5
:10219000AEC0F401A081B181A617B707B0F0A53099
:1021A000B10508F4A6C0CD0104978617970708F477
:1021B000A0C01297A61BB70BF801A193B193D4014D
:1021C0006D937C93CF0116DF94C07B01EA1AFB0A62
:1021D000EEEFFFEFEE0EFF1E36016A0E7B1EC09182
:1021E000B818D091B91844245524AA24BB244AC055
:1021F000C615D705E1F5488159814E155F05B8F13F
:10220000CA0104978E159F05B0F41296A40FB51F4E
:10221000F401B183A0832A813B814114510431F040
:10222000D20113963C932E93129763C03093B91842
:102230002093B8185EC08A819B81F80193838283C2
:10224000425050404E195F0951834083411451045C
:1022500031F0D20113961C930E93129704C0109381
:10226000B9180093B818F4017183608342C0888163
:102270009981A816B90608F45C012E018A819B8118
:102280009C01E901209709F0B3CF8091B618909195
:10229000B71886159705E9F4A616B706D0F420916D
:1022A0000D0F30910E0F2115310541F42DB73EB7BA
:1022B0008091090F90910A0F281B390B0217130701
:1022C000B0F41093B7180093B618D4016D937C93B3
:1022D00010C0CB01E5DDEC01009749F0F40140812D
:1022E0005181B6015FD0C60185DE6E0102C0CC24EB
:1022F000DD24C601CDB7DEB7E0E10C94A5BD6627AD
:102300007727C8C0FC0188279927E89421912032BB
:10231000E9F3293010F02E30C8F32B3239F02D328A
:1023200031F4689403C0AED0820F911D21912053E7
:102330002A30C8F31EF4909581959F4F08951F93FE
:10234000FC0199278827BC01E89411911032E9F328
:10235000193010F01E30C8F31B3249F01D3241F421
:10236000689405C07AD0610F711D811D911D119176
:1023700010531A30B8F33EF490958095709561959E
:102380007F4F8F4F9F4F1F910895FB01DC0104C0C9
:102390008D910190801921F441505040C8F7881B5D
:1023A000990B0895FB01DC0102C001900D92415090
:1023B0005040D8F70895FC018191861721F08823B9
:1023C000D9F7992708953197CF010895FB01DC01D2
:1023D0008D91019080190110D9F3990B0895FB019B
:1023E000DC0101900D920020E1F70895FB01DC0172
:1023F0004150504030F08D910190801919F4002027
:10240000B9F7881B990B0895FB01DC01415050403E
:1024100048F001900D920020C9F701C01D92415073
:102420005040E0F70895FB0151915523A9F0BF01F9
:10243000DC014D9145174111E1F759F4CD010190AF
:10244000002049F04D9140154111C9F3FB014111A4
:10245000EFCF81E090E001970895592F482F372F53
:10246000262F660F771F881F991F660F771F881FFB
:10247000991F620F731F841F951F660F771F881F98
:10248000991F08957AE0979F902D879F802D910D39
:1024900011240895A0E0B0E0E0E5F2E10C948DBDD8
:1024A000EC015B016115710519F0FB0191838083DB
:1024B000F9908F2D90E00E947CBD892BC9F7FDE239
:1024C000FF1621F4F990EE24E39405C02BE2F216F6
:1024D00009F4F990EE248E0101501040C8016FEF0D
:1024E0007DE143E050E033D1892BF9F48E010E5F9A
:1024F0001F4FC80162E07EE145E050E028D1892B02
:1025000019F48E01095F1F4FA114B10419F0F501F0
:1025100011830083E0FC04C070E090E080E813C009
:1025200070E090E080E86FEF07C1C80167E07EE1EE
:1025300043E050E00CD1892B69F4A114B10429F4D3
:1025400070E090E080EC6FE7F7C02296F501D18350
:10255000C083F6CF8824992440E050E060E070E02A
:10256000EF2DE053EA30A0F5F2E0EF2A8E2D90E057
:102570009C0128703070E2FE06C0232B79F5089488
:10258000811C911C2BC0232B19F008948108910801
:10259000DB01CA0112E0880F991FAA1FBB1F1A9501
:1025A000D1F7480F591F6A1F7B1F440F551F661F25
:1025B000771F4E0F511D611D711D483929E95207C2
:1025C00029E9620729E1720748F084E0E82A06C099
:1025D000EE3F31F4E3FC39C098E0E92AF990C0CF2E
:1025E000E53311F0E53189F529912D3219F4E0E157
:1025F000EE2A05C02B3219F081E090E003C029914A
:1026000082E090E0E22FE053EA3018F0C81BD90BCB
:102610001CC020E030E0FCE020383F075CF4C9013A
:10262000880F991F880F991F280F391F220F331FFA
:102630002E0F311DE991E053EA3068F3E4FE03C048
:10264000309521953F4F820E931ECE2CDD24E1FE66
:1026500007C0A114B10421F02197F501D183C083F3
:10266000CB01BA010E94EBBA7B018C01F3E0CF22CF
:10267000DD2423E0C216D10421F417FB109517F9CD
:10268000109557016801C801B70120E030E040E033
:1026900050E00E944BBA882309F44AC097FE0DC04F
:1026A0002EE1E22E2EE1F22E9094819491089394E3
:1026B000C0E2D0E000E010E012C096E3E92E9EE117
:1026C000F92EF6CFF7012591359145915491C60128
:1026D000B5010E94E3BB5B016C018C1A9D0A8C164C
:1026E0009D0684F7D595C7950F5F1F4F06301105DE
:1026F00029F08CEF9FEFE80EF91EF1CFC501D6014E
:102700007C018D018C2D880F8D2D881F8F3F51F0FE
:10271000C601B50120E030E040E050E00E944BBA35
:10272000882331F482E290E09093BB188093BA182A
:102730007E2D9F2D802F612F272F392F482F562F29
:10274000B901CA01CDB7DEB7ECE00C94A9BDFB011D
:10275000DC014150504088F08D9181341CF08B3564
:102760000CF4805E659161341CF06B350CF4605E96
:10277000861B611171F3990B0895881BFCCF982F6C
:102780008091620F813049F59430B9F0953030F482
:10279000913059F0923009F0AAC0AAC09530A9F042
:1027A000963009F0A4C083E208958091E210882356
:1027B00011F480E2089581E208958091250F882325
:1027C00011F485E0089584E008958091CA0F88236C
:1027D00011F487E0089588E008958091620F8630B3
:1027E000C9F4943009F486C0953030F4923061F029
:1027F000933009F07CC00AC0953021F0963009F082
:1028000076C006C089E008958AE0089583E10895BE
:1028100082E108958091620F8430C9F4943009F404
:1028200069C0953030F4923061F0933009F05FC0A8
:102830000AC0953021F0963009F059C006C08BE1EE
:1028400008958CE108958AE1089589E108958091C1
:10285000620F8530C1F4943009F44CC0953030F4E7
:10286000923059F0933009F042C009C0953019F008
:102870009630E9F506C085E1089586E1089588E17E
:10288000089587E108958091620F8330D1F49430E8
:1028900051F0953018F4923051F507C0953039F069
:1028A000963029F506C08FE008958CE008958BE0FE
:1028B00008958091E110882311F480E1089582E267
:1028C00008958091620F873091F4933051F09430E5
:1028D00018F4923061F407C0943061F0953039F407
:1028E00004C08EE108958FE108958DE10895089563
:1028F00082E0089584E10895AF92BF92CF92DF9273
:10290000EF92FF920F931F936E157F05800791073B
:1029100034F42E153F054007510764F42CC0E61629
:10292000F7060807190794F4A216B306C406D506DD
:102930003CF423C0A216B306C406D506BCF41FC0DF
:102940002A153B054C055D05C4F41BC06E157F05BB
:102950008007910791F42A153B054C055D058CF025
:10296000A216B306C406D50644F409C02A153B05D1
:102970004C055D0511F484E005C082E003C083E0EE
:1029800001C081E01F910F91FF90EF90DF90CF90F9
:10299000BF90AF900895EF92FF920F931F937B012A
:1029A0008C01662757FD6095762FCB01BA010E94F6
:1029B000EDBA2091D20F3091D30F4091D40F5091A6
:1029C000D50F0E94E3BBA80197010E9452BA7B0178
:1029D0008C0120E030E040E050E40E94DFBB87FF44
:1029E00003C061E070E004C0C801B7010E94BABA38
:1029F000CB011F910F91FF90EF9008956F927F92FE
:102A00008F929F92AF92BF92CF92DF92EF92FF92FE
:102A10000F931F93CF93DF937C015B01662757FDD4
:102A20006095762FCB01BA010E94EDBA3B014C01B3
:102A30000027F7FC0095102FC801B7010E94EDBADE
:102A40007B018C01CC24B7FCC094DC2CC601B50101
:102A50000E94EDBA9B01AC01C801B7010E9452BAB5
:102A6000A40193010E94E3BB9B01AC01C401B3012B
:102A70000E94E6B97B018C010E94BABAEB01BE014B
:102A8000882777FD8095982F0E94EDBA9B01AC01B5
:102A9000C801B7010E94E6B920E030E040E05FE302
:102AA0000E94DFBB18160CF42196CE01DF91CF9166
:102AB0001F910F91FF90EF90DF90CF90BF90AF905C
:102AC0009F908F907F906F900895CF92DF92EF92BA
:102AD000FF920F931F93CF93DF93EC016B016881FB
:102AE00079818A819B812091670F3091680F409195
:102AF000690F50916A0F0E94E3BB688379838A83D0
:102B00009B83F601608171818281938120916B0F9B
:102B100030916C0F40916D0F50916E0F0E94E3BB8E
:102B20007B018C01F6016083718382839383209102
:102B30000C1330910D13C9018E978A35910580F4DD
:102B4000288139814A815B81D801C701B0588883C7
:102B50009983AA83BB83208331834283538329C013
:102B6000C901885890408A35910580F488819981FF
:102B7000AA81BB81B05888839983AA83BB83F6015D
:102B800080819181A281B381B0580FC0225E304014
:102B90002A35310570F488819981AA81BB81E88248
:102BA000F9820A831B83B058F60180839183A28344
:102BB000B383688179818A819B8120910E13309142
:102BC0000F1340911013509111130E94E7B96883BD
:102BD00079838A839B83F6016081718182819381ED
:102BE0002091121330911313409114135091151327
:102BF0000E94E7B9F6016083718382839383DF913A
:102C0000CF911F910F91FF90EF90DF90CF9008959B
:102C10002F923F924F925F926F927F928F929F92EC
:102C2000AF92BF92CF92DF92EF92FF920F931F93DA
:102C30001B012C0139014A01E090DA0FF090DB0F03
:102C40000091DC0F1091DD0FC801B701A8019701B9
:102C50000E94E7BC0E94EDBA5B016C01C401B301A4
:102C6000A40193010E94E3BB9B01AC01C601B50125
:102C70000E94E6B95B016C01C201B101A2019101A0
:102C80000E94E3BB9B01AC01C601B5010E94E7B9FC
:102C90005B016C01EE0CFF1C001F111FC801B70186
:102CA0000E94EDBA9B01AC01C601B5010E9452BA67
:102CB0001F910F91FF90EF90DF90CF90BF90AF905A
:102CC0009F908F907F906F905F904F903F902F904C
:102CD00008950F931F93CF93DF93242F2627A22FBE
:102CE000B0E0AF70B070AA0FBB1FAA0FBB1FC0E946
:102CF000D1E0AC0FBD1FFD010591159125913491D7
:102D0000E4E09695879577956795EA95D1F706273C
:102D100017272827392742954F70402750E04F70DA
:102D20005070440F551F440F551F4C0F5D1FFA0183
:102D300085919591A591B49144E036952795179585
:102D400007954A95D1F7082719272A273B27B80165
:102D5000C901DF91CF911F910F910895CF92DF921A
:102D6000EF92FF920F931F938130910509F032C2C9
:102D70006F5F7F4F09F029C384E891E160E072E062
:102D80000E941CB987EC9FE00E948B6F8BEC9FE048
:102D900064E072E00E941CB98BE891E165E072E0AA
:102DA0000E941CB96091190F70911A0F882777FD46
:102DB0008095982F2091130F3091140F442737FDE1
:102DC0004095542F0E94E7BC0E94EDBA7B018C0114
:102DD0006091150F7091160F8091170F9091180F39
:102DE000A80197010E9452BA6093D20F7093D30F3B
:102DF0008093D40F9093D50FC801B7012091150F80
:102E00003091160F4091170F5091180F0E9452BA2F
:102E10007B018C016093D60F7093D70F8093D80FEE
:102E20009093D90F6091630F7091640F882777FD9D
:102E30008095982F0E94EDBAA80197010E94E3BBEC
:102E40000E94BABA6093DA0F7093DB0F8093DC0FA5
:102E50009093DD0F6091650F7091660F882777FD65
:102E60008095982F0E94EDBAA80197010E94E3BBBC
:102E70000E94BABA6093DE0F7093DF0F8093E00F69
:102E80009093E10F82E991E16EE072E00E941CB93B
:102E900089E991E160E172E00E941CB980EA91E168
:102EA00064E172E00E941CB987EA91E16CE172E092
:102EB0000E941CB98EEA91E16FE472E00E941CB995
:102EC00085EB91E16FE472E00E941CB98CEB91E11B
:102ED0006FE472E00E941CB983EC91E16FE472E050
:102EE0000E941CB98AEC91E16EE572E00E941CB967
:102EF00081ED91E168E672E00E941CB988ED91E1F4
:102F00006FE672E00E941CB98FED91E167E772E015
:102F10000E941CB986EE91E162E872E00E941CB941
:102F20008DEE91E16AEC71E10E94CAB982EF9FE0F7
:102F300064E072E00E941CB984EF91E168E872E0FD
:102F40000E941CB98BEF91E16AE872E00E941CB903
:102F500082E092E16FE872E00E941CB989E092E1A0
:102F600063E972E00E941CB980E192E167E972E0D6
:102F70000E941CB987E192E16BE972E00E941CB9E2
:102F80008EE192E16FE972E00E941CB985E292E164
:102F900063EA72E00E941CB98CE292E167EA72E097
:102FA0000E941CB983E392E16BEA72E00E941CB9B3
:102FB0008AE392E16FEA72E00E941CB981E492E137
:102FC00063EB72E00E941CB988E492E167EB72E067
:102FD0000E941CB98FE492E16BEB72E00E941CB975
:102FE00086E592E16FEB72E00E941CB98DE592E1FB
:102FF00063EC72E00E941CB984E692E167EC72E037
:103000000E941CB98BE692E16BEC72E00E941CB945
:1030100082E792E16FEC72E00E941CB989E792E1CD
:1030200063ED72E00E941CB980E892E167ED72E006
:103030000E941CB987E892E16BED72E00E941CB916
:103040008EE892E16FED72E00E941CB985E992E191
:1030500063EE72E00E941CB98CE992E167EE72E0C7
:103060000E941CB983EA92E16BEE72E00E941CB9E7
:103070008AEA92E16FEE72E00E941CB981EB92E164
:1030800063EF72E00E941CB988EB92E167EF72E097
:103090000E941CB98FEB92E16BEF72E00E941CB9A9
:1030A00086EC92E16FEF72E00E941CB98DEC92E128
:1030B00063E073E00E941CB984ED92E167E073E085
:1030C0000E941CB98BED92E16BE073E00E941CB989
:1030D00082EE92E16FE073E00E941CB989EE92E10A
:1030E00063E173E00E941CB980EF92E167E173E055
:1030F0000E941CB987EF92E16BE173E00E941CB95A
:103100008EEF92E16FE173E00E941CB985E093E1DC
:1031100063E273E00E941CB982E090E166E046E25F
:1031200050E027E230E008E210E079E2E72EF12CEF
:10313000CC24DD240E9498A58CE290E16BE04CE069
:1031400022E103E1B2E0EB2E0E9435A78EE590E18B
:1031500064E072E00E941CB988E690E164E072E0ED
:103160000E941CB910927410109275101092781071
:1031700010927A1082E090E0A0E0B0E080937B10A3
:1031800090937C10A0937D10B0937E1010929210BB
:1031900010929C1010929B1082EB9FE090939A10DB
:1031A0008093991010929E1086EB90E10E94B67267
:1031B00084EE90E161E044E025E004E0A5E0EA2E41
:1031C0000E94C36D88E291E161E047E028E00E943F
:1031D000C36DFBC0892B09F0F8C06F5F7F4F09F00A
:1031E000F4C086EB90E10E94C97288E690E10E94EB
:1031F000DCB98EE590E10E94DCB985E093E10E94A4
:10320000DCB98EEF92E10E94DCB987EF92E10E9477
:10321000DCB980EF92E10E94DCB989EE92E10E9474
:10322000DCB982EE92E10E94DCB98BED92E10E9462
:10323000DCB984ED92E10E94DCB98DEC92E10E9450
:10324000DCB986EC92E10E94DCB98FEB92E10E943E
:10325000DCB988EB92E10E94DCB981EB92E10E943B
:10326000DCB98AEA92E10E94DCB983EA92E10E9429
:10327000DCB98CE992E10E94DCB985E992E10E9417
:10328000DCB98EE892E10E94DCB987E892E10E9405
:10329000DCB980E892E10E94DCB989E792E10E9402
:1032A000DCB982E792E10E94DCB98BE692E10E94F0
:1032B000DCB984E692E10E94DCB98DE592E10E94DE
:1032C000DCB986E592E10E94DCB98FE492E10E94CC
:1032D000DCB988E492E10E94DCB981E492E10E94C9
:1032E000DCB98AE392E10E94DCB983E392E10E94B7
:1032F000DCB98CE292E10E94DCB985E292E10E94A5
:10330000DCB98EE192E10E94DCB987E192E10E9492
:10331000DCB980E192E10E94DCB989E092E10E948F
:10332000DCB982E092E10E94DCB98BEF91E10E946E
:10333000DCB984EF91E10E94DCB982EF9FE00E944A
:10334000DCB98DEE91E10E94DCB986EE91E10E943C
:10335000DCB98FED91E10E94DCB988ED91E10E942A
:10336000DCB981ED91E10E94DCB98AEC91E10E9427
:10337000DCB983EC91E10E94DCB98CEB91E10E9415
:10338000DCB985EB91E10E94DCB98EEA91E10E9403
:10339000DCB987EA91E10E94DCB980EA91E10E9400
:1033A000DCB989E991E10E94DCB982E991E10E94EE
:1033B000DCB98BE891E10E94DCB98BEC9FE00E94C4
:1033C000DCB984E891E10E94DCB91F910F91FF9074
:1033D000EF90DF90CF90089580E090E06FEF7FEF67
:1033E000BDCC81E090E06FEF7FEFB8CCCF92DF9261
:1033F000EF92FF920F931F93CF93DF936C01EE2414
:10340000EA94FE2C8701C0E0D0E00BC0C601BE01EB
:103410000E947CB6482FC801B7015BDC7B018C01A0
:103420002196F60184819581C817D90778F3A80100
:1034300097012095309540955095B901CA01DF91CB
:10344000CF911F910F91FF90EF90DF90CF90089553
:103450000F931F9384E090E00E94500F8C010E9414
:10346000FA0F2DB73EB7201B310BC9011F910F91E9
:103470000895EEDF9C018091E60F9091E70F2817E9
:103480003907D1F03093E70F2093E60F89E398E1F5
:1034900060EA71E10E94B3B56091E60F7091E70FA9
:1034A00089E398E14AE050E00E94D0B489E398E1D2
:1034B0006BEF71E10C94E5B5089589E398E161ED56
:1034C00071E10C94E5B589E398E16AEC71E10C9443
:1034D000E5B5AF92BF92CF92DF92EF92FF920F933A
:1034E0001F937B018C01CA01B9010E94E3BB5B0100
:1034F0006C01C801B701A80197010E94E3BB9B01C1
:10350000AC01C601B5010E94E6B90E9450BC1F91F2
:103510000F91FF90EF90DF90CF90BF90AF90089504
:103520006F927F928F929F92AF92BF92CF92DF92D3
:10353000EF92FF920F931F937B018C0169DB5B017C
:103540006C01A8019701C5DF3B014C01E090350FEC
:10355000F090360F0091370F1091380FC801B70166
:103560000E94EDBA9B01AC01C601B5010E944BBAA5
:1035700087FD4AC080913D0F90913E0FA0913F0F73
:10358000B091400FE80EF91E0A1F1B1FC801B701BA
:103590000E94EDBA9B01AC01C601B5010E94DFBBE0
:1035A000181694F1E090390FF0903A0F00913B0F0C
:1035B00010913C0FC801B7010E94EDBA9B01AC010C
:1035C000C401B3010E944BBA87FD1EC0DD24809167
:1035D000410F9091420FA091430FB091440FE80E1C
:1035E000F91E0A1F1B1FC801B7010E94EDBA9B01FB
:1035F000AC01C401B3010E94DFBB181614F4DD2432
:10360000D39481E0D82601C0DD248D2D1F910F9128
:10361000FF90EF90DF90CF90BF90AF909F908F90F2
:103620007F906F900895AF92BF92CF92DF92EF920A
:10363000FF920F931F937B018C0159016A016091E6
:10364000DA0F7091DB0F8091DC0F9091DD0F0E94FB
:10365000EDBAA80197010E94E6B99B01AC010E9456
:10366000E3BB7B018C01C601B501A60195010E9457
:10367000E3BB9B01AC01C801B7010E94E7B90E94FE
:1036800050BC1F910F91FF90EF90DF90CF90BF90B3
:10369000AF900895AF92BF92CF92DF92EF92FF92D8
:1036A0000F931F937B018C0159016A01A8019701B7
:1036B0000E94E3BB7B018C01C601B501A601950107
:1036C0000E94E3BB9B01AC01C801B7010E94E7B9AE
:1036D0000E9450BC1F910F91FF90EF90DF90CF9010
:1036E000BF90AF9008952F923F924F925F926F924A
:1036F0007F928F929F92AF92BF92CF92DF92EF9282
:10370000FF920F931F93DF93CF9300D00F92CDB70B
:10371000DEB769837A838B839C8359016A01170121
:103720002801611571058105910559F40F2EF0E00E
:10373000EF2EF0E0FF2EF0E00F2FF0E01F2FF02D26
:10374000A4C0CA01B9010E94E3BB7B018C01C60180
:10375000B50120E030E040E050E00E944BBA882301
:1037600024F417FB109517F91095C201B101A201BD
:1037700091010E94E7B93B014C01C801B701A401C6
:1037800093010E9452BA7B018C0169817A818B81FD
:103790009C810E94EDBA9B01AC01C801B7010E9457
:1037A0004BBA8823B4F5C601B50120E030E040E013
:1037B00050E00E944BBA882329F4C401B3010E944F
:1037C00050BC0DC0C201B101A60195010E9452BAC0
:1037D0009B01AC015F77C601B5010E94E7B97B018F
:1037E0008C01D0901B0FC0901C0FB0901D0FA090AB
:1037F0001E0F2D2D3C2D4B2D5A2D0E94DFBB181670
:103800000CF043C08D2D9C2DAB2DBA2D7C018D016C
:103810003CC0C601B50120E030E040E050E00E942D
:103820004BBA882359F4C401B3010E9450BC7B01F8
:103830008C0117FB109517F910950FC0C201B1014B
:10384000A60195010E9452BA9B01AC015F77C601A7
:10385000B5010E94E6B97B018C0180911B0F90910C
:103860001C0FA0911D0FB0911E0F5C016D01D7FAC6
:10387000D094D7F8D094C801B701A60195010E9451
:103880004BBA882314F486017501B701C8010F9063
:103890000F900F900F90CF91DF911F910F91FF909C
:1038A000EF90DF90CF90BF90AF909F908F907F90E0
:1038B0006F905F904F903F902F9008958091240FCC
:1038C0008823F1F189E398E166EE71E10E94B3B5D6
:1038D00084EE90E10E940E692091190F30911A0F29
:1038E000442737FD4095542F0E945BBD89E398E142
:1038F000BA01A9012AE030E00E9480B489E398E18E
:1039000064EF71E10E94B3B588E291E10E940E6913
:103910002091190F30911A0F442737FD4095542FED
:103920000E945BBD89E398E1BA01A9012AE030E079
:103930000E9480B489E398E16BEF71E10C94E5B5E6
:103940000895EF92FF920F931F938091E20F909151
:10395000E30FA091E40FB091E50F0097A105B10529
:1039600009F03FC06091DA0F7091DB0F8091DC0F9E
:103970009091DD0F0E94EDBA7B018C016091DE0F0A
:103980007091DF0F8091E00F9091E10F0E94EDBAEE
:103990009B01AC01C801B7017DDE20E030E040E0D2
:1039A0005FE30E94E7B90E94BABA6093E20F709396
:1039B000E30F8093E40F9093E50F89E398E167E2CA
:1039C00073E00E94FFB44091E20F5091E30F6091C9
:1039D000E40F7091E50F89E398E12AE030E00E945E
:1039E000BEB46091E20F7091E30F8091E40F90916B
:1039F000E50F1F910F91FF90EF90089589E398E1F3
:103A00006EE373E00C94A2B589E398E168E272E09A
:103A10000E94ACB31092671008958F929F92AF925C
:103A2000BF92CF92DF92EF92FF920F931F936C01A0
:103A30007B0189E398E165E573E00E94FFB489E3C7
:103A400098E1B6014AE050E00E94D0B489E398E1E1
:103A50006EE573E00E94FFB489E398E1B7014AE0A4
:103A600050E00E94E2B489E398E163E673E00E94CB
:103A7000FFB46091DB107091DC1089E398E14AE0BB
:103A800050E00E94E2B489E398E163E773E00E94AA
:103A9000FFB44091D1105091D2106091D310709129
:103AA000D41089E398E12AE030E00E94BEB44601D8
:103AB000AA2497FCA094BA2C8091DB109091DC1082
:103AC000AA2797FDA095BA2F880E991EAA1EBB1E85
:103AD0000027F7FC0095102F2091D1103091D210C3
:103AE0004091D3105091D410C801B7010E94E7BC97
:103AF000860E971EA81EB91E89E398E16DE773E054
:103B00000E94FFB489E398E1B501A4012AE030E006
:103B10000E9480B48091DD109091DE10A091DF10A2
:103B2000B091E01088159905AA05BB0514F41FEFA4
:103B300018C086EB90E1B501A4010E94507386EB9A
:103B400090E10E946073182F89E398E166E873E0C2
:103B50000E94FFB489E398E1612F4AE050E00E949F
:103B600064B4812F1F910F91FF90EF90DF90CF9061
:103B7000BF90AF909F908F9008950F931F93CF9316
:103B8000DF93EC018B0189E398E165E973E00E9422
:103B9000FFB489E398E1BE014AE050E00E94D0B44E
:103BA00089E398E168E973E00E94FFB489E398E152
:103BB000B8014AE050E00E94E2B480916C1190E0BC
:103BC000C817D9079CF080916E1190E08C179D0763
:103BD0006CF080916D1190E0081719073CF080910E
:103BE0006F1190E0801791070CF083C080917011E5
:103BF00090E0C817D907A4F08091721190E08C175B
:103C00009D0774F08091711190E00817190744F036
:103C100080916F1190E08017910714F082E06AC0E4
:103C20008091741190E0C817D907A4F080917611A3
:103C300090E08C179D0774F08091751190E0081743
:103C4000190744F08091771190E08017910714F0E4
:103C500083E050C08091781190E0C817D907A4F094
:103C600080917A1190E08C179D0774F08091791102
:103C700090E00817190744F080917B1190E08017BD
:103C8000910714F084E036C080917C1190E0C81751
:103C9000D907A4F080917E1190E08C179D0774F0F5
:103CA00080917D1190E00817190744F080917F11F1
:103CB00090E08017910714F085E01CC0809180117E
:103CC00090E0C817D907A4F08091821190E08C177A
:103CD0009D0774F08091811190E00817190744F056
:103CE0008091831190E08017910714F086E002C064
:103CF00001C081E0DF91CF911F910F9108956F92E4
:103D00007F928F929F92AF92BF92CF92DF92EF926B
:103D1000FF920F931F93DF93CF93CDB7DEB7A39797
:103D20000FB6F894DEBF0FBECDBF6DB67EB686EB84
:103D300090E140E050E060E070E00E9450737E014E
:103D40000894E11CF11CC7016DE973E00E941CB9E5
:103D500086EB90E10E946073182FC70160E070E06D
:103D60000E948DB6FC01108386EB90E10E94607387
:103D7000182FC70161E070E00E948DB6FC0110832E
:103D8000C70160EA73E00E94B5B7882399F489E31C
:103D900098E163EA73E00E94FFB489E398E1B70118
:103DA0000E94B3B589E398E161EC73E00E94A2B58B
:103DB00010E083C189E398E16CED73E00E94A2B545
:103DC00086EB90E10E9460738E01085F1F4FC8016F
:103DD00064E072E00E941CB986EB90E10E9460737F
:103DE000E82E8FE0C82ED12CCC0EDD1EF02E012F38
:103DF00021C083E2E81641F486EB90E10E946073F3
:103E0000E82E9AE0E916C1F7C6016F2D702F0E94C7
:103E1000D3B9C6016E2D0E94DAB8BC018F2D902F48
:103E20000E94B5B9C6010E94E1B986EB90E10E94FB
:103E30006073E82E8AE0E81619F090E2E916C9F6F8
:103E400089E398E162E074E00E94FFB418E0E12E9B
:103E5000F12CEC0EFD1E89E398E1B7010E94E5B557
:103E60004C855D854F5F5F4F8DB79EB7841B950B6B
:103E70000FB6F8949EBF0FBE8DBF0DB71EB70F5F74
:103E80001F4F902E812EB02EA12EC701B80120E029
:103E900030E00E9466B7C8010E948211AA2797FDF0
:103EA000A095BA2F8093D1109093D210A093D310E5
:103EB000B093D4100A97A105B10544F489E398E1C1
:103EC00060ED71E00E94ACB310E0F3C0C70164E0A4
:103ED00072E00E944EB986EB90E10E946073182F49
:103EE000B6E1CB2ED12CCC0EDD1EC701FE2C092F46
:103EF0001FC0133239F486EB90E10E946073182FD3
:103F00008A30C9F7C6016F2D702F0E94D3B9C60140
:103F1000612F0E94DAB8BC018F2D902F0E94B5B995
:103F2000C6010E94E1B986EB90E10E946073182FF0
:103F30001A30F9F689E398E16DE074E00E94FFB46D
:103F4000A8E0CA2ED12CCC0EDD1E89E398E1B60183
:103F50000E94E5B54C855D854F5F5F4FC6016B2DB7
:103F60007A2D20E030E00E9466B7892D982D0E94BE
:103F70008211AA2797FDA095BA2F8093D510909310
:103F8000D610A093D710B093D810BC01CD010E94D9
:103F9000EDBA7B018C016091D1107091D2108091AB
:103FA000D3109091D4100E94EDBA9B01AC01C801CE
:103FB000B7010E9452BA6093510F7093520F8093D1
:103FC000530F9093540F89E398E169E174E00E94E4
:103FD000FFB44091510F5091520F6091530F709167
:103FE000540F89E398E122E030E00E9491B5C601C8
:103FF00064E072E00E944EB986EB90E10E9460732B
:10400000182F0D2DFDE1EF2EF12CEC0EFD1E16C02C
:10401000C7016C2D702F0E94D3B9C701612F0E9478
:10402000DAB8BC018C2D902F0E94B5B9C7010E944F
:10403000E1B986EB90E10E946073182F1A3041F7C6
:1040400089E398E16BE274E00E94FFB489E398E1B0
:104050006C2D702F0E94E5B54C855D854F5F5F4FDD
:104060008C2D902F6B2D7A2D20E030E00E9466B7CA
:10407000892D982D0E9482119093DA108093D91087
:1040800086EB90E10E940B737093DC106093DB1061
:1040900089E398E16FE374E00E94FFB46091DB1064
:1040A0007091DC1089E398E14AE050E00E94E2B4AC
:1040B00011E0CE0108960E94DCB9CE0101960E9463
:1040C000DCB9812F0FB6F8947EBE0FBE6DBEA396ED
:1040D0000FB6F894DEBF0FBECDBFCF91DF911F9119
:1040E0000F91FF90EF90DF90CF90BF90AF909F9097
:1040F0008F907F906F900895EF92FF920F931F9390
:10410000DF93CF93CDB7DEB7FC01EDB6FEB64481A9
:1041100055814F5F5F4F8DB79EB7841B950B0FB6D0
:10412000F8949EBF0FBE8DBF0DB71EB70F5F1F4F18
:10413000CF01B80120E030E00E9466B7C8010E94BC
:1041400082110FB6F894FEBE0FBEEDBECF91DF9187
:104150001F910F91FF90EF900895EF92FF920F93B0
:104160001F93DF93CF93CDB7DEB727970FB6F894A1
:10417000DEBF0FBECDBF8E010F5F1F4FC8016EEABD
:1041800071E10E94CAB9C801B7DF7C01C8010E9471
:10419000DCB9EF2819F410925D100EC08091651003
:1041A000882321F081E080935D1006C089E398E1C7
:1041B0006DE474E00E94A2B527960FB6F894DEBFB6
:1041C0000FBECDBFCF91DF911F910F91FF90EF9068
:1041D00008950F931F93DF93CF93CDB7DEB72E973C
:1041E0000FB6F894DEBF0FBECDBF8E010F5F1F4F1D
:1041F000C8016EEA71E10E94CAB9C8017DDF9093DF
:10420000720F8093710FC8010E94DCB98E01085FA4
:104210001F4FC80165EB71E10E94CAB9C8016CDF8C
:104220009093700F80936F0FC8010E94DCB92E9697
:104230000FB6F894DEBF0FBECDBFCF91DF911F91B7
:104240000F910895EF92FF920F931F93DF93CF93F7
:10425000CDB7DEB76B970FB6F894DEBF0FBECDBFFC
:10426000FC01EDB6FEB6448155814F5F5F4F8DB7BF
:104270009EB7841B950B0FB6F8949EBF0FBE8DBFE3
:104280000DB71EB70F5F1F4FCF01B80120E030E020
:104290000E9466B7CE0101966EEA73E1A80121E0A3
:1042A0000E9459768B819C819093B9108093B810AD
:1042B0008D819E81AF81B8858093BA109093BB1099
:1042C000A093BC10B093BD1089859A85AB85BC8541
:1042D0008093BE109093BF10A093C010B093C110F4
:1042E000A2ECB0E1FE013D968DE001900D9281506F
:1042F000E1F78A8D9B8D9093D0108093CF10CE01E3
:1043000001960E94C97286EB90E10E943173882366
:1043100029F489E398E161E774E007C0F0DC8823C1
:1043200041F489E398E162E874E00E94A2B580E07C
:104330000DC086EB90E10E941E736093DD107093B8
:10434000DE108093DF109093E01081E00FB6F894B8
:10435000FEBE0FBEEDBE6B960FB6F894DEBF0FBE6D
:10436000CDBFCF91DF911F910F91FF90EF900895F6
:10437000AF92BF92CF92DF92EF92FF920F931F9373
:10438000DF93CF93CDB7DEB76B970FB6F894DEBF50
:104390000FBECDBF6C01ADB6BEB640916C10509152
:1043A0006D104F5F5F4F8DB79EB7841B950B0FB697
:1043B000F8949EBF0FBE8DBF0DB71EB70F5F1F4F86
:1043C00088E690E1B80120E030E00E9466B77E0107
:1043D0000894E11CF11CC7016EEA73E1A80123E116
:1043E0000E945976C7010E9431738823D1F089E376
:1043F00098E16AE874E00E94FFB489E398E168E616
:1044000070E10E94E5B5C701B6010E94E5B5C7019C
:104410000E943E7389E398E16BE974E00E94A2B5C3
:104420000CC089E398E161EA74E00E94FFB489E37B
:1044300098E168E670E10E94E5B5CE0101960E9420
:10444000C9720FB6F894BEBE0FBEADBE6B960FB666
:10445000F894DEBF0FBECDBFCF91DF911F910F91BA
:10446000FF90EF90DF90CF90BF90AF900895EF92C4
:10447000FF920F931F9385E361E00E94A8AD8EEA3F
:1044800093E165E30E947977882329F489E398E131
:1044900060EB74E06AC089E398E16CEC74E00E9420
:1044A000A2B589E398E16EED74E00E94A2B58FE6B3
:1044B00090E161E045E30E94CF798823B9F489E374
:1044C00098E166EF74E00E94A2B589E398E16EE19D
:1044D00075E00E94A2B589E398E167E375E00E9468
:1044E000A2B589E398E161E575E03FC089E398E111
:1044F00065E975E00E94A2B589E398E16EEB75E08D
:104500000E94FFB480917A10823049F0833061F0CC
:10451000813079F489E398E16BEC75E00EC089E3B2
:1045200098E16FEC75E009C089E398E163ED75E00F
:1045300004C089E398E168ED75E00E94A2B58BE7BD
:1045400090E16FE670E141E00E94F984882381F4F4
:104550008BE790E16FE670E140E00E94F9848823E8
:1045600039F489E398E160EE75E00E94A2B574C069
:1045700089E398E16AE276E00E94FFB489E398E17A
:10458000609192104AE050E00E9464B489E398E19F
:104590000E948CB320917F1030E040E050E06091A9
:1045A0008410709185108091861090918710E9E0B9
:1045B000660F771F881F991FEA95D1F70E94E7BC05
:1045C0007B018C0189E398E16EE376E00E94FFB401
:1045D00089E398E1B801A7012AE030E00E9442B4E3
:1045E00089E398E164E576E00E94FFB42AE016953D
:1045F0000795F794E7942A95D1F789E398E1B801F4
:10460000A7012AE030E00E9442B489E398E16BE61A
:1046100076E00E94FFB49AE016950795F794E79428
:104620009A95D1F789E398E1B801A7012AE030E033
:104630000E9442B489E398E162E876E00E94A2B564
:1046400089E990E16BE770E10E940E7F89E990E1D2
:1046500067E040E00E9408801F910F91FF90EF906B
:104660000895AF92BF92CF92DF92EF92FF920F9395
:104670001F9384EE90E10E94546F88E291E10E94C2
:10468000546F84EE90E10E94FE686115710581050A
:10469000910509F048C06091350F7091360F8091F7
:1046A000370F9091380F20913D0F30913E0F409180
:1046B0003F0F5091400F260F371F481F591F0E9470
:1046C0005FB65B016C016091390F70913A0F809178
:1046D0003B0F90913C0F2091410F3091420F409140
:1046E000430F5091440F260F371F481F591F0E9438
:1046F0005FB67B018C01C601B5010E94EDBA5B017A
:104700006C01C801B7010E94EDBA9B01AC01C60162
:10471000B5010E944A1B0E94BABAAB01BC0184EEEB
:1047200090E10E94936A88E291E10E94FE6861151F
:1047300071058105910509F048C06091350F7091B0
:10474000360F8091370F9091380F20913D0F3091A7
:104750003E0F40913F0F5091400F260F371F481FCB
:10476000591F0E945FB65B016C016091390F709117
:104770003A0F80913B0F90913C0F2091410F309167
:10478000420F4091430F5091440F260F371F481F8F
:10479000591F0E945FB67B018C01C601B5010E94C2
:1047A000EDBA5B016C01C801B7010E94EDBA9B0133
:1047B000AC01C601B5010E94131B0E94BABAAB013D
:1047C000BC0188E291E10E94936A1F910F91FF90D2
:1047D000EF90DF90CF90BF90AF900895EF92FF924F
:1047E0000F931F93CF93DF93C0E0D0E089E398E16C
:1047F0006CEB76E00E94FFB489E398E1BE014AE0E9
:1048000050E00E94E2B484EE90E10E94FE686115DF
:1048100071058105910509F469C088E291E10E9462
:10482000FE68611571058105910509F45FC084EE8C
:1048300090E10E94546F88E291E10E94546FE3CFAF
:104840006EEF7FEF8FEF9FEF23E030E040E050E02E
:104850000E945FB67B018C01A701662757FD60951A
:10486000762F84EE90E10E94A46A89E398E165ECDA
:1048700076E00E94FFB489E398E1B7014AE050E096
:104880000E94E2B488E291E10E94FE686115710520
:104890008105910511F56EEF7FEF8FEF9FEF23E01C
:1048A00030E040E050E00E945FB67B018C01A70140
:1048B000662757FD6095762F88E291E10E94A46AF1
:1048C00089E398E16BED76E00E94FFB489E398E11B
:1048D000B7014AE050E00E94E2B40E945E1C2196BB
:1048E00083E0C83ED80709F081CF0AC084EE90E18A
:1048F0000E94FE68611571058105910519F6A0CF2A
:10490000DF91CF911F910F91FF90EF900895AF929B
:10491000BF92CF92DF92EF92FF920F931F93CF93AC
:10492000DF93EC015B016A0187EC9FE069E070E0D6
:104930000E942871CA15DB059CF476010027F7FC5C
:104940000095102F87EC9FE0BE010E941170C801F6
:10495000B7010E94E3AC2196AC16BD069CF712C0CD
:1049600076010027F7FC0095102F87EC9FE0BE0131
:104970000E941170C801B7010E94E3AC2197CA15CB
:10498000DB059CF787EC9FE00E94A56FDF91CF913C
:104990001F910F91FF90EF90DF90CF90BF90AF905D
:1049A0000895EF92FF920F931F93DF93CF93CDB7AC
:1049B000DEB727970FB6F894DEBF0FBECDBF80914C
:1049C000E80F9091E90F2091CA0F029714F122236A
:1049D00029F0E0901613F090171304C0E090780FC0
:1049E000F090790F8E010F5F1F4FC8016EEA71E1E1
:1049F0000E94CAB9C80180DB9093790F8093780F29
:104A0000C8010E94DCB96091780F7091790FC701DD
:104A10000AC0213059F46091780F7091790F80911C
:104A200016139091171343E050E071DF1092CA0FF4
:104A300027960FB6F894DEBF0FBECDBFCF91DF91A2
:104A40001F910F91FF90EF900895EF92FF920F93B7
:104A50001F93DF93CF93CDB7DEB727970FB6F894A8
:104A6000DEBF0FBECDBF8091E80F9091E90F20917E
:104A7000CA0F029714F1222329F0E0901613F09048
:104A8000171304C0E090780FF090790F8E010F5F3C
:104A90001F4FC8016EEA71E10E94CAB9C8012CDB40
:104AA0009093171380931613C8010E94DCB960918C
:104AB000161370911713C7010AC0222359F460918D
:104AC0001613709117138091780F9091790F43E02E
:104AD00050E01DDF81E08093CA0F27960FB6F8944F
:104AE000DEBF0FBECDBFCF91DF911F910F91FF9021
:104AF000EF900895EF92FF920F931F93182F02E00B
:104B0000E02E00E1F02EC70162E344EB22E30E94B5
:104B1000E48C212F30E08CE691E1F901EE0FFF1FCC
:104B2000E80FF91F608141812F5F3F4FF901EE0FC0
:104B3000FF1FE80FF91F20810181C70170E050E0DD
:104B400030E010E00E949F8DC70162E344EB22E356
:104B50000E94E98CC7016FEF4FEF2FEF0E94E48CAA
:104B60001F910F91FF90EF9008958F929F92AF92B7
:104B7000BF92CF92DF92EF92FF920F931F93DF933A
:104B8000CF93CDB7DEB727970FB6F894DEBF0FBE31
:104B9000CDBF4C0192E0C92E90E1D92EC60160E054
:104BA00040E020E00E94E48C40916F1150E08CE6E0
:104BB000A82E81E1B82EF50160818A01085E1F4FA1
:104BC000C60170E0465F5F4F2CED30E00E949F8D84
:104BD000C6016FEF4FEF2FEF0E94E48CC60160E03B
:104BE00040E020E00E94E98C7E010894E11CF11C69
:104BF000C701B4010E94CAB9F501408120916F112B
:104C000030E0265F3F4FC601B70150E000E010E002
:104C10000E948F94C7010E94DCB927960FB6F894C2
:104C2000DEBF0FBECDBFCF91DF911F910F91FF90DF
:104C3000EF90DF90CF90BF90AF909F908F900895AE
:104C40002F923F924F925F926F927F928F929F929C
:104C5000AF92BF92CF92DF92EF92FF920F931F938A
:104C6000DF93CF93CDB7DEB7E0970FB6F894DEBFF2
:104C70000FBECDBF4C015B0158AB4FA789E398E154
:104C800061EF76E00E94FFB489E398E1B5010E94EC
:104C9000E5B589E398E16CE077E00E94A2B5109257
:104CA0009F101092A0101092A1101092A2101092BA
:104CB000A3101092A4101092A5101092A6108E01AD
:104CC0000F5F1F4FC8016EE177E00E941CB9C5015C
:104CD00064E072E00E94B5B7882341F4C501B801D1
:104CE0000E940BB8882311F477246CC07724739446
:104CF00069C08F85882309F47DC0853E09F472C0A0
:104D00008E3209F46FC08A8D83FD6CC0C6016EE1DE
:104D100077E00E941CB9710100E010E0D7018C918E
:104D20008032C9F0083041F4C60168E070E00E94AA
:104D30008DB6FC01608202C0083028F0B8016F5FB8
:104D40007F4FC60102C0C601B8010E948DB6FC01AA
:104D5000D7018C9180830F5F1F4F0894E11CF11CD9
:104D60000B301105D9F6EFA5F8A91E161F069CF405
:104D7000772041F089E398E1B6010E94E5B5C401CE
:104D8000B60111C0C601B5010E940BB88823B1F06D
:104D90007724739413C0C601B5010E940BB8882311
:104DA00049F0C401B2010E94CAB9CE0108960E941E
:104DB000DCB924C0C201B6010E94B5B9C6010E9487
:104DC000DCB910C04FE0242E312C2C0E3D1E38E0F3
:104DD000C32ED12CCC0EDD1E2EE2622E2E010894A5
:104DE000411C511C89E990E1B1010E94307E1816E6
:104DF0000CF47FCFC401B5010E94CAB9CE0101965F
:104E00000E94DCB9C401E0960FB6F894DEBF0FBE75
:104E1000CDBFCF91DF911F910F91FF90EF90DF9069
:104E2000CF90BF90AF909F908F907F906F905F904A
:104E30004F903F902F900895EF92FF920F931F9302
:104E4000DF93CF93CDB7DEB727970FB6F894DEBFC9
:104E50000FBECDBF82E090E160E040E020E00E9424
:104E6000E48C40916F1150E060916C118A01085EF2
:104E70001F4F82E090E170E0465F5F4F2CED30E025
:104E80000E949F8D82E090E16FEF4FEF2FEF0E9425
:104E9000E48C82E090E160E040E020E00E94E98C58
:104EA00088E690E164E072E00E94B5B7882341F49F
:104EB00088E690E16EE177E00E94B5B7882389F03B
:104EC00040916C1120916F1130E0265F3F4F82E0DE
:104ED00090E16BE277E050E000E010E00E94449146
:104EE0001BC07E010894E11CF11CC70168E670E15B
:104EF0000E94CAB940916C1120916F1130E0265F79
:104F00003F4F82E090E1B70150E000E010E00E94E6
:104F10008F94C7010E94DCB927960FB6F894DEBFC4
:104F20000FBECDBFCF91DF911F910F91FF90EF90FA
:104F300008950F931F9390E0FC013197E432F1053F
:104F400008F0A7C5EE58FF4FEE0FFF1F0590F49134
:104F5000E02D199480E0CEDD8091600F869590E081
:104F600040916C1150E04A505040480F591F209119
:104F70006D1130E02C503040280F391F82E090E155
:104F800060E377E000E010E00E9444912091600F20
:104F9000269530E040916C1150E04E505040420F49
:104FA000531F80916D11280F311D82E090E164E361
:104FB00077E06DC580E09EDD8091600F869590E082
:104FC00040916C1150E046515040480F591F2091BC
:104FD0006D1130E02C503040280F391F82E090E1F5
:104FE00069E377E000E010E00E9444912091600FB7
:104FF000269530E040916C1150E046505040420FF1
:10500000531F80916D11280F311D82E090E160E403
:1050100077E03DC580E06EDD8091600F869590E081
:1050200040916C1150E046515040480F591F20915B
:105030006D1130E02C503040280F391F82E090E194
:1050400069E377E000E010E00E9444912091600F56
:10505000269530E040916C1150E04A505040420F8C
:10506000531F80916D11280F311D82E090E163E4A0
:1050700077E00DC582E03EDD8091600F869590E07F
:105080004091701150E04E505040480F591F2091F0
:10509000711130E022513040280F391F82E090E139
:1050A00067E477E000E010E00E9444918091600F97
:1050B000869590E04091701150E04E505040480F5E
:1050C000591F2091711130E026503040280F391FB0
:1050D00082E090E16CE477E00E9444918091600F5F
:1050E000869590E04091701150E046505040480F36
:1050F000591F2091711130E02A5F3F4F280F391F4F
:1051000082E090E161E577E0C2C484E0F3DC809165
:10511000600F869590E04091741150E04E505040E1
:10512000480F591F2091751130E026503040280F4C
:10513000391F82E090E164E577E048C384E0DADC7F
:105140008091600F869590E04091741150E042513B
:105150005040480F591F2091751130E02C503040BD
:10516000280F391F82E090E169E577E000E010E068
:105170000E9444912091600F269530E04091741177
:1051800050E042515040420F531F80917511280F3B
:10519000311D82E090E16FE577E079C486E0AADC1A
:1051A0008091600F869590E04091781150E04251D7
:1051B0005040480F591F2091791130E0265030405F
:1051C000280F391F82E090E165E677E0FFC286E0B4
:1051D00091DC8091600F869590E04091781150E0CD
:1051E00046515040480F591F2091791130E0265008
:1051F0003040280F391F82E090E16BE677E0E6C28D
:1052000084E078DC8091600F869590E04091741185
:1052100050E042515040480F591F2091751130E025
:1052200026503040280F391F82E090E162E777E096
:10523000CDC288E05FDC8091600F869590E0409160
:105240007C1150E04A505040480F591F20917D1169
:1052500030E02C503040280F391F82E090E168E7A1
:1052600077E000E010E00E9444912091600F2695C5
:1052700030E040917C1150E046505040420F531FA7
:1052800080917D11280F311D82E090E16CE777E07D
:10529000FEC388E02FDC8091600F869590E04091FE
:1052A0007C1150E04A505040480F591F20917D1109
:1052B00030E02C503040280F391F82E090E168E741
:1052C00077E000E010E00E9444912091600F269565
:1052D00030E040917C1150E04E505040420F531F3F
:1052E00080917D11280F311D82E090E16FE777E01A
:1052F000CEC382E0FFDB8091600F869590E0409105
:10530000701150E04C505040480F591F20917111BE
:1053100030E02C503040280F391F82E090E164E8E3
:1053200077E000E010E00E9444912091600F269504
:1053300030E04091701150E04C505040420F531FEC
:105340008091711129C088E0D5DB8091600F86952E
:1053500090E040917C1150E04C505040480F591F54
:1053600020917D1130E02C503040280F391F82E011
:1053700090E16EE877E000E010E00E944491209117
:10538000600F269530E040917C1150E04C50504029
:10539000420F531F80917D11280F311D78C086E088
:1053A000A9DB8091600F869590E04091781150E0E4
:1053B0004E505040480F591F2091791130E026502F
:1053C0003040280F391F82E090E163E977E0FEC1A9
:1053D0008AE090DB8091600F869590E0409180118B
:1053E00050E04E505040480F591F2091811130E03D
:1053F00022513040280F391F82E090E167E477E0C6
:1054000018C08AE077DB8091600F869590E040912C
:10541000801150E04E505040480F591F209181118B
:1054200030E022513040280F391F82E090E16DE9D1
:1054300077E000E010E00E9444918091600F869533
:1054400090E04091801150E04E505040480F591F5D
:105450002091811130E026503040280F391F82E022
:1054600090E168E977E00E9444918091600F869511
:1054700090E04091801150E04E505040480F591F2D
:105480002091811130E02A5F3F4F280F391F82E0C1
:1054900090E169E877E0FBC28AE02CDB8091600F45
:1054A000869590E04091801150E04E505040480F5A
:1054B000591F2091811130E02C503040280F391FA6
:1054C00082E090E164E577E000E010E00E94449122
:1054D0002091600F269530E04091801150E04A50B5
:1054E0005040420F531F80918111280F311D82E0DF
:1054F00090E162EA77E0CBC282E0FCDA8091600F53
:10550000869590E04091701150E04A505040480F0D
:10551000591F2091711130E02C503040280F391F55
:1055200082E090E166EA77E000E010E00E944491BA
:105530002091600F269530E04091701150E042516B
:105540005040420F531F80917111B7C188E0D2DAE9
:105550008091600F869590E040917C1150E04A5018
:105560005040480F591F20917D1130E02C503040A1
:10557000280F391F82E090E160EB77E08DC184E075
:10558000B9DA8091600F869590E04091741150E0F7
:105590004A505040480F591F2091751130E02C504F
:1055A0003040280F391F82E090E166EA77E000E0A2
:1055B00010E00E9444912091600F269530E04091C8
:1055C000741150E042515040420F531F80917511A9
:1055D00029C08AE08FDA8091600F869590E0409133
:1055E000801150E04A505040480F591F20918111BE
:1055F00030E02C503040280F391F82E090E160EB02
:1056000077E000E010E00E9444912091600F269521
:1056100030E04091801150E042515040420F531F02
:1056200080918111280F311D82E090E164EB77E0D9
:105630002EC282E05FDA8091600F869590E0409103
:10564000701150E04A505040480F591F209171117D
:1056500030E02C503040280F391F82E090E166EA9C
:1056600077E000E010E00E9444912091600F2695C1
:1056700030E04091701150E040515040420F531FB4
:105680008091711129C088E035DA8091600F86958C
:1056900090E040917C1150E04A505040480F591F13
:1056A00020917D1130E02C503040280F391F82E0CE
:1056B00090E160EB77E000E010E00E9444912091DF
:1056C000600F269530E040917C1150E040515040F1
:1056D000420F531F80917D11280F311D82E090E110
:1056E0006AEB77E0D4C184E005DA8091600F86959B
:1056F00090E04091741150E04A505040480F591FBB
:105700002091751130E022513040280F391F82E07E
:1057100090E166EA77E075C08AE0ECD98091600F8D
:10572000869590E04091801150E04A505040480FDB
:10573000591F2091811130E022513040280F391F2C
:1057400082E090E160EB77E000E010E00E9444919D
:105750008091600F869590E04091801150E04A5012
:105760005040480F591F2091811130E026503040A1
:10577000280F391F82E090E168E777E00E944491AA
:105780008091600F869590E04091801150E04E50DE
:105790005040480F591F209181115CC086E0AAD962
:1057A0008091600F869590E04091781150E04251D1
:1057B0005040480F591F2091791130E02650304059
:1057C000280F391F82E090E164EC77E000E010E000
:1057D0005EC184E08FD98091600F869590E0409102
:1057E000741150E04A505040480F591F20917511D4
:1057F00030E022513040280F391F82E090E169ECFF
:1058000077E000E010E00E9444918091600F86955F
:1058100090E04091741150E04A505040480F591F99
:105820002091751130E026503040280F391F82E05A
:1058300090E168E777E00E9444918091600F86953F
:1058400090E04091741150E04E505040480F591F65
:105850002091751130E02A5F3F4F280F391F82E0F9
:1058600090E16FEB77E013C188E044D98091600F3D
:10587000869590E040917C1150E04A505040480F8E
:10588000591F20917D1130E02C503040280F391FD6
:1058900082E090E169EC77E000E010E00E94449142
:1058A0002091600F269530E040917C1150E04251EC
:1058B0005040420F531F80917D11280F311D82E00F
:1058C00090E16AEA77E0E3C082E014D98091600F4A
:1058D000869590E04091701150E04A505040480F3A
:1058E000591F2091711130E02C503040280F391F82
:1058F00082E090E169EC77E000E010E00E944491E2
:105900002091600F269530E04091701150E04A5090
:105910005040420F531F80917111280F311D82E0BA
:1059200090E16DEC77E0B3C082E0E4D88091600F45
:10593000869590E04091701150E04A505040480FD9
:10594000591F2091711130E02C503040280F391F21
:1059500082E090E166EA77E000E010E00E94449186
:105960002091600F269530E04091701150E04A5030
:105970005040420F531F8091711129C088E0BAD85E
:105980008091600F869590E040917C1150E04A50E4
:105990005040480F591F20917D1130E02C5030406D
:1059A000280F391F82E090E160EB77E000E010E023
:1059B0000E9444912091600F269530E040917C1127
:1059C00050E04A505040420F531F80917D11280FE4
:1059D000311D82E090E161ED77E059C084E08AD822
:1059E0008091600F869590E04091741150E04A508C
:1059F0005040480F591F2091751130E02C50304015
:105A0000280F391F82E090E166EA77E000E010E0BD
:105A10000E9444912091600F269530E040917411CE
:105A200050E04A505040420F531F8091751129C0D9
:105A30008AE060D88091600F869590E04091801157
:105A400050E04A505040480F591F2091811130E0DA
:105A50002C503040280F391F82E090E160EB77E056
:105A600000E010E00E9444912091600F269530E004
:105A70004091801150E04A505040420F531F809196
:105A80008111280F311D82E090E165ED77E00E94E1
:105A900044911F910F9108956F927F928F929F92E0
:105AA000AF92BF92CF92DF92EF92FF920F931F932C
:105AB0006C015B0139014A01F2E0EF2EF0E1FF2EAB
:105AC000C70160E040E020E00E94E48C8091600F1C
:105AD0009601280F311D85010C5E1F4FC701B601CD
