:100000000C940A100C9425C30C9456C30C9487C30B
:100010000C94B8C30C94E9C30C941AC40C944BC44C
:100020000C947CC40C9437100C9437100C9437103B
:100030000C9437100C9437100C9437100C94371024
:100040000C9437100C94DB790C9437100C94371007
:100050000C9437100C9437100C9437100C94ADC4DA
:100060000C9437100C9403C70C9447C80C943710A9
:100070000C9437100C9437100C9437100C943710E4
:100080000C94AE790C9437100C9437100C943710F4
:100090000C9443C70C9486C80C9437100C943710FA
:1000A0000C9437100C9437100C9481790C94371001
:1000B0000C9437100C9437100C9437100C9454791E
:1000C0000C9437100C9437100C9437100C9483C791
:1000D0000C94C5C80C9437100C94C3C70C9404C975
:1000E0000C943710792A182B692BB92BD42BEF2BB2
:1000F0000A2C3F2CBD2D8E2DA32C742CA730A7309D
:10010000D22CED2CA730072ED82D042F0B30DC2F4E
:1001100070304030BB2EA02E6B2E3C2E722F212F24
:10012000A72FAE2AE32A082D592D842B17464449C0
:100130001A461E46444923462B4633466046144819
:100140003C48444944496448C74744498F46BC46F3
:100150007B488C48B748E5481049EB4613475B4756
:1001600083477548734877480F46134605487948D2
:100170003E49AC96CC96F3966C976C976C97099722
:100180009F97AC969F972C979F973B973B97599734
:100190005997F3966C976C97F3963B979F976C974C
:1001A00084979F979F979F97CDA068A285A37BA4D4
:1001B000B8A5B8A593A7FBA80AAE08AA62ABCFABB7
:1001C00097AFA0B051B251B285A351B351B385A33B
:1001D00073B1ACB44DA675B544B64CB871B796B909
:1001E0003CB996B9A3B9A3B996B9BDB94FB93CB951
:1001F0005CB969B996B972B977B9A3B996B984B936
:10020000A3B996B9A3B977B9B0B996B9BDB95CB974
:10021000CFB9E3B97FBB25BB7FBB8CBB8CBB7FBB9E
:10022000A6BB38BB25BB45BB52BB7FBB5BBB60BB22
:100230008CBB7FBB6DBB8CBB7FBB8CBB60BB99BBDE
:100240007FBBA6BB45BBB8BBCCBB05A84CCDB2D4CD
:100250004EB93836A9020C50B9918688083CA6AA36
:10026000AA2ABE000000803F000000006410B71DF5
:10027000C8206E3BAC30D9269041DC76F4516B6BD4
:100280005861B24D3C7105502083B8ED44930FF096
:10029000E8A3D6D68CB361CBB0C2649BD4D2D3864C
:1002A00078E20AA01CF2BDBD50424D20696D616725
:1002B00065206D757374206265206174206C6561C2
:1002C000737420313020706978656C7320776964AD
:1002D000652E002C206D61782064656E73697479D9
:1002E0003A20002C2070656E2077696474683A208B
:1002F0000050656E776964746820746573742000BB
:100300004368616E67696E67206261636B20746F1A
:10031000206C697665206D6F64652E0046696C659A
:100320002072656D6F7665642E0046696C6520618C
:100330006C7265616479206578697374732E004509
:100340007865637574696E6720636F6D6D616E6447
:100350003A0053746F72696E6720636F6D6D616EE2
:10036000643A006D6D004368616E67656420506596
:100370006E20776964746820746F20004E65772062
:10038000616363656C65726174696F6E3A20004EDB
:100390006577206D61782073706565643A2000553B
:1003A000703A2000446F776E3A2000504753504512
:1003B00045442C0050474C4946542C005047535458
:1003C00045504D554C5449504C4945522C005047CE
:1003D00053544550535045525245562C0050474DAA
:1003E0004D5045525245562C00504753495A452CC2
:1003F0000050474E414D452C002900526563616C09
:1004000063207061676548656967687420696E205C
:1004100073746570732028002900526563616C63F2
:100420002070616765576964746820696E20737411
:100430006570732028002900292C2073746570735F
:100440005065724D4D202800526563616C63206DCC
:100450006D506572537465702028004C6F6164653F
:1004600064206D6F746F722073746570206D756C8D
:100470007469706C6965723A004C6F6164656420E0
:100480006D616368696E65206E616D653A004C6FE1
:100490006164656420757020706F733A004C6F6101
:1004A00064656420646F776E20706F733A004C6FE0
:1004B00061646564206D6F746F722073746570730E
:1004C00020706572207265763A004C6F61646564D5
:1004D000206D6D20706572207265763A004C6F61F8
:1004E000646564206D616368696E6520686569672D
:1004F00068743A004C6F61646564206D616368697B
:100500006E652077696474683A002069736E277499
:10051000206120636F6D6D616E6420492072656398
:100520006F676E6973652E00536F7272792C2000AD
:1005300029206E6F74207061727365642E00436FA2
:100540006D6D616E64202800436865636B73756D23
:10055000206E6F74206D617463686564213A004990
:1005600020676F7420007600504F4C415247524133
:100570005048204F4E21007C3C3E5E2B3D3F2F5B80
:100580005D3B2C2A225C00080C205F00000000006C
:10059000000000000000000000202020202020009B
:1005A0002000000028505000000000000000000063
:1005B000002828FC2850FC50500000002078A8A0FB
:1005C000603028A8F02000000048A8B0502834541B
:1005D000480000000020505078A8A8906C0000004F
:1005E00040408000000000000000000004081010DF
:1005F00010101010080400004020101010101010EF
:1006000020400000000020A87070A820000000001A
:1006100000202020F8202020000000000000000022
:10062000000000004040800000000000F8000000D2
:10063000000000000000000000000000400000007A
:100640000810101020204040408000000070888872
:1006500088888888700000000020602020202020EA
:10066000700000000070888810204080F8000000B2
:1006700000708808300808887000000000103050B2
:10068000509078101800000000F88080F00808886A
:100690007000000000709080F08888887000000072
:1006A00000F8901020202020200000000070888892
:1006B00070888888700000000070888888780848F2
:1006C000700000000000002000000000200000007A
:1006D000000000002000000020200000040810207E
:1006E0004020100804000000000000F80000F8009E
:1006F0000000000040201008040810204000000006
:100700000070888810202000200000000070889869
:10071000A8A8B88078000000002020305050784809
:10072000CC00000000F0484870484848F000000045
:1007300000788880808080887000000000F0484841
:1007400048484848F000000000F8485070504048C1
:10075000F800000000F8485070504040E0000000F1
:1007600000384880809C88483000000000CC484811
:1007700078484848CC00000000F8202020202020A5
:10078000F8000000007C10101010101090E0000025
:1007900000EC485060505048EC00000000E0404041
:1007A00040404044FC00000000D8D8D8D8A8A8A8F1
:1007B000A800000000DC486868585848E8000000BD
:1007C00000708888888888887000000000F0484899
:1007D00070404040E0000000007088888888E898F9
:1007E0007018000000F0484870504848EC000000C5
:1007F0000078888060100888F000000000F8A820C9
:10080000202020207000000000CC4848484848487C
:100810003000000000CC484850503020200000003C
:1008200000A8A8A8705050505000000000D85050A8
:1008300020205050D800000000D850502020202008
:100840007000000000F8901020204048F8000000E0
:100850003820202020202020203800004040402048
:100860002010101008000000701010101010101050
:100870001070000020500000000000000000000088
:1008800000000000000000000000FC00200000004C
:100890000000000000000000000000003048384860
:1008A0003C00000000C04040704848487000000014
:1008B00000000000384840403800000000180808D8
:1008C000384848483C0000000000000030487840AC
:1008D00038000000001C2020782020207800000034
:1008E000000000003C4830407844380000C04040E0
:1008F00070484848EC0000000020000060202020E4
:100900007000000000100000301010101010E00007
:1009100000C040405C507048EC00000000E0202027
:1009200020202020F800000000000000F0A8A8A867
:10093000A800000000000000F0484848EC0000005B
:10094000000000003048484830000000000000006F
:10095000F04848487040E00000000000384848482F
:1009600038081C0000000000D8604040E000000093
:1009700000000000784030087800000000002020CF
:10098000702020201800000000000000D8484848CF
:100990003C00000000000000EC4850302000000047
:1009A00000000000A8A870505000000000000000E7
:1009B000D8502050D800000000000000EC48503013
:1009C0002020C000000000007810202078000000E7
:1009D0001810101020101010101800101010101007
:1009E0001010101010101000602020201020202067
:1009F00020600040A418000000000000000000106B
:100A000010205F0000000000000000000000000057
:100A100000000000000000000000000000000000D6
:100A20000000000000000007000F800F800F800F03
:100A3000800F800700070000000000070007000784
:100A400000000000000E380E380E380E3806300058
:100A50000000000000000000000000000000000096
:100A600000000000000C300C300C307FFE7FFE0CCC
:100A7000300C300C300C307FFE7FFE0C300C300C14
:100A80003000000000024002400FF81FF81A401A20
:100A9000401FF00FF8025802581FF81FF0024002E2
:100AA0004000000000000000000E100E300E70002C
:100AB000E001C0038007000E700C70087000000099
:100AC000000000000000000F001980198019800F3D
:100AD000000F080F9819F818F018E019F00F980097
:100AE000000000000000000700070007000E0000E3
:100AF00000000000000000000000000000000000F6
:100B00000000000000000000F001C0038007000E9C
:100B1000000E000E000E000700038001C000F00070
:100B2000000000000000000F00038001C000E00092
:100B30007000700070007000E001C003800F0000C2
:100B40000000000000000001801188099007E00704
:100B5000E03FFC3FFC07E007E009901188018000BE
:100B60000000000000000000000000018001800182
:100B7000800FF00FF0018001800180000000000074
:100B80000000000000000000000000000000000065
:100B90000000000000000000000700070007000E32
:100BA0000000000000000000000000000000000045
:100BB000001FF81FF8000000000000000000000007
:100BC0000000000000000000000000000000000025
:100BD0000000000000000000000700070007000000
:100BE0000000000000000000020006000E001C00D3
:100BF00038007000E001C0038007000E001C0000F8
:100C0000000000000000000FF01C381C781CF81CCD
:100C1000F81DB81DB81F381F381E381C380FF000DB
:100C2000000000000000000180018003801F801F81
:100C3000800380038003800380038003801FF00013
:100C4000000000000000000FE01C701C380038009D
:100C50007000E001C0038007000E381C381FF80048
:100C6000000000000000000FE01C701C380038007D
:100C70007003C003C0007000381C381C700FE00007
:100C80000000000000000000E001E003E006E00CCE
:100C9000E018E01FF81FF800E000E000E003F800B3
:100CA000000000000000001FF81C001C001C001CBD
:100CB000001FE01FF0007800381C381C700FE000A7
:100CC0000000000000000003E007000E001C001CF4
:100CD000001FF01FF81C381C381C381C380FF0009F
:100CE000000000000000001FFC1C1C1C1C1C1C0041
:100CF0001C0038007000E001C00380038003800006
:100D0000000000000000000FF01C381C381C381FC9
:100D10003807E007E01CF81C381C381C380FF000BE
:100D2000000000000000000FF01C381C381C381CAC
:100D3000381FF80FF800380038007000E007C000D6
:100D4000000000000000000000000003800380039A
:100D5000800000000003800380038000000000008A
:100D6000000000000000000000000003800380037A
:100D70008000000000038003800380070000000063
:100D80000000000000007000E001C0038007000EBA
:100D9000001C001C000E000700038001C000E000E2
:100DA000700000000000000000000000003FFC3F59
:100DB000FC000000003FFC3FFC00000000000000C1
:100DC00000000000001C000E000700038001C000AE
:100DD000E00070007000E001C0038007000E001CFE
:100DE000000000000003C00FF01E78183800380023
:100DF0007000E001C001C00000000001C001C0019E
:100E0000C0000000000FF81C1C1C1C1C1C1C1C1C1F
:100E1000FC1CFC1CFC1CFC1C001C001C001FF00724
:100E2000F800000000000003C007E00E701C381C32
:100E3000381C381C381FF81C381C381C381C38006B
:100E4000000000000000001FF00E380E380E380EB3
:100E5000380FF00FF00E380E380E380E381FF00035
:100E60000000000000000007F00E381C381C001CB9
:100E7000001C001C001C001C001C380E3807F00071
:100E8000000000000000001FE00E700E380E380E4B
:100E9000380E380E380E380E380E380E701FE0003F
:100EA000000000000000001FF80E180E080E000ED3
:100EB000300FF00FF00E300E000E080E181FF80065
:100EC000000000000000001FF80E180E080E000EB3
:100ED000300FF00FF00E300E000E000E001F00005D
:100EE0000000000000000007F00E381C381C381C01
:100EF000001C001C001CF81C381C380E3807F800B9
:100F0000000000000000001C701C701C701C701C95
:100F1000701FF01FF01C701C701C701C701C700087
:100F2000000000000000000FE00380038003800346
:100F3000800380038003800380038003800FE00030
:100F40000000000000000001FC0070007000700054
:100F5000700070007038703870387038700FE000B2
:100F6000000000000000001E380E380E700EE00F6A
:100F7000C00F800F800FC00EE00E700E381E3800BC
:100F8000000000000000001F000E000E000E000E0A
:100F9000000E000E000E000E080E180E381FF8008E
:100FA000000000000000001C1C1E3C1F7C1FFC1FDA
:100FB000FC1DDC1C9C1C1C1C1C1C1C1C1C1C1C006C
:100FC000000000000000001C1C1C1C1E1C1F1C1F1D
:100FD0009C1DDC1CFC1C7C1C3C1C1C1C1C1C1C00CC
:100FE0000000000000000003E007F00E381C1C1C8D
:100FF0001C1C1C1C1C1C1C1C1C0E3807F003E000D5
:10100000000000000000001FF00E380E380E380EF1
:10101000380FF00FF00E000E000E000E001F000043
:101020000000000000000003E00F780E381C1C1CBC
:101030001C1C1C1C1C1C7C1CFC0FF80FF80038002E
:10104000FC0000000000001FF00E380E380E380EB5
:10105000380FF00FF00E700E380E380E381E3800B4
:10106000000000000000000FF01C381C381C381C69
:10107000000FE007F000381C381C381C380FF00057
:10108000000000000000001FFC19CC11C401C001C9
:10109000C001C001C001C001C001C001C007F00013
:1010A000000000000000001C701C701C701C701CF4
:1010B000701C701C701C701C701C701C700FE00089
:1010C000000000000000001C701C701C701C701CD4
:1010D000701C701C701C701C700EE007C003800038
:1010E000000000000000001C1C1C1C1C1C1C1C1C04
:1010F0001C1C9C1C9C1C9C0FF80FF80770077000B0
:10110000000000000000001C701C701C700EE00746
:10111000C00380038007C00EE01C701C701C7000B0
:10112000000000000000001C701C701C701C701C73
:10113000700EE007C003800380038003800FE0008F
:10114000000000000000001FF81C38183810700064
:10115000E001C0038007000E081C181C381FF800AF
:101160000000000000000007F0070007000700076C
:101170000007000700070007000700070007F0004E
:1011800000000000000000100018001C000E000706
:1011900000038001C000E000700038001C00070060
:1011A0000000000000000007F000700070007000F8
:1011B0007000700070007000700070007007F00028
:1011C0000000000000018003C007E00E701C380022
:1011D000000000000000000000000000000000000F
:1011E00000000000000000000000000000000000FF
:1011F0000000000000000000000000000000007F70
:10120000FF7FFF000000001C001C0007000700001B
:1012100000000000000000000000000000000000CE
:101220000000000000000000000000000000000FAF
:10123000E0007000700FF01C701C701C700FD80064
:10124000000000000000001E000E000E000E000F47
:10125000F00E380E380E380E380E380E381BF000EF
:101260000000000000000000000000000000000F6F
:10127000E01C701C701C001C001C701C700FE00037
:101280000000000000000000F80070007000700F07
:10129000F01C701C701C701C701C701C700FD8002F
:1012A0000000000000000000000000000000000F2F
:1012B000E01C701C701FF01C001C701C700FE00004
:1012C0000000000000000003E0077007700700073F
:1012D000001FE01FE007000700070007001FC00015
:1012E0000000000000000000000000000000000FEF
:1012F000D81C701C701C701C700FF007F000701C64
:10130000700FE0000000001E000E000E000E000E28
:10131000F00F380F380E380E380E380E381E3800E1
:101320000000000000000001C001C001C000000F6B
:10133000C001C001C001C001C001C001C00FF80060
:10134000000000000000000070007000700000034A
:10135000F00070007000700070007000701C700C65
:10136000F007E0000000001E000E000E000E000E50
:10137000380E700EE00FC00EE00E700E381E3800F2
:10138000000000000000000FC001C001C001C0014A
:10139000C001C001C001C001C001C001C00FF80000
:1013A0000000000000000000000000000000001F1E
:1013B000F81C9C1C9C1C9C1C9C1C9C1C9C1C9C002D
:1013C0000000000000000000000000000000001FFE
:1013D000E01C701C701C701C701C701C701C700059
:1013E0000000000000000000000000000000000FEE
:1013F000E01C701C701C701C701C701C700FE000D6
:101400000000000000000000000000000000001BC1
:10141000F00E380E380E380E380E380FF00E000E63
:10142000001F000000000000000000000000001F7E
:10143000B038E038E038E038E038E01FE000E000A5
:10144000E001F00000000000000000000000001EAD
:10145000F00FF80F380E000E000E000E001F0000F7
:101460000000000000000000000000000000000F6D
:10147000E01C301C300F8003E0187018700FE00083
:101480000000000000000000000100030007001F32
:10149000F007000700070007000770077003E0006F
:1014A0000000000000000000000000000000001C20
:1014B000701C701C701C701C701C701C700FD8008D
:1014C0000000000000000000000000000000001C00
:1014D000701C701C701C701C700EE007C003800034
:1014E0000000000000000000000000000000001CE0
:1014F0001C1C1C1C1C1C9C1C9C0FF80770077000FB
:101500000000000000000000000000000000001CBF
:10151000E01CE00FC0078007800FC01CE01CE0004B
:101520000000000000000000000000000000000EAD
:10153000380E380E380E380E3807F003E000E001A0
:10154000C01F800000000000000000000000001F1D
:10155000E018E011C0038007000E201C601FE000AF
:101560000000000000000001F803800380038007F2
:10157000001C001C00070003800380038001F800AA
:10158000000000000001C001C001C001C001C00195
:10159000C001C001C001C001C001C001C001C00143
:1015A000C00000000000001F8001C001C001C00099
:1015B000E00038003800E001C001C001C01F800019
:1015C000000000000000001F1C3B9C39DC38F800C4
:1015D000000000000000000000000000000000000B
:1015E0000000002032300A0000000000000000006F
:1015F000FFFE0001FFFF0003FFFF8001FFFF600C03
:10160000FFFEF01E0001F83F0001F83F0001F83F27
:101610000001F83F0001F83F0001F83F0001F83FEA
:101620000001F83F0001F83F0001F83F0001F83FDA
:101630000001F83F0001F83F0001F83E0000783853
:101640000000182000000800000000200000003802
:101650000000183E0000783F0001F83F0001F83F0D
:101660000001F83F0001F83F0001F83F0001F83F9A
:101670000001F83F0001F83F0001F83F0001F83F8A
:101680000001F83F0001F83F0001F83F0001F81E9B
:101690000000F00CFFFE6001FFFF0003FFFF800170
:1016A000FFFF0000FFFE000000000000000000003F
:1016B000000000000000000000000000000000002A
:1016C00000000000000060000000F0000001F800D1
:1016D0000001F8000001F8000001F8000001F80026
:1016E0000001F8000001F8000001F8000001F80016
:1016F0000001F8000001F8000001F8000001F80006
:101700000001F80000007800000018000000080048
:101710000000000000000000000018000000780039
:101720000001F8000001F8000001F8000001F800D5
:101730000001F8000001F8000001F8000001F800C5
:101740000001F8000001F8000001F8000001F800B5
:101750000001F8000001F8000000F0000000600047
:101760000000000000000000000000000000000079
:101770000000000000000000000000000000000069
:10178000FFFE0001FFFF0003FFFF8001FFFF60007D
:10179000FFFEF0000001F8000001F8000001F80071
:1017A0000001F8000001F8000001F8000001F80055
:1017B0000001F8000001F8000001F8000001F80045
:1017C0000001F8000001F8000001F80000007801B5
:1017D000FFFE1803FFFF880FFFFFE027FFFFC03960
:1017E000FFFF003E0000003F0000003F0000003F00
:1017F0000000003F0000003F0000003F0000003FED
:101800000000003F0000003F0000003F0000003FDC
:101810000000003F0000003F0000003F0000001EED
:101820000000000CFFFE0001FFFF0003FFFF80012E
:10183000FFFF0000FFFE00000000000000000000AD
:101840000000000000000000FFFE0001FFFF000399
:10185000FFFF8001FFFF6000FFFEF0000001F800C5
:101860000001F8000001F8000001F8000001F80094
:101870000001F8000001F8000001F8000001F80084
:101880000001F8000001F8000001F8000001F80074
:101890000001F80000007801FFFE1803FFFF880F29
:1018A000FFFFE007FFFFC001FFFF18000000780006
:1018B0000001F8000001F8000001F8000001F80044
:1018C0000001F8000001F8000001F8000001F80034
:1018D0000001F8000001F8000001F8000001F80024
:1018E0000001F8000001F8000000F000FFFE6001B8
:1018F000FFFF0003FFFF8001FFFF0000FFFE00006D
:1019000000000000000000000000000000000000D7
:101910000000000000000000000000000000600C5B
:101920000000F01E0001F83F0001F83F0001F83F01
:101930000001F83F0001F83F0001F83F0001F83FC7
:101940000001F83F0001F83F0001F83F0001F83FB7
:101950000001F83F0001F83F0001F83E000078392F
:10196000FFFE1823FFFF880FFFFFE007FFFFC00106
:10197000FFFF1800000078000001F8000001F800E7
:101980000001F8000001F8000001F8000001F80073
:101990000001F8000001F8000001F8000001F80063
:1019A0000001F8000001F8000001F8000001F80053
:1019B0000000F000000060000000000000000000D7
:1019C0000000000000000000000000000000000017
:1019D0000000000000000000FFFE0001FFFF000308
:1019E000FFFF8001FFFF000CFFFE001E0000003F14
:1019F0000000003F0000003F0000003F0000003FEB
:101A00000000003F0000003F0000003F0000003FDA
:101A10000000003F0000003F0000003F0000003FCA
:101A20000000003E00000039FFFE0023FFFF800F92
:101A3000FFFFE007FFFFC001FFFF18000000780074
:101A40000001F8000001F8000001F8000001F800B2
:101A50000001F8000001F8000001F8000001F800A2
:101A60000001F8000001F8000001F8000001F80092
:101A70000001F8000001F8000000F000FFFE600126
:101A8000FFFF0003FFFF8001FFFF0000FFFE0000DB
:101A90000000000000000000000000000000000046
:101AA000FFFE0001FFFF0003FFFF8001FFFF000CAE
:101AB000FFFE001E0000003F0000003F0000003F4E
:101AC0000000003F0000003F0000003F0000003F1A
:101AD0000000003F0000003F0000003F0000003F0A
:101AE0000000003F0000003F0000003E0000003901
:101AF000FFFE0023FFFF800FFFFFE027FFFFC0393D
:101B0000FFFF183E0000783F0001F83F0001F83F5A
:101B10000001F83F0001F83F0001F83F0001F83FE5
:101B20000001F83F0001F83F0001F83F0001F83FD5
:101B30000001F83F0001F83F0001F83F0001F81EE6
:101B40000000F00CFFFE6001FFFF0003FFFF8001BB
:101B5000FFFF0000FFFE000000000000000000008A
:101B60000000000000000000FFFE0001FFFF000376
:101B7000FFFF8001FFFF6000FFFEF0000001F800A2
:101B80000001F8000001F8000001F8000001F80071
:101B90000001F8000001F8000001F8000001F80061
:101BA0000001F8000001F8000001F8000001F80051
:101BB0000001F80000007800000018000000080094
:101BC0000000000000000000000018000000780085
:101BD0000001F8000001F8000001F8000001F80021
:101BE0000001F8000001F8000001F8000001F80011
:101BF0000001F8000001F8000001F8000001F80001
:101C00000001F8000001F8000000F0000000600092
:101C100000000000000000000000000000000000C4
:101C200000000000000000000000000000000000B4
:101C3000FFFE0001FFFF0003FFFF8001FFFF600CBC
:101C4000FFFEF01E0001F83F0001F83F0001F83FE1
:101C50000001F83F0001F83F0001F83F0001F83FA4
:101C60000001F83F0001F83F0001F83F0001F83F94
:101C70000001F83F0001F83F0001F83E000078390C
:101C8000FFFE1823FFFF880FFFFFE027FFFFC0398B
:101C9000FFFF183E0000783F0001F83F0001F83FC9
:101CA0000001F83F0001F83F0001F83F0001F83F54
:101CB0000001F83F0001F83F0001F83F0001F83F44
:101CC0000001F83F0001F83F0001F83F0001F81E55
:101CD0000000F00CFFFE6001FFFF0003FFFF80012A
:101CE000FFFF0000FFFE00000000000000000000F9
:101CF0000000000000000000FFFE0001FFFF0003E5
:101D0000FFFF8001FFFF600CFFFEF01E0001F83FA7
:101D10000001F83F0001F83F0001F83F0001F83FE3
:101D20000001F83F0001F83F0001F83F0001F83FD3
:101D30000001F83F0001F83F0001F83F0001F83FC3
:101D40000001F83E00007839FFFE1823FFFF880FDE
:101D5000FFFFE007FFFFC001FFFF18000000780051
:101D60000001F8000001F8000001F8000001F8008F
:101D70000001F8000001F8000001F8000001F8007F
:101D80000001F8000001F8000001F8000001F8006F
:101D90000001F8000001F8000000F000FFFE600103
:101DA000FFFF0003FFFF8001FFFF0000FFFE0000B8
:101DB0000000000000000000002100240027002A8D
:101DC000002D003000330001010000040107010A6A
:101DD0000100002200250028002B002E00310034D5
:101DE0000002010000050108010B01000020002392
:101DF00000260029002C002F003200000100000303
:101E0000010601090105050505070508080808027E
:101E10000202020A0A080804040404010101010183
:101E20000101010303030303030303040707070C72
:101E30000C0C0C0C0C0C0C02020202060606060628
:101E40000606060B0B0B0B0B0B0B0B0102102020D5
:101E500008081020401020408002010201080402FE
:101E60000101020408102040808040201008040274
:101E700001800402018040201008040201080402CD
:101E800001010204081020408001020408102040D3
:101E9000800000090A02080B0C0D0706030401006C
:101EA0000000000000000000000000000000000032
:101EB0000000000000000000000000000011100FF2
:101EC0000000000000000000000000000000000012
:101ED00000000000000000494E46494E4954594E4A
:101EE000414ECDCCCC3D0AD7233C17B7D13877CC67
:101EF0002B329595E6241FB14F0A000020410000C7
:101F0000C84200401C4620BCBE4CCA1B0E5AAEC57F
:101F10009D7400407A10F35A00A0724E1809001008
:101F2000A5D4E80000E87648170000E40B5402004E
:101F300000CA9A3B000000E1F50500008096980079
:101F4000000040420F000000A086010000001027A2
:101F500000000000E8030000000064000000000032
:101F60000A00000000000100000000002C76D88864
:101F7000DC674F0823DFC1DFAE59E1B1B796E5E377
:101F8000E453C63AE651997696E8E6C28426EB8990
:101F90008C9B62ED407C6FFCEFBC9C9F40F2BAA52D
:101FA0006FA5F490055A2AF75C936B6CF9676DC1C5
:101FB0001BFCE0E40D47FEF520E6B500D0ED902EC9
:101FC0000300943577050080841E080000204E0A27
:101FD000000000C80C333333330F986E1283114165
:101FE000EF8D2114893BE65516CFFEE6DB18D18430
:101FF0004B381BF77C1D901DA4BBE4242032847257
:102000005E228100C9F124ECA1E53D27A41BB17B30
:1020100074CA9F1B11241FBECFEFD1E2DEBFCDBF1C
:1020200000E00CBF10E1A0E0B2E0E0E7FDEA01E073
:102030000BBF02C007900D92AA32B107D9F71BBEA1
:1020400019E1AAE2B0E101C01D92AE35B107E1F796
:1020500010E2C2E1D0E204C02297FE010E9466D6DF
:10206000CC30D107C9F70E94AACB0C94ACD60C9403
:102070000000EF92FF920F931F93F22FF02E47FD77
:1020800002C0E4E001C0E4E1242F332727FD3095AE
:1020900037FF03C0309521953F4F4F2D512F0F2F04
:1020A000EE2E44D18F2D912F1F910F91FF90EF9025
:1020B0000895A0E0B0E0EFE5F0E10C947DD6EC01EE
:1020C000A880B980CA80DB80A114B104C104D10406
:1020D00041F484E2A82E89EDB82E8BE5C82E87E066
:1020E000D82EC601B5012DE133EF41E050E00E944A
:1020F00049D627EA31E440E050E00E94D5D57B0183
:102100008C01C601B5012DE133EF41E050E00E94A2
:1021100049D6CA01B9012CEE34EF4FEF5FEF0E94B0
:10212000D5D56E0D7F1D801F911F97FF04C0615094
:10213000704080409048688379838A839B839B01A9
:10214000AC015F77B901CA01CDB7DEB7EAE00C9404
:1021500099D6AFCF89E69FE0ACCF6093690F7093BB
:102160006A0F80936B0F90936C0F08956627772703
:102170003EC2FC0188279927E89421912032E9F397
:10218000293010F02E30C8F32B3239F02D3231F4D3
:10219000689403C0AED0820F911D219120532A3044
:1021A000C8F31EF4909581959F4F08951F93FC01ED
:1021B00099278827BC01E89411911032E9F319306E
:1021C00010F01E30C8F31B3249F01D3241F4689400
:1021D00005C07AD0610F711D811D911D11911053A1
:1021E0001A30B8F33EF490958095709561957F4FC5
:1021F0008F4F9F4F1F910895FB01DC0104C08D910B
:102200000190801921F441505040C8F7881B990B68
:102210000895FB01DC0102C001900D924150504035
:10222000D8F70895FC018191861721F08823D9F70A
:10223000992708953197CF010895FB01DC018D9115
:10224000019080190110D9F3990B0895FB01DC016D
:1022500001900D920020E1F70895FB01DC0141504F
:10226000504030F08D910190801919F40020B9F799
:10227000881B990B0895FB01DC014150504048F048
:1022800001900D920020C9F701C01D9241505040AD
:10229000E0F70895FB0151915523A9F0BF01DC013E
:1022A0004D9145174111E1F759F4CD0101900020FE
:1022B00049F04D9140154111C9F3FB014111EFCF98
:1022C00081E090E001970895592F482F372F262F4E
:1022D000660F771F881F991F660F771F881F991F2A
:1022E000620F731F841F951F660F771F881F991F2A
:1022F00008957AE0979F902D879F802D910D11244E
:102300000895FB019F01423074F0453264F4642F5C
:1023100077270E9400D6805D8A330CF0895D819317
:10232000CB010097A1F71082C901AEC3A9E0B0E0CC
:10233000ECE9F1E10C9479D66A01122FA02EBE2CA3
:102340002BE3201718F42CE3922E02C0902E9394C6
:10235000AE014F5F5F4F27E0092DA6D2BC018981F6
:10236000E82EFF24C70189709070019711F4ADE247
:1023700009C0B1FE02C0ABE205C0B0FC02C0A0E0E3
:1023800001C0A0E2E3FE3BC0AA2311F423E001C098
:1023900024E0211710F020E002C0121B212FEB2CAB
:1023A000B4FE02C0322F0AC0F601322F80E202C012
:1023B000819331503323E1F7C20ED11CAA2319F0C7
:1023C000F601A1936F01F6013196E2FE05C09EE48D
:1023D000D6019C9381E404C09EE6D6019C9381E6DD
:1023E00011968C9391833296DF01832F90E202C085
:1023F0009D9381508823E1F7E30FF11D40C0E2FE79
:1024000042C0AA2311F423E001C024E0211710F0F8
:1024100020E002C0121B212FEB2CB4FE02C0922F31
:102420000AC0F601922F80E202C081939150992355
:10243000E1F7C20ED11CAA2319F0F601A1936F0196
:10244000F6013196E2FE08C089E4D6018C938EE451
:1024500011968C9386E407C089E6D6018C938EE6AC
:1024600011968C9386E681833296DF01892F20E2D4
:1024700002C02D9381508823E1F7E90FF11D1082EE
:102480002EEF3FEFAFC0161617061CF041E050E0EC
:1024900003C0AB014F5F5F4FAA2019F480E090E0CA
:1024A00003C08A2D90E0019620E030E0AA2311F0CD
:1024B00021E030E0240F351F280F391F812F90E0D5
:1024C0002817390714F020E002C0121B212F4B2DD2
:1024D00050E0CA0180719070B4FC0DC0B3FC0BC019
:1024E000F601322F40E202C0419331503323E1F72D
:1024F000C20ED11C01C0322FAA2319F0F601A193FC
:102500006F01892B11F0132F0AC0F601132F80E3FE
:1025100002C0819311501123E1F7C30ED11C092D84
:10252000060FBA8090E1892E912C8E209F20E4FE28
:1025300004C0F1E3BF1609F40150101614F001E0D5
:1025400003C0093008F008E09B0177FF02C020E0DB
:1025500030E0CB010196821B930BFE013196E80F10
:10256000F91F8EE2F82E3B01601A71088A2D90E067
:1025700044275527481B590B8FEF2F3F380719F475
:10258000D601FD926D01621773072CF06216730677
:1025900014F4808101C080E321503040319624172B
:1025A000350724F0D6018D936D01E6CF2617370746
:1025B00049F4B5E3BB1528F0BB1621F4811491044E
:1025C00009F481E3F6018193D601812F90E202C0E4
:1025D0009C93815011968823D9F7E10FF11D108249
:1025E00020E030E0C9012996EEE00C9495D6A0E0F9
:1025F000B0E0EDEFF2E10C947BD6EC015B016115EC
:10260000710519F0FB0191838083F9908F2D90E083
:102610000E946AD6892BC9F7FDE2FF1621F4F990D2
:10262000EE24E39405C02BE2F21609F4F990EE24AF
:102630008E0101501040C80167ED7EE143E050E09B
:102640000BD2892BF9F48E010E5F1F4FC8016AED82
:102650007EE145E050E000D2892B19F48E01095F3C
:102660001F4FA114B10419F0F50111830083E0FCA0
:1026700004C070E090E080E813C070E090E080E873
:102680006FEF07C1C8016FED7EE143E050E0E4D198
:10269000892B69F4A114B10429F470E090E080EC76
:1026A0006FE7F7C02296F501D183C083F6CF882467
:1026B000992440E050E060E070E0EF2DE053EA3014
:1026C000A0F5F2E0EF2A8E2D90E09C01287030708A
:1026D000E2FE06C0232B79F50894811C911C2BC0C7
:1026E000232B19F0089481089108DB01CA0112E03C
:1026F000880F991FAA1FBB1F1A95D1F7480F591FA2
:102700006A1F7B1F440F551F661F771F4E0F511DF9
:10271000611D711D483929E9520729E9620729E13C
:10272000720748F084E0E82A06C0EE3F31F4E3FC8B
:1027300039C098E0E92AF990C0CFE53311F0E531CE
:1027400089F529912D3219F4E0E1EE2A05C02B32EA
:1027500019F081E090E003C0299182E090E0E22F3F
:10276000E053EA3018F0C81BD90B1CC020E030E061
:10277000FCE020383F075CF4C901880F991F880FDF
:10278000991F280F391F220F331F2E0F311DE9917A
:10279000E053EA3068F3E4FE03C0309521953F4FE3
:1027A000820E931ECE2CDD24E1FE07C0A114B104DD
:1027B00021F02197F501D183C083CB01BA010E949A
:1027C000D5D37B018C01F3E0CF22DD2423E0C216B8
:1027D000D10421F417FB109517F9109557016801E2
:1027E000C801B70120E030E040E050E00E9435D35E
:1027F000882309F44AC097FE0DC026EFE22E2EE191
:10280000F22E9094819491089394C0E2D0E000E07D
:1028100010E012C09EE0E92E9FE1F92EF6CFF701FD
:102820002591359145915491C601B5010E94CDD4B1
:102830005B016C018C1A9D0A8C169D0684F7D59558
:10284000C7950F5F1F4F0630110529F08CEF9FEFE2
:10285000E80EF91EF1CFC501D6017C018D018C2D4A
:10286000880F8D2D881F8F3F51F0C601B50120E0E4
:1028700030E040E050E00E9435D3882331F482E21A
:1028800090E090935D1980935C197E2D9F2D802F91
:10289000612F272F392F482F562FB901CA01CDB7E5
:1028A000DEB7ECE00C9497D6283008F027E0332709
:1028B000DA01990F311D87FD916000966105710560
:1028C00039F432602E5F3D9330E32A95E1F70895A5
:1028D0009F3F30F080387105610509F03C5F3C5F37
:1028E0003D93913008F08068911DDF93CF931F9343
:1028F0000F93FF92EF92192F987F9695E92F969557
:102900009695E90FFF27E459F04E99273327EE24D7
:10291000FF24A701E70105900894079428F4360FD7
:10292000E71EF81E491F511D660F771F881F991F4C
:102930000694A1F70590079428F4E70EF81E491FA6
:10294000561FC11D770F881F991F661F0694A1F798
:102950000590079428F4F80E491F561FC71FD11D74
:10296000880F991F661F771F0694A1F7059007949B
:1029700020F4490F561FC71FD81F990F661F771FD6
:10298000881F0694A9F784911095177041F0D69589
:10299000C79557954795F794E7941A95C1F7E2E1E3
:1029A000FFE1689415901591359165919591059089
:1029B0007FE27395E118F10A430B560BC90BD0095E
:1029C000C0F7E10CF11E431F561FC91FD01D7EF436
:1029D000703311F48A95E6CFE894015030F0080F77
:1029E0000AF40027021708F4202F2395022F7A33C8
:1029F00028F079E37D932A95E9F710C07D932A9515
:102A000089F6069497956795379517951794E11869
:102A1000F10A430B560BC90BD00998F023957E9110
:102A200073957A3308F070E37C932013B8F77E91A6
:102A300070617D9330F0839571E37D9370E32A9507
:102A4000E1F71124EF90FF900F911F91CF91DF914B
:102A5000992787FD90950895FB01DC014150504076
:102A600088F08D9181341CF08B350CF4805E65917B
:102A700061341CF06B350CF4605E861B611171F3E0
:102A8000990B0895881BFCCFDC01FC01672F719125
:102A90007723E1F7329704C07C916D937083629144
:102AA000AE17BF07C8F30895982F8091BC0F8130EF
:102AB00049F59430B9F0953030F4913059F09230B6
:102AC00009F0AAC0AAC09530A9F0963009F0A4C0B8
:102AD00083E2089580915D11882311F480E20895C6
:102AE00081E2089580917F0F882311F485E0089595
:102AF00084E0089580912E10882311F487E00895D2
:102B000088E008958091BC0F8630C9F4943009F4B0
:102B100086C0953030F4923061F0933009F07CC07B
:102B20000AC0953021F0963009F076C006C089E0E1
:102B300008958AE0089583E1089582E108958091DF
:102B4000BC0F8430C9F4943009F469C0953030F476
:102B5000923061F0933009F05FC00AC0953021F0E7
:102B6000963009F059C006C08BE108958CE10895B4
:102B70008AE1089589E108958091BC0F8530C1F400
:102B8000943009F44CC0953030F4923059F09330C1
:102B900009F042C009C0953019F09630E9F506C039
:102BA00085E1089586E1089588E1089587E1089513
:102BB0008091BC0F8330D1F4943051F0953018F4EB
:102BC000923051F507C0953039F0963029F506C09E
:102BD0008FE008958CE008958BE0089580915C115A
:102BE000882311F480E1089582E208958091BC0F5A
:102BF000873091F4933051F0943018F4923061F4AE
:102C000007C0943061F0953039F404C08EE1089526
:102C10008FE108958DE10895089582E0089584E19B
:102C20000895AF92BF92CF92DF92EF92FF920F93EF
:102C30001F936E157F058007910734F42E153F050D
:102C40004007510764F42CC0E616F7060807190779
:102C500094F4A216B306C406D5063CF423C0A2160B
:102C6000B306C406D506BCF41FC02A153B054C05A7
:102C70005D05C4F41BC06E157F058007910791F4B4
:102C80002A153B054C055D058CF0A216B306C4065B
:102C9000D50644F409C02A153B054C055D0511F421
:102CA00084E005C082E003C083E001C081E01F91A1
:102CB0000F91FF90EF90DF90CF90BF90AF9008956D
:102CC000EF92FF920F931F937B018C01662757FDB4
:102CD0006095762FCB01BA010E94D7D32091361090
:102CE0003091371040913810509139100E94CDD456
:102CF000A80197010E943CD37B018C0120E030E0C9
:102D000040E050E40E94C9D487FF03C061E070E056
:102D100004C0C801B7010E94A4D3CB011F910F9139
:102D2000FF90EF9008956F927F928F929F92AF9253
:102D3000BF92CF92DF92EF92FF920F931F93CF93A8
:102D4000DF937C015B01662757FD6095762FCB01F1
:102D5000BA010E94D7D33B014C010027F7FC009534
:102D6000102FC801B7010E94D7D37B018C01CC245E
:102D7000B7FCC094DC2CC601B5010E94D7D39B01DF
:102D8000AC01C801B7010E943CD3A40193010E9489
:102D9000CDD49B01AC01C401B3010E94D0D27B0110
:102DA0008C010E94A4D3EB01BE01882777FD80959A
:102DB000982F0E94D7D39B01AC01C801B7010E9494
:102DC000D0D220E030E040E05FE30E94C9D4181682
:102DD0000CF42196CE01DF91CF911F910F91FF90BE
:102DE000EF90DF90CF90BF90AF909F908F907F90AB
:102DF0006F900895CF92DF92EF92FF920F931F93FF
:102E0000CF93DF93EC016B01688179818A819B818B
:102E10002091C10F3091C20F4091C30F5091C40F48
:102E20000E94CDD4688379838A839B83F601608175
:102E30007181828193812091C50F3091C60F40919D
:102E4000C70F5091C80F0E94CDD47B018C01F601B1
:102E500060837183828393832091A6133091A7139B
:102E6000C9018E978A35910580F4288139814A817C
:102E70005B81D801C701B05888839983AA83BB833B
:102E8000208331834283538329C0C90188589040ED
:102E90008A35910580F488819981AA81BB81B058D7
:102EA00088839983AA83BB83F60180819181A28163
:102EB000B381B0580FC0225E30402A35310570F41E
:102EC00088819981AA81BB81E882F9820A831B8368
:102ED000B058F60180839183A283B383688179819E
:102EE0008A819B812091A8133091A9134091AA1344
:102EF0005091AB130E94D1D2688379838A839B83DC
:102F0000F60160817181828193812091AC133091AF
:102F1000AD134091AE135091AF130E94D1D2F60180
:102F20006083718382839383DF91CF911F910F918F
:102F3000FF90EF90DF90CF9008952F923F924F92A5
:102F40005F926F927F928F929F92AF92BF92CF9239
:102F5000DF92EF92FF920F931F931B012C01390117
:102F60004A0160913E1070913F1080914010909105
:102F700041100E94D7D37B018C01A80197010E94C8
:102F8000CDD45B016C01C401B301A40193010E9483
:102F9000CDD49B01AC01C601B5010E94D0D25B012A
:102FA0006C01C201B101A20191010E94CDD49B012B
:102FB000AC01C601B5010E94D1D25B016C01C80110
:102FC000B701A80197010E94D1D29B01AC01C601B3
:102FD000B5010E943CD31F910F91FF90EF90DF90BD
:102FE000CF90BF90AF909F908F907F906F905F90A9
:102FF0004F903F902F9008950F931F93CF93DF939F
:10300000242F2627A22FB0E0AF70B070AA0FBB1FED
:10301000AA0FBB1FC8E6D2E0AC0FBD1FFD01059192
:10302000159125913491E4E096958795779567956C
:10303000EA95D1F7062717272827392742954F7099
:10304000402750E04F705070440F551F440F551FDC
:103050004C0F5D1FFA0185919591A591B49144E0C3
:1030600036952795179507954A95D1F7082719277B
:103070002A273B27B801C901DF91CF911F910F91FA
:103080000895CF92DF92EF92FF920F931F938130BA
:10309000910509F046C26F5F7F4F09F049C387E190
:1030A00092E160E072E00E94D5D18BE290E10E9453
:1030B000F0768FE290E167E072E00E94D5D18EE178
:1030C00092E168E072E00E94D5D16091730F709137
:1030D000740F882777FD8095982F20916D0F309180
:1030E0006E0F442737FD4095542F0E94D5D50E947E
:1030F000D7D37B018C0160916F0F7091700F80911D
:10310000710F9091720FA80197010E943CD36093B8
:103110003610709337108093381090933910C8018F
:10312000B70120916F0F3091700F4091710F509146
:10313000720F0E943CD37B018C0160933A10709314
:103140003B1080933C1090933D106091BD0F7091A7
:10315000BE0F882777FD8095982F0E94D7D3A801AE
:1031600097010E94CDD40E94A4D360933E10709327
:103170003F1080934010909341106091BF0F709169
:10318000C00F882777FD8095982F0E94D7D3A8017C
:1031900097010E94CDD40E94A4D3609342107093F3
:1031A0004310809344109093451085E292E161E1D1
:1031B00072E00E94D5D18CE292E163E172E00E945C
:1031C000D5D183E392E167E172E00E94D5D18AE331
:1031D00092E16FE172E00E94D5D181E492E162E573
:1031E00072E00E94D5D188E492E162E572E00E942B
:1031F000D5D18FE492E162E572E00E94D5D186E5F7
:1032000092E162E572E00E94D5D18DE592E161E63E
:1032100072E00E94D5D184E692E16BE672E00E94F2
:10322000D5D18BE692E162E772E00E94D5D182E7C8
:1032300092E16AE772E00E94D5D189E792E165E800
:1032400072E00E94D5D180E892E16DE572E10E94C2
:10325000B4D286E590E167E072E00E94D5D187E8BC
:1032600092E16BE872E00E94D5D18EE892E16DE8C0
:1032700072E00E94D5D185E992E162E972E00E9494
:10328000D5D18CE992E166E972E00E94D5D183EA5A
:1032900092E16AE972E00E94D5D18AEA92E16EE990
:1032A00072E00E94D5D181EB92E162EA72E00E9465
:1032B000D5D188EB92E166EA72E00E94D5D18FEB1E
:1032C00092E16AEA72E00E94D5D186EC92E16EEA60
:1032D00072E00E94D5D18DEC92E162EB72E00E9427
:1032E000D5D184ED92E166EB72E00E94D5D18BEDF1
:1032F00092E16AEB72E00E94D5D182EE92E16EEB30
:1033000072E00E94D5D189EE92E162EC72E00E94F7
:10331000D5D180EF92E166EC72E00E94D5D187EFC3
:1033200092E16AEC72E00E94D5D18EEF92E16EECF0
:1033300072E00E94D5D185E093E162ED72E00E94D7
:10334000D5D18CE093E166ED72E00E94D5D183E1A6
:1033500093E16AED72E00E94D5D18AE193E16EEDCE
:1033600072E00E94D5D181E293E162EE72E00E94A8
:10337000D5D188E293E166EE72E00E94D5D18FE26A
:1033800093E16AEE72E00E94D5D186E393E16EEE9E
:1033900072E00E94D5D18DE393E162EF72E00E946A
:1033A000D5D184E493E167EF72E00E94D5D18BE43C
:1033B00093E16BEF72E00E94D5D182E593E16FEF6C
:1033C00072E00E94D5D189E593E163E073E00E9449
:1033D000D5D180E693E167E073E00E94D5D187E61E
:1033E00093E16BE073E00E94D5D18EE693E16FE04C
:1033F00073E00E94D5D185E793E163E173E00E9419
:10340000D5D18CE793E167E173E00E94D5D183E8E1
:1034100093E16BE173E00E94D5D18AE893E16FE11B
:1034200073E00E94D5D181E993E163E273E00E94E9
:10343000D5D188E993E167E273E00E94D5D18FE9A5
:1034400093E16BE273E00E94D5D186E690E16EE0F5
:1034500046E250E027E230E008E210E079E2E72EB1
:10346000F12CCC24DD240E9421B982E990E16BE0AB
:103470004CE022E103E1B2E0EB2E0E9486BD84EC39
:1034800090E167E072E00E94D5D18EEC90E167E0B8
:1034900072E00E94D5D11092DA101092DB101092D7
:1034A000DE101092E01082E090E0A0E0B0E08093A7
:1034B000E1109093E210A093E310B093E410109207
:1034C000F810109202111092011186E190E1909390
:1034D00000118093FF10109204118EE191E16FE2D0
:1034E00073E00E94D5D18AE291E164E373E00E9427
:1034F000D5D181E391E10E941B7A8FE591E161E0F2
:1035000044E025E004E0A5E0EA2ECC24C3940E9428
:10351000C07483EA91E161E047E028E00E94C07452
:1035200007C1892B09F004C16F5F7F4F09F000C10B
:1035300081E391E10E942E7A8AE291E10E94C6D253
:103540008EE191E10E94C6D28EEC90E10E94C6D23B
:1035500084EC90E10E94C6D28FE993E10E94C6D22A
:1035600088E993E10E94C6D281E993E10E94C6D224
:103570008AE893E10E94C6D283E893E10E94C6D212
:103580008CE793E10E94C6D285E793E10E94C6D200
:103590008EE693E10E94C6D287E693E10E94C6D2EE
:1035A00080E693E10E94C6D289E593E10E94C6D2EB
:1035B00082E593E10E94C6D28BE493E10E94C6D2D9
:1035C00084E493E10E94C6D28DE393E10E94C6D2C7
:1035D00086E393E10E94C6D28FE293E10E94C6D2B5
:1035E00088E293E10E94C6D281E293E10E94C6D2B2
:1035F0008AE193E10E94C6D283E193E10E94C6D2A0
:103600008CE093E10E94C6D285E093E10E94C6D28D
:103610008EEF92E10E94C6D287EF92E10E94C6D25D
:1036200080EF92E10E94C6D289EE92E10E94C6D25A
:1036300082EE92E10E94C6D28BED92E10E94C6D248
:1036400084ED92E10E94C6D28DEC92E10E94C6D236
:1036500086EC92E10E94C6D28FEB92E10E94C6D224
:1036600088EB92E10E94C6D281EB92E10E94C6D221
:103670008AEA92E10E94C6D283EA92E10E94C6D20F
:103680008CE992E10E94C6D285E992E10E94C6D2FD
:103690008EE892E10E94C6D287E892E10E94C6D2EB
:1036A00086E590E10E94C6D280E892E10E94C6D2EF
:1036B00089E792E10E94C6D282E792E10E94C6D2D7
:1036C0008BE692E10E94C6D284E692E10E94C6D2C5
:1036D0008DE592E10E94C6D286E592E10E94C6D2B3
:1036E0008FE492E10E94C6D288E492E10E94C6D2A1
:1036F00081E492E10E94C6D28AE392E10E94C6D29E
:1037000083E392E10E94C6D28CE292E10E94C6D28B
:1037100085E292E10E94C6D28EE192E10E94C6D279
:103720008FE290E10E94C6D287E192E10E94C6D268
:103730001F910F91FF90EF90DF90CF90089580E060
:1037400090E06FEF7FEF9DCC81E090E06FEF7FEF37
:1037500098CCCF92DF92EF92FF920F931F93CF936B
:10376000DF936C01EE24EA94FE2C8701C0E0D0E0E8
:103770000BC0C601BE010E9435CF482FC801B7015A
:103780003BDC7B018C012196F60184819581C81771
:10379000D90778F3A8019701209530954095509569
:1037A000B901CA01DF91CF911F910F91FF90EF9066
:1037B000DF90CF9008950F931F9384E090E00E94D4
:1037C000B4C08C010E943BC12DB73EB7201B310B0A
:1037D000C9011F910F910895EEDF9C0180914A105D
:1037E00090914B1028173907D1F030934B1020934C
:1037F0004A1081ED98E163E372E10E946CCE609122
:103800004A1070914B1081ED98E14AE050E00E941F
:1038100046CD81ED98E16EE872E10C949ECE08955C
:1038200081ED98E164E672E10C949ECE81ED98E121
:103830006DE572E10C949ECEAF92BF92CF92DF9273
:10384000EF92FF920F931F937B018C01CA01B90184
:103850000E94CDD45B016C01C801B701A80197019A
:103860000E94CDD49B01AC01C601B5010E94D0D20B
:103870000E943AD51F910F91FF90EF90DF90CF906B
:10388000BF90AF9008956F927F928F929F92AF9268
:10389000BF92CF92DF92EF92FF920F931F937B0123
:1038A0008C014BDB5B016C01A8019701C5DF3B017B
:1038B0004C01E0908F0FF090900F0091910F1091BC
:1038C000920FC801B7010E94D7D39B01AC01C6017A
:1038D000B5010E9435D387FD4AC08091970F909122
:1038E000980FA091990FB0919A0FE80EF91E0A1F38
:1038F0001B1FC801B7010E94D7D39B01AC01C601B1
:10390000B5010E94C9D4181694F1E090930FF0907D
:10391000940F0091950F1091960FC801B7010E9466
:10392000D7D39B01AC01C401B3010E9435D387FDFD
:103930001EC0DD2480919B0F90919C0FA0919D0F44
:10394000B0919E0FE80EF91E0A1F1B1FC801B70198
:103950000E94D7D39B01AC01C401B3010E94C9D41A
:10396000181614F4DD24D39481E0D82601C0DD2498
:103970008D2D1F910F91FF90EF90DF90CF90BF9012
:10398000AF909F908F907F906F900895AF92BF926D
:10399000CF92DF92EF92FF920F931F937B018C01E6
:1039A00059016A0160913E1070913F108091401062
:1039B000909141100E94D7D3A80197010E94D0D2C4
:1039C0009B01AC010E94CDD47B018C01C601B501E5
:1039D000A60195010E94CDD49B01AC01C801B7019D
:1039E0000E94D1D20E943AD51F910F91FF90EF9083
:1039F000DF90CF90BF90AF900895AF92BF92CF92DB
:103A0000DF92EF92FF920F931F937B018C0159017C
:103A10006A01A80197010E94CDD47B018C01C601E7
:103A2000B501A60195010E94CDD49B01AC01C8014E
:103A3000B7010E94D1D20E943AD51F910F91FF90F9
:103A4000EF90DF90CF90BF90AF9008952F923F926C
:103A50004F925F926F927F928F929F92AF92BF929E
:103A6000CF92DF92EF92FF920F931F93DF93CF934A
:103A700000D00F92CDB7DEB769837A838B839C83A6
:103A800059016A0117012801611571058105910528
:103A900059F40F2EF0E0EF2EF0E0FF2EF0E00F2FA4
:103AA000F0E01F2FF02DA4C0CA01B9010E94CDD4AF
:103AB0007B018C01C601B50120E030E040E050E020
:103AC0000E9435D3882324F417FB109517F910951D
:103AD000C201B101A20191010E94D1D23B014C016E
:103AE000C801B701A40193010E943CD37B018C0162
:103AF00069817A818B819C810E94D7D39B01AC0123
:103B0000C801B7010E9435D38823B4F5C601B501B9
:103B100020E030E040E050E00E9435D3882329F4D3
:103B2000C401B3010E943AD50DC0C201B101A60182
:103B300095010E943CD39B01AC015F77C601B501A2
:103B40000E94D1D27B018C01D090750FC090760F6E
:103B5000B090770FA090780F2D2D3C2D4B2D5A2D26
:103B60000E94C9D418160CF043C08D2D9C2DAB2D8E
:103B7000BA2D7C018D013CC0C601B50120E030E0CA
:103B800040E050E00E9435D3882359F4C401B301CA
:103B90000E943AD57B018C0117FB109517F91095FF
:103BA0000FC0C201B101A60195010E943CD39B0147
:103BB000AC015F77C601B5010E94D0D27B018C01B8
:103BC0008091750F9091760FA091770FB091780F3B
:103BD0005C016D01D7FAD094D7F8D094C801B70131
:103BE000A60195010E9435D3882314F4860175013E
:103BF000B701C8010F900F900F900F90CF91DF91F8
:103C00001F910F91FF90EF90DF90CF90BF90AF90FA
:103C10009F908F907F906F905F904F903F902F90EC
:103C20000895EF92FF920F931F9380917E0F882348
:103C300009F456C081ED98E169E772E10E946CCE0B
:103C40008FE591E10E940C700E94D7D37B018C011B
:103C50006091730F7091740F882777FD8095982F6E
:103C60000E94D7D39B01AC01C801B7010E943CD38D
:103C70000E94A4D3AB01BC0181ED98E12AE030E0C1
:103C80000E94F6CC81ED98E167E872E10E946CCE6B
:103C900083EA91E10E940C700E94D7D37B018C01D2
:103CA0006091730F7091740F882777FD8095982F1E
:103CB0000E94D7D39B01AC01C801B7010E943CD33D
:103CC0000E94A4D3AB01BC0181ED98E12AE030E071
:103CD0000E94F6CC81ED98E16EE872E10E949ECEE2
:103CE0001F910F91FF90EF900895EF92FF920F9325
:103CF0001F938091461090914710A0914810B09169
:103D000049100097A105B10509F03FC060913E1030
:103D100070913F1080914010909141100E94D7D334
:103D20007B018C016091421070914310809144108E
:103D3000909145100E94D7D39B01AC01C801B701F7
:103D40005CDE20E030E040E05FE30E94D1D20E94E0
:103D5000A4D36093461070934710809348109093BB
:103D6000491081ED98E16AE373E00E9475CD4091BE
:103D7000461050914710609148107091491081EDA4
:103D800098E12AE030E00E9434CD609146107091B5
:103D9000471080914810909149101F910F91FF900A
:103DA000EF900895AF92BF92CF92DF92EF92FF9281
:103DB0000F931F937B018C0159016A010E94F5C486
:103DC0009B01AC0120934E1030934F104093501044
:103DD000509351108FE591E1B801A7010E94A271A3
:103DE00083EA91E1B601A5010E94A27115C08091FC
:103DF0007D0F882349F08FE591E10E94B67683EA32
:103E000091E10E94B67608C08FE591E10E94937619
:103E100083EA91E10E9493768FE591E10E94FC6F25
:103E2000611571058105910549F483EA91E10E94CC
:103E3000FC6F611571058105910529F080917F0F57
:103E4000882351F3D4CFEDDE1F910F91FF90EF90B7
:103E5000DF90CF90BF90AF90089581ED98E161E53C
:103E600073E00C945BCE81ED98E160E073E00E941A
:103E70002CCC1092CD1008958F929F92AF92BF924A
:103E8000CF92DF92EF92FF920F931F936C017B0111
:103E900081ED98E168E673E00E9475CD81ED98E1CF
:103EA000B6014AE050E00E9446CD81ED98E161E71D
:103EB00073E00E9475CD81ED98E1B7014AE050E0D2
:103EC0000E9458CD81ED98E166E773E00E9475CDC0
:103ED000609156117091571181ED98E14AE050E0E0
:103EE0000E9458CD81ED98E166E873E00E9475CD9F
:103EF00040914C1150914D1160914E1170914F11A4
:103F000081ED98E12AE030E00E9434CD4601AA24F8
:103F100097FCA094BA2C8091561190915711AA2722
:103F200097FDA095BA2F880E991EAA1EBB1E0027CA
:103F3000F7FC0095102F20914C1130914D114091BC
:103F40004E1150914F11C801B7010E94D5D5860E70
:103F5000971EA81EB91E81ED98E160E973E00E94EA
:103F600075CD81ED98E1B501A4012AE030E00E9411
:103F7000F6CC8091581190915911A0915A11B0919D
:103F80005B1188159905AA05BB0514F41FEF18C02D
:103F900081E391E1B501A4010E94B57A81E391E149
:103FA0000E94C57A182F81ED98E169E973E00E94BB
:103FB00075CD81ED98E1612F4AE050E00E94DACCA6
:103FC000812F1F910F91FF90EF90DF90CF90BF90C6
:103FD000AF909F908F9008950F931F93CF93DF938F
:103FE000EC018B0181ED98E168EA73E00E9475CDE8
:103FF00081ED98E1BE014AE050E00E9446CD81ED9E
:1040000098E16BEA73E00E9475CD81ED98E1B8010B
:104010004AE050E00E9458CD8091E7119091E8115C
:10402000C817D907B4F08091EB119091EC118C175F
:104030009D077CF08091E9119091EA11081719070A
:1040400044F08091ED119091EE11801791070CF0E2
:1040500097C08091EF119091F011C817D907BCF06B
:104060008091F3119091F4118C179D0784F0809149
:10407000F1119091F211081719074CF08091ED1190
:104080009091EE118017910714F082E07AC0809130
:10409000F7119091F811C817D907BCF08091FB1166
:1040A0009091FC118C179D0784F08091F9119091EB
:1040B000FA11081719074CF08091FD119091FE112B
:1040C0008017910714F083E05CC08091FF119091FC
:1040D0000012C817D907BCF0809103129091041206
:1040E0008C179D0784F0809101129091021208179D
:1040F00019074CF0809105129091061280179107D4
:1041000014F084E03EC08091071290910812C81705
:10411000D907BCF080910B1290910C128C179D075F
:1041200084F08091091290910A12081719074CF037
:1041300080910D1290910E128017910714F085E076
:1041400020C080910F1290911012C817D907BCF0AF
:1041500080911312909114128C179D0784F0809116
:10416000111290911212081719074CF08091151234
:10417000909116128017910714F086E002C001C0DA
:1041800081E0DF91CF911F910F9108956F927F92FF
:104190008F929F92AF92BF92CF92DF92EF92FF9257
:1041A0000F931F93DF93CF93CDB7DEB7A3970FB6CF
:1041B000F894DEBF0FBECDBF6DB67EB681E391E150
:1041C00040E050E060E070E00E94B57A7E01089423
:1041D000E11CF11CC70160EB73E00E94D5D181E3C3
:1041E00091E10E94C57A182FC70160E070E00E943B
:1041F00046CFFC01108381E391E10E94C57A182F1C
:10420000C70161E070E00E9446CFFC011083C70146
:1042100063EB73E00E946ED0882399F481ED98E1FE
:1042200066EB73E00E9475CD81ED98E1B7010E94C5
:104230006CCE81ED98E164ED73E00E945BCE10E0FE
:1042400083C181ED98E16FEE73E00E945BCE81E364
:1042500091E10E94C57A8E01085F1F4FC80167E097
:1042600072E00E94D5D181E391E10E94C57AE82EE7
:104270008FE0C82ED12CCC0EDD1EF02E012F21C0D8
:1042800083E2E81641F481E391E10E94C57AE82EC9
:104290009AE0E916C1F7C6016F2D702F0E94BDD2BA
:1042A000C6016E2D0E9493D1BC018F2D902F0E94CC
:1042B0009FD2C6010E94CBD281E391E10E94C57AD0
:1042C000E82E8AE0E81619F090E2E916C9F681EDC9
:1042D00098E165E174E00E9475CD18E0E12EF12CC3
:1042E000EC0EFD1E81ED98E1B7010E949ECE4C853B
:1042F0005D854F5F5F4F8DB79EB7841B950B0FB6E3
:10430000F8949EBF0FBE8DBF0DB71EB70F5F1F4F36
:10431000902E812EB02EA12EC701B80120E030E0F2
:104320000E941FD0C8010E94B910AA2797FDA0952E
:10433000BA2F80934C1190934D11A0934E11B093CE
:104340004F110A97A105B10544F481ED98E168EA9F
:1043500072E00E942CCC10E0F3C0C70167E072E06D
:104360000E9407D281E391E10E94C57A182FB6E13D
:10437000CB2ED12CCC0EDD1EC701FE2C092F1FC069
:10438000133239F481E391E10E94C57A182F8A3003
:10439000C9F7C6016F2D702F0E94BDD2C601612FD3
:1043A0000E9493D1BC018F2D902F0E949FD2C601F5
:1043B0000E94CBD281E391E10E94C57A182F1A3076
:1043C000F9F681ED98E160E274E00E9475CDA8E015
:1043D000CA2ED12CCC0EDD1E81ED98E1B6010E94D3
:1043E0009ECE4C855D854F5F5F4FC6016B2D7A2D4C
:1043F00020E030E00E941FD0892D982D0E94B91036
:10440000AA2797FDA095BA2F809350119093511130
:10441000A0935211B0935311BC01CD010E94D7D388
:104420007B018C0160914C1170914D1180914E1166
:1044300090914F110E94D7D39B01AC01C801B701E5
:104440000E943CD36093AB0F7093AC0F8093AD0F81
:104450009093AE0F81ED98E16CE274E00E9475CD0F
:104460004091AB0F5091AC0F6091AD0F7091AE0FBA
:1044700081ED98E122E030E00E944ACEC60167E07B
:1044800072E00E9407D281E391E10E94C57A182F61
:104490000D2DFDE1EF2EF12CEC0EFD1E16C0C70117
:1044A0006C2D702F0E94BDD2C701612F0E9493D145
:1044B000BC018C2D902F0E949FD2C7010E94CBD2AD
:1044C00081E391E10E94C57A182F1A3041F781EDFE
:1044D00098E16EE374E00E9475CD81ED98E16C2D5A
:1044E000702F0E949ECE4C855D854F5F5F4F8C2D57
:1044F000902F6B2D7A2D20E030E00E941FD0892D67
:10450000982D0E94B910909355118093541181E316
:1045100091E10E94707A709357116093561181ED6A
:1045200098E162E574E00E9475CD6091561170913A
:10453000571181ED98E14AE050E00E9458CD11E01A
:10454000CE0108960E94C6D2CE0101960E94C6D224
:10455000812F0FB6F8947EBE0FBE6DBEA3960FB628
:10456000F894DEBF0FBECDBFCF91DF911F910F91A9
:10457000FF90EF90DF90CF90BF90AF909F908F9083
:104580007F906F900895EF92FF920F931F93DF93A8
:10459000CF93CDB7DEB7FC01EDB6FEB644815581B1
:1045A0004F5F5F4F8DB79EB7841B950B0FB6F89486
:1045B0009EBF0FBE8DBF0DB71EB70F5F1F4FCF0140
:1045C000B80120E030E00E941FD0C8010E94B9105D
:1045D0000FB6F894FEBE0FBEEDBECF91DF911F91D6
:1045E0000F91FF90EF900895EF92FF920F931F931A
:1045F000DF93CF93CDB7DEB727970FB6F894DEBF22
:104600000FBECDBF8E010F5F1F4FC80161E472E185
:104610000E94B4D2C801B7DF7C01C8010E94C6D293
:10462000EF2819F41092C3100EC08091CB1088238C
:1046300021F081E08093C31006C081ED98E160E62F
:1046400074E00E945BCE27960FB6F894DEBF0FBED3
:10465000CDBFCF91DF911F910F91FF90EF90089503
:104660000F931F93DF93CF93CDB7DEB72E970FB67F
:10467000F894DEBF0FBECDBF8E010F5F1F4FC80184
:1046800061E472E10E94B4D2C8017DDF9093CC0F47
:104690008093CB0FC8010E94C6D28E01085F1F4FC6
:1046A000C80168E472E10E94B4D2C8016CDF909343
:1046B000CA0F8093C90FC8010E94C6D22E960FB6AA
:1046C000F894DEBF0FBECDBFCF91DF911F910F9148
:1046D0000895EF92FF920F931F93DF93CF93CDB77F
:1046E000DEB76B970FB6F894DEBF0FBECDBFFC01EF
:1046F000EDB6FEB6448155814F5F5F4F8DB79EB7D3
:10470000841B950B0FB6F8949EBF0FBE8DBF0DB7DF
:104710001EB70F5F1F4FCF01B80120E030E00E94AD
:104720001FD0CE01019666E474E1A80121E00E9449
:10473000BE7D8B819C8190933411809333118D8148
:104740009E81AF81B8858093351190933611A093E7
:104750003711B093381189859A85AB85BC858093D4
:10476000391190933A11A0933B11B0933C11ADE3F2
:10477000B1E1FE013D968DE001900D928150E1F78F
:104780008A8D9B8D90934B1180934A11CE01019697
:104790000E942E7A81E391E10E94967A882329F47F
:1047A00081ED98E164E874E007C0F0DC882341F40F
:1047B00081ED98E165E974E00E945BCE80E00DC078
:1047C00081E391E10E94837A6093581170935911AB
:1047D00080935A1190935B1181E00FB6F894FEBE5E
:1047E0000FBEEDBE6B960FB6F894DEBF0FBECDBF09
:1047F000CF91DF911F910F91FF90EF900895AF92AD
:10480000BF92CF92DF92EF92FF920F931F93DF93AD
:10481000CF93CDB7DEB76B970FB6F894DEBF0FBE60
:10482000CDBF6C01ADB6BEB64091D2105091D31041
:104830004F5F5F4F8DB79EB7841B950B0FB6F894F3
:104840009EBF0FBE8DBF0DB71EB70F5F1F4F8EEC03
:1048500090E1B80120E030E00E941FD07E01089472
:10486000E11CF11CC70166E474E1A80123E10E9488
:10487000BE7DC7010E94967A8823D1F081ED98E130
:104880006DE974E00E9475CD81ED98E16EEC70E108
:104890000E949ECEC701B6010E949ECEC7010E9413
:1048A000A37A81ED98E16EEA74E00E945BCE0CC0C1
:1048B00081ED98E164EB74E00E9475CD81ED98E1A3
:1048C0006EEC70E10E949ECECE0101960E942E7A7F
:1048D0000FB6F894BEBE0FBEADBE6B960FB6F89481
:1048E000DEBF0FBECDBFCF91DF911F910F91FF9023
:1048F000EF90DF90CF90BF90AF900895EF92FF922E
:104900000F931F93DF93CF93CDB7DEB765970FB6A5
:10491000F894DEBF0FBECDBF85E361E00E94EEC517
:1049200086E494E165E30E94DE7E882329F481ED2C
:1049300098E163EC74E02DC081ED98E16FED74E0D7
:104940000E945BCE01E000931C1181ED98E161EFC4
:1049500074E00E945BCE85ED90E161E045E30E944A
:1049600034818823C9F481ED98E169E075E00E9403
:104970005BCE81ED98E161E375E00E945BCE81ED55
:1049800098E16AE475E00E945BCE81ED98E164E60F
:1049900075E00E945BCE11C181ED98E168EA75E097
:1049A0000E945BCE00931D118091E010823049F08F
:1049B000833061F0813081F48EE191E161ED75E049
:1049C00009C08EE191E165ED75E004C08EE191E1F1
:1049D00069ED75E00E9407D281ED98E16EED75E01A
:1049E0000E9475CD81ED98E16EE171E10E949ECE4D
:1049F00081EE90E165ED70E141E00E945E8C8823DC
:104A0000B1F481EE90E165ED70E140E00E945E8CD2
:104A1000882369F481ED98E16BEE75E00E945BCE2E
:104A20008AE291E165E376E00E9407D2C6C081E0A8
:104A30008093251138E0E32EF12CEC0EFD1EC7010A
:104A400061E476E00E94EED18E010F5F1F4FC80136
:104A50006091F8104AE00E941ED2C701B8010E947E
:104A6000A2D1BC018AE291E10E949FD2C8010E94BA
:104A7000C6D2C7010E94CBD28E01015F1F4FC80171
:104A800065E476E00E94EED1C8016AE271E10E941D
:104A9000A2D1BC0181ED98E10E949ECEC8010E9486
:104AA000CBD26091E51070E080E090E02091EA10B8
:104AB0003091EB104091EC105091ED100E94D5D543
:104AC00029E0660F771F881F991F2A95D1F76093F9
:104AD000261170932711809328119093291181ED4D
:104AE00098E166E576E00E9475CD409126115091DF
:104AF0002711609128117091291181ED98E12AE028
:104B000030E00E9434CD81ED98E16CE676E00E94C1
:104B100075CD609126117091271180912811909187
:104B2000291120E034E040E050E00E9449D6BA016B
:104B30002093261130932711409328117093291147
:104B400081ED98E1A9012AE030E00E9434CD81EDA9
:104B500098E163E876E00E9475CD6091261170912E
:104B60002711809128119091291120E034E040E034
:104B700050E00E9449D6BA012093261130932711A4
:104B8000409328117093291181ED98E1A9012AE041
:104B900030E00E9434CD81ED98E16AE976E00E9430
:104BA0005BCE8FEF90E161EE70E10E9473868FEF34
:104BB00090E167E040E00E946D8765960FB6F8943B
:104BC000DEBF0FBECDBFCF91DF911F910F91FF9040
:104BD000EF900895AF92BF92CF92DF92EF92FF9243
:104BE0000F931F938FE591E10E94B67683EA91E1DE
:104BF0000E94B6768FE591E10E94FC6F6115710508
:104C00008105910509F048C060918F0F7091900F58
:104C10008091910F9091920F2091970F3091980F62
:104C20004091990F50919A0F260F371F481F591F17
:104C30000E9418CF5B016C016091930F7091940FEB
:104C40008091950F9091960F20919B0F30919C0F22
:104C500040919D0F50919E0F260F371F481F591FDF
:104C60000E9418CF7B018C01C601B5010E94D7D3E9
:104C70005B016C01C801B7010E94D7D39B01AC0155
:104C8000C601B5010E94FD1C0E94A4D3AB01BC016A
:104C90008FE591E10E94917183EA91E10E94FC6F9E
:104CA000611571058105910509F048C060918F0F6C
:104CB0007091900F8091910F9091920F2091970F8A
:104CC0003091980F4091990F50919A0F260F371FEE
:104CD000481F591F0E9418CF5B016C016091930F10
:104CE0007091940F8091950F9091960F20919B0F4A
:104CF00030919C0F40919D0F50919E0F260F371FB2
:104D0000481F591F0E9418CF7B018C01C601B501B5
:104D10000E94D7D35B016C01C801B7010E94D7D3B1
:104D20009B01AC01C601B5010E94C61C0E94A4D320
:104D3000AB01BC0183EA91E10E9491711F910F9137
:104D4000FF90EF90DF90CF90BF90AF900895EF92DB
:104D5000FF920F931F93CF93DF93C0E0D0E081EDDC
:104D600098E164ED76E00E9475CD81ED98E1BE0199
:104D70004AE050E00E9458CD8FE591E10E94FC6F1F
:104D8000611571058105910509F469C083EA91E116
:104D90000E94FC6F611571058105910509F45FC0E2
:104DA0008FE591E10E94B67683EA91E10E94B676A2
:104DB000E3CF6EEF7FEF8FEF9FEF23E030E040E037
:104DC00050E00E9418CF7B018C01A701662757FD98
:104DD0006095762F8FE591E10E94A27181ED98E1B7
:104DE0006DED76E00E9475CD81ED98E1B7014AE066
:104DF00050E00E9458CD83EA91E10E94FC6F61155A
:104E000071058105910511F56EEF7FEF8FEF9FEF33
:104E100023E030E040E050E00E9418CF7B018C019D
:104E2000A701662757FD6095762F83EA91E10E94DE
:104E3000A27181ED98E163EF76E00E9475CD81ED7E
:104E400098E1B7014AE050E00E9458CD0E94111E3F
:104E5000219683E0C83ED80709F081CF0AC08FE5CC
:104E600091E10E94FC6F611571058105910519F6AC
:104E7000A0CFDF91CF911F910F91FF90EF900895F8
:104E8000AF92BF92CF92DF92EF92FF920F931F9358
:104E9000CF93DF93EC015B016A018BE290E169E063
:104EA00070E00E948D78CA15DB059CF4760100271E
:104EB000F7FC0095102F8BE290E1BE010E947677FF
:104EC000C801B7010E9429C52196AC16BD069CF702
:104ED00012C076010027F7FC0095102F8BE290E1BD
:104EE000BE010E947677C801B7010E9429C52197AB
:104EF000CA15DB059CF78BE290E10E940A77DF91EF
:104F0000CF911F910F91FF90EF90DF90CF90BF90C6
:104F1000AF900895EF92FF920F931F93DF93CF937B
:104F2000CDB7DEB727970FB6F894DEBF0FBECDBF63
:104F300080914C1090914D1020912E10029714F1F9
:104F4000222329F0E090D20FF090D30F04C0E0901C
:104F5000D40FF090D50F8E010F5F1F4FC80161E491
:104F600072E10E94B4D2C8010EDB9093D50F8093FA
:104F7000D40FC8010E94C6D26091D40F7091D50F92
:104F8000C7010AC0213059F46091D40F7091D50F38
:104F90008091D20F9091D30F43E050E071DF1092D7
:104FA0002E1027960FB6F894DEBF0FBECDBFCF915F
:104FB000DF911F910F91FF90EF900895EF92FF9274
:104FC0000F931F93DF93CF93CDB7DEB727970FB61D
:104FD000F894DEBF0FBECDBF80914C1090914D1064
:104FE00020912E10029714F1222329F0E090D20F85
:104FF000F090D30F04C0E090D40FF090D50F8E0145
:105000000F5F1F4FC80161E472E10E94B4D2C80172
:10501000BADA9093D30F8093D20FC8010E94C6D200
:105020006091D20F7091D30FC7010AC0222359F4A7
:105030006091D20F7091D30F8091D40F9091D50FC2
:1050400043E050E01DDF81E080932E1027960FB6DD
:10505000F894DEBF0FBECDBFCF91DF911F910F91AE
:10506000FF90EF900895EF92FF920F931F93CF93CD
:10507000DF93182F86E6E82E80E1F82EC70162E361
:1050800044EB22E30E947798C12FD0E0CE01019635
:10509000A7EEB1E1CC0FDD1FCC0FDD1FFD01EC0F42
:1050A000FD1F60817181CA0FDB1F4A815B81880F00
:1050B000991F880F991FFD01E80FF91F2081318189
:1050C000A80FB91F12960D911C911397C7010E944A
:1050D0007299C70162E344EB22E30E948F98C701F3
:1050E0006FEF4FEF2FEF0E947798DF91CF911F91D5
:1050F0000F91FF90EF9008958F929F92AF92BF9281
:10510000CF92DF92EF92FF920F931F93DF93CF9393
:10511000CDB7DEB727970FB6F894DEBF0FBECDBF71
:105120004C0126E6C22E20E1D22EC60160E040E00E
:1051300020E00E9477984091ED115091EE1197EE8A
:10514000A92E91E1B92EF501608171818A01085E75
:105150001F4FC601465F5F4F20E431E00E94729905
:10516000C6016FEF4FEF2FEF0E947798C60160E006
:1051700040E020E00E948F987E010894E11CF11C21
:10518000C701B4010E94B4D2F50140815181209140
:10519000ED113091EE11265F3F4FC601B70100E0DF
:1051A00010E00E9444A0C7010E94C6D227960FB605
:1051B000F894DEBF0FBECDBFCF91DF911F910F914D
:1051C000FF90EF90DF90CF90BF90AF909F908F9027
:1051D00008952F923F924F925F926F927F928F929B
:1051E0009F92AF92BF92CF92DF92EF92FF920F9376
:1051F0001F93DF93CF93CDB7DEB7E0970FB6F89448
:10520000DEBF0FBECDBF4C015B0158AB4FA781ED98
:1052100098E169E077E00E9475CD81ED98E1B501F4
:105220000E949ECE81ED98E164E277E00E945BCE21
:105230001092051110920611109207111092081188
:105240001092091110920A1110920B1110920C1168
:105250008E010F5F1F4FC80166E377E00E94D5D132
:10526000C50167E072E00E946ED0882341F4C50159
:10527000B8010E94C4D0882311F477246CC077242D
:10528000739469C08F85882309F47DC0853E09F435
:1052900072C08E3209F46FC08A8D83FD6CC0C60166
:1052A00066E377E00E94D5D1710100E010E0D701FC
:1052B0008C918032C9F0083041F4C60168E070E09A
:1052C0000E9446CFFC01608202C0083028F0B8017D
:1052D0006F5F7F4FC60102C0C601B8010E9446CF72
:1052E000FC01D7018C9180830F5F1F4F0894E11C54
:1052F000F11C0B301105D9F6EFA5F8A91E161F06F3
:105300009CF4772041F081ED98E1B6010E949ECE99
:10531000C401B60111C0C601B5010E94C4D08823E2
:10532000B1F07724739413C0C601B5010E94C4D0B4
:10533000882349F0C401B2010E94B4D2CE0108967C
:105340000E94C6D224C0C201B6010E949FD2C601EB
:105350000E94C6D210C05FE0252E312C2C0E3D1EBF
:1053600048E0C42ED12CCC0EDD1E3EE2632E2E0171
:105370000894411C511C8FEF90E1B1010E9495856A
:1053800018160CF47FCFC401B5010E94B4D2CE012F
:1053900001960E94C6D2C401E0960FB6F894DEBF13
:1053A0000FBECDBFCF91DF911F910F91FF90EF9076
:1053B000DF90CF90BF90AF909F908F907F906F9035
:1053C0005F904F903F902F900895EF92FF920F9330
:1053D0001F93DF93CF93CDB7DEB727970FB6F8941F
:1053E000DEBF0FBECDBF86E690E160E040E020E08A
:1053F0000E9477984091ED115091EE116091E71164
:105400007091E8118A01085E1F4F86E690E1465FC1
:105410005F4F20E431E00E94729986E690E16FEFE1
:105420004FEF2FEF0E94779886E690E160E040E032
:1054300020E00E948F988EEC90E167E072E00E947D
:105440006ED0882341F48EEC90E166E377E00E9411
:105450006ED0882399F04091E7115091E811209186
:10546000ED113091EE11265F3F4F86E690E163E447
:1054700077E000E010E00E94929E1DC07E0108943B
:10548000E11CF11CC7016EEC70E10E94B4D24091A6
:10549000E7115091E8112091ED113091EE11265F46
:1054A0003F4F86E690E1B70100E010E00E9444A083
:1054B000C7010E94C6D227960FB6F894DEBF0FBE72
:1054C000CDBFCF91DF911F910F91FF90EF90089585
:1054D0000F931F9390E0FC013197E432F10508F03F
:1054E00036C6EE58FF4FEE0FFF1F0590F491E02DEA
:1054F000199480E0B8DD8091BA0F869590E04091D4
:10550000E7115091E8114A505040480F591F20911F
:10551000E9113091EA112C503040280F391F86E6EE
:1055200090E168E477E000E010E00E94929E209114
:10553000BA0F269530E04091E7115091E8114E5096
:105540005040420F531F8091E9119091EA11280FAA
:10555000391F86E690E16CE477E0F7C580E083DDF3
:105560008091BA0F869590E04091E7115091E81133
:1055700046515040480F591F2091E9113091EA11CE
:105580002C503040280F391F86E690E161E577E026
:1055900000E010E00E94929E2091BA0F269530E024
:1055A0004091E7115091E81146505040420F531F6F
:1055B0008091E9119091EA11280F391F86E690E158
:1055C00068E577E0C2C580E04EDD8091BA0F869530
:1055D00090E04091E7115091E81146515040480F3A
:1055E000591F2091E9113091EA112C503040280FB9
:1055F000391F86E690E161E577E000E010E00E9467
:10560000929E2091BA0F269530E04091E71150917B
:10561000E8114A505040420F531F8091E911909178
:10562000EA11280F391F86E690E16BE577E08DC51A
:1056300082E019DD8091BA0F869590E04091EF11DC
:105640005091F0114E505040480F591F2091F111C8
:105650003091F21122513040280F391F86E690E137
:105660006FE577E000E010E00E94929E8091BA0F13
:10567000869590E04091EF115091F0114E505040BE
:10568000480F591F2091F1113091F21126503040EE
:10569000280F391F86E690E164E677E00E94929E2B
:1056A0008091BA0F869590E04091EF115091F011E2
:1056B00046505040480F591F2091F1113091F2117E
:1056C0002A5F3F4F280F391F86E690E169E677E0B1
:1056D0003CC584E0C8DC8091BA0F869590E040918B
:1056E000F7115091F8114E505040480F591F20911A
:1056F000F9113091FA1126503040280F391F86E6F3
:1057000090E16CE677E09AC384E0ADDC8091BA0F5B
:10571000869590E04091F7115091F8114251504018
:10572000480F591F2091F9113091FA112C50304037
:10573000280F391F86E690E161E777E000E010E08E
:105740000E94929E2091BA0F269530E04091F71169
:105750005091F81142515040420F531F8091F9115E
:105760009091FA11280F391F86E690E167E777E0FC
:10577000ECC486E078DC8091BA0F869590E0409189
:10578000FF115091001242515040480F591F209173
:1057900001123091021226503040280F391F86E640
:1057A00090E16DE777E04AC386E05DDC8091BA0F57
:1057B000869590E04091FF11509100124651504063
:1057C000480F591F2091011230910212265030408B
:1057D000280F391F86E690E163E877E02FC384E065
:1057E00042DC8091BA0F869590E04091F71150917C
:1057F000F81142515040480F591F2091F911309132
:10580000FA1126503040280F391F86E690E16AE8E9
:1058100077E014C388E027DC8091BA0F869590E08A
:1058200040910712509108124A505040480F591F9A
:105830002091091230910A122C503040280F391F44
:1058400086E690E160E977E000E010E00E94929E39
:105850002091BA0F269530E040910712509108121E
:1058600046505040420F531F8091091290910A12E6
:10587000280F391F86E690E164E977E066C488E086
:10588000F2DB8091BA0F869590E04091071250911B
:1058900008124A505040480F591F20910912309168
:1058A0000A122C503040280F391F86E690E160E93B
:1058B00077E000E010E00E94929E2091BA0F2695BA
:1058C00030E040910712509108124E505040420F64
:1058D000531F8091091290910A12280F391F86E6F2
:1058E00090E167E977E031C482E0BDDB8091BA0FD7
:1058F000869590E04091EF115091F0114C5050403E
:10590000480F591F2091F1113091F2112C50304065
:10591000280F391F86E690E16CE977E000E010E09F
:105920000E94929E2091BA0F269530E04091EF118F
:105930005091F0114C505040420F531F8091F11183
:105940009091F211AFC088E08EDB8091BA0F8695FE
:1059500090E040910712509108124C505040480F6F
:10596000591F2091091230910A122C503040280FF3
:10597000391F86E690E166EA77E000E010E00E94D9
:10598000929E2091BA0F269530E0409107125091D7
:1059900008124C505040420F531F809109129091B1
:1059A0000A1280C086E05FDB8091BA0F869590E096
:1059B0004091FF11509100124E505040480F591F16
:1059C000209101123091021226503040280F391FC9
:1059D00086E690E16BEA77E031C28AE044DB8091B1
:1059E000BA0F869590E040910F12509110124E50D0
:1059F0005040480F591F209111123091121222511C
:105A00003040280F391F86E690E16FE577E01AC035
:105A10008AE029DB8091BA0F869590E040910F12C1
:105A2000509110124E505040480F591F20911112A2
:105A30003091121222513040280F391F86E690E132
:105A400065EB77E000E010E00E94929E8091BA0F33
:105A5000869590E040910F12509110124E50504098
:105A6000480F591F209111123091121226503040C8
:105A7000280F391F86E690E160EB77E00E94929E46
:105A80008091BA0F869590E040910F1250911012BC
:105A90004E505040480F591F209111123091121250
:105AA0002A5F3F4F280F391F86E690E161EA77E0D1
:105AB0004CC38AE0D8DA8091BA0F869590E0409185
:105AC0000F12509110124E505040480F591F209104
:105AD0001112309112122C503040280F391F86E6D7
