:100000000C94E8100C9415110C9415110C94151106
:100010000C9415110C9415110C9415110C941511C8
:100020000C9415110C9415110C9415110C941511B8
:100030000C9415110C9415110C9415110C941511A8
:100040000C9415110C9491970C9415110C94151196
:100050000C9415110C9415110C9415110C949DCB46
:100060000C9415110C94F3CD0C9437CF0C941511FE
:100070000C9415110C9415110C9415110C94151168
:100080000C9464970C9415110C9415110C94151183
:100090000C9433CE0C9476CF0C9415110C9415114E
:1000A0000C9415110C9415110C9437970C94151190
:1000B0000C9415110C9415110C9415110C940A97AD
:1000C0000C9415110C9415110C9415110C9473CEFD
:1000D0000C94B5CF0C9415110C94B3CE0C94F4CFB2
:1000E0000C9415115F2E682FB92F093024303F3042
:1000F0005A308F300D32DE31F330C430FA35FA35F4
:1001000022313D31FA355732283254335B342C34A6
:10011000C13491340B33F032BB328C32C233713381
:10012000F733942EC92E5831A931D42FFE2EFA352B
:10013000A9318D355D352735F734332FC335D24B93
:10014000FA4FD54BD94BFA4FDE4BE64BEE4B1B4CDF
:10015000DF4D074EFA4FFA4F2F4E924DFA4F4A4C51
:10016000774C484E4A4E754EA34ECE4EA64CCE4CC2
:10017000164D3E4D404E3E4E424ECA4BCE4BD04D9C
:10018000444EFC4E824DFA4F464E134F464F784F29
:10019000AA4FFF4EDB4FFF9D1F9E469EBF9EBF9EF8
:1001A000BF9E5C9EF29EFF9DF29E7F9EF29E8E9E63
:1001B0008E9EAC9EAC9E469EBF9EBF9E469E8E9ED1
:1001C000F29EBF9ED79EF29EF29EF29EF29EF29EFD
:1001D00020A8BBA9D8AACEAB0BAD0BADE6AE4EB0F6
:1001E0005DB55BB1B5B222B3EAB6F3B7A4B9A4B9B1
:1001F000D8AAA4BAA4BAD8AAC6B8FFBBA0ADC8BC36
:1002000097BD9DBFC4BE56C09FC105A84CCDB2D4FA
:100210004EB93836A9020C50B9918688083CA6AA76
:10022000AA2ABE000000803F000000006410B71D35
:10023000C8206E3BAC30D9269041DC76F4516B6B14
:100240005861B24D3C7105502083B8ED44930FF0D6
:10025000E8A3D6D68CB361CBB0C2649BD4D2D3868C
:1002600078E20AA01CF2BDBD50424D20696D616765
:1002700065206D757374206265206174206C656102
:10028000737420313020706978656C7320776964ED
:10029000652E002C206D61782064656E7369747919
:1002A0003A20002C2070656E2077696474683A20CB
:1002B0000050656E776964746820746573742000FB
:1002C0002C20726564756365643A002C206F757428
:1002D0004D61783A002C20696E4D61783A00696E64
:1002E00044656E733A004D61782064656E7369747D
:1002F000793A20002C20726F7753697A653A200092
:10030000466F722070656E53697A653A20002C2022
:10031000736F20726F7773697A6520696E207374CA
:100320006570733A20002C206D6D506572537465B2
:10033000703A2000726F7773697A6520696E206D5C
:100340006D3A20002073746570732E003A20004DC2
:10035000696E207365676D656E742073697A6520B8
:10036000666F722070656E53697A65200063616CF8
:10037000632053450063616C63204E570063616CDA
:10038000632053570063616C63204E450063616CCA
:1003900063756C61746564204E450063616C6375C0
:1003A0006C617465642053570063616C63756C61A4
:1003B0007465642053450063616C63756C6174659A
:1003C00064204E57002E002C20736F7572636542B7
:1003D0003A20002E20536F75726365413A20002C3D
:1003E00020746172676574423A20005461726765D7
:1003F00074413A20002C206F4F7574206E756D6229
:100400006572206F662077617665733A20002C2034
:10041000696E7075742064656E736974793A200032
:100420004D617820776176657320776974682074F0
:100430006869732070656E20616E642067726964FC
:1004400073697A653A20002E002E20656E64207054
:100450006F696E743A2000537461727420706F6912
:100460006E743A2000643A204E4500643A204E579C
:1004700000643A20535700643A205345002C206D05
:1004800061782064656E736974793A20002C20705D
:10049000656E2077696474683A200050656E7769EC
:1004A000647468207465737420004368616E6769C2
:1004B0006E67206261636B20746F206C69766520C3
:1004C0006D6F64652E0046696C652072656D6F7690
:1004D00065642E0046696C6520616C7265616479A3
:1004E000206578697374732E004578656375746947
:1004F0006E6720636F6D6D616E643A0053746F7246
:10050000696E6720636F6D6D616E643A006D6D009A
:100510004368616E6765642050656E207769647416
:100520006820746F20004E657720616363656C6599
:10053000726174696F6E3A20004E6577206D617844
:100540002073706565643A200055703A2000446F4E
:10055000776E3A2000504753504545442C00504791
:100560004C4946542C005047535445504D554C541B
:1005700049504C4945522C00504753544550535014
:1005800045525245562C0050474D4D50455252450C
:10059000562C00504753495A452C0050474E414D68
:1005A000452C002900526563616C632070616765AA
:1005B00048656967687420696E207374657073207C
:1005C00028002900526563616C632070616765577C
:1005D0006964746820696E207374657073202800E4
:1005E0002900292C2073746570735065724D4D205D
:1005F0002800526563616C63206D6D5065725374A1
:1006000065702028004C6F61646564206D6F746FA5
:10061000722073746570206D756C7469706C696597
:10062000723A004C6F61646564206D616368696E45
:1006300065206E616D653A004C6F6164656420757C
:100640007020706F733A004C6F6164656420646F52
:10065000776E20706F733A004C6F61646564206D33
:100660006F746F722073746570732070657220727E
:1006700065763A004C6F61646564206D6D2070652D
:1006800072207265763A004C6F61646564206D611A
:100690006368696E65206865696768743A004C6FC5
:1006A00061646564206D616368696E652077696463
:1006B00074683A002069736E2774206120636F6D3F
:1006C0006D616E642049207265636F676E69736542
:1006D0002E00536F7272792C200029206E6F7420C7
:1006E0007061727365642E00436F6D6D616E64207E
:1006F0002800436865636B73756D206E6F74206DA1
:10070000617463686564213A004920676F74200052
:10071000536572766F200048617264776172653A42
:1007200020007600504F4C41524752415048204FD4
:100730004E21007C3C3E5E2B3D3F2F5B5D3B2C2AD7
:10074000225C00080C205F00000000000000000098
:1007500000000000002020202020200020000000B9
:10076000285050000000000000000000002828FC75
:100770002850FC50500000002078A8A0603028A825
:10078000F02000000048A8B0502834544800000071
:100790000020505078A8A8906C00000040408000D5
:1007A00000000000000000000408101010101010DD
:1007B000080400004020101010101010204000000D
:1007C000000020A87070A820000000000020202059
:1007D000F8202020000000000000000000000000C1
:1007E0004040800000000000F80000000000000011
:1007F0000000000000000000400000000810101081
:1008000020204040408000000070888888888888C8
:1008100070000000002060202020202070000000D8
:100820000070888810204080F80000000070880860
:100830003008088870000000001030505090781088
:100840001800000000F88080F008088870000000A0
:1008500000709080F08888887000000000F8901088
:100860002020202020000000007088887088888860
:1008700070000000007088888878084870000000C8
:100880000000002000000000200000000000000028
:100890002000000020200000040810204020100844
:1008A00004000000000000F80000F8000000000054
:1008B00040201008040810204000000000708888C4
:1008C000102020002000000000708898A8A8B880A0
:1008D000780000000020203050507848CC00000004
:1008E00000F0484870484848F000000000788880D0
:1008F000808080887000000000F0484848484848E0
:10090000F000000000F8485070504048F800000027
:1009100000F8485070504040E00000000038488027
:10092000809C88483000000000CC484878484848FF
:10093000CC00000000F8202020202020F80000003B
:10094000007C10101010101090E0000000EC4850D7
:1009500060505048EC00000000E0404040404044FF
:10096000FC00000000D8D8D8D8A8A8A8A80000008B
:1009700000DC486868585848E80000000070888823
:10098000888888887000000000F048487040404027
:10099000E0000000007088888888E89870180000DF
:1009A00000F0484870504848EC000000007888800B
:1009B00060100888F000000000F8A8202020202007
:1009C0007000000000CC484848484848300000000B
:1009D00000CC4848505030202000000000A8A8A8B3
:1009E000705050505000000000D8505020205050FF
:1009F000D800000000D850502020202070000000B7
:100A000000F8901020204048F800000038202020F6
:100A100020202020203800004040402020101010CE
:100A2000080000007010101010101010107000005E
:100A30002050000000000000000000000000000046
:100A4000000000000000FC0020000000000000008A
:100A50000000000000000000304838483C00000062
:100A600000C040407048484870000000000000008E
:100A70003848404038000000001808083848484806
:100A80003C000000000000003048784038000000C2
:100A9000001C2020782020207800000000000000AA
:100AA0003C4830407844380000C0404070484848D6
:100AB000EC000000002000006020202070000000FA
:100AC00000100000301010101010E00000C0404076
:100AD0005C507048EC00000000E020202020202026
:100AE000F800000000000000F0A8A8A8A80000007E
:100AF00000000000F0484848EC0000000000000042
:100B0000304848483000000000000000F0484848E5
:100B10007040E000000000003848484838081C00D9
:100B200000000000D8604040E0000000000000002D
:100B3000784030087800000000002020702020203D
:100B40001800000000000000D84848483C000000A1
:100B500000000000EC4850302000000000000000C1
:100B6000A8A870505000000000000000D85020508D
:100B7000D800000000000000EC4850302020C000E9
:100B800000000000781020207800000018101010DD
:100B9000201010101018001010101010101010104D
:100BA0001010100060202020102020202060004025
:100BB000A4180000000000000000001010205F00DA
:100BC0000000000000000000000000000000000025
:100BD0000000000000000000000000000000000015
:100BE00000000007000F800F800F800F800F80072C
:100BF00000070000000000070007000700000000D9
:100C0000000E380E380E380E380630000000000096
:100C100000000000000000000000000000000000D4
:100C2000000C300C300C307FFE7FFE0C300C300C92
:100C3000300C307FFE7FFE0C300C300C300000009A
:100C400000024002400FF81FF81A401A401FF00F30
:100C5000F8025802581FF81FF0024002400000003E
:100C600000000000000E100E300E7000E001C00306
:100C70008007000E700C700870000000000000007B
:100C80000000000F001980198019800F000F080F55
:100C90009819F818F018E019F00F980000000000FB
:100CA0000000000700070007000E00000000000021
:100CB0000000000000000000000000000000000034
:100CC00000000000F001C0038007000E000E000EBF
:100CD000000E000700038001C000F00000000000CB
:100CE0000000000F00038001C000E00070007000F1
:100CF00070007000E001C003800F000000000000E1
:100D000000000001801188099007E007E03FFC3FE8
:100D1000FC07E007E0099011880180000000000056
:100D2000000000000000000180018001800FF00F32
:100D3000F001800180018000000000000000000040
:100D400000000000000000000000000000000000A3
:100D500000000000000700070007000E0000000070
:100D6000000000000000000000000000001FF81F4D
:100D7000F80000000000000000000000000000007B
:100D80000000000000000000000000000000000063
:100D9000000000000007000700070000000000003E
:100DA00000000000020006000E001C003800700069
:100DB000E001C0038007000E001C000000000000DE
:100DC0000000000FF01C381C781CF81CF81DB81D22
:100DD000B81F381F381E381C380FF0000000000004
:100DE0000000000180018003801F801F80038003BA
:100DF0008003800380038003801FF0000000000058
:100E00000000000FE01C701C380038007000E0018A
:100E1000C0038007000E381C381FF80000000000D7
:100E20000000000FE01C701C380038007003C00385
:100E3000C0007000381C381C700FE000000000007B
:100E400000000000E001E003E006E00CE018E01F15
:100E5000F81FF800E000E000E003F80000000000E8
:100E60000000001FF81C001C001C001C001FE01FDD
:100E7000F0007800381C381C700FE0000000000003
:100E800000000003E007000E001C001C001FF01F04
:100E9000F81C381C381C381C380FF000000000000B
:100EA0000000001FFC1C1C1C1C1C1C001C0038002B
:100EB0007000E001C0038003800380000000000098
:100EC0000000000FF01C381C381C381F3807E007E2
:100ED000E01CF81C381C381C380FF0000000000023
:100EE0000000000FF01C381C381C381C381FF80F8D
:100EF000F800380038007000E007C0000000000073
:100F00000000000000000003800380038000000058
:100F10000003800380038000000000000000000048
:100F20000000000000000003800380038000000038
:100F30000003800380038007000000000000000021
:100F400000007000E001C0038007000E001C001CC0
:100F5000000E000700038001C000E00070000000E8
:100F60000000000000000000003FFC3FFC0000000B
:100F7000003FFC3FFC0000000000000000000000FB
:100F8000001C000E000700038001C000E00070009C
:100F90007000E001C0038007000E001C000000008C
:100FA0000003C00FF01E7818380038007000E00110
:100FB000C001C00000000001C001C001C00000006D
:100FC000000FF81C1C1C1C1C1C1C1C1CFC1CFC1CEE
:100FD000FC1CFC1C001C001C001FF007F80000009B
:100FE00000000003C007E00E701C381C381C381CC1
:100FF000381FF81C381C381C381C38000000000052
:101000000000001FF00E380E380E380E380FF00FAB
:10101000F00E380E380E380E381FF00000000000B9
:1010200000000007F00E381C381C001C001C001CBF
:10103000001C001C001C380E3807F00000000000E7
:101040000000001FE00E700E380E380E380E380EFD
:10105000380E380E380E380E701FE0000000000009
:101060000000001FF80E180E080E000E300FF00FD3
:10107000F00E300E000E080E181FF80000000000E1
:101080000000001FF80E180E080E000E300FF00FB3
:10109000F00E300E000E000E001F000000000000D9
:1010A00000000007F00E381C381C381C001C001C07
:1010B000001CF81C381C380E3807F800000000002F
:1010C0000000001C701C701C701C701C701FF01F36
:1010D000F01C701C701C701C701C70000000000064
:1010E0000000000FE003800380038003800380037F
:1010F0008003800380038003800FE0000000000075
:1011000000000001FC0070007000700070007000B2
:101110007038703870387038700FE00000000000D0
:101120000000001E380E380E700EE00FC00F800F4A
:10113000800FC00EE00E700E381E38000000000058
:101140000000001F000E000E000E000E000E000E2C
:10115000000E000E080E180E381FF80000000000E8
:101160000000001C1C1E3C1F7C1FFC1FFC1DDC1C07
:101170009C1C1C1C1C1C1C1C1C1C1C0000000000BB
:101180000000001C1C1C1C1E1C1F1C1F9C1DDC1CAA
:10119000FC1C7C1C3C1C1C1C1C1C1C0000000000BB
:1011A00000000003E007F00E381C1C1C1C1C1C1C5B
:1011B0001C1C1C1C1C0E3807F003E0000000000083
:1011C0000000001FF00E380E380E380E380FF00FEA
:1011D000F00E000E000E000E001F000000000000C8
:1011E00000000003E00F780E381C1C1C1C1C1C1C8B
:1011F0001C1C7C1CFC0FF80FF8003800FC000000E1
:101200000000001FF00E380E380E380E380FF00FA9
:10121000F00E700E380E380E381E38000000000038
:101220000000000FF01C381C381C381C000FE007B1
:10123000F000381C381C381C380FF000000000008B
:101240000000001FFC19CC11C401C001C001C00185
:10125000C001C001C001C001C007F00000000000D3
:101260000000001C701C701C701C701C701C701C1A
:10127000701C701C701C701C700FE00000000000DF
:101280000000001C701C701C701C701C701C701CFA
:10129000701C701C700EE007C0038000000000008E
:1012A0000000001C1C1C1C1C1C1C1C1C1C1C9C1C52
:1012B0009C1C9C0FF80FF8077007700000000000DE
:1012C0000000001C701C701C700EE007C00380033F
:1012D0008007C00EE01C701C701C70000000000035
:1012E0000000001C701C701C701C701C700EE0074D
:1012F000C003800380038003800FE0000000000033
:101300000000001FF81C381838107000E001C003FE
:101310008007000E081C181C381FF8000000000091
:1013200000000007F007000700070007000700079C
:1013300000070007000700070007F000000000009A
:10134000000000100018001C000E000700038001C0
:10135000C000E000700038001C0007000000000022
:1013600000000007F0007000700070007000700056
:1013700070007000700070007007F0000000000046
:1013800000018003C007E00E701C38000000000060
:10139000000000000000000000000000000000004D
:1013A000000000000000000000000000000000003D
:1013B00000000000000000000000007FFF7FFF0031
:1013C0000000001C001C00070007000000000000D7
:1013D000000000000000000000000000000000000D
:1013E00000000000000000000000000FE00070009E
:1013F000700FF01C701C701C700FD80000000000F3
:101400000000001E000E000E000E000FF00E380E41
:10141000380E380E380E380E381BF0000000000071
:1014200000000000000000000000000FE01C701C25
:10143000701C001C001C701C700FE00000000000FD
:1014400000000000F80070007000700FF01C701CAD
:10145000701C701C701C701C700FD8000000000005
:1014600000000000000000000000000FE01C701CE5
:10147000701FF01C001C701C700FE00000000000CA
:1014800000000003E007700770070007001FE01F5F
:10149000E007000700070007001FC0000000000071
:1014A00000000000000000000000000FD81C701CAD
:1014B000701C701C700FF007F000701C700FE000C3
:1014C0000000001E000E000E000E000EF00F380F80
:1014D000380E380E380E380E381E38000000000066
:1014E00000000001C001C001C000000FC001C00128
:1014F000C001C001C001C001C00FF8000000000021
:10150000000000007000700070000003F000700028
:101510007000700070007000701C700CF007E0002C
:101520000000001E000E000E000E000E380E700EA1
:10153000E00FC00EE00E700E381E380000000000F4
:101540000000000FC001C001C001C001C001C00106
:10155000C001C001C001C001C00FF80000000000C0
:1015600000000000000000000000001FF81C9C1C90
:101570009C1C9C1C9C1C9C1C9C1C9C000000000037
:1015800000000000000000000000001FE01C701CB4
:10159000701C701C701C701C701C7000000000001F
:1015A00000000000000000000000000FE01C701CA4
:1015B000701C701C701C701C700FE000000000009C
:1015C00000000000000000000000001BF00E380EBC
:1015D000380E380E380E380FF00E000E001F0000C7
:1015E00000000000000000000000001FB038E038DC
:1015F000E038E038E038E01FE000E000E001F00013
:1016000000000000000000000000001EF00FF80FB6
:10161000380E000E000E000E001F0000000000003B
:1016200000000000000000000000000FE01C301C63
:10163000300F8003E0187018700FE0000000000009
:1016400000000000000100030007001FF007000772
:1016500000070007000770077003E00000000000AB
:1016600000000000000000000000001C701C701C46
:10167000701C701C701C701C700FD80000000000E3
:1016800000000000000000000000001C701C701C26
:10169000701C701C700EE007C0038000000000008A
:1016A00000000000000000000000001C1C1C1C1CAE
:1016B0001C1C9C1C9C0FF8077007700000000000A9
:1016C00000000000000000000000001CE01CE00F13
:1016D000C0078007800FC01CE01CE0000000000075
:1016E00000000000000000000000000E380E380E60
:1016F000380E380E3807F003E000E001C01F80000C
:1017000000000000000000000000001FE018E011D1
:10171000C0038007000E201C601FE00000000000D6
:1017200000000001F803800380038007001C001CF8
:1017300000070003800380038001F8000000000020
:101740000001C001C001C001C001C001C001C00151
:10175000C001C001C001C001C001C001C000000043
:101760000000001F8001C001C001C000E00038007F
:101770003800E001C001C001C01F8000000000006F
:101780000000001F1C3B9C39DC38F8000000000002
:101790000000000000000000000000000000002029
:1017A00032300A000000000000000000FFFE0001CF
:1017B000FFFF0003FFFF8001FFFF600CFFFEF01E34
:1017C0000001F83F0001F83F0001F83F0001F83F39
:1017D0000001F83F0001F83F0001F83F0001F83F29
:1017E0000001F83F0001F83F0001F83F0001F83F19
:1017F0000001F83F0001F83E000078380000182092
:101800000000080000000020000000380000183E22
:101810000000783F0001F83F0001F83F0001F83F69
:101820000001F83F0001F83F0001F83F0001F83FD8
:101830000001F83F0001F83F0001F83F0001F83FC8
:101840000001F83F0001F83F0001F81E0000F00C15
:10185000FFFE6001FFFF0003FFFF8001FFFF0000AC
:10186000FFFE00000000000000000000000000007B
:101870000000000000000000000000000000000068
:10188000000060000000F0000001F8000001F80016
:101890000001F8000001F8000001F8000001F80064
:1018A0000001F8000001F8000001F8000001F80054
:1018B0000001F8000001F8000001F8000001F80044
:1018C0000000780000001800000008000000000080
:1018D0000000000000001800000078000001F8007F
:1018E0000001F8000001F8000001F8000001F80014
:1018F0000001F8000001F8000001F8000001F80004
:101900000001F8000001F8000001F8000001F800F3
:101910000001F8000000F00000006000000000007E
:1019200000000000000000000000000000000000B7
:10193000000000000000000000000000FFFE0001A9
:10194000FFFF0003FFFF8001FFFF6000FFFEF000CC
:101950000001F8000001F8000001F8000001F800A3
:101960000001F8000001F8000001F8000001F80093
:101970000001F8000001F8000001F8000001F80083
:101980000001F8000001F80000007801FFFE1803D4
:10199000FFFF880FFFFFE027FFFFC039FFFF003E7A
:1019A0000000003F0000003F0000003F0000003F3B
:1019B0000000003F0000003F0000003F0000003F2B
:1019C0000000003F0000003F0000003F0000003F1B
:1019D0000000003F0000003F0000001E0000000C5F
:1019E000FFFE0001FFFF0003FFFF8001FFFF00007B
:1019F000FFFE0000000000000000000000000000EA
:101A000000000000FFFE0001FFFF0003FFFF800158
:101A1000FFFF6000FFFEF0000001F8000001F80089
:101A20000001F8000001F8000001F8000001F800D2
:101A30000001F8000001F8000001F8000001F800C2
:101A40000001F8000001F8000001F8000001F800B2
:101A500000007801FFFE1803FFFF880FFFFFE0077B
:101A6000FFFFC001FFFF1800000078000001F80030
:101A70000001F8000001F8000001F8000001F80082
:101A80000001F8000001F8000001F8000001F80072
:101A90000001F8000001F8000001F8000001F80062
:101AA0000001F8000000F000FFFE6001FFFF0003EE
:101AB000FFFF8001FFFF0000FFFE000000000000AC
:101AC0000000000000000000000000000000000016
:101AD00000000000000000000000600C0000F01E8C
:101AE0000001F83F0001F83F0001F83F0001F83F16
:101AF0000001F83F0001F83F0001F83F0001F83F06
:101B00000001F83F0001F83F0001F83F0001F83FF5
:101B10000001F83F0001F83E00007839FFFE18236D
:101B2000FFFF880FFFFFE007FFFFC001FFFF180066
:101B3000000078000001F8000001F8000001F80042
:101B40000001F8000001F8000001F8000001F800B1
:101B50000001F8000001F8000001F8000001F800A1
:101B60000001F8000001F8000001F8000000F0009A
:101B70000000600000000000000000000000000005
:101B80000000000000000000000000000000000055
:101B900000000000FFFE0001FFFF0003FFFF8001C7
:101BA000FFFF000CFFFE001E0000003F0000003F92
:101BB0000000003F0000003F0000003F0000003F29
:101BC0000000003F0000003F0000003F0000003F19
:101BD0000000003F0000003F0000003F0000003E0A
:101BE00000000039FFFE0023FFFF800FFFFFE0072A
:101BF000FFFFC001FFFF1800000078000001F8009F
:101C00000001F8000001F8000001F8000001F800F0
:101C10000001F8000001F8000001F8000001F800E0
:101C20000001F8000001F8000001F8000001F800D0
:101C30000001F8000000F000FFFE6001FFFF00035C
:101C4000FFFF8001FFFF0000FFFE0000000000001A
:101C5000000000000000000000000000FFFE000186
:101C6000FFFF0003FFFF8001FFFF000CFFFE001ECF
:101C70000000003F0000003F0000003F0000003F68
:101C80000000003F0000003F0000003F0000003F58
:101C90000000003F0000003F0000003F0000003F48
:101CA0000000003F0000003E00000039FFFE00235E
:101CB000FFFF800FFFFFE027FFFFC039FFFF183E47
:101CC0000000783F0001F83F0001F83F0001F83FB5
:101CD0000001F83F0001F83F0001F83F0001F83F24
:101CE0000001F83F0001F83F0001F83F0001F83F14
:101CF0000001F83F0001F83F0001F81E0000F00C61
:101D0000FFFE6001FFFF0003FFFF8001FFFF0000F7
:101D1000FFFE0000000000000000000000000000C6
:101D200000000000FFFE0001FFFF0003FFFF800135
:101D3000FFFF6000FFFEF0000001F8000001F80066
:101D40000001F8000001F8000001F8000001F800AF
:101D50000001F8000001F8000001F8000001F8009F
:101D60000001F8000001F8000001F8000001F8008F
:101D700000007800000018000000080000000000CB
:101D80000000000000001800000078000001F800CA
:101D90000001F8000001F8000001F8000001F8005F
:101DA0000001F8000001F8000001F8000001F8004F
:101DB0000001F8000001F8000001F8000001F8003F
:101DC0000001F8000000F0000000600000000000CA
:101DD0000000000000000000000000000000000003
:101DE000000000000000000000000000FFFE0001F5
:101DF000FFFF0003FFFF8001FFFF600CFFFEF01EEE
:101E00000001F83F0001F83F0001F83F0001F83FF2
:101E10000001F83F0001F83F0001F83F0001F83FE2
:101E20000001F83F0001F83F0001F83F0001F83FD2
:101E30000001F83F0001F83E00007839FFFE18234A
:101E4000FFFF880FFFFFE027FFFFC039FFFF183EAD
:101E50000000783F0001F83F0001F83F0001F83F23
:101E60000001F83F0001F83F0001F83F0001F83F92
:101E70000001F83F0001F83F0001F83F0001F83F82
:101E80000001F83F0001F83F0001F81E0000F00CCF
:101E9000FFFE6001FFFF0003FFFF8001FFFF000066
:101EA000FFFE000000000000000000000000000035
:101EB00000000000FFFE0001FFFF0003FFFF8001A4
:101EC000FFFF600CFFFEF01E0001F83F0001F83F2D
:101ED0000001F83F0001F83F0001F83F0001F83F22
:101EE0000001F83F0001F83F0001F83F0001F83F12
:101EF0000001F83F0001F83F0001F83F0001F83E03
:101F000000007839FFFE1823FFFF880FFFFFE0076E
:101F1000FFFFC001FFFF1800000078000001F8007B
:101F20000001F8000001F8000001F8000001F800CD
:101F30000001F8000001F8000001F8000001F800BD
:101F40000001F8000001F8000001F8000001F800AD
:101F50000001F8000000F000FFFE6001FFFF000339
:101F6000FFFF8001FFFF0000FFFE000000000000F7
:101F700000000000002100240027002A002D00306E
:101F800000330001010000040107010A01000022E2
:101F900000250028002B002E003100340002010033
:101FA00000050108010B0100002000230026002984
:101FB000002C002F0032000001000003010601097F
:101FC0000105050505070508080808020202020ABE
:101FD0000A080804040404010101010101010103CC
:101FE00003030303030303040707070C0C0C0C0C87
:101FF0000C0C0C0202020206060606060606060B7A
:102000000B0B0B0B0B0B0B010210202008081020F0
:102010004010204080020102010804020101020474
:102020000810204080804020100804020180040233
:10203000018040201008040201080402010102048A
:102040000810204080010204081020408000000990
:102050000A02080B0C0D0706030401000000000033
:102060000000000000000000000000000000000070
:1020700000000000000000000011100F0000000030
:102080000000000000000000000000000000000050
:10209000000000494E46494E4954594E414ECDCC60
:1020A000CC3D0AD7233C17B7D13877CC2B32959546
:1020B000E6241FB14F0A000020410000C842004042
:1020C0001C4620BCBE4CCA1B0E5AAEC59D740040B7
:1020D0007A10F35A00A0724E18090010A5D4E80037
:1020E00000E87648170000E40B54020000CA9A3B4F
:1020F000000000E1F50500008096980000004042D5
:102100000F000000A0860100000010270000000062
:10211000E803000000006400000000000A00000066
:1021200000000100000000002C76D888DC674F0812
:1021300023DFC1DFAE59E1B1B796E5E3E453C63A18
:10214000E651997696E8E6C28426EB898C9B62ED8F
:10215000407C6FFCEFBC9C9F40F2BAA56FA5F49049
:10216000055A2AF75C936B6CF9676DC11BFCE0E4C0
:102170000D47FEF520E6B500D0ED902E0300943516
:1021800077050080841E080000204E0A000000C869
:102190000C333333330F986E12831141EF8D2114BA
:1021A000893BE65516CFFEE6DB18D1844B381BF78A
:1021B0007C1D901DA4BBE424203284725E22810029
:1021C000C9F124ECA1E53D27C11B2F7A64D1BC1BCA
:1021D00011241FBECFEFD1E2DEBFCDBF00E00CBFA8
:1021E00011E1A0E0B2E0EEEEFCEB01E00BBF02C0BB
:1021F00007900D92A43FB107D9F71BBE1BE1A4EFD6
:10220000B1E101C01D92A330B107E1F711E2CEECBC
:10221000D1E204C02297FE010E9425DEC83CD1070E
:10222000C9F70E949AD20C946BDE0C940000EF92D6
:10223000FF920F931F93F22FF02E47FD02C0E4E0B0
:1022400001C0E4E1242F332727FD309537FF03C079
:10225000309521953F4F4F2D512F0F2FEE2E2FD11F
:102260008F2D912F1F910F91FF90EF900895A0E077
:10227000B0E0EDE3F1E10C943CDEEC01A880B98024
:10228000CA80DB80A114B104C104D10441F484E20A
:10229000A82E89EDB82E8BE5C82E87E0D82EC60172
:1022A000B5012DE133EF41E050E00E9408DE27EA5E
:1022B00031E440E050E00E9494DD7B018C01C601D6
:1022C000B5012DE133EF41E050E00E9408DECA0184
:1022D000B9012CEE34EF4FEF5FEF0E9494DD6E0DED
:1022E0007F1D801F911F97FF04C061507040804088
:1022F0009048688379838A839B839B01AC015F77D5
:10230000B901CA01CDB7DEB7EAE00C9458DEAFCF11
:1023100083EA90E1ACCF6093A3107093A4108093F4
:10232000A5109093A61008956627772729C2FC016F
:1023300088279927E89421912032E9F3293010F079
:102340002E30C8F32B3239F02D3231F4689403C0AB
:10235000AED0820F911D219120532A30C8F31EF474
:10236000909581959F4F08951F93FC019927882789
:10237000BC01E89411911032E9F3193010F01E30CD
:10238000C8F31B3249F01D3241F4689405C07AD07D
:10239000610F711D811D911D119110531A30B8F3F9
:1023A0003EF490958095709561957F4F8F4F9F4F2C
:1023B0001F910895FB01DC0104C08D9101908019EB
:1023C00021F441505040C8F7881B990B0895FB0138
:1023D000DC0102C001900D9241505040D8F70895A1
:1023E000FC018191861721F08823D9F79927089558
:1023F0003197CF010895FB01DC018D910190801987
:102400000110D9F3990B0895FB01DC0101900D92A5
:102410000020E1F70895FB01DC014150504030F00D
:102420008D910190801919F40020B9F7881B990B40
:102430000895FB01DC014150504048F001900D929D
:102440000020C9F701C01D9241505040E0F70895A7
:10245000FB0151915523A9F0BF01DC014D914517B6
:102460004111E1F759F4CD010190002049F04D915F
:1024700040154111C9F3FB014111EFCF81E090E01C
:1024800001970895592F482F372F262F660F771F52
:10249000881F991F660F771F881F991F620F731F70
:1024A000841F951F660F771F881F991F08957AE074
:1024B000979F902D879F802D910D11240895A9E05D
:1024C000B0E0E5E6F2E10C9438DE6A01122FA02EAE
:1024D000BE2C2BE3201718F42CE3922E02C0902E72
:1024E0009394AE014F5F5F4F27E0092DA6D2BC0148
:1024F0008981E82EFF24C70189709070019711F43B
:10250000ADE209C0B1FE02C0ABE205C0B0FC02C042
:10251000A0E001C0A0E2E3FE3BC0AA2311F423E047
:1025200001C024E0211710F020E002C0121B212F6F
:10253000EB2CB4FE02C0322F0AC0F601322F80E22B
:1025400002C0819331503323E1F7C20ED11CAA237C
:1025500019F0F601A1936F01F6013196E2FE05C074
:102560009EE4D6019C9381E404C09EE6D6019C9330
:1025700081E611968C9391833296DF01832F90E24E
:1025800002C09D9381508823E1F7E30FF11D40C005
:10259000E2FE42C0AA2311F423E001C024E0211787
:1025A00010F020E002C0121B212FEB2CB4FE02C061
:1025B000922F0AC0F601922F80E202C081939150BF
:1025C0009923E1F7C20ED11CAA2319F0F601A193B9
:1025D0006F01F6013196E2FE08C089E4D6018C93C2
:1025E0008EE411968C9386E407C089E6D6018C931D
:1025F0008EE611968C9386E681833296DF01892FD1
:1026000020E202C02D9381508823E1F7E90FF11DEC
:1026100010822EEF3FEFAFC0161617061CF041E0F8
:1026200050E003C0AB014F5F5F4FAA2019F480E078
:1026300090E003C08A2D90E0019620E030E0AA23CC
:1026400011F021E030E0240F351F280F391F812FB2
:1026500090E02817390714F020E002C0121B212F48
:102660004B2D50E0CA0180719070B4FC0DC0B3FCDA
:102670000BC0F601322F40E202C0419331503323A8
:10268000E1F7C20ED11C01C0322FAA2319F0F601C6
:10269000A1936F01892B11F0132F0AC0F601132F9C
:1026A00080E302C0819311501123E1F7C30ED11CC6
:1026B000092D060FBA8090E1892E912C8E209F2043
:1026C000E4FE04C0F1E3BF1609F40150101614F043
:1026D00001E003C0093008F008E09B0177FF02C069
:1026E00020E030E0CB010196821B930BFE01319676
:1026F000E80FF91F8EE2F82E3B01601A71088A2D4F
:1027000090E044275527481B590B8FEF2F3F380780
:1027100019F4D601FD926D01621773072CF0621651
:10272000730614F4808101C080E32150304031965B
:102730002417350724F0D6018D936D01E6CF2617B7
:10274000370749F4B5E3BB1528F0BB1621F4811413
:10275000910409F481E3F6018193D601812F90E27F
:1027600002C09C93815011968823D9F7E10FF11D87
:10277000108220E030E0C9012996EEE00C9454DE8E
:10278000A0E0B0E0E6ECF3E10C943ADEEC015B0192
:102790006115710519F0FB0191838083F9908F2DEC
:1027A00090E00E9429DE892BC9F7FDE2FF1621F493
:1027B000F990EE24E39405C02BE2F21609F4F990A7
:1027C000EE248E0101501040C80163E970E243E03D
:1027D00050E00BD2892BF9F48E010E5F1F4FC80118
:1027E00066E970E245E050E000D2892B19F48E01D1
:1027F000095F1F4FA114B10419F0F5011183008383
:10280000E0FC04C070E090E080E813C070E090E06D
:1028100080E86FEF07C1C8016BE970E243E050E068
:10282000E4D1892B69F4A114B10429F470E090E09B
:1028300080EC6FE7F7C02296F501D183C083F6CF15
:102840008824992440E050E060E070E0EF2DE053F0
:10285000EA30A0F5F2E0EF2A8E2D90E09C0128707E
:102860003070E2FE06C0232B79F50894811C911C80
:102870002BC0232B19F0089481089108DB01CA01B1
:1028800012E0880F991FAA1FBB1F1A95D1F7480F96
:10289000591F6A1F7B1F440F551F661F771F4E0F5E
:1028A000511D611D711D483929E9520729E9620747
:1028B00029E1720748F084E0E82A06C0EE3F31F4CF
:1028C000E3FC39C098E0E92AF990C0CFE53311F074
:1028D000E53189F529912D3219F4E0E1EE2A05C0A0
:1028E0002B3219F081E090E003C0299182E090E062
:1028F000E22FE053EA3018F0C81BD90B1CC020E0CF
:1029000030E0FCE020383F075CF4C901880F991FD4
:10291000880F991F280F391F220F331F2E0F311DCB
:10292000E991E053EA3068F3E4FE03C03095219565
:102930003F4F820E931ECE2CDD24E1FE07C0A11472
:10294000B10421F02197F501D183C083CB01BA01F5
:102950000E9494DB7B018C01F3E0CF22DD2423E095
:10296000C216D10421F417FB109517F910955701E1
:102970006801C801B70120E030E040E050E00E946B
:10298000F4DA882309F44AC097FE0DC022EBE22E48
:1029900020E2F22E9094819491089394C0E2D0E0CA
:1029A00000E010E012C09AECE92E90E2F92EF6CF8A
:1029B000F7012591359145915491C601B5010E94C9
:1029C0008CDC5B016C018C1A9D0A8C169D0684F7C9
:1029D000D595C7950F5F1F4F0630110529F08CEF75
:1029E0009FEFE80EF91EF1CFC501D6017C018D01E4
:1029F0008C2D880F8D2D881F8F3F51F0C601B5019A
:102A000020E030E040E050E00E94F4DA882331F426
:102A100082E290E09093021B8093011B7E2D9F2DFC
:102A2000802F612F272F392F482F562FB901CA0128
:102A3000CDB7DEB7ECE00C9456DE283008F027E086
:102A40003327DA01990F311D87FD916000966105EA
:102A5000710539F432602E5F3D9330E32A95E1F73A
:102A600008959F3F30F080387105610509F03C5FA3
:102A70003C5F3D93913008F08068911DDF93CF93C8
:102A80001F930F93FF92EF92192F987F9695E92F3E
:102A900096959695E90FFF27E85DFE4D9927332718
:102AA000EE24FF24A701E70105900894079428F479
:102AB000360FE71EF81E491F511D660F771F881F2E
:102AC000991F0694A1F70590079428F4E70EF81EC5
:102AD000491F561FC11D770F881F991F661F069437
:102AE000A1F70590079428F4F80E491F561FC71F39
:102AF000D11D880F991F661F771F0694A1F70590B7
:102B0000079420F4490F561FC71FD81F990F661F3F
:102B1000771F881F0694A9F784911095177041F0CC
:102B2000D695C79557954795F794E7941A95C1F7A9
:102B3000EEECF0E2689415901591359165919591C0
:102B400005907FE27395E118F10A430B560BC90B10
:102B5000D009C0F7E10CF11E431F561FC91FD01D3D
:102B60007EF4703311F48A95E6CFE894015030F08A
:102B7000080F0AF40027021708F4202F2395022FCC
:102B80007A3328F079E37D932A95E9F710C07D9395
:102B90002A9589F606949795679537951795179412
:102BA000E118F10A430B560BC90BD00998F0239595
:102BB0007E9173957A3308F070E37C932013B8F715
:102BC0007E9170617D9330F0839571E37D9370E326
:102BD0002A95E1F71124EF90FF900F911F91CF916B
:102BE000DF91992787FD90950895FB01DC01415005
:102BF000504088F08D9181341CF08B350CF4805E50
:102C0000659161341CF06B350CF4605E861B6111BC
:102C100071F3990B0895881BFCCF982F8091F610C3
:102C2000813079F59430E9F0953030F4913059F0F5
:102C3000923009F0E5C00EC09530D9F0963009F019
:102C4000DFC083E208958091FF12882309F4D9C080
:102C500081E208958091CA12882309F4D1C082E0EC
:102C600008958091B910882311F485E0089584E0D7
:102C700008958091F811882311F487E0089588E081
:102C800008958091F6108630C9F4943009F4BBC0E1
:102C9000953030F4923061F0933009F0B1C00AC041
:102CA000953021F0963009F0ABC006C089E0089558
:102CB0008AE0089583E1089582E108958091F610F5
:102CC0008430C9F4943009F49EC0953030F49230C9
:102CD00061F0933009F094C00AC0953021F096302D
:102CE00009F08EC006C08BE108958CE108958AE159
:102CF000089589E108958091F6108530C9F49430E3
:102D000009F481C0953030F4923061F0933009F0CD
:102D100077C00AC0953021F0963009F071C006C026
:102D200085E1089586E1089588E1089587E1089591
:102D30008091F6108930E9F49330A9F0943030F4A2
:102D4000913079F0923009F05BC009C0953069F09C
:102D5000953008F458C0963009F052C008C08BE294
:102D600008958DE2089589E208958AE2089588E23F
:102D700008958091F6108330D1F4943051F095305D
:102D800018F49230E9F507C0953039F09630C1F566
:102D900006C08FE008958CE008958BE0089580913F
:102DA000F712882311F480E1089582E2089580915A
:102DB000F6108730D1F4933091F0943028F49130AC
:102DC00061F09230E9F407C0953059F09530D8F0B1
:102DD0009630B1F408C08FE1089585E208958EE140
:102DE00008958DE1089587E208958091F610883066
:102DF00039F4913019F0943019F405C08CE208953B
:102E0000089580E2089584E10895CF92DF92EF92D1
:102E1000FF920F931F93CF93DF93EC016B016881B7
:102E200079818A819B812091FB103091FC10409127
:102E3000FD105091FE100E948CDC688379838A8398
:102E40009B83F60160817181828193812091FF10C3
:102E50003091001140910111509102110E948CDCBF
:102E60007B018C01F60160837183828393832091BF
:102E7000591530915A15C9018E978A35910580F4FC
:102E8000288139814A815B81D801C701B058888384
:102E90009983AA83BB83208331834283538329C0D0
:102EA000C901885890408A35910580F488819981BC
:102EB000AA81BB81B05888839983AA83BB83F6011A
:102EC00080819181A281B381B0580FC0225E3040D1
:102ED0002A35310570F488819981AA81BB81E88205
:102EE000F9820A831B83B058F60180839183A28301
:102EF000B383688179818A819B8120915B153091B0
:102F00005C1540915D1550915E150E9490DA6883C2
:102F100079838A839B83F6016081718182819381A9
:102F200020915F15309160154091611550916215A7
:102F30000E9490DAF6016083718382839383DF912C
:102F4000CF911F910F91FF90EF90DF90CF90089558
:102F50002F923F924F925F926F927F928F929F92A9
:102F6000AF92BF92CF92DF92EF92FF920F931F9397
:102F70001B012C0139014A0160910812709109125C
:102F800080910A1290910B120E9496DB7B018C01BA
:102F9000A80197010E948CDC5B016C01C401B301A4
:102FA000A40193010E948CDC9B01AC01C601B50118
:102FB0000E948FDA5B016C01C201B101A201910193
:102FC0000E948CDC9B01AC01C601B5010E9490DA25
:102FD0005B016C01C801B701A80197010E9490DA5A
:102FE0009B01AC01C601B5010E94FBDA1F910F9154
:102FF000FF90EF90DF90CF90BF90AF909F908F9019
:103000007F906F905F904F903F902F9008950F9317
:103010001F93CF93DF93242F2627A22FB0E0AF700A
:10302000B070AA0FBB1FAA0FBB1FC8E2D2E0AC0F43
:10303000BD1FFD010591159125913491E4E0969510
:10304000879577956795EA95D1F70627172728275B
:10305000392742954F70402750E04F705070440F11
:10306000551F440F551F4C0F5D1FFA018591959117
:10307000A591B49144E036952795179507954A9503
:10308000D1F7082719272A273B27B801C901DF9163
:10309000CF911F910F910895CF92DF92EF92FF92FF
:1030A0000F931F938130910509F050C26F5F7F4FDE
:1030B00009F05BC389EB93E160E072E00E94E4D821
:1030C00080EC93E164E072E00E94E4D885EF91E146
:1030D0000E94A39489EF91E160E172E00E94E4D83C
:1030E00087EC93E161E172E00E94E4D86091AD1059
:1030F0007091AE10882777FD8095982F2091A710AA
:103100003091A810442737FD4095542F0E9494DD3C
:103110000E9496DB7B018C016091A9107091AA102E
:103120008091AB109091AC10A80197010E94FBDA3E
:103130006093001270930112809302129093031215
:10314000C801B7012091A9103091AA104091AB108D
:103150005091AC100E94FBDA7B018C016093041249
:103160007093051280930612909307126091F710E6
:103170007091F810882777FD8095982F0E9496DB34
:10318000A80197010E948CDC0E9463DB6093081207
:103190007093091280930A1290930B126091F910A8
:1031A0007091FA10882777FD8095982F0E9496DB02
:1031B000A80197010E948CDC0E9463DB60930C12D3
:1031C00070930D1280930E1290930F128EEC93E178
:1031D0006AE172E00E94E4D885ED93E16CE172E06F
:1031E0000E94E4D88CED93E160E272E00E94E4D8A2
:1031F00083EE93E168E272E00E94E4D88AEE93E104
:103200006BE572E00E94E4D881EF93E16BE572E038
:103210000E94E4D888EF93E16BE572E00E94E4D865
:103220008FEF93E16BE572E00E94E4D886E094E1D1
:103230006AE672E00E94E4D88DE094E164E772E00F
:103240000E94E4D884E194E16BE772E00E94E4D844
:103250008BE194E163E872E00E94E4D882E294E1B9
:103260006EE872E00E94E4D889E294E166E074E1DD
:103270000E9492D980E292E160E172E00E94E4D87B
:1032800080E394E164E972E00E94E4D887E394E18A
:1032900066E972E00E94E4D88EE394E16BE972E0A3
:1032A0000E94E4D885E494E16FE972E00E94E4D8DA
:1032B0008CE494E163EA72E00E94E4D883E594E14F
:1032C00067EA72E00E94E4D88AE594E16BEA72E072
:1032D0000E94E4D881E694E16FEA72E00E94E4D8AB
:1032E00088E694E163EB72E00E94E4D88FE694E113
:1032F00067EB72E00E94E4D886E794E16BEB72E042
:103300000E94E4D88DE794E16FEB72E00E94E4D86C
:1033100084E894E163EC72E00E94E4D88BE894E1E5
:1033200067EC72E00E94E4D882E994E16BEC72E011
:103330000E94E4D889E994E16FEC72E00E94E4D83D
:1033400080EA94E163ED72E00E94E4D887EA94E1B8
:1033500067ED72E00E94E4D88EEA94E16BED72E0D2
:103360000E94E4D885EB94E16FED72E00E94E4D80E
:103370008CEB94E163EE72E00E94E4D883EC94E17C
:1033800067EE72E00E94E4D88AEC94E16BEE72E0A2
:103390000E94E4D881ED94E16FEE72E00E94E4D8DF
:1033A00088ED94E163EF72E00E94E4D88FED94E140
:1033B00067EF72E00E94E4D886EE94E16BEF72E072
:1033C0000E94E4D88DEE94E16FEF72E00E94E4D8A1
:1033D00084EF94E164E073E00E94E4D88BEF94E121
:1033E00068E073E00E94E4D882E095E16CE073E06D
:1033F0000E94E4D889E095E160E173E00E94E4D89E
:1034000080E195E164E173E00E94E4D887E195E111
:1034100068E173E00E94E4D88EE195E16CE173E02D
:103420000E94E4D885E295E160E273E00E94E4D86E
:103430008CE295E164E273E00E94E4D883E395E1D5
:1034400068E273E00E94E4D88AE395E16CE273E0FD
:103450000E94E4D881E495E160E373E00E94E4D83F
:1034600088E495E164E373E00E94E4D88FE495E199
:1034700068E373E00E94E4D880E392E164E046E20E
:1034800050E027E230E008E210E079E2E72EF12C8C
:10349000CC24DD240E9412C38CE592E16BE04CE069
:1034A00022E103E1B2E0EB2E0E949AC58DE992E1A0
:1034B00060E172E00E94E4D887EA92E160E172E0A4
:1034C0000E94E4D88EEA92E10E9482788CEC92E12C
:1034D0000E94827888EF92E160E172E00E94E4D875
:1034E00081E093E161E044E025E004E0A5E0EA2E1C
:1034F0000E94DB9285E493E161E047E028E00E94CE
:10350000DB9262E370E080E090E02FEF30E040E09B
:1035100050E00E940ED66093561562E370E080E0A2
:1035200090E02FEF30E040E050E00E940ED6609334
:10353000571562E370E080E090E02FEF30E040E06C
:1035400050E00E940ED6609358150FC1892B09F0E8
:103550000CC16F5F7F4F09F008C188EF92E10E94B4
:10356000A4D98CEC92E10E9495788EEA92E10E94B7
:10357000957887EA92E10E94A4D98DE992E10E94B0
:10358000A4D98FE495E10E94A4D988E495E10E9432
:10359000A4D981E495E10E94A4D98AE395E10E942F
:1035A000A4D983E395E10E94A4D98CE295E10E941D
:1035B000A4D985E295E10E94A4D98EE195E10E940B
:1035C000A4D987E195E10E94A4D980E195E10E9408
:1035D000A4D989E095E10E94A4D982E095E10E94F6
:1035E000A4D98BEF94E10E94A4D984EF94E10E94C6
:1035F000A4D98DEE94E10E94A4D986EE94E10E94B4
:10360000A4D98FED94E10E94A4D988ED94E10E94A1
:10361000A4D981ED94E10E94A4D98AEC94E10E949E
:10362000A4D983EC94E10E94A4D98CEB94E10E948C
:10363000A4D985EB94E10E94A4D98EEA94E10E947A
:10364000A4D987EA94E10E94A4D980EA94E10E9477
:10365000A4D989E994E10E94A4D982E994E10E9465
:10366000A4D98BE894E10E94A4D984E894E10E9453
:10367000A4D98DE794E10E94A4D986E794E10E9441
:10368000A4D98FE694E10E94A4D988E694E10E942F
:10369000A4D981E694E10E94A4D98AE594E10E942C
:1036A000A4D983E594E10E94A4D98CE494E10E941A
:1036B000A4D985E494E10E94A4D98EE394E10E9408
:1036C000A4D987E394E10E94A4D980E394E10E9405
:1036D000A4D980E292E10E94A4D989E294E10E94F7
:1036E000A4D982E294E10E94A4D98BE194E10E94E2
:1036F000A4D984E194E10E94A4D98DE094E10E94D0
:10370000A4D986E094E10E94A4D98FEF93E10E94AE
:10371000A4D988EF93E10E94A4D981EF93E10E949C
:10372000A4D98AEE93E10E94A4D983EE93E10E948A
:10373000A4D98CED93E10E94A4D985ED93E10E9478
:10374000A4D98EEC93E10E94A4D987EC93E10E9466
:10375000A4D989EF91E10E94A4D980EC93E10E9461
:10376000A4D989EB93E10E94A4D91F910F91FF90F6
:10377000EF90DF90CF90089580E090E06FEF7FEFC3
:103780008BCC81E090E06FEF7FEF86CCCF92DF9221
:10379000EF92FF920F931F93CF93DF936C01EE2470
:1037A000EA94FE2C8701C0E0D0E00BC0C601BE0148
:1037B0000E942BD6482FC801B70129DC7B018C0160
:1037C0002196F60184819581C817D90778F3A8015D
:1037D00097012095309540955095B901CA01DF9128
:1037E000CF911F910F91FF90EF90DF90CF900895B0
:1037F0000F931F9384E090E00E9468CA8C010E949E
:1038000005CB2DB73EB7201B310BC9011F910F917E
:103810000895EEDF9C0180911412909115122817E3
:103820003907D1F0309315122093141284E79AE1EE
:103830006CED73E10E9460D56091141270911512C5
:1038400084E79AE14AE050E00E9438D484E79AE1A4
:1038500067E374E10C9492D5089584E79AE16DE0F2
:1038600074E10C9492D584E79AE166E074E10C94DB
:1038700092D5AF92BF92CF92DF92EF92FF920F93C9
:103880001F937B018C01CA01B9010E948CDC5B0192
:103890006C01C801B701A80197010E948CDC9B0153
:1038A000AC01C601B5010E948FDA0E94F9DC1F91BC
:1038B0000F91FF90EF90DF90CF90BF90AF90089561
:1038C0006F927F928F929F92AF92BF92CF92DF9230
:1038D000EF92FF920F931F937B018C0139DB5B0109
:1038E0006C01A8019701C5DF3B014C01E090C910B4
:1038F000F090CA100091CB101091CC10C801B70104
:103900000E9496DB9B01AC01C601B5010E94F4DA6E
:1039100087FD4AC08091D1109091D210A091D31010
:10392000B091D410E80EF91E0A1F1B1FC801B70181
:103930000E9496DB9B01AC01C601B5010E9488DCA8
:10394000181694F1E090CD10F090CE100091CF10A9
:103950001091D010C801B7010E9496DB9B01AC0109
:10396000C401B3010E94F4DA87FD1EC0DD248091FA
:10397000D5109091D610A091D710B091D810E80E24
:10398000F91E0A1F1B1FC801B7010E9496DB9B018D
:10399000AC01C401B3010E9488DC181614F4DD24C4
:1039A000D39481E0D82601C0DD248D2D1F910F9185
:1039B000FF90EF90DF90CF90BF90AF909F908F904F
:1039C0007F906F900895AF92BF92CF92DF92EF9267
:1039D000FF920F931F937B018C0159016A01609143
:1039E00008127091091280910A1290910B120E9494
:1039F00096DBA80197010E948FDA9B01AC010E941F
:103A00008CDC7B018C01C601B501A60195010E94E9
:103A10008CDC9B01AC01C801B7010E9490DA0E94C6
:103A2000F9DC1F910F91FF90EF90DF90CF90BF9046
:103A3000AF900895AF92BF92CF92DF92EF92FF9234
:103A40000F931F937B018C0159016A01A801970113
:103A50000E948CDC7B018C01C601B501A601950199
:103A60000E948CDC9B01AC01C801B7010E9490DA76
:103A70000E94F9DC1F910F91FF90EF90DF90CF90A3
:103A8000BF90AF9008952F923F924F925F926F92A6
:103A90007F928F929F92AF92BF92CF92DF92EF92DE
:103AA000FF920F931F93DF93CF9300D00F92CDB768
:103AB000DEB769837A838B839C8359016A0117017E
:103AC0002801611571058105910559F40F2EF0E06B
:103AD000EF2EF0E0FF2EF0E00F2FF0E01F2FF02D83
:103AE000A4C0CA01B9010E948CDC7B018C01C60113
:103AF000B50120E030E040E050E00E94F4DA882395
:103B000024F417FB109517F91095C201B101A20119
:103B100091010E9490DA3B014C01C801B701A40158
:103B200093010E94FBDA7B018C0169817A818B8190
:103B30009C810E9496DB9B01AC01C801B7010E94E9
:103B4000F4DA8823B4F5C601B50120E030E040E0A6
:103B500050E00E94F4DA882329F4C401B3010E94E2
:103B6000F9DC0DC0C201B101A60195010E94FBDA8A
:103B70009B01AC015F77C601B5010E9490DA7B0121
:103B80008C01D090AF10C090B010B090B110A09048
:103B9000B2102D2D3C2D4B2D5A2D0E9488DC18166D
:103BA0000CF043C08D2D9C2DAB2DBA2D7C018D01C9
:103BB0003CC0C601B50120E030E040E050E00E948A
:103BC000F4DA882359F4C401B3010E94F9DC7B01C3
:103BD0008C0117FB109517F910950FC0C201B101A8
:103BE000A60195010E94FBDA9B01AC015F77C6013B
:103BF000B5010E948FDA7B018C018091AF1090910A
:103C0000B010A091B110B091B2105C016D01D7FA63
:103C1000D094D7F8D094C801B701A60195010E94AD
:103C2000F4DA882314F486017501B701C8010F90F6
:103C30000F900F900F90CF91DF911F910F91FF90F8
:103C4000EF90DF90CF90BF90AF909F908F907F903C
:103C50006F905F904F903F902F900895EF92FF925A
:103C60000F931F938091B810882309F456C084E7FE
:103C70009AE162E274E10E9460D581E093E10E94E2
:103C8000268E0E9496DB7B018C016091AD107091B5
:103C9000AE10882777FD8095982F0E9496DB9B01B8
:103CA000AC01C801B7010E94FBDA0E9463DBAB01E3
:103CB000BC0184E79AE12AE030E00E94E8D384E77F
:103CC0009AE160E374E10E9460D585E493E10E948B
:103CD000268E0E9496DB7B018C016091AD10709165
:103CE000AE10882777FD8095982F0E9496DB9B0168
:103CF000AC01C801B7010E94FBDA0E9463DBAB0193
:103D0000BC0184E79AE12AE030E00E94E8D384E72E
:103D10009AE167E374E10E9492D51F910F91FF90A1
:103D2000EF900895EF92FF920F931F9380911012DE
:103D300090911112A0911212B09113120097A10547
:103D4000B10509F03FC0609108127091091280918D
:103D50000A1290910B120E9496DB7B018C016091FC
:103D60000C1270910D1280910E1290910F120E9400
:103D700096DB9B01AC01C801B7015CDE20E030E0BE
:103D800040E05FE30E9490DA0E9463DB60931012D0
:103D900070931112809312129093131284E79AE198
:103DA0006CE373E00E9467D440911012509111129D
:103DB000609112127091131284E79AE12AE030E0C8
:103DC0000E9426D4609110127091111280911212EB
:103DD000909113121F910F91FF90EF900895AF9261
:103DE000BF92CF92DF92EF92FF920F931F937B01CE
:103DF0008C0159016A010E94E5CB9B01AC01209323
:103E000018123093191240931A1250931B1281E02A
:103E100093E1B801A7010E94BC8F85E493E1B6014C
:103E2000A5010E94BC8F15C08091B710882349F06E
:103E300081E093E10E946C9485E493E10E946C948C
:103E400008C081E093E10E94499485E493E10E94D7
:103E5000499481E093E10E94168E611571058105F8
:103E6000910549F485E493E10E94168E6115710570
:103E70008105910529F08091B910882351F3D4CFA1
:103E8000EDDE1F910F91FF90EF90DF90CF90BF90EC
:103E9000AF900895AF92BF92CF92DF92EF92FF92D0
:103EA0000F931F9381E093E10E946C9485E493E16A
:103EB0000E946C9481E093E10E94168E6115710559
:103EC0008105910509F047C06091C9107091CA1031
:103ED0008091CB109091CC102091D1103091D210C4
:103EE0004091D3105091D410260F371F481F591FEF
:103EF0000E940ED65B016C016091CD107091CE10C6
:103F00008091CF109091D0102091D5103091D61083
:103F10004091D7105091D810260F371F481F591FB6
:103F20000E940ED67B018C01C601B5010E9496DB72
:103F30005B016C01C801B7010E9496DB9B01AC01DB
:103F4000C601B50177DD0E9463DBAB01BC0181E0F6
:103F500093E10E94AB8F85E493E10E94168E611578
:103F600071058105910509F047C06091C9107091F4
:103F7000CA108091CB109091CC102091D11030912B
:103F8000D2104091D3105091D410260F371F481FE4
:103F9000591F0E940ED65B016C016091CD1070918B
:103FA000CE108091CF109091D0102091D5103091EB
:103FB000D6104091D7105091D810260F371F481FA8
:103FC000591F0E940ED67B018C01C601B5010E94CB
:103FD00096DB5B016C01C801B7010E9496DB9B0177
:103FE000AC01C601B501EFDC0E9463DBAB01BC0193
:103FF00085E493E10E94AB8F1F910F91FF90EF90AA
:10400000DF90CF90BF90AF90089584E79AE163E589
:1040100073E00C944FD584E79AE16AEA74E00E9459
:104020001CD31092A61208958F929F92AF92BF92C6
:10403000CF92DF92EF92FF920F931F936C017B015F
:1040400084E79AE16AE673E00E9467D484E79AE124
:10405000B6014AE050E00E9438D484E79AE163E771
:1040600073E00E9467D484E79AE1B7014AE050E028
:104070000E944AD484E79AE168E773E00E9467D41B
:104080006091F1127091F21284E79AE14AE050E0F7
:104090000E944AD484E79AE168E873E00E9467D4FA
:1040A0004091E7125091E8126091E9127091EA1282
:1040B00084E79AE12AE030E00E9426D44601AA244F
:1040C00097FCA094BA2C8091F1129091F212AA2739
:1040D00097FDA095BA2F880E991EAA1EBB1E002719
:1040E000F7FC0095102F2091E7123091E8124091D3
:1040F000E9125091EA12C801B7010E9494DD860EC0
:10410000971EA81EB91E84E79AE162E973E00E9437
:1041100067D484E79AE1B501A4012AE030E00E9467
:10412000E8D38091F3129091F412A091F512B0911E
:10413000F61288159905AA05BB0514F41FEF18C0DF
:104140008CEC92E1B501A4010E9431798CEC92E1F2
:104150000E944279182F84E79AE16BE973E00E948C
:1041600067D484E79AE1612F4AE050E00E94CCD303
:10417000812F1F910F91FF90EF90DF90CF90BF9014
:10418000AF909F908F9008950F931F93CF93DF93DD
:10419000EC018B0184E79AE16AEA73E00E9467D43C
:1041A00084E79AE1BE014AE050E00E9438D484E7F7
:1041B0009AE16DEA73E00E9467D484E79AE1B8015E
:1041C0004AE050E00E944AD48091891390918A136A
:1041D000C817D907B4F080918D1390918E138C1766
:1041E0009D077CF080918B1390918C130817190711
:1041F00044F080918F1390919013801791070CF0E9
:1042000097C08091911390919213C817D907BCF071
:1042100080919513909196138C179D0784F080914F
:10422000931390919413081719074CF080918F13F2
:10423000909190138017910714F082E07AC08091DA
:10424000991390919A13C817D907BCF080919D13C8
:1042500090919E138C179D0784F080919B139091F1
:104260009C13081719074CF080919F139091A0138D
:104270008017910714F083E05CC08091A1139091A6
:10428000A213C817D907BCF08091A5139091A6136B
:104290008C179D0784F08091A3139091A4130817A5
:1042A00019074CF08091A7139091A81380179107DC
:1042B00014F084E03EC08091A9139091AA13C8170E
:1042C000D907BCF08091AD139091AE138C179D0768
:1042D00084F08091AB139091AC13081719074CF040
:1042E0008091AF139091B0138017910714F085E07F
:1042F00020C08091B1139091B213C817D907BCF0B8
:104300008091B5139091B6138C179D0784F080911E
:10431000B3139091B413081719074CF08091B71399
:104320009091B8138017910714F086E002C001C085
:1043300081E0DF91CF911F910F910895EF92FF924D
:104340000F931F93CF93DF93C0E0D0E084E79AE10F
:1043500062EB73E00E9467D484E79AE1BE014AE011
:1043600050E00E944AD481E093E10E94168E6115CC
:1043700071058105910509F468C085E493E10E9407
:10438000168E611571058105910509F45EC081E005
:1043900093E10E946C9485E493E10E946C94E3CFD6
:1043A0006EEF7FEF8FEF9FEF23E030E040E050E0D3
:1043B0000E940ED67B018C01A701662757FD6095F0
:1043C000762F81E093E10E94BC8F84E79AE16BEB4A
:1043D00073E00E9467D484E79AE1B7014AE050E0B5
:1043E0000E944AD485E493E10E94168E61157105FE
:1043F0008105910511F56EEF7FEF8FEF9FEF23E0C1
:1044000030E040E050E00E940ED67B018C01A70115
:10441000662757FD6095762F85E493E10E94BC8F57
:1044200084E79AE161ED73E00E9467D484E79AE142
:10443000B7014AE050E00E944AD410DC219683E0A4
:10444000C83ED80709F082CF0AC081E093E10E94FC
:10445000168E611571058105910521F6A1CFDF91B9
:10446000CF911F910F91FF90EF9008956F927F92DF
:104470008F929F92AF92BF92CF92DF92EF92FF9274
:104480000F931F93DF93CF93CDB7DEB7A3970FB6EC
:10449000F894DEBF0FBECDBF6DB67EB68CEC92E158
:1044A00040E050E060E070E00E9431797E010894C5
:1044B000E11CF11CC70167EE73E00E94E4D88CECAC
:1044C00092E10E944279182FC70160E070E00E94DB
:1044D0003CD6FC0110838CEC92E10E944279182FAB
:1044E000C70161E070E00E943CD6FC011083C70167
:1044F0006AEE73E00E9464D7882399F484E79AE116
:104500006DEE73E00E9467D484E79AE1B7010E94E0
:1045100060D584E79AE16BE074E00E944FD510E02B
:1045200083C184E79AE166E274E00E944FD58CEC87
:1045300092E10E9442798E01085F1F4FC80160E13D
:1045400072E00E94E4D88CEC92E10E944279E82E5D
:104550008FE0C82ED12CCC0EDD1EF02E012F21C0F5
:1045600083E2E81641F48CEC92E10E944279E82E55
:104570009AE0E916C1F7C6016F2D702F0E949BD9F2
:10458000C6016E2D0E9488D8BC018F2D902F0E94ED
:104590007DD9C6010E94A9D98CEC92E10E94427992
:1045A000E82E8AE0E81619F090E2E916C9F684E7E9
:1045B0009AE16CE474E00E9467D418E0E12EF12CDB
:1045C000EC0EFD1E84E79AE1B7010E9492D54C855E
:1045D0005D854F5F5F4F8DB79EB7841B950B0FB600
:1045E000F8949EBF0FBE8DBF0DB71EB70F5F1F4F54
:1045F000902E812EB02EA12EC701B80120E030E010
:104600000E9415D7C8010E949711AA2797FDA0956F
:10461000BA2F8093E7129093E812A093E912B09317
:10462000EA120A97A105B10544F484E79AE168E625
:1046300072E00E941CD310E0F3C0C70160E172E099
:104640000E9416D98CEC92E10E944279182FB6E1B3
:10465000CB2ED12CCC0EDD1EC701FE2C092F1FC086
:10466000133239F48CEC92E10E944279182F8A308F
:10467000C9F7C6016F2D702F0E949BD9C601612F0B
:104680000E9488D8BC018F2D902F0E947DD9C60131
:104690000E94A9D98CEC92E10E944279182F1A301D
:1046A000F9F684E79AE167E574E00E9467D4A8E030
:1046B000CA2ED12CCC0EDD1E84E79AE1B6010E94F1
:1046C00092D54C855D854F5F5F4FC6016B2D7A2D6E
:1046D00020E030E00E9415D7892D982D0E94971177
:1046E000AA2797FDA095BA2F8093EB129093EC1216
:1046F000A093ED12B093EE12BC01CD010E9496DBA7
:104700007B018C016091E7127091E8128091E912AF
:104710009091EA120E9496DB9B01AC01C801B7019F
:104720000E94FBDA6093E5107093E6108093E71027
:104730009093E81084E79AE163E674E00E9467D4FE
:104740004091E5105091E6106091E7107091E810EB
:1047500084E79AE122E030E00E943ED5C60160E1A4
:1047600072E00E9416D98CEC92E10E944279182FD7
:104770000D2DFDE1EF2EF12CEC0EFD1E16C0C70134
:104780006C2D702F0E949BD9C701612F0E9488D881
:10479000BC018C2D902F0E947DD9C7010E94A9D900
:1047A0008CEC92E10E944279182F1A3041F784E78D
:1047B0009AE165E774E00E9467D484E79AE16C2D82
:1047C000702F0E9492D54C855D854F5F5F4F8C2D79
:1047D000902F6B2D7A2D20E030E00E9415D7892D87
:1047E000982D0E9497119093F0128093EF128CEC09
:1047F00092E10E94EC787093F2126093F11284E7D8
:104800009AE169E874E00E9467D46091F1127091B6
:10481000F21284E79AE14AE050E00E944AD411E0A3
:10482000CE0108960E94A4D9CE0101960E94A4D977
:10483000812F0FB6F8947EBE0FBE6DBEA3960FB645
:10484000F894DEBF0FBECDBFCF91DF911F910F91C6
:10485000FF90EF90DF90CF90BF90AF909F908F90A0
:104860007F906F900895EF92FF920F931F93DF93C5
:10487000CF93CDB7DEB7FC01EDB6FEB644815581CE
:104880004F5F5F4F8DB79EB7841B950B0FB6F894A3
:104890009EBF0FBE8DBF0DB71EB70F5F1F4FCF015D
:1048A000B80120E030E00E9415D7C8010E9497119E
:1048B0000FB6F894FEBE0FBEEDBECF91DF911F91F3
:1048C0000F91FF90EF900895EF92FF920F931F9337
:1048D000DF93CF93CDB7DEB727970FB6F894DEBF3F
:1048E0000FBECDBF8E010F5F1F4FC8016AEE73E18F
:1048F0000E9492D9C801B7DF7C01C8010E94A4D9E7
:10490000EF2819F410929C120EC08091A4128823F3
:1049100021F081E080939C1206C084E79AE167E968
:1049200074E00E944FD527960FB6F894DEBF0FBEF5
:10493000CDBFCF91DF911F910F91FF90EF90089520
:104940000F931F93DF93CF93CDB7DEB72E970FB69C
:10495000F894DEBF0FBECDBF8E010F5F1F4FC801A1
:104960006AEE73E10E9492D9C8017DDF909306112F
:1049700080930511C8010E94A4D98E01085F1F4FC2
:10498000C80161EF73E10E9492D9C8016CDF909376
:10499000041180930311C8010E94A4D92E960FB66A
:1049A000F894DEBF0FBECDBFCF91DF911F910F9165
:1049B0000895EF92FF920F931F93DF93CF93CDB79C
:1049C000DEB76B970FB6F894DEBF0FBECDBFFC010C
:1049D000EDB6FEB6448155814F5F5F4F8DB79EB7F0
:1049E000841B950B0FB6F8949EBF0FBE8DBF0DB7FD
:1049F0001EB70F5F1F4FCF01B80120E030E00E94CB
:104A000015D7CE01019663E675E1A80121E00E9469
:104A1000FE7C8B819C819093CF128093CE128D81EE
:104A20009E81AF81B8858093D0129093D112A093CC
:104A3000D212B093D31289859A85AB85BC858093B9
:104A4000D4129093D512A093D612B093D712A8ED9A
:104A5000B2E1FE013D968DE001900D928150E1F7AB
:104A60008A8D9B8D9093E6128093E512CE0101967C
:104A70000E9495788CEC92E10E941279882329F4A7
:104A800084E79AE16BEB74E007C0F0DC882341F423
:104A900084E79AE16CEC74E00E944FD580E00DC091
:104AA0008CEC92E10E94FF786093F3127093F41201
:104AB0008093F5129093F61281E00FB6F894FEBE43
:104AC0000FBEEDBE6B960FB6F894DEBF0FBECDBF26
:104AD000CF91DF911F910F91FF90EF900895AF92CA
:104AE000BF92CF92DF92EF92FF920F931F93DF93CB
:104AF000CF93CDB7DEB76B970FB6F894DEBF0FBE7E
:104B0000CDBF6C01ADB6BEB64091AB125091AC12A8
:104B10004F5F5F4F8DB79EB7841B950B0FB6F89410
:104B20009EBF0FBE8DBF0DB71EB70F5F1F4F87EA29
:104B300092E1B80120E030E00E9415D77E01089490
:104B4000E11CF11CC70163E675E1A80123E10E94A5
:104B5000FE7CC7010E9412798823D1F084E79AE194
:104B600064ED74E00E9467D484E79AE167EA72E139
:104B70000E9492D5C701B6010E9492D5C7010E943A
:104B80001F7984E79AE165EE74E00E944FD50CC06E
:104B900084E79AE16BEE74E00E9467D484E79AE1BF
:104BA00067EA72E10E9492D5CE0101960E94957843
:104BB0000FB6F894BEBE0FBEADBE6B960FB6F8949E
:104BC000DEBF0FBECDBFCF91DF911F910F91FF9040
:104BD000EF90DF90CF90BF90AF9008952F923F92CB
:104BE0004F925F926F927F928F929F92BF92CF92DD
:104BF000DF92EF92FF920F931F93DF93CF93CDB786
:104C0000DEB7ED970FB6F894DEBF0FBECDBF4C01F7
:104C10006B01CE01019660E172E00E94E4D88E0142
:104C2000085F1F4FC8016EEA72E141E00E94657A99
:104C3000C8010E941279882389F0C8010E949B78DC
:104C4000BC01C6010E9464D7882341F084E79AE141
:104C50006AEF74E00E944FD5C80179C08E01085FE9
:104C60001F4FC8010E949B78BC017E010894E11C83
:104C7000F11CC7010E9416D984E79AE16FEF74E036
:104C80000E9467D484E79AE1B7010E9492D5B02EC2
:104C9000012F33E2632E712C6C0E7D1E24E1222E37
:104CA000312C2C0E3D1E9FE2492E512C4C0E5D1EC8
:104CB0001F2D8B2D902F0E941F79C3016EEA72E188
:104CC00041E00E94657A8DA19EA19B878A878FA172
:104CD00098A5A9A5BAA58C879D87AE87BF878BA508
:104CE0009CA5ADA5BEA5888B998BAA8BBB8BD1014A
:104CF000F2018DE001900D928150E1F78CAD9DADF8
:104D00009AA389A3C3010E9495788B2D902F0E94AE
:104D100012798823D1F08B2D902F0E949B78BC01B3
:104D2000C6010E9464D7882331F0C6016E2D712F11
:104D30000E947DD90AC08B2D902F0E949B78BC01C8
:104D40008E2D912F0E9416D9B4CFCE0108960E94C5
:104D50001F79C401B6010E9492D9CE0108960E9423
:104D60009578CE0101960E94A4D9C401ED960FB6A4
:104D7000F894DEBF0FBECDBFCF91DF911F910F9191
:104D8000FF90EF90DF90CF90BF909F908F907F909B
:104D90006F905F904F903F902F9008954F925F9249
:104DA0006F927F928F929F92AF92BF92CF92DF923B
:104DB000EF92FF921F93DF93CF93CDB7DEB7E697C5
:104DC0000FB6F894DEBF0FBECDBF5C016B017E0154
:104DD0000894E11CF11C6CE1862E912C8C0E9D1E1A
:104DE0005DE0452E512C4C0E5D1E48E2642E712C68
:104DF0006C0E7D1EC7016EEA72E141E00E94657A89
:104E0000C7010E941279882309F44BC0C7010E9490
:104E10009B78BC01C6010E9464D7882311F410E07E
:104E200041C084E79AE16BE075E00E944FD5C7016D
:104E30000E941F79C4016EEA72E141E00E94657A26
:104E40008E8D9F8D9C838B8388A199A1AAA1BBA1E4
:104E50008D839E83AF83B8878CA19DA1AEA1BFA196
:104E600089879A87AB87BC87D201F3018DE00190D7
:104E70000D928150E1F78DA99EA99B8F8A8FC40165
:104E80000E949578C7010E941279882339F0C701E2
:104E90000E949B78BC01C6010E9416D9C7010E94DE
:104EA0001F7911E0C7010E941F79C7010E94957800
:104EB000112309F49FCFC501B6010E9492D9C50103
:104EC000E6960FB6F894DEBF0FBECDBFCF91DF914F
:104ED0001F91FF90EF90DF90CF90BF90AF909F9089
:104EE0008F907F906F905F904F9008952F923F9298
:104EF0004F925F926F927F928F929F92AF92BF92EA
:104F0000CF92DF92EF92FF921F93DF93CF93CDB7B3
:104F1000DEB7E6970FB6F894DEBF0FBECDBF4C01EB
:104F20006B017E010894E11CF11CF8E22F2E312C5C
:104F30002C0E3D1EEDE04E2E512C4C0E5D1E7CE1E4
:104F4000672E712C6C0E7D1E56010894A11CB11C9D
:104F5000C701B40141E00E94657AC7010E9412793D
:104F6000882311F010E027C084E79AE167E175E03B
:104F70000E944FD5C7010E949578E6960FB6F89427
:104F8000DEBF0FBECDBFCF91DF911F91FF90EF909D
:104F9000DF90CF90BF90AF909F908F907F906F9059
:104FA0005F904F903F902F90089584E79AE169E0D9
:104FB0000E94F4D21F5F812F90E08C159D05ACF309
:104FC000C7010E949B78BC0184E79AE10E9467D4E4
:104FD000C7010E94A078882381F184E79AE16BE100
:104FE00075E00E944FD58B819C819F8F8E8F8D8124
:104FF0009E81AF81B88588A399A3AAA3BBA3898505
:105000009A85AB85BC858CA39DA3AEA3BFA388E284
:1050100091E19D8F8C8FD101F2018DE001900D9275
:105020008150E1F78A8D9B8D9EAB8DABC301B5019D
:105030005DDFC3010E94957811C084E79AE16DE1BC
:1050400075E00E9467D4C7010E94FF78AB01BC01E4
:1050500084E79AE12AE030E00E94BAD3C7010E94B7
:105060001F79C7010E94957873CF0F931F93DF9329
:10507000CF93CDB7DEB7E6970FB6F894DEBF0FBE7D
:10508000CDBF85E361E00E94DECC83E695E165E378
:105090000E941E7E882339F484E79AE16CEA76E068
:1050A0000E944FD509C084E79AE168EC76E00E943F
:1050B0004FD581E08093C9128091C912882309F4E9
:1050C00084C084E79AE16FED76E00E944FD5CE016F
:1050D000019663E675E14BE155E021E00E94FE7C1C
:1050E0008B819C819093B1128093B0128D819E81AF
:1050F000AF81B8858093B2129093B312A093B4128B
:10510000B093B51289859A85AB85BC858093B6121C
:105110009093B712A093B812B093B912AAEBB2E170
:10512000FE013D968DE001900D928150E1F78A8D50
:105130009B8D9093C8128093C712CE0101960E9456
:10514000957881E08093CA128091B0129091B1124B
:105150009F8F8E8F8091B2129091B312A091B41252
:10516000B091B51288A399A3AAA3BBA38091B6124C
:105170009091B712A091B812B091B9128CA39DA3CF
:10518000AEA3BFA388E291E19D8F8C8FDE0198963C
:10519000EAEBF2E18DE001900D928150E1F7809110
:1051A000C7129091C8129EAB8DAB8E01045E1F4F4B
:1051B000C80160E070E09ADEC8010E94957884E73B
:1051C0009AE161EF76E00E944FD5E6960FB6F8942B
:1051D000DEBF0FBECDBFCF91DF911F910F9108951C
:1051E0000F931F931092F71200E112E088EF92E103
:1051F000B8010E9416D91092C9121092CA1287EAF9
:1052000092E1B8010E9416D930DF1F910F910895E5
:105210004F925F926F927F928F929F92AF92BF92C6
:10522000CF92DF92EF92FF920F931F93CF93DF9372
:105230004C013B012A01BA01882777FD8095982F00
:105240000E9496DB5B016C01B401882777FD809595
:10525000982F0E9496DB7B018C01B301882777FD94
:105260008095982F0E9496DB9B01AC01C801B70185
:105270000E94FBDAA60195010E948CDC9B01AC0127
:10528000C601B5010E948FDA7B018C0184E79AE1A7
:105290006EED72E00E94D1D284E79AE1B4014AE057
:1052A00050E00E9438D484E79AE165ED72E00E94F4
:1052B000D1D284E79AE1B3014AE050E00E9438D4A9
:1052C00084E79AE16BEC72E00E94D1D284E79AE124
:1052D000B2014AE050E00E9438D484E79AE160ECE1
:1052E00072E00E94D1D284E79AE1B801A70122E0DE
:1052F00030E00E943ED5C801B7010E9463DBEB019C
:10530000BE01882777FD8095982F0E9496DB9B0130
:10531000AC01C801B7010E948FDA20E030E040E024
:105320005FE30E9488DC18160CF42196CE01DF9111
:10533000CF911F910F91FF90EF90DF90CF90BF9092
:10534000AF909F908F907F906F905F904F90089557
:105350008F929F92AF92BF92CF92DF92EF92FF9285
:105360000F931F93CF93DF934B015C016A01BA0146
:10537000882777FD8095982F0E9496DB2091001258
:105380003091011240910212509103120E948CDC64
:105390007B018C0184E79AE164E373E00E94D1D23F
:1053A00084E79AE1B801A70122E030E00E943CD5F1
:1053B00084E79AE166E273E00E94D1D24091001244
:1053C00050910112609102127091031284E79AE1E8
:1053D00022E030E00E943CD584E79AE16EE073E081
:1053E0000E94D1D284E79AE1B6014AE050E00E94DF
:1053F0004AD4C801B701A50194010E94FBDA7B01E0
:105400008C0120E030E040E050E40E9488DC87FF1F
:1054100003C0C1E0D0E005C0C801B7010E9463DB52
:10542000EB0184E79AE167EF76E00E9467D484E7B6
:105430009AE1B801A70122E030E00E943ED584E75E
:105440009AE160E073E00E94D1D284E79AE1B5016D
:10545000A40122E030E00E943CD584E79AE164EFA9
:1054600072E00E94D1D284E79AE1B6014AE050E0AE
:105470000E944AD484E79AE166EE72E00E94D1D29B
:1054800084E79AE1BE014AE050E00E944AD4CE018E
:10549000DF91CF911F910F91FF90EF90DF90CF9010
:1054A000BF90AF909F908F9008952F923F924F9210
:1054B0005F926F927F928F929F92AF92BF92CF92A4
:1054C000DF92EF92FF920F931F931B012C01390182
:1054D0004A0184E79AE16BEE73E00E94D1D284E73F
:1054E0009AE1B201A1012AE030E00E94E8D384E70A
:1054F0009AE16FED73E00E94D1D284E79AE1B401A2
:10550000A3012AE030E00E94E8D384E79AE163ED4A
:1055100073E00E94D1D284E79AE1B801A7012AE0A2
:1055200030E00E94E8D384E79AE167EC73E00E94E0
:10553000D1D284E79AE1B601A5012AE030E00E94C9
:10554000E8D384E79AE165EC73E00E941CD32E1443
:105550003F044006510654F46E147F048006910601
:10556000A4F484E79AE167EB73E04BC0E214F30420
:1055700004051505F4F4A614B704C804D9047CF492
:1055800084E79AE169EA73E049C0A614B704C80445
:10559000D90474F584E79AE16BE973E025C06A14D5
:1055A0007B048C049D048CF584E79AE16DE873E03C
:1055B0000EC02E143F044006510699F56A147B0470
:1055C0008C049D0444F484E79AE165E873E00E944A
:1055D0001CD381E02DC0A614B704C804D9040CF56F
:1055E00084E79AE16DE773E00E941CD383E020C05A
:1055F0006A147B048C049D04A1F484E79AE165E7B6
:1056000073E00E941CD384E013C06A147B048C04F2
:105610009D0439F484E79AE16DE673E00E941CD39F
:1056200006C084E79AE16EE077E00E944FD582E001
:105630001F910F91FF90EF90DF90CF90BF90AF90B0
:105640009F908F907F906F905F904F903F902F90A2
:105650000895EF92FF920F931F937C0104E71AE1E4
:10566000C80162ED76E00E94D1D2C801B7010E9464
:1056700060D5C80164EB76E00E941CD31F910F91A6
:10568000FF90EF900895AF92BF92CF92DF92EF928A
:10569000FF920F931F93CF93DF93EC015B016A019D
:1056A00085EF91E169E070E00E944396CA15DB0541
:1056B0009CF476010027F7FC0095102F85EF91E10F
:1056C000BE010E942C95C801B7010E9419CC2196F9
:1056D000AC16BD069CF712C076010027F7FC0095BA
:1056E000102F85EF91E1BE010E942C95C801B701F2
:1056F0000E9419CC2197CA15DB059CF785EF91E133
:105700000E94BD94DF91CF911F910F91FF90EF9078
:10571000DF90CF90BF90AF900895EF92FF920F93DC
:105720001F93DF93CF93CDB7DEB727970FB6F894CB
:10573000DEBF0FBECDBF809116129091171220913F
:10574000F811029714F1222329F0E0900C11F09047
:105750000D1104C0E0900E11F0900F118E010F5F3B
:105760001F4FC8016AEE73E10E9492D9C8017BD82D
:1057700090930F1180930E11C8010E94A4D96091DB
:105780000E1170910F11C7010AC0213059F46091B8
:105790000E1170910F1180910C1190910D1143E039
:1057A00050E071DF1092F81127960FB6F894DEBF23
:1057B0000FBECDBFCF91DF911F910F91FF90EF9062
:1057C0000895EF92FF920F931F93DF93CF93CDB77E
:1057D000DEB727970FB6F894DEBF0FBECDBF80911E
:1057E0001612909117122091F811029714F12223AA
:1057F00029F0E0900C11F0900D1104C0E0900E1112
:10580000F0900F118E010F5F1F4FC8016AEE73E118
:105810000E9492D9C80127D890930D1180930C1142
:10582000C8010E94A4D960910C1170910D11C7019B
:105830000AC0222359F460910C1170910D118091CE
:105840000E1190910F1143E050E01DDF81E0809335
:10585000F81127960FB6F894DEBF0FBECDBFCF91DB
:10586000DF911F910F91FF90EF900895EF92FF92BB
:105870000F931F93CF93DF93182F80E3E82E82E1DD
:10588000F82EC70160915615409157152091581573
:105890000E94CA9FC12FD0E0CE010196A9E8B3E1D2
:1058A000CC0FDD1FCC0FDD1FFD01EC0FFD1F608154
:1058B0007181CA0FDB1F4A815B81880F991F880F96
:1058C000991FFD01E80FF91F20813181A80FB91F31
:1058D00012960D911C911397C7010E94C5A0C70194
:1058E0006091561540915715209158150E94E29FDE
:1058F000C7016FEF4FEF2FEF0E94CA9FDF91CF914B
:105900001F910F91FF90EF900895AF92BF92CF92A9
:10591000DF92EF92FF920F931F93DF93CF93CDB758
:10592000DEB72E970FB6F894DEBF0FBECDBF5C0179
:105930007B018091F610813009F054C080E392E140
:1059400065E045E025E00E94CA9F40918F13509189
:1059500090136091891370918A138A01085E1F4F1A
:1059600080E392E1465F5F4F20E431E00E94C5A0F2
:1059700080E392E16FEF4FEF2FEF0E94CA9F80E329
:1059800092E165E045E025E00E94E29F6E01089407
:10599000C11CD11CC601B7010E949BD9C601B5012B
:1059A0000E94B1D8BC0198E0E92EF12CEC0EFD1E4E
:1059B000C7010E9492D94091891350918A13209176
:1059C0008F1330919013265F3F4F80E392E1B70130
:1059D00000E010E00E9497A7C7010E94A4D9C60169
:1059E0000E94A9D92E960FB6F894DEBF0FBECDBF88
:1059F000CF91DF911F910F91FF90EF90DF90CF90AB
:105A0000BF90AF900895AF92BF92CF92DF92EF9286
:105A1000FF920F931F93DF93CF93CDB7DEB7E79736
:105A20000FB6F894DEBF0FBECDBF5C016B018A01DB
:105A300084E79AE16AE277E00E9467D484E79AE11A
:105A4000B6010E9492D584E79AE165E477E00E946E
:105A50004FD58EEA92E10E94527AC60160E172E06F
:105A60000E9464D78823F9F08E01035E1F4FC8019E
:105A70006EEA72E141E00E94657AC8010E941279E3
:105A8000882339F0C8010E949B78BC01C6010E949E
:105A900016D98E01035E1F4FC8010E941F79C801ED
:105AA0000E9495782DC0101611067CF47E01089492
:105AB000E11CF11CC701B6010E9492D98E01085F5A
:105AC0001F4FC801B7016AD911C0012BC9F02FE0DF
:105AD000E22EF12CEC0EFD1EC701B6010E9492D9F8
