:100000000C94F5100C9422110C9422110C942211D2
:100010000C9422110C9422110C9422110C94221194
:100020000C9422110C9422110C9422110C94221184
:100030000C9422110C9422110C9422110C94221174
:100040000C9422110C9477980C9422110C94221188
:100050000C9422110C9422110C9422110C9483CC38
:100060000C9422110C94D9CE0C941DD00C94221116
:100070000C9422110C9422110C9422110C94221134
:100080000C944A980C9422110C9422110C94221175
:100090000C9419CF0C945CD00C9422110C94221166
:1000A0000C9422110C9422110C941D980C94221182
:1000B0000C9422110C9422110C9422110C94F097A0
:1000C0000C9422110C9422110C9422110C9459CFEF
:1000D0000C949BD00C9422110C9499CF0C94DAD0F0
:1000E0000C942211312F3A308B30DB30F630113145
:1000F0002C316131DF32B032C5319631CC36CC365D
:10010000F4310F32CC362933FA3226342D35FE3411
:1001100093356335DD33C2338D335E3394344334EA
:10012000C934662F9B2F2A327B32A630D02FCC3693
:100130007B325F362F36F935C93505309536B04CF0
:10014000D850B34CB74CD850BC4CC44CCC4CF94CE8
:10015000BD4EE54ED850D8500D4F704ED850284D5A
:10016000554D264F284F534F814FAC4F844DAC4DCA
:10017000F44D1C4E1E4F1C4F204FA84CAC4CAE4EA5
:10018000224FDA4F604ED850244FF14F2450565032
:100190008850DD4FB950E59E059F2C9FA59FA59FD8
:1001A000A59F429FD89FE59ED89F659FD89F749F2B
:1001B000749F929F929F2C9FA59FA59F2C9F749F99
:1001C000D89FA59FBD9FD89FD89FD89FD89FD89FC5
:1001D00006A9A1AABEABB4ACF1ADF1ADCCAF34B1C0
:1001E00043B641B29BB308B4D0B7D9B88ABA8ABA79
:1001F000BEAB8ABB8ABBBEABACB9E5BC86AEAEBDFE
:100200007DBE83C0AABF3CC185C205A84CCDB2D477
:100210004EB93836A9020C50B9918688083CA6AA76
:10022000AA2ABE000000803F000000006410B71D35
:10023000C8206E3BAC30D9269041DC76F4516B6B14
:100240005861B24D3C7105502083B8ED44930FF0D6
:10025000E8A3D6D68CB361CBB0C2649BD4D2D3868C
:1002600078E20AA01CF2BDBD50424D20696D616765
:1002700065206D757374206265206174206C656102
:10028000737420313020706978656C7320776964ED
:10029000652E002C206D61782064656E7369747919
:1002A0003A20002C2070656E2077696474683A20CB
:1002B0000050656E776964746820746573742000FB
:1002C0002C20726564756365643A002C206F757428
:1002D0004D61783A002C20696E4D61783A00696E64
:1002E00044656E733A004E6F7420706F7373696269
:1002F0006C6520746F206578707265737320616E11
:10030000792064657461696C2E0020697320002C6B
:1003100020677269643A20004D53472C492C4D6187
:100320007820776176657320666F722070656E53F2
:10033000697A653A20002C20736F20726F77736999
:100340007A6520696E2073746570733A20002C20E2
:100350006D6D506572537465703A20004D53472C93
:10036000442C726F7773697A6520696E206D6D3ADF
:1003700020002073746570732E003A20004D696E62
:10038000207365676D656E742073697A6520666F8A
:10039000722070656E53697A65200063616C63201A
:1003A00053450063616C63204E570063616C6320AA
:1003B00053570063616C63204E450063616C637545
:1003C0006C61746564204E450063616C63756C619B
:1003D0007465642053570063616C63756C61746568
:1003E000642053450063616C63756C6174656420BF
:1003F0004E57002E002C20736F75726365423A20B1
:10040000002E20536F75726365413A20002C2074D2
:100410006172676574423A20005461726765744185
:100420003A20002C206F4F7574206E756D626572D6
:10043000206F662077617665733A20002C20696E04
:100440007075742064656E736974793A20004D612B
:10045000782077617665732077697468207468699D
:10046000732070656E20616E6420677269647369C1
:100470007A653A20002E002E20656E6420706F6928
:100480006E743A2000537461727420706F696E74D8
:100490003A2000643A204E4500643A204E570064EA
:1004A0003A20535700643A205345002C206D617860
:1004B0002064656E736974793A20002C2070656E33
:1004C0002077696474683A200050656E77696474B7
:1004D00068207465737420004368616E67696E6795
:1004E000206261636B20746F206C697665206D6F8C
:1004F00064652E0046696C652072656D6F76656473
:100500002E0046696C6520616C72656164792065B6
:1005100078697374732E00457865637574696E67C6
:1005200020636F6D6D616E643A0053746F72696E13
:100530006720636F6D6D616E643A006D6D00436896
:10054000616E6765642050656E2077696474682009
:10055000746F20004E657720616363656C6572611E
:1005600074696F6E3A20004E6577206D6178207354
:10057000706565643A200055703A2000446F776ECC
:100580003A2000504753504545442C0050474C49B1
:1005900046542C005047535445504D554C544950E7
:1005A0004C4945522C0050475354455053504552E6
:1005B0005245562C0050474D4D5045525245562CF1
:1005C00000504753495A452C0050474E414D452C49
:1005D000002900526563616C63207061676548653E
:1005E0006967687420696E207374657073202800D1
:1005F0002900526563616C632070616765576964A7
:10060000746820696E207374657073202800290057
:10061000292C2073746570735065724D4D2028002D
:10062000526563616C63206D6D50657253746570C3
:100630002028004C6F61646564206D6F746F7220B8
:1006400073746570206D756C7469706C6965723A4D
:10065000004C6F61646564206D616368696E65203C
:100660006E616D653A004C6F616465642075702041
:10067000706F733A004C6F6164656420646F776ECD
:1006800020706F733A004C6F61646564206D6F7405
:100690006F72207374657073207065722072657656
:1006A0003A004C6F61646564206D6D207065722046
:1006B0007265763A004C6F61646564206D616368B1
:1006C000696E65206865696768743A004C6F61649B
:1006D0006564206D616368696E652077696474681C
:1006E0003A00206E6F74207265636F676E69736580
:1006F000642E0029206E6F74207061727365642E01
:10070000004D53472C452C436F6D6D616E6420285E
:10071000002C20636865636B73756D206E6F7420A9
:100720006D617463686564213A00536572766F2069
:100730000048617264776172653A20007600504F1C
:100740004C41524752415048204F4E21007C3C3E84
:100750005E2B3D3F2F5B5D3B2C2A225C00080C206A
:100760005F0000000000000000000000000000200A
:1007700020202020200020000000285050000000F1
:10078000000000000000002828FC2850FC50500009
:1007900000002078A8A0603028A8F02000000048C1
:1007A000A8B050283454480000000020505078A8C9
:1007B000A8906C0000004040800000000000000095
:1007C0000000040810101010101008040000402051
:1007D00010101010101020400000000020A87070B1
:1007E000A8200000000000202020F8202020000089
:1007F00000000000000000000000404080000000F9
:100800000000F800000000000000000000000000F0
:1008100000004000000008101010202040404080E0
:100820000000007088888888888870000000002098
:100830006020202020207000000000708888102098
:100840004080F800000000708808300808887000B8
:10085000000000103050509078101800000000F890
:100860008080F00808887000000000709080F08898
:1008700088887000000000F89010202020202000C0
:100880000000007088887088888870000000007000
:100890008888887808487000000000000020000068
:1008A00000002000000000000000200000002020C8
:1008B0000000040810204020100804000000000080
:1008C00000F80000F80000000000402010080408B4
:1008D00010204000000000708888102020002000B8
:1008E000000000708898A8A8B88078000000002058
:1008F000203050507848CC00000000F04848704844
:100900004848F0000000007888808080808870006F
:10091000000000F0484848484848F000000000F84F
:10092000485070504048F800000000F8485070509F
:100930004040E000000000384880809C884830003B
:10094000000000CC484878484848CC00000000F837
:10095000202020202020F8000000007C1010101023
:10096000101090E0000000EC485060505048EC003F
:10097000000000E0404040404044FC00000000D83F
:10098000D8D8D8A8A8A8A800000000DC48686858F3
:100990005848E800000000708888888888887000BF
:1009A000000000F0484870404040E0000000007047
:1009B00088888888E8987018000000F048487050CF
:1009C0004848EC0000000078888060100888F0003B
:1009D000000000F8A820202020207000000000CC9B
:1009E0004848484848483000000000CC484850502B
:1009F00030202000000000A8A8A8705050505000DF
:100A0000000000D8505020205050D800000000D8DE
:100A10005050202020207000000000F8901020206E
:100A20004048F800000038202020202020202038D6
:100A300000004040402020101010080000007010FE
:100A40001010101010101070000020500000000056
:100A50000000000000000000000000000000000096
:100A6000FC0020000000000000000000000000006A
:100A70000000304838483C00000000C0404070484A
:100A8000484870000000000000003848404038002E
:100A9000000000180808384848483C0000000000E2
:100AA00000003048784038000000001C20207820EA
:100AB000202078000000000000003C4830407844CE
:100AC000380000C0404070484848EC00000000205A
:100AD0000000602020207000000000100000301096
:100AE00010101010E00000C040405C507048EC0056
:100AF000000000E0202020202020F800000000005E
:100B00000000F0A8A8A8A800000000000000F0481D
:100B10004848EC0000000000000030484848300021
:100B2000000000000000F04848487040E00000006D
:100B300000003848484838081C0000000000D86011
:100B40004040E000000000000000784030087800DD
:100B5000000000002020702020201800000000006D
:100B60000000D84848483C00000000000000EC4865
:100B700050302000000000000000A8A87050500075
:100B8000000000000000D8502050D80000000000F5
:100B90000000EC4850302020C00000000000781019
:100BA00020207800000018101010201010101018CD
:100BB00000101010101010101010101010006020F5
:100BC00020201020202020600040A41800000000F9
:100BD00000000000001010205F0000000000000076
:100BE0000000000000000000000000000000000005
:100BF0000000000000000000000000000007000FDF
:100C0000800F800F800F800F80070007000000001A
:100C100000070007000700000000000E380E380E25
:100C2000380E380630000000000000000000000010
:100C300000000000000000000000000C300C300C30
:100C4000307FFE7FFE0C300C300C300C307FFE7F8E
:100C5000FE0C300C300C3000000000024002400F4F
:100C6000F81FF81A401A401FF00FF8025802581FD8
:100C7000F81FF00240024000000000000000000EDB
:100C8000100E300E7000E001C0038007000E700CE3
:100C9000700870000000000000000000000F001944
:100CA00080198019800F000F080F9819F818F01894
:100CB000E019F00F98000000000000000007000796
:100CC0000007000E0000000000000000000000000F
:100CD0000000000000000000000000000000F00123
:100CE000C0038007000E000E000E000E0007000378
:100CF0008001C000F000000000000000000F0003B1
:100D00008001C000E0007000700070007000E00121
:100D1000C003800F000000000000000000018011EF
:100D200088099007E007E03FFC3FFC07E007E00987
:100D30009011880180000000000000000000000009
:100D4000000180018001800FF00FF001800180011F
:100D50008000000000000000000000000000000013
:100D6000000000000000000000000000000000077C
:100D700000070007000E0000000000000000000057
:100D8000000000000000001FF81FF8000000000035
:100D90000000000000000000000000000000000053
:100DA000000000000000000000000000000000073C
:100DB0000007000700000000000000000000020023
:100DC00006000E001C0038007000E001C003800720
:100DD000000E001C0000000000000000000FF01CCE
:100DE000381C781CF81CF81DB81DB81F381F381E99
:100DF000381C380FF00000000000000000018001E6
:100E00008003801F801F8003800380038003800392
:100E10008003801FF000000000000000000FE01CB5
:100E2000701C380038007000E001C0038007000E1D
:100E3000381C381FF800000000000000000FE01C04
:100E4000701C380038007003C003C0007000381CEC
:100E5000381C700FE0000000000000000000E001FE
:100E6000E003E006E00CE018E01FF81FF800E000E7
:100E7000E000E003F800000000000000001FF81C84
:100E8000001C001C001C001FE01FF0007800381C34
:100E9000381C700FE0000000000000000003E007B5
:100EA000000E001C001C001FF01FF81C381C381C12
:100EB000381C380FF000000000000000001FFC1C70
:100EC0001C1C1C1C1C001C0038007000E001C0032E
:100ED000800380038000000000000000000FF01C71
:100EE000381C381C381F3807E007E01CF81C381C79
:100EF000381C380FF000000000000000000FF01C4C
:100F0000381C381C381C381FF80FF800380038001F
:100F10007000E007C00000000000000000000000BA
:100F2000000380038003800000000003800380032F
:100F30008000000000000000000000000000000031
:100F4000000380038003800000000003800380030F
:100F50008007000000000000000000007000E001B9
:100F6000C0038007000E001C001C000E00070003D9
:100F70008001C000E00070000000000000000000E0
:100F80000000003FFC3FFC000000003FFC3FFC0075
:100F900000000000000000000000001C000E000720
:100FA00000038001C000E00070007000E001C00399
:100FB0008007000E001C000000000003C00FF01EA0
:100FC0007818380038007000E001C001C00000004F
:100FD0000001C001C001C0000000000FF81C1C1C73
:100FE0001C1C1C1C1C1CFC1CFC1CFC1CFC1C001CDD
:100FF000001C001FF007F800000000000003C007FD
:10100000E00E701C381C381C381C381FF81C381CAB
:10101000381C381C3800000000000000001FF00ED3
:10102000380E380E380E380FF00FF00E380E380E1E
:10103000380E381FF0000000000000000007F00E1E
:10104000381C381C001C001C001C001C001C001C50
:10105000380E3807F000000000000000001FE00E0E
:10106000700E380E380E380E380E380E380E380E18
:10107000380E701FE000000000000000001FF80E96
:10108000180E080E000E300FF00FF00E300E000E8E
:10109000080E181FF800000000000000001FF80EE6
:1010A000180E080E000E300FF00FF00E300E000E6E
:1010B000000E001F00000000000000000007F00EFE
:1010C000381C381C381C001C001C001CF81C381C68
:1010D000380E3807F800000000000000001C701CEB
:1010E000701C701C701C701FF01FF01C701C701C9A
:1010F000701C701C7000000000000000000FE00376
:1011000080038003800380038003800380038003C7
:101110008003800FE0000000000000000001FC00E0
:101120007000700070007000700070387038703897
:101130007038700FE000000000000000001E380E44
:10114000380E700EE00FC00F800F800FC00EE00E43
:10115000700E381E3800000000000000001F000E56
:10116000000E000E000E000E000E000E000E080E07
:10117000180E381FF800000000000000001C1C1EA4
:101180003C1F7C1FFC1FFC1DDC1C9C1C1C1C1C1C15
:101190001C1C1C1C1C00000000000000001C1C1C6F
:1011A0001C1E1C1F1C1F9C1DDC1CFC1C7C1C3C1CD6
:1011B0001C1C1C1C1C000000000000000003E007B9
:1011C000F00E381C1C1C1C1C1C1C1C1C1C1C1C0E8B
:1011D0003807F003E000000000000000001FF00EE0
:1011E000380E380E380E380FF00FF00E000E000ECD
:1011F000000E001F00000000000000000003E00FD0
:10120000780E381C1C1C1C1C1C1C1C1C7C1CFC0F81
:10121000F80FF8003800FC0000000000001FF00E7E
:10122000380E380E380E380FF00FF00E700E380EE4
:10123000380E381E3800000000000000000FF01CBF
:10124000381C381C381C000FE007F000381C381C14
:10125000381C380FF000000000000000001FFC19CF
:10126000CC11C401C001C001C001C001C001C00156
:10127000C001C007F000000000000000001C701C4E
:10128000701C701C701C701C701C701C701C701CFE
:10129000701C700FE000000000000000001C701CBB
:1012A000701C701C701C701C701C701C701C700EEC
:1012B000E007C0038000000000000000001C1C1CB0
:1012C0001C1C1C1C1C1C1C1C9C1C9C1C9C0FF80F1C
:1012D000F80770077000000000000000001C701C80
:1012E000701C700EE007C00380038007C00EE01C76
:1012F000701C701C7000000000000000001C701CBE
:10130000701C701C701C700EE007C003800380030B
:101310008003800FE000000000000000001FF81CA8
:10132000381838107000E001C0038007000E081C58
:10133000181C381FF8000000000000000007F0072C
:101340000007000700070007000700070007000765
:1013500000070007F0000000000000000010001867
:10136000001C000E000700038001C000E0007000B8
:1013700038001C0007000000000000000007F0001B
:1013800070007000700070007000700070007000DD
:1013900070007007F0000000000000018003C0072B
:1013A000E00E701C3800000000000000000000008B
:1013B000000000000000000000000000000000002D
:1013C000000000000000000000000000000000001D
:1013D00000000000007FFF7FFF000000001C001CD9
:1013E00000070007000000000000000000000000EF
:1013F00000000000000000000000000000000000ED
:1014000000000000000FE0007000700FF01C701C66
:10141000701C700FD800000000000000001E000EBD
:10142000000E000E000FF00E380E380E380E380E7B
:10143000380E381BF0000000000000000000000023
:1014400000000000000FE01C701C701C001C001C41
:10145000701C700FE0000000000000000000F800A9
:1014600070007000700FF01C701C701C701C701CE1
:10147000701C700FD8000000000000000000000089
:1014800000000000000FE01C701C701FF01C001C0E
:10149000701C700FE0000000000000000003E00777
:1014A000700770070007001FE01FE0070007000734
:1014B0000007001FC0000000000000000000000046
:1014C00000000000000FD81C701C701C701C700FF6
:1014D000F007F000701C700FE0000000001E000E0E
:1014E000000E000E000EF00F380F380E380E380EBA
:1014F000380E381E38000000000000000001C00156
:10150000C001C000000FC001C001C001C001C00186
:10151000C001C00FF80000000000000000007000D3
:10152000700070000003F000700070007000700028
:101530007000701C700CF007E0000000001E000E30
:10154000000E000E000E380E700EE00FC00EE00E02
:10155000700E381E3800000000000000000FC001AF
:10156000C001C001C001C001C001C001C001C00173
:10157000C001C00FF80000000000000000000000E3
:1015800000000000001FF81C9C1C9C1C9C1C9C1C48
:101590009C1C9C1C9C00000000000000000000003F
:1015A00000000000001FE01C701C701C701C701CF0
:1015B000701C701C700000000000000000000000A3
:1015C00000000000000FE01C701C701C701C701CE0
:1015D000701C700FE0000000000000000000000020
:1015E00000000000001BF00E380E380E380E380ECA
:1015F000380FF00E000E001F000000000000000079
:1016000000000000001FB038E038E038E038E03873
:10161000E01FE000E000E001F0000000000000003A
:1016200000000000001EF00FF80F380E000E000E34
:10163000000E001F0000000000000000000000007D
:1016400000000000000FE01C301C300F8003E01889
:101650007018700FE00000000000000000000001A2
:1016600000030007001FF00700070007000700073E
:1016700070077003E00000000000000000000000A0
:1016800000000000001C701C701C701C701C701C82
:10169000701C700FD8000000000000000000000067
:1016A00000000000001C701C701C701C701C700E70
:1016B000E007C00380000000000000000000000000
:1016C00000000000001C1C1C1C1C1C1C9C1C9C0FF3
:1016D000F807700770000000000000000000000024
:1016E00000000000001CE01CE00FC0078007800F16
:1016F000C01CE01CE0000000000000000000000032
:1017000000000000000E380E380E380E380E380774
:10171000F003E000E001C01F8000000000000000B6
:1017200000000000001FE018E011C0038007000E59
:10173000201C601FE0000000000000000001F80312
:10174000800380038007001C001C00070003800347
:1017500080038001F800000000000001C001C0010A
:10176000C001C001C001C001C001C001C001C00171
:10177000C001C001C001C00000000000001F8001C6
:10178000C001C001C000E00038003800E001C00125
:10179000C001C01F8000000000000000001F1C3BB3
:1017A0009C39DC38F8000000000000000000000058
:1017B0000000000000000000002032300A0000009D
:1017C000000000000000FFFE0001FFFF0003FFFF1C
:1017D0008001FFFF600CFFFEF01E0001F83F0001DA
:1017E000F83F0001F83F0001F83F0001F83F000119
:1017F000F83F0001F83F0001F83F0001F83F000109
:10180000F83F0001F83F0001F83F0001F83F0001F8
:10181000F83E0000783800001820000008000000A2
:101820000020000000380000183E0000783F000152
:10183000F83F0001F83F0001F83F0001F83F0001C8
:10184000F83F0001F83F0001F83F0001F83F0001B8
:10185000F83F0001F83F0001F83F0001F83F0001A8
:10186000F83F0001F81E0000F00CFFFE6001FFFFD2
:101870000003FFFF8001FFFF0000FFFE00000000EB
:101880000000000000000000000000000000000058
:1018900000000000000000000000000060000000E8
:1018A000F0000001F8000001F8000001F80000015C
:1018B000F8000001F8000001F8000001F800000144
:1018C000F8000001F8000001F8000001F800000134
:1018D000F8000001F8000001F800000078000000A6
:1018E00018000000080000000000000000000000D8
:1018F0001800000078000001F8000001F800000165
:10190000F8000001F8000001F8000001F8000001F3
:10191000F8000001F8000001F8000001F8000001E3
:10192000F8000001F8000001F8000001F8000000D4
:10193000F000000060000000000000000000000057
:101940000000000000000000000000000000000097
:10195000000000000000FFFE0001FFFF0003FFFF8A
:101960008001FFFF6000FFFEF0000001F8000001B1
:10197000F8000001F8000001F8000001F800000183
:10198000F8000001F8000001F8000001F800000173
:10199000F8000001F8000001F8000001F800000163
:1019A000F80000007801FFFE1803FFFF880FFFFF1B
:1019B000E027FFFFC039FFFF003E0000003F0000AE
:1019C000003F0000003F0000003F0000003F00001B
:1019D000003F0000003F0000003F0000003F00000B
:1019E000003F0000003F0000003F0000003F0000FB
:1019F000003F0000001E0000000CFFFE0001FFFF82
:101A00000003FFFF8001FFFF0000FFFE0000000059
:101A10000000000000000000000000000000FFFEC9
:101A20000001FFFF0003FFFF8001FFFF6000FFFEDA
:101A3000F0000001F8000001F8000001F8000001CA
:101A4000F8000001F8000001F8000001F8000001B2
:101A5000F8000001F8000001F8000001F8000001A2
:101A6000F8000001F8000001F80000007801FFFE16
:101A70001803FFFF880FFFFFE007FFFFC001FFFF14
:101A80001800000078000001F8000001F8000001D3
:101A9000F8000001F8000001F8000001F800000162
:101AA000F8000001F8000001F8000001F800000152
:101AB000F8000001F8000001F8000001F800000043
:101AC000F000FFFE6001FFFF0003FFFF8001FFFF4A
:101AD0000000FFFE00000000000000000000000009
:101AE00000000000000000000000000000000000F6
:101AF00000000000600C0000F01E0001F83F000133
:101B0000F83F0001F83F0001F83F0001F83F0001F5
:101B1000F83F0001F83F0001F83F0001F83F0001E5
:101B2000F83F0001F83F0001F83F0001F83F0001D5
:101B3000F83E00007839FFFE1823FFFF880FFFFFF3
:101B4000E007FFFFC001FFFF180000007800000160
:101B5000F8000001F8000001F8000001F8000001A1
:101B6000F8000001F8000001F8000001F800000191
:101B7000F8000001F8000001F8000001F800000181
:101B8000F8000001F8000000F00000006000000014
:101B90000000000000000000000000000000000045
:101BA0000000000000000000000000000000FFFE38
:101BB0000001FFFF0003FFFF8001FFFF000CFFFE9D
:101BC000001E0000003F0000003F0000003F00003A
:101BD000003F0000003F0000003F0000003F000009
:101BE000003F0000003F0000003F0000003F0000F9
:101BF000003F0000003F0000003E00000039FFFEF3
:101C00000023FFFF800FFFFFE007FFFFC001FFFF82
:101C10001800000078000001F8000001F800000141
:101C2000F8000001F8000001F8000001F8000001D0
:101C3000F8000001F8000001F8000001F8000001C0
:101C4000F8000001F8000001F8000001F8000000B1
:101C5000F000FFFE6001FFFF0003FFFF8001FFFFB8
:101C60000000FFFE00000000000000000000000077
:101C7000000000000000FFFE0001FFFF0003FFFF67
:101C80008001FFFF000CFFFE001E0000003F00006F
:101C9000003F0000003F0000003F0000003F000048
:101CA000003F0000003F0000003F0000003F000038
:101CB000003F0000003F0000003F0000003F000028
:101CC000003E00000039FFFE0023FFFF800FFFFFF2
:101CD000E027FFFFC039FFFF183E0000783F0001FA
:101CE000F83F0001F83F0001F83F0001F83F000114
:101CF000F83F0001F83F0001F83F0001F83F000104
:101D0000F83F0001F83F0001F83F0001F83F0001F3
:101D1000F83F0001F81E0000F00CFFFE6001FFFF1D
:101D20000003FFFF8001FFFF0000FFFE0000000036
:101D30000000000000000000000000000000FFFEA6
:101D40000001FFFF0003FFFF8001FFFF6000FFFEB7
:101D5000F0000001F8000001F8000001F8000001A7
:101D6000F8000001F8000001F8000001F80000018F
:101D7000F8000001F8000001F8000001F80000017F
:101D8000F8000001F8000001F800000078000000F1
:101D90001800000008000000000000000000000023
:101DA0001800000078000001F8000001F8000001B0
:101DB000F8000001F8000001F8000001F80000013F
:101DC000F8000001F8000001F8000001F80000012F
:101DD000F8000001F8000001F8000001F800000020
:101DE000F0000000600000000000000000000000A3
:101DF00000000000000000000000000000000000E3
:101E0000000000000000FFFE0001FFFF0003FFFFD5
:101E10008001FFFF600CFFFEF01E0001F83F000193
:101E2000F83F0001F83F0001F83F0001F83F0001D2
:101E3000F83F0001F83F0001F83F0001F83F0001C2
:101E4000F83F0001F83F0001F83F0001F83F0001B2
:101E5000F83E00007839FFFE1823FFFF880FFFFFD0
:101E6000E027FFFFC039FFFF183E0000783F000168
:101E7000F83F0001F83F0001F83F0001F83F000182
:101E8000F83F0001F83F0001F83F0001F83F000172
:101E9000F83F0001F83F0001F83F0001F83F000162
:101EA000F83F0001F81E0000F00CFFFE6001FFFF8C
:101EB0000003FFFF8001FFFF0000FFFE00000000A5
:101EC0000000000000000000000000000000FFFE15
:101ED0000001FFFF0003FFFF8001FFFF600CFFFE1A
:101EE000F01E0001F83F0001F83F0001F83F00013B
:101EF000F83F0001F83F0001F83F0001F83F000102
:101F0000F83F0001F83F0001F83F0001F83F0001F1
:101F1000F83F0001F83F0001F83E00007839FFFE6D
:101F20001823FFFF880FFFFFE007FFFFC001FFFF3F
:101F30001800000078000001F8000001F80000011E
:101F4000F8000001F8000001F8000001F8000001AD
:101F5000F8000001F8000001F8000001F80000019D
:101F6000F8000001F8000001F8000001F80000008E
:101F7000F000FFFE6001FFFF0003FFFF8001FFFF95
:101F80000000FFFE00000000000000000000002133
:101F900000240027002A002D00300033000101003A
:101FA00000040107010A0100002200250028002B7F
:101FB000002E003100340002010000050108010B71
:101FC00001000020002300260029002C002F0032F1
:101FD00000000100000301060109010505050507D0
:101FE0000508080808020202020A0A080804040494
:101FF00004010101010101010103030303030303C0
:1020000003040707070C0C0C0C0C0C0C0C0202024E
:102010000206060606060606060B0B0B0B0B0B0B41
:102020000B010210202008081020401020408002E0
:10203000010201080402010102040810204080800E
:102040004020100804020180040201804020100892
:10205000040201080402010102040810204080016A
:10206000020408102040800000090A02080B0C0D31
:10207000070603040100000000000000000000004B
:102080000000000000000000000000000000000050
:1020900000000011100F0000000000000000000010
:1020A00000000000000000000000000000494E4653
:1020B000494E4954594E414ECDCCCC3D0AD7233CD4
:1020C00017B7D13877CC2B329595E6241FB14F0A3C
:1020D000000020410000C84200401C4620BCBE4C0D
:1020E000CA1B0E5AAEC59D7400407A10F35A00A068
:1020F000724E18090010A5D4E80000E876481700D1
:1021000000E40B54020000CA9A3B000000E1F50510
:10211000000080969800000040420F000000A0865A
:1021200001000000102700000000E803000000008C
:102130006400000000000A00000000000100000030
:1021400000002C76D888DC674F0823DFC1DFAE594A
:10215000E1B1B796E5E3E453C63AE651997696E8DD
:10216000E6C28426EB898C9B62ED407C6FFCEFBC61
:102170009C9F40F2BAA56FA5F490055A2AF75C938C
:102180006B6CF9676DC11BFCE0E40D47FEF520E6C2
:10219000B500D0ED902E0300943577050080841EA5
:1021A000080000204E0A000000C80C333333330F00
:1021B000986E12831141EF8D2114893BE65516CF9D
:1021C000FEE6DB18D1844B381BF77C1D901DA4BBA9
:1021D000E424203284725E228100C9F124ECA1E55E
:1021E0003D27F61B157B4AD2F11B11241FBECFEFF2
:1021F000D1E2DEBFCDBF00E00CBF12E1A0E0B2E053
:10220000EAEBFEEB01E00BBF02C007900D92A43297
:10221000B107D9F71BBE1BE1A4E2B2E101C01D92D8
:10222000AF34B107E1F711E2C8EED1E204C0229762
:10223000FE010E940BDFC23ED107C9F70E9480D386
:102240000C9451DF0C940000EF92FF920F931F93B8
:10225000F22FF02E47FD02C0E4E001C0E4E1242F9C
:10226000332727FD309537FF03C0309521953F4F29
:102270004F2D512F0F2FEE2E2FD18F2D912F1F91DC
:102280000F91FF90EF900895A0E0B0E0EAE4F1E153
:102290000C9422DFEC01A880B980CA80DB80A114F5
:1022A000B104C104D10441F484E2A82E89EDB82E12
:1022B0008BE5C82E87E0D82EC601B5012DE133EF9E
:1022C00041E050E00E94EEDE27EA31E440E050E0D9
:1022D0000E947ADE7B018C01C601B5012DE133EF4E
:1022E00041E050E00E94EEDECA01B9012CEE34EF6D
:1022F0004FEF5FEF0E947ADE6E0D7F1D801F911FF2
:1023000097FF04C061507040804090486883798393
:102310008A839B839B01AC015F77B901CA01CDB76A
:10232000DEB7EAE00C943EDFAFCF84ED90E1ACCFB6
:102330006093D4107093D5108093D6109093D710DB
:1023400008956627772729C2FC0188279927E894F2
:1023500021912032E9F3293010F02E30C8F32B32CE
:1023600039F02D3231F4689403C0AED0820F911D44
:10237000219120532A30C8F31EF4909581959F4FE8
:1023800008951F93FC0199278827BC01E8941191B7
:102390001032E9F3193010F01E30C8F31B3249F047
:1023A0001D3241F4689405C07AD0610F711D811D02
:1023B000911D119110531A30B8F33EF49095809509
:1023C000709561957F4F8F4F9F4F1F910895FB012F
:1023D000DC0104C08D910190801921F441505040DE
:1023E000C8F7881B990B0895FB01DC0102C001901E
:1023F0000D9241505040D8F70895FC018191861705
:1024000021F08823D9F7992708953197CF010895AE
:10241000FB01DC018D91019080190110D9F3990B1A
:102420000895FB01DC0101900D920020E1F7089571
:10243000FB01DC014150504030F08D91019080193A
:1024400019F40020B9F7881B990B0895FB01DC01F2
:102450004150504048F001900D920020C9F701C052
:102460001D9241505040E0F70895FB0151915523D2
:10247000A9F0BF01DC014D9145174111E1F759F475
:10248000CD010190002049F04D9140154111C9F353
:10249000FB014111EFCF81E090E001970895592FA2
:1024A000482F372F262F660F771F881F991F660F1B
:1024B000771F881F991F620F731F841F951F660F58
:1024C000771F881F991F08957AE0979F902D879F07
:1024D000802D910D11240895A9E0B0E0E2E7F2E12A
:1024E0000C941EDF6A01122FA02EBE2C2BE32017A6
:1024F00018F42CE3922E02C0902E9394AE014F5FFD
:102500005F4F27E0092DA6D2BC018981E82EFF2468
:10251000C70189709070019711F4ADE209C0B1FE56
:1025200002C0ABE205C0B0FC02C0A0E001C0A0E266
:10253000E3FE3BC0AA2311F423E001C024E02117ED
:1025400010F020E002C0121B212FEB2CB4FE02C0C1
:10255000322F0AC0F601322F80E202C0819331503F
:102560003323E1F7C20ED11CAA2319F0F601A1937F
:102570006F01F6013196E2FE05C09EE4D6019C9300
:1025800081E404C09EE6D6019C9381E611968C936B
:1025900091833296DF01832F90E202C09D93815098
:1025A0008823E1F7E30FF11D40C0E2FE42C0AA23F9
:1025B00011F423E001C024E0211710F020E002C054
:1025C000121B212FEB2CB4FE02C0922F0AC0F60181
:1025D000922F80E202C0819391509923E1F7C20EBD
:1025E000D11CAA2319F0F601A1936F01F6013196CF
:1025F000E2FE08C089E4D6018C938EE411968C9398
:1026000086E407C089E6D6018C938EE611968C93FA
:1026100086E681833296DF01892F20E202C02D9366
:1026200081508823E1F7E90FF11D10822EEF3FEF73
:10263000AFC0161617061CF041E050E003C0AB0116
:102640004F5F5F4FAA2019F480E090E003C08A2D0D
:1026500090E0019620E030E0AA2311F021E030E084
:10266000240F351F280F391F812F90E028173907B5
:1026700014F020E002C0121B212F4B2D50E0CA01A4
:1026800080719070B4FC0DC0B3FC0BC0F601322F0A
:1026900040E202C0419331503323E1F7C20ED11C16
:1026A00001C0322FAA2319F0F601A1936F01892BE3
:1026B00011F0132F0AC0F601132F80E302C081939B
:1026C00011501123E1F7C30ED11C092D060FBA805A
:1026D00090E1892E912C8E209F20E4FE04C0F1E32E
:1026E000BF1609F40150101614F001E003C00930C0
:1026F00008F008E09B0177FF02C020E030E0CB014A
:102700000196821B930BFE013196E80FF91F8EE2B2
:10271000F82E3B01601A71088A2D90E04427552756
:10272000481B590B8FEF2F3F380719F4D601FD9244
:102730006D01621773072CF06216730614F4808122
:1027400001C080E32150304031962417350724F032
:10275000D6018D936D01E6CF2617370749F4B5E30F
:10276000BB1528F0BB1621F48114910409F481E310
:10277000F6018193D601812F90E202C09C93815093
:1027800011968823D9F7E10FF11D108220E030E087
:10279000C9012996EEE00C943ADFA0E0B0E0E3ED49
:1027A000F3E10C9420DFEC015B016115710519F078
:1027B000FB0191838083F9908F2D90E00E940FDFC1
:1027C000892BC9F7FDE2FF1621F4F990EE24E3947A
:1027D00005C02BE2F21609F4F990EE248E010150A7
:1027E0001040C8016DEA70E243E050E00BD2892B43
:1027F000F9F48E010E5F1F4FC80160EB70E245E0F7
:1028000050E000D2892B19F48E01095F1F4FA114EB
:10281000B10419F0F50111830083E0FC04C070E0FD
:1028200090E080E813C070E090E080E86FEF07C1AF
:10283000C80165EB70E243E050E0E4D1892B69F414
:10284000A114B10429F470E090E080EC6FE7F7C0C8
:102850002296F501D183C083F6CF8824992440E0E5
:1028600050E060E070E0EF2DE053EA30A0F5F2E0D8
:10287000EF2A8E2D90E09C0128703070E2FE06C099
:10288000232B79F50894811C911C2BC0232B19F064
:10289000089481089108DB01CA0112E0880F991F92
:1028A000AA1FBB1F1A95D1F7480F591F6A1F7B1F1C
:1028B000440F551F661F771F4E0F511D611D711D5F
:1028C000483929E9520729E9620729E1720748F0E6
:1028D00084E0E82A06C0EE3F31F4E3FC39C098E01A
:1028E000E92AF990C0CFE53311F0E53189F5299156
:1028F0002D3219F4E0E1EE2A05C02B3219F081E007
:1029000090E003C0299182E090E0E22FE053EA30AA
:1029100018F0C81BD90B1CC020E030E0FCE02038C8
:102920003F075CF4C901880F991F880F991F280F72
:10293000391F220F331F2E0F311DE991E053EA306A
:1029400068F3E4FE03C0309521953F4F820E931E3D
:10295000CE2CDD24E1FE07C0A114B10421F02197A3
:10296000F501D183C083CB01BA010E947ADC7B01DF
:102970008C01F3E0CF22DD2423E0C216D10421F440
:1029800017FB109517F9109557016801C801B70199
:1029900020E030E040E050E00E94DADB882309F4D8
:1029A0004AC097FE0DC02CECE22E20E2F22E90944D
:1029B000819491089394C0E2D0E000E010E012C04E
:1029C00094EEE92E90E2F92EF6CFF701259135919C
:1029D00045915491C601B5010E9472DD5B016C0105
:1029E0008C1A9D0A8C169D0684F7D595C7950F5FA6
:1029F0001F4F0630110529F08CEF9FEFE80EF91EEE
:102A0000F1CFC501D6017C018D018C2D880F8D2D54
:102A1000881F8F3F51F0C601B50120E030E040E053
:102A200050E00E94DADB882331F482E290E0909358
:102A30004E1B80934D1B7E2D9F2D802F612F272FA6
:102A4000392F482F562FB901CA01CDB7DEB7ECE0B8
:102A50000C943CDF283008F027E03327DA01990F87
:102A6000311D87FD916000966105710539F4326072
:102A70002E5F3D9330E32A95E1F708959F3F30F0B4
:102A800080387105610509F03C5F3C5F3D939130F2
:102A900008F08068911DDF93CF931F930F93FF92EF
:102AA000EF92192F987F9695E92F96959695E90FB5
:102AB000FF27EE5BFE4D99273327EE24FF24A70165
:102AC000E70105900894079428F4360FE71EF81ED6
:102AD000491F511D660F771F881F991F0694A1F784
:102AE0000590079428F4E70EF81E491F561FC11DD4
:102AF000770F881F991F661F0694A1F7059007940A
:102B000028F4F80E491F561FC71FD11D880F991FA3
:102B1000661F771F0694A1F70590079420F4490FCC
:102B2000561FC71FD81F990F661F771F881F06944F
:102B3000A9F784911095177041F0D695C7955795D0
:102B40004795F794E7941A95C1F7E8EEF0E2689498
:102B50001590159135916591959105907FE273954A
:102B6000E118F10A430B560BC90BD009C0F7E10C71
:102B7000F11E431F561FC91FD01D7EF4703311F480
:102B80008A95E6CFE894015030F0080F0AF4002748
:102B9000021708F4202F2395022F7A3328F079E3C7
:102BA0007D932A95E9F710C07D932A9589F60694BE
:102BB00097956795379517951794E118F10A430B88
:102BC000560BC90BD00998F023957E9173957A33F3
:102BD00008F070E37C932013B8F77E9170617D93C9
:102BE00030F0839571E37D9370E32A95E1F711242A
:102BF000EF90FF900F911F91CF91DF91992787FD63
:102C000090950895FB01DC014150504088F08D9172
:102C100081341CF08B350CF4805E659161341CF0BE
:102C20006B350CF4605E861B611171F3990B08958E
:102C3000881BFCCF982F80912711813079F5943033
:102C4000E9F0953030F4913059F0923009F0E5C058
:102C50000EC09530D9F0963009F0DFC083E20895B8
:102C600080912F13882309F4D9C081E208958091BF
:102C7000FA12882309F4D1C082E008958091EA1005
:102C8000882311F485E0089584E008958091281246
:102C9000882311F487E0089588E008958091271132
:102CA0008630C9F4943009F4BBC0953030F49230CA
:102CB00061F0933009F0B1C00AC0953021F0963030
:102CC00009F0ABC006C089E008958AE0089583E169
:102CD000089582E10895809127118430C9F49430D9
:102CE00009F49EC0953030F4923061F0933009F0D1
:102CF00094C00AC0953021F0963009F08EC006C00D
:102D00008BE108958CE108958AE1089589E10895A1
:102D1000809127118530C9F4943009F481C0953031
:102D200030F4923061F0933009F077C00AC09530EA
:102D300021F0963009F071C006C085E1089586E162
:102D4000089588E1089587E10895809127118930D9
:102D5000E9F49330A9F0943030F4913079F0923066
:102D600009F05BC009C0953069F0953008F458C08F
:102D7000963009F052C008C08BE208958DE20895A4
:102D800089E208958AE2089588E2089580912711E2
:102D90008330D1F4943051F0953018F49230E9F545
:102DA00007C0953039F09630C1F506C08FE0089520
:102DB0008CE008958BE0089580912713882311F407
:102DC00080E1089582E20895809127118730D1F43F
:102DD000933091F0943028F4913061F09230E9F41E
:102DE00007C0953059F09530D8F09630B1F408C04E
:102DF0008FE1089585E208958EE108958DE10895AB
:102E000087E2089580912711883039F4913019F0C4
:102E1000943019F405C08CE20895089580E2089575
:102E200084E10895CF92DF92EF92FF920F931F9368
:102E3000CF93DF93EC016B01688179818A819B815B
:102E400020912C1130912D1140912E1150912F1164
:102E50000E9472DD688379838A839B83F601608197
:102E60007181828193812091301130913111409193
:102E70003211509133110E9472DD7B018C01F601F9
:102E800060837183828393832091A5153091A61569
:102E9000C9018E978A35910580F4288139814A814C
:102EA0005B81D801C701B05888839983AA83BB830B
:102EB000208331834283538329C0C90188589040BD
:102EC0008A35910580F488819981AA81BB81B058A7
:102ED00088839983AA83BB83F60180819181A28133
:102EE000B381B0580FC0225E30402A35310570F4EE
:102EF00088819981AA81BB81E882F9820A831B8338
:102F0000B058F60180839183A283B383688179816D
:102F10008A819B812091A7153091A8154091A91510
:102F20005091AA150E9476DB688379838A839B83FC
:102F3000F60160817181828193812091AB1530917E
:102F4000AC154091AD155091AE150E9476DBF6019F
:102F50006083718382839383DF91CF911F910F915F
:102F6000FF90EF90DF90CF9008952F923F924F9275
:102F70005F926F927F928F929F92AF92BF92CF9209
:102F8000DF92EF92FF920F931F931B012C013901E7
:102F90004A01609138127091391280913A129091E1
:102FA0003B120E947CDC7B018C01A80197010E94EE
:102FB00072DD5B016C01C401B301A40193010E94A5
:102FC00072DD9B01AC01C601B5010E9475DB5B019E
:102FD0006C01C201B101A20191010E9472DD9B014D
:102FE000AC01C601B5010E9476DB5B016C01C80132
:102FF000B701A80197010E9476DB9B01AC01C601D5
:10300000B5010E94E1DB1F910F91FF90EF90DF90DF
:10301000CF90BF90AF909F908F907F906F905F9078
:103020004F903F902F9008950F931F93CF93DF936E
:10303000242F2627A22FB0E0AF70B070AA0FBB1FBD
:10304000AA0FBB1FC8E2D2E0AC0FBD1FFD01059166
:10305000159125913491E4E096958795779567953C
:10306000EA95D1F7062717272827392742954F7069
:10307000402750E04F705070440F551F440F551FAC
:103080004C0F5D1FFA0185919591A591B49144E093
:1030900036952795179507954A95D1F7082719274B
:1030A0002A273B27B801C901DF91CF911F910F91CA
:1030B0000895CF92DF92EF92FF920F931F9381308A
:1030C000910509F068C26F5F7F4F09F083C389EEF5
:1030D00093E160E072E00E94CAD980EF93E165E07D
:1030E00072E00E94CAD985E292E10E94899589E244
:1030F00092E161E172E00E94CAD987EF93E162E157
:1031000072E00E94CAD96091DE107091DF108827AA
:1031100077FD8095982F2091D8103091D9104427B1
:1031200037FD4095542F0E947ADE0E947CDC7B01A3
:103130008C016091DA107091DB108091DC1090911D
:10314000DD10A80197010E94E1DB609330127093BB
:1031500031128093321290933312C801B70120913B
:10316000DA103091DB104091DC105091DD100E949C
:10317000E1DB7B018C0160933412709335128093F4
:103180003612909337126091281170912911882777
:1031900077FD8095982F0E947CDCA80197010E9402
:1031A00072DD0E9449DC609338127093391280936B
:1031B0003A1290933B1260912A1170912B1188273B
:1031C00077FD8095982F0E947CDCA80197010E94D2
:1031D00072DD0E9449DC60933C1270933D12809333
:1031E0003E1290933F128EEF93E16BE172E00E94EA
:1031F000CAD985E094E16DE172E00E94CAD98CE001
:1032000094E161E272E00E94CAD983E194E169E24B
:1032100072E00E94CAD98AE194E16CE572E00E94F2
:10322000CAD981E294E16CE572E00E94CAD988E2D1
:1032300094E16CE572E00E94CAD98FE294E16CE5FA
:1032400072E00E94CAD986E394E16BE672E00E94C4
:10325000CAD98DE394E165E772E00E94CAD984E49B
:1032600094E16CE772E00E94CAD98BE494E164E8CF
:1032700072E00E94CAD982E594E16FE872E00E9490
:10328000CAD989E594E165E972E00E94CAD980E66D
:1032900094E16AE972E00E94CAD987E694E16DE997
:1032A00072E00E94CAD98EE694E160EA72E00E9460
:1032B000CAD985E794E166E374E10E9478DA80E593
:1032C00092E161E172E00E94CAD98CE794E163EA7D
:1032D00072E00E94CAD983E894E165EA72E00E9434
:1032E000CAD98AE894E16AEA72E00E94CAD981E9FF
:1032F00094E16EEA72E00E94CAD988E994E162EB37
:1033000072E00E94CAD98FE994E166EB72E00E94F4
:10331000CAD986EA94E16AEB72E00E94CAD98DEAC2
:1033200094E16EEB72E00E94CAD984EB94E162EC06
:1033300072E00E94CAD98BEB94E166EC72E00E94C5
:10334000CAD982EC94E16AEC72E00E94CAD989EC95
:1033500094E16EEC72E00E94CAD980ED94E162EDD6
:1033600072E00E94CAD987ED94E166ED72E00E9496
:10337000CAD98EED94E16AED72E00E94CAD985EE59
:1033800094E16EED72E00E94CAD98CEE94E162EE97
:1033900072E00E94CAD983EF94E166EE72E00E9467
:1033A000CAD98AEF94E16AEE72E00E94CAD981E03C
:1033B00095E16EEE72E00E94CAD988E095E162EF75
:1033C00072E00E94CAD98FE095E166EF72E00E9438
:1033D000CAD986E195E16AEF72E00E94CAD98DE10F
:1033E00095E16EEF72E00E94CAD984E295E162E055
:1033F00073E00E94CAD98BE295E166E073E00E9417
:10340000CAD982E395E16AE073E00E94CAD989E3F0
:1034100095E16EE073E00E94CAD980E495E163E132
:1034200073E00E94CAD987E495E167E173E00E94E6
:10343000CAD98EE495E16BE173E00E94CAD985E5B3
:1034400095E16FE173E00E94CAD98CE595E163E2F2
:1034500073E00E94CAD983E695E167E273E00E94B7
:10346000CAD98AE695E16BE273E00E94CAD981E786
:1034700095E16FE273E00E94CAD988E795E163E3C2
:1034800073E00E94CAD98FE795E167E373E00E9479
:10349000CAD986E895E16BE373E00E94CAD98DE84A
:1034A00095E16FE373E00E94CAD984E995E163E492
:1034B00073E00E94CAD98BE995E167E473E00E944A
:1034C000CAD980E692E16EE046E250E027E230E0C1
:1034D00008E210E079E2E72EF12CCC24DD240E94F2
:1034E000F8C38CE892E16BE04CE022E103E1B2E04A
:1034F000EB2E0E9480C68DEC92E161E172E00E94A9
:10350000CAD987ED92E161E172E00E94CAD98EEDDD
:1035100092E10E9468798CEF92E10E94687988E2DA
:1035200093E161E172E00E94CAD981E393E161E035
:1035300044E025E004E0A5E0EA2E0E94C19385E77F
:1035400093E161E047E028E00E94C19362E370E00C
:1035500080E090E02FEF30E040E050E00E94F4D6B1
:103560006093A21562E370E080E090E02FEF30E01E
:1035700040E050E00E94F4D66093A31562E370E04F
:1035800080E090E02FEF30E040E050E00E94F4D681
:103590006093A4151FC1892B09F01CC16F5F7F4F79
:1035A00009F018C188E293E10E948ADA8CEF92E177
:1035B0000E947B798EED92E10E947B7987ED92E10A
:1035C0000E948ADA8DEC92E10E948ADA8BE995E119
:1035D0000E948ADA84E995E10E948ADA8DE895E111
:1035E0000E948ADA86E895E10E948ADA8FE795E1FF
:1035F0000E948ADA88E795E10E948ADA81E795E1FC
:103600000E948ADA8AE695E10E948ADA83E695E1E9
:103610000E948ADA8CE595E10E948ADA85E595E1D7
:103620000E948ADA8EE495E10E948ADA87E495E1C5
:103630000E948ADA80E495E10E948ADA89E395E1C2
:103640000E948ADA82E395E10E948ADA8BE295E1B0
:103650000E948ADA84E295E10E948ADA8DE195E19E
:103660000E948ADA86E195E10E948ADA8FE095E18C
:103670000E948ADA88E095E10E948ADA81E095E189
:103680000E948ADA8AEF94E10E948ADA83EF94E159
:103690000E948ADA8CEE94E10E948ADA85EE94E147
:1036A0000E948ADA8EED94E10E948ADA87ED94E135
:1036B0000E948ADA80ED94E10E948ADA89EC94E132
:1036C0000E948ADA82EC94E10E948ADA8BEB94E120
:1036D0000E948ADA84EB94E10E948ADA8DEA94E10E
:1036E0000E948ADA86EA94E10E948ADA8FE994E1FC
:1036F0000E948ADA88E994E10E948ADA81E994E1F9
:103700000E948ADA8AE894E10E948ADA83E894E1E6
:103710000E948ADA8CE794E10E948ADA80E592E1DD
:103720000E948ADA85E794E10E948ADA8EE694E1C3
:103730000E948ADA87E694E10E948ADA80E694E1C0
:103740000E948ADA89E594E10E948ADA82E594E1AE
:103750000E948ADA8BE494E10E948ADA84E494E19C
:103760000E948ADA8DE394E10E948ADA86E394E18A
:103770000E948ADA8FE294E10E948ADA88E294E178
:103780000E948ADA81E294E10E948ADA8AE194E175
:103790000E948ADA83E194E10E948ADA8CE094E163
:1037A0000E948ADA85E094E10E948ADA8EEF93E142
:1037B0000E948ADA87EF93E10E948ADA89E292E135
:1037C0000E948ADA80EF93E10E948ADA89EE93E11F
:1037D0000E948ADA1F910F91FF90EF90DF90CF90B7
:1037E000089580E090E06FEF7FEF63CC81E090E0A0
:1037F0006FEF7FEF5ECCCF92DF92EF92FF920F934D
:103800001F93CF93DF936C01EE24EA94FE2C870183
:10381000C0E0D0E00BC0C601BE010E9411D7482F06
:10382000C801B70101DC7B018C012196F60184817E
:103830009581C817D90778F3A8019701209530958D
:1038400040955095B901CA01DF91CF911F910F9119
:10385000FF90EF90DF90CF9008950F931F9384E037
:1038600090E00E944ECB8C010E94EBCB2DB73EB76F
:10387000201B310BC9011F910F910895EEDF9C01B0
:10388000809144129091451228173907D1F0309356
:1038900045122093441280EC9AE16CE074E10E949E
:1038A00046D6609144127091451280EC9AE14AE04C
:1038B00050E00E941ED580EC9AE163E874E10C941C
:1038C00078D6089580EC9AE16DE374E10C9478D693
:1038D00080EC9AE166E374E10C9478D6AF92BF92E3
:1038E000CF92DF92EF92FF920F931F937B018C0197
:1038F000CA01B9010E9472DD5B016C01C801B70108
:10390000A80197010E9472DD9B01AC01C601B501BF
:103910000E9475DB0E94DFDD1F910F91FF90EF90F9
:10392000DF90CF90BF90AF9008956F927F928F926B
:103930009F92AF92BF92CF92DF92EF92FF920F933E
:103940001F937B018C0111DB5B016C01A8019701C6
:10395000C5DF3B014C01E090FA10F090FB100091A4
:10396000FC101091FD10C801B7010E947CDC9B0186
:10397000AC01C601B5010E94DADB87FD4AC0809127
:10398000021190910311A0910411B0910511E80E5C
:10399000F91E0A1F1B1FC801B7010E947CDC9B0196
:1039A000AC01C601B5010E946EDD181694F1E090DD
:1039B000FE10F090FF100091001110910111C8014C
:1039C000B7010E947CDC9B01AC01C401B3010E94E1
:1039D000DADB87FD1EC0DD2480910611909107116E
:1039E000A0910811B0910911E80EF91E0A1F1B1FC2
:1039F000C801B7010E947CDC9B01AC01C401B3018A
:103A00000E946EDD181614F4DD24D39481E0D826CC
:103A100001C0DD248D2D1F910F91FF90EF90DF905D
:103A2000CF90BF90AF909F908F907F906F900895B0
:103A3000AF92BF92CF92DF92EF92FF920F931F93BC
:103A40007B018C0159016A01609138127091391221
:103A500080913A1290913B120E947CDCA801970160
:103A60000E9475DB9B01AC010E9472DD7B018C0121
:103A7000C601B501A60195010E9472DD9B01AC0152
:103A8000C801B7010E9476DB0E94DFDD1F910F9114
:103A9000FF90EF90DF90CF90BF90AF900895AF92DE
:103AA000BF92CF92DF92EF92FF920F931F937B0111
:103AB0008C0159016A01A80197010E9472DD7B0106
:103AC0008C01C601B501A60195010E9472DD9B0122
:103AD000AC01C801B7010E9476DB0E94DFDD1F91B7
:103AE0000F91FF90EF90DF90CF90BF90AF9008952F
:103AF0002F923F924F925F926F927F928F929F92FE
:103B0000AF92BF92CF92DF92EF92FF920F931F93EB
:103B1000DF93CF9300D00F92CDB7DEB769837A835E
:103B20008B839C8359016A01170128016115710576
:103B30008105910559F40F2EF0E0EF2EF0E0FF2EF5
:103B4000F0E00F2FF0E01F2FF02DA4C0CA01B90143
:103B50000E9472DD7B018C01C601B50120E030E0DE
:103B600040E050E00E94DADB882324F417FB109534
:103B700017F91095C201B101A20191010E9476DBF3
:103B80003B014C01C801B701A40193010E94E1DB94
:103B90007B018C0169817A818B819C810E947CDC14
:103BA0009B01AC01C801B7010E94DADB8823B4F5A0
:103BB000C601B50120E030E040E050E00E94DADBD1
:103BC000882329F4C401B3010E94DFDD0DC0C201C6
:103BD000B101A60195010E94E1DB9B01AC015F7779
:103BE000C601B5010E9476DB7B018C01D090E0100C
:103BF000C090E110B090E210A090E3102D2D3C2D6C
:103C00004B2D5A2D0E946EDD18160CF043C08D2DE1
:103C10009C2DAB2DBA2D7C018D013CC0C601B50198
:103C200020E030E040E050E00E94DADB882359F4E5
:103C3000C401B3010E94DFDD7B018C0117FB1095ED
:103C400017F910950FC0C201B101A60195010E949C
:103C5000E1DB9B01AC015F77C601B5010E9475DB1A
:103C60007B018C018091E0109091E110A091E21015
:103C7000B091E3105C016D01D7FAD094D7F8D094DD
:103C8000C801B701A60195010E94DADB882314F46C
:103C900086017501B701C8010F900F900F900F902A
:103CA000CF91DF911F910F91FF90EF90DF90CF9018
:103CB000BF90AF909F908F907F906F905F904F904C
:103CC0003F902F900895EF92FF920F931F93809152
:103CD000E910882309F456C080EC9AE162E574E1AA
:103CE0000E9446D681E393E10E940C8F0E947CDC07
:103CF0007B018C016091DE107091DF10882777FDC9
:103D00008095982F0E947CDC9B01AC01C801B70113
:103D10000E94E1DB0E9449DCAB01BC0180EC9AE12E
:103D20002AE030E00E94CED480EC9AE16CE774E1A6
:103D30000E9446D685E793E10E940C8F0E947CDCAE
:103D40007B018C016091DE107091DF10882777FD78
:103D50008095982F0E947CDC9B01AC01C801B701C3
:103D60000E94E1DB0E9449DCAB01BC0180EC9AE1DE
:103D70002AE030E00E94CED480EC9AE163E874E15E
:103D80000E9478D61F910F91FF90EF900895EF92C7
:103D9000FF920F931F938091401290914112A09136
:103DA0004212B09143120097A105B10509F03FC03E
:103DB000609138127091391280913A1290913B12B1
:103DC0000E947CDC7B018C0160913C1270913D1261
:103DD00080913E1290913F120E947CDC9B01AC01CD
:103DE000C801B7015CDE20E030E040E05FE30E9404
:103DF00076DB0E9449DC60934012709341128093FD
:103E000042129093431280EC9AE16BE473E00E94BB
:103E10004DD54091401250914112609142127091E3
:103E2000431280EC9AE12AE030E00E940CD56091C8
:103E300040127091411280914212909143121F9151
:103E40000F91FF90EF900895AF92BF92CF92DF92C3
:103E5000EF92FF920F931F937B018C0159016A012E
:103E60000E94CBCC9B01AC012093481230934912A5
:103E700040934A1250934B1281E393E1B801A7019A
:103E80000E94A29085E793E1B601A5010E94A2904D
:103E900015C08091E810882349F081E393E10E94E6
:103EA000529585E793E10E94529508C081E393E122
:103EB0000E942F9585E793E10E942F9581E393E17E
:103EC0000E94FC8E611571058105910549F485E715
:103ED00093E10E94FC8E611571058105910529F021
:103EE0008091EA10882351F3D4CFEDDE1F910F911A
:103EF000FF90EF90DF90CF90BF90AF900895AF927A
:103F0000BF92CF92DF92EF92FF920F931F9381E3C4
:103F100093E10E94529585E793E10E94529581E3D7
:103F200093E10E94FC8E611571058105910509F0F0
:103F300047C06091FA107091FB108091FC10909135
:103F4000FD10209102113091031140910411509104
:103F50000511260F371F481F591F0E94F4D65B0119
:103F60006C016091FE107091FF1080910011909192
:103F700001112091061130910711409108115091C3
:103F80000911260F371F481F591F0E94F4D67B01C5
:103F90008C01C601B5010E947CDC5B016C01C8018B
:103FA000B7010E947CDC9B01AC01C601B50177DD45
:103FB0000E9449DCAB01BC0181E393E10E94919036
:103FC00085E793E10E94FC8E6115710581059105DD
:103FD00009F047C06091FA107091FB108091FC10BD
:103FE0009091FD1020910211309103114091041124
:103FF00050910511260F371F481F591F0E94F4D6F4
:104000005B016C016091FE107091FF1080910011B6
:1040100090910111209106113091071140910811E2
:1040200050910911260F371F481F591F0E94F4D6BF
:104030007B018C01C601B5010E947CDC5B016C0137
:10404000C801B7010E947CDC9B01AC01C601B5012F
:10405000EFDC0E9449DCAB01BC0185E793E10E94E3
:1040600091901F910F91FF90EF90DF90CF90BF90B4
:10407000AF90089580EC9AE162E673E00C9435D637
:1040800080EC9AE168ED74E00E9402D41092D6129E
:104090000895EF92FF920F931F937C0100EC1AE1B9
:1040A000C80169E773E00E944DD5C801B7010E94BD
:1040B00046D6C80162EE76E00E9402D41F910F91AD
:1040C000FF90EF9008958F929F92AF92BF92CF9200
:1040D000DF92EF92FF920F931F936C017B0180ECB4
:1040E0009AE160E873E00E944DD580EC9AE1B60158
:1040F0004AE050E00E941ED580EC9AE169E873E046
:104100000E944DD580EC9AE1B7014AE050E00E9450
:1041100030D580EC9AE16EE873E00E944DD5609155
:1041200021137091221380EC9AE14AE050E00E9442
:1041300030D580EC9AE16EE973E00E944DD5409154
:104140001713509118136091191370911A1380EC82
:104150009AE12AE030E00E940CD54601AA2497FC9F
:10416000A094BA2C8091211390912213AA2797FD35
:10417000A095BA2F880E991EAA1EBB1E0027F7FC19
:104180000095102F20911713309118134091191397
:1041900050911A13C801B7010E947ADE860E971E4D
:1041A000A81EB91E80EC9AE168EA73E00E944DD522
:1041B00080EC9AE1B501A4012AE030E00E94CED45F
:1041C0008091231390912413A0912513B09126136D
:1041D00088159905AA05BB0514F41FEF18C08CEFCC
:1041E00092E1B501A4010E94177A8CEF92E10E943E
:1041F000287A182F80EC9AE161EB73E00E944DD58C
:1042000080EC9AE1612F4AE050E00E94B2D4812F05
:104210001F910F91FF90EF90DF90CF90BF90AF90E4
:104220009F908F9008950F931F93CF93DF93EC018E
:104230008B0180EC9AE160EC73E00E944DD580EC3C
:104240009AE1BE014AE050E00E941ED580EC9AE15E
:1042500063EC73E00E944DD580EC9AE1B8014AE02E
:1042600050E00E9430D58091B9139091BA13C817CD
:10427000D907B4F08091BD139091BE138C179D07A0
:104280007CF08091BB139091BC130817190744F080
:104290008091BF139091C013801791070CF097C0C5
:1042A0008091C1139091C213C817D907BCF08091B7
:1042B000C5139091C6138C179D0784F08091C3138A
:1042C0009091C413081719074CF08091BF13909177
:1042D000C0138017910714F082E07AC08091C9134F
:1042E0009091CA13C817D907BCF08091CD13909153
:1042F000CE138C179D0784F08091CB139091CC1333
:10430000081719074CF08091CF139091D0138017A4
:10431000910714F083E05CC08091D1139091D21387
:10432000C817D907BCF08091D5139091D6138C177C
:104330009D0784F08091D3139091D4130817190727
:104340004CF08091D7139091D8138017910714F0F7
:1043500084E03EC08091D9139091DA13C817D90731
:10436000BCF08091DD139091DE138C179D0784F0D3
:104370008091DB139091DC13081719074CF08091A2
:10438000DF139091E0138017910714F085E020C0AF
:104390008091E1139091E213C817D907BCF0809186
:1043A000E5139091E6138C179D0784F08091E31339
:1043B0009091E413081719074CF08091E71390913E
:1043C000E8138017910714F086E002C001C081E075
:1043D000DF91CF911F910F910895EF92FF920F936C
:1043E0001F93CF93DF93C0E0D0E080EC9AE168ECBC
:1043F00073E00E944DD580EC9AE1BE014AE050E0A6
:104400000E9430D581E393E10E94FC8E6115710515
:104410008105910509F468C085E793E10E94FC8E4F
:10442000611571058105910509F45EC081E393E191
:104430000E94529585E793E10E945295E3CF6EEF7B
:104440007FEF8FEF9FEF23E030E040E050E00E94ED
:10445000F4D67B018C01A701662757FD6095762F66
:1044600081E393E10E94A29080EC9AE161ED73E018
:104470000E944DD580EC9AE1B7014AE050E00E94DD
:1044800030D585E793E10E94FC8E611571058105A9
:10449000910511F56EEF7FEF8FEF9FEF23E030E096
:1044A00040E050E00E94F4D67B018C01A701662712
:1044B00057FD6095762F85E793E10E94A29080ECEE
:1044C0009AE167EE73E00E944DD580EC9AE1B70166
:1044D0004AE050E00E9430D5F6DB219683E0C83EEA
:1044E000D80709F082CF0AC081E393E10E94FC8ED5
:1044F000611571058105910521F6A1CFDF91CF915D
:104500001F910F91FF90EF9008956F927F928F927D
:104510009F92AF92BF92CF92DF92EF92FF920F9352
:104520001F93DF93CF93CDB7DEB7A3970FB6F89461
:10453000DEBF0FBECDBF6DB67EB68CEF92E140E020
:1045400050E060E070E00E94177A7E010894E11C60
:10455000F11CC7016DEF73E00E94CAD98CEF92E1A4
:104560000E94287A182FC70160E070E00E9422D7CD
:10457000FC0110838CEF92E10E94287A182FC7016A
:1045800061E070E00E9422D7FC011083C70160E067
:1045900074E00E944AD8882399F480EC9AE163E0A1
:1045A00074E00E944DD580EC9AE1B7010E9446D696
:1045B00080EC9AE161E274E00E9435D610E083C19C
:1045C00080EC9AE16CE374E00E9435D68CEF92E1C6
:1045D0000E94287A8E01085F1F4FC80161E172E0D6
:1045E0000E94CAD98CEF92E10E94287AE82E8FE0CF
:1045F000C82ED12CCC0EDD1EF02E012F21C083E25F
:10460000E81641F48CEF92E10E94287AE82E9AE0B5
:10461000E916C1F7C6016F2D702F0E9481DAC6011D
:104620006E2D0E946ED9BC018F2D902F0E9463DAEF
:10463000C6010E948FDA8CEF92E10E94287AE82E60
:104640008AE0E81619F090E2E916C9F680EC9AE1E2
:1046500062E674E00E944DD518E0E12EF12CEC0EDC
:10466000FD1E80EC9AE1B7010E9478D64C855D85ED
:104670004F5F5F4F8DB79EB7841B950B0FB6F894B5
:104680009EBF0FBE8DBF0DB71EB70F5F1F4F902E81
:10469000812EB02EA12EC701B80120E030E00E948B
:1046A000FBD7C8010E94A411AA2797FDA095BA2F95
:1046B0008093171390931813A0931913B0931A13A0
:1046C0000A97A105B10544F480EC9AE168E672E02E
:1046D0000E9402D410E0F3C0C70161E172E00E94C1
:1046E000FCD98CEF92E10E94287A182FB6E1CB2EEC
:1046F000D12CCC0EDD1EC701FE2C092F1FC013329A
:1047000039F48CEF92E10E94287A182F8A30C9F789
:10471000C6016F2D702F0E9481DAC601612F0E94A1
:104720006ED9BC018F2D902F0E9463DAC6010E94C2
:104730008FDA8CEF92E10E94287A182F1A30F9F65E
:1047400080EC9AE16DE674E00E944DD5A8E0CA2E97
:10475000D12CCC0EDD1E80EC9AE1B6010E9478D6F9
:104760004C855D854F5F5F4FC6016B2D7A2D20E034
:1047700030E00E94FBD7892D982D0E94A411AA2712
:1047800097FDA095BA2F80931B1390931C13A093B1
:104790001D13B0931E13BC01CD010E947CDC7B0174
:1047A0008C016091171370911813809119139091D7
:1047B0001A130E947CDC9B01AC01C801B7010E9466
:1047C000E1DB609316117093171180931811909389
:1047D000191180EC9AE169E774E00E944DD540918F
:1047E000161150911711609118117091191180ECE8
:1047F0009AE122E030E00E9424D6C60161E172E035
:104800000E94FCD98CEF92E10E94287A182F0D2D7E
:10481000FDE1EF2EF12CEC0EFD1E16C0C7016C2D34
:10482000702F0E9481DAC701612F0E946ED9BC01EE
:104830008C2D902F0E9463DAC7010E948FDA8CEFD3
:1048400092E10E94287A182F1A3041F780EC9AE101
:104850006BE874E00E944DD580EC9AE16C2D702FCE
:104860000E9478D64C855D854F5F5F4F8C2D902FD1
:104870006B2D7A2D20E030E00E94FBD7892D982DFA
:104880000E94A4119093201380931F138CEF92E148
:104890000E94D279709322136093211380EC9AE1E5
:1048A0006FE974E00E944DD560912113709122133D
:1048B00080EC9AE14AE050E00E9430D511E0CE0150
:1048C00008960E948ADACE0101960E948ADA812F28
:1048D0000FB6F8947EBE0FBE6DBEA3960FB6F894C9
:1048E000DEBF0FBECDBFCF91DF911F910F91FF9023
:1048F000EF90DF90CF90BF90AF909F908F907F9080
:104900006F900895EF92FF920F931F93DF93CF93D1
:10491000CDB7DEB7FC01EDB6FEB6448155814F5FE1
:104920005F4F8DB79EB7841B950B0FB6F8949EBF53
:104930000FBE8DBF0DB71EB70F5F1F4FCF01B80160
:1049400020E030E00E94FBD7C8010E94A4110FB6FE
:10495000F894FEBE0FBEEDBECF91DF911F910F9177
:10496000FF90EF900895EF92FF920F931F93DF93C4
:10497000CF93CDB7DEB727970FB6F894DEBF0FBE43
:10498000CDBF8E010F5F1F4FC8016AE174E10E9425
:1049900078DAC801B7DF7C01C8010E948ADAEF2803
:1049A00019F41092CC120EC08091D412882321F0F9
:1049B00081E08093CC1206C080EC9AE16DEA74E04D
:1049C0000E9435D627960FB6F894DEBF0FBECDBF36
:1049D000CF91DF911F910F91FF90EF9008950F936A
:1049E0001F93DF93CF93CDB7DEB72E970FB6F89412
:1049F000DEBF0FBECDBF8E010F5F1F4FC8016AE142
:104A000074E10E9478DAC8017DDF909337118093BA
:104A10003611C8010E948ADA8E01085F1F4FC80153
:104A200061E274E10E9478DAC8016CDF909335117D
:104A300080933411C8010E948ADA2E960FB6F8943A
:104A4000DEBF0FBECDBFCF91DF911F910F910895B3
:104A5000EF92FF920F931F93DF93CF93CDB7DEB703
:104A60006B970FB6F894DEBF0FBECDBFFC01EDB65D
:104A7000FEB6448155814F5F5F4F8DB79EB7841B53
:104A8000950B0FB6F8949EBF0FBE8DBF0DB71EB726
:104A90000F5F1F4FCF01B80120E030E00E94FBD72D
:104AA000CE0101966FEA75E1A80121E00E94E47D44
:104AB0008B819C819093FF128093FE128D819E8149
:104AC000AF81B8858093001390930113A0930213D4
:104AD000B093031389859A85AB85BC8580930413B5
:104AE00090930513A0930613B0930713A8E0B3E1C6
:104AF000FE013D968DE001900D928150E1F78A8D87
:104B00009B8D9093161380931513CE0101960E94EE
:104B10007B798CEF92E10E94F879882329F480EC6C
:104B20009AE161ED74E007C0F0DC882341F480EC89
:104B30009AE162EE74E00E9435D680E00DC08CEF01
:104B400092E10E94E579609323137093241380937C
:104B500025139093261381E00FB6F894FEBE0FBE86
:104B6000EDBE6B960FB6F894DEBF0FBECDBFCF91F2
:104B7000DF911F910F91FF90EF900895AF92BF9238
:104B8000CF92DF92EF92FF920F931F93DF93CF9319
:104B9000CDB7DEB76B970FB6F894DEBF0FBECDBFB3
:104BA0006C01ADB6BEB64091DB125091DC124F5F86
:104BB0005F4F8DB79EB7841B950B0FB6F8949EBFC1
:104BC0000FBE8DBF0DB71EB70F5F1F4F87ED92E170
:104BD000B80120E030E00E94FBD77E010894E11C80
:104BE000F11CC7016FEA75E1A80123E10E94E47D91
:104BF000C7010E94F8798823D1F080EC9AE16AEE2F
:104C000074E00E944DD580EC9AE167ED72E10E945C
:104C100078D6C701B6010E9478D6C7010E94057AEE
:104C200080EC9AE16BEF74E00E9435D60CC080EC0A
:104C30009AE161E075E00E944DD580EC9AE167ED64
:104C400072E10E9478D6CE0101960E947B790FB660
:104C5000F894BEBE0FBEADBE6B960FB6F894DEBF25
:104C60000FBECDBFCF91DF911F910F91FF90EF90BD
:104C7000DF90CF90BF90AF9008952F923F924F92C8
:104C80005F926F927F928F929F92BF92CF92DF92AC
:104C9000EF92FF920F931F93DF93CF93CDB7DEB7C1
:104CA000ED970FB6F894DEBF0FBECDBF4C016B0180
:104CB000CE01019661E172E00E94CAD98E01085FBF
:104CC0001F4FC8016EED72E141E00E944B7BC801AD
:104CD0000E94F879882389F0C8010E948179BC017B
:104CE000C6010E944AD8882341F080EC9AE160E135
:104CF00075E00E9435D6C80179C08E01085F1F4F4C
:104D0000C8010E948179BC017E010894E11CF11C5C
:104D1000C7010E94FCD980EC9AE165E175E00E9430
:104D20004DD580EC9AE1B7010E9478D6B02E012FC4
:104D300033E2632E712C6C0E7D1E24E1222E312C69
:104D40002C0E3D1E9FE2492E512C4C0E5D1E1F2D38
:104D50008B2D902F0E94057AC3016EED72E141E028
:104D60000E944B7B8DA19EA19B878A878FA198A5CE
:104D7000A9A5BAA58C879D87AE87BF878BA59CA563
:104D8000ADA5BEA5888B998BAA8BBB8BD101F201F7
:104D90008DE001900D928150E1F78CAD9DAD9AA30D
:104DA00089A3C3010E947B798B2D902F0E94F879F3
:104DB0008823D1F08B2D902F0E948179BC01C601F0
:104DC0000E944AD8882331F0C6016E2D712F0E94AF
:104DD00063DA0AC08B2D902F0E948179BC018E2D41
:104DE000912F0E94FCD9B4CFCE0108960E94057A7B
:104DF000C401B6010E9478DACE0108960E947B7940
:104E0000CE0101960E948ADAC401ED960FB6F8949D
:104E1000DEBF0FBECDBFCF91DF911F910F91FF90ED
:104E2000EF90DF90CF90BF909F908F907F906F908A
:104E30005F904F903F902F9008954F925F926F92A6
:104E40007F928F929F92AF92BF92CF92DF92EF921A
:104E5000FF921F93DF93CF93CDB7DEB7E6970FB6E0
:104E6000F894DEBF0FBECDBF5C016B017E010894DC
:104E7000E11CF11C6CE1862E912C8C0E9D1E5DE0D8
:104E8000452E512C4C0E5D1E48E2642E712C6C0E8A
:104E90007D1EC7016EED72E141E00E944B7BC701B0
:104EA0000E94F879882309F44BC0C7010E948179D8
:104EB000BC01C6010E944AD8882311F410E041C009
:104EC00080EC9AE161E275E00E9435D6C7010E944C
:104ED000057AC4016EED72E141E00E944B7B8E8D3C
:104EE0009F8D9C838B8388A199A1AAA1BBA18D834F
:104EF0009E83AF83B8878CA19DA1AEA1BFA18987F6
:104F00009A87AB87BC87D201F3018DE001900D92A7
:104F10008150E1F78DA99EA99B8F8A8FC4010E94C1
:104F20007B79C7010E94F879882339F0C7010E9474
:104F30008179BC01C6010E94FCD9C7010E94057A93
:104F400011E0C7010E94057AC7010E947B791123F5
:104F500009F49FCFC501B6010E9478DAC501E69633
:104F60000FB6F894DEBF0FBECDBFCF91DF911F917A
:104F7000FF90EF90DF90CF90BF90AF909F908F9079
:104F80007F906F905F904F9008952F923F924F9235
:104F90005F926F927F928F929F92AF92BF92CF92C9
:104FA000DF92EF92FF921F93DF93CF93CDB7DEB7DF
:104FB000E6970FB6F894DEBF0FBECDBF4C016B0174
:104FC0007E010894E11CF11CF8E22F2E312C2C0EEE
:104FD0003D1EEDE04E2E512C4C0E5D1E7CE1672EE9
:104FE000712C6C0E7D1E56010894A11CB11CC701CA
:104FF000B40141E00E944B7BC7010E94F8798823ED
:1050000011F010E027C080EC9AE16DE275E00E949B
:1050100035D6C7010E947B79E6960FB6F894DEBFBD
:105020000FBECDBFCF91DF911F91FF90EF90DF902A
:10503000CF90BF90AF909F908F907F906F905F9038
:105040004F903F902F90089580EC9AE169E00E9484
:10505000DAD31F5F812F90E08C159D05ACF3C7015B
:105060000E948179BC0180EC9AE10E944DD5C70174
:105070000E948679882381F180EC9AE161E375E0F2
:105080000E9435D68B819C819F8F8E8F8D819E81D2
:10509000AF81B88588A399A3AAA3BBA389859A8564
:1050A000AB85BC858CA39DA3AEA3BFA389E591E18D
:1050B0009D8F8C8FD101F2018DE001900D92815076
:1050C000E1F78A8D9B8D9EAB8DABC301B5015DDF92
:1050D000C3010E947B7911C080EC9AE163E375E023
:1050E0000E944DD5C7010E94E579AB01BC0180EC5F
:1050F0009AE12AE030E00E94A0D4C7010E94057A1C
:10510000C7010E947B7973CF0F931F93DF93CF93D7
:10511000CDB7DEB7E6970FB6F894DEBF0FBECDBFB2
:1051200085E361E00E94C4CD8FEA95E165E30E94CA
:10513000047F882339F480EC9AE162EC76E00E94E7
:1051400035D609C080EC9AE16EED76E00E9435D646
:1051500081E08093F9128091F912882309F484C0C8
:1051600080EC9AE165EF76E00E9435D6CE0101969B
:105170006FEA75E141E355E021E00E94E47D8B8117
:105180009C819093E1128093E0128D819E81AF818A
:10519000B8858093E2129093E312A093E412B09347
:1051A000E51289859A85AB85BC858093E61290933C
:1051B000E712A093E812B093E912AAEEB2E1FE0161
:1051C0003D968DE001900D928150E1F78A8D9B8D87
:1051D0009093F8128093F712CE0101960E947B798A
:1051E00081E08093FA128091E0129091E1129F8FFA
:1051F0008E8F8091E2129091E312A091E412B0910F
:10520000E51288A399A3AAA3BBA38091E61290916B
:10521000E712A091E812B091E9128CA39DA3AEA36E
:10522000BFA389E591E19D8F8C8FDE019896EAEE10
:10523000F2E18DE001900D928150E1F78091F7123B
:105240009091F8129EAB8DAB8E01045E1F4FC8018A
:1052500060E070E09ADEC8010E947B7980EC9AE100
:1052600067E077E00E9435D6E6960FB6F894DEBF89
:105270000FBECDBFCF91DF911F910F9108950F9376
:105280001F931092271301E112E088E293E1B80125
:105290000E94FCD91092F9121092FA1287ED92E155
:1052A000B8010E94FCD930DF1F910F9108954F92F1
:1052B0005F926F927F928F929F92AF92BF92CF92A6
:1052C000DF92EF92FF920F931F93CF93DF934C01E6
:1052D0003B012A01BA01882777FD8095982F0E940B
:1052E0007CDC5B016C01B401882777FD8095982FE9
:1052F0000E947CDC7B018C01B301882777FD8095BF
:10530000982F0E947CDC9B01AC01C801B7010E9470
:10531000E1DBA60195010E9472DD9B01AC01C60193
:10532000B5010E9475DB7B018C0180EC9AE16EED8A
:1053300072E00E94B7D380EC9AE1B4014AE050E0F9
:105340000E941ED580EC9AE165ED72E00E94B7D311
:1053500080EC9AE1B3014AE050E00E941ED580EC57
:105360009AE16BEC72E00E94B7D380EC9AE1B20153
:105370004AE050E00E941ED580EC9AE160EC72E0B9
:105380000E94B7D380EC9AE1B801A70122E030E097
:105390000E9424D6C801B7010E9449DCEB01BE017E
:1053A000882777FD8095982F0E947CDC9B01AC01BB
:1053B000C801B7010E9475DB20E030E040E05FE308
:1053C0000E946EDD18160CF42196CE01DF91CF916C
:1053D0001F910F91FF90EF90DF90CF90BF90AF9013
:1053E0009F908F907F906F905F904F900895AF92B5
:1053F000BF92CF92DF92EF92FF920F931F93CF93C2
:10540000DF935B016C01EA01BA01882777FD809583
:10541000982F0E947CDC2091301230913112409103
:105420003212509133120E9472DD7B018C0180ECAC
:105430009AE16CE573E00E94B7D380EC9AE1B80181
:10544000A70122E030E00E9422D680EC9AE16EE4CF
:1054500073E00E94B7D340913012509131126091A5
:1054600032127091331280EC9AE122E030E00E9417
:1054700022D680EC9AE166E373E00E94B7D380EC19
:105480009AE1BE014AE050E00E9430D5C801B70160
:10549000A60195010E94E1DB7B018C0120E030E058
:1054A00040E050E40E946EDD87FF03C001E010E0A1
:1054B00008C0C801B7010E9449DC8B016230710548
:1054C000D4F580EC9AE168E173E00E94B7D380ECF8
:1054D0009AE1B601A50122E030E00E9422D680ECDC
:1054E0009AE16FE073E00E94B7D380EC9AE1BE01CD
:1054F0004AE050E00E941ED580EC9AE16AE073E039
:105500000E94B7D380EC9AE1B8014AE050E00E94D3
:1055100030D580EC9AE169E574E10E9446D680ECD2
:105520009AE167E674E10E9446D680EC9AE166EE65
:1055300072E00E9402D4C801DF91CF911F910F91B8
:10554000FF90EF90DF90CF90BF90AF900895AF9213
:10555000BF92CF92DF92EF92FF920F931F935B0166
:105560006C012091341230913512409136125091D5
:1055700037120E9472DD7B018C0120E030E040E0B8
:1055800050E40E946EDD87FF03C001E010E005C01B
:10559000C801B7010E9449DC8B0180EC9AE16DE7FC
:1055A00073E00E94B7D380EC9AE1B601A50122E036
:1055B00030E00E9422D680EC9AE16AE773E00E9414
:1055C000B7D380EC9AE1B8014AE050E00E941ED5C2
:1055D00080EC9AE162E773E00E94B7D380EC9AE135
:1055E0000E94E2D3C8011F910F91FF90EF90DF90CE
:1055F000CF90BF90AF900895EF92FF920F931F93BB
:10560000609138117091391180913A1190913B114C
:105610009EDF7C0100EC1AE1C80169E574E10E949B
:1056200046D6C80167E674E10E9446D6C8016DE01F
:1056300077E00E944DD5EE0CFF1CC801B7014AE08F
:1056400050E00E941ED5C80163E277E00E944DD56C
:105650006091DE107091DF10C7010E94B9DEC801B1
:105660004AE050E00E941ED5C80166E277E00E9441
:1056700035D61F910F91FF90EF9008952F923F9292
:105680004F925F926F927F928F929F92AF92BF9252
:10569000CF92DF92EF92FF920F931F931B012C0189
:1056A00039014A0180EC9AE169E174E00E94B7D3C4
:1056B00080EC9AE1B201A1012AE030E00E94CED450
:1056C00080EC9AE16DE074E00E94B7D380EC9AE13F
:1056D000B401A3012AE030E00E94CED480EC9AE12C
:1056E00061E074E00E94B7D380EC9AE1B801A701B1
:1056F0002AE030E00E94CED480EC9AE165EF73E0BE
:105700000E94B7D380EC9AE1B601A5012AE030E00F
:105710000E94CED480EC9AE163EF73E00E9402D441
:105720002E143F044006510654F46E147F04800684
:105730009106A4F480EC9AE165EE73E04BC0E214AC
:10574000F30404051505F4F4A614B704C804D90439
:105750007CF480EC9AE167ED73E049C0A614B704CD
:10576000C804D90474F580EC9AE169EC73E025C0B3
:105770006A147B048C049D048CF580EC9AE16BEB3D
:1057800073E00EC02E143F044006510699F56A14CA
:105790007B048C049D0444F480EC9AE163EB73E099
:1057A0000E9402D481E02DC0A614B704C804D90415
:1057B0000CF580EC9AE16BEA73E00E9402D483E07E
:1057C00020C06A147B048C049D04A1F480EC9AE14F
:1057D00063EA73E00E9402D484E013C06A147B047D
:1057E0008C049D0439F480EC9AE16BE973E00E942B
:1057F00002D406C080EC9AE168E277E00E9435D6D8
:1058000082E01F910F91FF90EF90DF90CF90BF90BB
:10581000AF909F908F907F906F905F904F903F9050
:105820002F900895AF92BF92CF92DF92EF92FF92A6
:105830000F931F93CF93DF93EC015B016A0185E225
:1058400092E169E070E00E942997CA15DB059CF49B
:1058500076010027F7FC0095102F85E292E1BE014A
:105860000E941296C801B7010E94FFCC2196AC1687
:10587000BD069CF712C076010027F7FC0095102F9B
:1058800085E292E1BE010E941296C801B7010E9412
:10589000FFCC2197CA15DB059CF785E292E10E94B7
:1058A000A395DF91CF911F910F91FF90EF90DF9023
:1058B000CF90BF90AF900895EF92FF920F931F93F8
:1058C000DF93CF93CDB7DEB727970FB6F894DEBF3F
:1058D0000FBECDBF809146129091471220912812A1
:1058E00002971CF1222329F0E0903D11F0903E1127
:1058F00004C0E0903F11F09040118E010F5F1F4FE8
:10590000C8016AE174E10E9478DAC8010E94822429
:105910009093401180933F11C8010E948ADA6091F0
:105920003F1170914011C7010AC0213059F46091B4
:105930003F117091401180913D1190913E1143E0D3
:1059400050E070DF1092281227960FB6F894DEBF51
:105950000FBECDBFCF91DF911F910F91FF90EF90C0
:105960000895EF92FF920F931F93DF93CF93CDB7DC
:10597000DEB727970FB6F894DEBF0FBECDBF80917C
:105980004612909147122091281202971CF122236F
:1059900029F0E0903D11F0903E1104C0E0903F11DD
:1059A000F09040118E010F5F1F4FC8016AE174E152
:1059B0000E9478DAC8010E94822490933E1180935D
:1059C0003D11C8010E948ADA60913D1170913E112B
:1059D000C7010AC0222359F460913D1170913E1114
:1059E00080913F119091401143E050E01BDF81E036
:1059F0008093281227960FB6F894DEBF0FBECDBF56
:105A0000CF91DF911F910F91FF90EF900895EF924A
:105A1000FF920F931F93CF93DF93182F80E6E82E0A
:105A200082E1F82EC7016091A2154091A315209143
:105A3000A4150E94B0A0C12FD0E0CE010196A9EB21
:105A4000B3E1CC0FDD1FCC0FDD1FFD01EC0FFD1FFF
:105A500060817181CA0FDB1F4A815B81880F991FAA
:105A6000880F991FFD01E80FF91F20813181A80FD0
:105A7000B91F12960D911C911397C7010E94ABA1FB
:105A8000C7016091A2154091A3152091A4150E9411
:105A9000C8A0C7016FEF4FEF2FEF0E94B0A0DF91BA
:105AA000CF911F910F91FF90EF900895AF92BF9209
:105AB000CF92DF92EF92FF920F931F93DF93CF93DA
:105AC000CDB7DEB72E970FB6F894DEBF0FBECDBFB1
:105AD0005C017B0180912711813009F054C080E680
