:100000000C94210F0C942FAB0C9460AB0C9491AB1F
:100010000C94C2AB0C94F3AB0C9424AC0C9455AC84
:100020000C9486AC0C944E0F0C944E0F0C944E0F07
:100030000C944E0F0C944E0F0C944E0F0C944E0FCC
:100040000C944E0F0C94CB700C944E0F0C944E0FDE
:100050000C944E0F0C944E0F0C944E0F0C94B7ACA6
:100060000C944E0F0C940DAF0C9451B00C944E0F99
:100070000C944E0F0C944E0F0C944E0F0C944E0F8C
:100080000C949E700C944E0F0C944E0F0C944E0FCB
:100090000C944DAF0C9490B00C944E0F0C944E0FEA
:1000A0000C944E0F0C944E0F0C9471700C944E0FD8
:1000B0000C944E0F0C944E0F0C944E0F0C944470F5
:1000C0000C944E0F0C944E0F0C944E0F0C948DAF5D
:1000D0000C94CFB00C944E0F0C94CDAF0C940EB189
:1000E0000C944E0F5A26EA2635277E279727B027ED
:1000F000C927F92756292C2953282928F92BF92B08
:100100007F289828F92B99296F297E2A6E2B442B5A
:10011000C82B9E2B3C2A232AF329C929E42A992A91
:10012000142B8A26BA26B128FC284E2725404643A0
:1001300028402C4046433140394041406D401A42EE
:100140004242464346436A42CD4146439B40C740F4
:1001500081429242BC42E9421343F5401C41634153
:100160008A417B4279427D421D4021400B427F42C1
:10017000404305A84CCDB2D44EB93836A9020C5034
:10018000B9918688083CA6AAAA2ABE000000803F32
:10019000000000006410B71DC8206E3BAC30D926AB
:1001A0009041DC76F4516B6B5861B24D3C71055057
:1001B0002083B8ED44930FF0E8A3D6D68CB361CB7F
:1001C000B0C2649BD4D2D38678E20AA01CF2BDBD33
:1001D00050424D20696D616765206D7573742062B2
:1001E00065206174206C6561737420313020706902
:1001F00078656C7320776964652E002C206D6178BA
:100200002064656E736974793A20002C2070656EE5
:100210002077696474683A200050656E7769647469
:1002200068207465737420004368616E67696E6747
:10023000206261636B20746F206C697665206D6F3E
:1002400064652E0046696C652072656D6F76656425
:100250002E0046696C6520616C7265616479206569
:1002600078697374732E00457865637574696E6779
:1002700020636F6D6D616E643A0053746F72696EC6
:100280006720636F6D6D616E643A006D6D00436849
:10029000616E6765642050656E20776964746820BC
:1002A000746F20004E657720616363656C657261D1
:1002B00074696F6E3A20004E6577206D6178207307
:1002C000706565643A200055703A2000446F776E7F
:1002D0003A2000504753504545442C0050474C4964
:1002E00046542C005047535445504D554C5449509A
:1002F0004C4945522C005047535445505350455299
:100300005245562C0050474D4D5045525245562CA3
:1003100000504753495A452C0050474E414D452CFB
:10032000002900526563616C6320706167654865F0
:100330006967687420696E20737465707320280083
:100340002900526563616C63207061676557696459
:10035000746820696E20737465707320280029000A
:10036000292C2073746570735065724D4D202800E0
:10037000526563616C63206D6D5065725374657076
:100380002028004C6F61646564206D6F746F72206B
:1003900073746570206D756C7469706C6965723A00
:1003A000004C6F61646564206D616368696E6520EF
:1003B0006E616D653A004C6F6164656420757020F4
:1003C000706F733A004C6F6164656420646F776E80
:1003D00020706F733A004C6F61646564206D6F74B8
:1003E0006F72207374657073207065722072657609
:1003F0003A004C6F61646564206D6D2070657220F9
:100400007265763A004C6F61646564206D61636863
:10041000696E65206865696768743A004C6F61644D
:100420006564206D616368696E65207769647468CE
:100430003A002069736E2774206120636F6D6D61CF
:100440006E642049207265636F676E6973652E0064
:10045000536F7272792C200029206E6F74207061A6
:10046000727365642E00436F6D6D616E64202800A9
:10047000436865636B73756D206E6F74206D617476
:1004800063686564213A004920676F742000760034
:10049000504F4C41524752415048204F4E21007C12
:1004A0003C3E5E2B3D3F2F5B5D3B2C2A225C0008CF
:1004B0000C205F00000000000000000000000000B1
:1004C0000020202020202000200000002850500084
:1004D0000000000000000000002828FC2850FC500C
:1004E000500000002078A8A0603028A8F02000006C
:1004F0000048A8B050283454480000000020505054
:1005000078A8A8906C000000404080000000000027
:100510000000000004081010101010100804000063
:10052000402010101010101020400000000020A8E3
:100530007070A8200000000000202020F82020205B
:1005400000000000000000000000000040408000AB
:1005500000000000F80000000000000000000000A3
:100560000000000040000000081010102020404053
:1005700040800000007088888888888870000000AB
:10058000002060202020202070000000007088885B
:1005900010204080F80000000070880830080888AB
:1005A00070000000001030505090781018000000CB
:1005B00000F88080F00808887000000000709080CB
:1005C000F08888887000000000F89010202020201B
:1005D0002000000000708888708888887000000003
:1005E00000708888887808487000000000000020AB
:1005F00000000000200000000000000020000000BB
:1006000020200000040810204020100804000000F2
:10061000000000F80000F800000000004020100872
:10062000040810204000000000708888102020007E
:100630002000000000708898A8A8B880780000000A
:100640000020203050507848CC00000000F048488E
:1006500070484848F00000000078888080808088DA
:100660007000000000F0484848484848F00000008A
:1006700000F8485070504048F800000000F848501A
:1006800070504040E000000000384880809C88485E
:100690003000000000CC484878484848CC000000B2
:1006A00000F8202020202020F8000000007C1010FE
:1006B0001010101090E0000000EC485060505048BE
:1006C000EC00000000E0404040404044FC000000DE
:1006D00000D8D8D8D8A8A8A8A800000000DC48688E
:1006E00068585848E8000000007088888888888822
:1006F0007000000000F0484870404040E0000000FA
:10070000007088888888E8987018000000F04848D1
:1007100070504848EC00000000788880601008881D
:10072000F000000000F8A820202020207000000029
:1007300000CC4848484848483000000000CC4848B1
:10074000505030202000000000A8A8A87050505041
:100750005000000000D8505020205050D800000019
:1007600000D85050202020207000000000F8901089
:1007700020204048F80000003820202020202020A1
:1007800020380000404040202010101008000000D9
:100790007010101010101010107000002050000089
:1007A0000000000000000000000000000000000049
:1007B0000000FC002000000000000000000000001D
:1007C00000000000304838483C00000000C04040B5
:1007D0007048484870000000000000003848404061
:1007E0003800000000180808384848483C0000005D
:1007F000000000003048784038000000001C202035
:100800007820202078000000000000003C483040A4
:100810007844380000C0404070484848EC00000070
:100820000020000060202020700000000010000068
:10083000301010101010E00000C040405C507048B4
:10084000EC00000000E0202020202020F800000024
:1008500000000000F0A8A8A8A80000000000000008
:10086000F0484848EC0000000000000030484848CC
:100870003000000000000000F04848487040E000F0
:10088000000000003848484838081C0000000000FC
:10089000D8604040E00000000000000078403008D0
:1008A00078000000000020207020202018000000A8
:1008B00000000000D84848483C000000000000004C
:1008C000EC4850302000000000000000A8A8705044
:1008D0005000000000000000D8502050D800000058
:1008E00000000000EC4850302020C0000000000054
:1008F0007810202078000000181010102010101020
:1009000010180010101010101010101010101000FF
:10091000602020201020202020600040A41800002B
:10092000000000000000001010205F000000000028
:1009300000000000000000000000000000000000B7
:1009400000000000000000000000000000000007A0
:10095000000F800F800F800F800F800700070000BE
:10096000000000070007000700000000000E380E1E
:10097000380E380E3806300000000000000000007D
:10098000000000000000000000000000000C300C1F
:10099000300C307FFE7FFE0C300C300C300C307F82
:1009A000FE7FFE0C300C300C3000000000024002D4
:1009B000400FF81FF81A401A401FF00FF8025802B3
:1009C000581FF81FF0024002400000000000000025
:1009D000000E100E300E7000E001C0038007000E04
:1009E000700C700870000000000000000000000F94
:1009F000001980198019800F000F080F9819F81836
:100A0000F018E019F00F9800000000000000000747
:100A100000070007000E00000000000000000000BA
:100A200000000000000000000000000000000000C6
:100A3000F001C0038007000E000E000E000E00073C
:100A400000038001C000F000000000000000000F63
:100A500000038001C000E0007000700070007000B2
:100A6000E001C003800F0000000000000000000152
:100A7000801188099007E007E03FFC3FFC07E00792
:100A8000E0099011880180000000000000000000D3
:100A90000000000180018001800FF00FF001800153
:100AA0008001800000000000000000000000000045
:100AB0000000000000000000000000000000000036
:100AC000000700070007000E000000000000000003
:100AD0000000000000000000001FF81FF8000000E8
:100AE0000000000000000000000000000000000006
:100AF00000000000000000000000000000000000F6
:100B000000070007000700000000000000000000D0
:100B1000020006000E001C0038007000E001C00357
:100B20008007000E001C0000000000000000000F05
:100B3000F01C381C781CF81CF81DB81DB81F381F95
:100B4000381E381C380FF0000000000000000001C3
:100B500080018003801F801F800380038003800347
:100B600080038003801FF000000000000000000FE1
:100B7000E01C701C380038007000E001C0038007E2
:100B8000000E381C381FF800000000000000000FA5
:100B9000E01C701C380038007003C003C0007000F7
:100BA000381C381C700FE00000000000000000003E
:100BB000E001E003E006E00CE018E01FF81FF80099
:100BC000E000E000E003F800000000000000001F6B
:100BD000F81C001C001C001C001FE01FF000780027
:100BE000381C381C700FE0000000000000000003FB
:100BF000E007000E001C001C001FF01FF81C381C32
:100C0000381C381C380FF000000000000000001FE6
:100C1000FC1C1C1C1C1C1C001C0038007000E0018B
:100C2000C003800380038000000000000000000F6C
:100C3000F01C381C381C381F3807E007E01CF81C73
:100C4000381C381C380FF000000000000000000FB6
:100C5000F01C381C381C381C381FF80FF8003800FE
:100C600038007000E007C000000000000000000035
:100C70000000000380038003800000000003800365
:100C80008003800000000000000000000000000061
:100C90000000000380038003800000000003800345
:100CA00080038007000000000000000000007000CA
:100CB000E001C0038007000E001C001C000E0007AE
:100CC00000038001C000E000700000000000000090
:100CD00000000000003FFC3FFC000000003FFC3F24
:100CE000FC0000000000000000000000001C000EDE
:100CF000000700038001C000E00070007000E00108
:100D0000C0038007000E001C000000000003C00F9D
:100D1000F01E7818380038007000E001C001C000F3
:100D200000000001C001C001C0000000000FF81C5D
:100D30001C1C1C1C1C1C1C1CFC1CFC1CFC1CFC1C73
:100D4000001C001C001FF007F8000000000000035A
:100D5000C007E00E701C381C381C381C381FF81CEB
:100D6000381C381C381C3800000000000000001F30
:100D7000F00E380E380E380E380FF00FF00E380E19
:100D8000380E380E381FF000000000000000000789
:100D9000F00E381C381C001C001C001C001C001C21
:100DA000001C380E3807F000000000000000001F93
:100DB000E00E700E380E380E380E380E380E380E23
:100DC000380E380E701FE000000000000000001F09
:100DD000F80E180E080E000E300FF00FF00E300E49
:100DE000000E080E181FF800000000000000001F91
:100DF000F80E180E080E000E300FF00FF00E300E29
:100E0000000E000E001F00000000000000000007A0
:100E1000F00E381C381C381C001C001C001CF81C70
:100E2000381C380E3807F800000000000000001CD5
:100E3000701C701C701C701C701FF01FF01C701C4C
:100E4000701C701C701C7000000000000000000F7F
:100E5000E00380038003800380038003800380031A
:100E600080038003800FE00000000000000000010C
:100E7000FC007000700070007000700070387038F6
:100E800070387038700FE000000000000000001E95
:100E9000380E380E700EE00FC00F800F800FC00E9E
:100EA000E00E700E381E3800000000000000001F29
:100EB000000E000E000E000E000E000E000E000EC2
:100EC000080E180E381FF800000000000000001C7B
:100ED0001C1E3C1F7C1FFC1FFC1DDC1C9C1C1C1CC6
:100EE0001C1C1C1C1C1C1C00000000000000001C22
:100EF0001C1C1C1E1C1F1C1F9C1DDC1CFC1C7C1CA9
:100F00003C1C1C1C1C1C1C000000000000000003FA
:100F1000E007F00E381C1C1C1C1C1C1C1C1C1C1C80
:100F20001C0E3807F003E000000000000000001F66
:100F3000F00E380E380E380E380FF00FF00E000E8F
:100F4000000E000E001F0000000000000000000363
:100F5000E00F780E381C1C1C1C1C1C1C1C1C7C1C50
:100F6000FC0FF80FF8003800FC0000000000001F24
:100F7000F00E380E380E380E380FF00FF00E700EDF
:100F8000380E380E381E3800000000000000000F38
:100F9000F01C381C381C381C000FE007F000381C0F
:100FA000381C381C380FF000000000000000001F43
:100FB000FC19CC11C401C001C001C001C001C001B5
:100FC000C001C001C007F000000000000000001CCC
:100FD000701C701C701C701C701C701C701C701CB1
:100FE000701C701C700FE000000000000000001C6E
:100FF000701C701C701C701C701C701C701C701C91
:10100000700EE007C0038000000000000000001C1C
:101010001C1C1C1C1C1C1C1C1C1C9C1C9C1C9C0F9D
:10102000F80FF80770077000000000000000001CB7
:10103000701C701C700EE007C00380038007C00E98
:10104000E01C701C701C7000000000000000001C00
:10105000701C701C701C701C700EE007C0038003B5
:1010600080038003800FE000000000000000001FEC
:10107000F81C381838107000E001C0038007000E1B
:10108000081C181C381FF8000000000000000007B2
:10109000F007000700070007000700070007000728
:1010A000000700070007F00000000000000000102B
:1010B0000018001C000E000700038001C000E000C3
:1010C000700038001C00070000000000000000074E
:1010D000F000700070007000700070007000700010
:1010E000700070007007F000000000000001800335
:1010F000C007E00E701C3800000000000000000077
:1011000000000000000000000000000000000000DF
:1011100000000000000000000000000000000000CF
:10112000000000000000007FFF7FFF000000001CA7
:10113000001C000700070000000000000000000085
:10114000000000000000000000000000000000009F
:10115000000000000000000FE0007000700FF01CA5
:10116000701C701C700FD800000000000000001EF2
:10117000000E000E000E000FF00E380E380E380E66
:10118000380E380E381BF000000000000000000090
:10119000000000000000000FE01C701C701C001C10
:1011A000001C701C700FE000000000000000000038
:1011B000F80070007000700FF01C701C701C701C28
:1011C000701C701C700FD8000000000000000000B0
:1011D000000000000000000FE01C701C701FF01CDD
:1011E000001C701C700FE0000000000000000003F5
:1011F000E007700770070007001FE01FE007000707
:1012000000070007001FC0000000000000000000F1
:10121000000000000000000FD81C701C701C701C27
:10122000700FF007F000701C700FE0000000001E4F
:10123000000E000E000E000EF00F380F380E380EA4
:10124000380E380E381E3800000000000000000183
:10125000C001C001C000000FC001C001C001C00139
:10126000C001C001C00FF800000000000000000035
:101270007000700070000003F000700070007000DB
:1012800070007000701C700CF007E0000000001E81
:10129000000E000E000E000E380E700EE00FC00E95
:1012A000E00E700E381E3800000000000000000F35
:1012B000C001C001C001C001C001C001C001C00126
:1012C000C001C001C00FF8000000000000000000D5
:1012D000000000000000001FF81C9C1C9C1C9C1CB3
:1012E0009C1C9C1C9C1C9C0000000000000000003A
:1012F000000000000000001FE01C701C701C701C2F
:10130000701C701C701C70000000000000000000C9
:10131000000000000000000FE01C701C701C701C1E
:10132000701C701C700FE000000000000000000046
:10133000000000000000001BF00E380E380E380EC2
:10134000380E380FF00E000E001F000000000000E5
:10135000000000000000001FB038E038E038E0383E
:10136000E038E01FE000E000E001F00000000000D5
:10137000000000000000001EF00FF80F380E000EF5
:10138000000E000E001F0000000000000000000022
:10139000000000000000000FE01C301C300F800334
:1013A000E0187018700FE00000000000000000005E
:1013B000000100030007001FF007000700070007F7
:1013C000000770077003E00000000000000000004C
:1013D000000000000000001C701C701C701C701CC1
:1013E000701C701C700FD80000000000000000008E
:1013F000000000000000001C701C701C701C701CA1
:10140000700EE007C0038000000000000000000034
:10141000000000000000001C1C1C1C1C1C1C9C1C50
:101420009C0FF8077007700000000000000000002B
:10143000000000000000001CE01CE00FC007800757
:10144000800FC01CE01CE000000000000000000055
:10145000000000000000000E380E380E380E380E66
:101460003807F003E000E001C01F8000000000002A
:10147000000000000000001FE018E011C00380071A
:10148000000E201C601FE0000000000000000001B2
:10149000F803800380038007001C001C0007000382
:1014A000800380038001F800000000000001C001FB
:1014B000C001C001C001C001C001C001C001C00124
:1014C000C001C001C001C001C00000000000001F39
:1014D0008001C001C001C000E00038003800E00118
:1014E000C001C001C01F8000000000000000001FFC
:1014F0001C3B9C39DC38F8000000000000000000B4
:1015000000000000000000000000002032300A004F
:101510000000000000000000FFFE0001FFFF0003CC
:10152000FFFF8001FFFF600CFFFEF01E0001F83F8F
:101530000001F83F0001F83F0001F83F0001F83FCB
:101540000001F83F0001F83F0001F83F0001F83FBB
:101550000001F83F0001F83F0001F83F0001F83FAB
:101560000001F83E00007838000018200000080054
:1015700000000020000000380000183E0000783F06
:101580000001F83F0001F83F0001F83F0001F83F7B
:101590000001F83F0001F83F0001F83F0001F83F6B
:1015A0000001F83F0001F83F0001F83F0001F83F5B
:1015B0000001F83F0001F81E0000F00CFFFE600182
:1015C000FFFF0003FFFF8001FFFF0000FFFE0000A0
:1015D000000000000000000000000000000000000B
:1015E000000000000000000000000000000060009B
:1015F0000000F0000001F8000001F8000001F80010
:101600000001F8000001F8000001F8000001F800F6
:101610000001F8000001F8000001F8000001F800E6
:101620000001F8000001F8000001F8000000780057
:10163000000018000000080000000000000000008A
:1016400000001800000078000001F8000001F80018
:101650000001F8000001F8000001F8000001F800A6
:101660000001F8000001F8000001F8000001F80096
:101670000001F8000001F8000001F8000001F80086
:101680000000F0000000600000000000000000000A
:10169000000000000000000000000000000000004A
:1016A0000000000000000000FFFE0001FFFF00033B
:1016B000FFFF8001FFFF6000FFFEF0000001F80067
:1016C0000001F8000001F8000001F8000001F80036
:1016D0000001F8000001F8000001F8000001F80026
:1016E0000001F8000001F8000001F8000001F80016
:1016F0000001F80000007801FFFE1803FFFF880FCB
:10170000FFFFE027FFFFC039FFFF003E0000003F62
:101710000000003F0000003F0000003F0000003FCD
:101720000000003F0000003F0000003F0000003FBD
:101730000000003F0000003F0000003F0000003FAD
:101740000000003F0000001E0000000CFFFE000132
:10175000FFFF0003FFFF8001FFFF0000FFFE00000E
:101760000000000000000000000000000000000079
:10177000FFFE0001FFFF0003FFFF8001FFFF60008D
:10178000FFFEF0000001F8000001F8000001F80081
:101790000001F8000001F8000001F8000001F80065
:1017A0000001F8000001F8000001F8000001F80055
:1017B0000001F8000001F8000001F80000007801C5
:1017C000FFFE1803FFFF880FFFFFE007FFFFC001C8
:1017D000FFFF1800000078000001F8000001F80089
:1017E0000001F8000001F8000001F8000001F80015
:1017F0000001F8000001F8000001F8000001F80005
:101800000001F8000001F8000001F8000001F800F4
:101810000000F000FFFE6001FFFF0003FFFF8001FA
:10182000FFFF0000FFFE00000000000000000000BD
:1018300000000000000000000000000000000000A8
:10184000000000000000600C0000F01E0001F83FE6
:101850000001F83F0001F83F0001F83F0001F83FA8
:101860000001F83F0001F83F0001F83F0001F83F98
:101870000001F83F0001F83F0001F83F0001F83F88
:101880000001F83E00007839FFFE1823FFFF880FA3
:10189000FFFFE007FFFFC001FFFF18000000780016
:1018A0000001F8000001F8000001F8000001F80054
:1018B0000001F8000001F8000001F8000001F80044
:1018C0000001F8000001F8000001F8000001F80034
:1018D0000001F8000001F8000000F00000006000C6
:1018E00000000000000000000000000000000000F8
:1018F00000000000000000000000000000000000E8
:10190000FFFE0001FFFF0003FFFF8001FFFF000C4F
:10191000FFFE001E0000003F0000003F0000003FEF
:101920000000003F0000003F0000003F0000003FBB
:101930000000003F0000003F0000003F0000003FAB
:101940000000003F0000003F0000003E00000039A2
:10195000FFFE0023FFFF800FFFFFE007FFFFC00136
:10196000FFFF1800000078000001F8000001F800F7
:101970000001F8000001F8000001F8000001F80083
:101980000001F8000001F8000001F8000001F80073
:101990000001F8000001F8000001F8000001F80063
:1019A0000000F000FFFE6001FFFF0003FFFF800169
:1019B000FFFF0000FFFE000000000000000000002C
:1019C0000000000000000000FFFE0001FFFF000318
:1019D000FFFF8001FFFF000CFFFE001E0000003F24
:1019E0000000003F0000003F0000003F0000003FFB
:1019F0000000003F0000003F0000003F0000003FEB
:101A00000000003F0000003F0000003F0000003FDA
:101A10000000003E00000039FFFE0023FFFF800FA2
:101A2000FFFFE027FFFFC039FFFF183E0000783FAF
:101A30000001F83F0001F83F0001F83F0001F83FC6
:101A40000001F83F0001F83F0001F83F0001F83FB6
:101A50000001F83F0001F83F0001F83F0001F83FA6
:101A60000001F83F0001F81E0000F00CFFFE6001CD
:101A7000FFFF0003FFFF8001FFFF0000FFFE0000EB
:101A80000000000000000000000000000000000056
:101A9000FFFE0001FFFF0003FFFF8001FFFF60006A
:101AA000FFFEF0000001F8000001F8000001F8005E
:101AB0000001F8000001F8000001F8000001F80042
:101AC0000001F8000001F8000001F8000001F80032
:101AD0000001F8000001F8000001F80000007800A3
:101AE00000001800000008000000000000000000D6
:101AF00000001800000078000001F8000001F80064
:101B00000001F8000001F8000001F8000001F800F1
:101B10000001F8000001F8000001F8000001F800E1
:101B20000001F8000001F8000001F8000001F800D1
:101B30000000F00000006000000000000000000055
:101B40000000000000000000000000000000000095
:101B50000000000000000000FFFE0001FFFF000386
:101B6000FFFF8001FFFF600CFFFEF01E0001F83F49
:101B70000001F83F0001F83F0001F83F0001F83F85
:101B80000001F83F0001F83F0001F83F0001F83F75
:101B90000001F83F0001F83F0001F83F0001F83F65
:101BA0000001F83E00007839FFFE1823FFFF880F80
:101BB000FFFFE027FFFFC039FFFF183E0000783F1E
:101BC0000001F83F0001F83F0001F83F0001F83F35
:101BD0000001F83F0001F83F0001F83F0001F83F25
:101BE0000001F83F0001F83F0001F83F0001F83F15
:101BF0000001F83F0001F81E0000F00CFFFE60013C
:101C0000FFFF0003FFFF8001FFFF0000FFFE000059
:101C100000000000000000000000000000000000C4
:101C2000FFFE0001FFFF0003FFFF8001FFFF600CCC
:101C3000FFFEF01E0001F83F0001F83F0001F83FF1
:101C40000001F83F0001F83F0001F83F0001F83FB4
:101C50000001F83F0001F83F0001F83F0001F83FA4
:101C60000001F83F0001F83F0001F83E000078391C
:101C7000FFFE1823FFFF880FFFFFE007FFFFC001F3
:101C8000FFFF1800000078000001F8000001F800D4
:101C90000001F8000001F8000001F8000001F80060
:101CA0000001F8000001F8000001F8000001F80050
:101CB0000001F8000001F8000001F8000001F80040
:101CC0000000F000FFFE6001FFFF0003FFFF800146
:101CD000FFFF0000FFFE0000000000000000000009
:101CE000002100240027002A002D003000330001CD
:101CF000010000040107010A01000022002500285C
:101D0000002B002E00310034000201000005010804
:101D1000010B01000020002300260029002C002FC9
:101D2000003200000100000301060109010505055C
:101D300005070508080808020202020A0A08080442
:101D40000404040101010101010101030303030370
:101D5000030303040707070C0C0C0C0C0C0C0C02FF
:101D600002020206060606060606060B0B0B0B0B06
:101D70000B0B0B01021020200808102040102040FF
:101D8000800201020108040201010204081020403F
:101D9000808040201008040201800402018040205D
:101DA0001008040201080402010102040810204086
:101DB0008001020408102040800000090A02080B7C
:101DC0000C0D0706030401000000000000000000E5
:101DD0000000000000000000000000000000000003
:101DE000000000000011100F0000000000000000C3
:101DF000000000000000000000000000000000499A
:101E00004E46494E4954594E414ECDCCCC3D0AD751
:101E1000233C17B7D13877CC2B329595E6241FB1E8
:101E20004F0A000020410000C84200401C4620BC70
:101E3000BE4CCA1B0E5AAEC59D741D18A1727EB24F
:101E4000181811241FBECFEFD1E2DEBFCDBF00E0D6
:101E50000CBF10E1A0E0B2E0E6E4FDE701E00BBF5B
:101E600002C007900D92A830B107D9F71BBE19E147
:101E7000A8E0B0E101C01D92A630B107E1F71EE174
:101E8000C0E4DEE104C02297FE010E9451BECA33C5
:101E9000D107C9F70E94B4B30C9497BE0C9400000C
:101EA000A0E0B0E0E6E5FFE00C9468BEEC01A8809D
:101EB000B980CA80DB80A114B104C104D10441F40B
:101EC00084E2A82E89EDB82E8BE5C82E87E0D82EA7
:101ED000C601B5012DE133EF41E050E00E9434BE70
:101EE00027EA31E440E050E00E94C0BD7B018C0154
:101EF000C601B5012DE133EF41E050E00E9434BE50
:101F0000CA01B9012CEE34EF4FEF5FEF0E94C0BD64
:101F10006E0D7F1D801F911F97FF04C061507040A0
:101F200080409048688379838A839B839B01AC01BE
:101F30005F77B901CA01CDB7DEB7EAE00C9484BE81
:101F4000AFCF8BE49FE0ACCF60934B0F70934C0FFF
:101F500080934D0F90934E0F089566277727C8C042
:101F6000FC0188279927E89421912032E9F3293050
:101F700010F02E30C8F32B3239F02D3231F4689442
:101F800003C0AED0820F911D219120532A30C8F397
:101F90001EF4909581959F4F08951F93FC019927FA
:101FA0008827BC01E89411911032E9F3193010F040
:101FB0001E30C8F31B3249F01D3241F4689405C04D
:101FC0007AD0610F711D811D911D119110531A302E
:101FD000B8F33EF490958095709561957F4F8F4F43
:101FE0009F4F1F910895FB01DC0104C08D9101906A
:101FF000801921F441505040C8F7881B990B08956F
:10200000FB01DC0102C001900D9241505040D8F715
:102010000895FC018191861721F08823D9F799272B
:1020200008953197CF010895FB01DC018D91019056
:1020300080190110D9F3990B0895FB01DC0101907F
:102040000D920020E1F70895FB01DC014150504062
:1020500030F08D910190801919F40020B9F7881B98
:10206000990B0895FB01DC014150504048F001906C
:102070000D920020C9F701C01D9241505040E0F779
:102080000895FB0151915523A9F0BF01DC014D9149
:1020900045174111E1F759F4CD010190002049F0B5
:1020A0004D9140154111C9F3FB014111EFCF81E082
:1020B00090E001970895592F482F372F262F660F4C
:1020C000771F881F991F660F771F881F991F620F40
:1020D000731F841F951F660F771F881F991F089510
:1020E0007AE0979F902D879F802D910D1124089560
:1020F000A0E0B0E0EEE7F0E10C9466BEEC015B011D
:102100006115710519F0FB0191838083F9908F2D82
:1021100090E00E9455BE892BC9F7FDE2FF1621F41D
:10212000F990EE24E39405C02BE2F21609F4F9903D
:10213000EE248E0101501040C8016FEF7DE143E0B5
:1021400050E033D1892BF9F48E010E5F1F4FC80187
:1021500062E07EE145E050E028D1892B19F48E0140
:10216000095F1F4FA114B10419F0F5011183008319
:10217000E0FC04C070E090E080E813C070E090E004
:1021800080E86FEF07C1C80167E07EE143E050E0FF
:102190000CD1892B69F4A114B10429F470E090E00A
:1021A00080EC6FE7F7C02296F501D183C083F6CFAC
:1021B0008824992440E050E060E070E0EF2DE05387
:1021C000EA30A0F5F2E0EF2A8E2D90E09C01287015
:1021D0003070E2FE06C0232B79F50894811C911C17
:1021E0002BC0232B19F0089481089108DB01CA0148
:1021F00012E0880F991FAA1FBB1F1A95D1F7480F2D
:10220000591F6A1F7B1F440F551F661F771F4E0FF4
:10221000511D611D711D483929E9520729E96207DD
:1022200029E1720748F084E0E82A06C0EE3F31F465
:10223000E3FC39C098E0E92AF990C0CFE53311F00A
:10224000E53189F529912D3219F4E0E1EE2A05C036
:102250002B3219F081E090E003C0299182E090E0F8
:10226000E22FE053EA3018F0C81BD90B1CC020E065
:1022700030E0FCE020383F075CF4C901880F991F6B
:10228000880F991F280F391F220F331F2E0F311D62
:10229000E991E053EA3068F3E4FE03C030952195FC
:1022A0003F4F820E931ECE2CDD24E1FE07C0A11409
:1022B000B10421F02197F501D183C083CB01BA018C
:1022C0000E94C0BB7B018C01F3E0CF22DD2423E020
:1022D000C216D10421F417FB109517F91095570178
:1022E0006801C801B70120E030E040E050E00E9402
:1022F00020BB882309F44AC097FE0DC02EE1E22ED0
:102300002EE1F22E9094819491089394C0E2D0E053
:1023100000E010E012C096E3E92E9EE1F92EF6CF20
:10232000F7012591359145915491C601B5010E945F
:10233000B8BC5B016C018C1A9D0A8C169D0684F753
:10234000D595C7950F5F1F4F0630110529F08CEF0B
:102350009FEFE80EF91EF1CFC501D6017C018D017A
:102360008C2D880F8D2D881F8F3F51F0C601B50130
:1023700020E030E040E050E00E9420BB882331F4B0
:1023800082E290E090930519809304197E2D9F2D91
:10239000802F612F272F392F482F562FB901CA01BF
:1023A000CDB7DEB7ECE00C9482BEFB01DC014150FE
:1023B000504088F08D9181341CF08B350CF4805E98
:1023C000659161341CF06B350CF4605E861B611105
:1023D00071F3990B0895881BFCCF982F80919E0F65
:1023E000813049F59430B9F0953030F4913059F09E
:1023F000923009F0AAC0AAC09530A9F0963009F031
:10240000A4C083E2089580912411882311F480E20E
:10241000089581E208958091610F882311F485E089
:10242000089584E0089580910C10882311F487E0CA
:10243000089588E0089580919E0F8630C9F4943005
:1024400009F486C0953030F4923061F0933009F091
:102450007CC00AC0953021F0963009F076C006C0E5
:1024600089E008958AE0089583E1089582E108955E
:1024700080919E0F8430C9F4943009F469C095307E
:1024800030F4923061F0933009F05FC00AC09530AB
:1024900021F0963009F059C006C08BE108958CE117
:1024A00008958AE1089589E1089580919E0F85300D
:1024B000C1F4943009F44CC0953030F4923059F0A6
:1024C000933009F042C009C0953019F09630E9F513
:1024D00006C085E1089586E1089588E1089587E1C1
:1024E000089580919E0F8330D1F4943051F095304F
:1024F00018F4923051F507C0953039F0963029F52F
:1025000006C08FE008958CE008958BE008958091D7
:102510002311882311F480E1089582E208958091C7
:102520009E0F873091F4933051F0943018F492302C
:1025300061F407C0943061F0953039F404C08EE145
:1025400008958FE108958DE10895089582E008953A
:1025500084E10895AF92BF92CF92DF92EF92FF9203
:102560000F931F936E157F058007910734F42E1586
:102570003F054007510764F42CC0E616F70608072C
:10258000190794F4A216B306C406D5063CF423C07A
:10259000A216B306C406D506BCF41FC02A153B0517
:1025A0004C055D05C4F41BC06E157F0580079107BF
:1025B00091F42A153B054C055D058CF0A216B30677
:1025C000C406D50644F409C02A153B054C055D0533
:1025D00011F484E005C082E003C083E001C081E023
:1025E0001F910F91FF90EF90DF90CF90BF90AF9031
:1025F0000895EF92FF920F931F937B018C01662742
:1026000057FD6095762FCB01BA010E94C2BB209185
:1026100014103091151040911610509117100E940F
:10262000B8BCA80197010E9427BB7B018C0120E068
:1026300030E040E050E40E94B4BC87FF03C061E09A
:1026400070E004C0C801B7010E948FBBCB011F918D
:102650000F91FF90EF9008956F927F928F929F92CB
:10266000AF92BF92CF92DF92EF92FF920F931F93A0
:10267000CF93DF937C015B01662757FD6095762F32
:10268000CB01BA010E94C2BB3B014C010027F7FC01
:102690000095102FC801B7010E94C2BB7B018C01BD
:1026A000CC24B7FCC094DC2CC601B5010E94C2BB8F
:1026B0009B01AC01C801B7010E9427BBA401930193
:1026C0000E94B8BC9B01AC01C401B3010E94BBBA1B
:1026D0007B018C010E948FBBEB01BE01882777FD37
:1026E0008095982F0E94C2BB9B01AC01C801B70125
:1026F0000E94BBBA20E030E040E05FE30E94B4BC3F
:1027000018160CF42196CE01DF91CF911F910F91F5
:10271000FF90EF90DF90CF90BF90AF909F908F9001
:102720007F906F900895CF92DF92EF92FF920F9378
:102730001F93CF93DF93EC016B01688179818A81CC
:102740009B812091A30F3091A40F4091A50F509130
:10275000A60F0E94B8BC688379838A839B83F601A5
:1027600060817181828193812091A70F3091A80FA0
:102770004091A90F5091AA0F0E94B8BC7B018C0117
:10278000F601608371838283938320914E1330918D
:102790004F13C9018E978A35910580F428813981BC
:1027A0004A815B81D801C701B05888839983AA8385
:1027B000BB83208331834283538329C0C901885856
:1027C00090408A35910580F488819981AA81BB81E6
:1027D000B05888839983AA83BB83F6018081918155
:1027E000A281B381B0580FC0225E30402A35310536
:1027F00070F488819981AA81BB81E882F9820A8379
:102800001B83B058F60180839183A283B3836881D0
:1028100079818A819B81209150133091511340918D
:102820005213509153130E94BCBA688379838A83F0
:102830009B83F60160817181828193812091541381
:102840003091551340915613509157130E94BCBAC2
:10285000F6016083718382839383DF91CF911F910F
:102860000F91FF90EF90DF90CF9008952F923F92BD
:102870004F925F926F927F928F929F92AF92BF9290
:10288000CF92DF92EF92FF920F931F933B014C0187
:1028900059016A0160911C1070911D1080911E10E9
:1028A00090911F100E94C2BB7B018C01A80197016F
:1028B0000E94B8BC1B012C01C601B501A6019501FF
:1028C0000E94B8BC5B016C01C401B301A401930177
:1028D0000E94B8BC9B01AC01C601B5010E94BCBA04
:1028E0009B01AC01C201B1010E94BBBA5B016C014A
:1028F000C801B701A80197010E94BCBA9B01AC01B5
:10290000C601B5010E9427BB1F910F91FF90EF9068
:10291000DF90CF90BF90AF909F908F907F906F90FF
:102920005F904F903F902F9008950F931F93CF93F8
:10293000DF93242F2627A22FB0E0AF70B070AA0F2C
:10294000BB1FAA0FBB1FC0E9D1E0AC0FBD1FFD012B
:102950000591159125913491E4E0969587957795A9
:102960006795EA95D1F70627172728273927429533
:102970004F70402750E04F705070440F551F440F68
:10298000551F4C0F5D1FFA0185919591A591B4914A
:1029900044E036952795179507954A95D1F708276E
:1029A00019272A273B27B801C901DF91CF911F9131
:1029B0000F910895CF92DF92EF92FF920F931F93A2
:1029C0008130910509F032C26F5F7F4F09F029C352
:1029D00086EC91E160E072E00E94F1B989E090E15B
:1029E0000E94E06D8DE090E165E072E00E94F1B937
:1029F0008DEC91E166E072E00E94F1B96091550FB3
:102A00007091560F882777FD8095982F20914F0F52
:102A10003091500F442737FD4095542F0E94C0BD80
:102A20000E94C2BB7B018C016091510F7091520FCB
:102A30008091530F9091540FA80197010E9427BBDA
:102A400060931410709315108093161090931710C4
:102A5000C801B7012091510F3091520F4091530F8F
:102A60005091540F0E9427BB7B018C01609318107A
:102A70007093191080931A1090931B1060919F0F00
:102A80007091A00F882777FD8095982F0E94C2BB78
:102A9000A80197010E94B8BC0E948FBB60931C10D4
:102AA00070931D1080931E1090931F106091A10FC2
:102AB0007091A20F882777FD8095982F0E94C2BB46
:102AC000A80197010E94B8BC0E948FBB60932010A0
:102AD00070932110809322109093231084ED91E144
:102AE0006FE072E00E94F1B98BED91E161E172E07B
:102AF0000E94F1B982EE91E165E172E00E94F1B9C4
:102B000089EE91E16DE172E00E94F1B980EF91E10F
:102B100060E572E00E94F1B987EF91E160E572E053
:102B20000E94F1B98EEF91E160E572E00E94F1B987
:102B300085E092E160E572E00E94F1B98CE092E1FB
:102B40006FE572E00E94F1B983E192E169E672E01B
:102B50000E94F1B98AE192E160E772E00E94F1B966
:102B600081E292E168E772E00E94F1B988E292E1C5
:102B700063E872E00E94F1B98FE292E16CE072E1E9
:102B80000E949FBA84E390E165E072E00E94F1B98F
:102B900086E392E169E872E00E94F1B98DE392E187
:102BA0006BE872E00E94F1B984E492E160E972E0BE
:102BB0000E94F1B98BE492E164E972E00E94F1B9FC
:102BC00082E592E168E972E00E94F1B989E592E15B
:102BD0006CE972E00E94F1B980E692E160EA72E08D
:102BE0000E94F1B987E692E164EA72E00E94F1B9CD
:102BF0008EE692E168EA72E00E94F1B985E792E11F
:102C00006CEA72E00E94F1B98CE792E160EB72E04D
:102C10000E94F1B983E892E164EB72E00E94F1B99D
:102C20008AE892E168EB72E00E94F1B981E992E1F1
:102C30006CEB72E00E94F1B988E992E160EC72E01D
:102C40000E94F1B98FE992E164EC72E00E94F1B95F
:102C500086EA92E168EC72E00E94F1B98DEA92E1B5
:102C60006CEC72E00E94F1B984EB92E160ED72E0ED
:102C70000E94F1B98BEB92E164ED72E00E94F1B930
:102C800082EC92E168ED72E00E94F1B989EC92E188
:102C90006CED72E00E94F1B980ED92E160EE72E0BD
:102CA0000E94F1B987ED92E164EE72E00E94F1B901
:102CB0008EED92E168EE72E00E94F1B985EE92E14C
:102CC0006CEE72E00E94F1B98CEE92E160EF72E07E
:102CD0000E94F1B983EF92E164EF72E00E94F1B9D2
:102CE0008AEF92E168EF72E00E94F1B981E093E12E
:102CF0006CEF72E00E94F1B988E093E160E073E06C
:102D00000E94F1B98FE093E164E073E00E94F1B9B1
:102D100086E193E168E073E00E94F1B98DE193E10F
:102D20006CE073E00E94F1B984E293E160E173E04A
:102D30000E94F1B98BE293E164E173E00E94F1B982
:102D400082E393E168E173E00E94F1B989E393E1E2
:102D50006CE173E00E94F1B980E493E160E273E01A
:102D60000E94F1B987E493E164E273E00E94F1B953
:102D700084E490E166E046E250E027E230E008E2D9
:102D800010E079E2E72EF12CCC24DD240E94EEA3A2
:102D90008EE690E16BE04CE022E103E1B2E0EB2E45
:102DA0000E9490A580EA90E165E072E00E94F1B98E
:102DB0008AEA90E165E072E00E94F1B91092B610E3
:102DC0001092B7101092BA101092BC1082E090E0EE
:102DD000A0E0B0E08093BD109093BE10A093BF1010
:102DE000B093C0101092D4101092DE101092DD102B
:102DF00084EF9FE09093DC108093DB101092E01042
:102E000088EF90E10E940B7186E291E161E044E07D
:102E100025E004E0A5E0EA2E0E94186C8AE691E124
:102E200061E047E028E00E94186CFBC0892B09F0A4
:102E3000F8C06F5F7F4F09F0F4C088EF90E10E9407
:102E40001E718AEA90E10E94B1BA80EA90E10E9484
:102E5000B1BA87E493E10E94B1BA80E493E10E94A1
:102E6000B1BA89E393E10E94B1BA82E393E10E948F
:102E7000B1BA8BE293E10E94B1BA84E293E10E947D
:102E8000B1BA8DE193E10E94B1BA86E193E10E946B
:102E9000B1BA8FE093E10E94B1BA88E093E10E9459
:102EA000B1BA81E093E10E94B1BA8AEF92E10E9447
:102EB000B1BA83EF92E10E94B1BA8CEE92E10E9426
:102EC000B1BA85EE92E10E94B1BA8EED92E10E9414
:102ED000B1BA87ED92E10E94B1BA80ED92E10E9411
:102EE000B1BA89EC92E10E94B1BA82EC92E10E94FF
:102EF000B1BA8BEB92E10E94B1BA84EB92E10E94ED
:102F0000B1BA8DEA92E10E94B1BA86EA92E10E94DA
:102F1000B1BA8FE992E10E94B1BA88E992E10E94C8
:102F2000B1BA81E992E10E94B1BA8AE892E10E94C5
:102F3000B1BA83E892E10E94B1BA8CE792E10E94B3
:102F4000B1BA85E792E10E94B1BA8EE692E10E94A1
:102F5000B1BA87E692E10E94B1BA80E692E10E949E
:102F6000B1BA89E592E10E94B1BA82E592E10E948C
:102F7000B1BA8BE492E10E94B1BA84E492E10E947A
:102F8000B1BA8DE392E10E94B1BA86E392E10E9468
:102F9000B1BA84E390E10E94B1BA8FE292E10E945B
:102FA000B1BA88E292E10E94B1BA81E292E10E9454
:102FB000B1BA8AE192E10E94B1BA83E192E10E9442
:102FC000B1BA8CE092E10E94B1BA85E092E10E9430
:102FD000B1BA8EEF91E10E94B1BA87EF91E10E9400
:102FE000B1BA80EF91E10E94B1BA89EE91E10E94FD
:102FF000B1BA82EE91E10E94B1BA8BED91E10E94EB
:10300000B1BA84ED91E10E94B1BA8DEC91E10E94D8
:10301000B1BA8DE090E10E94B1BA86EC91E10E94D4
:10302000B1BA1F910F91FF90EF90DF90CF9008956C
:1030300080E090E06FEF7FEFBDCC81E090E06FEF3C
:103040007FEFB8CCCF92DF92EF92FF920F931F9356
:10305000CF93DF936C01EE24EA94FE2C8701C0E04D
:10306000D0E00BC0C601BE010E9451B7482FC80175
:10307000B7015BDC7B018C012196F601848195818F
:10308000C817D90778F3A801970120953095409586
:103090005095B901CA01DF91CF911F910F91FF9017
:1030A000EF90DF90CF9008950F931F9384E090E00E
:1030B0000E94BEA88C010E9445A92DB73EB7201BD7
:1030C000310BC9011F910F910895EEDF9C01809192
:1030D00028109091291028173907D1F03093291022
:1030E0002093281089E798E162EE71E10E9488B68A
:1030F000609128107091291089E798E14AE050E02A
:103100000E9462B589E798E16DE372E10C94BAB66A
:10311000089589E798E163E172E10C94BAB689E712
:1031200098E16CE072E10C94BAB6AF92BF92CF9284
:10313000DF92EF92FF920F931F937B018C01CA01E4
:10314000B9010E94B8BC5B016C01C801B701A801BC
:1031500097010E94B8BC9B01AC01C601B5010E9459
:10316000BBBA0E9425BD1F910F91FF90EF90DF9099
:10317000CF90BF90AF9008956F927F928F929F9261
:10318000AF92BF92CF92DF92EF92FF920F931F9375
:103190007B018C016BDB5B016C01A8019701C5DF32
:1031A0003B014C01E090710FF090720F0091730F92
:1031B0001091740FC801B7010E94C2BB9B01AC0102
:1031C000C601B5010E9420BB87FD4AC08091790FDE
:1031D00090917A0FA0917B0FB0917C0FE80EF91EB1
:1031E0000A1F1B1FC801B7010E94C2BB9B01AC0193
:1031F000C601B5010E94B4BC181694F1E090750F99
:10320000F090760F0091770F1091780FC801B701F9
:103210000E94C2BB9B01AC01C401B3010E9420BB50
:1032200087FD1EC0DD2480917D0F90917E0FA091BF
:103230007F0FB091800FE80EF91E0A1F1B1FC801F7
:10324000B7010E94C2BB9B01AC01C401B3010E9443
:10325000B4BC181614F4DD24D39481E0D82601C040
:10326000DD248D2D1F910F91FF90EF90DF90CF9077
:10327000BF90AF909F908F907F906F900895AF9286
:10328000BF92CF92DF92EF92FF920F931F937B0139
:103290008C0159016A0160911C1070911D10809180
:1032A0001E1090911F100E94C2BBA80197010E949E
:1032B000BBBA9B01AC010E94B8BC7B018C01C6016A
:1032C000B501A60195010E94B8BC9B01AC01C801E3
:1032D000B7010E94BCBA0E9425BD1F910F91FF90BB
:1032E000EF90DF90CF90BF90AF900895AF92BF92D4
:1032F000CF92DF92EF92FF920F931F937B018C018D
:1033000059016A01A80197010E94B8BC7B018C0198
:10331000C601B501A60195010E94B8BC9B01AC0194
:10332000C801B7010E94BCBA0E9425BD1F910F9130
:10333000FF90EF90DF90CF90BF90AF9008952F92C5
:103340003F924F925F926F927F928F929F92AF9235
:10335000BF92CF92DF92EF92FF920F931F93DF9372
:10336000CF9300D00F92CDB7DEB769837A838B837A
:103370009C8359016A0117012801611571058105B6
:10338000910559F40F2EF0E0EF2EF0E0FF2EF0E063
:103390000F2FF0E01F2FF02DA4C0CA01B9010E9429
:1033A000B8BC7B018C01C601B50120E030E040E0F3
:1033B00050E00E9420BB882324F417FB109517F9D6
:1033C0001095C201B101A20191010E94BCBA3B015A
:1033D0004C01C801B701A40193010E9427BB7B01E6
:1033E0008C0169817A818B819C810E94C2BB9B0187
:1033F000AC01C801B7010E9420BB8823B4F5C60107
:10340000B50120E030E040E050E00E9420BB88237E
:1034100029F4C401B3010E9425BD0DC0C201B10150
:10342000A60195010E9427BB9B01AC015F77C601F5
:10343000B5010E94BCBA7B018C01D090570FC0909F
:10344000580FB090590FA0905A0F2D2D3C2D4B2D99
:103450005A2D0E94B4BC18160CF043C08D2D9C2D23
:10346000AB2DBA2D7C018D013CC0C601B50120E019
:1034700030E040E050E00E9420BB882359F4C401B2
:10348000B3010E9425BD7B018C0117FB109517F934
:1034900010950FC0C201B101A60195010E9427BB82
:1034A0009B01AC015F77C601B5010E94BBBA7B01ED
:1034B0008C018091570F9091580FA091590FB091A6
:1034C0005A0F5C016D01D7FAD094D7F8D094C80197
:1034D000B701A60195010E9420BB882314F4860140
:1034E0007501B701C8010F900F900F900F90CF9109
:1034F000DF911F910F91FF90EF90DF90CF90BF90E1
:10350000AF909F908F907F906F905F904F903F9083
:103510002F900895EF92FF920F931F938091600F69
:10352000882309F456C089E798E168E272E10E94B5
:1035300088B686E291E10E9463670E94C2BB7B016C
:103540008C016091550F7091560F882777FD8095FB
:10355000982F0E94C2BB9B01AC01C801B7010E9419
:1035600027BB0E948FBBAB01BC0189E798E12AE031
:1035700030E00E9412B589E798E166E372E10E94AB
:1035800088B68AE691E10E9463670E94C2BB7B0114
:103590008C016091550F7091560F882777FD8095AB
:1035A000982F0E94C2BB9B01AC01C801B7010E94C9
:1035B00027BB0E948FBBAB01BC0189E798E12AE0E1
:1035C00030E00E9412B589E798E16DE372E10E9454
:1035D000BAB61F910F91FF90EF900895EF92FF926E
:1035E0000F931F938091241090912510A091261085
:1035F000B09127100097A105B10509F03FC0609177
:103600001C1070911D1080911E1090911F100E942F
:10361000C2BB7B018C0160912010709121108091C0
:103620002210909123100E94C2BB9B01AC01C801E3
:10363000B7015CDE20E030E040E05FE30E94BCBA0E
:103640000E948FBB609324107093251080932610E6
:103650009093271089E798E168E273E00E9491B5A2
:1036600040912410509125106091261070912710E0
:1036700089E798E12AE030E00E9450B5609124107B
:103680007091251080912610909127101F910F9115
:10369000FF90EF900895CF92DF92EF92FF920F93F9
:1036A0001F937B018C01F9E7CF2EF8E1DF2EC601D5
:1036B0006FE373E00E9491B5C601B801A70122E053
:1036C00030E00E9466B6C60165E573E00E9491B5E0
:1036D0006091550F7091560FC6014AE050E00E946C
:1036E00062B5C60167E673E00E9491B56091550F1F
:1036F0007091560F882777FD8095982F0E94C2BB46
:10370000AB01BC01C60122E030E00E9466B66091C8
:10371000550F7091560F882777FD8095982F0E943E
:10372000C2BB9B01AC01C801B7010E94B8BC7B01C0
:103730008C01C6016EE673E00E9491B5C601A70137
:10374000B80122E030E00E9466B6B701C8011F91BF
:103750000F91FF90EF90DF90CF90089589E798E167
:1037600064E773E00C9477B689E798E168E272E069
:103770000E9436B41092A91008958F929F92AF9232
:10378000BF92CF92DF92EF92FF920F931F936C0143
:103790007B0189E798E16BE873E00E9491B589E7C6
:1037A00098E1B6014AE050E00E9462B589E798E1ED
:1037B00064E973E00E9491B589E798E1B7014AE0B6
:1037C00050E00E9474B589E798E169E973E00E94CE
:1037D00091B560911D1170911E1189E798E14AE041
:1037E00050E00E9474B589E798E169EA73E00E94AD
:1037F00091B5409113115091141160911511709170
:10380000161189E798E12AE030E00E9450B54601A0
:10381000AA2497FCA094BA2C80911D1190911E119E
:10382000AA2797FDA095BA2F880E991EAA1EBB1E27
:103830000027F7FC0095102F2091131130911411DF
:103840004091151150911611C801B7010E94C0BDD9
:10385000860E971EA81EB91E89E798E163EB73E0F8
:103860000E9491B589E798E1B501A4012AE030E012
:103870000E9412B580911F1190912011A0912111E9
:10388000B091221188159905AA05BB0514F41FEF04
:1038900018C088EF90E1B501A4010E94A57188EFDE
:1038A00090E10E94B571182F89E798E16CEB73E005
:1038B0000E9491B589E798E1612F4AE050E00E94AB
:1038C000F6B4812F1F910F91FF90EF90DF90CF9072
:1038D000BF90AF909F908F9008950F931F93CF93B9
:1038E000DF93EC018B0189E798E16BEC73E00E94B8
:1038F00091B589E798E1BE014AE050E00E9462B5C7
:1039000089E798E16EEC73E00E9491B589E798E150
:10391000B8014AE050E00E9474B58091AE1190E089
:10392000C817D9079CF08091B01190E08C179D07C3
:103930006CF08091AF1190E0081719073CF080916E
:10394000B11190E0801791070CF083C08091B21103
:1039500090E0C817D907A4F08091B41190E08C17BB
:103960009D0774F08091B31190E00817190744F097
:103970008091B11190E08017910714F082E06AC045
:103980008091B61190E0C817D907A4F08091B811C2
:1039900090E08C179D0774F08091B71190E00817A4
:1039A000190744F08091B91190E08017910714F045
:1039B00083E050C08091BA1190E0C817D907A4F0F5
:1039C0008091BC1190E08C179D0774F08091BB1121
:1039D00090E00817190744F08091BD1190E080171E
:1039E000910714F084E036C08091BE1190E0C817B2
:1039F000D907A4F08091C01190E08C179D0774F056
:103A00008091BF1190E00817190744F08091C1110F
:103A100090E08017910714F085E01CC08091C211DE
:103A200090E0C817D907A4F08091C41190E08C17DA
:103A30009D0774F08091C31190E00817190744F0B6
:103A40008091C51190E08017910714F086E002C0C4
:103A500001C081E0DF91CF911F910F9108956F9286
:103A60007F928F929F92AF92BF92CF92DF92EF920E
:103A7000FF920F931F93DF93CF93CDB7DEB7A3973A
:103A80000FB6F894DEBF0FBECDBF6DB67EB688EF21
:103A900090E140E050E060E070E00E94A5717E019E
:103AA0000894E11CF11CC70163ED73E00E94F1B9B9
:103AB00088EF90E10E94B571182FC70160E070E0B7
:103AC0000E9462B7FC01108388EF90E10E94B571FB
:103AD000182FC70161E070E00E9462B7FC011083FB
:103AE000C70166ED73E00E948AB8882399F489E7DC
:103AF00098E169ED73E00E9491B589E798E1B7011B
:103B00000E9488B689E798E167EF73E00E9477B674
:103B100010E083C189E798E162E174E00E9477B622
:103B200088EF90E10E94B5718E01085F1F4FC801B8
:103B300065E072E00E94F1B988EF90E10E94B571F2
:103B4000E82E9FE0C92ED12CCC0EDD1EF02E012FC9
:103B500021C083E2E81641F488EF90E10E94B5713C
:103B6000E82E9AE0E916C1F7C6016F2D702F0E946A
:103B7000A8BAC6016E2D0E94AFB9BC018F2D902F3F
:103B80000E948ABAC6010E94B6BA88EF90E10E94EC
:103B9000B571E82E8AE0E81619F090E2E916C9F648
:103BA00089E798E168E374E00E9491B588E0E82E27
:103BB000F12CEC0EFD1E89E798E1B7010E94BAB620
:103BC0004C855D854F5F5F4F8DB79EB7841B950B0E
:103BD0000FB6F8949EBF0FBE8DBF0DB71EB70F5F17
:103BE0001F4F902E812EB02EA12EC701B80120E0CC
:103BF00030E00E943BB8C8010E94B00FAA2797FD91
:103C0000A095BA2F8093131190931411A0931511BE
:103C1000B09316110A97A105B10544F489E798E11C
:103C200060ED71E00E9436B410E0F3C0C70165E0BA
:103C300072E00E9423BA88EF90E10E94B571182FBC
:103C400006E1C02ED12CCC0EDD1EC701FE2C092FA3
:103C50001FC0133239F488EF90E10E94B571182F1C
:103C60008A30C9F7C6016F2D702F0E94A8BAC6010D
:103C7000612F0E94AFB9BC018F2D902F0E948ABA8C
:103C8000C6010E94B6BA88EF90E10E94B571182F64
:103C90001A30F9F689E798E163E474E00E9491B57F
:103CA000B8E0CB2ED12CCC0EDD1E89E798E1B60111
:103CB0000E94BAB64C855D854F5F5F4FC6016B2D84
:103CC0007A2D20E030E00E943BB8892D982D0E948B
:103CD000B00FAA2797FDA095BA2F80931711909344
:103CE0001811A0931911B0931A11BC01CD010E94B3
:103CF000C2BB7B018C0160911311709114118091F2
:103D00001511909116110E94C2BB9B01AC01C80114
:103D1000B7010E9427BB60938D0F70938E0F809325
:103D20008F0F9093900F89E798E16FE474E00E9401
:103D300091B540918D0F50918E0F60918F0F7091C2
:103D4000900F89E798E122E030E00E9466B6C60154
:103D500065E072E00E9423BA88EF90E10E94B5719D
:103D6000182F0D2DADE1EA2EF12CEC0EFD1E16C024
:103D7000C7016C2D702F0E94A8BAC701612F0E9445
:103D8000AFB9BC018C2D902F0E948ABAC7010E9446
:103D9000B6BA88EF90E10E94B571182F1A3041F73A
:103DA00089E798E161E674E00E9491B589E798E1BE
:103DB0006C2D702F0E94BAB64C855D854F5F5F4FAA
:103DC0008C2D902F6B2D7A2D20E030E00E943BB897
:103DD000892D982D0E94B00F90931C1180931B1178
:103DE00088EF90E10E94607170931E1160931D1125
:103DF00089E798E165E774E00E9491B560911D1133
:103E000070911E1189E798E14AE050E00E9474B574
:103E100011E0CE0108960E94B1BACE0101960E942F
:103E2000B1BA812F0FB6F8947EBE0FBE6DBEA396B9
:103E30000FB6F894DEBF0FBECDBFCF91DF911F91BB
:103E40000F91FF90EF90DF90CF90BF90AF909F9039
:103E50008F907F906F900895EF92FF920F931F9332
:103E6000DF93CF93CDB7DEB7FC01EDB6FEB644814C
:103E700055814F5F5F4F8DB79EB7841B950B0FB673
:103E8000F8949EBF0FBE8DBF0DB71EB70F5F1F4FBB
:103E9000CF01B80120E030E00E943BB8C8010E9489
:103EA000B00F0FB6F894FEBE0FBEEDBECF91DF91FE
:103EB0001F910F91FF90EF900895EF92FF920F9353
:103EC0001F93DF93CF93CDB7DEB727970FB6F89444
:103ED000DEBF0FBECDBF8E010F5F1F4FC80160EF69
:103EE00071E10E949FBAC801B7DF7C01C8010E943E
:103EF000B1BAEF2819F410929F100EC08091A7104C
:103F0000882321F081E080939F1006C089E798E123
:103F100063E874E00E9477B627960FB6F894DEBF88
:103F20000FBECDBFCF91DF911F910F91FF90EF900A
:103F300008950F931F93DF93CF93CDB7DEB72E97DE
:103F40000FB6F894DEBF0FBECDBF8E010F5F1F4FBF
:103F5000C80160EF71E10E949FBAC8017DDF9093B4
:103F6000AE0F8093AD0FC8010E94B1BA8E01085FF9
:103F70001F4FC80167EF71E10E949FBAC8016CDF53
:103F80009093AC0F8093AB0FC8010E94B1BA2E96EC
:103F90000FB6F894DEBF0FBECDBFCF91DF911F915A
:103FA0000F910895EF92FF920F931F93DF93CF939A
:103FB000CDB7DEB76B970FB6F894DEBF0FBECDBF9F
:103FC000FC01EDB6FEB6448155814F5F5F4F8DB762
:103FD0009EB7841B950B0FB6F8949EBF0FBE8DBF86
:103FE0000DB71EB70F5F1F4FCF01B80120E030E0C3
:103FF0000E943BB8CE0101966EEE73E1A80121E06C
:104000000E94AE748B819C819093FB108093FA1078
:104010008D819E81AF81B8858093FC109093FD10B7
:10402000A093FE10B093FF1089859A85AB85BC855F
:104030008093001190930111A0930211B09303118A
:10404000A4E0B1E1FE013D968DE001900D9281501A
:10405000E1F78A8D9B8D9093121180931111CE01FF
:1040600001960E941E7188EF90E10E94867188235C
:1040700029F489E798E167EA74E007C0F0DC882357
:1040800041F489E798E168EB74E00E9477B680E03C
:104090000DC088EF90E10E94737160931F117093BF
:1040A0002011809321119093221181E00FB6F89492
:1040B000FEBE0FBEEDBE6B960FB6F894DEBF0FBE10
:1040C000CDBFCF91DF911F910F91FF90EF90089599
:1040D000AF92BF92CF92DF92EF92FF920F931F9316
:1040E000DF93CF93CDB7DEB76B970FB6F894DEBFF3
:1040F0000FBECDBF6C01ADB6BEB64091AE105091B3
:10410000AF104F5F5F4F8DB79EB7841B950B0FB6F7
:10411000F8949EBF0FBE8DBF0DB71EB70F5F1F4F28
:104120008AEA90E1B80120E030E00E943BB87E01CD
:104130000894E11CF11CC7016EEE73E1A80123E1B4
:104140000E94AE74C7010E9486718823D1F089E76E
:1041500098E160EC74E00E9491B589E798E16AEA21
:1041600070E10E94BAB6C701B6010E94BAB6C70193
:104170000E94937189E798E161ED74E00E9477B63F
:104180000CC089E798E167ED74E00E9491B589E77A
:1041900098E16AEA70E10E94BAB6CE0101960E94E7
:1041A0001E710FB6F894BEBE0FBEADBE6B960FB6B5
:1041B000F894DEBF0FBECDBFCF91DF911F910F915D
:1041C000FF90EF90DF90CF90BF90AF900895EF9267
:1041D000FF920F931F9385E361E00E94F8AD8EEE8E
:1041E00093E165E30E94CE75882329F489E798E17D
:1041F00066EE74E06AC089E798E162E075E00E94CB
:1042000077B689E798E164E175E00E9477B681EBC3
:1042100090E161E045E30E9424788823B9F489E7BE
:1042200098E16CE275E00E9477B689E798E164E571
:1042300075E00E9477B689E798E16DE675E00E9427
:1042400077B689E798E167E875E03FC089E798E1CC
:104250006BEC75E00E9477B689E798E164EF75E052
:104260000E9491B58091BC10823049F0833061F09A
:10427000813079F489E798E161E076E00EC089E762
:1042800098E165E076E009C089E798E169E076E0C9
:1042900004C089E798E16EE076E00E9477B68DEB86
:1042A00090E161EB70E141E00E944E83882381F44C
:1042B0008DEB90E161EB70E140E00E944E8388233A
:1042C00039F489E798E166E176E00E9477B674C038
:1042D00089E798E160E676E00E9491B589E798E188
:1042E0006091D4104AE050E00E94F6B489E798E16A
:1042F0000E9416B42091C11030E040E050E060917F
:10430000C6107091C7108091C8109091C910E9E053
:10431000660F771F881F991FEA95D1F70E94C0BDCD
:104320007B018C0189E798E164E776E00E9491B512
:1043300089E798E1B801A7012AE030E00E94D4B4EF
:1043400089E798E16AE876E00E9491B53AE016952F
:104350000795F794E7943A95D1F789E798E1B80182
:10436000A7012AE030E00E94D4B489E798E161EA2D
:1043700076E00E9491B52AE016950795F794E794A8
:104380002A95D1F789E798E1B801A7012AE030E042
:104390000E94D4B489E798E168EB76E00E9477B692
:1043A0008BED90E16DEB70E10E94637D8BED90E110
:1043B00067E040E00E945D7E1F910F91FF90EF90BB
:1043C0000895AF92BF92CF92DF92EF92FF920F9338
:1043D0001F9386E291E10E94A96D8AE691E10E9415
:1043E000A96D86E291E10E9453676115710581050F
:1043F000910509F048C06091710F7091720F809122
:10440000730F9091740F2091790F30917A0F409132
:104410007B0F50917C0F260F371F481F591F0E949A
:1044200034B75B016C016091750F7091760F8091CC
:10443000770F9091780F20917D0F30917E0F4091F2
:104440007F0F5091800F260F371F481F591F0E9462
:1044500034B77B018C01C601B5010E94C2BB5B0170
:104460006C01C801B7010E94C2BB9B01AC01C6012F
:10447000B5010E9476190E948FBBAB01BC0186E298
:1044800091E10E94E8688AE691E10E945367611514
:1044900071058105910509F048C06091710F709117
:1044A000720F8091730F9091740F2091790F30915A
:1044B0007A0F40917B0F50917C0F260F371F481FBA
:1044C000591F0E9434B75B016C016091750F7091A8
:1044D000760F8091770F9091780F20917D0F30911A
:1044E0007E0F40917F0F5091800F260F371F481F7E
:1044F000591F0E9434B77B018C01C601B5010E948F
:10450000C2BB5B016C01C801B7010E94C2BB9B0129
:10451000AC01C601B5010E943F190E948FBBAB01DF
:10452000BC018AE691E10E94E8681F910F91FF901B
:10453000EF90DF90CF90BF90AF900895EF92FF92F1
:104540000F931F93CF93DF93C0E0D0E089E798E10A
:1045500062EF76E00E9491B589E798E1BE014AE0FA
:1045600050E00E9474B586E291E10E9453676115A4
:1045700071058105910509F469C08AE691E10E94FF
:104580005367611571058105910509F45FC086E2E5
:1045900091E10E94A96D8AE691E10E94A96DE3CFA5
:1045A0006EEF7FEF8FEF9FEF23E030E040E050E0D1
:1045B0000E9434B77B018C01A701662757FD6095E7
:1045C000762F86E291E10E94F96889E798E16BEF26
:1045D00076E00E9491B589E798E1B7014AE050E0A2
:1045E0000E9474B58AE691E10E94536761157105D6
:1045F0008105910511F56EEF7FEF8FEF9FEF23E0BF
:1046000030E040E050E00E9434B77B018C01A7010C
:10461000662757FD6095762F8AE691E10E94F9683A
:1046200089E798E161E177E00E9491B589E798E137
:10463000B7014AE050E00E9474B50E948A1A2196A0
:1046400083E0C83ED80709F081CF0AC086E291E135
:104650000E945367611571058105910519F6A0CF78
:10466000DF91CF911F910F91FF90EF900895AF923E
:10467000BF92CF92DF92EF92FF920F931F93CF934F
:10468000DF93EC015B016A0189E090E169E070E091
:104690000E947D6FCA15DB059CF476010027F7FCAC
:1046A0000095102F89E090E1BE010E94666EC8015E
:1046B000B7010E9433AD2196AC16BD069CF712C01F
:1046C00076010027F7FC0095102F89E090E1BE01EC
:1046D0000E94666EC801B7010E9433AD2197CA15CA
:1046E000DB059CF789E090E10E94FA6DDF91CF91A4
:1046F0001F910F91FF90EF90DF90CF90BF90AF9000
:104700000895EF92FF920F931F93DF93CF93CDB74E
:10471000DEB727970FB6F894DEBF0FBECDBF8091EE
:104720002A1090912B1020910C10029714F1222343
:1047300029F0E090B40FF090B50F04C0E090B60FF0
:10474000F090B70F8E010F5F1F4FC80160EF71E14E
:104750000E949FBAC80180DB9093B70F8093B60F79
:10476000C8010E94B1BA6091B60F7091B70FC7012E
:104770000AC0213059F46091B60F7091B70F809143
:10478000B40F9091B50F43E050E071DF10920C1020
:1047900027960FB6F894DEBF0FBECDBFCF91DF9145
:1047A0001F910F91FF90EF900895EF92FF920F935A
:1047B0001F93DF93CF93CDB7DEB727970FB6F8944B
:1047C000DEBF0FBECDBF80912A1090912B1020919B
:1047D0000C10029714F1222329F0E090B40FF0900E
:1047E000B50F04C0E090B60FF090B70F8E010F5FC9
:1047F0001F4FC80160EF71E10E949FBAC8012CDB16
:104800009093B50F8093B40FC8010E94B1BA609124
:10481000B40F7091B50FC7010AC0222359F46091FB
:10482000B40F7091B50F8091B60F9091B70F43E020
:1048300050E01DDF81E080930C1027960FB6F894AE
:10484000DEBF0FBECDBFCF91DF911F910F91FF90C3
:10485000EF900895EF92FF920F931F93182F04E4A7
:10486000E02E00E1F02EC70162E344EB22E30E9458
:10487000398B212F30E08EEA91E1F901EE0FFF1F15
:10488000E80FF91F608141812F5F3F4FF901EE0F63
:10489000FF1FE80FF91F20810181C70170E050E080
:1048A00030E010E00E94F48BC70162E344EB22E3A6
:1048B0000E943E8BC7016FEF4FEF2FEF0E94398BA5
:1048C0001F910F91FF90EF9008958F929F92AF925A
:1048D000BF92CF92DF92EF92FF920F931F93DF93DD
:1048E000CF93CDB7DEB727970FB6F894DEBF0FBED4
:1048F000CDBF4C0194E4C92E90E1D92EC60160E0F1
:1049000040E020E00E94398B4091B11150E08EEAE6
:10491000A82E81E1B82EF50160818A01085E1F4F43
:10492000C60170E0465F5F4F2CED30E00E94F48BD3
:10493000C6016FEF4FEF2FEF0E94398BC60160E089
:1049400040E020E00E943E8B7E010894E11CF11CB7
:10495000C701B4010E949FBAF50140812091B111B5
:1049600030E0265F3F4FC601B70150E000E010E0A5
:104970000E94E492C7010E94B1BA27960FB6F8943C
:10498000DEBF0FBECDBFCF91DF911F910F91FF9082
:10499000EF90DF90CF90BF90AF909F908F90089551
:1049A0002F923F924F925F926F927F928F929F923F
:1049B000AF92BF92CF92DF92EF92FF920F931F932D
:1049C000DF93CF93CDB7DEB7E0970FB6F894DEBF95
:1049D0000FBECDBF4C015B0158AB4FA789E798E1F3
:1049E00067E277E00E9491B589E798E1B5010E94FE
:1049F000BAB689E798E162E477E00E9477B6109250
:104A0000E1101092E2101092E3101092E410109254
:104A1000E5101092E6101092E7101092E8108E0147
:104A20000F5F1F4FC80164E577E00E94F1B9C5012F
:104A300065E072E00E948AB8882341F4C501B8019C
:104A40000E94E0B8882311F477246CC07724739413
:104A500069C08F85882309F47DC0853E09F472C042
:104A60008E3209F46FC08A8D83FD6CC0C60164E587
:104A700077E00E94F1B9710100E010E0D7018C915C
:104A80008032C9F0083041F4C60168E070E00E944D
:104A900062B7FC01608202C0083028F0B8016F5F85
:104AA0007F4FC60102C0C601B8010E9462B7FC0177
:104AB000D7018C9180830F5F1F4F0894E11CF11C7C
:104AC0000B301105D9F6EFA5F8A91E161F069CF4A8
:104AD000772041F089E798E1B6010E94BAB6C40197
:104AE000B60111C0C601B5010E94E0B88823B1F03B
:104AF0007724739413C0C601B5010E94E0B88823DF
:104B000049F0C401B2010E949FBACE0108960E94EA
:104B1000B1BA24C0C201B6010E948ABAC6010E947D
:104B2000B1BA10C04FE0242E312C2C0E3D1E38E0BF
:104B3000C32ED12CCC0EDD1E2EE2622E2E01089447
:104B4000411C511C8BED90E1B1010E94857C18162F
:104B50000CF47FCFC401B5010E949FBACE0101962B
:104B60000E94B1BAC401E0960FB6F894DEBF0FBE42
:104B7000CDBFCF91DF911F910F91FF90EF90DF900C
:104B8000CF90BF90AF909F908F907F906F905F90ED
:104B90004F903F902F900895EF92FF920F931F93A5
:104BA000DF93CF93CDB7DEB727970FB6F894DEBF6C
:104BB0000FBECDBF84E490E160E040E020E00E94C1
:104BC000398B4091B11150E06091AE118A01085EBD
:104BD0001F4F84E490E170E0465F5F4F2CED30E0C2
:104BE0000E94F48B84E490E16FEF4FEF2FEF0E946F
:104BF000398B84E490E160E040E020E00E943E8B4D
:104C00008AEA90E165E072E00E948AB8882341F464
:104C10008AEA90E164E577E00E948AB8882389F007
:104C20004091AE112091B11130E0265F3F4F84E4F6
:104C300090E161E677E050E000E010E00E94998F9B
:104C40001BC07E010894E11CF11CC7016AEA70E1F7
:104C50000E949FBA4091AE112091B11130E0265FC1
:104C60003F4F84E490E1B70150E000E010E00E9483
:104C7000E492C7010E94B1BA27960FB6F894DEBF3E
:104C80000FBECDBFCF91DF911F910F91FF90EF909D
:104C900008950F931F9390E0FC013197E432F105E2
:104CA00008F0A7C5EE58FF4FEE0FFF1F0590F491D7
:104CB000E02D199480E0CEDD80919C0F869590E0E8
:104CC0004091AE1150E04A505040480F591F20917A
:104CD000AF1130E02C503040280F391F84E490E1B0
:104CE00066E677E000E010E00E94998F20919C0F2B
:104CF000269530E04091AE1150E04E505040420FAA
:104D0000531F8091AF11280F311D84E490E16AE6B2
:104D100077E06DC580E09EDD80919C0F869590E0E8
:104D20004091AE1150E046515040480F591F20911C
:104D3000AF1130E02C503040280F391F84E490E14F
:104D40006FE677E000E010E00E94998F20919C0FC1
:104D5000269530E04091AE1150E046505040420F51
:104D6000531F8091AF11280F311D84E490E166E755
:104D700077E03DC580E06EDD80919C0F869590E0E8
:104D80004091AE1150E046515040480F591F2091BC
:104D9000AF1130E02C503040280F391F84E490E1EF
:104DA0006FE677E000E010E00E94998F20919C0F61
:104DB000269530E04091AE1150E04A505040420FED
:104DC000531F8091AF11280F311D84E490E169E7F2
:104DD00077E00DC582E03EDD80919C0F869590E0E6
:104DE0004091B21150E04E505040480F591F209151
:104DF000B31130E022513040280F391F84E490E194
:104E00006DE777E000E010E00E94998F80919C0FA1
:104E1000869590E04091B21150E04E505040480FBE
:104E2000591F2091B31130E026503040280F391F10
:104E300084E490E162E877E00E94998F80919C0F72
:104E4000869590E04091B21150E046505040480F96
:104E5000591F2091B31130E02A5F3F4F280F391FAF
:104E600084E490E167E877E0C2C484E0F3DC8091F9
:104E70009C0F869590E04091B61150E04E50504006
:104E8000480F591F2091B71130E026503040280FAD
:104E9000391F84E490E16AE877E048C384E0DADC13
:104EA00080919C0F869590E04091B61150E0425160
:104EB0005040480F591F2091B71130E02C5030401E
:104EC000280F391F84E490E16FE877E000E010E0FC
:104ED0000E94998F20919C0F269530E04091B61149
:104EE00050E042515040420F531F8091B711280F9C
:104EF000311D84E490E165E977E079C486E0AADCBD
:104F000080919C0F869590E04091BA1150E04251FB
:104F10005040480F591F2091BB1130E026503040BF
:104F2000280F391F84E490E16BE977E0FFC286E047
:104F300091DC80919C0F869590E04091BA1150E0F1
:104F400046515040480F591F2091BB1130E0265068
:104F50003040280F391F84E490E161EA77E0E6C22F
:104F600084E078DC80919C0F869590E04091B611AA
:104F700050E042515040480F591F2091B71130E086
:104F800026503040280F391F84E490E168EA77E02A
:104F9000CDC288E05FDC80919C0F869590E04091C7
:104FA000BE1150E04A505040480F591F2091BF1188
:104FB00030E02C503040280F391F84E490E16EEA35
:104FC00077E000E010E00E94998F20919C0F2695D9
:104FD00030E04091BE1150E046505040420F531F08
:104FE0008091BF11280F311D84E490E162EB77E0DE
:104FF000FEC388E02FDC80919C0F869590E0409165
:10500000BE1150E04A505040480F591F2091BF1127
:1050100030E02C503040280F391F84E490E16EEAD4
:1050200077E000E010E00E94998F20919C0F269578
:1050300030E04091BE1150E04E505040420F531F9F
:105040008091BF11280F311D84E490E165EB77E07A
:10505000CEC382E0FFDB80919C0F869590E040916B
:10506000B21150E04C505040480F591F2091B311DD
:1050700030E02C503040280F391F84E490E16AEB77
:1050800077E000E010E00E94998F20919C0F269518
:1050900030E04091B21150E04C505040420F531F4D
:1050A0008091B31129C088E0D5DB80919C0F869553
:1050B00090E04091BE1150E04C505040480F591FB5
:1050C0002091BF1130E02C503040280F391F84E46C
:1050D00090E164EC77E000E010E00E94998F20916D
:1050E0009C0F269530E04091BE1150E04C5050404E
:1050F000420F531F8091BF11280F311D78C086E0E9
:10510000A9DB80919C0F869590E04091BA1150E008
:105110004E505040480F591F2091BB1130E026508F
:105120003040280F391F84E490E169EC77E0FEC13C
:105130008AE090DB80919C0F869590E04091C211AF
:1051400050E04E505040480F591F2091C31130E09D
:1051500022513040280F391F84E490E16DE777E059
:1051600018C08AE077DB80919C0F869590E0409193
:10517000C21150E04E505040480F591F2091C311AA
:1051800030E022513040280F391F84E490E163ED74
:1051900077E000E010E00E94998F80919C0F869547
:1051A00090E04091C21150E04E505040480F591FBE
:1051B0002091C31130E026503040280F391F84E47D
:1051C00090E16EEC77E00E94998F80919C0F86951C
:1051D00090E04091C21150E04E505040480F591F8E
:1051E0002091C31130E02A5F3F4F280F391F84E41C
:1051F00090E16FEB77E0FBC28AE02CDB80919C0FA3
:10520000869590E04091C21150E04E505040480FBA
:10521000591F2091C31130E02C503040280F391F06
:1052200084E490E16AE877E000E010E00E94998F62
:1052300020919C0F269530E04091C21150E04A50D9
:105240005040420F531F8091C311280F311D84E439
:1052500090E168ED77E0CBC282E0FCDA80919C0FB0
:10526000869590E04091B21150E04A505040480F6E
:10527000591F2091B31130E02C503040280F391FB6
:1052800084E490E16CED77E000E010E00E94998FFB
:1052900020919C0F269530E04091B21150E0425190
:1052A0005040420F531F8091B311B7C188E0D2DA4A
:1052B00080919C0F869590E04091BE1150E04A503D
:1052C0005040480F591F2091BF1130E02C50304002
:1052D000280F391F84E490E166EE77E08DC184E009
:1052E000B9DA80919C0F869590E04091B61150E01C
:1052F0004A505040480F591F2091B71130E02C50B0
:105300003040280F391F84E490E16CED77E000E035
:1053100010E00E94998F20919C0F269530E04091DB
:10532000B61150E042515040420F531F8091B711C7
:1053300029C08AE08FDA80919C0F869590E0409199
:10534000C21150E04A505040480F591F2091C311DC
:1053500030E02C503040280F391F84E490E166EE95
:1053600077E000E010E00E94998F20919C0F269535
:1053700030E04091C21150E042515040420F531F63
:105380008091C311280F311D84E490E16AEE77E02B
:105390002EC282E05FDA80919C0F869590E040916A
:1053A000B21150E04A505040480F591F2091B3119C
:1053B00030E02C503040280F391F84E490E16CED30
:1053C00077E000E010E00E94998F20919C0F2695D5
:1053D00030E04091B21150E040515040420F531F15
:1053E0008091B31129C088E035DA80919C0F8695B1
:1053F00090E04091BE1150E04A505040480F591F74
:105400002091BF1130E02C503040280F391F84E428
:1054100090E166EE77E000E010E00E94998F209125
:105420009C0F269530E04091BE1150E04051504015
:10543000420F531F8091BF11280F311D84E490E16A
:1054400060EF77E0D4C184E005DA80919C0F869507
:1054500090E04091B61150E04A505040480F591F1B
:105460002091B71130E022513040280F391F84E4D9
:1054700090E16CED77E075C08AE0ECD980919C0FEB
:10548000869590E04091C21150E04A505040480F3C
:10549000591F2091C31130E022513040280F391F8D
:1054A00084E490E166EE77E000E010E00E94998FDE
:1054B00080919C0F869590E04091C21150E04A5037
:1054C0005040480F591F2091C31130E02650304002
:1054D000280F391F84E490E16EEA77E00E94998FEB
:1054E00080919C0F869590E04091C21150E04E5003
:1054F0005040480F591F2091C3115CC086E0AAD9C3
:1055000080919C0F869590E04091BA1150E04251F5
:105510005040480F591F2091BB1130E026503040B9
:10552000280F391F84E490E16AEF77E000E010E093
:105530005EC184E08FD980919C0F869590E0409168
:10554000B61150E04A505040480F591F2091B711F2
:1055500030E022513040280F391F84E490E16FEF92
:1055600077E000E010E00E94998F80919C0F869573
:1055700090E04091B61150E04A505040480F591FFA
:105580002091B71130E026503040280F391F84E4B5
:1055900090E16EEA77E00E94998F80919C0F86954A
:1055A00090E04091B61150E04E505040480F591FC6
:1055B0002091B71130E02A5F3F4F280F391F84E454
:1055C00090E165EF77E013C188E044D980919C0FAA
:1055D000869590E04091BE1150E04A505040480FEF
:1055E000591F2091BF1130E02C503040280F391F37
:1055F00084E490E16FEF77E000E010E00E94998F83
:1056000020919C0F269530E04091BE1150E0425110
:105610005040420F531F8091BF11280F311D84E469
:1056200090E160EE77E0E3C082E014D980919C0FB6
:10563000869590E04091B21150E04A505040480F9A
:10564000591F2091B31130E02C503040280F391FE2
:1056500084E490E16FEF77E000E010E00E94998F22
:1056600020919C0F269530E04091B21150E04A50B5
:105670005040420F531F8091B311280F311D84E415
:1056800090E163E078E0B3C082E0E4D880919C0FC1
:10569000869590E04091B21150E04A505040480F3A
:1056A000591F2091B31130E02C503040280F391F82
:1056B00084E490E16CED77E000E010E00E94998FC7
:1056C00020919C0F269530E04091B21150E04A5055
:1056D0005040420F531F8091B31129C088E0BAD8BF
:1056E00080919C0F869590E04091BE1150E04A5009
:1056F0005040480F591F2091BF1130E02C503040CE
:10570000280F391F84E490E166EE77E000E010E0B6
:105710000E94998F20919C0F269530E04091BE11F8
:1057200050E04A505040420F531F8091BF11280F44
:10573000311D84E490E167E078E059C084E08AD8C4
:1057400080919C0F869590E04091B61150E04A50B0
:105750005040480F591F2091B71130E02C50304075
:10576000280F391F84E490E16CED77E000E010E051
:105770000E94998F20919C0F269530E04091B611A0
:1057800050E04A505040420F531F8091B71129C03A
:105790008AE060D880919C0F869590E04091C2117C
:1057A00050E04A505040480F591F2091C31130E03B
:1057B0002C503040280F391F84E490E166EE77E0EA
:1057C00000E010E00E94998F20919C0F269530E018
:1057D0004091C21150E04A505040420F531F8091F7
:1057E000C311280F311D84E490E16BE078E00E9442
:1057F000998F1F910F9108956F927F928F929F9230
:10580000AF92BF92CF92DF92EF92FF920F931F93CE
:105810006C015B0139014A01F4E4EF2EF0E1FF2E47
:10582000C70160E040E020E00E94398B80919C0F2E
:105830009601280F311D85010C5E1F4FC701B6016F
:10584000A5010E94F48BC7016FEF4FEF2FEF0E946D
:10585000398BC70160E040E020E00E943E8BC70129
:10586000B401A30196018501EE24FF24E0E2CE2ECF
:105870000E94FF911F910F91FF90EF90DF90CF90CA
:10588000BF90AF909F908F907F906F9008956F9290
:105890007F928F929F92AF92BF92CF92DF92EF92C0
:1058A000FF920F931F936C015B0139014A0114E4CD
:1058B000E12E10E1F12EC70160E040E020E00E94FF
:1058C000398B80919C0F9601280F311D85010C5E4C
:1058D0001F4FC701B601A5010E94F48BC7016FEFEE
:1058E0004FEF2FEF0E94398BC70160E040E020E0CE
:1058F0000E943E8BC701B401A30122E0860175011D
:10590000BEE2CB2EAA24BB24A0E28A2E0E9466907F
:105910001F910F91FF90EF90DF90CF90BF90AF90CD
:105920009F908F907F906F9008951F9384E490E1F3
:1059300062E344EB22E30E943E8B84E490E160E06A
:1059400040E020E00E94398B80919E0F8130E1F48D
:1059500080912411882311F081E201C080E299D95D
:1059600082E097D980910C10882311F088E001C063
:1059700087E08FD98091610F882311F084E001C006
:1059800085E087D983E2B1C080919E0F823061F4B7
:105990008DE17FD98EE17DD98091610F882311F04F
:1059A00084E0A3C085E0A1C080919E0F833081F484
:1059B0008BE06FD98CE06DD980912311882311F091
:1059C00082E201C080E165D98FE063D9E5D88EC05D
:1059D00080919E0F863051F589E05BD98AE059D9D4
:1059E00082E157D983E155D984E153D96091570FAA
:1059F0007091580F8091590F90915A0F0E948FBB50
:105A00009B01AC0180E590E060E570E0F5DE60911F
:105A10005B0F70915C0F80915D0F90915E0F0E9403
:105A20008FBB9B01AC0186E990E050C080919E0F36
:105A3000843039F589E12DD98AE12BD98BE129D937
:105A40008CE127D984E125D92091950F3091960FCB
:105A50004091970F5091980F8091BE1190E060E5B2
:105A600070E015DF2091AF0F3091B00F4091B10F72
:105A70005091B20F8091C21190E060E570E007DFB5
:105A800035C080919E0F853029F585E102D986E1E8
:105A900000D987E1FED888E1FCD884E1FAD81091DA
:105AA000BE1186E291E10E9463679B01AC01812FE8
:105AB00090E060E570E0A0DE1091C2118AE691E10D
:105AC0000E9463679B01AC01812F90E060E570E06C
:105AD00093DE0CC080919E0F873041F48FE1D9D8BE
