:100000000C94FF0C0C94300D0C94300D0C94300DAE
:100010000C94300D0C94300D0C94300D0C94300D6C
:100020000C94300D0C94300D0C94300D0C94300D5C
:100030000C94300D0C94300D0C94300D0C94300D4C
:100040000C94300D0C945A820C94300D0C94300D9D
:100050000C94300D0C94300D0C94300D0C94ACB409
:100060000C94300D0C9413B80C9449B80C94300DCA
:100070000C94300D0C94300D0C94300D0C94300D0C
:100080000C9487820C94300D0C94300D0C94300D30
:100090000C94300D0C94300D0C94300D0C94300DEC
:1000A0000C94300D0C94300D0C94B4820C94300DE3
:1000B0000C94300D0C94300D0C94300D0C94E182A6
:1000C0000C94300D0C94300D0C94300D0C94300DBC
:1000D0000C94300D0C94300D0C94300D0C94300DAC
:1000E0000C94300D171516166516B316CE16E916B4
:1000F00004173717AD18801897176A17721C721CEF
:10010000C817E317721CF518C818EC19E91ABC1ABD
:10011000491B1C1BA319881955192819561A071AA7
:10012000891A4A157D15FE174D188016B015721CD8
:100130004D18091CDC1BA91B7C1BE3153C1C4F5FE5
:100140005D63525F565F5D635B5F615F675F935F97
:100150004F6177615D635D639F6103615D63C15F53
:10016000ED5FB661B861E1610D6236621B604160AE
:100170008960B160AE61AC61B061475F4B5F406167
:10018000B2616262F5605D63B4617A62AC62DD6245
:100190000E6366623E63FB7A027B097B107B177BF2
:1001A0002E7B1E7B2E7B257B9E7BA27BA67BAA7B48
:1001B000AE7BB27BB67BE48B028C298C3F8C3F8C70
:1001C0003F8C568CDE8CE48BDE8C798CDE8C878CBD
:1001D000878CA48CA48C298C0A8D0A8D298C878C01
:1001E000DE8C3F8CB28CDE8CDE8CDE8CDE8CDE8C8A
:1001F000CC8CDE8CDE8C778DD88EC18F90909B91CD
:100200009B912D938194269A8E957F97EB97B49B23
:100210008D9C699E699EC18F5CA75CA7C18F609D04
:100220006A9FAF9233A0FEA004A32BA2BDA304A596
:100230005EA672A62696D1B5D4B5C3B5C7B5CDB561
:100240000BB6D8B5DCB5E2B5E6B5EAB5F0B5F4B5B0
:10025000F8B50BB6FEB502B606B605A84CCDB2D4BD
:100260004EB93836A9020C50B9918688083CA6AA26
:10027000AA2ABE000000803F50424D20696D616790
:1002800065206D757374206265206174206C6561F2
:10029000737420313020706978656C7320776964DD
:1002A000652E002C206D61782064656E7369747909
:1002B0003A20002C2070656E2077696474683A20BB
:1002C0000050656E776964746820746573742000EB
:1002D0002C20726564756365643A002C206F757418
:1002E0004D61783A002C20696E4D61783A00696E54
:1002F00044656E733A004E6F7420706F7373696259
:100300006C6520746F206578707265737320616E00
:10031000792064657461696C2E0020697320002C5B
:1003200020677269643A20004D61782077617665B4
:100330007320666F722070656E53697A653A20008B
:100340002C20736F20726F7773697A6520696E2035
:1003500073746570733A20002C206D6D5065725374
:100360007465703A2000472C442C726F7773697A59
:100370006520696E206D6D3A20002073746570737E
:100380002E003A20004D696E207365676D656E74AE
:100390002073697A6520666F722070656E53697A82
:1003A00065200063616C632053450063616C6320CA
:1003B0004E570063616C632053570063616C632088
:1003C0004E450063616C63756C61746564204E45D5
:1003D0000063616C63756C617465642053570063DE
:1003E000616C63756C617465642053450063616C76
:1003F00063756C61746564204E57002E002C207369
:100400006F75726365423A20002E20536F757263D8
:1004100065413A20002C20746172676574423A206D
:1004200000546172676574413A20002C206F4F754B
:1004300074206E756D626572206F662077617665D7
:10044000733A20002C20696E7075742064656E7399
:100450006974793A20004D61782077617665732060
:100460007769746820746869732070656E20616EA6
:1004700064206772696473697A653A20002E002EE1
:1004800020656E6420706F696E743A200053746149
:10049000727420706F696E743A2000643A204E4581
:1004A00000643A204E5700643A20535700643A20C3
:1004B0005345002C206D61782064656E73697479F2
:1004C0003A20002C2070656E2077696474683A20A9
:1004D0000050656E776964746820746573742000D9
:1004E0004368616E67696E67206261636B20746F39
:1004F000206C697665206D6F64652E0046696C65B9
:100500002072656D6F7665642E0046696C652061AA
:100510006C7265616479206578697374732E004527
:100520007865637574696E6720636F6D6D616E6465
:100530003A0053746F72696E6720636F6D6D616E00
:10054000643A006D6D004368616E676564205065B4
:100550006E20776964746820746F20004E65772080
:10056000616363656C65726174696F6E3A20004EF9
:100570006577206D61782073706565643A20005559
:10058000703A2000446F776E3A2000504753504530
:1005900045442C0050474C4946542C005047535476
:1005A00045504D554C5449504C4945522C005047EC
:1005B00053544550535045525245562C0050474DC8
:1005C0004D5045525245562C00504753495A452CE0
:1005D0000050474E414D452C002900526563616C27
:1005E00063207061676548656967687420696E207B
:1005F00073746570732028002900526563616C6311
:100600002070616765576964746820696E2073742F
:100610006570732028002900292C2073746570737D
:100620005065724D4D202800526563616C63206DEA
:100630006D506572537465702028004C6F6164655D
:1006400064206D6F746F722073746570206D756CAB
:100650007469706C6965723A004C6F6164656420FE
:100660006D616368696E65206E616D653A004C6FFF
:100670006164656420757020706F733A004C6F611F
:1006800064656420646F776E20706F733A004C6FFE
:1006900061646564206D6F746F722073746570732C
:1006A00020706572207265763A004C6F61646564F3
:1006B000206D6D20706572207265763A004C6F6116
:1006C000646564206D616368696E6520686569674B
:1006D00068743A004C6F61646564206D6163686999
:1006E0006E652077696474683A00206E6F742072BA
:1006F00065636F676E697365642E0029206E6F7481
:10070000207061727365642E00436F6D6D20280048
:10071000536572766F200048617264776172653A42
:1007200020007600504F4C41524752415048204FD4
:100730004E21007C3C3E5E2B3D3F2F5B5D3B2C2AD7
:10074000225C001010205F0000000000000000008C
:100750000000000000000000000000000000000099
:10076000000000000000000000000007000F800FE4
:10077000800F800F800F8007000700000000000737
:100780000007000700000000000E380E380E380E7B
:1007900038063000000000000000000000000000EB
:1007A0000000000000000000000C300C300C307F16
:1007B000FE7FFE0C300C300C300C307FFE7FFE0CC8
:1007C000300C300C3000000000024002400FF81FD7
:1007D000F81A401A401FF00FF8025802581FF81F6D
:1007E000F00240024000000000000000000E100E69
:1007F000300E7000E001C0038007000E700C70081E
:1008000070000000000000000000000F00198019B7
:100810008019800F000F080F9819F818F018E019C8
:10082000F00F98000000000000000007000700071C
:10083000000E0000000000000000000000000000AA
:10084000000000000000000000000000F001C003F4
:100850008007000E000E000E000E0007000380014E
:10086000C000F000000000000000000F0003800145
:10087000C000E0007000700070007000E001C00374
:10088000800F0000000000000000000180118809B6
:100890009007E007E03FFC3FFC07E007E00990110C
:1008A000880180000000000000000000000000013E
:1008B00080018001800FF00FF00180018001800035
:1008C0000000000000000000000000000000000028
:1008D000000000000000000000000000000700070A
:1008E0000007000E000000000000000000000000F3
:1008F00000000000001FF81FF800000000000000CA
:1009000000000000000000000000000000000000E7
:1009100000000000000000000000000000070007C9
:1009200000070000000000000000000002000600B8
:100930000E001C0038007000E001C0038007000EAC
:10094000001C0000000000000000000FF01C381C1C
:10095000781CF81CF81DB81DB81F381F381E381C2D
:10096000380FF0000000000000000001800180034B
:10097000801F801F80038003800380038003800327
:10098000801FF000000000000000000FE01C701C41
:10099000380038007000E001C0038007000E381CEA
:1009A000381FF800000000000000000FE01C701C61
:1009B000380038007003C003C0007000381C381CB9
:1009C000700FE0000000000000000000E001E00304
:1009D000E006E00CE018E01FF81FF800E000E0007F
:1009E000E003F800000000000000001FF81C001CDD
:1009F000001C001C001FE01FF0007800381C381C91
:100A0000700FE0000000000000000003E007000E8F
:100A1000001C001C001FF01FF81C381C381C381C60
:100A2000380FF000000000000000001FFC1C1C1C20
:100A30001C1C1C001C0038007000E001C003800377
:100A400080038000000000000000000FF01C381C34
:100A5000381C381F3807E007E01CF81C381C381C0D
:100A6000380FF000000000000000000FF01C381CE0
:100A7000381C381C381FF80FF80038003800700098
:100A8000E007C000000000000000000000000003BC
:100A90008003800380000000000380038003800047
:100AA0000000000000000000000000000000000343
:100AB0008003800380000000000380038003800720
:100AC000000000000000000000007000E001C00312
:100AD0008007000E001C001C000E000700038001B0
:100AE000C000E000700000000000000000000000F6
:100AF000003FFC3FFC000000003FFC3FFC0000000A
:100B00000000000000000000001C000E00070003B1
:100B10008001C000E00070007000E001C0038007A9
:100B2000000E001C000000000003C00FF01E78182B
:100B3000380038007000E001C001C0000000000172
:100B4000C001C001C0000000000FF81C1C1C1C1CD0
:100B50001C1C1C1CFC1CFC1CFC1CFC1C001C001C8D
:100B6000001FF007F800000000000003C007E00EBF
:100B7000701C381C381C381C381FF81C381C381CDA
:100B8000381C3800000000000000001FF00E380E76
:100B9000380E380E380FF00FF00E380E380E380EB3
:100BA000381FF0000000000000000007F00E381CA5
:100BB000381C001C001C001C001C001C001C380EF3
:100BC0003807F000000000000000001FE00E700E6B
:100BD000380E380E380E380E380E380E380E380EE5
:100BE000701FE000000000000000001FF80E180E4B
:100BF000080E000E300FF00FF00E300E000E080E33
:100C0000181FF800000000000000001FF80E180E6A
:100C1000080E000E300FF00FF00E300E000E000E1A
:100C2000001F00000000000000000007F00E381C4C
:100C3000381C381C001C001C001CF81C381C380E0A
:100C40003807F800000000000000001C701C701C39
:100C5000701C701C701FF01FF01C701C701C701C2E
:100C6000701C7000000000000000000FE003800313
:100C7000800380038003800380038003800380035C
:100C8000800FE0000000000000000001FC00700088
:100C900070007000700070007038703870387038F4
:100CA000700FE000000000000000001E380E380E3B
:100CB000700EE00FC00F800F800FC00EE00E700EA0
:100CC000381E3800000000000000001F000E000E5B
:100CD000000E000E000E000E000E000E080E180E84
:100CE000381FF800000000000000001C1C1E3C1F04
:100CF0007C1FFC1FFC1DDC1C9C1C1C1C1C1C1C1CCD
:100D00001C1C1C00000000000000001C1C1C1C1E01
:100D10001C1F1C1F9C1DDC1CFC1C7C1C3C1C1C1C6C
:100D20001C1C1C000000000000000003E007F00E87
:100D3000381C1C1C1C1C1C1C1C1C1C1C1C0E3807DE
:100D4000F003E000000000000000001FF00E380E6D
:100D5000380E380E380FF00FF00E000E000E000E99
:100D6000001F00000000000000000003E00F780EEC
:100D7000381C1C1C1C1C1C1C1C1C7C1CFC0FF80F95
:100D8000F8003800FC0000000000001FF00E380ED4
:100D9000380E380E380FF00FF00E700E380E380E79
:100DA000381E3800000000000000000FF01C381C46
:100DB000381C381C000FE007F000381C381C381CA9
:100DC000380FF000000000000000001FFC19CC11DB
:100DD000C401C001C001C001C001C001C001C00107
:100DE000C007F000000000000000001C701C701C18
:100DF000701C701C701C701C701C701C701C701C93
:100E0000700FE000000000000000001C701C701C4F
:100E1000701C701C701C701C701C701C700EE00725
:100E2000C0038000000000000000001C1C1C1C1CF3
:100E30001C1C1C1C1C1C9C1C9C1C9C0FF80FF807E9
:100E400070077000000000000000001C701C701C87
:100E5000700EE007C00380038007C00EE01C701C0A
:100E6000701C7000000000000000001C701C701C52
:100E7000701C701C700EE007C003800380038003A9
:100E8000800FE000000000000000001FF81C381870
:100E900038107000E001C0038007000E081C181C09
:100EA000381FF8000000000000000007F0070007EE
:100EB00000070007000700070007000700070007FA
:100EC0000007F00000000000000000100018001CE7
:100ED000000E000700038001C000E0007000380031
:100EE0001C0007000000000000000007F000700078
:100EF0007000700070007000700070007000700072
:100F00007007F0000000000000018003C007E00E41
:100F1000701C38000000000000000000000000000D
:100F200000000000000000000000000000000000C1
:100F300000000000000000000000000000000000B1
:100F40000000007FFF7FFF000000001C001C000766
:100F5000000700000000000000000000000000008A
:100F60000000000000000000000000000000000081
:100F70000000000FE0007000700FF01C701C701C6F
:100F8000700FD800000000000000001E000E000ED0
:100F9000000E000FF00E380E380E380E380E380ED8
:100FA000381BF000000000000000000000000000FE
:100FB0000000000FE01C701C701C001C001C701C4A
:100FC000700FE0000000000000000000F80070005A
:100FD0007000700FF01C701C701C701C701C701C5A
:100FE000700FD800000000000000000000000000AA
:100FF0000000000FE01C701C701FF01C001C701C17
:10100000700FE0000000000000000003E007700720
:1010100070070007001FE01FE00700070007000738
:10102000001FC000000000000000000000000000E1
:101030000000000FD81C701C701C701C700FF00793
:10104000F000701C700FE0000000001E000E000E8B
:10105000000E000EF00F380F380E380E380E380E16
:10106000381E38000000000000000001C001C0016F
:10107000C000000FC001C001C001C001C001C0011B
:10108000C00FF800000000000000000070007000B9
:1010900070000003F00070007000700070007000BD
:1010A000701C700CF007E0000000001E000E000E27
:1010B000000E000E380E700EE00FC00EE00E700E27
:1010C000381E3800000000000000000FC001C00101
:1010D000C001C001C001C001C001C001C001C00108
:1010E000C00FF80000000000000000000000000039
:1010F0000000001FF81C9C1C9C1C9C1C9C1C9C1C25
:101100009C1C9C000000000000000000000000008B
:101110000000001FE01C701C701C701C701C701CF8
:10112000701C7000000000000000000000000000C3
:101130000000000FE01C701C701C701C701C701CE8
:10114000700FE00000000000000000000000000040
:101150000000001BF00E380E380E380E380E380F17
:10116000F00E000E001F0000000000000000000054
:101170000000001FB038E038E038E038E038E01F09
:10118000E000E000E001F0000000000000000000CE
:101190000000001EF00FF80F380E000E000E000EBB
:1011A000001F000000000000000000000000000020
:1011B0000000000FE01C301C300F8003E018701896
:1011C000700FE000000000000000000000010003BC
:1011D0000007001FF007000700070007000770075F
:1011E0007003E000000000000000000000000000AC
:1011F0000000001C701C701C701C701C701C701C8B
:10120000700FD80000000000000000000000000087
:101210000000001C701C701C701C701C700EE0071D
:10122000C00380000000000000000000000000007B
:101230000000001C1C1C1C1C1C1C9C1C9C0FF80788
:1012400070077000000000000000000000000000B7
:101250000000001CE01CE00FC0078007800FC01CCE
:10126000E01CE000000000000000000000000000A2
:101270000000000E380E380E380E380E3807F00316
:10128000E000E001C01F800000000000000000003E
:101290000000001FE018E011C0038007000E201CB2
:1012A000601FE0000000000000000001F803800360
:1012B00080038007001C001C0007000380038003DC
:1012C0008001F800000000000001C001C001C00161
:1012D000C001C001C001C001C001C001C001C00106
:1012E000C001C001C00000000000001F8001C0015B
:1012F000C001C000E00038003800E001C001C001BA
:10130000C01F8000000000000000001F1C3B9C3933
:10131000DC38F800000000000000000000000000C1
:1013200000000000000000080C205F00000000002A
:1013300000000000000000000020202020202000ED
:1013400020000000285050000000000000000000B5
:10135000002828FC2850FC50500000002078A8A04D
:10136000603028A8F02000000048A8B0502834546D
:10137000480000000020505078A8A8906C000000A1
:101380004040800000000000000000000408101031
:101390001010101008040000402010101010101041
:1013A00020400000000020A87070A820000000006D
:1013B00000202020F8202020000000000000000075
:1013C000000000004040800000000000F800000025
:1013D00000000000000000000000000040000000CD
:1013E00008101010202040404080000000708888C5
:1013F000888888887000000000206020202020203D
:10140000700000000070888810204080F800000004
:101410000070880830080888700000000010305004
:10142000509078101800000000F88080F0080888BC
:101430007000000000709080F088888870000000C4
:1014400000F89010202020202000000000708888E4
:101450007088888870000000007088888878084844
:1014600070000000000000200000000020000000CC
:1014700000000000200000002020000004081020D0
:101480004020100804000000000000F80000F800F0
:101490000000000040201008040810204000000058
:1014A00000708888102020002000000000708898BC
:1014B000A8A8B8807800000000202030505078485C
:1014C000CC00000000F0484870484848F000000098
:1014D00000788880808080887000000000F0484894
:1014E00048484848F000000000F848507050404814
:1014F000F800000000F8485070504040E000000044
:1015000000384880809C88483000000000CC484863
:1015100078484848CC00000000F8202020202020F7
:10152000F8000000007C10101010101090E0000077
:1015300000EC485060505048EC00000000E0404093
:1015400040404044FC00000000D8D8D8D8A8A8A843
:10155000A800000000DC486868585848E80000000F
:1015600000708888888888887000000000F04848EB
:1015700070404040E0000000007088888888E8984B
:101580007018000000F0484870504848EC00000017
:101590000078888060100888F000000000F8A8201B
:1015A000202020207000000000CC484848484848CF
:1015B0003000000000CC484850503020200000008F
:1015C00000A8A8A8705050505000000000D85050FB
:1015D00020205050D800000000D85050202020205B
:1015E0007000000000F8901020204048F800000033
:1015F000382020202020202020380000404040209B
:1016000020101010080000007010101010101010A2
:1016100010700000205000000000000000000000DA
:1016200000000000000000000000FC00200000009E
:1016300000000000000000000000000030483848B2
:101640003C00000000C04040704848487000000066
:10165000000000003848404038000000001808082A
:10166000384848483C0000000000000030487840FE
:1016700038000000001C2020782020207800000086
:10168000000000003C4830407844380000C0404032
:1016900070484848EC000000002000006020202036
:1016A0007000000000100000301010101010E0005A
:1016B00000C040405C507048EC00000000E020207A
:1016C00020202020F800000000000000F0A8A8A8BA
:1016D000A800000000000000F0484848EC000000AE
:1016E00000000000304848483000000000000000C2
:1016F000F04848487040E000000000003848484882
:1017000038081C0000000000D8604040E0000000E5
:101710000000000078403008780000000000202021
:10172000702020201800000000000000D848484821
:101730003C00000000000000EC4850302000000099
:1017400000000000A8A87050500000000000000039
:10175000D8502050D800000000000000EC48503065
:101760002020C00000000000781020207800000039
:101770001810101020101010101800101010101059
:1017800010101010101010006020202010202020B9
:1017900020600040A41800000000000000000000CD
:1017A000000A0B02090C0D0E0807030401000000DB
:1017B0000000000000000000000000000000000029
:1017C00000000000000000000000001211100000E6
:1017D0000000000000000000000000000000000009
:1017E0000000000000010210202008081020401016
:1017F00020408002010201080402010102040810D5
:1018000020408080402010080402018004020180F2
:10181000402010080402010804020101020408101B
:1018200020408001020408102040800505050507BE
:101830000508080808020202020A0A08080404044B
:101840000401010101010101010303030303030377
:1018500003040707070C0C0C0C0C0C0C0C02020206
:101860000206060606060606060B0B0B0B0B0B0BF9
:101870000B000020002300260029002C002F00323E
:1018800000000100000301060109010000220025FB
:101890000028002B002E003100340002010000055A
:1018A0000108010B0100002100240027002A002D5F
:1018B000003000330001010000040107010A014E5D
:1018C000414E494E495459494E46CDCCCC3D0AD79C
:1018D000233C17B7D13877CC2B329595E6241FB12E
:1018E0004F0A000020410000C84200401C4620BCB6
:1018F000BE4CCA1B0E5AAEC59D7400407A10F35AF6
:1019000000A0724E18090010A5D4E80000E876483F
:10191000170000E40B54020000CA9A3B000000E1EB
:10192000F505000080969800000040420F0000007E
:10193000A08601000000102700000000E80300005E
:1019400000006400000000000A0000000000010028
:10195000000000002C76D888DC674F0823DFC1DF49
:10196000AE59E1B1B796E5E3E453C63AE65199764C
:1019700096E8E6C28426EB898C9B62ED407C6FFC86
:10198000EFBC9C9F40F2BAA56FA5F490055A2AF7C8
:101990005C936B6CF9676DC11BFCE0E40D47FEF5D1
:1019A00020E6B500D0ED902E030094357705008039
:1019B000841E080000204E0A000000C80C33333398
:1019C000330F986E12831141EF8D2114893BE65538
:1019D00016CFFEE6DB18D1844B381BF77C1D901D1B
:1019E000A4BBE424203284725E228100C9F124EC7D
:1019F000A1E53D272436A06BB16E7BB804381124D5
:101A00001FBECFEFD1E2DEBFCDBF00E00CBF11E1C2
:101A1000A0E0B2E0E2E6F3E901E00BBF02C007900C
:101A20000D92A43AB107D9F728E1A4EAB1E101C0C7
:101A30001D92A53AB207E1F719E1CCEFD9E100E038
:101A400006C022970109FE010BBF0E942DC2C43FB0
:101A5000D10780E00807A9F70E9480BE0C94A0C9B6
:101A60000C9400000E9499BD91E0811190E0892FB3
:101A70000895CF92DF92EF92FF920F931F93CF932F
:101A8000DF93CDB7DEB7BC01EDB6FEB6FC01019029
:101A90000020E9F73197E81BF90B8DB79EB78E1B35
:101AA0009F0B0FB6F8949EBF0FBE8DBF0DB71EB72C
:101AB0000F5F1F4FC8010E942DC560E571E1C8018D
:101AC0000E9400C58C011092B8141092AA141092B2
:101AD0009C1410928E14D12CC12CD11004C0B801CA
:101AE00086EC94E13CC060E571E180E090E00E940A
:101AF00000C58C01009741F0BC018BE491E10E948C
:101B000051C5892B09F4C39492E0D916A1F09D1513
:101B100020F081E0D81641F024C093E0D91691F06E
:101B200084E0D816B1F01DC001151105D1F0B8013F
:101B300088EB94E114C00115110599F0B8018AEA07
:101B400094E10DC00115110561F0B8018CE994E133
:101B500006C00115110529F0B8018EE894E10E9434
:101B60002DC5D39496E0D912B8CFC0928D140FB67C
:101B7000F894FEBE0FBEEDBEDF91CF911F910F9185
:101B8000FF90EF90DF90CF900895CF93DF93EC011B
:101B90006BE471E10E9451C5FC0114826BE471E1B8
:101BA0000E9424C5892B21F4CE0163DF81E001C0AE
:101BB00080E0DF91CF9108956BE474E181E098E1DA
:101BC0000C9448B9CF93DF93EC016EE472E081E0AE
:101BD00098E10E942DB9BE0181E098E10E941FB9F1
:101BE0006AEE76E081E098E1DF91CF910C9438B90C
:101BF00061E083E00E940CB661E083E00E9445B69C
:101C000061E086E00E940CB661E086E00E9445B685
:101C100063E08DE192E10E944B8121E040E060E0D1
:101C20008DE192E10E94608166E089ED91E10E9480
:101C30004B8121E040E061E089ED91E10C9460810D
:101C4000CF93DF93C0E0D0E04AE050E0BE0181E0F6
:101C500098E10E9407BA6CE273E081E098E10E948B
:101C60002DB9CE010E94AFC54AE050E0682F81E057
:101C700098E10E9440BA2196C832D10529F7DF9138
:101C8000CF910895FF920F931F93CF93DF93CDB71A
:101C9000DEB72C970FB6F894DEBF0FBECDBF6BEE4C
:101CA00077E0CE0107960E945DBC04E010E0C80119
:101CB0000E94AFC5F82EBE01695F7F4FCE0101962D
:101CC0000E94BCBC6F2DCE0101960E944CBDBC0190
:101CD000CE0107960E94A7BCCE0101960E94F5BBDB
:101CE0000F5F1F4F0C30110511F760E070E0CE015F
:101CF00007960E94E8BDFC018081811106C064EE58
:101D000074E1CE0107960E94A7BC1092D0141092E5
:101D1000D1141092D2141092D314BE01695F7F4F78
:101D20008AEE94E10E94A7BC69E576E081E098E143
:101D30000E94FCB86AEE74E181E098E10E9448B923
:101D4000CE0107960E94F5BB2C960FB6F894DEBF25
:101D50000FBECDBFDF91CF911F910F91FF900895DE
:101D600088EB94E10E94B5C490935602809355028B
:101D70008AEA94E10E94B5C4909358028093570276
:101D800008955EDF61ED75E081E098E10E94FCB8A6
:101D90006AEE74E181E098E10E941FB96BE471E1A1
:101DA00081E098E10E9458B969EC75E081E098E122
:101DB0000E94FCB860917202709173024AE050E098
:101DC00081E098E10E9407BA60E571E181E098E165
:101DD0000E942DB960917002709171024AE050E04A
:101DE00081E098E10E9407BA6BE471E181E098E13B
:101DF0000E9458B96DEB75E081E098E10E94FCB853
:101E000040917E0250917F02609180027091810228
:101E100022E030E081E098E10E943CBB6BE471E19C
:101E200081E098E10E9458B96EEA75E081E098E19E
:101E30000E94FCB860918202709183024AE050E0F7
:101E400081E098E10E9407BA6BE471E181E098E1DA
:101E50000E9458B96CE975E081E098E10E94FCB8F5
:101E600060917C0270917D024AE050E081E098E14F
:101E70000E9407BA6BE471E181E098E10E9458B9D1
:101E800064E975E081E098E10E94FCB86091840209
:101E9000709185024AE050E081E098E10E9407BA23
:101EA00060E571E181E098E10E942DB960918602C0
:101EB000709187024AE050E081E098E10E9407BA01
:101EC0006BE471E181E098E10E9458B96BE875E03C
:101ED00081E098E10E94FCB840916C0250916D0243
:101EE00060916E0270916F0222E030E081E098E133
:101EF0000E943CBB60E571E181E098E10E942DB950
:101F0000409168025091690260916A0270916B027F
:101F100022E030E081E098E10E943CBB6BE471E19B
:101F200081E098E10C9458B9AB01BC0140936C027C
:101F300050936D0260936E0270936F028DE192E197
:101F40000E943F8040916C0250916D0260916E0240
:101F500070916F0289ED91E10E943F806FE675E01C
:101F600081E098E10E94FCB840916C0250916D02B2
:101F700060916E0270916F0222E030E081E098E1A2
:101F80000C943DBBAB01BC014093680250936902C5
:101F900060936A0270936B028DE192E10E94A380CC
:101FA000409168025091690260916A0270916B02DF
:101FB00089ED91E10E94A3806CE575E081E098E1F4
:101FC0000E94FCB8409168025091690260916A02D7
:101FD00070916B0222E030E081E098E10C943DBB0F
:101FE0004F925F926F927F928F929F92AF92BF9229
:101FF000CF92DF92EF92FF920F931F93CF93DF93D5
:10200000CDB7DEB728970FB6F894DEBF0FBECDBFB1
:102010006D837E838F83988749015A016701780118
:10202000672B682B692B09F498C0C501B4010E9485
:1020300082C02B013C0120E030E0A901C501B401C0
:102040000E94F3BE87FF04C077FA709477F870940B
:10205000A7019601C701B6010E948FBE69837A83EA
:102060008B839C839B01AC01C301B2010E94FABE29
:102070002B013C016D817E818F8198850E9495BFE7
:102080009B01AC01C301B2010E94F3BE40906C02FF
:1020900050906D0260906E0270906F0220E030E010
:1020A000A90187FF25C0C501B4010E94F3BE8111BB
:1020B00007C069817A818B819C810E94EFC00DC02D
:1020C000A5019401C701B6010E94FABE9B01AC01B3
:1020D0005F77C501B4010E948FBE6B017C01A30133
:1020E00092010E947EC018169CF12601370130C073
:1020F000C501B4010E94F3BE81110DC069817A81CE
:102100008B819C810E94EFC06B017C01F7FAF094F7
:10211000F7F8F0940FC0A5019401C701B6010E9421
:10212000FABE9B01AC015F77C501B4010E948EBE6F
:102130006B017C0177FA709477F87094A301920197
:10214000C701B6010E94F3BE87FD02C02601370118
:10215000542D452D362D272D04C050E040E030E0B1
:1021600020E0652F742F832F922F28960FB6F894B6
:10217000DEBF0FBECDBFDF91CF911F910F91FF90BA
:10218000EF90DF90CF90BF90AF909F908F907F9017
:102190006F905F904F900895CF92DF92EF92FF92F1
:1021A0000F931F93CF93DF93CDB7DEB72C970FB666
:1021B000F894DEBF0FBECDBFEDB6FEB668EB74E19E
:1021C000CE0107960E945DBC6AEA74E1CE010196D9
:1021D0000E945DBC6BEE77E0CE01079643DC88235E
:1021E00009F45AC06FE273E081E098E10E942DB9D2
:1021F000BE01695F7F4F81E098E10E9448B981E0AC
:102200008093BA12BE01695F7F4F84EB92E10E9416
:10221000A7BC61E974E0CE0101960E9499BD8823B4
:1022200009F440C0CDB6DEB64B855C854F5F5F4F8D
:102230008DB79EB7841B950B0FB6F8949EBF0FBE4B
:102240008DBF0DB71EB70F5F1F4F20E030E0B80104
:10225000CE0107960E94FABDB8018EE095E10E947A
:10226000146B882399F06AE075E081E098E10E94A0
:1022700038B9B8018EE095E10E941E6B882331F0D9
:102280006CEF74E081E098E10E9438B90FB6F894E1
:10229000DEBE0FBECDBE06C06CE473E081E098E107
:1022A0000E9458B9CE0101960E94F5BBCE01079657
:1022B0000E94F5BB0FB6F894FEBE0FBEEDBE2C9685
:1022C0000FB6F894DEBF0FBECDBFDF91CF911F9147
:1022D0000F91FF90EF90DF90CF90089560EE74E043
:1022E00081E098E10E9438B91092BA1208950F93D4
:1022F0001F93CF93DF938091C812811153C089EC53
:1023000092E10E9437B3882309F456C089EC92E128
:102310000E9497B189EC92E10E944EB3EC0189ECE6
:1023200092E10E94F9B38C01CF3F8FEFD80739F3C8
:102330000F3F8FEF180719F36EE673E081E098E125
:102340000E942DB96091C6127091C7124AE050E008
:1023500081E098E10E9407BA60E77AE081E098E1C5
:102360000E942DB96091C4127091C5124AE050E0EC
:1023700081E098E10E940EBAD093C712C093C612B2
:102380001093C5120093C41281E08093C8120E947A
:10239000F6B4609351147093521480935314909335
:1023A00054140AC069E773E081E098E1DF91CF91AE
:1023B0001F910F910C9458B9DF91CF911F910F91FC
:1023C00008954F925F926F927F92AF92BF92CF9299
:1023D000EF92FF920F931F93CF93DF93EC015B017A
:1023E00029013A0125E045E065E084E093E10E949F
:1023F00026A885010C5E1F4F80910C029E01280FBC
:10240000311DA501BE0184E093E10E9460A92FEF78
:102410004FEF6FEF84E093E10E9426A825E045E0AE
:1024200065E084E093E10E943AA880E2C82EE12CA6
:10243000F12C85019E01B301A20184E093E10E9489
:10244000D1AEDF91CF911F910F91FF90EF90CF9080
:10245000BF90AF907F906F905F904F9008954F9294
:102460005F926F927F928F92AF92BF92CF92EF92D4
:10247000FF920F931F93CF93DF93EC017B01290110
:102480003A0125E045E065E084E093E10E9426A85A
:1024900087010C5E1F4F80910C029E01280F311D99
:1024A000A701BE0184E093E10E9460A92FEF4FEFE6
:1024B0006FEF84E093E10E9426A825E045E065E007
:1024C00084E093E10E943AA890E2892EA12CB12CDD
:1024D0002EE2C22E8E0122E0B301A20184E093E13C
:1024E0000E94CAAFDF91CF911F910F91FF90EF90A3
:1024F000CF90BF90AF908F907F906F905F904F90F4
:102500000895AF92BF92CF92DF92EF92FF920F9316
:102510001F93CF93DF93CDB7DEB72C970FB6F89408
:10252000DEBF0FBECDBF61E084E093E10E94168D57
:1025300084E093E10E9486A784E093E10E946BB05F
:1025400020910D0234E0239F80199109112463E04A
:1025500070E00E94ABC160930C0284E093E10E94A2
:1025600076B060910C0240910D02942F960F990F56
:10257000891B80930B0250E05093AA114093A9113C
:102580005093AC114093AB1170E09A01260F371FA6
:102590003093AE112093AD113093B0112093AF1151
:1025A0008901040F151F1093B2110093B1115093BC
:1025B000B4114093B311D801A60FB71FB093B61151
:1025C000A093B5113093B8112093B7115D01A40EFB
:1025D000B51EB092BA11A092B9115093BC1140939C
:1025E000BB116501C60ED71ED092BE11C092BD119F
:1025F000EFEBEE2EE1E1FE2EF701318320835093C5
:10260000C2114093C11190E0A901480F591F509386
:10261000C4114093C3113093C6112093C511260FE6
:10262000371F280F391F3093C8112093C7111093FB
:10263000CA110093C9115093CC114093CB11B093A0
:10264000CE11A093CD113093D0112093CF11B09221
:10265000D211A092D1115093D4114093D311D092A2
:10266000D611C092D5113093D8112093D71125E0FF
:1026700045E065E084E093E10E943AA82091A6112C
:102680004091A7116091A81184E093E10E9426A8CF
:10269000F701408151818A01085C1F4F20E431E03D
:1026A00060E070E084E093E10E9460A92091A611AF
:1026B0004091A7116091A81184E093E10E943AA88B
:1026C0002FEF4FEF6FEF84E093E10E9426A861E0C7
:1026D00089EC92E10E94CFB062E089EC92E10E9425
:1026E00099B463E477E084E093E10E9450B0F7018D
:1026F00020813181265F3F4F00E010E041E150E052
:102700006AE873E084E093E10E94E2AD67E273E17E
:1027100084E093E10E9450B0F70120813181205E76
:102720003F4F44E150E066E973E084E093E10E94AA
:10273000E2AD25E045E065E084E093E10E943AA83F
:10274000F701E080F180EE0CFF1C80910D02E80E95
:10275000F11C6BEA73E0CE0107960E945DBC64E059
:1027600075E1CE0107960E9423BDBC01CE01019602
:102770000E94BCBC970144E150E0BE016F5F7F4FF7
:1027800084E093E10E948BAECE0101960E94F5BBDE
:10279000CE0107960E94F5BB2C960FB6F894DEBFCB
:1027A0000FBECDBFDF91CF911F910F91FF90EF90A2
:1027B000DF90CF90BF90AF9008950F931F939091AB
:1027C00098122091BF113091C01180910D02220FFB
:1027D000331F281B310900E010E044E150E0992349
:1027E00009F453C06FEC73E084E093E10E94E2AD22
:1027F00064EF71E080E090E00E9425B5809197122F
:102800008823D1F125E045E065E084E093E10E9472
:1028100026A84091BF115091C011440F551F8091BF
:102820000D02481B51098A010F5E1F4F20E431E061
:1028300060E070E084E093E10E9460A964EF71E0E1
:1028400080E090E00E9425B52FEF4FEF6FEF84E01E
:1028500093E10E9426A82091BF113091C011220F50
:10286000331F80910D02281B310900E010E044E184
:1028700050E06DEA73E00BC000E010E021E130E0D1
:102880004AE050E06AEB73E002C06CEC73E084E075
:1028900093E10E94E2AD1F910F9108950F931F9352
:1028A000182F2091A6114091A7116091A81184E0E2
:1028B00093E10E9426A8E12FF0E0DF01AA0FBB1FE1
:1028C000AA0FBB1FA355BE4E12960D911C911397D4
:1028D0002D913C91EE0FFF1FEE0FFF1FE755FE4EAF
:1028E000428153816081718184E093E10E9460A9FB
:1028F0002091A6114091A7116091A81184E093E165
:102900000E943AA82FEF4FEF6FEF84E093E11F9101
:102910000F910C9426A8CF92DF92EF92FF920F9323
:102920001F93CF93DF931F921F92CDB7DEB7182F5F
:10293000062F6FED73E081E098E12A8349830E94BE
:1029400058B98FEF810F2A814981863008F052C033
:10295000602F84E093E10E9426A8110F1250412FAE
:1029600050E07A01EE0CFF1CEE0CFF1CC7018355F2
:102970009E4E7C01FC0102811381015011092081CE
:1029800031816A01CC0CDD1CCC0CDD1CC6018755E5
:102990009E4E6C01FC01428153816081718184E013
:1029A00093E10E941CA9F7010281138102501109D1
:1029B0002081318121503109F601428153814F5FDD
:1029C0005F4F608171816F5F7F4F84E093E10E9470
:1029D0001CA92091A6114091A7116091A81184E033
:1029E00093E10E943AA825E045E065E084E093E1A8
:1029F0000E9426A86AEE73E081E098E10F900F90A4
:102A0000DF91CF911F910F91FF90EF90DF90CF90CA
:102A10000C9458B90F931F9390E0FC013197ED325D
:102A2000F10508F05FC7EE58FF4F0C94FCC180E041
:102A300035DF80910C02869590E02091AB113091AA
:102A4000AC11280F391F2C5031094091A911509118
:102A5000AA11480F591F4A50510900E010E060E5E3
:102A600074E084E093E10E94E2AD80910C028695CF
:102A700090E02091AB113091AC11280F391F40919B
:102A8000A9115091AA11480F591F4E50510964EFD6
:102A900073E024C780E002DF80910C02869590E00D
:102AA0002091AB113091AC11280F391F2C503109F6
:102AB0004091A9115091AA11480F591F465151092F
:102AC00000E010E069EF73E084E093E10E94E2AD82
:102AD00080910C02869590E02091AB113091AC1161
:102AE000280F391F4091A9115091AA11480F591F61
:102AF0004650510960E074E0F1C680E0CFDE80917D
:102B00000C02869590E02091AB113091AC11280F0A
:102B1000391F2C5031094091A9115091AA11480F29
:102B2000591F4651510900E010E069EF73E084E05D
:102B300093E10E94E2AD80910C02869590E0209195
:102B4000AB113091AC11280F391F4091A911509150
:102B5000AA11480F591F4A50510963E074E0BEC6DC
:102B600080E09CDE80910C02869590E02091AB1174
:102B70003091AC11280F391F2C5031094091A91107
:102B80005091AA11480F591F4651510900E010E019
:102B900067E074E084E093E10E94E2AD80910C0272
:102BA000869590E02091AB113091AC11280F391F20
:102BB0004091A9115091AA11480F591F4051510934
:102BC0006EE074E08BC680E069DE80910C02869531
:102BD00090E02091AB113091AC11280F391F2C508F
:102BE00031094091A9115091AA11480F591F46511E
:102BF000510900E010E064E174E084E093E10E9498
:102C0000E2AD80910C02869590E02091AB1130915D
:102C1000AC11280F391F4091A9115091AA11480FEA
:102C2000591F485151096BE174E058C682E036DE05
:102C300080910C02869590E02091B3113091B411EF
:102C4000280F391F225131094091B1115091B21111
:102C5000480F591F4E50510900E010E063E274E044
:102C600084E093E10E94E2AD80910C02869590E0B1
:102C70002091B3113091B411280F391F265031091A
:102C80004091B1115091B211480F591F4E50510946
:102C900068E274E084E093E10E94E2AD80910C026E
:102CA000869590E02091B3113091B411280F391F0F
:102CB0002A5F3F4F4091B1115091B211480F591FF7
:102CC000465051096DE274E009C684E0E7DD809169
:102CD0000C02869590E02091BB113091BC11280F19
:102CE000391F265031094091B9115091BA11480F3E
:102CF000591F4E50510900E010E060E374E0EEC54A
:102D000084E0CCDD80910C02869590E02091BB118F
:102D10003091BC11280F391F2C5031094091B91145
:102D20005091BA11480F591F4251510900E010E06B
:102D300065E374E084E093E10E94E2AD80910C02CF
:102D4000869590E02091BB113091BC11280F391F5E
:102D50004091B9115091BA11480F591F4251510970
:102D60006BE374E0BBC586E099DD80910C0286952B
:102D700090E02091C3113091C411280F391F2650C3
:102D800031094091C1115091C211480F591F425150
:102D9000510900E010E061E474E0A0C586E07EDD4A
:102DA00080910C02869590E02091C3113091C4115E
:102DB000280F391F265031094091C1115091C2117D
:102DC000480F591F4651510900E010E067E474E0D4
:102DD00085C584E063DD80910C02869590E02091AA
:102DE000BB113091BC11280F391F26503109409179
:102DF000B9115091BA11480F591F4251510900E0C1
:102E000010E06EE474E06AC588E048DD80910C0251
:102E1000869590E02091CB113091CC11280F391F6D
:102E20002C5031094091C9115091CA11480F591FB6
:102E30004A50510900E010E064E574E084E093E159
:102E40000E94E2AD80910C02869590E02091CB111A
:102E50003091CC11280F391F4091C9115091CA11DE
:102E6000480F591F465051096AEB74E037C588E096
:102E700015DD80910C02869590E02091CB11309168
:102E8000CC11280F391F2C5031094091C911509194
:102E9000CA11480F591F4A50510900E010E064E57B
:102EA00074E084E093E10E94E2AD80910C0286958B
:102EB00090E02091CB113091CC11280F391F409117
:102EC000C9115091CA11480F591F4E50510961EB59
:102ED00074E004C582E0E2DC80910C02869590E00B
:102EE0002091B3113091B411280F391F2C503109A2
:102EF0004091B1115091B211480F591F4C505109D6
:102F000000E010E068E574E084E093E10E94E2AD47
:102F100080910C02869590E02091B3113091B4110C
:102F2000280F391F4091B1115091B2112CC088E087
:102F3000B5DC80910C02869590E02091CB11309108
:102F4000CC11280F391F2C5031094091C9115091D3
:102F5000CA11480F591F4C50510900E010E062E6B9
:102F600074E084E093E10E94E2AD80910C028695CA
:102F700090E02091CB113091CC11280F391F409156
:102F8000C9115091CA11480F591F4C50510982C0A4
:102F900086E084DC80910C02869590E02091C3113C
:102FA0003091C411280F391F265031094091C111A9
:102FB0005091C211480F591F4E50510900E010E0C6
:102FC00067E674E08BC48AE069DC80910C02869528
:102FD00090E02091D3113091D411280F391F225144
:102FE00031094091D1115091D211480F591F4E50C3
:102FF000510900E010E063E274E01AC08AE04EDCA0
:1030000080910C02869590E02091D3113091D411DB
:10301000280F391F225131094091D1115091D211FD
:10302000480F591F4E50510900E010E061E774E06D
:1030300084E093E10E94E2AD80910C02869590E0DD
:103040002091D3113091D411280F391F2650310906
:103050004091D1115091D211480F591F4E50510932
:103060006CE674E084E093E10E94E2AD80910C0292
:10307000869590E02091D3113091D411280F391FFB
:103080002A5F3F4F4091D1115091D211480F591FE3
:103090004E5051096DE574E021C48AE0FFDB809158
:1030A0000C02869590E02091D3113091D411280F15
:1030B000391F2C5031094091D1115091D211480F34
:1030C000591F4E50510900E010E060E374E084E0C5
:1030D00093E10E94E2AD80910C02869590E02091F0
:1030E000D3113091D411280F391F4091D111509133
:1030F000D211480F591F4A50510966E774E0EEC3D8
:1031000082E0CCDB80910C02869590E02091B31197
:103110003091B411280F391F2C5031094091B11151
:103120005091B211480F591F4A50510900E010E068
:103130006AE774E084E093E10E94E2AD80910C02C2
:10314000869590E02091B3113091B411280F391F6A
:103150004091B1115091B211D5C188E09FDB8091AF
:103160000C02869590E02091CB113091CC11280F64
:10317000391F2C5031094091C9115091CA11480F83
:10318000591F4A50510900E010E064E874E0A8C1FA
:1031900084E084DB80910C02869590E02091BB1145
:1031A0003091BC11280F391F2C5031094091B911B1
:1031B0005091BA11480F591F4A50510900E010E0D0
:1031C0006AE774E084E093E10E94E2AD80910C0232
:1031D000869590E02091BB113091BC11280F391FCA
:1031E0004091B9115091BA112CC08AE057DB8091FF
:1031F0000C02869590E02091D3113091D411280FC4
:10320000391F2C5031094091D1115091D211480FE2
:10321000591F4A50510900E010E064E874E084E06E
:1032200093E10E94E2AD80910C02869590E020919E
:10323000D3113091D411280F391F4091D1115091E1
:10324000D211480F591F4251510968E874E046C332
:1032500082E024DB80910C02869590E02091B311EE
:103260003091B411280F391F2C5031094091B11100
:103270005091B211480F591F4A50510900E010E017
:103280006AE774E084E093E10E94E2AD80910C0271
:10329000869590E02091B3113091B411280F391F19
:1032A0004091B1115091B2112CC088E0F7DA8091B1
:1032B0000C02869590E02091CB113091CC11280F13
:1032C000391F2C5031094091C9115091CA11480F32
:1032D000591F4A50510900E010E064E874E084E0AE
:1032E00093E10E94E2AD80910C02869590E02091DE
:1032F000CB113091CC11280F391F4091C911509139
:10330000CA11480F591F405151096EE874E0E6C2D6
:1033100084E0C4DA80910C02869590E02091BB1184
:103320003091BC11280F391F225131094091B91138
:103330005091BA11480F591F4A50510900E010E04E
:103340006AE774E07EC08AE0A9DA80910C02869573
:1033500090E02091D3113091D411280F391F2251C0
:1033600031094091D1115091D211480F591F4A5043
:10337000510900E010E064E874E084E093E10E9409
:10338000E2AD80910C02869590E02091D3113091AE
:10339000D411280F391F265031094091D111509175
:1033A000D211480F591F4A50510964E574E084E076
:1033B00093E10E94E2AD80910C02869590E020910D
:1033C000D3113091D411280F391F2A5F3F4F4091FC
:1033D000D1115091D21163C086E060DA80910C0265
:1033E000869590E02091C3113091C411280F391FA8
:1033F000265031094091C1115091C211480F591FF7
:103400004251510900E010E068E974E067C284E0CD
:1034100045DA80910C02869590E02091BB113091A5
:10342000BC11280F391F225131094091B911509117
:10343000BA11480F591F4A50510900E010E06DE9D8
:1034400074E084E093E10E94E2AD80910C028695E5
:1034500090E02091BB113091BC11280F391F2650EC
:1034600031094091B9115091BA11480F591F4A5072
:10347000510964E574E084E093E10E94E2AD80913B
:103480000C02869590E02091BB113091BC11280F61
:10349000391F2A5F3F4F4091B9115091BA11480F1F
:1034A000591F4E50510963E974E018C288E0F6D9FB
:1034B00080910C02869590E02091CB113091CC1137
:1034C000280F391F2C5031094091C9115091CA1150
:1034D000480F591F4A50510900E010E06DE974E0AF
:1034E00084E093E10E94E2AD80910C02869590E029
:1034F0002091CB113091CC11280F391F4091C91167
:103500005091CA11480F591F425151096EE774E09A
:10351000E5C182E0C3D980910C02869590E02091AC
:10352000B3113091B411280F391F2C50310940913B
:10353000B1115091B211480F591F4A50510900E082
:1035400010E06DE974E084E093E10E94E2AD8091C7
:103550000C02869590E02091B3113091B411280FA0
:10356000391F4091B1115091B211480F591F4A5063
:10357000510961EA74E0B2C182E090D980910C02F5
:10358000869590E02091B3113091B411280F391F26
:103590002C5031094091B1115091B211480F591F6F
:1035A0004A50510900E010E06AE774E084E093E1DA
:1035B0000E94E2AD80910C02869590E02091B311BB
:1035C0003091B411280F391F4091B1115091B211AF
:1035D0002CC088E063D980910C02869590E0209100
:1035E000CB113091CC11280F391F2C50310940914B
:1035F000C9115091CA11480F591F4A50510900E092
:1036000010E064E874E084E093E10E94E2AD809110
:103610000C02869590E02091CB113091CC11280FAF
:10362000391F4091C9115091CA11480F591F4A5072
:10363000510965EA74E052C184E030D980910C02EE
:10364000869590E02091BB113091BC11280F391F55
:103650002C5031094091B9115091BA11480F591F9E
:103660004A50510900E010E06AE774E084E093E119
:103670000E94E2AD80910C02869590E02091BB11F2
:103680003091BC11280F391F4091B9115091BA11D6
:103690002CC08AE003D980910C02869590E020919D
:1036A000D3113091D411280F391F2C50310940917A
:1036B000D1115091D211480F591F4A50510900E0C1
:1036C00010E064E874E084E093E10E94E2AD809150
:1036D0000C02869590E02091D3113091D411280FDF
:1036E000391F4091D1115091D211480F591F4A50A2
:1036F000510969EA74E0F2C082E0D0D880910C02EE
:10370000869590E02091B3113091B411280F391FA4
:103710002C5031094091B1115091B211480F591FED
:103720004A50510900E010E06AE774E084E093E158
:103730000E94E2AD80910C02869590E02091B31139
:103740003091B411280F391F4091B1115091B2112D
:103750002CC088E0A3D880910C02869590E020913F
:10376000CB113091CC11280F391F2C5031094091C9
:10377000C9115091CA11480F591F4A50510900E010
:1037800010E064E874E084E093E10E94E2AD80918F
:103790000C02869590E02091CB113091CC11280F2E
:1037A000391F4091C9115091CA11480F591F4A51F0
:1037B00051096DEA74E092C084E070D880910C02E7
:1037C000869590E02091BB113091BC11280F391FD4
:1037D0002C5031094091B9115091BA11480F591F1D
:1037E0004A50510900E010E06AE774E084E093E198
:1037F0000E94E2AD80910C02869590E02091BB1171
:103800003091BC11280F391F4091B9115091BA1154
:103810002CC08AE043D880910C02869590E02091DC
:10382000D3113091D411280F391F2C5031094091F8
:10383000D1115091D211480F591F4A50510900E03F
:1038400010E064E874E084E093E10E94E2AD8091CE
:103850000C02869590E02091D3113091D411280F5D
:10386000391F4091D1115091D211480F591F465123
:10387000510966EB74E032C080E010D880910C02F0
:10388000869590E02091AB113091AC11280F391F33
:103890002C5031094091A9115091AA11480F591F7C
:1038A0004851510900E010E06DEB74E084E093E1D1
:1038B0000E94E2AD80910C02869590E02091AB11C0
:1038C0003091AC11280F391F4091A9115091AA11C4
:1038D000480F591F4651510965EC74E084E093E1AB
:1038E0000E94E2AD1F910F910895CF93DF93EB01FA
:1038F0002A813B81FC01338322834C815D816E816F
:103900007F814483558366837783488559856A859B
:103910007B8540875187628773872DE0FE013C9647
:10392000DC011C9601900D922A95E1F7298D3A8DC4
:10393000FC01328F218FDF91CF910895EF92FF929A
:103940000F931F93CF93DF93CDB7DEB7E7970FB6F3
:10395000F894DEBF0FBECDBF7C018B0141E069E969
:1039600072E1CE014C960E94286BCE014C960E94CB
:103970006C68882399F1CE014C960E94F167BC01D6
:10398000C8010E9499BD882359F162E275E081E087
:1039900098E10E9458B9CE014C960E945A6841E0C5
:1039A00069E972E1CE0101960E94286BBE016F5F4A
:1039B0007F4FCE014C9699DFCE014C960E946C68E9
:1039C000882341F0CE014C960E94F167BC01C801EA
:1039D0000E94CFBCCE014C960E945A6821E001C0E3
:1039E00020E0CE014C962FAB0E945A682FA92223CB
:1039F00009F4B4CFB801C7010E94D0BBC701E79654
:103A00000FB6F894DEBF0FBECDBFDF91CF911F91EF
:103A10000F91FF90EF900895EF92FF920F931F93F5
:103A2000CF93DF93CDB7DEB7EC970FB6F894DEBF38
:103A30000FBECDBF7C018B016BEE77E0CE01C79648
:103A40000E945DBC41E069E972E1CE014C960E94A2
:103A5000286BCE014C960E946C68882389F0CE01B9
:103A60004C960E94F167BC01C8010E9499BD882351
:103A700039F06EE275E081E098E10E9458B948C0E3
:103A8000CE014C960E94F167BC01CE01C7960E9400
:103A9000CFBC63E375E081E098E10E942DB9BE01DF
:103AA000695C7F4F81E098E10E9448B9CE014C9655
:103AB0000E945A6841E069E972E1CE0101960E94D4
:103AC000286BBE016F5F7F4FCE014C960EDFCE019B
:103AD0004C960E946C688823D9F0CE014C960E94C7
:103AE000F167BC01C8010E9499BD882339F0BE016D
:103AF000695C7F4FC8010E94A7BC0AC0CE014C96EA
:103B00000E94F167BC01CE01C7960E94CFBCCECF08
:103B1000CE014C960E945A68B801C7010E94D0BBE2
:103B2000CE01C7960E94F5BBC701EC960FB6F8947C
:103B3000DEBF0FBECDBFDF91CF911F910F91FF90E0
:103B4000EF900895CF92DF92EF92FF920F931F9321
:103B5000CF93DF93CDB7DEB7A1970FB6F894DEBF52
:103B60000FBECDBF7C018B016A016FE375E081E080
:103B700098E10E942DB9B80181E098E10E9448B90E
:103B80006AE575E081E098E10E9458B989E992E11F
:103B90000E948D6B6BEE77E0C8010E9499BD88236F
:103BA000D1F041E069E972E1CE0101960E94286BF3
:103BB000CE0101960E946C68882341F0CE010196E7
:103BC0000E94F167BC01C8010E94CFBCCE010196E2
:103BD0000E945A682AC01C141D0464F4B801CE0166
:103BE0004C960E94BCBCBE01645E7F4FCE01019624
:103BF000A5DE0DC0CD28C9F0B801CE014C960E94BB
:103C0000BCBCBE01645E7F4FCE01019605DFBE01E4
:103C10006F5F7F4FC8010E94C4BCCE0101960E9415
:103C2000F5BBCE014C960E94F5BB6CE675E081E0D9
:103C300098E10E942DB9B80181E098E10E9448B94D
:103C4000B801C7010E94D0BBC701A1960FB6F89476
:103C5000DEBF0FBECDBFDF91CF911F910F91FF90BF
:103C6000EF90DF90CF900895CF92DF92EF92FF9286
:103C70000F931F93CF93DF93CDB7DEB762970FB645
:103C8000F894DEBF0FBECDBF25E045E065E084E0DF
:103C900093E10E9426A84091AF115091B0118A0182
:103CA000085E1F4F465F5F4F6091A9117091AA1186
:103CB00020E431E084E093E10E9460A92FEF4FEF10
:103CC0006FEF84E093E10E9426A825E045E065E0DF
:103CD00084E093E10E943AA863E875E0CE010D9676
:103CE0000E945DBC6BEE77E084EB92E10E9499BD8F
:103CF000811108C061E975E084EB92E10E9499BDF1
:103D0000882309F180919712882319F16BEE77E0EF
:103D1000CE0107960E945DBC41E050E0BE01695FA4
:103D20007F4FCE0101960EDFBE016F5F7F4F84EBA8
:103D300092E10E94C4BCCE0101960E94F5BBCE0167
:103D400007960E94F5BB64EB72E1CE010D960E94CE
:103D5000A7BCE090AF11F090B0118AE0E80EF11C22
:103D6000C090A911D090AA11BE01635F7F4FCE0110
:103D700001960E94BCBC00E010E09701A601BE01C4
:103D80006F5F7F4F84E093E10E948BAECE0101967E
:103D90000E94F5BBCE010D960E94F5BB62960FB650
:103DA000F894DEBF0FBECDBFDF91CF911F910F9171
:103DB000FF90EF90DF90CF9008952091A611409151
:103DC000A7116091A81184E093E10E943AA825E030
:103DD00045E065E084E093E10E9426A880910A0214
:103DE000813059F580916312882311F081E201C07E
:103DF00080E20E940A1580919712882319F082E0D0
:103E00000E940A1580916112882319F084E20E94B1
:103E10000A158091FA14882311F088E001C087E028
:103E20000E940A1580916102882311F084E001C08C
:103E300085E00E940A1583E20FC080910A02823059
:103E400079F48DE10E940A158EE10E940A15809195
:103E50006102882319F084E00C940A1585E0FCCFF8
:103E600080910A028330B1F486E20E940A158BE049
:103E70000E940A158CE00E940A1580916A1288231C
:103E800011F082E201C080E10E940A158FE00E94D9
:103E90000A15EACE80910A02863071F589E00E9407
:103EA0000A158AE00E940A1582E10E940A1583E140
:103EB0000E940A1584E10E940A1560916C027091BB
:103EC0006D0280916E0290916F020E9462BF9B0111
:103ED000AC0160E770E08091C9119091CA110E9415
:103EE000E111609168027091690280916A0290917B
:103EF0006B020E9462BF58C080910A02843079F53B
:103F000089E10E940A158AE10E940A158BE10E944C
:103F10000A158CE10E940A1584E10E940A1520917D
:103F2000100230911102409112025091130260E789
:103F300070E08091C9119091CA110E942F122091B6
:103F4000630230916402409165025091660260E71D
:103F500070E08091D1119091D2110C942F12809128
:103F60000A02853021F585E10E940A1586E10E944A
:103F70000A1587E10E940A1588E10E940A1584E16A
:103F80000E940A158DE192E10E948D7D9B01AC019A
:103F900060E770E08091C9119091CA110E94E1110F
:103FA00089ED91E10E948D7D9B01AC014CC0809117
:103FB0000A02873089F48FE10E940A1584E10E9489
:103FC0000A158DE10E940A158EE10E940A1585E20C
:103FD0000E940A1587E240CF80910A02883029F4B6
:103FE0008CE20E940A1584E137CF80910A02893061
:103FF00091F588E20E940A1589E20E940A158AE278
:104000000E940A158BE20E940A158DE20E940A1591
:1040100084E10E940A152091840230918502442790
:1040200037FD4095542F60E770E08091C911909161
:10403000CA110E94E1112091860230918702442723
:1040400037FD4095542F60E770E08091D111909139
:10405000D2110C94E11108952091A6114091A7115D
:104060006091A81184E093E10E9426A884E093E186
:104070000E9486A781E080930A029FCE2091A6111C
:104080004091A7116091A81184E093E10E9426A8B5
:1040900084E093E10E9486A783E080930A028DCE9C
:1040A0008F929F92AF92BF92CF92DF92EF92FF9248
:1040B0000F931F93CF93DF93CDB7DEB72C970FB637
:1040C000F894DEBF0FBECDBF6C015B0180910A0288
:1040D000813009F055C025E045E065E084E093E1DA
:1040E0000E9426A84091AF115091B0118A01085E3C
:1040F0001F4F465F5F4F6091A9117091AA1120E494
:1041000031E084E093E10E9460A92FEF4FEF6FEF61
:1041100084E093E10E9426A825E045E065E084E084
:1041200093E10E943AA8E090AF11F090B0118AE0BC
:10413000E80EF11C8090A9119090AA11B501CE0152
:1041400001960E94BCBCB601CE0101960E9423BD1F
:10415000BC01CE0107960E94BCBC00E010E09701B4
:10416000A401BE01695F7F4F84E093E10E948BAEA2
:10417000CE0107960E94F5BBCE0101960E94F5BBC9
:104180002C960FB6F894DEBF0FBECDBFDF91CF9156
:104190001F910F91FF90EF90DF90CF90BF90AF9065
:1041A0009F908F90089590910A02913071F583301D
:1041B000C9F028F4813051F0823079F0CAC08530DE
:1041C000E9F0A8F0863009F4C5C0C3C0809163123D
:1041D000882309F4C1C081E208958091971281116A
:1041E000BDC0B7C0809161128111BAC0B2C08091C8
:1041F0006102882309F4B6C084E008958091FA141E
:10420000882309F4B1C088E0089590910A0296309D
:10421000A9F4843009F4B8C038F4823069F08330EE
:1042200009F097C083E10895853009F49FC0863076
:1042300009F08FC082E108958AE0089590910A0202
:104240009430A9F4843009F49FC038F4823069F0C6
:10425000833009F07EC08AE10895853009F488C072
:10426000863009F076C089E108958CE10895909137
:104270000A029530A9F4843009F486C038F48230FB
:1042800069F0833009F065C088E10895853009F44C
:1042900071C0863009F05DC087E1089586E1089518
:1042A00090910A029930C1F4833091F030F481305A
:1042B00069F0823009F460C04CC0853059F008F4D0
:1042C00063C0863009F045C088E208958DE2089504
:1042D00089E208958AE2089590910A029330A9F440
:1042E000843009F44BC020F4823099F58CE00895B5
:1042F000853019F0863019F02CC08BE0089580913C
:104300006A128823E9F182E2089590910A029730B7
:10431000A9F4833079F028F4813051F0823091F1A2
:1043200018C0853049F080F1863099F487E208950D
:1043300085E208958EE108958DE1089590910A0235
:10434000983039F4813019F08430F1F002C08CE2F9
:104350000895089583E2089580E2089582E0089523
:1043600084E2089585E0089587E0089589E008953E
:104370008BE1089585E108958BE208958FE008951B
:1043800080E108958FE1089584E108950F931F93CC
:10439000CF93DF938C01EB016EE975E081E098E14A
:1043A0000E942DB94AE050E0B80181E098E10E94F6
:1043B00007BA67E176E081E098E10E942DB94AE012
:1043C00050E0BE0181E098E10E940EBA8091A911EF
:1043D0009091AA1108171907B4F08091AD1190912E
:1043E000AE11801791077CF08091AB119091AC11C8
:1043F000C817D90744F08091AF119091B0118C1774
:104400009D070CF090C08091B1119091B2110817E6
:104410001907B4F08091B5119091B61180179107EA
:104420007CF08091B3119091B411C817D90744F072
:104430008091AF119091B0118C179D070CF075C051
:104440008091B9119091BA1108171907B4F08091B1
:10445000BD119091BE11801791077CF08091BB1126
:104460009091BC11C817D90744F08091BF11909169
:10447000C0118C179D070CF05AC08091C11190910A
:10448000C21108171907B4F08091C5119091C61197
:10449000801791077CF08091C3119091C411C817C7
:1044A000D90744F08091C7119091C8118C179D07CE
:1044B0000CF03FC08091C9119091CA1108171907DB
:1044C000ACF08091CD119091CE118017910774F0CE
:1044D0008091CB119091CC11C817D9073CF08091F5
:1044E000CF119091D0118C179D072CF58091D1118F
:1044F0009091D21108171907ACF08091D5119091C5
:10450000D6118017910774F08091D3119091D41136
:10451000C817D9073CF08091D7119091D8118C170A
:104520009D075CF40BC081E009C082E007C083E016
:1045300005C084E003C085E001C086E0DF91CF9133
:104540001F910F910895CF92DF92EF92FF920F93F8
:104550001F93CF93DF93EC018B016A0169E070E058
:104560008BEF94E10E94D983EE24D7FCE094FE2CDB
:10457000C017D107CCF4BE018BEF94E10E941F84D9
:10458000C701B6010E9425B521960C171D079CF79F
:104590008BEF94E1DF91CF911F910F91FF90EF90FE
:1045A000DF90CF900C94DE83BE018BEF94E10E94EC
:1045B0001F84C701B6010E9425B52197C017D107F6
:1045C0009CF7E6CFCF93DF9390918D148091FA14EE
:1045D0009230C0F0882329F0C0918602D0918702E2
:1045E00004C0C0918402D091850288EB94E10E94BE
:1045F000B5C4909387028093860243E050E0BC01EB
:10460000CE010CC081110BC06091860270918702AF
:1046100043E050E0809184029091850294DF81E034
:104620008093FA14DF91CF910895CF93DF93909107
:104630008D148091FA149230C0F0882329F0C09133
:104640008602D091870204C0C0918402D091850275
:1046500088EB94E10E94B5C4909385028093840214
:1046600043E050E0BC01CE010CC0882359F06091BA
:1046700084027091850243E050E08091860290911F
:10468000870261DF1092FA14DF91CF9108954F9263
:104690005F926F927F92AF92BF92CF92DF92EF9232
:1046A000FF920F931F93CF93DF93CDB7DEB7289779
:1046B0000FB6F894DEBF0FBECDBF6D837E838F83B0
:1046C000988729013A01E982FA820B831C8361E20F
:1046D00074E081E098E10E94FCB82AE030E04D816E
:1046E0005E816F81788581E098E10E94C0B965E1C3
:1046F00074E081E098E10E94FCB82AE030E0B30168
:10470000A20181E098E10E94C0B969E074E081E013
:1047100098E10E94FCB82AE030E049815A816B811F
:104720007C8181E098E10E94C0B96DEF73E081E087
:1047300098E10E94FCB82AE030E0B601A50181E0D2
:1047400098E10E94C0B96BEF73E081E098E10E94AC
:1047500038B92D813E814F81588589819A81AB81FD
:10476000BC81281739074A075B0744F448165906E5
:104770006A067B06C4F46DEE73E053C02D813E8162
:104780004F81588589819A81AB81BC8182179307BB
:10479000A407B507C4F4A414B504C604D7045CF494
:1047A0006FED73E058C0A414B504C604D70494F5A3
:1047B00061ED73E029C04A145B046C047D04BCF510
:1047C00063EC73E014C02D813E814F81588589814F
:1047D0009A81AB81BC81281739074A075B0739F5F5
:1047E0004A145B046C047D0444F46BEB73E081E0D9
:1047F00098E10E9438B981E03AC0A414B504C60417
:10480000D70474F563EB73E081E098E10E9438B956
:1048100083E02DC04A145B046C047D0409F56BEA47
:1048200073E081E098E10E9438B984E020C02D81D6
:104830003E814F81588589819A81AB81BC818217E5
:104840009307A407B50764F44A145B046C047D0461
:1048500039F463EA73E081E098E10E9438B906C058
:1048600061EA75E081E098E10E9458B982E02896FB
:104870000FB6F894DEBF0FBECDBFDF91CF911F9171
:104880000F91FF90EF90DF90CF90BF90AF907F900F
:104890006F905F904F9008958F929F92AF92BF92CA
:1048A000CF92DF92EF92FF92CF93DF936B017C0167
:1048B0002091DC143091DD144091DE145091DF140E
:1048C0000E9482C04B015C0120E030E040E050E4F7
:1048D0000E947EC087FD06C0C501B4010E9462BF70
:1048E000EB0102C0C1E0D0E065E873E081E098E14F
:1048F0000E94FCB822E030E0B701A60181E098E117
:104900000E943CBB62E873E081E098E10E94FCB841
:104910004AE050E0BE0181E098E10E9407BA6AE7F0
:1049200073E081E098E10E94FCB881E098E10E9488
:1049300035B9CE01DF91CF91FF90EF90DF90CF900E
:10494000BF90AF909F908F900895CF93DF93609129
:1049500063027091640280916502909166029CDF0F
:10496000EC0167E472E081E098E10E942DB96DEB03
:1049700075E081E098E10E942DB9CC0FDD1F4AE07F
:1049800050E0BE0181E098E10E9407BA60E27EE05B
:1049900081E098E10E942DB960917C0270917D02C6
:1049A000CE010E94ABC14AE050E081E098E10E9454
:1049B00007BA63ED75E081E098E1DF91CF910C9447
:1049C00058B988EB94E10E94B2C46093630270937B
:1049D0006402809365029093660267E472E081E06E
:1049E00098E10E942DB966E475E081E098E10E94AB
:1049F000FCB840916302509164026091650270912D
:104A0000660222E030E081E098E10E943CBB63E472
:104A100075E081E098E10E94FCB881E098E10E9495
:104A200035B993CF8F929F92AF92BF92CF92DF9280
:104A3000EF92FF920F931F93CF93DF936B017C0153
:104A4000EA01BA01882777FD8095982F0E9495BFCB
:104A50002091E0143091E1144091E2145091E3145C
:104A60000E9482C04B015C0160E472E081E098E149
:104A70000E942DB966E673E081E098E10E94FCB8DF
:104A800022E030E0B501A40181E098E10E943CBB46
:104A900068E573E081E098E10E94FCB84091E01481
:104AA0005091E1146091E2147091E31422E030E03F
:104AB00081E098E10E943CBB60E473E081E098E112
:104AC0000E94FCB84AE050E0BE0181E098E10E94FB
:104AD0000EBAA7019601C501B4010E94FABE4B01AE
:104AE0005C0120E030E040E050E40E947EC087FDA1
:104AF00009C0C501B4010E9462BF8B01623071051B
:104B0000ECF502C001E010E067E472E081E098E1BA
:104B10000E942DB968E273E081E098E10E94FCB840
:104B200022E030E0B701A60181E098E10E943CBBA1
:104B30006FE173E081E098E10E94FCB84AE050E048
:104B4000BE0181E098E10E9407BA6AE173E081E06A
:104B500098E10E94FCB84AE050E0B80181E098E199
:104B60000E940EBA67E472E081E098E10E942DB9DC
:104B700066EF72E081E098E10E9438B9C801DF91E8
:104B8000CF911F910F91FF90EF90DF90CF90BF904A
:104B9000AF909F908F9008954F925F926F927F9207
:104BA0008F929F92AF92BF92CF92DF92EF92FF923D
:104BB000CF93DF936C017B01EA01BA01882777FD6F
:104BC0008095982F0E9495BF4B015C01B601882704
:104BD00077FD8095982F0E9495BF2B013C01B7016E
:104BE000882777FD8095982F0E9495BF9B01AC0187
:104BF000C301B2010E94FABEA50194010E9482C0C5
:104C00009B01AC01C501B4010E948EBE4B015C0149
:104C10006EEE72E081E098E10E94FCB84AE050E05C
:104C2000B60181E098E10E9407BA65EE72E081E08A
:104C300098E10E94FCB84AE050E0B70181E098E1B9
:104C40000E9407BA6BED72E081E098E10E94FCB827
:104C50004AE050E0BE0181E098E10E9407BA60EDB1
:104C600072E081E098E10E94FCB822E030E0B501FA
:104C7000A40181E098E10E943DBBC501B4010E94FE
:104C800062BFEB01882777FD8095982F0E9495BF22
:104C90009B01AC01C501B4010E948EBE20E030E052
:104CA00040E05FE30E947EC018160CF42196CE010E
:104CB000DF91CF91FF90EF90DF90CF90BF90AF90BA
:104CC0009F908F907F906F905F904F90089580910C
:104CD0005902882319F010925902089581E08093B7
:104CE000590208954F925F926F927F928F929F9296
:104CF000AF92BF92CF92DF92EF92FF92CF93DF936A
:104D0000CDB7DEB728970FB6F894DEBF0FBECDBF84
:104D1000C090DC14D090DD14E090DE14F090DF142D
:104D200088EB94E10E94D2C40E9495BF9B01AC0124
:104D3000C701B6010E9482C00E9462BF2B013C01E4
:104D40006093340270933502809336029093370259
:104D50008AEA94E10E94D2C40E9495BF9B01AC01F3
:104D6000C701B6010E9482C00E9462BF4B015C0174
:104D70006093300270933102809332029093330239
:104D80008CE994E10E94D2C40E9495BF9B01AC01C2
:104D9000C701B6010E9482C00E9462BF69837A8304
:104DA0008B839C8360932C0270932D0280932E0240
:104DB00090932F028EE894E10E94D2C40E9495BF86
:104DC0009B01AC01C701B6010E9482C00E9462BF74
:104DD0006D837E838F839887609328027093290266
:104DE00080932A0290932B02C090D814D090D914AB
:104DF000E090DA14F090DB14C414D504E604F70450
:104E00008CF4C701B60122E030E040E050E00E949F
:104E1000E0C1209334023093350240933602509320
:104E2000370211C0141415041604170464F081E04D
:104E300090E0A0E0B0E08093340290933502A0931C
:104E40003602B09337024090D4145090D51460903D
:104E5000D6147090D714481459046A047B048CF457
:104E6000C301B20122E030E040E050E00E94E0C126
:104E70002093300230933102409332025093330238
:104E800011C0181419041A041B0464F081E090E0A6
:104E9000A0E0B0E08093300290933102A093320200
:104EA000B09333028091340290913502A091360282
:104EB000B091370249815A816B817C81480F591F1B
:104EC0006A1F7B1FC416D506E606F70674F4A70111
:104ED0009601281B390B4A0B5B0B20932C02309355
:104EE0002D0240932E0250932F0280913002909118
:104EF0003102A0913202B0913302CD80DE80EF808A
:104F0000F884C80ED91EEA1EFB1E4C145D046E0404
:104F10007F0464F4481A590A6A0A7B0A40922802FC
:104F20005092290260922A0270922B0281E08093B3
:104F3000BC1265ED75E081E098E10E9458B96EE918
:104F400075E081E098E10E942DB9409134025091C2
:104F5000350260913602709137022AE030E081E03C
:104F600098E10E94C0B96CEE75E081E098E10E9482
:104F70002DB940913002509131026091320270910E
:104F800033022AE030E081E098E10E94C0B960EF8E
:104F900075E081E098E10E942DB940912C0250917A
:104FA0002D0260912E0270912F022AE030E081E004
:104FB00098E10E94C0B968EF75E081E098E10E9435
:104FC0002DB9409128025091290260912A027091D6
:104FD0002B022AE030E081E098E10E9424BA61E0EF
:104FE00076E081E098E10E9458B96EE975E081E0D1
:104FF00098E10E942DB96091340270913502809140
:105000003602909137020E9495BF2091E0143091B2
:10501000E1144091E2145091E3140E9482C0AB016C
:10502000BC0122E030E081E098E10E943CBB65E1F8
:1050300076E081E098E10E942DB960913002709194
:10504000310280913202909133020E9495BF2091EB
:10505000E0143091E1144091E2145091E3140E9465
:1050600082C0AB01BC0122E030E081E098E10E9407
:105070003CBB6CE176E081E098E10E942DB9609143
:105080002C0270912D0280912E0290912F020E948D
:1050900095BF2091E0143091E1144091E2145091B9
:1050A000E3140E9482C0AB01BC0122E030E081E049
:1050B00098E10E943CBB67E276E081E098E10E94C3
:1050C0002DB9609128027091290280912A02909155
:1050D0002B020E9495BF2091E0143091E114409181
:1050E000E2145091E3140E9482C0AB01BC0122E0A3
:1050F00030E081E098E10E943CBB63E376E081E030
:1051000098E128960FB6F894DEBF0FBECDBFDF91B1
:10511000CF91FF90EF90DF90CF90BF90AF909F9096
:105120008F907F906F905F904F900C9458B988EB60
:1051300094E10E94B5C4892B19F41092C31208950A
:105140008091BC12882321F081E08093C3120895DE
:1051500067E376E081E098E10C9458B98F929F92D2
:10516000AF92BF92CF92DF92EF92FF920F931F9375
:10517000CF93DF93CDB7DEB7E6970FB6F894DEBFD7
:105180000FBECDBF7C018B01A6E5CA2EA1E1DA2EB0
:10519000BDE09B2E5B018FEFA81AB80A41E0B70172
:1051A000CE014C960E94286BCE014C960E946C68F2
:1051B000882311F0812C19C066E774E081E098E142
:1051C0000E9458B9E6960FB6F894DEBF0FBECDBF69
:1051D000DF91CF911F910F91FF90EF90DF90CF90D3
:1051E000BF90AF909F908F900895882D90E080178A
:1051F00091073CF469E081E098E10E942EB9839424
:10520000F4CFCE014C960E94F167BC0181E098E199
:105210000E942DB9CE014C960E94F367882371F14C
:1052200067EE77E081E098E10E9458B98E8D9F8DFE
:105230009C838B8388A199A1AAA1BBA18D839E8306
:10524000AF83B8878CA19DA1AEA1BFA189879A87A2
:10525000AB87BC87DA82C982FE01B896DE011D9653
:10526000892D01900D928A95E1F78DA99EA99B8FBA
:105270008A8FB501CE01019671DF12C069EE77E029
:1052800081E098E10E942DB9CE014C960E941D68E4
:10529000AB01BC012AE030E081E098E10E9455BA00
:1052A000CE014C960E945A6879CFCF93DF93CDB749
:1052B000DEB76B970FB6F894DEBF0FBECDBF61E0CF
:1052C00085E30E940CB665E38EE095E10E94796962
:1052D000811107C06CEE77E081E098E10E9458B937
:1052E00009C068E078E081E098E10E9458B981E067
:1052F0008093981280919812882309F455C06FE129
:1053000078E081E098E10E9458B921E047EE57E04B
:105310006EE075E1CE0101960E948D6ABE016F5F5D
:105320007F4F89E992E10E94751C81E0809397127A
:1053300080919B1290919C129C838B8380919D12F3
:1053400090919E12A0919F12B091A0128D839E8386
:10535000AF83B8878091A1129091A212A091A3125D
:10536000B091A41289879A87AB87BC8786E591E1C3
:105370009A8389838DE0E5EAF2E1DE011D960190D2
:105380000D928A95E1F78091B2129091B3129B8FA2
:105390008A8F60E070E0CE010196E0DE61E378E0A4
:1053A00081E098E10E9458B96B960FB6F894DEBF81
:1053B0000FBECDBFDF91CF91089510926A126BEEB0
:1053C00077E084E692E10E94CFBC1092981210928E
:1053D00097126BEE77E084EB92E10E94CFBC65CF31
:1053E000CF92DF92EF92FF920F931F93CF93DF93B1
:1053F000CDB7DEB76B970FB6F894DEBF0FBECDBF4B
:105400006C01EDB6FEB64091B8125091B9124F5FE3
:105410005F4F8DB79EB7841B950B0FB6F8949EBF58
:105420000FBE8DBF0DB71EB70F5F1F4F20E030E0DE
:10543000B80184EB92E10E94FABD23E1A8016EE07D
:1054400075E1CE0101960E948D6ACE0101960E94FF
:105450006C688823E1F067E378E081E098E10E94DE
:105460002DB964EB72E181E098E10E9448B9B60180
:10547000CE0101960E9448B9CE0101960E945A6859
:1054800068E478E081E098E10E9458B90CC06EE4CD
:1054900078E081E098E10E942DB964EB72E181E04F
:1054A00098E10E9448B90FB6F894FEBE0FBEEDBE5B
:1054B0006B960FB6F894DEBF0FBECDBFDF91CF91D4
:1054C0001F910F91FF90EF90DF90CF900895CF92B2
:1054D000DF92EF92FF920F931F93CF93DF93EC0134
:1054E0008B016DE578E081E098E10E942DB94AE0FA
:1054F00050E0BE0181E098E10E9407BA66E678E0DC
:1055000081E098E10E942DB94AE050E0B80181E0C5
:1055100098E10E940EBA6BE678E081E098E10E9483
:105520002DB960916F12709170124AE050E081E0E5
:1055300098E10E940EBA6BE778E081E098E10E9462
:105540002DB9409177125091781260917912709133
:105550007A122AE030E081E098E10E9424BAC090FB
:105560006F12D0907012EE24D7FCE094FE2C2091A4
:105570007712309178124091791250917A12D801B5
:105580000E9427C2C60ED71EE81EF91ECE01AA270A
:1055900097FDA095BA2FC80ED91EEA1EFB1E65E81E
:1055A00078E081E098E10E942DB92AE030E0B7016F
:1055B000A60181E098E10E94C0B980916B129091A0
:1055C0006C12A0916D12B0916E128C159D05AE05F6
:1055D000BF05D4F0B701A6018BE792E10E940068F5
:1055E0008BE792E10E947267C82F6EE878E081E055
:1055F00098E10E942DB94AE050E06C2F81E098E1DB
:105600000E9440BA8C2F01C08FEFDF91CF911F9184
:105610000F91FF90EF90DF90CF9008958F929F921F
:10562000AF92BF92EF92FF920F931F93CF93DF93AE
:10563000CDB7DEB763970FB6F894DEBF0FBECDBF10
:10564000EDB6FEB640E050E0BA018BE792E10E9471
:1056500000686BE975E0CE010D960E945DBC8BE79A
:1056600092E10E947267182F60E070E0CE010D9603
:105670000E94E8BDFC0110838BE792E10E947267F3
:10568000182F61E070E0CE010D960E94E8BDFC018C
:1056900010836DE978E0CE010D960E94320D8823CB
:1056A000A9F060EA78E081E098E10E942DB9BE019E
:1056B000635F7F4F81E098E10E941FB96EEB78E055
:1056C00081E098E10E9458B910E05EC169ED78E090
:1056D00081E098E10E9458B98BE792E10E947267DD
:1056E0006BEE77E0CE0107960E945DBC8BE792E1FE
:1056F0000E947267182F8A3009F18032F9F0133254
:1057000039F48BE792E10E947267182F8A30C9F74B
:10571000BE01695F7F4FCE0101960E94BCBC612F24
:10572000CE0101960E944CBDBC01CE0107960E949D
:10573000A7BCCE0101960E94F5BBD8CF6FEF78E0F1
:1057400081E098E10E942DB9BE01695F7F4F81E041
:1057500098E10E9448B94B855C854F5F5F4F8DB7DC
:105760009EB7841B950B0FB6F8949EBF0FBE8DBFDE
:105770000DB71EB70F5F1F4F20E030E0B801CE011C
:1057800007960E94FABDC8010E94B5C4AA2797FDDA
:10579000A095BA2F8093771290937812A0937912E4
:1057A000B0937A120A97A105B10544F468E772E054
:1057B00081E098E10E9438B910E0E2C06BEE77E03A
:1057C000CE0107960E94CFBC8BE792E10E947267E0
:1057D000282F8A3009F1233239F48BE792E10E94B5
:1057E0007267282F8A30C9F7BE01695F7F4FCE01EB
:1057F00001962B8B0E94BCBC2B89622FCE01019697
:105800000E944CBDBC01CE0107960E94A7BCCE01F0
:1058100001960E94F5BBD8CF6AE079E081E098E17B
:105820000E942DB9BE01695F7F4F81E098E10E941F
:1058300048B94B855C854F5F5F4F20E030E0B80191
:10584000CE0107960E94FABDC8010E94B5C4BC01F2
:10585000882777FD8095982F609373127093741248
:1058600080937512909376120E9495BF4B015C0154
:1058700060917712709178128091791290917A12DA
:105880000E9495BF9B01AC01C501B4010E94FABE04
:10589000609318027093190280931A0290931B026E
:1058A00066E179E081E098E10E942DB9409118020B
:1058B0005091190260911A0270911B0222E030E0AF
:1058C00081E098E10E943DBB6BEE77E0CE01079648
:1058D0000E94CFBC8BE792E10E947267B82E9AE0DB
:1058E000B916B1F0BE01695F7F4FCE0101960E94EB
:1058F000BCBC6B2DCE0101960E944CBDBC01CE01FB
:1059000007960E94A7BCCE0101960E94F5BBE2CF8C
:1059100068E279E081E098E10E942DB9BE01695FFB
:105920007F4F81E098E10E9448B94B855C854F5FCD
:105930005F4F20E030E0B801CE0107960E94FABD2B
:10594000C8010E94B5C490937212809371128BE7C4
:1059500092E10E940D687093701260936F126CE375
:1059600079E081E098E10E942DB960916F12709109
:1059700070124AE050E081E098E10E940EBA11E016
:10598000CE0107960E94F5BBCE010D960E94F5BB95
:10599000812F0FB6F894FEBE0FBEEDBE63960FB614
:1059A000F894DEBF0FBECDBFDF91CF911F910F9155
:1059B000FF90EF90BF90AF909F908F900895EF92DF
:1059C000FF920F931F93CF93DF93CDB7DEB76B9703
:1059D0000FB6F894DEBF0FBECDBFEDB6FEB6FC012C
:1059E000448155814F5F5F4F2DB73EB7241B350B68
:1059F0000FB6F8943EBF0FBE2DBF0DB71EB70F5F99
:105A00001F4F20E030E0B8010E94FABD21E0A8015C
:105A10006EE075E1CE0101960E948D6ABE016F5F56
:105A20007F4F8BE792E10E94751C8BE792E10E9409
:105A30006C68811103C06AE479E005C0EFDD811173
:105A400008C06BE579E081E098E10E9458B980E0F8
:105A50000DC08BE792E10E941D6860936B127093FA
:105A60006C1280936D1290936E1281E00FB6F894D1
:105A7000FEBE0FBEEDBE6B960FB6F894DEBF0FBE36
:105A8000CDBFDF91CF911F910F91FF90EF900895BF
:105A900063E679E081E098E10C9458B9CF92DF9207
:105AA000EF92FF920E9495BF6B017C0160917C0296
:105AB00070917D02882777FD8095982F0E9495BF71
:105AC0009B01AC01C701B6010E94FABE0E9462BFF1
:105AD000FF90EF90DF90CF900895CF92DF92EF92FA
