:100000000C94340D0C94650D0C94650D0C94650DD9
:100010000C94650D0C94650D0C94650D0C94650D98
:100020000C94650D0C94650D0C94650D0C94650D88
:100030000C94650D0C94650D0C94650D0C94650D78
:100040000C94650D0C94BA880C94650D0C94650D98
:100050000C94650D0C94650D0C94650D0C9413BBFC
:100060000C94650D0C9479BE0C94AFBE0C94650D88
:100070000C94650D0C94650D0C94650D0C94650D38
:100080000C94E7880C94650D0C94650D0C94650D2B
:100090000C94650D0C94650D0C94650D0C94650D18
:1000A0000C94650D0C94650D0C9414890C94650DDD
:1000B0000C94650D0C94650D0C94650D0C944189A0
:1000C0000C94650D0C94650D0C94650D0C94650DE8
:1000D0000C94650D0C94650D0C94650D0C94650DD8
:1000E0000C94650D111610175F17AD17C817E3179D
:1000F000FE173118A7197A19911864186C1D6C1D18
:10010000C218DD186C1DEF19C219E61AE31BB61BE5
:10011000431C161C9D1A821A4F1A221A501B011BCF
:10012000831B44167716F81847197A17AA166C1D00
:100130004719031DD61CA31C761CDD16361D9F63B4
:10014000B167A263A663B167AB63B363BB63E763E5
:10015000A365CB65B167B167F3655765B167156492
:1001600041640A660C66356661668A666F649564EA
:10017000DD64056502660066046697639B639465AB
:100180000666B6664965B1670866CE660067316780
:100190006267BA6692675B816281698170817781EB
:1001A0008E817E818E818581FE81028206820A8215
:1001B0000E82128216824B9269929092A692A69219
:1001C000A692BD9245934B924593E0924593EE9251
:1001D000EE920B930B939092719371939092EE9297
:1001E0004593A6921993459345934593459345931B
:1001F000339345934593DE933F952896F79602985F
:1002000002989499E89A8DA0F59BE69D529E1BA2B8
:10021000F4A2D0A4D0A42896C3ADC3AD2896C7A39A
:10022000D1A516999AA665A76BA992A824AA6BAB2B
:10023000C5ACD9AC8D9C37BC3ABC29BC2DBC33BCF9
:1002400071BC3EBC42BC48BC4CBC50BC56BC5ABC49
:100250005EBC71BC64BC68BC6CBC05A84CCDB2D49F
:100260004EB93836A9020C50B9918688083CA6AA26
:10027000AA2ABE000000803F50424D20696D616790
:1002800065206D757374206265206174206C6561F2
:10029000737420313020706978656C7320776964DD
:1002A000652E002C206D61782064656E7369747909
:1002B0003A20002C2070656E2077696474683A20BB
:1002C0000050656E776964746820746573742000EB
:1002D0002C20726564756365643A002C206F757418
:1002E0004D61783A002C20696E4D61783A00696E54
:1002F00044656E733A004E6F7420706F7373696259
:100300006C6520746F206578707265737320616E00
:10031000792064657461696C2E0020697320002C5B
:1003200020677269643A20004D53472C492C4D6177
:100330007820776176657320666F722070656E53E2
:10034000697A653A20002C20736F20726F77736989
:100350007A6520696E2073746570733A20002C20D2
:100360006D6D506572537465703A20004D53472C83
:10037000442C726F7773697A6520696E206D6D3ACF
:1003800020002073746570732E003A20004D696E52
:10039000207365676D656E742073697A6520666F7A
:1003A000722070656E53697A65200063616C63200A
:1003B00053450063616C63204E570063616C63209A
:1003C00053570063616C63204E450063616C637535
:1003D0006C61746564204E450063616C63756C618B
:1003E0007465642053570063616C63756C61746558
:1003F000642053450063616C63756C6174656420AF
:100400004E57002E002C20736F75726365423A20A0
:10041000002E20536F75726365413A20002C2074C2
:100420006172676574423A20005461726765744175
:100430003A20002C206F4F7574206E756D626572C6
:10044000206F662077617665733A20002C20696EF4
:100450007075742064656E736974793A20004D611B
:10046000782077617665732077697468207468698D
:10047000732070656E20616E6420677269647369B1
:100480007A653A20002E002E20656E6420706F6918
:100490006E743A2000537461727420706F696E74C8
:1004A0003A2000643A204E4500643A204E570064DA
:1004B0003A20535700643A205345002C206D617850
:1004C0002064656E736974793A20002C2070656E23
:1004D0002077696474683A200050656E77696474A7
:1004E00068207465737420004368616E67696E6785
:1004F000206261636B20746F206C697665206D6F7C
:1005000064652E0046696C652072656D6F76656462
:100510002E0046696C6520616C72656164792065A6
:1005200078697374732E00457865637574696E67B6
:1005300020636F6D6D616E643A0053746F72696E03
:100540006720636F6D6D616E643A006D6D00436886
:10055000616E6765642050656E20776964746820F9
:10056000746F20004E657720616363656C6572610E
:1005700074696F6E3A20004E6577206D6178207344
:10058000706565643A200055703A2000446F776EBC
:100590003A2000504753504545442C0050474C49A1
:1005A00046542C005047535445504D554C544950D7
:1005B0004C4945522C0050475354455053504552D6
:1005C0005245562C0050474D4D5045525245562CE1
:1005D00000504753495A452C0050474E414D452C39
:1005E000002900526563616C63207061676548652E
:1005F0006967687420696E207374657073202800C1
:100600002900526563616C63207061676557696496
:10061000746820696E207374657073202800290047
:10062000292C2073746570735065724D4D2028001D
:10063000526563616C63206D6D50657253746570B3
:100640002028004C6F61646564206D6F746F7220A8
:1006500073746570206D756C7469706C6965723A3D
:10066000004C6F61646564206D616368696E65202C
:100670006E616D653A004C6F616465642075702031
:10068000706F733A004C6F6164656420646F776EBD
:1006900020706F733A004C6F61646564206D6F74F5
:1006A0006F72207374657073207065722072657646
:1006B0003A004C6F61646564206D6D207065722036
:1006C0007265763A004C6F61646564206D616368A1
:1006D000696E65206865696768743A004C6F61648B
:1006E0006564206D616368696E652077696474680C
:1006F0003A00206E6F74207265636F676E69736570
:10070000642E0029206E6F74207061727365642EF0
:10071000004D53472C452C436F6D6D616E6420284E
:10072000002C20636865636B73756D206E6F742099
:100730006D617463686564213A00536572766F2059
:100740000048617264776172653A20007600504F0C
:100750004C41524752415048204F4E21000000006A
:10076000006410B71DC8206E3BAC30D9269041DC28
:1007700076F4516B6B5861B24D3C7105502083B8D3
:10078000ED44930FF0E8A3D6D68CB361CBB0C2642E
:100790009BD4D2D38678E20AA01CF2BDBD7C3C3E3D
:1007A0005E2B3D3F2F5B5D3B2C2A225C001010200E
:1007B0005F000000000000000000000000000000DA
:1007C0000000000000000000000000000000000029
:1007D000000000000007000F800F800F800F800FC7
:1007E0008007000700000000000700070007000066
:1007F0000000000E380E380E380E380630000000AB
:1008000000000000000000000000000000000000E8
:100810000000000C300C300C307FFE7FFE0C300CE2
:10082000300C300C307FFE7FFE0C300C300C300072
:10083000000000024002400FF81FF81A401A401F43
:10084000F00FF8025802581FF81FF0024002400053
:10085000000000000000000E100E300E7000E001DD
:10086000C0038007000E700C7008700000000000CC
:1008700000000000000F001980198019800F000F80
:10088000080F9819F818F018E019F00F98000000F8
:1008900000000000000700070007000E0000000035
:1008A0000000000000000000000000000000000048
:1008B000000000000000F001C0038007000E000EE1
:1008C000000E000E000700038001C000F0000000D1
:1008D00000000000000F00038001C000E000700075
:1008E000700070007000E001C003800F0000000085
:1008F000000000000001801188099007E007E03F38
:10090000FC3FFC07E007E00990118801800000002F
:100910000000000000000000000180018001800F45
:10092000F00FF00180018001800000000000000055
:1009300000000000000000000000000000000000B7
:10094000000000000000000700070007000E000084
:100950000000000000000000000000000000001F78
:10096000F81FF80000000000000000000000000078
:100970000000000000000000000000000000000077
:100980000000000000000007000700070000000052
:10099000000000000000020006000E001C003800ED
:1009A0007000E001C0038007000E001C0000000082
:1009B00000000000000FF01C381C781CF81CF81D0B
:1009C000B81DB81F381F381E381C380FF000000043
:1009D00000000000000180018003801F801F800351
:1009E00080038003800380038003801FF0000000E9
:1009F00000000000000FE01C701C38003800700080
:100A0000E001C0038007000E381C381FF80000000A
:100A100000000000000FE01C701C3800380070035C
:100A2000C003C0007000381C381C700FE0000000CC
:100A3000000000000000E001E003E006E00CE01828
:100A4000E01FF81FF800E000E000E003F8000000FD
:100A500000000000001FF81C001C001C001C001FF0
:100A6000E01FF0007800381C381C700FE000000018
:100A7000000000000003E007000E001C001C001F27
:100A8000F01FF81C381C381C381C380FF000000010
:100A900000000000001FFC1C1C1C1C1C1C001C0077
:100AA00038007000E001C003800380038000000074
:100AB00000000000000FF01C381C381C381F3807DD
:100AC000E007E01CF81C381C381C380FF000000050
:100AD00000000000000FF01C381C381C381C381FA8
:100AE000F80FF800380038007000E007C000000080
:100AF000000000000000000000038003800380006D
:100B0000000000038003800380000000000000005C
:100B1000000000000000000000038003800380004C
:100B20000000000380038003800700000000000035
:100B3000000000007000E001C0038007000E001CF0
:100B4000001C000E000700038001C000E0007000E0
:100B500000000000000000000000003FFC3FFC001F
:100B60000000003FFC3FFC0000000000000000000F
:100B70000000001C000E000700038001C000E00020
:100B800070007000E001C0038007000E001C000030
:100B900000000003C00FF01E781838003800700005
:100BA000E001C001C00000000001C001C001C000A0
:100BB0000000000FF81C1C1C1C1C1C1C1C1CFC1C1A
:100BC000FC1CFC1CFC1C001C001C001FF007F80097
:100BD000000000000003C007E00E701C381C381C29
:100BE000381C381FF81C381C381C381C3800000012
:100BF00000000000001FF00E380E380E380E380FBF
:100C0000F00FF00E380E380E380E381FF0000000CE
:100C1000000000000007F00E381C381C001C001CEF
:100C2000001C001C001C001C380E3807F0000000DF
:100C300000000000001FE00E700E380E380E380E57
:100C4000380E380E380E380E380E701FE0000000D7
:100C500000000000001FF80E180E080E000E300FE6
:100C6000F00FF00E300E000E080E181FF8000000F6
:100C700000000000001FF80E180E080E000E300FC6
:100C8000F00FF00E300E000E000E001F00000000EE
:100C9000000000000007F00E381C381C381C001C37
:100CA000001C001CF81C381C380E3807F800000027
:100CB00000000000001C701C701C701C701C701F59
:100CC000F01FF01C701C701C701C701C7000000069
:100CD00000000000000FE003800380038003800316
:100CE00080038003800380038003800FE000000006
:100CF000000000000001FC00700070007000700037
:100D000070007038703870387038700FE000000074
:100D100000000000001E380E380E700EE00FC00FED
:100D2000800F800FC00EE00E700E381E38000000DD
:100D300000000000001F000E000E000E000E000E4E
:100D4000000E000E000E080E180E381FF8000000EE
:100D500000000000001C1C1E3C1F7C1FFC1FFC1D13
:100D6000DC1C9C1C1C1C1C1C1C1C1C1C1C000000D7
:100D700000000000001C1C1C1C1E1C1F1C1F9C1DB6
:100D8000DC1CFC1C7C1C3C1C1C1C1C1C1C000000D7
:100D9000000000000003E007F00E381C1C1C1C1CA7
:100DA0001C1C1C1C1C1C1C0E3807F003E00000005F
:100DB00000000000001FF00E380E380E380E380FFD
:100DC000F00FF00E000E000E000E001F00000000DD
:100DD000000000000003E00F780E381C1C1C1C1CD7
:100DE0001C1C1C1C7C1CFC0FF80FF8003800FC00BD
:100DF00000000000001FF00E380E380E380E380FBD
:100E0000F00FF00E700E380E380E381E380000004D
:100E100000000000000FF01C381C381C381C000FAC
:100E2000E007F000381C381C381C380FF0000000B8
:100E300000000000001FFC19CC11C401C001C0015A
:100E4000C001C001C001C001C001C007F000000026
:100E500000000000001C701C701C701C701C701CBA
:100E6000701C701C701C701C701C700FE000000067
:100E700000000000001C701C701C701C701C701C9A
:100E8000701C701C701C700EE007C0038000000016
:100E900000000000001C1C1C1C1C1C1C1C1C1C1C1E
:100EA0009C1C9C1C9C0FF80FF8077007700000003A
:100EB00000000000001C701C701C700EE007C003D6
:100EC00080038007C00EE01C701C701C70000000C6
:100ED00000000000001C701C701C701C701C700E48
:100EE000E007C003800380038003800FE000000060
:100EF00000000000001FF81C381838107000E001D6
:100F0000C0038007000E081C181C381FF8000000E2
:100F1000000000000007F0070007000700070007B7
:100F2000000700070007000700070007F0000000A7
:100F30000000000000100018001C000E0007000355
:100F40008001C000E000700038001C0007000000B5
:100F5000000000000007F0007000700070007000DA
:100F6000700070007000700070007007F0000000EA
:100F7000000000018003C007E00E701C3800000074
:100F80000000000000000000000000000000000061
:100F90000000000000000000000000000000000051
:100FA000000000000000000000000000007FFF7F44
:100FB000FF000000001C001C0007000700000000EC
:100FC0000000000000000000000000000000000021
:100FD000000000000000000000000000000FE00022
:100FE0007000700FF01C701C701C700FD800000097
:100FF00000000000001E000E000E000E000FF00E9C
:10100000380E380E380E380E380E381BF00000003F
:10101000000000000000000000000000000FE01CC5
:10102000701C701C001C001C701C700FE000000085
:10103000000000000000F80070007000700FF01C4D
:10104000701C701C701C701C701C700FD80000008D
:10105000000000000000000000000000000FE01C85
:10106000701C701FF01C001C701C700FE000000052
:10107000000000000003E007700770070007001F72
:10108000E01FE007000700070007001FC000000086
:10109000000000000000000000000000000FD81C4D
:1010A000701C701C701C700FF007F000701C700F2B
:1010B000E0000000001E000E000E000E000EF00FFB
:1010C000380F380E380E380E380E381E3800000033
:1010D000000000000001C001C001C000000FC001FD
:1010E000C001C001C001C001C001C00FF800000074
:1010F0000000000000007000700070000003F000AD
:1011000070007000700070007000701C700CF007B0
:10111000E0000000001E000E000E000E000E380E53
:10112000700EE00FC00EE00E700E381E380000008A
:1011300000000000000FC001C001C001C001C001DB
:10114000C001C001C001C001C001C00FF800000013
:10115000000000000000000000000000001FF81C5C
:101160009C1C9C1C9C1C9C1C9C1C9C1C9C00000093
:10117000000000000000000000000000001FE01C54
:10118000701C701C701C701C701C701C70000000A7
:10119000000000000000000000000000000FE01C44
:1011A000701C701C701C701C701C700FE000000024
:1011B000000000000000000000000000001BF00E16
:1011C000380E380E380E380E380FF00E000E001F95
:1011D000000000000000000000000000001FB03808
:1011E000E038E038E038E038E01FE000E000E001FF
:1011F000F00000000000000000000000001EF00FE2
:10120000F80F380E000E000E000E001F0000000048
:10121000000000000000000000000000000FE01CC3
:10122000301C300F8003E0187018700FE0000000D1
:10123000000000000000000100030007001FF0078D
:10124000000700070007000770077003E0000000B8
:10125000000000000000000000000000001C701CE6
:10126000701C701C701C701C701C700FD80000006B
:10127000000000000000000000000000001C701CC6
:10128000701C701C701C700EE007C0038000000012
:10129000000000000000000000000000001C1C1CFA
:1012A0001C1C1C1C9C1C9C0FF80770077000000085
:1012B000000000000000000000000000001CE01C16
:1012C000E00FC0078007800FC01CE01CE00000009A
:1012D000000000000000000000000000000E380EBA
:1012E000380E380E380E3807F003E000E001C01F5A
:1012F000800000000000000000000000001FE01857
:10130000E011C0038007000E201C601FE0000000F9
:10131000000000000001F803800380038007001C28
:10132000001C00070003800380038001F800000018
:1013300000000001C001C001C001C001C001C00126
:10134000C001C001C001C001C001C001C001C00096
:1013500000000000001F8001C001C001C000E000CB
:1013600038003800E001C001C001C01F800000004B
:1013700000000000001F1C3B9C39DC38F800000016
:10138000000000000000000000000000000000005D
:1013900000080C205F0000000000000000000000BA
:1013A00000000020202020202000200000002850E5
:1013B00050000000000000000000002828FC285019
:1013C000FC50500000002078A8A0603028A8F02031
:1013D00000000048A8B05028345448000000002005
:1013E000505078A8A8906C00000040408000000099
:1013F0000000000000000408101010101010080475
:1014000000004020101010101010204000000000BC
:1014100020A87070A8200000000000202020F820E4
:1014200020200000000000000000000000004040FC
:10143000800000000000F800000000000000000034
:1014400000000000000040000000081010102020E4
:10145000404040800000007088888888888870003C
:10146000000000206020202020207000000000707C
:10147000888810204080F80000000070880830083C
:10148000088870000000001030505090781018004C
:10149000000000F88080F0080888700000000070EC
:1014A0009080F08888887000000000F8901020205C
:1014B00020202000000000708888708888887000D4
:1014C00000000070888888780848700000000000DC
:1014D00000200000000020000000000000002000AC
:1014E0000000202000000408102040201008040004
:1014F0000000000000F80000F8000000000040209C
:101500001008040810204000000000708888102097
:1015100020002000000000708898A8A8B8807800FB
:1015200000000020203050507848CC00000000F02F
:10153000484870484848F000000000788880808063
:1015400080887000000000F0484848484848F00093
:10155000000000F8485070504048F800000000F8C3
:10156000485070504040E000000000384880809CA7
:1015700088483000000000CC484878484848CC00F3
:10158000000000F8202020202020F8000000007C2F
:1015900010101010101090E0000000EC4850605047
:1015A0005048EC00000000E0404040404044FC0057
:1015B000000000D8D8D8D8A8A8A8A800000000DC4F
:1015C000486868585848E800000000708888888893
:1015D00088887000000000F0484870404040E000FB
:1015E0000000007088888888E8987018000000F073
:1015F000484870504848EC0000000078888060102F
:101600000888F000000000F8A820202020207000AA
:10161000000000CC4848484848483000000000CC52
:101620004848505030202000000000A8A8A8705062
:1016300050505000000000D8505020205050D8008A
:10164000000000D85050202020207000000000F83A
:10165000901020204048F800000038202020202052
:1016600020202038000040404020201010100800AA
:10167000000070101010101010101070000020509A
:10168000000000000000000000000000000000005A
:1016900000000000FC00200000000000000000002E
:1016A000000000000000304838483C00000000C046
:1016B0004040704848487000000000000000384872
:1016C00040403800000000180808384848483C00EE
:1016D0000000000000003048784038000000001C86
:1016E00020207820202078000000000000003C48E6
:1016F00030407844380000C0404070484848EC0012
:101700000000002000006020202070000000001079
:101710000000301010101010E00000C040405C507D
:101720007048EC00000000E0202020202020F8007D
:10173000000000000000F0A8A8A8A8000000000019
:101740000000F0484848EC0000000000000030486D
:1017500048483000000000000000F0484848704051
:10176000E000000000003848484838081C0000002D
:101770000000D8604040E000000000000000784019
:101780003008780000000000202070202020180081
:10179000000000000000D84848483C00000000005D
:1017A0000000EC4850302000000000000000A8A815
:1017B00070505000000000000000D8502050D800A9
:1017C000000000000000EC4850302020C000000065
:1017D0000000781020207800000018101010201051
:1017E0001010101800101010101010101010101001
:1017F0001000602020201020202020600040A4182D
:1018000000000000000000000000000A0B02090CAC
:101810000D0E080703040100000000000000000096
:1018200000000000000000000000000000000000B8
:101830000000000000121110000000000000000075
:101840000000000000000000000000000000000197
:1018500002102020080810204010204080020102C1
:101860000108040201010204081020408080402089
:1018700010080402018004020180402010080402C4
:101880000108040201010204081020408001020442
:10189000081020408005050505070508080808020E
:1018A0000202020A0A0808040404040101010101F9
:1018B0000101010303030303030303040707070CE8
:1018C0000C0C0C0C0C0C0C0202020206060606069E
:1018D0000606060B0B0B0B0B0B0B0B00002000235B
:1018E00000260029002C002F003200000100000318
:1018F000010601090100002200250028002B002E0E
:10190000003100340002010000050108010B010054
:10191000002100240027002A002D003000330001A0
:10192000010000040107010A014E414E494E49548D
:1019300059494E46CDCCCC3D0AD7233C17B7D138B8
:1019400077CC2B329595E6241FB14F0A0000204139
:101950000000C84200401C4620BCBE4CCA1B0E5AA8
:10196000AEC59D7400407A10F35A00A0724E18095B
:101970000010A5D4E80000E87648170000E40B54F6
:10198000020000CA9A3B000000E1F50500008096C5
:101990009800000040420F000000A08601000000F7
:1019A000102700000000E8030000000064000000B1
:1019B00000000A00000000000100000000002C767A
:1019C000D888DC674F0823DFC1DFAE59E1B1B79695
:1019D000E5E3E453C63AE651997696E8E6C28426F2
:1019E000EB898C9B62ED407C6FFCEFBC9C9F40F2CE
:1019F000BAA56FA5F490055A2AF75C936B6CF9674A
:101A00006DC11BFCE0E40D47FEF520E6B500D0ED0E
:101A1000902E0300943577050080841E0800002076
:101A20004E0A000000C80C333333330F986E128314
:101A30001141EF8D2114893BE65516CFFEE6DB18E8
:101A4000D1844B381BF77C1D901DA4BBE4242032AD
:101A500084725E228100C9F124ECA1E53D272E3974
:101A600000721175E1BEA23B11241FBECFEFD1E27F
:101A7000DEBFCDBF00E00CBF11E1A0E0B2E0EEECB4
:101A8000F0EA01E00BBF02C007900D92A03FB10742
:101A9000D9F728E1A0EFB1E101C01D92AE3DB20738
:101AA000E1F71AE1C6E6DAE100E006C02297010993
:101AB000FE010BBF0E940DC9CE35D10780E008079B
:101AC000A9F70E9425BF0C9456D00C9400000E94E8
:101AD000BAC391E0811190E0892F08956F927F92AF
:101AE0008F929F92AF92BF92CF92DF92EF92FF922E
:101AF0000F931F93CF93DF9300D000D0CDB7DEB705
:101B00006C01FC0184809580E12CF12C00E010E058
:101B1000712C612CE814F9040CF04CC0B701C6011B
:101B20000E944EC497012F5F3F4F59018C3209F03C
:101B30003FC09701472D562DB601CE0101960E9458
:101B4000CEC47A2C6B2C02301105F9F064F4011527
:101B50001105A9F00130110529F5BE016F5F7F4F16
:101B600087EE94E11DC003301105A9F00430110582
:101B7000C9F4BE016F5F7F4F85ED94E111C0BE01D6
:101B80006F5F7F4F8DEE94E10BC0BE016F5F7F4FA3
:101B900081EE94E105C0BE016F5F7F4F8BED94E154
:101BA0000E94D2C20F5F1F4FCE0101960E9454C205
:101BB0007501B0CF1093D4140093D31426960FB6AA
:101BC000F894DEBF0FBECDBFDF91CF911F910F9173
:101BD000FF90EF90DF90CF90BF90AF909F908F904D
:101BE0007F906F9008950F931F93CF93DF9300D052
:101BF00000D0CDB7DEB78C016CE774E10E940BC456
:101C0000882371F0B801CE0101960E94E7C2CE018F
:101C1000019664DFCE0101960E9454C281E001C0AA
:101C200080E026960FB6F894DEBF0FBECDBFDF91E1
:101C3000CF911F910F910895EF92FF920F931F93F1
:101C4000CF93DF93CDB7DEB7EDB6FEB6FC0144818E
:101C500055814F5F5F4F2DB73EB7241B350B0FB635
:101C6000F8943EBF0FBE2DBF0DB71EB70F5F1F4FBD
:101C700020E030E0B8010E944FC4C8010E94B2CBFE
:101C80000FB6F894FEBE0FBEEDBEDF91CF911F914F
:101C90000F91FF90EF900895EF92FF920F931F9393
:101CA000CF93DF93CDB7DEB7EDB6FEB6FC0144812E
:101CB00055814F5F5F4F2DB73EB7241B350B0FB6D5
:101CC000F8943EBF0FBE2DBF0DB71EB70F5F1F4F5D
:101CD00020E030E0B8010E944FC4C8010E9495CBBB
:101CE0000FB6F894FEBE0FBEEDBEDF91CF911F91EF
:101CF0000F91FF90EF900895EF92FF920F931F9333
:101D0000CF93DF93CDB7DEB7EDB6FEB6FC014481CD
:101D100055814F5F5F4F2DB73EB7241B350B0FB674
:101D2000F8943EBF0FBE2DBF0DB71EB70F5F1F4FFC
:101D300020E030E0B8010E944FC4C8010E9492CB5D
:101D40000FB6F894FEBE0FBEEDBEDF91CF911F918E
:101D50000F91FF90EF90089565EC74E18AE398E1AC
:101D60000C94CCBF6FEB74E18AE398E10C94CCBF88
:101D7000CF93DF93EC0161E273E08AE398E10E9484
:101D8000A2BFBE018AE398E10E9494BF62EF76E0B1
:101D90008AE398E1DF91CF910C94BCBF61E083E0CE
:101DA0000E9472BC61E083E00E94ABBC61E086E00F
:101DB0000E9472BC61E086E00E94ABBC63E087E6F3
:101DC00092E10E94AB8721E040E060E087E692E18B
:101DD0000E94C08766E083E292E10E94AB8721E027
:101DE00040E061E083E292E10C94C087CF93DF93FF
:101DF000C0E0D0E04AE050E0BE018AE398E10E94F2
:101E00008BC068E273E08AE398E10E94A2BFBE0142
:101E100080E398E10E94E38A4AE050E0682F8AE379
:101E200098E10E94C4C02196C832D10519F7DF910C
:101E3000CF910895FF920F931F93CF93DF93CDB768
:101E4000DEB72C970FB6F894DEBF0FBECDBF6AED9C
:101E500077E0CE0107960E94BDC204E010E0B80111
:101E600080E398E10E94E38AF82EBE01695F7F4F0C
:101E7000CE0101960E94E7C26F2DCE0101960E940D
:101E80006CC3BC01CE0107960E94D2C2CE0101965E
:101E90000E9454C20F5F1F4F0C30110501F760E024
:101EA00070E0CE0107960E942BC4FC018081811155
:101EB00006C06BE175E1CE0107960E94D2C2109276
:101EC0000715109208151092091510920A15BE01F7
:101ED000695F7F4F81E295E10E94D2C261E676E0C0
:101EE0008AE398E10E946FBF61E275E18AE398E1BD
:101EF0000E94CCBFCE0107960E9454C22C960FB60A
:101F0000F894DEBF0FBECDBFDF91CF911F910F912F
:101F1000FF900895CF93DF9300D000D0CDB7DEB708
:101F200067EE74E1CE0101960E94E7C2CE010196F0
:101F3000B3DE9093410280934002CE0101960E944D
:101F400054C261EE74E1CE0101960E94E7C2CE0157
:101F50000196A2DE9093430280934202CE01019645
:101F60000E9454C226960FB6F894DEBF0FBECDBFB6
:101F7000DF91CF9108953ADF69ED75E08AE398E14A
:101F80000E946FBF61E275E18AE398E10E9494BF0D
:101F90006CE774E18AE398E10E94CCBF61ED75E0E3
:101FA0008AE398E10E946FBF6091670270916802B6
:101FB0004AE050E08AE398E10E948BC062E874E155
:101FC0008AE398E10E9494BF609165027091660275
:101FD0004AE050E08AE398E10E948BC06CE774E12C
:101FE0008AE398E10E94CCBF65EC75E08AE398E152
:101FF0000E946FBF4091730250917402609175020C
:102000007091760222E030E08AE398E10E94C0C13C
:102010006CE774E18AE398E10E94CCBF66EB75E05F
:102020008AE398E10E946FBF609177027091780215
:102030004AE050E08AE398E10E948BC06CE774E1CB
:102040008AE398E10E94CCBF64EA75E08AE398E1F4
:102050000E946FBF60917102709172024AE050E07D
:102060008AE398E10E948BC06CE774E18AE398E10F
:102070000E94CCBF6CE975E08AE398E10E946FBFD3
:102080006091790270917A024AE050E08AE398E127
:102090000E948BC062E874E18AE398E10E9494BFD9
:1020A00060917B0270917C024AE050E08AE398E103
:1020B0000E948BC06CE774E18AE398E10E94CCBF78
:1020C00063E975E08AE398E10E946FBF409157028F
:1020D000509158026091590270915A0222E030E00A
:1020E0008AE398E10E94C0C162E874E18AE398E162
:1020F0000E9494BF40915302509154026091550246
:102100007091560222E030E08AE398E10E94C0C15B
:102110006CE774E18AE398E10C94CCBFAB01BC019D
:1021200040935702509358026093590270935A0299
:1021300087E692E10E949F86409157025091580293
:102140006091590270915A0283E292E10E949F8647
:1021500067E775E08AE398E10E946FBF40915702FC
:10216000509158026091590270915A0222E030E079
:102170008AE398E10C94C1C1AB01BC0140935302C6
:1021800050935402609355027093560287E692E191
:102190000E9403874091530250915402609155026E
:1021A0007091560283E292E10E94038764E675E033
:1021B0008AE398E10E946FBF40915302509154020C
:1021C000609155027091560222E030E08AE398E176
:1021D0000C94C1C14F925F926F927F928F929F92A7
:1021E000AF92BF92CF92DF92EF92FF920F931F9325
:1021F000CF93DF93CDB7DEB728970FB6F894DEBF45
:102200000FBECDBF6D837E838F83988749015A01AE
:1022100067017801672B682B692B09F498C0C50109
:10222000B4010E9462C72B013C0120E030E0A9010B
:10223000C501B4010E94D3C587FF04C077FA70942A
:1022400077F87094A7019601C701B6010E946FC587
:1022500069837A838B839C839B01AC01C301B201A8
:102260000E94DAC52B013C016D817E818F819885AA
:102270000E9475C69B01AC01C301B2010E94D3C587
:1022800040905702509058026090590270905A0244
:1022900020E030E0A90187FF25C0C501B4010E94FC
:1022A000D3C5811107C069817A818B819C810E948D
:1022B000CFC70DC0A5019401C701B6010E94DAC5C0
:1022C0009B01AC015F77C501B4010E946FC56B0132
:1022D0007C01A30192010E945EC718169CF12601A1
:1022E000370130C0C501B4010E94D3C581110DC0B2
:1022F00069817A818B819C810E94CFC76B017C01AF
:10230000F7FAF094F7F8F0940FC0A5019401C70113
:10231000B6010E94DAC59B01AC015F77C501B4012B
:102320000E946EC56B017C0177FA709477F8709407
:10233000A3019201C701B6010E94D3C587FD02C067
:1023400026013701542D452D362D272D04C050E090
:1023500040E030E020E0652F742F832F922F2896E5
:102360000FB6F894DEBF0FBECDBFDF91CF911F91A6
:102370000F91FF90EF90DF90CF90BF90AF909F9024
:102380008F907F906F905F904F900895CF92DF92E3
:10239000EF92FF920F931F93CF93DF93CDB7DEB7EA
:1023A0002C970FB6F894DEBF0FBECDBFEDB6FEB6CC
:1023B00067EE74E1CE0107960E94E7C261EE74E118
:1023C000CE0101960E94E7C26AED77E0CE01079642
:1023D0007EDB882309F45AC06BE273E08AE398E15C
:1023E0000E94A2BFBE01695F7F4F8AE398E10E940D
:1023F000CCBF81E080930313BE01695F7F4F8DEFF7
:1024000092E10E94D2C26DE874E0CE0101960E9472
:10241000BAC3882309F440C0CDB6DEB64B855C85CF
:102420004F5F5F4F8DB79EB7841B950B0FB6F89427
:102430009EBF0FBE8DBF0DB71EB70F5F1F4F20E0B1
:1024400030E0B801CE0107960E944FC4B80186E47F
:1024500095E10E947471882399F062E175E08AE346
:1024600098E10E94BCBFB80186E495E10E947E71AC
:10247000882331F064E075E08AE398E10E94BCBFF4
:102480000FB6F894DEBE0FBECDBE06C068E473E0A2
:102490008AE398E10E94DCBFCE0101960E9454C2FB
:1024A000CE0107960E9454C20FB6F894FEBE0FBE2E
:1024B000EDBE2C960FB6F894DEBF0FBECDBFDF91F8
:1024C000CF911F910F91FF90EF90DF90CF900895E3
:1024D00068EE74E08AE398E10E94BCBF1092031397
:1024E00008950F931F93CF93DF9380911113811160
:1024F00053C082E193E10E949EB9882309F456C03B
:1025000082E193E10E94FEB782E193E10E94B5B9B6
:10251000EC0182E193E10E9460BA8C01CF3F8FEF22
:10252000D80739F30F3F8FEF180719F36AE673E006
:102530008AE398E10E94A2BF60910F13709110137B
:102540004AE050E08AE398E10E948BC060EB7AE0B9
:102550008AE398E10E94A2BF60910D1370910E135F
:102560004AE050E08AE398E10E9492C0D0931013B1
:10257000C0930F1310930E1300930D1381E08093FB
:1025800011130E945DBB6093CB147093CC148093A5
:10259000CD149093CE140AC065E773E08AE398E106
:1025A000DF91CF911F910F910C94DCBFDF91CF9100
:1025B0001F910F9108954F925F926F927F92AF9209
:1025C000BF92CF92EF92FF920F931F93CF93DF931F
:1025D000EC015B0129013A0125E045E065E08DE46D
:1025E00093E10E948DAE85010C5E1F4F80910C021D
:1025F0009E01280F311DA501BE018DE493E10E94CB
:10260000C7AF2FEF4FEF6FEF8DE493E10E948DAED8
:1026100025E045E065E08DE493E10E94A1AE80E213
:10262000C82EE12CF12C85019E01B301A2018DE49D
:1026300093E10E9438B5DF91CF911F910F91FF90E8
:10264000EF90CF90BF90AF907F906F905F904F9042
:1026500008954F925F926F927F928F92AF92BF9246
:10266000CF92EF92FF920F931F93CF93DF93EC01E2
:102670007B0129013A0125E045E065E08DE493E125
:102680000E948DAE87010C5E1F4F80910C029E014F
:10269000280F311DA701BE018DE493E10E94C7AF51
:1026A0002FEF4FEF6FEF8DE493E10E948DAE25E0A9
:1026B00045E065E08DE493E10E94A1AE90E2892EB1
:1026C000A12CB12C2EE2C22E8E0122E0B301A20178
:1026D0008DE493E10E9431B6DF91CF911F910F916C
:1026E000FF90EF90CF90BF90AF908F907F906F90C2
:1026F0005F904F900895AF92BF92CF92DF92EF928A
:10270000FF920F931F93CF93DF93CDB7DEB72C9734
:102710000FB6F894DEBF0FBECDBF61E08DE493E14C
:102720000E947D938DE493E10E94EDAD8DE493E1F1
:102730000E94D2B620910D0234E0239F80199109A6
:10274000112463E070E00E948BC860930C028DE45A
:1027500093E10E94DDB660910C0240910D02942F2E
:10276000960F990F891B80930B0250E05093F41140
:102770004093F3115093F6114093F51170E09A01D4
:10278000260F371F3093F8112093F7113093FA1169
:102790002093F9118901040F151F1093FC11009368
:1027A000FB115093FE114093FD11D801A60FB71FE6
:1027B000B0930012A093FF113093021220930112E4
:1027C0005D01A40EB51EB0920412A09203125093A4
:1027D0000612409305126501C60ED71ED09208124C
:1027E000C0920712E9E0EE2EE2E1FE2EF7013183FE
:1027F000208350930C1240930B1290E0A901480FD4
:10280000591F50930E1240930D12309310122093C3
:102810000F12260F371F280F391F309312122093E3
:102820001112109314120093131250931612409326
:102830001512B0931812A093171230931A12209306
:102840001912B0921C12A0921B1250931E124093A8
:102850001D12D0922012C0921F1230932212209388
:10286000211225E045E065E08DE493E10E94A1AEF0
:102870002091F0114091F1116091F2118DE493E1FA
:102880000E948DAEF701408151818A01085C1F4F83
:1028900020E431E060E070E08DE493E10E94C7AF96
:1028A0002091F0114091F1116091F2118DE493E1CA
:1028B0000E94A1AE2FEF4FEF6FEF8DE493E10E94E6
:1028C0008DAE61E082E193E10E9436B762E082E181
:1028D00093E10E9400BB6DEA77E08DE493E10E94F2
:1028E000B7B6F70120813181265F3F4F00E010E04D
:1028F00041E150E066E873E08DE493E10E9449B461
:1029000061E973E18DE493E10E94B7B6F70120819C
:102910003181205E3F4F44E150E062E973E08DE495
:1029200093E10E9449B425E045E065E08DE493E140
:102930000E94A1AEF701E080F180EE0CFF1C8091B7
:102940000D02E80EF11C67EA73E0CE0107960E94C3
:10295000BDC26CE375E1CE0107960E9443C3BC0182
:10296000CE0101960E94E7C2970144E150E0BE010A
:102970006F5F7F4F8DE493E10E94F2B4CE01019628
:102980000E9454C2CE0107960E9454C22C960FB6E4
:10299000F894DEBF0FBECDBFDF91CF911F910F9195
:1029A000FF90EF90DF90CF90BF90AF9008950F937E
:1029B0001F939091E1122091091230910A12809197
:1029C0000D02220F331F281B310900E010E044E103
:1029D00050E0992309F453C06BEC73E08DE493E16C
:1029E0000E9449B464EF71E080E090E00E948CBBEB
:1029F0008091E0128823D1F125E045E065E08DE487
:102A000093E10E948DAE4091091250910A12440F39
:102A1000551F80910D02481B51098A010F5E1F4FFF
:102A200020E431E060E070E08DE493E10E94C7AF04
:102A300064EF71E080E090E00E948CBB2FEF4FEFDD
:102A40006FEF8DE493E10E948DAE209109123091D9
:102A50000A12220F331F80910D02281B310900E05A
:102A600010E044E150E069EA73E00BC000E010E0E0
:102A700021E130E04AE050E066EB73E002C068EC30
:102A800073E08DE493E10E9449B41F910F91089582
:102A90000F931F93182F2091F0114091F111609125
:102AA000F2118DE493E10E948DAEE12FF0E0DF01A1
:102AB000AA0FBB1FAA0FBB1FA950BE4E12960D91A5
:102AC0001C9113972D913C91EE0FFF1FEE0FFF1FEE
:102AD000ED50FE4E42815381608171818DE493E11E
:102AE0000E94C7AF2091F0114091F1116091F21155
:102AF0008DE493E10E94A1AE2FEF4FEF6FEF8DE4D5
:102B000093E11F910F910C948DAECF92DF92EF92D3
:102B1000FF920F931F93CF93DF931F921F92CDB716
:102B2000DEB7182F062F6BED73E08AE398E12A8356
:102B300049830E94DCBF8FEF810F2A814981863053
:102B400008F052C0602F8DE493E10E948DAE110F0A
:102B50001250412F50E07A01EE0CFF1CEE0CFF1CCE
:102B6000C70189509E4E7C01FC01028113810150F6
:102B70001109208131816A01CC0CDD1CCC0CDD1CDB
:102B8000C6018D509E4E6C01FC01428153816081D3
:102B900071818DE493E10E9483AFF701028113817B
:102BA000025011092081318121503109F601428101
:102BB00053814F5F5F4F608171816F5F7F4F8DE405
:102BC00093E10E9483AF2091F0114091F111609147
:102BD000F2118DE493E10E94A1AE25E045E065E0AD
:102BE0008DE493E10E948DAE66EE73E08AE398E196
:102BF0000F900F90DF91CF911F910F91FF90EF9069
:102C0000DF90CF900C94DCBF0F931F9390E0FC01FA
:102C10003197ED32F10508F05FC7EE58FF4F0C9485
:102C2000DCC880E035DF80910C02869590E0209131
:102C3000F5113091F611280F391F2C5031094091B0
:102C4000F3115091F411480F591F4A50510900E0F7
:102C500010E06CE474E08DE493E10E9449B480914B
:102C60000C02869590E02091F5113091F611280F15
:102C7000391F4091F3115091F411480F591F4E50D4
:102C8000510960EF73E024C780E002DF80910C02FD
:102C9000869590E02091F5113091F611280F391F9B
:102CA0002C5031094091F3115091F411480F591FE4
:102CB0004651510900E010E065EF73E08DE493E1C7
:102CC0000E9449B480910C02869590E02091F51104
:102CD0003091F611280F391F4091F3115091F411E2
:102CE000480F591F465051096CEF73E0F1C680E060
:102CF000CFDE80910C02869590E02091F511309105
:102D0000F611280F391F2C5031094091F3115091C1
:102D1000F411480F591F4651510900E010E065EFCA
:102D200073E08DE493E10E9449B480910C02869592
:102D300090E02091F5113091F611280F391F409144
:102D4000F3115091F411480F591F4A5051096FEF78
:102D500073E0BEC680E09CDE80910C02869590E018
:102D60002091F5113091F611280F391F2C5031099F
:102D70004091F3115091F411480F591F46515109D8
:102D800000E010E063E074E08DE493E10E9449B458
:102D900080910C02869590E02091F5113091F6110A
:102DA000280F391F4091F3115091F411480F591F0A
:102DB000405151096AE074E08BC680E069DE809181
:102DC0000C02869590E02091F5113091F611280FB4
:102DD000391F2C5031094091F3115091F411480FD3
:102DE000591F4651510900E010E060E174E08DE4A4
:102DF00093E10E9449B480910C02869590E0209165
:102E0000F5113091F611280F391F4091F3115091AF
:102E1000F411480F591F4851510967E174E058C631
:102E200082E036DE80910C02869590E02091FD11C3
:102E30003091FE11280F391F225131094091FB11A9
:102E40005091FC11480F591F4E50510900E010E0FD
:102E50006FE174E08DE493E10E9449B480910C022B
:102E6000869590E02091FD113091FE11280F391FB9
:102E7000265031094091FB115091FC11480F591F08
:102E80004E50510964E274E08DE493E10E9449B42C
:102E900080910C02869590E02091FD113091FE11F9
:102EA000280F391F2A5F3F4F4091FB115091FC11B1
:102EB000480F591F4650510969E274E009C684E081
:102EC000E7DD80910C02869590E02091051230910B
:102ED0000612280F391F26503109409103125091D4
:102EE0000412480F591F4E50510900E010E06CE2E7
:102EF00074E0EEC584E0CCDD80910C02869590E014
:102F00002091051230910612280F391F2C503109DB
:102F10004091031250910412480F591F4251510918
:102F200000E010E061E374E08DE493E10E9449B4B5
:102F300080910C02869590E0209105123091061246
:102F4000280F391F4091031250910412480F591F46
:102F50004251510967E374E0BBC586E099DD809179
:102F60000C02869590E020910D1230910E12280FE0
:102F7000391F2650310940910B1250910C12480F05
:102F8000591F4251510900E010E06DE374E0A0C503
:102F900086E07EDD80910C02869590E020910D12F6
:102FA00030910E12280F391F2650310940910B1213
:102FB00050910C12480F591F4651510900E010E082
:102FC00063E474E085C584E063DD80910C0286953E
:102FD00090E02091051230910612280F391F2650DB
:102FE00031094091031250910412480F591F425168
:102FF000510900E010E06AE474E06AC588E048DD49
:1030000080910C02869590E0209115123091161255
:10301000280F391F2C50310940911312509114126E
:10302000480F591F4A50510900E010E060E574E074
:103030008DE493E10E9449B480910C02869590E062
:103040002091151230911612280F391F409113123A
:1030500050911412480F591F4650510966EB74E005
:1030600037C588E015DD80910C02869590E02091AF
:10307000151230911612280F391F2C50310940912A
:10308000131250911412480F591F4A50510900E071
:1030900010E060E574E08DE493E10E9449B4809112
:1030A0000C02869590E02091151230911612280F8F
:1030B000391F4091131250911412480F591F4E504E
:1030C00051096DEA74E004C582E0E2DC80910C02F3
:1030D000869590E02091FD113091FE11280F391F47
:1030E0002C5031094091FB115091FC11480F591F90
:1030F0004C50510900E010E064E574E08DE493E188
:103100000E9449B480910C02869590E02091FD11B7
:103110003091FE11280F391F4091FB115091FC1185
:103120002CC088E0B5DC80910C02869590E020915F
:10313000151230911612280F391F2C503109409169
:10314000131250911412480F591F4C50510900E0AE
:1031500010E06EE574E08DE493E10E9449B4809143
:103160000C02869590E02091151230911612280FCE
:10317000391F4091131250911412480F591F4C508F
:10318000510982C086E084DC80910C02869590E033
:1031900020910D1230910E12280F391F265031093F
:1031A00040910B1250910C12480F591F4E5051096B
:1031B00000E010E063E674E08BC48AE069DC809193
:1031C0000C02869590E020911D1230911E12280F5E
:1031D000391F2251310940911B1250911C12480F86
:1031E000591F4E50510900E010E06FE174E01AC021
:1031F0008AE04EDC80910C02869590E020911D12B1
:1032000030911E12280F391F2251310940911B1293
:1032100050911C12480F591F4E50510900E010E008
:103220006DE674E08DE493E10E9449B480910C0254
:10323000869590E020911D1230911E12280F391FA3
:103240002650310940911B1250911C12480F591FF2
:103250004E50510968E674E08DE493E10E9449B450
:1032600080910C02869590E020911D1230911E12E3
:10327000280F391F2A5F3F4F40911B1250911C129B
:10328000480F591F4E50510969E574E021C48AE086
:10329000FFDB80910C02869590E020911D12309109
:1032A0001E12280F391F2C50310940911B125091CA
:1032B0001C12480F591F4E50510900E010E06CE2FB
:1032C00074E08DE493E10E9449B480910C028695EC
:1032D00090E020911D1230911E12280F391F40914D
:1032E0001B1250911C12480F591F4A50510962E796
:1032F00074E0EEC382E0CCDB80910C02869590E016
:103300002091FD113091FE11280F391F2C503109E9
:103310004091FB115091FC11480F591F4A5051091F
:1033200000E010E066E774E08DE493E10E9449B4A8
:1033300080910C02869590E02091FD113091FE1154
:10334000280F391F4091FB115091FC11D5C188E025
:103350009FDB80910C02869590E0209115123091B0
:103360001612280F391F2C50310940911312509119
:103370001412480F591F4A50510900E010E060E84C
:1033800074E0A8C184E084DB80910C02869590E013
:103390002091051230910612280F391F2C50310947
:1033A0004091031250910412480F591F4A5051097D
:1033B00000E010E066E774E08DE493E10E9449B418
:1033C00080910C02869590E02091051230910612B2
:1033D000280F391F40910312509104122CC08AE02B
:1033E00057DB80910C02869590E020911D12309160
:1033F0001E12280F391F2C50310940911B12509179
:103400001C12480F591F4A50510900E010E060E8B3
:1034100074E08DE493E10E9449B480910C0286959A
:1034200090E020911D1230911E12280F391F4091FB
:103430001B1250911C12480F591F4251510964E848
:1034400074E046C382E024DB80910C02869590E014
:103450002091FD113091FE11280F391F2C50310998
:103460004091FB115091FC11480F591F4A505109CE
:1034700000E010E066E774E08DE493E10E9449B457
:1034800080910C02869590E02091FD113091FE1103
:10349000280F391F4091FB115091FC112CC088E07E
:1034A000F7DA80910C02869590E020911512309108
:1034B0001612280F391F2C503109409113125091C8
:1034C0001412480F591F4A50510900E010E060E8FB
:1034D00074E08DE493E10E9449B480910C028695DA
:1034E00090E02091151230911612280F391F40914B
:1034F000131250911412480F591F405151096AE894
:1035000074E0E6C284E0C4DA80910C02869590E013
:103510002091051230910612280F391F22513109CE
:103520004091031250910412480F591F4A505109FB
:1035300000E010E066E774E07EC08AE0A9DA8091DE
:103540000C02869590E020911D1230911E12280FDA
:10355000391F2251310940911B1250911C12480F02
:10356000591F4A50510900E010E060E874E08DE412
:1035700093E10E9449B480910C02869590E02091DD
:103580001D1230911E12280F391F2650310940910B
:103590001B1250911C12480F591F4A50510960E5E7
:1035A00074E08DE493E10E9449B480910C02869509
:1035B00090E020911D1230911E12280F391F2A5FB2
:1035C0003F4F40911B1250911C1263C086E060DA9D
:1035D00080910C02869590E020910D1230910E1290
:1035E000280F391F2650310940910B1250910C12AF
:1035F000480F591F4251510900E010E064E974E09E
:1036000067C284E045DA80910C02869590E02091B3
:10361000051230910612280F391F225131094091AD
:10362000031250910412480F591F4A50510900E0EB
:1036300010E069E974E08DE493E10E9449B480915F
:103640000C02869590E02091051230910612280F09
:10365000391F265031094091031250910412480F2E
:10366000591F4A50510960E574E08DE493E10E94CE
:1036700049B480910C02869590E02091051230911A
:103680000612280F391F2A5F3F4F409103125091B5
:103690000412480F591F4E5051096FE874E018C2C8
:1036A00088E0F6D980910C02869590E02091151261
:1036B00030911612280F391F2C50310940911312E6
:1036C00050911412480F591F4A50510900E010E060
:1036D00069E974E08DE493E10E9449B480910C02A1
:1036E000869590E02091151230911612280F391FFF
:1036F0004091131250911412480F591F4251510911
:103700006AE774E0E5C182E0C3D980910C02869536
:1037100090E02091FD113091FE11280F391F2C509F
:1037200031094091FB115091FC11480F591F4A502B
:10373000510900E010E069E974E08DE493E10E9432
:1037400049B480910C02869590E02091FD11309152
:10375000FE11280F391F4091FB115091FC11480FA9
:10376000591F4A5051096DE974E0B2C182E090D905
:1037700080910C02869590E02091FD113091FE1110
:10378000280F391F2C5031094091FB115091FC1129
:10379000480F591F4A50510900E010E066E774E0F5
:1037A0008DE493E10E9449B480910C02869590E0EB
:1037B0002091FD113091FE11280F391F4091FB110E
:1037C0005091FC112CC088E063D980910C02869541
:1037D00090E02091151230911612280F391F2C50AD
:1037E00031094091131250911412480F591F4A5039
:1037F000510900E010E060E874E08DE493E10E947C
:1038000049B480910C02869590E020911512309178
:103810001612280F391F4091131250911412480F9D
:10382000591F4A50510961EA74E052C184E030D90D
:1038300080910C02869590E020910512309106123D
:10384000280F391F2C503109409103125091041256
:10385000480F591F4A50510900E010E066E774E034
:103860008DE493E10E9449B480910C02869590E02A
:103870002091051230910612280F391F4091031232
:10388000509104122CC08AE003D980910C028695D5
:1038900090E020911D1230911E12280F391F2C50DC
:1038A000310940911B1250911C12480F591F4A5068
:1038B000510900E010E060E874E08DE493E10E94BB
:1038C00049B480910C02869590E020911D123091B0
:1038D0001E12280F391F40911B1250911C12480FC5
:1038E000591F4A50510965EA74E0F2C082E0D0D80D
:1038F00080910C02869590E02091FD113091FE118F
:10390000280F391F2C5031094091FB115091FC11A7
:10391000480F591F4A50510900E010E066E774E073
:103920008DE493E10E9449B480910C02869590E069
:103930002091FD113091FE11280F391F4091FB118C
:103940005091FC112CC088E0A3D880910C02869580
:1039500090E02091151230911612280F391F2C502B
:1039600031094091131250911412480F591F4A50B7
:10397000510900E010E060E874E08DE493E10E94FA
:1039800049B480910C02869590E0209115123091F7
:103990001612280F391F4091131250911412480F1C
:1039A000591F4A51510969EA74E092C084E070D805
:1039B00080910C02869590E02091051230910612BC
:1039C000280F391F2C5031094091031250910412D5
:1039D000480F591F4A50510900E010E066E774E0B3
:1039E0008DE493E10E9449B480910C02869590E0A9
:1039F0002091051230910612280F391F40910312B1
:103A0000509104122CC08AE043D880910C02869514
:103A100090E020911D1230911E12280F391F2C505A
:103A2000310940911B1250911C12480F591F4A50E6
:103A3000510900E010E060E874E08DE493E10E9439
:103A400049B480910C02869590E020911D1230912E
:103A50001E12280F391F40911B1250911C12480F43
:103A6000591F4651510962EB74E032C080E010D812
:103A700080910C02869590E02091F5113091F6111D
:103A8000280F391F2C5031094091F3115091F41136
:103A9000480F591F4851510900E010E069EB74E0EC
:103AA0008DE493E10E9449B480910C02869590E0E8
:103AB0002091F5113091F611280F391F4091F31123
:103AC0005091F411480F591F4651510961EC74E0AF
:103AD0008DE493E10E9449B41F910F910895CF9313
:103AE000DF93EB012A813B81FC01338322834C81EC
:103AF0005D816E817F8144835583668377834885AA
:103B000059856A857B8540875187628773872DE059
:103B1000FE013C96DC011C9601900D922A95E1F77E
:103B2000298D3A8DFC01328F218FDF91CF9108953D
:103B3000EF92FF920F931F93CF93DF93CDB7DEB732
:103B4000E7970FB6F894DEBF0FBECDBF7C018B01A7
:103B500041E062EE72E1CE014C960E948871CE0186
:103B60004C960E94D46E882399F1CE014C960E9407
:103B7000596EBC01C8010E94BAC3882359F16EE195
:103B800075E08AE398E10E94DCBFCE014C960E946A
:103B9000C26E41E062EE72E1CE0101960E94887130
:103BA000BE016F5F7F4FCE014C9699DFCE014C96E0
:103BB0000E94D46E882341F0CE014C960E94596E2B
:103BC000BC01C8010E94EFC2CE014C960E94C26E99
:103BD00021E001C020E0CE014C962FAB0E94C26EC6
:103BE0002FA9222309F4B4CFB801C7010E94E7C26C
:103BF000C701E7960FB6F894DEBF0FBECDBFDF91C9
:103C0000CF911F910F91FF90EF900895EF92FF9247
:103C10000F931F93CF93DF93CDB7DEB7EC970FB61B
:103C2000F894DEBF0FBECDBF7C018B016AED77E05B
:103C3000CE01C7960E94BDC241E062EE72E1CE01A4
:103C40004C960E948871CE014C960E94D46E8823B7
:103C500089F0CE014C960E94596EBC01C8010E94A9
:103C6000BAC3882339F06AE275E08AE398E10E94DA
:103C7000DCBF48C0CE014C960E94596EBC01CE01FB
:103C8000C7960E94EFC26FE275E08AE398E10E9456
:103C9000A2BFBE01695C7F4F8AE398E10E94CCBF5E
:103CA000CE014C960E94C26E41E062EE72E1CE01FE
:103CB00001960E948871BE016F5F7F4FCE014C96C6
:103CC0000EDFCE014C960E94D46E8823D9F0CE012F
:103CD0004C960E94596EBC01C8010E94BAC3882349
:103CE00039F0BE01695C7F4FC8010E94D2C20AC090
:103CF000CE014C960E94596EBC01CE01C7960E941F
:103D0000EFC2CECFCE014C960E94C26EB801C70161
:103D10000E94E7C2CE01C7960E9454C2C701EC962A
:103D20000FB6F894DEBF0FBECDBFDF91CF911F91CC
:103D30000F91FF90EF900895CF92DF92EF92FF9254
:103D40000F931F93CF93DF93CDB7DEB7A1970FB635
:103D5000F894DEBF0FBECDBF7C018B016A016BE31F
:103D600075E08AE398E10E94A2BFB8018AE398E176
:103D70000E94CCBF66E575E08AE398E10E94DCBF53
:103D800082EE92E10E94ED716AED77E0C8010E9437
:103D9000BAC38823D1F041E062EE72E1CE01019610
:103DA0000E948871CE0101960E94D46E882341F052
:103DB000CE0101960E94596EBC01C8010E94EFC25B
:103DC000CE0101960E94C26E2AC01C141D0464F428
:103DD000B801CE014C960E94E7C2BE01645E7F4FDF
:103DE000CE010196A5DE0DC0CD28C9F0B801CE01E7
:103DF0004C960E94E7C2BE01645E7F4FCE010196E1
:103E000005DFBE016F5F7F4FC8010E94D2C2CE01A5
:103E100001960E9454C2CE014C960E9454C268E69C
:103E200075E08AE398E10E94A2BFB8018AE398E1B5
:103E30000E94CCBFB801C7010E94E7C2C701A1968A
:103E40000FB6F894DEBF0FBECDBFDF91CF911F91AB
:103E50000F91FF90EF90DF90CF900895CF92DF9277
:103E6000EF92FF920F931F93CF93DF93CDB7DEB7FF
:103E700062970FB6F894DEBF0FBECDBF25E045E0D8
:103E800065E08DE493E10E948DAE4091F91150916F
:103E9000FA118A01085E1F4F465F5F4F6091F31170
:103EA0007091F41120E431E08DE493E10E94C7AFFA
:103EB0002FEF4FEF6FEF8DE493E10E948DAE25E081
:103EC00045E065E08DE493E10E94A1AE6FE775E007
:103ED000CE010D960E94BDC26AED77E08DEF92E1B2
:103EE0000E94BAC3811108C062E07AE08DEF92E1CE
:103EF0000E94BAC3882309F18091E012882319F146
:103F00006AED77E0CE0107960E94BDC241E050E025
:103F1000BE01695F7F4FCE0101960EDFBE016F5F6C
:103F20007F4F8DEF92E10E94D2C2CE0101960E9496
:103F300054C2CE0107960E9454C26DEF72E1CE01C9
:103F40000D960E94D2C2E090F911F090FA118AE029
:103F5000E80EF11CC090F311D090F411BE01635F24
:103F60007F4FCE0101960E94E7C200E010E097016A
:103F7000A601BE016F5F7F4F8DE493E10E94F2B412
:103F8000CE0101960E9454C2CE010D960E9454C2E9
:103F900062960FB6F894DEBF0FBECDBFDF91CF9112
:103FA0001F910F91FF90EF90DF90CF900895209197
:103FB000F0114091F1116091F2118DE493E10E94B2
:103FC000A1AE25E045E065E08DE493E10E948DAE71
:103FD00080910A02813039F58091AC12882311F06A
:103FE00081E201C080E20E9404168091E0128823E1
:103FF00019F082E00E94041684E20E940416809167
:104000003115882311F088E001C087E00E94041672
:1040100080914C02882311F084E001C085E00E9469
:10402000041683E20FC080910A02823079F48DE198
:104030000E9404168EE10E94041680914C0288238F
:1040400019F084E00C94041685E0FCCF80910A02FC
:104050008330B1F486E20E9404168BE00E940416BD
:104060008CE00E9404168091B312882311F082E242
:1040700001C080E10E9404168FE00E940416EECE7B
:1040800080910A02863071F589E00E9404168AE068
:104090000E94041682E10E94041683E10E94041625
:1040A00084E10E9404166091570270915802809139
:1040B000590290915A020E9442C69B01AC0160E7EE
:1040C00070E080911312909114120E94DB126091A3
:1040D00053027091540280915502909156020E94B1
:1040E00042C658C080910A02843079F589E10E9465
:1040F00004168AE10E9404168BE10E9404168CE1EA
:104100000E94041684E10E9404162091100230914E
:104110001102409112025091130260E770E0809109
:104120001312909114120E94291320914E02309183
:104130004F02409150025091510260E770E080912F
:104140001B1290911C120C94291380910A02853045
:1041500021F585E10E94041686E10E94041687E19C
:104160000E94041688E10E94041684E10E9404164D
:1041700087E692E10E94ED839B01AC0160E770E06D
:1041800080911312909114120E94DB1283E292E14B
:104190000E94ED839B01AC014CC080910A028730E4
:1041A00089F48FE10E94041684E10E9404168DE1D7
:1041B0000E9404168EE10E94041685E20E940416F5
:1041C00087E240CF80910A02883029F48CE20E9475
:1041D000041684E137CF80910A02893091F588E294
:1041E0000E94041689E20E9404168AE20E940416C4
:1041F0008BE20E9404168DE20E94041684E10E9464
:1042000004162091790230917A02442737FD4095B7
:10421000542F60E770E080911312909114120E9465
:10422000DB1220917B0230917C02442737FD4095C0
:10423000542F60E770E080911B1290911C120C9437
:10424000DB1208952091F0114091F1116091F2116B
:104250008DE493E10E948DAE8DE493E10E94EDAD7B
:1042600081E080930A02A3CE2091F0114091F111D8
:104270006091F2118DE493E10E948DAE8DE493E1A3
:104280000E94EDAD83E080930A0291CE8F929F92BF
:10429000AF92BF92CF92DF92EF92FF920F931F9354
:1042A000CF93DF93CDB7DEB72C970FB6F894DEBF70
:1042B0000FBECDBF6C015B0180910A02813009F015
:1042C00055C025E045E065E08DE493E10E948DAEA8
:1042D0004091F9115091FA118A01085E1F4F465F13
:1042E0005F4F6091F3117091F41120E431E08DE49F
:1042F00093E10E94C7AF2FEF4FEF6FEF8DE493E193
:104300000E948DAE25E045E065E08DE493E10E94DA
:10431000A1AEE090F911F090FA118AE0E80EF11CDC
:104320008090F3119090F411B501CE0101960E9496
:10433000E7C2B601CE0101960E9443C3BC01CE0183
:1043400007960E94E7C200E010E09701A401BE01B9
:10435000695F7F4F8DE493E10E94F2B4CE0107962E
:104360000E9454C2CE0101960E9454C22C960FB6F0
:10437000F894DEBF0FBECDBFDF91CF911F910F919B
:10438000FF90EF90DF90CF90BF90AF909F908F9075
:10439000089590910A02913051F5833009F4CCC010
:1043A00028F4813051F0823079F0C5C08530C1F0F9
:1043B00080F0863009F4C2C0BEC08091AC12882360
:1043C00009F4BEC081E208958091E0128111BAC063
:1043D000B2C080914C02882309F4B6C084E00895ED
:1043E00080913115882309F4B1C088E00895909137
:1043F0000A029630A9F4843009F4B8C038F4823047
:1044000069F0833009F097C083E10895853009F49D
:104410009FC0863009F08FC082E108958AE0089538
:1044200090910A029430A9F4843009F49FC038F4C2
:10443000823069F0833009F07EC08AE108958530CA
:1044400009F488C0863009F076C089E108958CE1CE
:10445000089590910A029530A9F4843009F486C039
:1044600038F4823069F0833009F065C088E108953E
:10447000853009F471C0863009F05DC087E1089588
:1044800086E1089590910A029930C1F4833091F049
:1044900030F4813069F0823009F460C04CC085305E
:1044A00059F008F463C0863009F045C088E20895E9
:1044B0008DE2089589E208958AE2089590910A02B2
:1044C0009330A9F4843009F44BC020F4823099F57C
:1044D0008CE00895853019F0863019F02CC08BE0FF
:1044E00008958091B3128823E9F182E208959091B2
:1044F0000A029730A9F4833079F028F4813051F022
:10450000823091F118C0853049F080F1863099F4FD
:1045100087E2089585E208958EE108958DE108957A
:1045200090910A02983039F4813019F08430F1F01A
:1045300002C08CE20895089584E2089583E208950C
:1045400080E2089582E0089585E0089587E0089567
:1045500089E008958BE1089585E108958BE208953F
:104560008FE0089580E108958FE1089584E1089532
:104570000F931F93CF93DF938C01EB016DE875E0F0
:104580008AE398E10E94A2BF4AE050E0B8018AE3C2
:1045900098E10E948BC066E076E08AE398E10E9491
:1045A000A2BF4AE050E0BE018AE398E10E9492C0B7
:1045B0008091F3119091F41108171907B4F08091CC
:1045C000F7119091F811801791077CF08091F51107
:1045D0009091F611C817D90744F08091F911909184
:1045E000FA118C179D070CF090C08091FB119091EF
:1045F000FC1108171907B4F08091FF119091001277
:10460000801791077CF08091FD119091FE11C817E1
:10461000D90744F08091F9119091FA118C179D07F8
:104620000CF075C0809103129091041208171907BD
:10463000B4F08091071290910812801791077CF0D6
:104640008091051290910612C817D90744F0809105
:10465000091290910A128C179D070CF05AC0809194
:104660000B1290910C1208171907B4F080910F12D9
:1046700090911012801791077CF080910D1290910B
:104680000E12C817D90744F080911112909112129E
:104690008C179D070CF03FC080911312909114125B
:1046A00008171907ACF08091171290911812801713
:1046B000910774F08091151290911612C817D907BE
:1046C0003CF08091191290911A128C179D072CF5CD
:1046D00080911B1290911C1208171907ACF0809161
:1046E0001F12909120128017910774F080911D1273
:1046F00090911E12C817D9073CF080912112909119
:1047000022128C179D075CF40BC081E009C082E087
:1047100007C083E005C084E003C085E001C086E0F7
:10472000DF91CF911F910F910895CF92DF92EF9279
:10473000FF920F931F93CF93DF93EC018B016A01DC
:1047400069E070E082E395E10E94398AEE24D7FCAB
:10475000E094FE2CC017D107CCF4BE0182E395E1B2
:104760000E947F8AC701B6010E948CBB21960C175C
:104770001D079CF782E395E1DF91CF911F910F9187
:10478000FF90EF90DF90CF900C943E8ABE0182E3C1
:1047900095E10E947F8AC701B6010E948CBB2197D8
:1047A000C017D1079CF7E6CF0F931F93CF93DF93EA
:1047B00000D000D0CDB7DEB78091D3149091D4143F
:1047C0002091311502972CF1222329F000917B02D0
:1047D00010917C0204C00091790210917A0267EE78
:1047E00074E1CE0101960E94E7C2CE0101960E94BB
:1047F0004C0E90937C0280937B02CE0101960E9426
:1048000054C260917B0270917C0243E050E0C80189
:104810000CC021110BC060917B0270917C0243E0BF
:1048200050E08091790290917A027FDF81E080935D
:10483000311526960FB6F894DEBF0FBECDBFDF91BF
:10484000CF911F910F9108950F931F93CF93DF93F3
:1048500000D000D0CDB7DEB78091D3149091D4149E
:104860002091311502972CF1222329F000917B022F
:1048700010917C0204C00091790210917A0267EED7
:1048800074E1CE0101960E94E7C2CE0101960E941A
:104890004C0E90937A0280937902CE0101960E9489
:1048A00054C26091790270917A0243E050E0C801ED
:1048B0000CC0222359F06091790270917A0243E092
:1048C00050E080917B0290917C022FDF1092311595
:1048D00026960FB6F894DEBF0FBECDBFDF91CF9105
:1048E0001F910F9108954F925F926F927F92AF92B6
:1048F000BF92CF92DF92EF92FF920F931F93CF93CD
:10490000DF93CDB7DEB728970FB6F894DEBF0FBEA2
:10491000CDBF6D837E838F83988729013A01E98219
:10492000FA820B831C8369E274E08AE398E10E94B7
:104930006FBF2AE030E04D815E816F8178858AE328
:1049400098E10E9444C06DE174E08AE398E10E941E
:104950006FBF2AE030E0B301A2018AE398E10E9430
:1049600044C061E174E08AE398E10E946FBF2AE0ED
:1049700030E049815A816B817C818AE398E10E9411
:1049800044C065E074E08AE398E10E946FBF2AE0CA
:1049900030E0B601A5018AE398E10E9444C063E0DB
:1049A00074E08AE398E10E94BCBF2D813E814F8173
:1049B000588589819A81AB81BC81281739074A07BC
:1049C0005B0744F4481659066A067B06C4F465EF93
:1049D00073E053C02D813E814F81588589819A8132
:1049E000AB81BC8182179307A407B507C4F4A41454
:1049F000B504C604D7045CF467EE73E058C0A41491
:104A0000B504C604D70494F569ED73E029C04A14CF
:104A10005B046C047D04BCF56BEC73E014C02D8169
:104A20003E814F81588589819A81AB81BC8128174D
:104A300039074A075B0739F54A145B046C047D04A7
:104A400044F463EC73E08AE398E10E94BCBF81E028
:104A50003AC0A414B504C604D70474F56BEB73E034
:104A60008AE398E10E94BCBF83E02DC04A145B0436
:104A70006C047D0409F563EB73E08AE398E10E941E
:104A8000BCBF84E020C02D813E814F815885898143
:104A90009A81AB81BC8182179307A407B50764F4A0
:104AA0004A145B046C047D0439F46BEA73E08AE316
:104AB00098E10E94BCBF06C060E975E08AE398E116
:104AC0000E94DCBF82E028960FB6F894DEBF0FBECE
:104AD000CDBFDF91CF911F910F91FF90EF90DF90AD
:104AE000CF90BF90AF907F906F905F904F90089560
:104AF0008F929F92AF92BF92CF92DF92EF92FF92EE
:104B0000CF93DF936B017C01209113153091141525
:104B100040911515509116150E9462C74B015C011A
:104B200020E030E040E050E40E945EC787FD06C010
:104B3000C501B4010E9442C6EB0102C0C1E0D0E051
:104B40006DE873E08AE398E10E946FBF22E030E0F5
:104B5000B701A6018AE398E10E94C0C16AE873E048
:104B60008AE398E10E946FBF4AE050E0BE018AE309
:104B700098E10E948BC062E873E08AE398E10E94AA
:104B80006FBF8AE398E10E94AABFCE01DF91CF9167
:104B9000FF90EF90DF90CF90BF90AF909F908F905D
:104BA0000895CF93DF9360914E0270914F028091F0
:104BB0005002909151029CDFEC0167EA74E18AE3B4
:104BC00098E10E9494BF6BE974E18AE398E10E9446
:104BD00094BF6CEA75E08AE398E10E94A2BFCC0F13
:104BE000DD1F4AE050E0BE018AE398E10E948BC0DD
:104BF00067E77EE08AE398E10E94A2BF60917102BC
:104C000070917202CE010E948BC84AE050E08AE3A4
:104C100098E10E948BC062EC75E08AE398E1DF9135
:104C2000CF910C94DCBFCF93DF9300D000D0CDB7F1
:104C3000DEB767EE74E1CE0101960E94E7C2CE01B5
:104C400001960E947C0E60934E0270934F028093F7
:104C5000500290935102CE0101960E9454C267EA1D
:104C600074E18AE398E10E9494BF6BE974E18AE3FE
:104C700098E10E9494BF6EE475E08AE398E10E9497
:104C80006FBF40914E0250914F026091500270915F
:104C9000510222E030E08AE398E10E94C0C16BE457
:104CA00075E08AE398E10E946FBF8AE398E10E9471
:104CB000AABF77DF26960FB6F894DEBF0FBECDBF32
:104CC000DF91CF9108958F929F92AF92BF92CF9232
:104CD000DF92EF92FF920F931F93CF93DF936B01BD
:104CE0007C01EA01BA01882777FD8095982F0E9400
:104CF00075C62091171530911815409119155091CE
:104D00001A150E9462C74B015C016CE673E08AE3EE
:104D100098E10E946FBF22E030E0B501A4018AE370
:104D200098E10E94C0C16EE573E08AE398E10E94B9
:104D30006FBF40911715509118156091191570911A
:104D40001A1522E030E08AE398E10E94C0C166E4CF
:104D500073E08AE398E10E946FBF4AE050E0BE0131
:104D60008AE398E10E9492C0A7019601C501B401AF
:104D70000E94DAC54B015C0120E030E040E050E4E5
:104D80000E945EC787FD09C0C501B4010E9442C6EA
:104D90008B0162307105ECF502C001E010E068E2C1
:104DA00073E08AE398E10E946FBF22E030E0B70130
:104DB000A6018AE398E10E94C0C16FE173E08AE333
:104DC00098E10E946FBF4AE050E0BE018AE398E19B
:104DD0000E948BC06AE173E08AE398E10E946FBF92
:104DE0004AE050E0B8018AE398E10E9492C067EA85
:104DF00074E18AE398E10E9494BF6BE974E18AE36D
:104E000098E10E9494BF66EF72E08AE398E10E9405
:104E1000BCBFC801DF91CF911F910F91FF90EF9020
:104E2000DF90CF90BF90AF909F908F9008954F925A
:104E30005F926F927F928F929F92AF92BF92CF922A
:104E4000DF92EF92FF92CF93DF936C017B01EA0137
:104E5000BA01882777FD8095982F0E9475C64B016F
:104E60005C01B601882777FD8095982F0E9475C652
:104E70002B013C01B701882777FD8095982F0E9470
:104E800075C69B01AC01C301B2010E94DAC5A50140
:104E900094010E9462C79B01AC01C501B4010E944C
:104EA0006EC54B015C016EEE72E08AE398E10E94F0
:104EB0006FBF4AE050E0B6018AE398E10E948BC0E0
:104EC00065EE72E08AE398E10E946FBF4AE050E02D
:104ED000B7018AE398E10E948BC06BED72E08AE330
:104EE00098E10E946FBF4AE050E0BE018AE398E17A
:104EF0000E948BC060ED72E08AE398E10E946FBF70
:104F000022E030E0B501A4018AE398E10E94C1C12A
:104F1000C501B4010E9442C6EB01882777FD809548
:104F2000982F0E9475C69B01AC01C501B4010E9477
:104F30006EC520E030E040E05FE30E945EC71816D7
:104F40000CF42196CE01DF91CF91FF90EF90DF908E
:104F5000CF90BF90AF909F908F907F906F905F9019
:104F60004F90089580914402882319F010924402D2
:104F7000089581E08093440208958F929F92AF92AA
:104F8000BF92CF92DF92EF92FF92CF93DF9300D048
:104F900000D0CDB7DEB7C0901315D0901415E090B7
:104FA0001515F090161567EE74E1CE0101960E947A
:104FB000E7C2CE0101960E941C0E0E9475C69B019D
:104FC000AC01C701B6010E9462C70E9442C660934D
:104FD0003402709335028093360290933702CE01EB
:104FE00001960E9454C2C0901315D0901415E09001
:104FF0001515F090161561EE74E1CE0101960E9430
:10500000E7C2CE0101960E941C0E0E9475C69B014C
:10501000AC01C701B6010E9462C70E9442C66093FC
:105020003002709331028093320290933302CE01AA
:1050300001960E9454C2C0901315D0901415E090B0
:105040001515F09016156BED74E1CE0101960E94D6
:10505000E7C2CE0101960E941C0E0E9475C69B01FC
:10506000AC01C701B6010E9462C70E9442C66093AC
:105070002C0270932D0280932E0290932F02CE016A
:1050800001960E9454C2C0901315D0901415E09060
:105090001515F090161565ED74E1CE0101960E948C
:1050A000E7C2CE0101960E941C0E0E9475C69B01AC
:1050B000AC01C701B6010E9462C70E9442C660935C
:1050C00028027093290280932A0290932B02CE012A
:1050D00001960E9454C28091340290913502A091B1
:1050E0003602B091370280900F1590901015A09065
:1050F0001115B090121588169906AA06BB068CF4F5
:10510000C501B40122E030E040E050E00E94C0C898
:105110002093340230933502409336025093370285
:1051200011C0181619061A061B0664F081E090E0FB
:10513000A0E0B0E08093340290933502A093360251
:10514000B09337028091300290913102A0913202E7
:10515000B0913302C0900B15D0900C15E0900D1556
:10516000F0900E15C816D906EA06FB068CF4C701A6
:10517000B60122E030E040E050E00E94C0C8209339
:10518000300230933102409332025093330211C007
:10519000181619061A061B0664F081E090E0A0E0DC
:1051A000B0E08093300290933102A0933202B0932A
:1051B0003302409134025091350260913602709171
:1051C000370280912C0290912D02A0912E02B09175
:1051D0002F02840F951FA61FB71F88169906AA06CF
:1051E000BB0664F4841A950AA60AB70A80922C02B8
:1051F00090922D02A0922E02B0922F024091300286
:1052000050913102609132027091330280912802F4
:1052100090912902A0912A02B0912B02840F951F30
:10522000A61FB71FC816D906EA06FB0664F4C41AFF
:10523000D50AE60AF70AC0922802D0922902E09223
:105240002A02F0922B0281E08093051364EC75E052
:105250008AE398E10E94DCBF6DE875E08AE398E19B
:105260000E94A2BF409134025091350260913602F3
:10527000709137022AE030E08AE398E10E9444C04E
:105280006BED75E08AE398E10E94A2BF4091300285
:105290005091310260913202709133022AE030E085
:1052A0008AE398E10E9444C06FED75E08AE398E1DB
:1052B0000E94A2BF40912C0250912D0260912E02BB
:1052C00070912F022AE030E08AE398E10E9444C006
:1052D00067EE75E08AE398E10E94A2BF4091280240
:1052E0005091290260912A0270912B022AE030E04D
:1052F0008AE398E10E94A8C060EF75E08AE398E134
:105300000E94DCBF6DE875E08AE398E10E94A2BFCD
:10531000609134027091350280913602909137028B
:105320000E9475C6209117153091181540911915D6
:1053300050911A150E9462C7AB01BC0122E030E017
:105340008AE398E10E94C0C164E076E08AE398E1D4
:105350000E94A2BF609130027091310280913202AE
:10536000909133020E9475C620911715309118153F
:105370004091191550911A150E9462C7AB01BC01EA
:1053800022E030E08AE398E10E94C0C16BE076E061
:105390008AE398E10E94A2BF60912C0270912D02D5
:1053A00080912E0290912F020E9475C620911715B0
:1053B000309118154091191550911A150E9462C725
:1053C000AB01BC0122E030E08AE398E10E94C0C159
:1053D00066E176E08AE398E10E94A2BF609128022C
:1053E0007091290280912A0290912B020E9475C629
:1053F00020911715309118154091191550911A15D3
:105400000E9462C7AB01BC0122E030E08AE398E170
:105410000E94C0C162E276E08AE398E10E94DCBFAC
:1054200026960FB6F894DEBF0FBECDBFDF91CF91A9
:10543000FF90EF90DF90CF90BF90AF909F908F90B4
:1054400008950F931F93CF93DF9300D000D0CDB773
:10545000DEB767EE74E1CE0101960E94E7C2CE018D
:1054600001960E944C0E8C01CE0101960E9454C2FE
:10547000012B19F410920C130EC080910513882390
:1054800021F081E080930C1306C066E276E08AE3A7
:1054900098E10E94DCBF26960FB6F894DEBF0FBEDF
:1054A000CDBFDF91CF911F910F9108958F929F9261
:1054B000AF92BF92CF92DF92EF92FF920F931F9322
:1054C000CF93DF93CDB7DEB7E6970FB6F894DEBF84
:1054D0000FBECDBF7C018B01A6EACA2EA1E1DA2E58
:1054E000BDE09B2E5B018FEFA81AB80A41E0B7011F
:1054F000CE014C960E948871CE014C960E94D46ECB
:10550000882311F0812C19C062E774E08AE398E1E6
:105510000E94DCBFE6960FB6F894DEBF0FBECDBF8B
:10552000DF91CF911F910F91FF90EF90DF90CF907F
:10553000BF90AF909F908F900895882D90E0801736
:1055400091073CF469E08AE398E10E94A3BF839449
:10555000F4CFCE014C960E94596EBC018AE398E1CB
:105560000E94A2BFCE014C960E945B6E882371F10F
:1055700066ED77E08AE398E10E94DCBF8E8D9F8D17
:105580009C838B8388A199A1AAA1BBA18D839E83B3
:10559000AF83B8878CA19DA1AEA1BFA189879A874F
:1055A000AB87BC87DA82C982FE01B896DE011D9600
:1055B000892D01900D928A95E1F78DA99EA99B8F67
:1055C0008A8FB501CE01019671DF12C068ED77E0D8
:1055D0008AE398E10E94A2BFCE014C960E94856E9C
:1055E000AB01BC012AE030E08AE398E10E94D9C017
:1055F000CE014C960E94C26E79CFCF93DF93CDB788
:10560000DEB76B970FB6F894DEBF0FBECDBF61E07B
:1056100085E30E9472BC65E386E495E10E94E16F38
:10562000811107C06BED77E08AE398E10E94DCBF4F
:1056300009C067EF77E08AE398E10E94DCBF81E070
:105640008093E1128091E112882309F455C06EE045
:1056500078E08AE398E10E94DCBF21E046ED57E064
:1056600066E475E1CE0101960E94F570BE016F5FA0
:105670007F4F82EE92E10E946F1D81E08093E012E5
:105680008091E4129091E5129C838B838091E612C5
:105690009091E712A091E812B091E9128D839E8358
:1056A000AF83B8878091EA129091EB12A091EC122F
:1056B000B091ED1289879A87AB87BC8786EA91E122
:1056C0009A8389838DE0EEEEF2E1DE011D96019072
:1056D0000D928A95E1F78091FB129091FC129B8FBD
:1056E0008A8F60E070E0CE010196E0DE60E278E053
:1056F0008AE398E10E94DCBF6B960FB6F894DEBF98
:105700000FBECDBFDF91CF9108951092B3126AED15
:1057100077E08DEA92E10E94EFC21092E1121092BE
:10572000E0126AED77E08DEF92E10E94EFC265CF63
:10573000CF92DF92EF92FF920F931F93CF93DF935D
:10574000CDB7DEB76B970FB6F894DEBF0FBECDBFF7
:105750006C01EDB6FEB640910113509102134F5FFC
:105760005F4F8DB79EB7841B950B0FB6F8949EBF05
:105770000FBE8DBF0DB71EB70F5F1F4F20E030E08B
:10578000B8018DEF92E10E944FC423E1A80166E4C5
:1057900075E1CE0101960E94F570CE0101960E943E
:1057A000D46E8823E1F066E278E08AE398E10E9413
:1057B000A2BF6DEF72E18AE398E10E94CCBFB6010F
:1057C000CE0101960E94CCBFCE0101960E94C26E0E
:1057D00067E378E08AE398E10E94DCBF0CC06DE3E8
:1057E00078E08AE398E10E94A2BF6DEF72E18AE35C
:1057F00098E10E94CCBF0FB6F894FEBE0FBEEDBE7E
:105800006B960FB6F894DEBF0FBECDBFDF91CF9180
:105810001F910F91FF90EF90DF90CF900895CF925E
:10582000DF92EF92FF920F931F93CF93DF93EC01E0
:105830008B016CE478E08AE398E10E94A2BF4AE021
:1058400050E0BE018AE398E10E948BC065E578E0F4
:105850008AE398E10E94A2BF4AE050E0B8018AE3DF
:1058600098E10E9492C06AE578E08AE398E10E949C
:10587000A2BF6091B8127091B9124AE050E08AE379
:1058800098E10E9492C06AE678E08AE398E10E947B
:10589000A2BF4091C0125091C1126091C21270918A
:1058A000C3122AE030E08AE398E10E94A8C0C090C9
:1058B000B812D090B912EE24D7FCE094FE2C2091BF
:1058C000C0123091C1124091C2125091C312D8013E
:1058D0000E9407C9C60ED71EE81EF91ECE01AA27D0
:1058E00097FDA095BA2FC80ED91EEA1EFB1E64E7CD
:1058F00078E08AE398E10E94A2BF2AE030E0B70195
:10590000A6018AE398E10E9444C08091B41290916C
:10591000B512A091B612B091B7128C159D05AE05C7
:10592000BF05D4F0B701A60184EC92E10E94686E35
:1059300084EC92E10E94DA6DC82F6DE778E08AE38B
:1059400098E10E94A2BF4AE050E06C2F8AE398E100
:105950000E94C4C08C2F01C08FEFDF91CF911F91A7
:105960000F91FF90EF90DF90CF9008958F929F92CC
:10597000AF92BF92EF92FF920F931F93CF93DF935B
:10598000CDB7DEB763970FB6F894DEBF0FBECDBFBD
:10599000EDB6FEB640E050E0BA0184EC92E10E9420
:1059A000686E6CE07AE0CE010D960E94BDC284EC78
:1059B00092E10E94DA6D182F60E070E0CE010D9642
:1059C0000E942BC4FC01108384EC92E10E94DA6DEA
:1059D000182F61E070E0CE010D960E942BC4FC01EF
:1059E00010836CE878E0CE010D960E94670D882345
:1059F000A9F06FE878E08AE398E10E94A2BFBE01B7
:105A0000635F7F4F8AE398E10E9494BF6DEA78E07C
:105A10008AE398E10E94DCBF10E05EC168EC78E0A8
:105A20008AE398E10E94DCBF84EC92E10E94DA6D87
:105A30006AED77E0CE0107960E94BDC284EC92E148
:105A40000E94DA6D182F8A3009F18032F9F0133292
:105A500039F484EC92E10E94DA6D182F8A30C9F78C
:105A6000BE01695F7F4FCE0101960E94E7C2612FA0
:105A7000CE0101960E946CC3BC01CE0107960E9424
:105A8000D2C2CE0101960E9454C2D8CF6EEE78E009
:105A90008AE398E10E94A2BFBE01695F7F4F8AE35B
:105AA00098E10E94CCBF4B855C854F5F5F4F8DB7FF
:105AB0009EB7841B950B0FB6F8949EBF0FBE8DBF8B
:105AC0000DB71EB70F5F1F4F20E030E0B801CE01C9
:105AD00007960E944FC4C8010E9495CBAA2797FD44
